S0100000737065634D6563682E73726563EC
S11300000C9433010C9445010C9445010C94D118C3
S11300100C9445010C9445010C9445010C94450144
S11300200C9445010C9445010C9445010C94450134
S11300300C9474190C9445010C9445010C944501DD
S11300400C9445010C94181B0C94661B0C944501EC
S11300500C94CE0E0C9445010C9445010C9445016E
S11300600C9445010C9445010C94A21B0C94CD1BDB
S11300700C9445010C94721C0C9445010C9445019C
S11300800C9445010C9445010C9445010C944501D4
S11300900C9445010C94091C0C943E1C0C944501D1
S11300A0AC04D004D004D004D004D004D004D004D0
S11300B0D004AF04D004D004D004D004D004D004BD
S11300C0D004D004D004D004D004D004D004D0048C
S11300D0D004D0049A04D004D004D004D004D004B2
S11300E0D004D004D004D004A004D0049D04D004CF
S11300F0D004A304A604A904BB0FBB0FBB0F841434
S1130100841484148414841484148414841484142B
S1130110841484148414841484148414841484141B
S11301208414461484148414841484148414841449
S113013084148414841484144B104B104B108414B2
S11301400911841484148414841484148414841469
S11301508414841446121C13841484148414A51364
S11301608414ED136E616E00696E660000407A10AF
S1130170F35A00A0724E18090010A5D4E80000E854
S11301807648170000E40B54020000CA9A3B0000B2
S113019000E1F505000080969800000040420F0041
S11301A00000A08601000000102700000000E80302
S11301B0000000006400000000000A0000000000CD
S11301C00100000000002C76D888DC674F0823DF8C
S11301D0C1DFAE59E1B1B796E5E3E453C63AE6515F
S11301E0997696E8E6C28426EB898C9B62ED407C86
S11301F06FFCEFBC9C9F40F2BAA56FA5F490055A22
S11302002AF75C936B6CF9676DC11BFCE0E40D4746
S1130210FEF520E6B500D0ED902E03009435770569
S11302200080841E080000204E0A000000C80C3321
S11302303333330F986E12831141EF8D2114893BB0
S1130240E65516CFFEE6DB18D1844B381BF77C1D30
S1130250901DA4BBE424203284725E228100C9F183
S113026024ECA1E53D2711241FBECFEFCDBFDFE372
S1130270DEBF20E3A0E0B8E201C01D92AD32B207B8
S1130280E1F70E94A9080C9418250C9400008F92A1
S11302909F92AF92BF92EF92FF920F931F93CF93CF
S11302A0DF9300D000D0CDB7DEB77B018130C9F039
S11302B018F0823061F010C00F2EF3E38F2E982CCB
S11302C0F3EFAF2EF0E4BF2EF02D11E00EC0812C21
S11302D0912C540110E109C0812C912C540110E09F
S11302E004C0812C912C540114E040E066E087E2C4
S11302F00E945909412F409560E087E20E94590904
S1130300412F6AE087E20E94590986E18A95F1F754
S113031000008E010F5F1F4F20E840E768E088E48B
S11303200E94C801833651F440E050E866E274EC60
S1130330F70140835183628373831CC020E030E063
S11303404AE754E469817A818B819C810E94381E3A
S113035023E333E948E853E40E949D1C9B01AC016C
S1130360C501B4010E949E1CF701608371838283DE
S1130370938380E02496CDBFDEBFDF91CF911F91A0
S11303800F91FF90EF90BF90AF909F908F90089542
S11303908F929F92AF92BF92CF92DF92EF92FF9291
S11303A00F931F93CF93DF93F82EE62E6801462B0D
S11303B0C42FC168D22FD36080E090E8A6E2B4ECE9
S11303C0F80180839183A283B38360E08F2D0E9420
S11303D0B619082F882321F00E94F71913E6B4C038
S11303E081E00E94FB19182F833619F40E94F71933
S11303F0ABC08C2F0E94FB19182F833619F40E946E
S1130400F719A2C08D2F0E94FB19182F833619F4F7
S11304100E94F71999C00E94F719FCE1FA95F1F7C7
S1130420C1E009C061E08F2D0E94B6190E94A9198C
S113043088230CF4C0E0C111F5CF0E94F71960E0E5
S11304408F2D0E94B61980E00E94FB1961E08F2D68
S11304500E94B6190E949919C82F0E94A919D82F71
S11304600E94F7196C2F70E0762F66276D2B84E0BD
S1130470E81649F18E1530F0EE20D9F1E2E0EE16DF
S113048069F142C0F8E0EF1609F442C08AE0E816C8
S113049021F0E6E0EE1238C00BC00F2EF4E78F2EE9
S11304A0F3E19F2EF3E0AF2EF7E3BF2EF02D3AC019
S11304B00F2EF4E78F2EF3E19F2EF3E0AF2EF8E337
S11304C0BF2EF02D2FC00F2EF2E18F2EF3E19F2EC1
S11304D0F3E8AF2EF8E3BF2EF02D24C00F2EF4E77F
S11304E08F2EF3E19F2EF3E0AF2EF9E3BF2EF02D14
S11304F019C00F2EFEE28F2EFDE99F2EF4E4AF2EDD
S1130500F9E3BF2EF02D0EC0812C912C54010AC0AA
S11305100F2EF1E78F2EF3E19F2EF3E8AF2EF7E3D2
S1130520BF2EF02D072E000C880B990B0E94831D03
S11305309B01AC01C501B4010E94381EF601608321
S1130540718382839383102F812FDF91CF911F9129
S11305500F91FF90EF90DF90CF90BF90AF909F905E
S11305608F900895CF93DF939C0140E01CC0C8E1B5
S1130570DCE2E881F0E0E75EF44D8081F901E40F0C
S1130580F11D8083AAE1BCE28C9181508C93888117
S113059090E001966EEF70E00E94222288838081B1
S11305A0882329F04F5F80911A2C8111E0CFF90143
S11305B0E40FF11D1082DF91CF9108959FE9980F08
S11305C09A3128F081548A3120F483E6089583E631
S11305D0089580E00895EF92FF921F93CF93DF93E5
S11305E0EC01E62EF12C84E38E9DF0018F9DF00D3D
S11305F01124ED5FF74D8FE380838183128213A66C
S113060004C0112309F475C021961881812F0E941A
S1130610DE028823B1F3219684E38E9DF0018F9D41
S1130620F00D1124ED5FF74D108304C0112309F47C
S113063060C021961881812F0E94DE028823B1F3C5
S1130640219684E38E9DF0018F9DF00D1124ED5FC2
S1130650F74D118380E02AC0988191110CC094E376
S11306609E9DF0019F9DF00D1124ED5FF74DE80F65
S1130670F11D12823EC09B3361F494E39E9DF00110
S11306809F9DF00D1124ED5FF74DE80FF11D1282CF
S11306900FC0219624E32E9DF0012F9DF00D11240F
S11306A0ED5FF74DE80FF11D92838F5F8932A0F261
S11306B0219680E01CC0988191110CC094E39E9D0A
S11306C0F0019F9DF00D1124ED5FF74DE80FF11D32
S11306D013A60FC0219624E32E9DF0012F9DF00D4B
S11306E01124ED5FF74DE80FF11D93A78F5F89305B
S11306F010F3DF91CF911F91FF90EF9008950F9326
S11307001F93CF93DF93CDB7DEB7C550D140CDBF94
S1130710DEBF27E0E4E3FAE8DE01A150BF4F019019
S11307200D922A95E1F720910B2A21112AC02091DC
S1130730A80422FF03C022E030E002C021E030E040
S11307409F938F933F932F93CE0181509F4F9F93FD
S11307508F938E010F5F1F4F1F930F930E9454249A
S1130760C8010E94260BF80101900020E9F7319797
S1130770AF01401B510BB80180E00E947A1ACDBF33
S1130780DEBFCB5FDE4FCDBFDEBFDF91CF911F91C8
S11307900F910895CF92DF92EF92FF920F931F93E0
S11307A0CF93DF93CDB7DEB7CC51D140CDBFDEBF01
S11307B0D82EC92E8AE0EBE3FAE89E012F5F3F4F63
S11307C07901D90101900D928A95E1F78E01055FB7
S11307D01F4FC8010E94BC05CF92DF921F930F9355
S11307E0FF92EF920C5E1F4F1F930F930E945424AD
S11307F0C8010E947F03CDBFDEBFC45EDE4FCDBF04
S1130800DEBFDF91CF911F910F91FF90EF90DF90AA
S1130810CF900895CF93DF9300D0CDB7DEB781E2B8
S113082090E089839A8341E0BE016F5F7F4F80E04F
S11308300E947A1A0F900F90DF91CF910895CF9371
S1130840C0910228C11121C0FC018081813291F440
S1130850918191110FC08FEF91E00E94A31885E060
S113086090E080930E2A90930F2A81E080930228CF
S1130870C1E00CC0813231F48181882319F00E94D7
S11308806C1C04C00E940A0401C0C1E08C2FCF91EB
S11308900895CF93DF9300D0CDB7DEB78EE390E019
S11308A089839A8341E0BE016F5F7F4F80E00E949D
S11308B07A1A0F900F90DF91CF910895CF93DF9321
S11308C0CDB7DEB7CF5FD109CDBFDEBFCE01019674
S11308D00E94B202CE0101960E941F04882309F4EB
S11308E071C08981882311F0813229F410920B2A76
S11308F00E94490467C0CE0101960E94CA03609118
S11309000028CE0101960E94EB028091002824E386
S1130910829FF0011124ED5FF74DE0814E2F50E0EE
S1130920FA01E954F109EC32F105D0F5E05BFF4F2F
S11309300C9455220E947A0D39C00E94240E36C0B0
S11309400E94741733C00E94130F30C00E94F31822
S11309502DC00E9458192AC00E947D1827C081E02A
S1130960809301280E94ED16882349F010920128F3
S113097065E47AE884E391E00E94980617C00E9437
S113098022181092122A0E9449048AE694E021E077
S1130990815090402040E1F700C00E946C1C12C0BE
S11309A060E67AE889EC90E00E949806809100283D
S11309B090E001966AE070E00E9422228093002871
S11309C00E944904C150DF4FCDBFDEBFDF91CF91FC
S11309D008950F931F93CF93DF93CDB7DEB7A097FE
S11309E0CDBFDEBF40E2EEE6FAE89E012F5F3F4F47
S11309F0D90101900D924A95E1F7FB01B081A181E3
S1130A0012810481558146811F92BF931F92AF9337
S1130A101F921F931F920F931F925F931F924F93E6
S1130A203F932F939F938F930E945424CDBFDEBF97
S1130A30A096CDBFDEBFDF91CF911F910F91089596
S1130A40DC01FB01818990E0C09782959295907FAB
S1130A509827807F982792899053892B8C93868539
S1130A6090E0C09782959295907F9827807F9827F1
S1130A7097859053892B11968C931197838590E0D9
S1130A80C09782959295907F9827807F9827948528
S1130A909053892B12968C93129781E013968C9322
S1130AA01397808590E0C09782959295907F9827C0
S1130AB0807F982791859053892B14968C93149753
S1130AC0258130E02053310922953295307F322739
S1130AD0207F322786818053282B15962C931597D7
S1130AE0228130E02053310922953295307F32271C
S1130AF0207F322783818053282B16962C930895C8
S1130B00EF92FF920F931F93CF937B0160E00E94BB
S1130B10B619C82F833619F40E94F71926C080E04D
S1130B200E94FB19C82F833619F40E94F7191DC0BF
S1130B3061E088E60E94B619C82F833661F40E94EA
S1130B40F71913C087010C0F111D0E949919F801A0
S1130B508083CF5F01C0C0E0C630A0F30E94A91912
S1130B60F70186830E94F719C0E08C2FCF911F9163
S1130B700F91FF90EF900895EF92FF921F93CF9300
S1130B80DF93CDB7DEB72797CDBFDEBF7C01BE01B3
S1130B906F5F7F4F88E60E948005182F833679F4B3
S1130BA06EE87AE885E690E00E9498068AE0EEE92D
S1130BB0FAE8D70101900D928A95E1F707C0BE01CA
S1130BC06F5F7F4FC7010E94E90410E0812F2796D1
S1130BD0CDBFDEBFDF91CF911F91FF90EF900895BD
S1130BE0EF92FF920F931F93CF93DF938B0160E0FB
S1130BF00E94B619C82F833619F40E94F71920C031
S1130C0080E00E94FB19C82F8336A1F40E94F719D3
S1130C1017C078018FEFE81AF80AF80180810E9462
S1130C20FB19C82F833619F40E94F71909C0DF5F36
S1130C30870101C0D0E0D73060F30E94F719C0E00B
S1130C408C2FDF91CF911F910F91FF90EF9008951A
S1130C501F93CF93DF93CDB7DEB72797CDBFDEBF0A
S1130C60BC01CE0101960E942005BE016F5F7F4F3B
S1130C7088E60E94F005182F833639F468EA7AE88A
S1130C8086E690E00E94980601C010E0812F279626
S1130C90CDBFDEBFDF91CF911F91089545E150E0B4
S1130CA06BE070E00E94D42408954BE050E060E0D3
S1130CB070E00E94D4240895CF93DF93CDB7DEB7BC
S1130CC06597CDBFDEBFCE0101960E94BC0545E10C
S1130CD050E06BE070E0CE0101960E94D824659646
S1130CE0CDBFDEBFDF91CF910895CF93DF93CDB712
S1130CF0DEB72B97CDBFDEBF8BE0E8EBFAE8DE0171
S1130D00119601900D928A95E1F74BE050E060E076
S1130D1070E0CE0101960E94D8242B96CDBFDEBF91
S1130D20DF91CF9108950E945C060E947506089594
S1130D300F931F93CF93DF93CDB7DEB7C850D14045
S1130D40CDBFDEBF2AE0E3ECFAE8DE01A150BF4FDD
S1130D5001900D922A95E1F720910128211115C0E7
S1130D607F936F939F938F93CE0181509F4F9F9357
S1130D708F938E010F5F1F4F1F930F930E94542474
S1130D80C8010E947F03CDBFDEBFC85FDE4FCDBF69
S1130D90DEBFDF91CF911F910F910895CF92DF9223
S1130DA0EF92FF920F931F93CF93DF93D82FD62EFA
S1130DB0072F7A01122F60E00E94B619C82F8336DC
S1130DC019F40E94F7192EC0802F0E94FB19C82F16
S1130DD0833641F18D2D0E94FB19C82F833611F102
S1130DE061E08D2F0E94B619C82F8336D9F0C0E078
S1130DF008C06701CC0ED11C0E949919F6018083AA
S1130E00CF5F2C2F30E0812F90E00197281739070E
S1130E1084F3EC01CE0DDF1D0E94A91988830E9482
S1130E20F719C0E08C2FDF91CF911F910F91FF90A4
S1130E30EF90DF90CF900895EF92FF921F93CF939E
S1130E40DF93CDB7DEB72A97CDBFDEBF7C018AE042
S1130E50EDECFAE8DE01119601900D928A95E1F726
S1130E6024E1A70160E070E080E50E94CE06182F1F
S1130E70833639F4BE016F5F7F4FC7010E94F123AF
S1130E8001C010E0812F2A96CDBFDEBFDF91CF9144
S1130E901F91FF90EF900895EF92FF920F931F938D
S1130EA0CF93DF93F62E172FEA01022F60E00E9402
S1130EB0B6198336E1F0812F0E94FB198336B9F00D
S1130EC08F2D0E94FB19833691F010E00BC07E0138
S1130ED08FEFE81AF80A88810E94FB19833639F0EB
S1130EE01F5FE701101798F30E94F71980E0DF9164
S1130EF0CF911F910F91FF90EF9008958F929F9241
S1130F00AF92BF92CF92DF92EF92FF920F931F9313
S1130F10CF93DF9300D000D0CDB7DEB7813059F046
S1130F2018F0823079F015C080E00E9430196B010E
S1130F307C0140E417C081E00E9430196B017C0100
S1130F4040E510C082E00E9430196B017C0140E64C
S1130F5009C00F2EC12CD12CF0EAEF2EF1E4FF2EA4
S1130F60F02D40E58E010F5F1F4F20E860E088E41C
S1130F700E94C801833679F120E030E040EA50E471
S1130F8069817A818B819C810E940F1D2AE037ED53
S1130F9043E25EE30E949D1C2FE539E24BEC5BE3E8
S1130FA00E940F1D4B015C0129EC3EE84DE05BE320
S1130FB0C701B6010E94381E9B01AC0162E27DEFBD
S1130FC086E89FE30E949D1C9B01AC01C501B4010E
S1130FD00E940F1D04C060E070E886E294EC249641
S1130FE0CDBFDEBFDF91CF911F910F91FF90EF90A6
S1130FF0DF90CF90BF90AF909F908F900895CF9344
S1131000DF93CDB7DEB72B97CDBFDEBF109202289A
S113101010920C2A10920D2A80EE91E080930E2AF1
S113102090930F2A0E94FD0E80E290E00E94A31884
S11310300E948E190E94F40A0E94BF0C0E94330C75
S11310400E9493060E94201A78940E947D18CE0173
S113105001960E94550641E067ED7AE880E00E941F
S1131060440C42E0BE016F5F7F4F80E00E94440C5D
S11310702B96CDBFDEBFDF91CF910895CF92DF9243
S1131080EF92FF920F931F93CF93DF9300D000D082
S1131090CDB7DEB7813021F08230C1F540E301C025
S11310A040E08E010F5F1F4F20E862E089E40E9458
S11310B0C801833681F1C980DA80EB80FC802DEC95
S11310C03CEC4CEC5EE3C701B6010E940A1D882388
S11310D03CF120E030E040E050E4C701B6010E945A
S11310E0331E181614F129E739EE42E050E4C70123
S11310F0B6010E94381E2EE633EA4BED50E40E94FE
S11311009D1C562F472F382F292F13C050E040E83D
S113111036E224EC0EC050E040E836E224EC09C08C
S113112050E040E836E224EC04C050E040E836E207
S113113024EC652F742F832F922F2496CDBFDEBF0E
S1131140DF91CF911F910F91FF90EF90DF90CF909F
S11311500895CF93DF93CDB7DEB7C855D109CDBF7E
S1131160DEBF81E080930B2A809301280E94FF0751
S11311701092012880911C2C882321F010921C2CA1
S11311800E945E0420910C2A30910D2A80910E2A2F
S113119090910F2A8217930778F481E080930128B5
S11311A080E00E94A10C81E00E94A10C10920C2A04
S11311B010920D2A109201289091122A8091112ADE
S11311C08917C0F6809102288823A1F281E08093D8
S11311D00128AE014F5A5F4F60E180E80E9420155C
S11311E062968FAD629763969FAD639764962FADB9
S11311F0649765963FAD659766963FAF6697679629
S11312002FAF679768969FAF689769968FAF699776
S113121024E0AE014B5A5F4F64E170E080E50E9428
S11312204C0765968FAD65978F9364968FAD6497E1
S11312308F9363968FAD63978F9362968FAD62970A
S11312408F9388EE9AE89F938F938E010F5F1F4FC1
S11312501F930F930E945424C8010E947F0310928D
S1131260122A10920128CDBFDEBF84CFCF93DF9323
S1131270C82FD62F60E00E94B619833651F46BEF65
S11312807AE882E991E00E9498060E94F7198FEFAC
S11312900DC08D2F0E94FB1961E08C2F0E94B6199E
S11312A00E94A919C82F0E94F7198C2FDF91CF91A2
S11312B008951F93CF93DF93D62F142F60E00E94DD
S11312C0B619C82F833649F46FE07BE882E991E0D0
S11312D00E9498060E94F71915C08D2F0E94FB19D1
S11312E0882321F00E94F719C3E60CC0812F0E94C5
S11312F0FB19882321F00E94F719C3E603C00E945A
S1131300F719C0E08C2FDF91CF911F9108958F9230
S11313109F92AF92BF92FF920F931F93CF93DF934D
S11313208C0160E088E10E94B619833651F440E0F4
S113133050E866E274ECF80140835183628373835E
S113134043C085E00E94FB1961E088E10E94B61960
S11313500E949919C82F0E94A919D82F0E94F71921
S1131360FC2FF071FF2E6C2F6F7070E080E090E026
S11313700E94811D20E030E040E851E40E94381EC4
S11313804B015C016D2F70E080E090E00E94811DB4
S113139020E030E040E85DE30E94381E9B01AC0190
S11313A0C501B4010E949E1CFF2041F09B01AC01C9
S11313B060E070E080E893E40E949D1CF801608383
S11313C071838283938380E0DF91CF911F910F918A
S11313D0FF90BF90AF909F908F900895EF92FF92EF
S11313E00F931F93CF93DF93F82EE62EEA01022F7B
S11313F060E00E94B619182F833619F40E94F71979
S113140023C08E2D0E94FB19182F8336E9F061E06A
S11314108F2D0E94B619182F833669F40E94F7198C
S113142013C07E018FEFE81AF80A0E949919888385
S11314301F5FE70101C011E0101798F30E94A9197A
S113144088830E94F71910E0812FDF91CF911F91BB
S11314500F91FF90EF900895CF92DF92EF92FF9259
S11314600F931F93CF93DF93CDB7DEB72697CDBFEE
S1131470DEBF6C017B018A0180E090E8A6E2B4EC57
S1131480FA0180839183A283B383FB0180839183D8
S1131490A283B383F60180839183A283B38326E07E
S11314A0AE014F5F5F4F61E08DE10E94EE0983362C
S11314B009F464C0698170E0762F66278A81682BFD
S11314C07595679575956795072E000C880B990B94
S11314D00E94831D20E030E040E859E30E94381E5A
S11314E026E636E245E754E40E94381EF60160839E
S11314F07183828393836B8170E0762F66278C815E
S1131500682B7595679575956795072E000C880B64
S1131510990B0E94831D20E030E040E859E30E94CB
S1131520381E26E636E245E754E40E94381EF701E9
S113153060837183828393836D8170E0762F662745
S11315408E81682B7595679575956795072E000CA8
S1131550880B990B0E94831D20E030E040E859E39A
S11315600E94381E26E636E245E754E40E94381EFF
S1131570F801608371838283938380E02696CDBFD4
S1131580DEBFDF91CF911F910F91FF90EF90DF901D
S1131590CF9008951F93CF93DF93D62F142F60E03D
S11315A00E94B619C82F882321F00E94F7198C2FA6
S11315B017C08D2F0E94FB19C82F882321F00E9489
S11315C0F7198C2F0DC0812F0E94FB19C82F882377
S11315D021F00E94F7198C2F03C00E94F71980E0B4
S11315E0DF91CF911F910895CF93DF931F92CDB7D1
S11315F0DEB740E46BE28DE10E94CA0A21E0AE014D
S11316004F5F5F4F6BE28DE10E94EE0908C021E05D
S1131610AE014F5F5F4F6BE28DE10E94EE0989815D
S113162086FDF5CF40EC6FE08DE10E94CA0A42E0EE
S11316306BE28DE10E94CA0A4DE36AE28DE10E94E9
S1131640CA0A89810F90DF91CF910895EF92FF929A
S11316500F931F93CF93DF93CDB7DEB72E97CDBFF4
S1131660DEBF8C0188E0E4E2FBE8DE011196019024
S11316700D928A95E1F7F80101900020E9F731977E
S11316803E2F301B90E081E006C0F801E80FF11D09
S1131690208192278F5F8317C0F31F929F93CE01FF
S11316A001969F938F937E0189E0E80EF11CFF92CF
S11316B0EF920E945424B701C8010E94E6230F90C0
S11316C00F900F900F900F900F902E96CDBFDEBF0E
S11316D0DF91CF911F910F91FF90EF900895E0E675
S11316E0F4E080E486838183A1E4B3E01197F1F709
S11316F0000085830895CF93DF93D62FC42F60E035
S11317000E94B6198D2F0E94FB198C2F0E94FB1981
S11317100E94F719DF91CF910895CF93882329F080
S1131720813009F09EC0CDE301C0CCE34AE260E021
S11317308C2F0E947B0B41E760E08C2F0E947B0B77
S11317404CE560E48C2F0E947B0B48E260E08C2F18
S11317500E947B0B48E060E08C2F0E947B0B4AE2E6
S113176060E08C2F0E947B0B49E760E08C2F0E9485
S11317707B0B45ED60E08C2F0E947B0B40E760E023
S11317808C2F0E947B0B48E760E08C2F0E947B0B20
S113179048E060E08C2F0E947B0B46E060E08C2FD9
S11317A00E947B0B42E760E08C2F0E947B0B40E0A1
S11317B060E48C2F0E947B0B4AE260E08C2F0E9435
S11317C07B0B49E760E08C2F0E947B0B4AED60E0C5
S11317D08C2F0E947B0B40E060E08C2F0E947B0BDF
S11317E04CED60E08C2F0E947B0B40E060E08C2F7E
S11317F00E947B0B41E860E08C2F0E947B0B4FE73B
S113180060E08C2F0E947B0B49ED60E08C2F0E94DE
S11318107B0B41EF60E08C2F0E947B0B4BED60E073
S11318208C2F0E947B0B40E460E08C2F0E947B0B8A
S113183048E760E08C2F0E947B0B48E260E08C2F2D
S11318400E947B0B41E060E08C2F0E947B0B40E800
S113185060E08C2F0E947B0B4CE060E08C2F0E9498
S11318607B0BCF9108950E946F0B80E00E948D0B3B
S113187081E00E948D0B2AE684E091E021508040B3
S11318809040E1F700C00895EF92FF920F931F93E9
S1131890CF93DF93CDB7DEB7E297CDBFDEBF142F72
S11318A091E1ECE2FBE8DE01929601900D929A95AB
S11318B0E1F7811102C00CE301C00DE3CE010196F2
S11318C07C010E94F123F70101900020E9F7319790
S11318D0EE19FF09719708F0198ABE016E5D7F4FFA
S11318E0CE0101960E94E623113039F440E860E00D
S11318F0802F0E947B0B10E012C040EC60E0802F30
S11319000E947B0BF8CFE1E0F0E0EC0FFD1FE10F4C
S1131910F11D408160E4802F0E947B0B1F5F10311A
S113192090F381E090E080930C2A90930D2AE29644
S1131930CDBFDEBFDF91CF911F910F91FF90EF904C
S113194008951F93CF93DF931F92CDB7DEB7182F5F
S1131950198241E0BE016F5F7F4F0E94440C42E058
S1131960BE016F5F7F4F812F0E94440C10920C2A9E
S113197010920D2A0F90DF91CF911F91089540E0AE
S113198060E084E20E9459098336A9F140E06AE0EC
S113199084E20E945909833671F14EEF60E081E2DE
S11319A00E945909833639F140E061E081E20E94E6
S11319B05909833601F14CEF62E081E20E94590932
S11319C08336C9F040E064E081E20E94590983361D
S11319D091F040E265E081E20E945909833659F0B2
S11319E04FE766E081E20E945909833621F089E0DD
S11319F08093770480E00895CF92DF92EF92FF9274
S1131A000F931F93CF93DF936C018B017A01E9014C
S1131A1069E081E20E943609982F929596959695F1
S1131A209370913021F493E6F60190830FC09230C5
S1131A3021F49FE6F601908309C0933021F494E7E2
S1131A40F601908303C098E7F6019083982F96954A
S1131A5096959370913021F493E6F70190830FC02B
S1131A60923021F49FE6F701908309C0933021F46A
S1131A7094E7F701908303C098E7F7019083982FC8
S1131A8092959F709370913021F49FE6F8019083B2
S1131A900FC0923021F493E6F801908309C093308B
S1131AA021F494E7F801908303C098E7F801908348
S1131AB081FF03C080E3888302C081E38883DF91D0
S1131AC0CF911F910F91FF90EF90DF90CF900895E9
S1131AD0CF93DF93D82FC62F69E084E20E943609A2
S1131AE08D2B482F4C236AE084E20E945909DF9130
S1131AF0CF910895CF93DF93CDB7DEB76A97CDBF6B
S1131B00DEBF99E0E7E7FBE8DE01119601900D9254
S1131B109A95E1F724E3829FC0011124FC01ED5F53
S1131B20F74D81818C3631F118F4823639F06AC070
S1131B308237C1F1833709F44DC064C06AEE84E48E
S1131B400E94680D66EE88E80E94680D8DE39BE8AC
S1131B509F938F93CE0101969F938F9309969F93A2
S1131B608F930E9454240F900F900F900F900F901A
S1131B700F9059C06AEE84E40E94680D82E49BE8E9
S1131B809F938F93CE0101969F938F9309969F9372
S1131B908F930E9454240F900F900F900F900F90EA
S1131BA00F9041C066EE88E80E94680D87E49BE8C8
S1131BB09F938F93CE0101969F938F9309969F9342
S1131BC08F930E9454240F900F900F900F900F90BA
S1131BD00F9029C06CEE82E20E94680D8DE49BE8B0
S1131BE09F938F93CE0101969F938F9309969F9312
S1131BF08F930E9454240F900F900F900F900F908A
S1131C000F9011C065E57BE885EF91E00E9498068E
S1131C108CE0EBE6FBE8DE011A9601900D928A95C2
S1131C20E1F783E60BC081E00E94A10C41E0BE0114
S1131C30665F7F4F81E00E94440C80E06A96CDBFCE
S1131C40DEBFDF91CF910895CF93DF93CDB7DEB799
S1131C506997CDBFDEBF98E0E0EAFBE8DE011196AC
S1131C6001900D929A95E1F724E3829FC00111241B
S1131C70FC01ED5FF74D81818C3631F118F4823629
S1131C8039F06AC08237C1F1833709F44DC064C0AA
S1131C906EEA84E40E94680D6EE688E80E94680D8E
S1131CA08DE39BE89F938F93CE0101969F938F932F
S1131CB008969F938F930E9454240F900F900F9037
S1131CC00F900F900F9059C06EEA84E40E94680D43
S1131CD082E49BE89F938F93CE0101969F938F9309
S1131CE008969F938F930E9454240F900F900F9007
S1131CF00F900F900F9041C06EE688E80E94680D27
S1131D0087E49BE89F938F93CE0101969F938F93D3
S1131D1008969F938F930E9454240F900F900F90D6
S1131D200F900F900F9029C06EEC82E20E94680D14
S1131D308DE49BE89F938F93CE0101969F938F939D
S1131D4008969F938F930E9454240F900F900F90A6
S1131D500F900F900F9011C060E87BE885EF91E041
S1131D600E9498068BE0E5E9FBE8DE0119960190F4
S1131D700D928A95E1F783E60BC081E00E94A10CE5
S1131D8041E0BE01675F7F4F81E00E94440C80E028
S1131D906996CDBFDEBFDF91CF9108951F920F9258
S1131DA00FB60F9211242F933F934F935F936F932A
S1131DB07F938F939F93AF93BF93EF93FF93809100
S1131DC0690488234CF480E88093690468E081E224
S1131DD00E9436098093102AFF91EF91BF91AF9131
S1131DE09F918F917F916F915F914F913F912F912F
S1131DF00F900FBE0F901F90189584E080932104DC
S1131E00E0EAF4E0828380E281838BE0868BE0E485
S1131E10F4E088E086838183ADE8B0E21197F1F7BE
S1131E200000858308952F923F924F925F926F92A4
S1131E307F928F929F92AF92BF92CF92DF92EF9256
S1131E40FF920F931F93CF93DF93CDB7DEB7CF5D90
S1131E50D240CDBFDEBF95E4E6E0FCE8DE01A65B40
S1131E60BE4F01900D929A95E1F79FE2EBE4FCE8F6
S1131E70DE01A157BE4F01900D929A95E1F79DE1C5
S1131E80EAE7FCE8DE01A254BE4F01900D929A9558
S1131E90E1F79CE1E7E9FCE8DE01A552BE4F0190C1
S1131EA00D929A95E1F792E1E3EBFCE8DE01A9508B
S1131EB0BE4F01900D929A95E1F79DE2E5ECFCE8A6
S1131EC0DE01A75FBD4F01900D929A95E1F793E172
S1131ED0E2EFFCE8DE01AA5CBD4F01900D929A95F9
S1131EE0E1F793E1E5E0FDE8DE01A75BBD4F01907A
S1131EF00D929A95E1F799E1E8E1FDE8DE01A45A33
S1131F00BD4F01900D929A95E1F795E2E1E3FDE86A
S1131F10DE01AB58BD4F01900D929A95E1F79DE01B
S1131F20E6E5FDE8DE01A656BD4F01900D929A95B7
S1131F30E1F79DE0E3E6FDE8DE01A955BD4F019020
S1131F400D929A95E1F7082F10E084E3809FF00149
S1131F50819FF00D1124ED5FF74DE1818E2F90E00C
S1131F60FC01E154F109E633F10508F0CDC4E4586D
S1131F70FF4F0C945522CE01865F9E4F0E94BC05F4
S1131F8084E3809FF001819FF00D1124ED5FF74DF4
S1131F90F1800F2EFFE3EF2EF02DEF0CAE014C532A
S1131FA05D4F68E18E2D0E94D115833661F480E087
S1131FB090E8A6E2B4ECCC53DD4F88839983AA83DE
S1131FC0BB83C45CD240AE0140545D4F62E58E2DAC
S1131FD00E94D115833661F480E090E8A6E2B4EC67
S1131FE0C054DD4F88839983AA83BB83C05CD240ED
S1131FF024E3209FC001219F900D1124825D974D01
S11320009F938F93CD53DD4F8881C35CD2408F93D0
S1132010CE53DD4F8881C25CD2408F93CF53DD4FC6
S11320208881C15CD2408F93C054DD4F8881C05CED
S1132030D2408F93C953DD4F8881C75CD2408F93C0
S1132040CA53DD4F8881C65CD2408F93CB53DD4F9A
S11320508881C55CD2408F93CC53DD4F8881C45CAA
S1132060D2408F931F92FF92CE01865F9E4F9F9323
S11320708F938C549F4F9F938F938E010F5F1F4FAD
S11320801F930F930E945424C8010E947F03CDBF65
S1132090DEBF80E040C4CE01865F9E4F0E94BC0537
S11320A084E3809FF001819FF00D1124ED5FF74DD3
S11320B081810F2EFFE17F2EF02D780EAE014C545E
S11320C05D4F60E1872D0E942015833661F48FEF08
S11320D09FEFAFEFBFE7CC54DD4F88839983AA838A
S11320E0BB83C45BD240CC54DD4F688179818A8143
S11320F09B81C45BD2402CE031E040E050E00E9480
S11321003622F22EE32ED42EC52EAE0148545D4F56
S113211062E1872D0E942015833661F48FEF9FEFD3
S1132120AFEFBFE7C854DD4F88839983AA83BB838D
S1132130C85BD240C854DD4F688179818A819B8114
S1132140C85BD2402CE031E040E050E00E943622EF
S1132150B22EA32E942E852EAE0144545D4F61E31E
S1132160872D0E944F16833661F48FEF9FEFAFEFF8
S1132170BFE7C454DD4F88839983AA83BB83CC5BB8
S1132180D240C454DD4F88819981AA81BB81CC5B44
S1132190D240CD01AA27BB279C01220F331F880FF1
S11321A0991F880F991F880F991F820F931F44E36B
S11321B0409F9001419F300D1124A901425D574D6C
S11321C0F901ED5FF74D21815F934F939F938F93B7
S11321D08F929F92AF92BF92CF92DF92EF92FF9233
S11321E01F922F93CE01865F9E4F9F938F938B57A1
S11321F09F4F9F938F938E010F5F1F4F1F930F93DA
S11322000E945424C8010E947F03CDBFDEBF80E03A
S113221082C380E00E943019C054DD4F6883798303
S11322208A839B83C05CD24080E00E947E07D62EC6
S1132230C72EB82EA92E81E00E943019CC52DD4F52
S11322406883C45DD240CB52DD4F7883C55DD240F4
S1132250CA52DD4F8883C65DD240C952DD4F988390
S1132260C75DD24081E00E947E07C852DD4F68837B
S1132270C85DD240C752DD4F7883C95DD240C65293
S1132280DD4F8883CA5DD240C552DD4F9883CB5D54
S1132290D24082E00E943019C452DD4F6883CC5D85
S11322A0D240C352DD4F7883CD5DD240982E892E23
S11322B082E00E947E07762E672E582E492E83E0F8
S11322C00E943019C252DD4F6883CE5DD240C152A4
S11322D0DD4F7883CF5DD240382E292E7E0196EFD4
S11322E0E91A9EEFF90AC7010E94BC0524E3209F66
S11322F0C001219F900D1124825D974D9F938F9370
S11323002F923F92C152DD4F8881CF5DD2408F938F
S1132310C252DD4F9881CE5DD2409F934F925F921F
S11323206F927F928F929F92C352DD4F8881CD5DD1
S1132330D2408F93C452DD4F9881CC5DD2409F939D
S1132340C552DD4F8881CB5DD2408F93C652DD4F9D
S11323509881CA5DD2409F93C752DD4F8881C95D81
S1132360D2408F93C852DD4F9881C85DD2409F936D
S1132370C952DD4F8881C75DD2408F93CA52DD4F69
S11323809881C65DD2409F93CB52DD4F8881C55D55
S1132390D2408F93CC52DD4F9881C45DD2409F933D
S11323A0AF92BF92CF92DF92CD53DD4F8881C35C51
S11323B0D2408F93CE53DD4F8881C25CD2408F933D
S11323C0CF53DD4F8881C15CD2408F93C054DD4F21
S11323D08881C05CD2408F93FF92EF92CE01865BDE
S11323E09E4F9F938F938E010F5F1F4F1F930F93E9
S11323F00E945424CDBFDEBFC8010E947F0341E088
S113240068EA7BE881E00E94440CC054DD4FF88008
S1132410C05CD240CF53DD4FE880C15CD240CE5384
S1132420DD4F9880C25CD240CD53DD4F8880C35CC1
S1132430D24026E636E646EE5FE36F2D7E2D892DEB
S1132440982D0E94381EAF92BF92CF92DF9220E067
S113245030E040E052E40E949E1C9F938F937F9350
S11324606F938F929F92EF92FF9288EB9BE89F93DA
S11324708F931F930F930E94542442E0B80181E08C
S11324800E94440CCDBFDEBF80E045C2AE01405384
S11324905D4FBE0164537D4FCE0188539D4F0E9412
S11324A02C0A7E0196EFE91A9EEFF90AC7010E94F1
S11324B0BC0524E3209FC001219F900D1124825D5F
S11324C0974D9F938F93CD52DD4F8881C35DD2404A
S11324D08F93CE52DD4F8881C25DD2408F93CF520D
S11324E0DD4F8881C15DD2408F93C053DD4F888119
S11324F0C05DD2408F93C153DD4F8881CF5CD24001
S11325008F93C253DD4F8881CE5CD2408F93C353E7
S1132510DD4F8881CD5CD2408F93C453DD4F8881D9
S1132520CC5CD2408F93C553DD4F8881CB5CD240C5
S11325308F93C653DD4F8881CA5CD2408F93C753B3
S1132540DD4F8881C95CD2408F93C853DD4F8881A9
S1132550C85CD2408F93FF92EF92CE0185529E4F7A
S11325609F938F938E010F5F1F4F1F930F930E94B2
S11325705424C8010E947F0341E06EEC7BE881E0B3
S11325800E94440CCD52DD4F8881C35DD2408F93AD
S1132590CE52DD4F8881C25DD2408F93CF52DD4F42
S11325A08881C15DD2408F93C053DD4F8881C05D67
S11325B0D2408F93C153DD4F8881CF5CD2408F933B
S11325C0C253DD4F8881CE5CD2408F93C353DD4F1D
S11325D08881CD5CD2408F93C453DD4F8881CC5C1D
S11325E0D2408F93C553DD4F8881CB5CD2408F930B
S11325F0C653DD4F8881CA5CD2408F93C753DD4FE9
S11326008881C95CD2408F93C853DD4F8881C85CF0
S1132610D2408F93CE0189509E4F9F938F931F93E7
S11326200F930E945424CDBFDEBF42E0B80181E085
S11326300E94440C80E06FC17E0196EFE91A9EEF80
S1132640F90AC7010E94BC059E01275B3E4FAE01FB
S1132650485B5E4FBE01695B7E4FCE018A5B9E4F35
S11326600E94FC0C24E3209FC001219F900D1124A3
S1132670825D974D9F938F93C75BDE4F8881C954CA
S1132680D1401F928F93C85BDE4F8881C854D140DC
S11326901F928F93C95BDE4F8881C754D1401F922C
S11326A08F93CA5BDE4F8881C654D1401F928F93AB
S11326B0FF92EF92CE01875F9D4F9F938F938E0180
S11326C00F5F1F4F1F930F930E945424C8010E9451
S11326D07F03C85BDE4F8881C854D1401F928F931B
S11326E0C95BDE4F8881C754D1401F928F93CE01BE
S11326F08A5C9D4F9F938F931F930F930E94542442
S113270041E0B80181E00E94440CC75BDE4F888140
S1132710C954D1401F928F93CA5BDE4F8881C6543F
S1132720D1401F928F93CE01875B9D4F9F938F93D0
S11327301F930F930E945424CDBFDEBF42E0B80123
S113274081E00E94440C80E0E6C07E0196EFE91A25
S11327509EEFF90AC7010E94BC056E0182EEC81AF9
S11327608EEFD80AC6010E941C075E019EECA91ACE
S11327709EEFB90AC5010E944E0624E3209FC001C2
S1132780219F900D1124825D974D9F938F93BF924B
S1132790AF92DF92CF92FF92EF92CE01845A9D4F77
S11327A09F938F938E010F5F1F4F1F930F930E9470
S11327B05424C8010E947F0341E06AED7BE881E074
S11327C00E94440CB701655F7F4F42E081E00E94A4
S11327D0440CCDBFDEBF80E09EC081E00E943E0875
S11327E0D62EC72EB82EA92E82E00E943E08962E21
S11327F0872E782E692E7E0196EFE91A9EEFF90A4C
S1132800C7010E94BC0524E3209FC001219F900DB5
S11328101124825D974D9F938F936F927F928F9235
S11328209F92AF92BF92CF92DF92FF92EF92CE012E
S11328308B589D4F9F938F938E010F5F1F4F1F9354
S11328400F930E945424C8010E947F0341E06FED5E
S11328507BE881E00E94440C6F927F928F929F925A
S1132860AF92BF92CF92DF92CE0186569D4F9F9337
S11328708F931F930F930E94542442E0B80181E088
S11328800E94440CCDBFDEBF80E045C06E019FEFC7
S1132890C90ED11CC6010E9455067E0186EFE81AB6
S11328A08EEFF80AC7010E94BC0524E3209FC001F3
S11328B0219F900D1124825D974D9F938F93DF92FA
S11328C0CF92FF92EF92CE0189559D4F9F938F93A4
S11328D08E010F5F1F4F1F930F930E945424C80152
S11328E00E947F0341E067ED7AE881E00E94440C96
S11328F0C8010E94550642E0B80181E00E94440CE0
S1132900CDBFDEBF80E007C06FEE7BE88AEC90E0CD
S11329100E94980683E6C152DD4FCDBFDEBFDF9132
S1132920CF911F910F91FF90EF90DF90CF90BF90C8
S1132930AF909F908F907F906F905F904F903F905B
S11329402F900895DC0140E050E080E090E01BC04F
S1132950FD01E40FF51F208130E0322F222782276A
S1132960932720E00CC099233CF4880F991F31E28F
S1132970832730E1932702C0880F991F2F5F2830E7
S113298090F34F5F5F4F4617570710F308950F9367
S11329901F93CF93DF93CDB7DEB7C455D109CDBF15
S11329A0DEBF8B0124E0AE014F5F5F4F64E170E056
S11329B080E50E94CE06898190E0A0E0B0E0782F07
S11329C06627552744279A81892F90E0A0E0B0E03C
S11329D0DC0199278827842B952BA62BB72B4B81B9
S11329E050E060E070E0762F652F542F4427842B4D
S11329F0952BA62BB72B2C81822BF80180839183F6
S1132A00A283B383BF93AF939F938F9380E79DE893
S1132A109F938F938E010B5F1F4F1F930F930E9401
S1132A205424C8010E947F03CDBFDEBF80E0CC5A8E
S1132A30DF4FCDBFDEBFDF91CF911F910F9108957E
S1132A40EF92FF920F931F93CF93DF93CDB7DEB72F
S1132A502797CDBFDEBF8A0197E09093152B109284
S1132A60172B1092182B89836A8342E0BE016F5F93
S1132A707F4F81E00E947A1A81E090E00E945B1906
S1132A8012C000008091132A9091142A853F91402E
S1132A9050F00E94711965E87DE880E391E00E949E
S1132AA0980683E674C08091182B882351F30E9402
S1132AB07119E5E1FAE2E580F12CFE2CEE24868121
S1132AC0E82A22E00EC0822F90E0FC01ED5EF54D75
S1132AD03081E1E0F0E0EC0FFD1FE80FF91F3083D7
S1132AE02F5F273080F367E070E0CE0101960E94EB
S1132AF0A214E816F90671F0D8011D921D921D92D8
S1132B001C9213976EE97DE881E391E00E94980698
S1132B1083E63DC025E13AE2F901808190E0A0E03E
S1132B20B0E0782F662755274427D8014D935D934D
S1132B306D937C9313979181892F90E0A0E0B0E08E
S1132B40DC0199278827842B952BA62BB72BF8011A
S1132B5080839183A283B383F901428150E060E0D2
S1132B6070E0762F652F542F4427842B952BA62BAA
S1132B70B72BF80180839183A283B383F901238166
S1132B80822BF80180839183A283B38380E027960C
S1132B90CDBFDEBFDF91CF911F910F91FF90EF90DA
S1132BA00895AF92BF92CF92DF92EF92FF920F936C
S1132BB01F93CF93DF9300D000D0CDB7DEB7A82EFC
S1132BC0B62E7A0184E08093152B1092172B109265
S1132BD0182BA9826A8342E0BE016F5F7F4F81E0B8
S1132BE00E947A1A81E090E00E945B198091182B70
S1132BF0813081F08091132A9091142AC397B0F305
S1132C000E94711963EB7DE880E391E00E949806CD
S1132C1083E637C00E947119E5E1FAE29081C92E7A
S1132C20D12CDC2CCC248181C82A028110E0102F05
S1132C3000272381022BA982BA829B838C8364E0C0
S1132C4070E0CE0101960E94A2140817190741F002
S1132C5065EC7DE881E391E00E94980683E611C06B
S1132C60B60180E090E00E94811D20E030E040E267
S1132C7051E40E940F1DF701608371838283938363
S1132C8080E02496CDBFDEBFDF91CF911F910F91DD
S1132C90FF90EF90DF90CF90BF90AF900895EF92A8
S1132CA0FF920F931F93CF93DF93CDB7DEB7269791
S1132CB0CDBFDEBF8A0196E09093152B1092172B9F
S1132CC01092182B89836A8342E0BE016F5F7F4FA5
S1132CD081E00E947A1A81E090E00E945B19809161
S1132CE0182B813061F40E947119E5E1FAE2E48065
S1132CF0F12CFE2CEE248581E82A22E01EC080916E
S1132D00132A9091142AC39750F30E94711968ED05
S1132D107DE88FE291E00E94980683E654C0822FFA
S1132D2090E0FC01ED5EF54D3081E1E0F0E0EC0F68
S1132D30FD1FE80FF91F30832F5F263080F366E014
S1132D4070E0CE0101960E94A214E816F90689F0FB
S1132D506FEE7DE881E391E00E9498068FEF9FEF8C
S1132D60AFEFBFE7F80180839183A283B38383E647
S1132D702AC0E5E1FAE2808190E0A0E0B0E0782F9B
S1132D806627552744279181892F90E0A0E0B0E081
S1132D90DC0199278827842B952BA62BB72B4281FE
S1132DA050E060E070E0762F652F542F4427842B89
S1132DB0952BA62BB72B2381822BF801808391833B
S1132DC0A283B38380E02696CDBFDEBFDF91CF918F
S1132DD01F910F91FF90EF9008951F93CF93DF936E
S1132DE000D000D0CDB7DEB710E810C0AE014F5F01
S1132DF05F4F62E1812F0E94201589819A81AB8106
S1132E00BC81892B8A2B8B2B29F41F5F133870F319
S1132E1080E001C081E02496CDBFDEBFDF91CF9179
S1132E201F910895CF93DF93CDB7DEB76597CDBFDC
S1132E30DEBF1092152A91E09093152B1092172B58
S1132E401092182B898381E48A831B821C8280E27E
S1132E508D831E821F82188690E499871A861B86AA
S1132E601C868D871E867F87688B598B4A8B1B8AAD
S1132E7063E170E0CE0101960E94A2149C8B8D8BBD
S1132E8045E1BE016F5F7F4F81E00E947A1A81E0C5
S1132E9090E00E945B198091182B813041F40E94CC
S1132EA071198091152A8F3F91F480E017C08091A9
S1132EB0132A9091142AC39770F30E94711968E041
S1132EC07EE88FE291E00E94980683E607C063E201
S1132ED07EE88FE291E00E94980683E66596CDBF76
S1132EE0DEBFDF91CF910895CF92DF92EF92FF92F0
S1132EF01F93CF93DF9300D000D0CDB7DEB7E82E79
S1132F00F12C84E38E9DF0018F9DF00D1124ED5F73
S1132F10F74D81818134D0F0843428F09FE9980FF3
S1132F20933040F013C01FE3180F19821A821B82DA
S1132F301C8214C01FE1180FAE014F5F5F4F60E1A8
S1132F40812F0E942015833649F439C06AE37EE854
S1132F508DE291E00E94980683E632C084E38E9D60
S1132F60F0018F9DF00D1124ED5FF74D82818111E9
S1132F7008C063E57EE883E391E00E94980683E657
S1132F801FC024E32E9DC0012F9D900D11248B5F43
S1132F90974D0E94DC229B01AC01ACE0B1E00E94A1
S1132FA05B22C980DA80EB80FC80AB01BC014C0D54
S1132FB05D1D6E1D7F1D812F0E94121701C083E6C7
S1132FC02496CDBFDEBFDF91CF911F91FF90EF908C
S1132FD0DF90CF9008950F931F93CF93DF93CDB7D6
S1132FE0DEB72897CDBFDEBF813851F0823829F093
S1132FF08038F9F404E110E005C00CE110E002C0EF
S113300008E110E0AE014B5F5F4F60E10E942015C4
S11330108D819E812F81388539832A839B838C837C
S113302024E0AE014F5F5F4FB80180E50E944C077A
S113303001C083E62896CDBFDEBFDF91CF911F91FB
S11330400F910895CF93DF93D0E0C0E805C08C2F93
S11330500E94EB17D80FCF5FC338C8F3DD2311F0FC
S113306083E601C080E0DF91CF910895CF93DF9391
S1133070CDB7DEB72897CDBFDEBF1092152A91E0F9
S11330809093152B1092172B1092182B898386E19D
S11330908A837B836C835D834E8366E070E0CE011C
S11330A001960E94A2149F83888748E0BE016F5F47
S11330B07F4F81E00E947A1A81E090E00E945B19C0
S11330C08091182B813041F40E9471198091152A46
S11330D08F3F61F083E60BC08091132A9091142AEC
S11330E0C39770F30E94711983E601C080E02896AB
S11330F0CDBFDEBFDF91CF9108951F93CF93DF93B0
S113310000D000D0CDB7DEB71092122A8BE08093A6
S1133110112A10E80EC0BE016F5F7F4F812F0E94FD
S1133120C71449815A816B817C81812F0E94361892
S11331301F5F113880F380E02496CDBFDEBFDF919E
S1133140CF911F910895AC01E0E6F0E0948D9E7F4D
S113315088ED84BF948F01C000009091630096FDB8
S1133160FBCFE0E6F0E0948D9B7F28ED24BF948FA5
S1133170948D916024BF948F01C00000909141010F
S11331809111FBCFE0E4F1E04287538782E087832B
S113319085818160858381EB8083828181608283E4
S11331A008951F920F920FB60F9211248F939F933D
S11331B081E08093430180910C2A90910D2A01961D
S11331C080930C2A90930D2A80E28093A704809127
S11331D0122A8F5F8093122A9F918F910F900FBEB6
S11331E00F901F901895CF93DF9390E024E3289FCE
S11331F0F001299FF00D1124ED5FF74D2181243753
S113320029F524E3289FE001299FD00D1124CB5FE9
S1133210D74DFE0101900020E9F73197EC1BFD0B1F
S1133220739741F067E77EE88AE592E00E9498068A
S113323083E613C0CE010E94280624E1AE0160E0BB
S113324070E080E50E944C0780E007C06CE87EE8EF
S113325089E592E00E94980683E6DF91CF91089574
S1133260CF93DF9300D000D0CDB7DEB7833018F012
S1133270833039F00BC0BE016F5F7F4F0E9447015E
S11332800DC0CE0101960E94870908C080E090E835
S1133290A6E2B4EC89839A83AB83BC8369817A8187
S11332A08B819C812496CDBFDEBFDF91CF910895A1
S11332B00E947D1808951092132A1092142A25E072
S11332C03DE0AC01429FC001439F900D529F900D81
S11332D01124E0E8FAE08487958781E08583808380
S11332E008951092800A08951F920F920FB60F92BC
S11332F011248F939F9381E08093860A8091132AEF
S11333009091142A01968093132A9093142A9F91E2
S11333108F910F900FBE0F901F901895E0EAF8E080
S11333208BE086838381816083838581816085834B
S1133330089501C000008091A5088823DCF7E0EA25
S1133340F8E084818B7F8483808594819260948368
S1133350089501C000008091A5088823DCF7E0EA05
S1133360F8E084818460848380850895613039F431
S113337090E0880F991F81608093A70803C0880F8D
S11333808093A70881E090E00E945B190BC08091B4
S1133390132A9091142A0B9720F00E94711983E646
S11333A0089500008091A508807C89F30E9471191A
S11333B08091A50882FF08C066E97EE881E991E072
S11333C00E94980683E608958091A50883FF08C0AB
S11333D06EE97EE881E991E00E94980683E608950B
S11333E09091A508892F807194FD83E6089587E064
S11333F08093A408089501C000009091A50896FF49
S1133400FBCF8093A80881E090E00E945B190BC079
S113341000008091132A9091142AC39720F00E94EF
S1133420711983E608958091A50886FFF1CF0E9463
S113343071199091A508892F807194FD83E60895F0
S1133440E0E0F4E081E085838183E0E0F8E024E7D4
S113345030E02087318795819068958396819064C8
S1133460968396819068968310921B2D10921C2D42
S11334708093202D1092172C1092182C1092192B37
S113348010921A2C10921C2CE0E4F4E085838183C2
S1133490E0E2F8E02BE531E0208731879581906800
S11334A09583968190649683968190689683109212
S11334B027301092283080932C301092132B1092C6
S11334C0142B1092152A1092182BE0E2F4E0858355
S11334D08183E0E6F8E02DE635E0208731879681A8
S11334E0906496839681906896838093282F109297
S11334F0242E08950F931F93CF93DF93EB01142F82
S11335008130D1F120F0833009F485C08CC0109251
S1133510202D20E011C0EBE1FDE2808190E03881B4
S1133520DC01A35EB34D3C9301966EEF70E00E9404
S1133530222280832F5F2196211768F3E0E0F8E0D0
S11335408581806285838AE090E00E945B190DC0CA
S11335508091132A9091142A8536910530F00E94A7
S1133560711981E08093202D5EC08091202D8823E5
S113357079F30E94711957C0642F70E0CE010E9444
S1133580A214482F092F20E011C0E7E2F0E3808164
S113359090E03881DC01A75DB04D3C9301966EEF5D
S11335A070E00E94222280832F5F2196211768F306
S11335B0E7E2F0E3808190E0DC01A75DB04D0C937D
S11335C001962EEF30E0B9010E94222290E0DC0146
S11335D0A75DB04D4C930196B9010E9422228083CD
S11335E01E5F10932930E0E2F8E0858180628583D4
S11335F01AC0E3E2FFE2808190E03881DC01AB5D38
S1133600B14D3C9301966EEF70E00E9422228083BC
S11336102F5F219601C020E0211758F3E0E6F8E07F
S1133620858180628583DF91CF911F910F910895E9
S11336301F920F920FB60F9211245F936F937F9393
S11336408F939F93AF93BF93EF93FF939091000851
S113365080911A2C8D3F10F59D3051F481E08093B8
S11336601C2CE091172CF0E0E75EF44D108206C0AC
S1133670E091172CF0E0E75EF44D9083EAE1FCE280
S113368080818F5F8083E7E1FCE2808190E0019696
S11336906EEF70E00E94222280830AC01092172CE1
S11336A01092182C1092192B10921A2C10921C2C78
S11336B0FF91EF91BF91AF919F918F917F916F9106
S11336C05F910F900FBE0F901F9018951F920F924D
S11336D00FB60F9211242F938F939F93EF93FF9321
S11336E0E0E0F8E085818F7D858380911B2DE0915A
S11336F01C2D8E17D1F081E08E0F80931C2DF0E0ED
S1133700E35EF34D90819093020891E08E3F08F4BC
S113371090E09195292F220F821B80931C2DE0E0CD
S1133720F8E085818062858303C081E08093202D49
S1133730FF91EF919F918F912F910F900FBE0F905A
S11337401F9018951F920F920FB60F9211242F936A
S11337508F939F93EF93FF9390912008E091172B01
S11337608091152BE81740F421E02E0F2093172B9E
S1133770F0E0EB5EF54D90839091172B981718F0BD
S113378081E08093182BFF91EF919F918F912F915E
S11337900F900FBE0F901F9018951F920F920FB6A7
S11337A00F9211242F938F939F93EF93FF93E0E253
S11337B0F8E085818F7D858380912730E0912830E2
S11337C08E17D1F081E08E0F80932830F0E0E75D12
S11337D0F04D90819093220891E08E3F08F490E0A0
S11337E09195292F220F821B80932830E0E2F8E084
S11337F085818062858303C081E080932C30FF91B2
S1133800EF919F918F912F910F900FBE0F901F906A
S113381018951F920F920FB60F9211248F939F93B6
S1133820AF93BF93EF93FF93809160088D3021F0A5
S1133830E091232EED3F78F081E08093242EA3E2E3
S1133840BEE28C91E82FF0E0EF5DF24D10828093A0
S1133850212E1C9208C091E09E0F9093232EF0E03D
S1133860EF5DF24D8083FF91EF91BF91AF919F91F6
S11338708F910F900FBE0F901F9018951F920F926B
S11338800FB60F9211248F939F93AF93BF93EF932F
S1133890FF93A7E2BFE2EC9181E08E0F8C93F0E0FE
S11338A0EB5DF14D9081909362089091252F8917DB
S11338B040F0E0E6F8E085818F7D858381E08093A8
S11338C0282FFF91EF91BF91AF919F918F910F900E
S11338D00FBE0F901F90189588ED84BF81E08093F0
S11338E0000108951F920F920FB60F9211242F9387
S11338F03F934F935F936F937F938F939F93AF9374
S1133900BF93EF93FF938091A90486FF05C080E4E1
S11339108093A9040E946C1CFF91EF91BF91AF9119
S11339209F918F917F916F915F914F913F912F91D3
S11339300F900FBE0F901F9018955058BB27AA27C1
S11339400E94B51C0C94F91D0E94EB1D38F00E94D6
S1133950F21D20F039F49F3F19F426F40C94E81D6D
S11339600EF4E095E7FB0C94E21DE92F0E940A1E79
S113397058F3BA17620773078407950720F079F4A0
S1133980A6F50C942C1E0EF4E0950B2EBA2FA02D48
S11339900B01B90190010C01CA01A0011124FF27F8
S11339A0591B99F0593F50F4503E68F11A16F040F3
S11339B0A22F232F342F4427585FF3CF46953795F2
S11339C02795A795F0405395C9F77EF41F16BA0BB7
S11339D0620B730B840BBAF09150A1F0FF0FBB1F65
S11339E0661F771F881FC2F70EC0BA0F621F731FAE
S11339F0841F48F4879577956795B795F7959E3F0B
S1133A0008F0B0CF9395880F08F09927EE0F97959B
S1133A10879508950E94BE1D08F481E008950E94D0
S1133A20231D0C94F91D0E94F21D58F00E94EB1DF9
S1133A3040F029F45F3F29F00C94E21D51110C94DD
S1133A402D1E0C94E81D0E940A1E68F39923B1F3FD
S1133A50552391F3951B550BBB27AA2762177307B0
S1133A60840738F09F5F5F4F220F331F441FAA1F44
S1133A70A9F335D00E2E3AF0E0E832D09150504000
S1133A80E695001CCAF72BD0FE2F29D0660F771FAE
S1133A90881FBB1F261737074807AB07B0E809F094
S1133AA0BB0B802DBF01FF2793585F4F3AF09E3F19
S1133AB0510578F00C94E21D0C942D1E5F3FE4F345
S1133AC0983ED4F3869577956795B795F7959F5F5C
S1133AD0C9F7880F911D9695879597F90895E1E0A8
S1133AE0660F771F881FBB1F621773078407BA0707
S1133AF020F0621B730B840BBA0BEE1F88F7E09562
S1133B000895E89409C097FB3EF4909580957095CC
S1133B1061957F4F8F4F9F4F9923A9F0F92F96E915
S1133B20BB279395F695879577956795B795F1118A
S1133B30F8CFFAF4BB0F11F460FF1BC06F5F7F4F27
S1133B408F4F9F4F16C0882311F096E911C0772339
S1133B5021F09EE8872F762F05C0662371F096E842
S1133B60862F70E060E02AF09A95660F771F881F11
S1133B70DAF7880F9695879597F90895990F0008B5
S1133B80550FAA0BE0E8FEEF16161706E807F9072B
S1133B90C0F012161306E407F50798F0621B730BC6
S1133BA0840B950B39F40A2661F0232B242B252B47
S1133BB021F408950A2609F4A140A6958FEF811DEA
S1133BC0811D089597F99F6780E870E060E008958B
S1133BD09FEF80EC089500240A9416161706180621
S1133BE00906089500240A941216130614060506FD
S1133BF00895092E0394000C11F4882352F0BB0F8E
S1133C0040F4BF2B11F460FF04C06F5F7F4F8F4FF0
S1133C109F4F089557FD9058440F551F59F05F3F2B
S1133C2071F04795880F97FB991F61F09F3F79F0DA
S1133C3087950895121613061406551FF2CF46955C
S1133C40F1DF08C0161617061806991FF1CF8695DE
S1133C507105610508940895E894BB2766277727C2
S1133C60CB0197F908950E94BE1D08F48FEF0895C3
S1133C700E944B1E0C94F91D0E94EB1D38F00E940B
S1133C80F21D20F0952311F00C94E21D0C94E81D14
S1133C9011240C942D1E0E940A1E70F3959FC1F3EB
S1133CA0950F50E0551F629FF001729FBB27F00DE6
S1133CB0B11D639FAA27F00DB11DAA1F649F66273B
S1133CC0B00DA11D661F829F2227B00DA11D621F8A
S1133CD0739FB00DA11D621F839FA00D611D221F44
S1133CE0749F3327A00D611D231F849F600D211D28
S1133CF0822F762F6A2F11249F5750409AF0F1F0AB
S1133D0088234AF0EE0FFF1FBB1F661F771F881F13
S1133D1091505040A9F79E3F510580F00C94E21D4C
S1133D200C942D1E5F3FE4F3983ED4F3869577956B
S1133D306795B795F795E7959F5FC1F7FE2B880FB9
S1133D40911D9695879597F90895A0E1B0E0EBEA67
S1133D50FEE10C9466227C011B016A01FC011682BF
S1133D601782838181FF44C39E012F5F3F4F390136
S1133D70F7019381F10193FD859193FF81911F01D7
S1133D80882309F431C3853239F493FD859193FF77
S1133D9081911F01853239F4B70190E00E94182403
S1133DA056016501E5CF10E0512C912CFFE1F91586
S1133DB0D8F08B3279F038F4803279F08332A1F480
S1133DC0F92DF0612EC08D3261F0803369F4292D14
S1133DD021602DC0392D3260932E892D8460982E58
S1133DE02AC0E92DE86015C097FC2DC020ED280FEE
S1133DF02A3088F496FE06C03AE0139F200D112461
S1133E00122F19C08AE0589E200D1124522EE92D3C
S1133E10E0629E2E10C08E3231F496FCE5C2F92D7C
S1133E20F0649F2E08C08C3621F4292D2068922E30
S1133E3002C0883641F4F10193FD859193FF81918D
S1133E401F018111B3CF9BEB980F933020F4992D70
S1133E509061805E07C09BE9980F933008F066C1BB
S1133E60992D9F7E96FF16E09F73992E853619F43F
S1133E709064992E08C0863621F4392F3068932E29
S1133E8002C01111115097FE07C01C3350F4442492
S1133E904394410E27E00BC0183038F027E017E0B8
S1133EA005C027E09CE3492E02C0212F412C560176
S1133EB084E0A80EB11CF601608171818281938136
S1133EC0042DA3010E9403236C01F981FC87F0FFF8
S1133ED002C0F3FF06C091FC06C092FE06C000E2D9
S1133EE005C00DE203C00BE201C000E08C858C70BC
S1133EF019F001115AC29BC297FE10C04C0CFC85EC
S1133F00F4FF04C08A81813309F44A94141474F5CB
S1133F1028E0241578F588E0482E2CC096FC2AC0A9
S1133F20812F90E08C159D059CF03CEFC3163FEF6C
S1133F30D30674F0892D8068982E0AC0E2E0F0E080
S1133F40EC0FFD1FE10FF11D8081803319F4115036
S1133F501111F4CF97FE0EC044244394410E812FD7
S1133F6090E0C816D9062CF41C1904C044244394C8
S1133F7001C010E097FE06C01C141D0434F4C601F1
S1133F80019605C085E090E002C081E090E0011157
S1133F900196112331F0212F30E02F5F3F4F820F24
S1133FA0931F252D30E08217930714F4581A01C08B
S1133FB0512C892D897049F4552039F0B70180E2DC
S1133FC090E00E9418245A94F7CF002329F0B701F7
S1133FD0802F90E00E94182493FC09C0552039F0EA
S1133FE0B70180E390E00E9418245A94F7CF97FE1B
S1133FF04CC04601D7FE02C0812C912CC601881901
S11340009909F301E80FF91FED87FE87960124193A
S113401031092F87388B012F10E011950195110973
S11340203FEF8316930629F4B7018EE290E00E94D5
S11340301824C814D9044CF08F85988988159905DB
S113404024F4ED85FE85818101C080E3F1E08F1ABF
S113405091082D853E852F5F3F4F2D873E87801623
S113406091062CF0B70190E00E941824D9CFC8140F
S1134070D90441F49A81963320F4953319F43C859C
S113408034FF81E3B70190E04EC08A81813319F097
S11340909C859F7E9C87B70190E00E941824111193
S11340A005C094FC18C085E690E017C0B7018EE205
S11340B090E00E9418241E5F82E001E0080FF301E3
S11340C0E80FF11D8081B70190E00E941824802F31
S11340D00113F3CFE6CF85E490E0B7010E941824E2
S11340E0D7FC06C0C114D10441F4EC85E4FF05C03B
S11340F0D194C194D1088DE201C08BE2B70190E064
S11341000E94182480E32AE0C216D1042CF08F5FA9
S1134110FAE0CF1AD108F7CFB70190E00E94182433
S1134120B701C601C0960E94182454C1833631F0E9
S1134130833779F0833509F056C020C0560132E048
S1134140A30EB11CF6018081898301E010E06301B4
S113415012C05601F2E0AF0EB11CF601C080D1804E
S113416096FE03C0612F70E002C06FEF7FEFC601BF
S11341700E94F8238C01F92DFF7714C0560122E028
S1134180A20EB11CF601C080D18096FE03C0612F3F
S113419070E002C06FEF7FEFC6010E94DB238C0149
S11341A0F92DF0689F2EF3FD1AC0852D90E00817B5
S11341B01907A8F4B70180E290E00E9418245A94E9
S11341C0F4CFF60197FC859197FE81916F01B701B9
S11341D090E00E94182451105A94015011090115BD
S11341E0110579F7F7C0843611F0893661F5560167
S11341F097FE09C024E0A20EB11CF6016081718112
S1134200828193810AC0F2E0AF0EB11CF601608195
S11342107181072E000C880B990BF92DFF769F2EC8
S113422097FF09C090958095709561957F4F8F4F4A
S11342309F4FF0689F2E2AE030E0A3010E9476246D
S1134240C82EC6183FC0092D853721F40F7E2AE0F9
S113425030E01DC0097F8F3691F018F4883559F08D
S1134260C3C0803719F0883711F0BEC0006104FF65
S113427009C0046007C094FE08C0066006C028E0B8
S113428030E005C020E130E002C020E132E0560118
S113429007FF09C084E0A80EB11CF601608171819A
S11342A08281938108C0F2E0AF0EB11CF6016081F7
S11342B0718180E090E0A3010E947624C82EC61884
S11342C00F77902E96FE0BC0092D0E7FC11650F469
S11342D094FE0AC092FC08C0092D0E7E05C0DC2C99
S11342E0092D03C0DC2C01C0D12E04FF0DC0FE013A
S11342F0EC0DF11D8081803311F4097E09C002FFA9
S113430006C0D394D39404C0802F867809F0D39444
S113431003FD11C000FF06C01C2DD51480F4150D3B
S11343201D190DC0D51458F4B70180E290E00E9425
S11343301824D394F7CFD51410F45D1801C0512C70
S113434004FF10C0B70180E390E00E94182402FF2C
S113435017C001FD03C088E790E002C088E590E043
S1134360B7010CC0802F867859F001FF02C08BE2A0
S113437001C080E207FD8DE2B70190E00E9418249D
S1134380C11638F4B70180E390E00E94182411505C
S1134390F7CFCA94F301EC0DF11D8081B70190E0D1
S11343A00E941824C110F5CF15C0F4E0F51560F58E
S11343B084E0581A93FE1FC0011127C02C8523FFE7
S11343C02AC004E611E0392D3071932EF80184914E
S11343D0811124C0552009F4E4CCB70180E290E0B7
S11343E00E9418245A94F6CFF7018681978126C03B
S11343F08FEF9FEF23C0B70180E290E00E94182462
S11344005A945110F8CFD8CF512CB701802F90E097
S11344100E941824D3CF08E611E0D5CF9110805222
S1134420B70190E00E9418240F5F1F4FCFCF23E005
S1134430251510F483E0BDCF512CC0CF6096E2E186
S11344400C947F2297FB072E16F4009407D077FD77
S113445009D00E94972207FC05D03EF490958195DF
S11344609F4F0895709561957F4F0895052E97FB92
S11344701EF400940E944D2257FD07D00E94AB22E7
S113448007FC03D04EF40C944D2250954095309582
S113449021953F4F4F4F5F4F0895909580957095AC
S11344A061957F4F8F4F9F4F0895EE0FFF1F05902B
S11344B0F491E02D09940E94CD22A59F900DB49F04
S11344C0900DA49F800D911D112408952F923F9269
S11344D04F925F926F927F928F929F92AF92BF9210
S11344E0CF92DF92EF92FF920F931F93CF93DF93BC
S11344F0CDB7DEB7CA1BDB0BCDBFDEBF09942A885C
S1134500398848885F846E847D848C849B84AA84E3
S1134510B984C884DF80EE80FD800C811B81AA8170
S1134520B981CE0FD11DCDBFDEBFED010895AA1B09
S1134530BB1B51E107C0AA1FBB1FA617B70710F08A
S1134540A61BB70B881F991F5A95A9F780959095BC
S1134550BC01CD010895A1E21A2EAA1BBB1BFD01CB
S11345600DC0AA1FBB1FEE1FFF1FA217B307E4074E
S1134570F50720F0A21BB30BE40BF50B661F771FA6
S1134580881F991F1A9469F7609570958095909586
S11345909B01AC01BD01CF010895A29FB001B39F5F
S11345A0C001A39F700D811D1124911DB29F700D38
S11345B0811D1124911D08951F93FC0199278827BB
S11345C0BC01E89411911032E9F3193010F01E3057
S11345D0C8F31B3251F01D3249F4689406C00E949E
S11345E00324610F711D811D911D119110531A3007
S11345F0B0F33EF490958095709561957F4F8F4F01
S11346009F4F1F910895283008F027E03327DA01DF
S1134610990F311D87FD916000966105710539F48C
S113462032602E5F3D9330E32A95E1F708959F3F72
S113463030F080387105610509F03C5F3C5F3D93C3
S1134640913008F08068911DDF93CF931F930F93EF
S1134650FF92EF92192F987F9695E92F969596954C
S1134660E90FFF27EA53FE4F99273327EE24FF244F
S1134670A701E70105900894079428F4360FE71E74
S1134680F81E491F511D660F771F881F991F069436
S1134690A1F70590079428F4E70EF81E491F561F4A
S11346A0C11D770F881F991F661F0694A1F70590F7
S11346B0079428F4F80E491F561FC71FD11D880FF1
S11346C0991F661F771F0694A1F70590079420F49D
S11346D0490F561FC71FD81F990F661F771F881FC2
S11346E00694A9F784911095177041F0D695C79553
S11346F057954795F794E7941A95C1F7ECE6F1E0DE
S113470068941590159135916591959105907FE286
S11347107395E118F10A430B560BC90BD009C0F786
S1134720E10CF11E431F561FC91FD01D7EF47033C8
S113473011F48A95E6CFE894015030F0080F0AF49A
S11347400027021708F4202F2395022F7A3328F02C
S113475079E37D932A95E9F710C07D932A9589F62C
S1134760069497956795379517951794E118F10A6C
S1134770430B560BC90BD00998F023957E91739582
S11347807A3308F070E37C932013B8F77E9170615C
S11347907D9330F0839571E37D9370E32A95E1F77F
S11347A01124EF90FF900F911F91CF91DF919927E2
S11347B087FD90950895FC010590615070400110AB
S11347C0D8F7809590958E0F9F1F0895FB01DC010B
S11347D00D900020E9F7119701900D920020E1F768
S11347E00895FB01DC0101900D920020E1F708958A
S11347F0FC016150704001900110D8F780959095AC
S11348008E0F9F1F0895592F482F372F262F660F7D
S1134810771F881F991F660F771F881F991F620FC4
S1134820731F841F951F660F771F881F991F089594
S11348300F931F93CF93DF93FB01238121FD03C0CB
S11348408FEF9FEF2CC022FF16C046815781248131
S113485035814217530744F4A081B1819D012F5F34
S11348603F4F208331838C93268137812F5F3F4FC5
S11348702683378314C08B01EC01FB010084F1858E
S1134880E02D0995892BE1F6D80116968D919C911E
S11348901797019616968D939C931797CE01DF91E7
S11348A0CF911F910F910895AEE0B0E0EAE5F4E2F4
S11348B00C9474220D891E8986E08C8309831A83E3
S11348C08FEF9FE78D839E83AE01475E5F4F6F89B5
S11348D0788DCE0101960E94A51EEF81F885E00F28
S11348E0F11F10822E96E4E00C948D22FA01AA277F
S11348F0283051F1203181F1E8946F936E7F6E5F1F
S11349007F4F8F4F9F4FAF4FB1E03ED0B4E03CD0CC
S1134910670F781F891F9A1FA11D680F791F8A1FAF
S1134920911DA11D6A0F711D811D911DA11D20D016
S113493009F468943F912AE0269F11243019305DD0
S11349403193DEF6CF010895462F4770405D4193C1
S1134950B3E00FD0C9F7F6CF462F4F70405D4A330E
S113496018F0495D31FD4052419302D0A9F7EACFD6
S1134970B4E0A6959795879577956795BA95C9F705
S113498000976105710508959B01AC010A2E0694F8
S11349905795479537952795BA95C9F7620F731FB1
S11349A0841F951FA01D089560507C4E0C940F2504
S11349B0DC01A40FB51F4150504048F0CB01840FD7
S11349C0951F2E910E94E92441505040D0F708953C
S11349D0262F0E940B250080021619F00E94F42451
S11349E0019701970895262FAF93BF93E0E0F0E17C
S11349F0328131FDFDCFDC01A050BC4E2C932DE95A
S1134A0024BF23E020830196BF91AF91089503D082
S1134A10808199270895FC01E050FC4E0895FB0124
S1134A20DC0102C001900D9241505040D8F7089526
S1074A30F894FFCF24
S1134A3424532564257300434D442C25732C25737A
S1134A440043616E2774207265626F6F742C206D4D
S1134A546F746F72206D6F76696E67004E6F742089
S1134A646120636F6D6D616E64003230253032787D
S1134A742D253032782D2530327854253032783A49
S1134A84253032783A25303278006765745F74696A
S1134A946D65204453333233310044617465546981
S1134AA46D653F007075745F74696D65204453339C
S1134AB432333100323032312D31312D61360045FB
S1134AC452522C25642C25730054696D652053655A
S1134AD4743F00737065634D656368205665727333
S1134AE4696F6E00736176656420656E6376616CCC
S1134AF4203D20256C64004D43503233303038203F
S1134B0472656164206572726F72004D4350323372
S1134B14303038207772697465206572726F720060
S1134B242A253032580D0A0020202020202020205D
S1134B34202020202020202000626F7468006C65EF
S1134B446674007269676874007368757474657256
S1134B5400636C6F73655F504E4555206261642039
S1134B646F626A65637400636C6F73652077686150
S1134B74743F00436C6F7365202573006F70656E1A
S1134B845F504E455520626164206F626A656374A8
S1134B94006F70656E20776861743F004F70656EB6
S1134BA42025730054656D7020262048756D696452
S1134BB46974790025312E3166432025312E3066FF
S1134BC4462025312E30662525004F7269656E74A2
S1134BD46174696F6E0054696D6500526564566151
S1134BE4632020426C7565566163007265706F7250
S1134BF4743A20756E6B6E6F776E206F626A6563AC
S1134C047400454E562C25732C25332E31662C43C3
S1134C142C25312E30662C25252C25332E31662C5B
S1134C24432C25312E30662C25252C25332E316634
S1134C342C432C25312E30662C25252C25332E315E
S1134C44662C432C2573004D54522C25732C256358
S1134C542C256C642C6D6963726F6E732C256C64E3
S1134C642C6D6963726F6E732F7365632C25642CCA
S1134C746D412C2573004D54562C25732C25632C1F
S1134C8425332E31662C562C25332E31662C432C99
S1134C942573004F52492C25732C25332E31662C51
S1134CA425332E31662C25332E31662C25730025AD
S1134CB4322E30662025322E30662025322E306680
S1134CC400504E552C25732C25632C73687574740D
S1134CD465722C25632C6C6566742C25632C7269AF
S1134CE46768742C25632C6169722C2573006C65C8
S1134CF466743A256320202072696768743A2563D0
S1134D0400736875747465723A256320206169724E
S1134D143A25630054494D2C25732C25732C736553
S1134D24742C25732C626F6F742C257300564143C5
S1134D342C25732C25352E32662C726564766163BA
S1134D442C25352E32662C626C75657661632C25B0
S1134D54730025322E3266202025322E3266005608
S1134D6445522C25732C25732C2573006672616DB2
S1134D74207265616420656E6376616C3D256C64A4
S1134D84006765745F4D4F544F52456E636F64659D
S1134D94722074696D656F7574006765745F4D4F37
S1134DA4544F52456E636F646572204352430052FC
S1134DB44F424F466C6F61742074696D656F7574EE
S1134DC4006765745F4D4F544F52466C6F61742095
S1134DD4435243006765745F4D4F544F52496E7498
S1134DE433322074696D656F7574006765745F4D43
S1134DF44F544F52496E74333220435243206572E8
S1134E04726F72006D6F76655F4D4F544F524162FD
S1134E14736F6C7574652074696D656F7574006D5A
S1134E246F76655F4D4F544F524162736F6C757466
S1134E34652061636B006D6F76655F4D4F544F520F
S1134E4420756E6B6E6F776E206D6F746F72006D6C
S1134E546F76655F4D4F544F52206E6F20706F73A1
S1134E646974696F6E206F7220696E6372656D6513
S1134E746E74007365743A206261642074696D65AC
S1134E8420666F726D617400736574207768617451
S1134E943F00545749206275730054574920617286
S10D4EA4626974726174696F6E0034
S9030000FC
