S0100000737065634D6563682E73726563EC
S11300000C9433010C9445010C9445010C94172273
S11300100C9445010C9445010C9445010C94450144
S11300200C9445010C9445010C9445010C94450134
S11300300C944B220C9445010C9445010C944501FD
S11300400C9445010C94AE240C94FC240C944501AE
S11300500C94640F0C9445010C9445010C944501D7
S11300600C9445010C9445010C9456240C9476246C
S11300700C9445010C94A1250C9445010C94450164
S11300800C9445010C9445010C9445010C944501D4
S11300900C9445010C9438250C946D250C94450161
S11300A0AC04D304D304D304D304D304D304D304BB
S11300B0D304AF04D304D304D304D304D304D304A8
S11300C0D304D304D304D304D304D304D304D30474
S11300D0D304D3049A04D304D304D304D304D3049D
S11300E0D304D304D304D304A004D3049D04D304BD
S11300F0D304A304A604A904651065106510591659
S11301005916591659165916591659165916591673
S11301105916591659165916591659165916591663
S113012059161B1659165916591659165916591691
S113013059165916591659163012301230125916CA
S1130140DE125916591659165916591659165916B2
S1130150591659161B14F1145916591659167A15AD
S11301605916C2156E616E00696E660000407A1001
S1130170F35A00A0724E18090010A5D4E80000E854
S11301807648170000E40B54020000CA9A3B0000B2
S113019000E1F505000080969800000040420F0041
S11301A00000A08601000000102700000000E80302
S11301B0000000006400000000000A0000000000CD
S11301C00100000000002C76D888DC674F0823DF8C
S11301D0C1DFAE59E1B1B796E5E3E453C63AE6515F
S11301E0997696E8E6C28426EB898C9B62ED407C86
S11301F06FFCEFBC9C9F40F2BAA56FA5F490055A22
S11302002AF75C936B6CF9676DC11BFCE0E40D4746
S1130210FEF520E6B500D0ED902E03009435770569
S11302200080841E080000204E0A000000C80C3321
S11302303333330F986E12831141EF8D2114893BB0
S1130240E65516CFFEE6DB18D1844B381BF77C1D30
S1130250901DA4BBE424203284725E228100C9F183
S113026024ECA1E53D2711241FBECFEFCDBFDFE372
S1130270DEBF22E3A0E0B8E201C01D92A335B207BD
S1130280E1F70E94C3090C946D2E0C9400008F9228
S11302909F92AF92BF92EF92FF920F931F93CF93CF
S11302A0DF9300D000D0CDB7DEB77B018130C9F039
S11302B018F0823061F010C00F2EF3E38F2E982CCB
S11302C0F3EFAF2EF0E4BF2EF02D11E00EC0812C21
S11302D0912C540110E109C0812C912C540110E09F
S11302E004C0812C912C540114E040E066E087E2C4
S11302F00E942C0A412F409560E087E20E942C0A5C
S1130300412F6AE087E20E942C0A86E18A95F1F780
S113031000008E010F5F1F4F20E840E768E088E48B
S11303200E94C801833651F440E050E866E274EC60
S1130330F70140835183628373831CC020E030E063
S11303404AE754E469817A818B819C810E94672702
S113035023E333E948E853E40E94CC259B01AC0134
S1130360C501B4010E94CD25F701608371838283A6
S1130370938380E02496CDBFDEBFDF91CF911F91A0
S11303800F91FF90EF90BF90AF909F908F90089542
S11303908F929F92AF92BF92CF92DF92EF92FF9291
S11303A00F931F93CF93DF93F82EE62E6801462B0D
S11303B0C42FC168D22FD36080E090E8A6E2B4ECE9
S11303C0F80180839183A283B38360E08F2D0E9420
S11303D0CC22082F882321F00E94162313E6B4C0F0
S11303E081E00E941A23182F833619F40E941623E1
S11303F0ABC08C2F0E941A23182F833619F40E9445
S11304001623A2C08D2F0E941A23182F833619F4A5
S11304100E94162399C00E941623FCE1FA95F1F775
S1130420C1E009C061E08F2D0E94CC220E94AD2260
S113043088230CF4C0E0C111F5CF0E94162360E0BC
S11304408F2D0E94CC2280E00E941A2361E08F2D20
S11304500E94CC220E948B22C82F0E94AD22D82F4A
S11304600E9416236C2F70E0762F66276D2B84E094
S1130470E81649F18E1530F0EE20D9F1E2E0EE16DF
S113048069F142C0F8E0EF1609F442C08AE0E816C8
S113049021F0E6E0EE1238C00BC00F2EF4E78F2EE9
S11304A0F3E19F2EF3E0AF2EF7E3BF2EF02D3AC019
S11304B00F2EF4E78F2EF3E19F2EF3E0AF2EF8E337
S11304C0BF2EF02D2FC00F2EF2E18F2EF3E19F2EC1
S11304D0F3E8AF2EF8E3BF2EF02D24C00F2EF4E77F
S11304E08F2EF3E19F2EF3E0AF2EF9E3BF2EF02D14
S11304F019C00F2EFEE28F2EFDE99F2EF4E4AF2EDD
S1130500F9E3BF2EF02D0EC0812C912C54010AC0AA
S11305100F2EF1E78F2EF3E19F2EF3E8AF2EF7E3D2
S1130520BF2EF02D072E000C880B990B0E94B226CB
S11305309B01AC01C501B4010E946727F6016083E9
S1130540718382839383102F812FDF91CF911F9129
S11305500F91FF90EF90DF90CF90BF90AF909F905E
S11305608F900895CF93DF939C0140E01CC0CEE3AD
S1130570DEE2E881F0E0E15CF24D8081F901E40F14
S1130580F11D8083A0E4BEE28C9181508C9388811C
S113059090E001966EEF70E00E94512B8883808179
S11305A0882329F04F5F8091402E8111E0CFF9011B
S11305B0E40FF11D1082DF91CF9108959FE9980F08
S11305C09A3128F081548A3120F483E6089583E631
S11305D0089580E00895EF92FF921F93CF93DF93E5
S11305E0EC01E62EF12C84E38E9DF0018F9DF00D3D
S11305F01124E35FF74D8FE380838183128213A676
S113060004C0112309F475C021961881812F0E941A
S1130610DE028823B1F3219684E38E9DF0018F9D41
S1130620F00D1124E35FF74D108304C0112309F486
S113063060C021961881812F0E94DE028823B1F3C5
S1130640219684E38E9DF0018F9DF00D1124E35FCC
S1130650F74D118380E02AC0988191110CC094E376
S11306609E9DF0019F9DF00D1124E35FF74DE80F6F
S1130670F11D12823EC09B3361F494E39E9DF00110
S11306809F9DF00D1124E35FF74DE80FF11D1282D9
S11306900FC0219624E32E9DF0012F9DF00D11240F
S11306A0E35FF74DE80FF11D92838F5F8932A0F26B
S11306B0219680E01CC0988191110CC094E39E9D0A
S11306C0F0019F9DF00D1124E35FF74DE80FF11D3C
S11306D013A60FC0219624E32E9DF0012F9DF00D4B
S11306E01124E35FF74DE80FF11D93A78F5F893065
S11306F010F3DF91CF911F91FF90EF9008950F9326
S11307001F93CF93DF93CDB7DEB7C550D140CDBF94
S1130710DEBF27E0E4EEFCE9DE01A150BF4F01900B
S11307200D922A95E1F72091152A21112AC02091D2
S1130730A80422FF03C022E030E002C021E030E040
S11307409F938F933F932F93CE0181509F4F9F93FD
S11307508F938E010F5F1F4F1F930F930E94A92D3C
S1130760C8010E94F90BF80101900020E9F73197C4
S1130770AF01401B510BB80180E00E94A523CDBFFF
S1130780DEBFCB5FDE4FCDBFDEBFDF91CF911F91C8
S11307900F910895CF92DF92EF92FF920F931F93E0
S11307A0CF93DF93CDB7DEB7CC51D140CDBFDEBF01
S11307B0D82EC92E8AE0EBEEFCE99E012F5F3F4F55
S11307C07901D90101900D928A95E1F78E01055FB7
S11307D01F4FC8010E94A606CF92DF921F930F936A
S11307E0FF92EF920C5E1F4F1F930F930E94A92D4F
S11307F0C8010E947F03CDBFDEBFC45EDE4FCDBF04
S1130800DEBFDF91CF911F910F91FF90EF90DF90AA
S1130810CF900895CF93DF9300D0CDB7DEB781E2B8
S113082090E089839A8341E0BE016F5F7F4F80E04F
S11308300E94A5230F900F90DF91CF910895CF933D
S1130840C0910C28C11121C0FC018081813291F436
S1130850918191110FC08FEF91E00E94E92185E011
S113086090E08093092890930A2881E080930C28D3
S1130870C1E00CC0813231F48181882319F00E94D7
S11308809B2504C00E940A0401C0C1E08C2FCF91B3
S11308900895CF93DF9300D0CDB7DEB78EE390E019
S11308A089839A8341E0BE016F5F7F4F80E00E949D
S11308B0A5230F900F90DF91CF910895CF93DF93ED
S11308C0CDB7DEB7CF5FD109CDBFDEBFCE01019674
S11308D00E94B202CE0101960E941F04882309F4EB
S11308E074C08981882311F0813229F41092152A69
S11308F00E9449046AC0CE0101960E94CA03609115
S11309000028CE0101960E94EB028091002824E386
S1130910829FF0011124E35FF74DE0814E2F50E0F8
S1130920FA01E954F109EC32F105E8F5E05BFF4F17
S11309300C94842B0E94100E3CC00E94BA0E39C045
S11309400E948F2036C00E94A90F33C00E941A2132
S113095030C00E94A0212DC00E9414202AC00E94F1
S11309600D1D882339F065EF7CE986E391E00E9450
S113097093071FC00E94691D833631F46AE17DE943
S113098083E991E00E94930710923A2A0E94490455
S11309908AE694E021E0815090402040E1F700C0D5
S11309A00E949B2512C06CE37DE989EC90E00E94D3
S11309B093078091002890E001966AE070E00E941D
S11309C0512B809300280E944904C150DF4FCDBFB2
S11309D0DEBFDF91CF9108950F931F93CF93DF93E1
S11309E0CDB7DEB72A97CDBFDEBF8C0120E00EC0A5
S11309F0822F90E0F801E80FF91F3081E1E0F0E088
S1130A00EC0FFD1FE80FF91F30832F5F243080F3B4
S1130A101D82CE0101960E940B2C855E97400A9799
S1130A20C8F06AE47DE98BE592E00E94930783E6CF
S1130A30B2C0282F30E0F9013597D801A20FB31FB7
S1130A409C9121E030E02C0F3D1FE20FF31F9083B7
S1130A508F5F01C085E0873060F31B82CE01019671
S1130A600E940B2C01970C97C8F067E77DE98BE592
S1130A7092E00E94930783E68EC0282F30E0F901AC
S1130A803897D801A20FB31F9C9121E030E02C0FBE
S1130A903D1FE20FF31F90838F5F01C088E08A300F
S1130AA060F31B82CE0101960E940B2C01974F9795
S1130AB0C8F06FE97DE98BE592E00E94930783E635
S1130AC06AC0282F30E0F9013B97D801A20FB31F69
S1130AD09C9121E030E02C0F3D1FE20FF31F908327
S1130AE08F5F01C08BE08D3060F31B82CE010196D5
S1130AF00E940B2C4897C8F065EC7DE98BE592E0E9
S1130B000E94930783E647C0282F30E0F9013E97FF
S1130B10D801A20FB31F9C9121E030E02C0F3D1FA0
S1130B20E20FF31F90838F5F01C08EE0803160F38A
S1130B301B82CE0101960E940B2CCC97C8F061EE6B
S1130B407DE98BE592E00E94930783E624C0282F79
S1130B5030E0F9017197D801A20FB31F9C9121E0F5
S1130B6030E02C0F3D1FE20FF31F90838F5F01C015
S1130B7081E1833160F31B82CE0101960E940B2C2C
S1130B80CC9740F060E07EE98BE592E00E94930709
S1130B9083E601C080E02A96CDBFDEBFDF91CF910E
S1130BA01F910F9108950F931F93CF93DF93CDB7A8
S1130BB0DEB7A097CDBFDEBF40E2EFE1FEE99E01C4
S1130BC02F5F3F4FD90101900D924A95E1F7FB0148
S1130BD0B081A18112810481558146811F92BF9306
S1130BE01F92AF931F921F931F920F931F925F93B5
S1130BF01F924F933F932F939F938F930E94A92DFE
S1130C00CDBFDEBFA096CDBFDEBFDF91CF911F91D8
S1130C100F910895DC01FB01818990E0C0978295D2
S1130C209295907F9827807F982792899053892B5B
S1130C308C93868590E0C09782959295907F9827B3
S1130C40807F982797859053892B11968C931197C1
S1130C50838590E0C09782959295907F9827807FB6
S1130C60982794859053892B12968C93129781E040
S1130C7013968C931397808590E0C09782959295F4
S1130C80907F9827807F982791859053892B14967D
S1130C908C931497258130E02053310922953295A5
S1130CA0307F3227207F322786818053282B159668
S1130CB02C931597228130E02053310922953295E7
S1130CC0307F3227207F322783818053282B16964A
S1130CD02C930895EF92FF920F931F93CF937B0170
S1130CE060E00E94CC22C82F833619F40E94162398
S1130CF026C080E00E941A23C82F833619F40E946C
S1130D0016231DC061E088E60E94CC22C82F8336DA
S1130D1061F40E94162313C087010C0F111D0E9459
S1130D208B22F8018083CF5F01C0C0E0C630A0F3FE
S1130D300E94AD22F70186830E941623C0E08C2F07
S1130D40CF911F910F91FF90EF900895EF92FF9232
S1130D501F93CF93DF93CDB7DEB72797CDBFDEBF09
S1130D607C01BE016F5F7F4F88E60E946A06182FE0
S1130D70833679F46FE37EE985E690E00E94930779
S1130D808AE0EFE4FEE9D70101900D928A95E1F73C
S1130D9007C0BE016F5F7F4FC7010E94D30510E0FB
S1130DA0812F2796CDBFDEBFDF91CF911F91FF909A
S1130DB0EF900895EF92FF920F931F93CF93DF93D9
S1130DC08B0160E00E94CC22C82F833619F40E9464
S1130DD0162320C080E00E941A23C82F8336A1F472
S1130DE00E94162317C078018FEFE81AF80AF80159
S1130DF080810E941A23C82F833619F40E94162377
S1130E0009C0DF5F870101C0D0E0D73060F30E94E2
S1130E101623C0E08C2FDF91CF911F910F91FF908B
S1130E20EF900895EF92FF921F93CF93DF93CDB786
S1130E30DEB72797CDBFDEBF7C010E94EC04182FDC
S1130E40833639F469E57EE98BE592E00E949307E5
S1130E5016C0B701CE0101960E940A06BE016F5F5B
S1130E607F4F88E60E94DA06182F833639F467E745
S1130E707EE986E690E00E94930701C010E0812F8E
S1130E802796CDBFDEBFDF91CF911F91FF90EF90EA
S1130E90089545E150E06BE070E00E94292E08952A
S1130EA04BE050E060E070E00E94292E0895CF935B
S1130EB0DF93CDB7DEB76597CDBFDEBFCE01019618
S1130EC00E94A60645E150E06BE070E0CE01019679
S1130ED00E942D2E6596CDBFDEBFDF91CF91089580
S1130EE0CF93DF93CDB7DEB72B97CDBFDEBF8BE0BB
S1130EF0E4E9FEE9DE01119601900D928A95E1F78D
S1130F004BE050E060E070E0CE0101960E942D2E8F
S1130F102B96CDBFDEBFDF91CF9108950E94570776
S1130F200E94700708950F931F93CF93DF93CDB75B
S1130F30DEB7C850D140CDBFDEBF2AE0EFE9FEE9FD
S1130F40DE01A150BF4F01900D922A95E1F7109256
S1130F500B2820910B28211115C07F936F939F9329
S1130F608F93CE0181509F4F9F938F938E010F5F7C
S1130F701F4F1F930F930E94A92DC8010E947F0346
S1130F80CDBFDEBFC85FDE4FCDBFDEBFDF91CF91E7
S1130F901F910F910895CF92DF92EF92FF920F93DA
S1130FA01F93CF93DF93D82FD62E072F7A01122FBA
S1130FB060E00E94CC22C82F833619F40E941623C5
S1130FC02EC0802F0E941A23C82F833641F18D2D05
S1130FD00E941A23C82F833611F161E08D2F0E94DD
S1130FE0CC22C82F8336D9F0C0E008C06701CC0EEC
S1130FF0D11C0E948B22F6018083CF5F2C2F30E01E
S1131000812F90E001972817390784F3EC01CE0D66
S1131010DF1D0E94AD2288830E941623C0E08C2F1E
S1131020DF91CF911F910F91FF90EF90DF90CF90C0
S11310300895EF92FF921F93CF93DF93CDB7DEB75E
S11310402A97CDBFDEBF7C018AE0E9EAFEE9DE0132
S1131050119601900D928A95E1F724E1A70160E0D1
S113106070E080E50E94CB07182F833639F4BE0167
S11310706F5F7F4FC7010E943E2D01C010E0812F9A
S11310802A96CDBFDEBFDF91CF911F91FF90EF90E5
S11310900895EF92FF920F931F93CF93DF93F62E51
S11310A0172FEA01022F60E00E94CC228336E1F080
S11310B0812F0E941A238336B9F08F2D0E941A23A0
S11310C0833691F010E00BC07E018FEFE81AF80A26
S11310D088810E941A23833639F01F5FE7011017B5
S11310E098F30E94162380E0DF91CF911F910F9116
S11310F0FF90EF9008958F929F92AF92BF92CF92FC
S1131100DF92EF92FF920F931F93CF93DF9300D060
S113111000D0CDB7DEB7813059F018F0823079F0C5
S113112015C080E00E9464216B017C0140E417C07B
S113113081E00E9464216B017C0140E510C082E0E3
S11311400E9464216B017C0140E609C00F2EC12C72
S1131150D12CF0EAEF2EF1E4FF2EF02D40E58E01C4
S11311600F5F1F4F20E860E088E40E94C8018336C7
S113117089F120E030E040EA50E469817A818B8192
S11311809C810E943E262AE037ED43E25EE30E9402
S1131190CC252FE539E24BEC5BE30E943E264B0164
S11311A05C0129EC3EE84DE05BE3C701B6010E9417
S11311B067279B01AC0162E27DEF86E89FE30E9412
S11311C0CC259B01AC01C501B4010E943E266B01F4
S11311D07C0109C00F2EC12CF0E8DF2EF6E2EF2EC1
S11311E0F4ECFF2EF02D20E030E0A901C701B60198
S11311F00E94392688234CF40F2EC12CF0E8DF2EF0
S1131200F6E2EF2EF4ECFF2EF02DC701B601249682
S1131210CDBFDEBFDF91CF911F910F91FF90EF9073
S1131220DF90CF90BF90AF909F908F900895CF9311
S1131230DF93CDB7DEB72B97CDBFDEBF10920C285E
S11312401092162A1092172A80EE91E080930928B2
S113125090930A280E94930F0E94802280E290E0DB
S11312600E94E9210E94C70B0E94060D0E948E076E
S11312700E945B2381E090E00E94392278940E94CE
S11312801420CE0101960E94500741E063EB7EE9F1
S113129080E00E94170D42E0BE016F5F7F4F80E047
S11312A00E94170D2B96CDBFDEBFDF91CF9108951D
S11312B0CF92DF92EF92FF920F931F93CF93DF931E
S11312C000D000D0CDB7DEB7813021F08230C1F537
S11312D040E301C040E08E010F5F1F4F20E862E051
S11312E089E40E94C801833681F1C980DA80EB80E9
S11312F0FC802DEC3CEC4CEC5EE3C701B6010E9493
S1131300392688233CF120E030E040E050E4C70176
S1131310B6010E946227181614F129E739EE42E05B
S113132050E4C701B6010E9467272EE633EA4BED6D
S113133050E40E94CC25562F472F382F292F13C055
S113134050E040E836E224EC0EC050E040E836E2DB
S113135024EC09C050E040E836E224EC04C050E03C
S113136040E836E224EC652F742F832F922F2496C5
S1131370CDBFDEBFDF91CF911F910F91FF90EF9012
S1131380DF90CF90089581E08093152A0E94170979
S113139010920B288091422E882321F01092422E25
S11313A00E945E042091162A3091172A8091092800
S11313B090910A288217930778F481E080930B2890
S11313C080E00E94740D81E00E94740D1092162A30
S11313D01092172A10920B2890913A2A8091392A58
S11313E08917C0F680910C288823A1F20E94691DF8
S11313F010923A2A10920B28CDCFCF93DF93C82FA7
S1131400D62F60E00E94CC22833651F464EC7EE94E
S113141082E991E00E9493070E9416238FEF19C07E
S11314208D2F0E941A2361E08C2F0E94CC228336D8
S113143051F464EC7EE982E991E00E9493070E94F2
S113144016238FEF06C00E94AD22C82F0E941623D8
S11314508C2FDF91CF9108951F93CF93DF93D62FD5
S1131460142F60E00E94CC22C82F833649F468ED23
S11314707EE982E991E00E9493070E94162315C039
S11314808D2F0E941A23882321F00E941623C3E67D
S11314900CC0812F0E941A23882321F00E94162356
S11314A0C3E603C00E941623C0E08C2FDF91CF91C6
S11314B01F9108958F929F92AF92BF92FF920F93C4
S11314C01F93CF93DF938C0160E088E10E94CC22CC
S11314D0833651F440E050E866E274ECF80140834E
S11314E051836283738343C085E00E941A2361E0C1
S11314F088E10E94CC220E948B22C82F0E94AD2238
S1131500D82F0E941623FC2FF071FF2E6C2F6F70C2
S113151070E080E090E00E94B02620E030E040E8F7
S113152051E40E9467274B015C016D2F70E080E05D
S113153090E00E94B02620E030E040E85DE30E94A5
S113154067279B01AC01C501B4010E94CD25FF2092
S113155041F09B01AC0160E070E080E893E40E94FC
S1131560CC25F801608371838283938380E0DF91CB
S1131570CF911F910F91FF90BF90AF909F908F904C
S11315800895EF92FF920F931F93CF93DF93F82E5A
S1131590E62EEA01022F60E00E94CC22182F833647
S11315A019F40E94162323C08E2D0E941A23182F8B
S11315B08336E9F061E08F2D0E94CC22182F833608
S11315C069F40E94162313C07E018FEFE81AF80A0B
S11315D00E948B2288831F5FE70101C011E010176E
S11315E098F30E94AD2288830E94162310E0812F75
S11315F0DF91CF911F910F91FF90EF900895CF92BB
S1131600DF92EF92FF920F931F93CF93DF93CDB7A7
S1131610DEB72697CDBFDEBF6C017B018A0180E077
S113162090E8A6E2B4ECFA0180839183A283B383A9
S1131630FB0180839183A283B383F601808391832A
S1131640A283B38326E0AE014F5F5F4F61E08DE17B
S11316500E94C10A833609F464C0698170E0762F60
S113166066278A81682B7595679575956795072E0A
S1131670000C880B990B0E94B22620E030E040E871
S113168059E30E94672726E636E245E754E40E94C0
S11316906727F60160837183828393836B8170E093
S11316A0762F66278C81682B759567957595679558
S11316B0072E000C880B990B0E94B22620E030E024
S11316C040E859E30E94672726E636E245E754E4FA
S11316D00E946727F70160837183828393836D81FE
S11316E070E0762F66278E81682B759567957595C2
S11316F06795072E000C880B990B0E94B22620E0F8
S113170030E040E859E30E94672726E636E245E7E1
S113171054E40E946727F801608371838283938372
S113172080E02696CDBFDEBFDF91CF911F910F9150
S1131730FF90EF90DF90CF9008951F93CF93DF93A6
S1131740D62F142F60E00E94CC22C82F882321F0CA
S11317500E9416238C2F17C08D2F0E941A23C82F86
S1131760882321F00E9416238C2F0DC0812F0E9404
S11317701A23C82F882321F00E9416238C2F03C01C
S11317800E94162380E0DF91CF911F910895CF939B
S1131790DF931F92CDB7DEB740E46BE28DE10E9488
S11317A09D0B21E0AE014F5F5F4F6BE28DE10E9424
S11317B0C10A08C021E0AE014F5F5F4F6BE28DE1CB
S11317C00E94C10A898186FDF5CF40EC6FE08DE16E
S11317D00E949D0B42E06BE28DE10E949D0B4DE364
S11317E06AE28DE10E949D0B89810F90DF91CF9178
S11317F00895EF92FF920F931F93CF93DF93CDB78A
S1131800DEB72E97CDBFDEBF8C0188E0EDEEFEE99A
S1131810DE01119601900D928A95E1F7F80101908D
S11318200020E9F731973E2F301B90E081E006C09D
S1131830F801E80FF11D208192278F5F8317C0F311
S11318401F929F93CE0101969F938F937E0189E00F
S1131850E80EF11CFF92EF920E94A92DB701C80176
S11318600E94332D0F900F900F900F900F900F90B8
S11318702E96CDBFDEBFDF91CF911F910F91FF90C8
S1131880EF900895E0E6F4E080E486838183A1E4A8
S1131890B3E01197F1F7000085830895CF93DF93A8
S11318A0D62FC42F60E00E94CC228D2F0E941A23D1
S11318B08C2F0E941A230E941623DF91CF91089542
S11318C0CF93882329F0813009F09EC0CDE301C075
S11318D0CCE34AE260E08C2F0E944E0C41E760E0CA
S11318E08C2F0E944E0C4CE560E48C2F0E944E0C11
S11318F048E260E08C2F0E944E0C48E060E08C2FA0
S11319000E944E0C4AE260E08C2F0E944E0C49E784
S113191060E08C2F0E944E0C45ED60E08C2F0E94FD
S11319204E0C40E760E08C2F0E944E0C48E760E0CC
S11319308C2F0E944E0C48E060E08C2F0E944E0CCD
S113194046E060E08C2F0E944E0C42E760E08C2F52
S11319500E944E0C40E060E48C2F0E944E0C4AE240
S113196060E08C2F0E944E0C49E760E08C2F0E94AF
S11319704E0C4AED60E08C2F0E944E0C40E060E07B
S11319808C2F0E944E0C4CED60E08C2F0E944E0C6C
S113199040E060E08C2F0E944E0C41E860E08C2F08
S11319A00E944E0C4FE760E08C2F0E944E0C49EDD4
S11319B060E08C2F0E944E0C41EF60E08C2F0E945F
S11319C04E0C4BED60E08C2F0E944E0C40E460E026
S11319D08C2F0E944E0C48E760E08C2F0E944E0C26
S11319E048E260E08C2F0E944E0C41E060E08C2FB6
S11319F00E944E0C40E860E08C2F0E944E0C4CE09C
S1131A0060E08C2F0E944E0CCF9108950E94420CEE
S1131A1080E00E94600C81E00E94600C2AE684E071
S1131A2091E0215080409040E1F700C00895EF928A
S1131A30FF920F931F93CF93DF93CDB7DEB7E29757
S1131A40CDBFDEBF142F91E1E5EFFEE9DE019296F2
S1131A5001900D929A95E1F7811102C00CE301C047
S1131A600DE3CE0101967C010E943E2DF701019009
S1131A700020E9F73197EE19FF09719708F0198AE8
S1131A80BE016E5D7F4FCE0101960E94332D113051
S1131A9039F440E860E0802F0E944E0C10E012C040
S1131AA040EC60E0802F0E944E0CF8CFE1E0F0E0C3
S1131AB0EC0FFD1FE10FF11D408160E4802F0E94B7
S1131AC04E0C1F5F103190F381E090E08093162A52
S1131AD09093172AE296CDBFDEBFDF91CF911F917D
S1131AE00F91FF90EF9008951F93CF93DF931F9270
S1131AF0CDB7DEB7182F198241E0BE016F5F7F4F6B
S1131B000E94170D42E0BE016F5F7F4F812F0E943C
S1131B10170D1092162A1092172A0F90DF91CF9169
S1131B201F910895CF92DF92EF92FF920F931F932C
S1131B30CF93DF936C018B017A01E90169E081E2C3
S1131B400E94FD09982F92959695969593709130E1
S1131B5021F493E6F60190830FC0923021F49FE6BE
S1131B60F601908309C0933021F494E7F601908341
S1131B7003C098E7F6019083982F969596959370F5
S1131B80913021F493E6F70190830FC0923021F451
S1131B909FE6F701908309C0933021F494E7F7019D
S1131BA0908303C098E7F7019083982F92959F70D4
S1131BB09370913021F49FE6F80190830FC0923026
S1131BC021F493E6F801908309C0933021F494E75B
S1131BD0F801908303C098E7F801908381FF03C064
S1131BE080E3888302C081E38883DF91CF911F91D2
S1131BF00F91FF90EF90DF90CF900895CF93DF93F4
S1131C00D82FC62F69E084E20E94FD098D2B482F4E
S1131C104C236AE084E20E942C0ADF91CF9108955C
S1131C20CF93DF93CDB7DEB76A97CDBFDEBF99E020
S1131C30E0E4FFE9DE01119601900D929A95E1F737
S1131C4024E3829FC0011124FC01E35FF74D8181ED
S1131C508C3631F118F4823639F06AC08237C1F11A
S1131C60833709F44DC064C06AEE84E40E94FE0D1B
S1131C7066EE88E80E94FE0D86E09FE99F938F93AD
S1131C80CE0101969F938F9309969F938F930E9401
S1131C90A92D0F900F900F900F900F900F9059C097
S1131CA06AEE84E40E94FE0D8BE09FE99F938F937C
S1131CB0CE0101969F938F9309969F938F930E94D1
S1131CC0A92D0F900F900F900F900F900F9041C07F
S1131CD066EE88E80E94FE0D80E19FE99F938F9352
S1131CE0CE0101969F938F9309969F938F930E94A1
S1131CF0A92D0F900F900F900F900F900F9029C067
S1131D006CEE82E20E94FE0D86E19FE99F938F9321
S1131D10CE0101969F938F9309969F938F930E9470
S1131D20A92D0F900F900F900F900F900F9011C04E
S1131D306EE17FE985EF91E00E9493078CE0E4E394
S1131D40FFE9DE011A9601900D928A95E1F783E688
S1131D500BC081E00E94740D41E0BE01665F7F4FBD
S1131D6081E00E94170D80E06A96CDBFDEBFDF914F
S1131D70CF910895CF93DF93CDB7DEB76997CDBFE9
S1131D80DEBF98E0E9E6FFE9DE01119601900D92CD
S1131D909A95E1F724E3829FC0011124FC01E35FDB
S1131DA0F74D81818C3631F118F4823639F06AC0EE
S1131DB08237C1F1833709F44DC064C06EEA84E40C
S1131DC00E94FE0D6EE688E80E94FE0D86E09FE903
S1131DD09F938F93CE0101969F938F9308969F9321
S1131DE08F930E94A92D0F900F900F900F900F903A
S1131DF00F9059C06EEA84E40E94FE0D8BE09FE9C7
S1131E009F938F93CE0101969F938F9308969F93F0
S1131E108F930E94A92D0F900F900F900F900F9009
S1131E200F9041C06EE688E80E94FE0D80E19FE9B4
S1131E309F938F93CE0101969F938F9308969F93C0
S1131E408F930E94A92D0F900F900F900F900F90D9
S1131E500F9029C06EEC82E20E94FE0D86E19FE99C
S1131E609F938F93CE0101969F938F9308969F9390
S1131E708F930E94A92D0F900F900F900F900F90A9
S1131E800F9011C069E47FE985EF91E00E94930708
S1131E908BE0EEE5FFE9DE01199601900D928A953B
S1131EA0E1F783E60BC081E00E94740D41E0BE01BE
S1131EB0675F7F4F81E00E94170D80E06996CDBF78
S1131EC0DEBFDF91CF9108951F920F920FB60F924C
S1131ED011242F933F934F935F936F937F938F932B
S1131EE09F93AF93BF93EF93FF93809169048823EB
S1131EF04CF480E88093690468E081E20E94FD0963
S1131F008093182AFF91EF91BF91AF919F918F9188
S1131F107F916F915F914F913F912F910F900FBEE1
S1131F200F901F90189584E080932104E0EAF4E078
S1131F30828380E281838BE0868BE0E4F4E088E0B6
S1131F4086838183ADE8B0E21197F1F700008583C1
S1131F5008952F923F924F925F926F927F928F9249
S1131F609F92AF92BF92CF92DF92EF92FF920F9324
S1131F701F93CF93DF93CDB7DEB7C157D340CDBF07
S1131F80DEBF95E4EBEBF0EADE01A65BBE4F019009
S1131F900D929A95E1F793E2E0E0F1EADE01A157B0
S1131FA0BE4F01900D929A95E1F792E3E3E2F1EAD4
S1131FB0DE01AE54BE4F01900D929A95E1F791E384
S1131FC0E5E5F1EADE01AC51BE4F01900D929A9520
S1131FD0E1F795E3E6E8F1EADE01AB5EBD4F01907F
S1131FE00D929A95E1F79CE1EBEBF1EADE01A65B39
S1131FF0BD4F01900D929A95E1F792E1E7EDF1EA78
S1132000DE01AA59BD4F01900D929A95E1F79DE228
S1132010E9EEF1EADE01A858BD4F01900D929A95C0
S1132020E1F793E1E6E1F2EADE01AB55BD4F019041
S11320300D929A95E1F793E1E9E2F2EADE01A85400
S1132040BD4F01900D929A95E1F799E1ECE3F2EA24
S1132050DE01A553BD4F01900D929A95E1F795E2EB
S1132060E5E5F2EADE01AC51BD4F01900D929A957F
S1132070E1F79DE0EAE7F2EADE01A75FBC4F0190D9
S11320800D929A95E1F79DE0E7E8F2EADE01AA5E97
S1132090BC4F01900D929A95E1F7082F10E084E36C
S11320A0809FF001819FF00D1124E35FF74DE181E2
S11320B08E2F90E0FC01E154F109E633F10508F0BC
S11320C0F8C5E458FF4F0C94842BCE01865F9E4FD5
S11320D00E94A60684E3809FF001819FF00D1124E5
S11320E0E35FF74DD1800F2EFFE3EF2EF02DED0CC3
S11320F0AE014C5C5C4F68E18E2D0E940419F82EF1
S113210083E6F81207C061E77FE986E391E00E9465
S11321109307D9C5AE01405D5C4F62E58E2D0E94E8
S11321200419F82E93E6891307C065E97FE986E36D
S113213091E00E949307C7C5BE01645D7C4F8E2D5C
S11321400E947719F82E83E6F81207C06FEB7FE937
S113215086E391E00E949307B6C5BE016D5D7C4F96
S11321608E2D0E94391CF82E93E6891307C062EE67
S11321707FE986E391E00E949307A5C524E3209FAD
S1132180C001219F900D11248C01085C174D1F93F1
S11321900F93CD5DDC4F8881C352D3401F928F9340
S11321A0C15DDC4F8881CF52D3408F93C25DDC4F39
S11321B08881CE52D3408F93C35DDC4F8881CD524A
S11321C0D3408F93C45DDC4F8881CC52D3408F932E
S11321D0CD5CDC4F8881C353D3408F93CE5CDC4FFE
S11321E08881C253D3408F93CF5CDC4F8881C15325
S11321F0D3408F93C05DDC4F8881C053D3408F930D
S1132200C95CDC4F8881C753D3408F93CA5CDC4FD1
S11322108881C653D3408F93CB5CDC4F8881C553F0
S1132220D3408F93CC5CDC4F8881C453D3408F93CD
S11322301F92DF92CE01865F9E4F9F938F938855A6
S11322409F4F9F938F93815B91405C019F938F93EA
S11322500E94A92DC5010E947F03BE016A5B7C4FC9
S11322608E2D0E940A1AF82ECDBFDEBF93E6F91216
S113227007C061E070EA86E391E00E94930723C5FA
S1132280C25BDC4FE881CE54D340C15BDC4FF881A4
S1132290CF54D340C05BDC4FA881C055D340CF5A44
S11322A0DC4FB881C155D340C65BDC4F4881CA546A
S11322B0D340C55BDC4F5881CB54D340C45BDC4F67
S11322C06881CC54D340C35BDC4F7881CD54D34078
S11322D0CA5BDC4F8881C654D340C95BDC4F98810C
S11322E0C754D340C85BDC4F2881C854D340C75B74
S11322F0DC4F3881C954D3401F930F93CB5ADC4F22
S1132300F880C555D340FF92CC5ADC4FF880C455B1
S1132310D340FF92CD5ADC4FF880C355D340FF928F
S1132320CE5ADC4FF880C255D340FF92BF93AF938F
S1132330FF93EF937F936F935F934F933F932F9309
S11323409F938F931F92DF925E0186EFA81A8EEF00
S1132350B80ABF92AF92CE018C519E4F9F938F9338
S1132360835E91407C019F938F930E94A92DC701A6
S11323700E947F031F930F93CB59DC4F8881C5566E
S1132380D3408F93CC59DC4F8881C456D3408F936C
S1132390CD59DC4F8881C356D3408F93CE59DC4F3F
S11323A08881C256D3408F93CF59DC4F8881C15660
S11323B0D3408F93C05ADC4F8881C056D3408F934B
S11323C0C15ADC4F8881CF55D3408F93C25ADC4F1A
S11323D08881CE55D3408F93C35ADC4F8881CD5525
S11323E0D3408F93C45ADC4F8881CC55D3408F930C
S11323F0C55ADC4F8881CB55D3408F93C65ADC4FE6
S11324008881CA55D3408F93C75ADC4F8881C955F8
S1132410D3408F93C85ADC4F8881C855D3408F93DB
S1132420C95ADC4F8881C755D3408F93CA5ADC4FB1
S11324308881C655D3408F931F92DF92BF92AF928B
S1132440CE018B5E9D4F9F938F93FF92EF920E94DC
S1132450A92DCDBFDEBFC7010E947F03F12C33C479
S1132460CE01865F9E4F0E94A60684E3809FF00102
S1132470819FF00D1124E35FF74D81810F2EFFE161
S1132480EF2EF02DE80EBE016C5D7C4F8E2D0E9468
S11324908A18F82E93E6891307C06DE170EA86E383
S11324A091E00E9493070FC4CC5DDC4F6881798171
S11324B08A819B81C452D3402BE131E040E050E05B
S11324C00E94652BF22ED32EC42EB52EBE01685D5C
S11324D07C4F8E2D0E948F1C833661F48FEF9FEF0B
S11324E0AFEFBFE7C85DDC4F88839983AA83BB83C2
S11324F0C852D340C85DDC4F688179818A819B8151
S1132500C852D3402BE131E040E050E00E94652BFB
S1132510A22E932E842E752EBE01685C7C4F8E2DC8
S11325200E941D18833671F46DE370EA86E391E02E
S11325300E9493078FEF9FEFC85CDC4F88839983D9
S1132540C853D34024E3209FC001219F900D112440
S11325509C01285C374DFC01E35FF74D81813F937B
S11325602F93C75CDC4F9881C953D3409F93C85CB9
S1132570DC4F9881C853D3409F937F928F929F9250
S1132580AF92BF92CF92DF92FF921F928F93CE01B0
S1132590865F9E4F9F938F938B579F4F9F938F93ED
S11325A08E010F5F1F4F1F930F930E94A92DC80127
S11325B00E947F03CDBFDEBFF12C85C380E00E9463
S11325C06421C05DDC4F688379838A839B83C05315
S11325D0D34080E00E947B08D62EC72EB82EA92EA9
S11325E081E00E946421CA59DC4F6883C656D340F7
S11325F0C959DC4F7883C756D340C859DC4F888308
S1132600C856D340C759DC4F9883C956D34081E09C
S11326100E947B08C659DC4F6883CA56D340C5590B
S1132620DC4F7883CB56D340C459DC4F8883CC56D7
S1132630D340C359DC4F9883CD56D34082E00E94E7
S11326406421C259DC4F6883CE56D340C159DC4F54
S11326507883CF56D340982E892E82E00E947B083F
S1132660762E672E582E492E83E00E946421C0598D
S1132670DC4F6883C057D340CF58DC4F7883C157B1
S1132680D340382E292E7E0196EFE91A9EEFF90ADF
S1132690C7010E94A60624E3209FC001219F900D3C
S11326A01124885C974D9F938F932F923F92CF581C
S11326B0DC4F8881C157D3408F93C059DC4F988138
S11326C0C057D3409F934F925F926F927F928F92A5
S11326D09F92C159DC4F8881CF56D3408F93C25902
S11326E0DC4F9881CE56D3409F93C359DC4F8881E9
S11326F0CD56D3408F93C459DC4F9881CC56D340E8
S11327009F93C559DC4F8881CB56D3408F93C659CC
S1132710DC4F9881CA56D3409F93C759DC4F8881B8
S1132720C956D3408F93C859DC4F9881C856D340BB
S11327309F93C959DC4F8881C756D3408F93CA5998
S1132740DC4F9881C656D3409F93AF92BF92CF92ED
S1132750DF92CD5CDC4F8881C353D3408F93CE5C32
S1132760DC4F8881C253D3408F93CF5CDC4F888188
S1132770C153D3408F93C05DDC4F8881C053D34095
S11327808F93FF92EF92CE01865B9E4F9F938F9320
S11327908E010F5F1F4F1F930F930E94A92DCDBF72
S11327A0DEBFC8010E947F0341E06DE570EA81E06D
S11327B00E94170DC05DDC4FF880C053D340CF5C3E
S11327C0DC4FE880C153D340CE5CDC4F9880C253C9
S11327D0D340CD5CDC4F8880C353D34026E636E635
S11327E046EE5FE36F2D7E2D892D982D0E9467277D
S11327F0AF92BF92CF92DF9220E030E040E052E40B
S11328000E94CD259F938F937F936F938F929F9276
S1132810EF92FF928DE690EA9F938F931F930F930D
S11328200E94A92D42E0B80181E00E94170DCDBF9E
S1132830DEBFF12C48C2AE014E5B5C4FBE01625C50
S11328407C4FCE01865C9C4F0E94FF0A7E0196EF6E
S1132850E91A9EEFF90AC7010E94A60624E3209F05
S1132860C001219F900D1124885C974D9F938F93F5
S1132870CB5BDC4F8881C554D3408F93CC5BDC4F5A
S11328808881C454D3408F93CD5BDC4F8881C3547B
S1132890D3408F93CE5BDC4F8881C254D3408F9357
S11328A0CF5BDC4F8881C154D3408F93C05CDC4F35
S11328B08881C054D3408F93C15CDC4F8881CF534F
S11328C0D3408F93C25CDC4F8881CE53D3408F9327
S11328D0C35CDC4F8881CD53D3408F93C45CDC4F01
S11328E08881CC53D3408F93C55CDC4F8881CB5314
S11328F0D3408F93C65CDC4F8881CA53D3408F93F7
S1132900FF92EF92CE01865B9D4F9F938F938E0132
S11329100F5F1F4F1F930F930E94A92DC8010E94A0
S11329207F0341E063E870EA81E00E94170DCB5B0E
S1132930DC4F8881C554D3408F93CC5BDC4F8881B6
S1132940C454D3408F93CD5BDC4F8881C354D340B0
S11329508F93CE5BDC4F8881C254D3408F93CF5B7F
S1132960DC4F8881C154D3408F93C05CDC4F888195
S1132970C054D3408F93C15CDC4F8881CF53D34084
S11329808F93C25CDC4F8881CE53D3408F93C35C5A
S1132990DC4F8881CD53D3408F93C45CDC4F888156
S11329A0CC53D3408F93C55CDC4F8881CB53D34049
S11329B08F93C65CDC4F8881CA53D3408F93CE017A
S11329C08A599D4F9F938F931F930F930E94A92D14
S11329D0CDBFDEBF42E0B80181E00E94170DF12CAB
S11329E072C17E0196EFE91A9EEFF90AC7010E94AF
S11329F0A6069E01275B3E4FAE01485B5E4FBE01BB
S1132A00695B7E4FCE018A5B9E4F0E94920D24E348
S1132A10209FC001219F900D1124885C974D9F93A6
S1132A208F93C75BDE4F8881C954D1401F928F9327
S1132A30C85BDE4F8881C854D1401F928F93C95B15
S1132A40DE4F8881C754D1401F928F93CA5BDE4FFB
S1132A508881C654D1401F928F93FF92EF92CE018A
S1132A6088589D4F9F938F938E010F5F1F4F1F9325
S1132A700F930E94A92DC8010E947F03C85BDE4FFB
S1132A808881C854D1401F928F93C95BDE4F8881DF
S1132A90C754D1401F928F93CE018B559D4F9F9366
S1132AA08F931F930F930E94A92D41E0B80181E0F9
S1132AB00E94170DC75BDE4F8881C954D1401F9215
S1132AC08F93CA5BDE4F8881C654D1401F928F9387
S1132AD0CE0188549D4F9F938F931F930F930E9411
S1132AE0A92DCDBFDEBF42E0B80181E00E94170DE1
S1132AF0F12CE9C07E0196EFE91A9EEFF90AC701AD
S1132B000E94A6066E0182EEC81A8EEFD80AC6018C
S1132B100E9419085E019EECA91A9EEFB90AC5012C
S1132B200E94490724E3209FC001219F900D112496
S1132B30885C974D9F938F93BF92AF92DF92CF9211
S1132B40FF92EF92CE0185539D4F9F938F938E01F9
S1132B500F5F1F4F1F930F930E94A92DC8010E945E
S1132B607F0341E06FE870EA81E00E94170DB7012E
S1132B70655F7F4F42E081E00E94170DCDBFDEBF4D
S1132B80F12CA1C081E00E945809D62EC72EB82E80
S1132B90A92E82E00E945809962E872E782E692E3F
S1132BA07E0196EFE91A9EEFF90AC7010E94A60674
S1132BB024E3209FC001219F900D1124885C974D30
S1132BC09F938F936F927F928F929F92AF92BF92B7
S1132BD0CF92DF92FF92EF92CE018C519D4F9F9343
S1132BE08F938E010F5F1F4F1F930F930E94A92D88
S1132BF0C8010E947F0341E064E970EA81E00E9419
S1132C00170D6F927F928F929F92AF92BF92CF9245
S1132C10DF92CE01875F9C4F9F938F931F930F93F7
S1132C200E94A92D42E0B80181E00E94170DCDBF9A
S1132C30DEBFF12C48C06E019FEFC90ED11CC60146
S1132C400E9450077E0186EFE81A8EEFF80AC7014A
S1132C500E94A60624E3209FC001219F900D112409
S1132C60885C974D9F938F93DF92CF92FF92EF9260
S1132C70CE018A5E9C4F9F938F938E010F5F1F4FEF
S1132C801F930F930E94A92DC8010E947F0341E066
S1132C9063EB7EE981E00E94170DC8010E94500792
S1132CA042E0B80181E00E94170DCDBFDEBFF12CD8
S1132CB00AC064EA70EA8AEC90E00E9493070F2E3F
S1132CC0F3E6FF2EF02D8F2DCF58DC4FCDBFDEBFA6
S1132CD0DF91CF911F910F91FF90EF90DF90CF90F4
S1132CE0BF90AF909F908F907F906F905F904F9028
S1132CF03F902F900895DC0140E050E080E090E0A8
S1132D001BC0FD01E40FF51F208130E0322F222784
S1132D108227932720E00CC099233CF4880F991F45
S1132D2031E2832730E1932702C0880F991F2F5F78
S1132D30283090F34F5F5F4F4617570710F30895FD
S1132D40CF92DF92EF92FF920F931F93CF93DF9373
S1132D50CDB7DEB7C358D109CDBFDEBF8B019FE22B
S1132D60E4E9F2EADE01119601900D929A95E1F7F9
S1132D70813859F0823831F0803809F071C064E14B
S1132D8070E005C06CE170E002C068E170E0F82E0C
S1132D9024E0AE0140585F4F80E50E94CB07E82E47
S1132DA083E6E81224C081EC8F0D1F928F93CE012D
S1132DB001969F938F936E01E0E3CE0ED11CDF92B8
S1132DC0CF920E94A92DB60183E991E00E94930756
S1132DD08FEF9FEFDC01F80180839183A283B3839B
S1132DE00F900F900F900F900F900F903DC0C05810
S1132DF0DF4F8881C058D04090E0A0E0B0E0782F49
S1132E00662755274427CF57DF4F9881C158D040B4
S1132E10892F90E0A0E0B0E0DC0199278827842B7B
S1132E20952BA62BB72BCE57DF4F4881C258D040E5
S1132E3050E060E070E0762F652F542F4427842BF8
S1132E40952BA62BB72BCD57DF4F2881C358D040E5
S1132E50822BF80180839183A283B383E12C04C085
S1132E600F2EF3E6EF2EF02D8E2DCD57DF4FCDBF75
S1132E70DEBFDF91CF911F910F91FF90EF90DF9014
S1132E80CF900895BF92CF92DF92EF92FF920F936B
S1132E901F93CF93DF93CDB7DEB7C259D109CDBF0E
S1132EA0DEBFE82E8A01F22E80E2E3ECF2EADE01D4
S1132EB0AB5ABF4F01900D928A95E1F78EE1E3EE94
S1132EC0F2EADE01AB58BF4F01900D928A95E1F70B
S1132ED06894BB24B1F8B20E10923A2BB092392BFD
S1132EE06296EFAE629763966FAF639762E070E0AD
S1132EF0CE018F5A9F4F0E947B1664969FAF6497B2
S1132F0065968FAF659762E0CE018F5A9F4F0E94FE
S1132F103F24109207281092082824C08091072883
S1132F209091082885369105E8F081EC8E0D1F926A
S1132F308F93CE018B5A9F4F9F938F938E010F5F78
S1132F401F4F1F930F930E94A92DB80180E391E0B6
S1132F500E9493070F900F900F900F900F900F9077
S1132F6083E65DC090913A2B8091392B9817B0F28B
S1132F708F2D90E0FC01E55CF54DC080D12CDC2C5C
S1132F80CC24FC01E45CF54D8081C82A82E00EC0AB
S1132F90282F30E0F901E75CF54D9081E1E5F0E0A0
S1132FA0EC0FFD1FE20FF31F90838F5F8B1580F3EF
S1132FB06B2D70E0CE018F5A9F4F0E947B16C8166E
S1132FC0D90649F181EC8E0D1F928F93CE018B5857
S1132FD09F4F9F938F938E010F5F1F4F1F930F93EC
S1132FE00E94A92DB80181E391E00E9493070F90FC
S1132FF00F900F900F900F900F9083E610C0822FC8
S113300090E0F801E80FF91FDC01A55CB54D8C9147
S113301080832F5F01C020E02F1588F380E0CE5617
S1133020DF4FCDBFDEBFDF91CF911F910F91FF9096
S1133030EF90DF90CF90BF900895CF92DF92EF9200
S1133040FF920F931F93CF93DF93CDB7DEB7CD5786
S1133050D109CDBFDEBFE82E8B0189E2E1E0F3EABE
S1133060DE01119601900D928A95E1F724E0AE01FC
S113307046585F4F61E38E2D0E944217F82E83E677
S1133080F81221C081EC8E0D1F928F93CE01019610
S11330909F938F936E01EAE2CE0ED11CDF92CF9202
S11330A00E94A92DB60186E391E00E9493078FEF59
S11330B09FEFF801808391830F900F900F900F90F2
S11330C00F900F9019C0EB968FADEB9790E0982F6F
S11330D08827EC962FADEC97822B9C01220F331F8F
S11330E0880F991F880F991F880F991F820F931FAC
S11330F0F80180839183F12C8F2DC358DF4FCDBF0E
S1133100DEBFDF91CF911F910F91FF90EF90DF9081
S1133110CF900895EF92FF920F931F93CF93DF9375
S1133120CDB7DEB7CE57D109CDBFDEBFE82E8B01B8
S113313089E2EAE2F3EADE01119601900D928A95A2
S1133140E1F725E0AE0146585F4F60E18E2D0E9405
S11331504217F82E83E6F8121BC081EC8E0D1F92E5
S11331608F93CE0101969F938F938E01065D1F4F1F
S11331701F930F930E94A92DB80186E391E00E944A
S113318093070F900F900F900F900F900F9030C0F7
S1133190EB968FADEB9790E0A0E0B0E0782F662738
S11331A055274427EC969FADEC97892F90E0A0E03B
S11331B0B0E0DC0199278827842B952BA62BB72B0D
S11331C0ED964FADED9750E060E070E0762F652FFF
S11331D0542F4427842B952BA62BB72BEE962FAD7B
S11331E0EE97822BF80180839183A283B383F12C21
S11331F08F2DC258DF4FCDBFDEBFDF91CF911F911E
S11332000F91FF90EF900895CF92DF92EF92FF928B
S11332100F931F93CF93DF93CDB7DEB7C957D1096F
S1133220CDBFDEBFE82E8A0187E2E3E5F3EADE01E3
S1133230119601900D928A95E1F722E0AE0148586B
S11332405F4F8E2D0E944217F82E83E6F81225C098
S113325081EC8E0D1F928F93CE0101969F938F93D5
S11332606E01E8E2CE0ED11CDF92CF920E94A92D0E
S1133270B60186E391E00E94930780E090E8A6E21D
S1133280B4ECF80180839183A283B3830F900F90F1
S11332900F900F900F900F901CC0E9966FADE997B7
S11332A070E0762F6627EA968FADEA97682B072E93
S11332B0000C880B990B0E94B22620E030E040E21B
S11332C051E40E943E26F8016083718382839383D4
S11332D0F12C8F2DC758DF4FCDBFDEBFDF91CF91CB
S11332E01F910F91FF90EF90DF90CF900895CF92B0
S11332F0DF92EF92FF920F931F93CF93DF93CDB79B
S1133300DEB7C458D109CDBFDEBFE82E8B018CE2F5
S1133310EAE7F3EADE01119601900D928A95E1F74E
S113332028E0AE0143585F4F67E88E2D0E94421794
S1133330F82E83E6F8121BC081EC8E0D1F928F933A
S1133340CE0101969F938F938E01035D1F4F1F93B0
S11333500F930E94A92DB80186E391E00E94930780
S11333600F900F900F900F900F900F9045C0EE9616
S11333708FADEE9790E0A0E0B0E0F82EEE24DD24CF
S1133380CC24EF964FADEF9750E060E070E0DA01A7
S1133390992788278C299D29AE29BF29C158DF4F39
S11333A04881CF57D04050E060E070E0762F652F21
S11333B0542F4427842B952BA62BB72BC058DF4FB3
S11333C02881C058D040822B880F991FAA1FBB1F89
S11333D0AC01BD01440F551F661F771F440F551FD5
S11333E0661F771F840F951FA61FB71FF8018083E0
S11333F09183A283B383F12C8F2DCC57DF4FCDBFA4
S1133400DEBFDF91CF911F910F91FF90EF90DF907E
S1133410CF900895EF92FF920F931F93CF93DF9372
S1133420CDB7DEB7C159D109CDBFDEBFF82E8B01B0
S113343085E2E6EAF3EADE01119601900D928A959F
S1133440E1F72CE1AE014A585F4F6FE38F2D0E94E4
S11334504217E82E83E6E8121BC081EC8F0D1F9201
S11334608F93CE0101969F938F938E010A5D1F4F18
S11334701F930F930E94A92DB80186E391E00E9447
S113348093070F900F900F900F900F900F90E5C13E
S1133490E7964FADE79750E060E070E0742F662741
S11334A055274427E8968FADE89790E0A0E0B0E078
S11334B0DC0199278827482B592B6A2B7B2BE9960B
S11334C08FADE99790E0A0E0B0E0BA2FA92F982F34
S11334D08827842B952BA62BB72BEA962FADEA973A
S11334E0BC01CD01622B0E94B22620E030E040E80E
S11334F05AE30E946727F801608371838283938370
S1133500EB964FADEB9750E060E070E0742F6627C8
S113351055274427EC968FADEC9790E0A0E0B0E0FF
S1133520DC0199278827482B592B6A2B7B2BED9696
S11335308FADED9790E0A0E0B0E0BA2FA92F982FBF
S11335408827842B952BA62BB72BEE962FADEE97C1
S1133550BC01CD01622B0E94B22620E030E040E89D
S11335605AE30E946727F8016483758386839783EF
S1133570EF964FADEF9750E060E070E0742F662750
S113358055274427C158DF4F8881CF57D04090E05A
S1133590A0E0B0E0DC0199278827482B592B6A2B3F
S11335A07B2BC058DF4F8881C058D04090E0A0E00A
S11335B0B0E0BA2FA92F982F8827842B952BA62B00
S11335C0B72BCF57DF4F2881C158D040BC01CD0164
S11335D0622B0E94B22620E030E040E85AE30E94C9
S11335E06727F8016087718782879387CE57DF4FFB
S11335F08881C258D04090E0A0E0B0E0782F6627E0
S113360055274427CD57DF4F9881C358D040892F81
S113361090E0A0E0B0E0DC0199278827842B952B6B
S1133620A62BB72BCC57DF4F4881C458D04050E06D
S113363060E070E0762F652F542F4427842B952B60
S1133640A62BB72BCB57DF4F2881C558D040822BF0
S113365084879587A687B787CA57DF4F8881C6585E
S1133660D04090E0A0E0B0E0782F662755274427AB
S1133670C957DF4F9881C758D040892F90E0A0E008
S1133680B0E0DC0199278827842B952BA62BB72B38
S1133690C857DF4F4881C858D04050E060E070E020
S11336A0762F652F542F4427842B952BA62BB72BCD
S11336B0C757DF4F2881C958D040822B808B918B0C
S11336C0A28BB38BC657DF4F8881CA58D04090E095
S11336D0A0E0B0E0782F662755274427C557DF4F71
S11336E09881CB58D040892F90E0A0E0B0E0DC0175
S11336F099278827842B952BA62BB72BC457DF4FEC
S11337004881CC58D04050E060E070E0762F652FBF
S1133710542F4427842B952BA62BB72BC357DF4F4D
S11337202881CD58D040822B848B958BA68BB78B68
S1133730C257DF4F8881CE58D04090E0A0E0B0E07F
S1133740782F662755274427C157DF4F9881CF58D4
S1133750D040892F90E0A0E0B0E0DC0199278827D1
S1133760842B952BA62BB72BC057DF4F4881C0590C
S1133770D04050E060E070E0762F652F542F44274E
S1133780842B952BA62BB72BCF56DF4F2881C159FD
S1133790D040822B808F918FA28FB38F20E1AE0116
S11337A04A585F4F67E38F2D0E944217E82EF3E6D5
S11337B08F131BC081EC8F0D1F928F93CE01019646
S11337C09F938F938E010A5D1F4F1F930F930E9447
S11337D0A92DB80186E391E00E9493070F900F9002
S11337E00F900F900F900F9038C0CE57DF4F888105
S11337F0C258D04090E0A0E0B0E0782F662755276B
S11338004427CD57DF4F9881C358D040892F90E08B
S1133810A0E0B0E0DC0199278827842B952BA62B08
S1133820B72BCC57DF4F4881C458D04050E060E0FC
S113383070E0762F652F542F4427842B952BA62BCD
S1133840B72BCB57DF4F2881C558D040822BF801C6
S1133850848F958FA68FB78FE12C8E2DCF56DF4F97
S1133860CDBFDEBFDF91CF911F910F91FF90EF90FD
S11338700895CF92DF92EF92FF920F931F93CF930D
S1133880DF93CDB7DEB7C757D109CDBFDEBF082F51
S11338907B0184E2EBECF3EADE01119601900D92D8
S11338A08A95E1F723E0AE014B585F4F6BE4802F1C
S11338B00E944217182F8336F1F40F531F920F936F
S11338C0CE0101969F938F936E0185E2C80ED11CA1
S11338D0DF92CF920E94A92DB60186E391E00E9467
S11338E093078FEFF70180830F900F900F900F9045
S11338F00F900F9006C0E7968FADE797F70180838E
S113390010E0812FC958DF4FCDBFDEBFDF91CF91CB
S11339101F910F91FF90EF90DF90CF900895EF9259
S1133920FF920F931F93CF93DF93CDB7DEB7C158A8
S1133930D109CDBFDEBFE82E8B018CE2EFEEF3EAB6
S1133940DE01119601900D928A95E1F725E0AE0112
S113395043585F4F62E18E2D0E944217F82E83E692
S1133960F8121BC081EC8E0D1F928F93CE0101962D
S11339709F938F938E01035D1F4F1F930F930E949C
S1133980A92DB80186E391E00E9493070F900F9050
S11339900F900F900F900F9034C0EE968FADEE976E
S11339A090E0A0E0B0E0782F662755274427EF96F3
S11339B09FADEF97892F90E0A0E0B0E0DC0199275C
S11339C08827842B952BA62BB72BC158DF4F488112
S11339D0CF57D04050E060E070E0762F652F542F31
S11339E04427842B952BA62BB72BC058DF4F288157
S11339F0C058D040822BF80180839183A283B38383
S1133A00F12C8F2DCF57DF4FCDBFDEBFDF91CF918C
S1133A101F910F91FF90EF900895EF92FF920F93F3
S1133A201F93CF93DF93CDB7DEB7CE57D109CDBF68
S1133A30DEBF8AE2E4E4F4EADE01119601900D921D
S1133A408A95E1F7EF961CAE1DAE1EAE1FAEEF9742
S1133A5000E010E830C0BE0165587F4F812F0E94FE
S1133A608F1C8336E1F41F9281EC810F8F93CE017A
S1133A7001969F938F937E018BE2E80EF11CFF92D7
S1133A80EF920E94A92DB70186E391E00E9493076B
S1133A900F900F900F900F900F900F900BC0EF9618
S1133AA08CAD9DADAEADBFADEF97892B8A2B8B2B23
S1133AB009F00F5F1F5F113870F2802FC258DF4F7B
S1133AC0CDBFDEBFDF91CF911F910F91FF90EF909B
S1133AD00895DF92EF92FF920F931F93CF93DF939A
S1133AE0CDB7DEB7C75FD109CDBFDEBF81E3EEE658
S1133AF0F4EADE01119601900D928A95E1F78BE2CA
S1133B00EFE9F4EADE01D29601900D928A95E1F78D
S1133B108AE3EAECF4EADE01A35ABF4F01900D9266
S1133B208A95E1F780E8C551DF4F8883CB5ED040AA
S1133B3081E8C451DF4F8883CC5ED04082E8C35112
S1133B40DF4F8883CD5ED04086E0EEEDFCE9DE01F8
S1133B50A251BF4F01900D928A95E1F7E12CA6C0C6
S1133B600E2D10E0EBEEF0E0EC0FFD1FE00FF11F67
S1133B70D080BE016C507F4F8D2D0E948A18F82E84
S1133B8023E682131BC081EC8D0D1F928F93CE010F
S1133B9001969F938F938E0109561F4F1F930F9386
S1133BA00E94A92DB80186E391E00E9493070F902B
S1133BB00F900F900F900F900F907CC0CC50DF4F60
S1133BC088819981AA81BB81C45FD040AC01BD01C9
S1133BD0405B5740634F7F4F413A504F69417105F5
S1133BE000F181EC8D0D1F928F93CE01835A9F4F6C
S1133BF09F938F938E0109561F4F1F930F930E941B
S1133C00A92DB80186E391E00E9493070F900F90CD
S1133C100F900F900F900F900F2EF3E6FF2EF02DC4
S1133C2049C0C951DF4FB883C75ED040C851DF4F88
S1133C30A883C85ED040C751DF4F9883C95ED04087
S1133C40C651DF4F8883CA5ED040000F111FEEEECD
S1133C50F0E0EC0FFD1FE00FF11F1081718124E0F3
S1133C60AE0149515F4F612F80E50E944908F82E4B
S1133C7083E6F8121AC01F531F921F93CE01C296F7
S1133C809F938F938E0109561F4F1F930F930E948A
S1133C90A92DB80183E991E00E9493070F900F903A
S1133CA00F900F900F900F9005C0E394EE2009F44D
S1133CB057CFF12C8F2DC950DF4FCDBFDEBFDF9121
S1133CC0CF911F910F91FF90EF90DF9008958F9205
S1133CD09F92AF92BF92CF92DF92EF92FF920F9397
S1133CE01F93CF93DF93CDB7DEB7C559D109CDBFAD
S1133CF0DEBFA82EB22ECDB6DEB680E2E4E0F5EA51
S1133D00DE01119601900D928A95E1F785E2E4E2D5
S1133D10F5EADE01919601900D928A95E1F7822EE3
S1133D20912CC4010496740123E0E20EF11CADB79A
S1133D30BEB7A81BB90BADBFBEBF0DB71EB70F5F93
S1133D401F4FF80110923A2B81E08093392B119682
S1133D50AC92618360E00EC0862F90E09C012E5FE0
S1133D603F4FDA01A80FB91F8C91DF01A20FB31FD7
S1133D708C936F5F6B1580F3B2E08B0E911CB401D2
S1133D80C8010E947B16D801A80DB91D9C93F801A7
S1133D90EE0DFF1D808364E06B0DC8010E943F247B
S1133DA0109207281092082824C080910728909127
S1133DB0082885369105E0F081EC8A0D1F928F93D7
S1133DC0CE0101969F938F938E010A5B1F4F1F9321
S1133DD00F930E94A92DB80186E391E00E949307F6
S1133DE00F900F900F900F900F900F9083E62AC0C2
S1133DF0000090913A2B8091392B9817B0F2909152
S1133E003B2A9F3FF1F081EC8A0D1F929F931F92F2
S1133E108F93CE0181969F938F938E010A5B1F4FE0
S1133E201F930F930E94A92DB80186E391E00E948D
S1133E3093072DB73EB7285F3F4F2DBF3EBF83E6A4
S1133E4001C080E0CDBEDEBECB56DF4FCDBFDEBFAE
S1133E50DF91CF911F910F91FF90EF90DF90CF9062
S1133E60BF90AF909F908F900895EF92FF920F9321
S1133E701F93CF93DF93CDB7DEB7C358D109CDBF1E
S1133E80DEBF082F82E2E9E4F5EADE011196019033
S1133E900D928A95E1F7E4961FAEE497E5961FAE7E
S1133EA0E5979BE1E6969FAFE69785EAE7968FAFA5
S1133EB0E797E8961FAEE897E9961FAEE997EA966A
S1133EC09FAFEA97EB968FAFEB97EC961FAEEC970C
S1133ED0ED961FAEED978DE0EE968FAFEE9782EDE7
S1133EE0EF968FAFEF97C158DF4F7883CF57D0400D
S1133EF0C058DF4F6883C058D040CF57DF4F588336
S1133F00C158D040CE57DF4F4883C258D040CD5718
S1133F10DF4F1882C358D04021E1AE014D585F4FA6
S1133F2061E4802F0E94671E182F8336D9F40F5343
S1133F301F920F93CE0101969F938F937E0183E28C
S1133F40E80EF11CFF92EF920E94A92DB70186E3BF
S1133F5091E00E9493070F900F900F900F900F9095
S1133F600F9001C010E0812FCD57DF4FCDBFDEBFD2
S1133F70DF91CF911F910F91FF90EF900895EF92F1
S1133F80FF920F931F93CF93DF93CDB7DEB7CD5737
S1133F90D109CDBFDEBF082F89E2EBEDF5EADE01E2
S1133FA0119601900D928A95E1F7EB967FAFEB970E
S1133FB0EC966FAFEC97ED965FAFED97EE964FAF43
S1133FC0EE9724E0AE0146585F4F66E1802F0E94D1
S1133FD0671E182F8336D9F40F531F920F93CE0107
S1133FE001969F938F937E018AE2E80EF11CFF9263
S1133FF0EF920E94A92DB70186E391E00E949307F6
S11340000F900F900F900F900F900F9001C010E041
S1134010812FC358DF4FCDBFDEBFDF91CF911F91FA
S11340200F91FF90EF9008951F93CF93DF9300D0EB
S113403000D0CDB7DEB72AE684E091E0215080407D
S11340409040E1F700C010923A2A8BE08093392A1D
S113405010E80EC0BE016F5F7F4F812F0E94A01633
S113406049815A816B817C81812F0E94BF1F1F5F10
S1134070133880F380E02496CDBFDEBFDF91CF916B
S11340801F910895EF92FF920F931F93CF93DF93A5
S1134090CDB7DEB7C357D109CDBFDEBF082F82E24B
S11340A0EBEAF6EADE01AE5ABF4F01900D928A9513
S11340B0E1F762961FAE629721E0AE014F5A5F4F5F
S11340C060E0802F0E94671E182F8336D9F40F53A7
S11340D01F920F93CE018E5A9F4F9F938F938155BA
S11340E091097C019F938F930E94A92DB70186E3C8
S11340F091E00E9493070F900F900F900F900F90F4
S11341000F9001C010E0812FCD58DF4FCDBFDEBF2F
S1134110DF91CF911F910F91FF90EF900895CF926F
S1134120DF92EF92FF921F93CF93DF9300D000D0E2
S1134130CDB7DEB7E82EF12C84E38E9DF0018F9D80
S1134140F00D1124E35FF74D8181883561F028F487
S11341509FEB980F933060F024C0813610F18436C1
S113416070F08837F1F480E80E94422010E056C0D5
S11341701FE3180F19821A821B821C821AC01FE1C6
S1134180180FBE016F5F7F4F812F0E948A188336FC
S113419081F46DEC76EA85E391E00E94930713E6DF
S11341A03DC065EF76EA86E391E00E94930713E64B
S11341B035C084E38E9DF0018F9DF00D1124E35FE3
S11341C0F74D8281882339F124E32E9DC0012F9D70
S11341D0900D1124815F974D0E94292C9B01AC0105
S11341E0ABE1B1E00E948A2BC980DA80EB80FC80CD
S11341F0AB01BC014C0D5D1D6E1D7F1D812F0E9406
S1134200351F182F833649F463E177EA86E391E09A
S11342100E94930703C010E001C013E6812F249687
S1134220CDBFDEBFDF91CF911F91FF90EF90DF9064
S1134230CF9008951F93CF93DF9390E024E3289FBA
S1134240F001299FF00D1124E35FF74D21812437FC
S113425079F524E3289FE001299FD00D1124C15F43
S1134260D74DFE0101900020E9F73197EC1BFD0BBF
S1134270739741F068E577EA8AE592E00E94930734
S113428013E61DC0CE010E941207182F833639F49D
S11342906DE677EA8BE592E00E94930710C024E173
S11342A0AE0160E070E080E50E94490810E007C0BC
S11342B066E877EA89E592E00E94930713E6812F86
S11342C0DF91CF911F910895CF93DF9300D000D059
S11342D0CDB7DEB7833018F0833039F00BC0BE01A0
S11342E06F5F7F4F0E9447010DC0CE0101960E946F
S11342F05A0A08C080E090E8A6E2B4EC89839A8365
S1134300AB83BC8369817A818B819C8120E030E01E
S113431048E452EC0E943926882344F480E090E873
S1134320A6E2B4EC89839A83AB83BC8369817A81E6
S11343308B819C812496CDBFDEBFDF91CF91089500
S11343400F931F93CF93DF93CDB7DEB7C455D10935
S1134350CDBFDEBFBE016F5A7F4F80E80E948A182E
S1134360833671F485E2E0E9F7EADE011196019003
S11343700D928A95E1F7CE0101960E947F0320C039
S113438065968FAD65978F9364968FAD64978F9381
S113439063968FAD63978F9362968FAD62978F9379
S11343A085EB97EA9F938F938E010F5F1F4F1F93A7
S11343B00F930E94A92DC8010E947F03CDBFDEBFC9
S11343C0CC5ADF4FCDBFDEBFDF91CF911F910F914C
S11343D00895AC01E0E6F0E0948D9E7F88ED84BF03
S11343E0948F01C000009091630096FDFBCFE0E63E
S11343F0F0E0948D9B7F28ED24BF948F948D916081
S113440024BF948F01C00000909141019111FBCF12
S1134410E0E4F1E04287538782E08783858181600D
S1134420858381EB808382818160828308951F92DA
S11344300F920FB60F9211248F939F9381E0809374
S113444043018091162A9091172A01968093162A87
S11344509093172A80E28093A70480913A2A8F5F71
S113446080933A2A9F918F910F900FBE0F901F90C7
S1134470189525E03DE0AC01429FC001439F900D9B
S1134480529F900D1124E0E8FAE08487958781E03B
S11344908583808308951F920F920FB60F92112483
S11344A08F939F9381E08093860A80910328909153
S11344B00428019680930328909304288091072868
S11344C0909108280196809307289093082880915A
S11344D00128909102280196809301289093022844
S11344E08091052890910628019680930528909341
S11344F006289F918F910F900FBE0F901F901895D3
S1134500E0EAF8E08BE086838381816083838581A0
S113451081608583089510920528109206280FC0A3
S113452000008091052890910628C39740F06EEC16
S113453077EA81E991E00E9493078FEF08958091D3
S1134540A50888236CF7E0EAF8E084818B7F8483F4
S11345508085948192609483089510920528109226
S113456006280FC000008091052890910628C39763
S113457040F06FED77EA81E991E00E9493078FEFB5
S113458008958091A50888236CF7E0EAF8E0848117
S11345908460848380850895613039F490E0880FC5
S11345A0991F81608093A70803C0880F8093A70890
S11345B010920528109206280FC00000809105284B
S11345C090910628C39740F060EF77EA81E991E083
S11345D00E94930783E608958091A508807C69F37F
S11345E08091A50882FF08C062E078EA81E991E041
S11345F00E94930783E608958091A50883FF08C06D
S11346006AE078EA81E991E00E94930783E60895DD
S11346109091A508892F807194FF07C06AE178EA18
S113462081E991E00E94930783E6089587E08093EF
S1134630A4080895109205281092062810C00000BE
S113464020910528309106282333310540F062E398
S113465078EA81E991E00E94930783E608959091B6
S1134660A50896FFECCF8093A80810920528109215
S113467006280FC000008091052890910628C39752
S113468040F063E478EA81E991E00E94930783E6CD
S113469008958091A50886FFEDCF9091A508892FF4
S11346A0807194FF07C064E578EA81E991E00E9493
S11346B0930783E60895E0E0F4E081E08583818355
S11346C0E0E0F8E024E730E02087318795819068C6
S11346D095839681906496839681906896831092D0
S11346E0412F1092422F8093462F10923D2E10920C
S11346F03E2E10923F2D1092402E1092422EE0E456
S1134700F4E085838183E0E2F8E02DE635E020875C
S1134710318795819068958396819064968396817C
S113472090689683E0E2F4E085838183E0E6F8E034
S113473020873187968190649683968190689683CA
S113474080934E3110924A3008950F931F93CF9364
S1134750DF93EB01142F8130B1F120F0833009F4A1
S113476081C088C01092462F20E011C0E1E4FFE22E
S1134770808190E03881DC01AD5BB14D3C930196C2
S11347806EEF70E00E94512B80832F5F21962117DA
S113479068F3E0E0F8E08581806285831092032865
S11347A0109204280BC08091032890910428853628
S11347B0910520F081E08093462F5CC08091462FC4
S11347C0882389F357C0642F70E0CE010E947B16C2
S11347D0482F092F20E011C0EDE4F2E3808190E03E
S11347E03881DC01A15BBE4C3C9301966EEF70E016
S11347F00E94512B80832F5F2196211768F3EDE4EB
S1134800F2E3808190E0DC01A15BBE4C0C93019645
S11348102EEF30E0B9010E94512B90E0DC01A15B46
S1134820BE4C4C930196B9010E94512B80831E5FAC
S113483010934F32E0E2F8E08581806285831AC0EC
S1134840E9E4F1E3808190E03881DC01A55BBF4CB1
S11348503C9301966EEF70E00E94512B80832F5F92
S1134860219601C020E0211758F3E0E6F8E08581A5
S113487080628583DF91CF911F910F910895DC01B0
S113488010923A2C6093392C90E008C0E92FF0E0A4
S11348908C91E55CF44D80839F5F11969617B0F37D
S11348A0E0E2F8E085818062858308951F920F928B
S11348B00FB60F9211248F93AF93BF93EF93FF938F
S11348C0AAE3BBE2EC9181E08E0F8C93F0E080913F
S11348D02008E55CF54D8083FF91EF91BF91AF9186
S11348E08F910F900FBE0F901F9018951F920F92EB
S11348F00FB60F9211248F939F93AF93BF93CF93CF
S1134900DF93EF93FF93A0E2B8E015968C9115978F
S11349108F7D15968C931597CAE3DCE2E88181E0DC
S11349208E0F8883F0E0E55CF44D908112969C93A1
S11349309091392C891728F4E0E2F8E085818062AF
S11349408583FF91EF91DF91CF91BF91AF919F91BB
S11349508F910F900FBE0F901F9018951F920F927A
S11349600FB60F9211245F936F937F938F939F934E
S1134970AF93BF93EF93FF93909100088091402EE3
S11349808D3F10F59D3051F481E08093422EE091EB
S11349903D2EF0E0E15CF24D108206C0E0913D2E28
S11349A0F0E0E15CF24D9083E0E4FEE280818F5F11
S11349B08083EDE3FEE2808190E001966EEF70E08B
S11349C00E94512B80830AC010923D2E10923E2EDD
S11349D010923F2D1092402E1092422EFF91EF9193
S11349E0BF91AF919F918F917F916F915F910F9044
S11349F00FBE0F901F9018951F920F920FB60F9233
S1134A0011242F938F939F93EF93FF93E0E0F8E0AB
S1134A1085818F7D85838091412FE091422F8E1770
S1134A20D1F081E08E0F8093422FF0E0ED5BF14DE9
S1134A3090819093020891E08E3F08F490E0919564
S1134A40292F220F821B8093422FE0E0F8E085811A
S1134A508062858303C081E08093462FFF91EF91AC
S1134A609F918F912F910F900FBE0F901F901895CB
S1134A701F920F920FB60F9211248F939F93AF93AF
S1134A80BF93EF93FF93809160088D3021F0E09104
S1134A904930ED3F78F081E080934A30A9E4B0E3F7
S1134AA08C91E82FF0E0E95BF04D10828093473061
S1134AB01C9208C091E09E0F90934930F0E0E95BAE
S1134AC0F04D8083FF91EF91BF91AF919F918F91B2
S1134AD00F900FBE0F901F9018951F920F920FB654
S1134AE00F9211248F939F93AF93BF93EF93FF93F0
S1134AF0ADE4B1E3EC9181E08E0F8C93F0E0E55BE3
S1134B00FF4C90819093620890914B31891740F04B
S1134B10E0E6F8E085818F7D858381E080934E31E6
S1134B20FF91EF91BF91AF919F918F910F900FBE25
S1134B300F901F90189588ED84BF81E08093000149
S1134B4008951F920F920FB60F9211242F933F9343
S1134B504F935F936F937F938F939F93AF93BF9381
S1134B60EF93FF938091A90486FF05C080E48093AE
S1134B70A9040E949B25FF91EF91BF91AF919F9152
S1134B808F917F916F915F914F913F912F910F90F2
S1134B900FBE0F901F9018955058BB27AA270E944C
S1134BA0E4250C9428270E941A2738F00E94212714
S1134BB020F039F49F3F19F426F40C9417270EF4CF
S1134BC0E095E7FB0C941127E92F0E94392758F34D
S1134BD0BA17620773078407950720F079F4A6F5DE
S1134BE00C945B270EF4E0950B2EBA2FA02D0B012D
S1134BF0B90190010C01CA01A0011124FF27591B1E
S1134C0099F0593F50F4503E68F11A16F040A22F23
S1134C10232F342F4427585FF3CF46953795279594
S1134C20A795F0405395C9F77EF41F16BA0B620B93
S1134C30730B840BBAF09150A1F0FF0FBB1F661FDA
S1134C40771F881FC2F70EC0BA0F621F731F841F1D
S1134C5048F4879577956795B795F7959E3F08F043
S1134C60B0CF9395880F08F09927EE0F9795879505
S1134C7008950E94ED2608F481E008950E945226CA
S1134C800C9428270E94212758F00E941A2740F0EC
S1134C9029F45F3F29F00C94112751110C945C27DF
S1134CA00C9417270E94392768F39923B1F35523ED
S1134CB091F3951B550BBB27AA276217730784072B
S1134CC038F09F5F5F4F220F331F441FAA1FA9F3C1
S1134CD035D00E2E3AF0E0E832D091505040E695AF
S1134CE0001CCAF72BD0FE2F29D0660F771F881F10
S1134CF0BB1F261737074807AB07B0E809F0BB0B03
S1134D00802DBF01FF2793585F4F3AF09E3F510516
S1134D1078F00C9411270C945C275F3FE4F3983EE1
S1134D20D4F3869577956795B795F7959F5FC9F7FF
S1134D30880F911D9695879597F90895E1E0660F80
S1134D40771F881FBB1F621773078407BA0720F0F9
S1134D50621B730B840BBA0BEE1F88F7E095089562
S1134D60E89409C097FB3EF4909580957095619501
S1134D707F4F8F4F9F4F9923A9F0F92F96E9BB27B7
S1134D809395F695879577956795B795F111F8CF33
S1134D90FAF4BB0F11F460FF1BC06F5F7F4F8F4F9E
S1134DA09F4F16C0882311F096E911C0772321F094
S1134DB09EE8872F762F05C0662371F096E8862F2C
S1134DC070E060E02AF09A95660F771F881FDAF783
S1134DD0880F9695879597F90895990F0008550FB0
S1134DE0AA0BE0E8FEEF16161706E807F907C0F06D
S1134DF012161306E407F50798F0621B730B840B75
S1134E00950B39F40A2661F0232B242B252B21F44E
S1134E1008950A2609F4A140A6958FEF811D811DEE
S1134E20089597F99F6780E870E060E008959FEF28
S1134E3080EC089500240A9416161706180609062D
S1134E40089500240A9412161306140605060895FC
S1134E50092E0394000C11F4882352F0BB0F40F484
S1134E60BF2B11F460FF04C06F5F7F4F8F4F9F4FC4
S1134E70089557FD9058440F551F59F05F3F71F046
S1134E804795880F97FB991F61F09F3F79F08795AD
S1134E900895121613061406551FF2CF4695F1DF36
S1134EA008C0161617061806991FF1CF86957105C6
S1134EB0610508940895E894BB2766277727CB01FA
S1134EC097F908950E94ED2608F48FEF08950E9443
S1134ED07A270C9428270E941A2738F00E94212749
S1134EE020F0952311F00C9411270C94172711240A
S1134EF00C945C270E94392770F3959FC1F3950F9A
S1134F0050E0551F629FF001729FBB27F00DB11D49
S1134F10639FAA27F00DB11DAA1F649F6627B00DD9
S1134F20A11D661F829F2227B00DA11D621F739FC2
S1134F30B00DA11D621F839FA00D611D221F749FD0
S1134F403327A00D611D231F849F600D211D822F17
S1134F50762F6A2F11249F5750409AF0F1F088233E
S1134F604AF0EE0FFF1FBB1F661F771F881F91506B
S1134F705040A9F79E3F510580F00C9411270C94E2
S1134F805C275F3FE4F3983ED4F386957795679565
S1134F90B795F795E7959F5FC1F7FE2B880F911D95
S1134FA09695879597F90895A0E1B0E0EAEDF7E2C8
S1134FB00C94952B7C011B016A01FC01168217825B
S1134FC0838181FF44C39E012F5F3F4F3901F70165
S1134FD09381F10193FD859193FF81911F018823B2
S1134FE009F431C3853239F493FD859193FF81919E
S1134FF01F01853239F4B70190E00E946D2D5601EE
S11350006501E5CF10E0512C912CFFE1F915D8F0A2
S11350108B3279F038F4803279F08332A1F4F92DAF
S1135020F0612EC08D3261F0803369F4292D216046
S11350302DC0392D3260932E892D8460982E2AC07C
S1135040E92DE86015C097FC2DC020ED280F2A300B
S113505088F496FE06C03AE0139F200D1124122F07
S113506019C08AE0589E200D1124522EE92DE062C9
S11350709E2E10C08E3231F496FCE5C2F92DF064F8
S11350809F2E08C08C3621F4292D2068922E02C050
S1135090883641F4F10193FD859193FF81911F01BD
S11350A08111B3CF9BEB980F933020F4992D90612D
S11350B0805E07C09BE9980F933008F066C1992D74
S11350C09F7E96FF16E09F73992E853619F490649F
S11350D0992E08C0863621F4392F3068932E02C0E9
S11350E01111115097FE07C01C3350F4442443940B
S11350F0410E27E00BC0183038F027E017E005C058
S113510027E09CE3492E02C0212F412C560184E064
S1135110A80EB11CF6016081718182819381042DF6
S1135120A3010E94502C6C01F981FC87F0FF02C09E
S1135130F3FF06C091FC06C092FE06C000E205C063
S11351400DE203C00BE201C000E08C858C7019F005
S113515001115AC29BC297FE10C04C0CFC85F4FF8F
S113516004C08A81813309F44A94141474F528E044
S1135170241578F588E0482E2CC096FC2AC0812F8F
S113518090E08C159D059CF03CEFC3163FEFD306D1
S113519074F0892D8068982E0AC0E2E0F0E0EC0FEC
S11351A0FD1FE10FF11D8081803319F4115011119D
S11351B0F4CF97FE0EC044244394410E812F90E017
S11351C0C816D9062CF41C1904C04424439401C005
S11351D010E097FE06C01C141D0434F4C6010196A9
S11351E005C085E090E002C081E090E001110196E5
S11351F0112331F0212F30E02F5F3F4F820F931F97
S1135200252D30E08217930714F4581A01C0512C4D
S1135210892D897049F4552039F0B70180E290E076
S11352200E946D2D5A94F7CF002329F0B701802FE7
S113523090E00E946D2D93FC09C0552039F0B70110
S113524080E390E00E946D2D5A94F7CF97FE4CC0F6
S11352504601D7FE02C0812C912CC60188199909F8
S1135260F301E80FF91FED87FE8796012419310930
S11352702F87388B012F10E01195019511093FEF0D
S11352808316930629F4B7018EE290E00E946D2DF7
S1135290C814D9044CF08F8598898815990524F48D
S11352A0ED85FE85818101C080E3F1E08F1A9108CC
S11352B02D853E852F5F3F4F2D873E8780169106B3
S11352C02CF0B70190E00E946D2DD9CFC814D904F9
S11352D041F49A81963320F4953319F43C8534FFD4
S11352E081E3B70190E04EC08A81813319F09C8537
S11352F09F7E9C87B70190E00E946D2D111105C01F
S113530094FC18C085E690E017C0B7018EE290E0E7
S11353100E946D2D1E5F82E001E0080FF301E80F8B
S1135320F11D8081B70190E00E946D2D802F011343
S1135330F3CFE6CF85E490E0B7010E946D2DD7FC52
S113534006C0C114D10441F4EC85E4FF05C0D19436
S1135350C194D1088DE201C08BE2B70190E00E94B4
S11353606D2D80E32AE0C216D1042CF08F5FFAE0A1
S1135370CF1AD108F7CFB70190E00E946D2DB70185
S1135380C601C0960E946D2D54C1833631F0833717
S113539079F0833509F056C020C0560132E0A30EDF
S11353A0B11CF6018081898301E010E0630112C021
S11353B05601F2E0AF0EB11CF601C080D18096FE1A
S11353C003C0612F70E002C06FEF7FEFC6010E943F
S11353D0452D8C01F92DFF7714C0560122E0A20E51
S11353E0B11CF601C080D18096FE03C0612F70E02D
S11353F002C06FEF7FEFC6010E94282D8C01F92DAA
S1135400F0689F2EF3FD1AC0852D90E00817190748
S1135410A8F4B70180E290E00E946D2D5A94F4CF75
S1135420F60197FC859197FE81916F01B70190E099
S11354300E946D2D51105A94015011090115110546
S113544079F7F7C0843611F0893661F5560197FE75
S113545009C024E0A20EB11CF60160817181828131
S113546093810AC0F2E0AF0EB11CF6016081718134
S1135470072E000C880B990BF92DFF769F2E97FFB2
S113548009C090958095709561957F4F8F4F9F4F80
S1135490F0689F2E2AE030E0A3010E94CB2DC82E95
S11354A0C6183FC0092D853721F40F7E2AE030E06D
S11354B01DC0097F8F3691F018F4883559F0C3C0A8
S11354C0803719F0883711F0BEC0006104FF09C0AD
S11354D0046007C094FE08C0066006C028E030E0FF
S11354E005C020E130E002C020E132E0560107FFB0
S11354F009C084E0A80EB11CF6016081718182812B
S1135500938108C0F2E0AF0EB11CF6016081718195
S113551080E090E0A3010E94CB2DC82EC6180F771F
S1135520902E96FE0BC0092D0E7FC11650F494FEEA
S11355300AC092FC08C0092D0E7E05C0DC2C092D82
S113554003C0DC2C01C0D12E04FF0DC0FE01EC0D04
S1135550F11D8081803311F4097E09C002FF06C069
S1135560D394D39404C0802F867809F0D39403FD98
S113557011C000FF06C01C2DD51480F4150D1D1993
S11355800DC0D51458F4B70180E290E00E946D2D4F
S1135590D394F7CFD51410F45D1801C0512C04FF37
S11355A010C0B70180E390E00E946D2D02FF17C088
S11355B001FD03C088E790E002C088E590E0B701F0
S11355C00CC0802F867859F001FF02C08BE201C025
S11355D080E207FD8DE2B70190E00E946D2DC116B7
S11355E038F4B70180E390E00E946D2D1150F7CF9D
S11355F0CA94F301EC0DF11D8081B70190E00E9483
S11356006D2DC110F5CF15C0F4E0F51560F584E0FB
S1135610581A93FE1FC0011127C02C8523FF2AC0EE
S113562004E611E0392D3071932EF8018491811133
S113563024C0552009F4E4CCB70180E290E00E9434
S11356406D2D5A94F6CFF7018681978126C08FEF8E
S11356509FEF23C0B70180E290E00E946D2D5A9421
S11356605110F8CFD8CF512CB701802F90E00E9471
S11356706D2DD3CF08E611E0D5CF91108052B7013C
S113568090E00E946D2D0F5F1F4FCFCF23E02515B3
S113569010F483E0BDCF512CC0CF6096E2E10C94AE
S11356A0AE2B97FB072E16F4009407D077FD09D094
S11356B00E94C62B07FC05D03EF4909581959F4F20
S11356C00895709561957F4F0895052E97FB1EF4FC
S11356D000940E947C2B57FD07D00E94DA2B07FC14
S11356E003D04EF40C947C2B509540953095219525
S11356F03F4F4F4F5F4F08959095809570956195FA
S11357007F4F8F4F9F4F0895EE0FFF1F0590F49129
S1135710E02D09940E94FC2BA59F900DB49F900D41
S1135720A49F800D911D112408952F923F924F92B2
S11357305F926F927F928F929F92AF92BF92CF921D
S1135740DF92EF92FF920F931F93CF93DF93CDB726
S1135750DEB7CA1BDB0BCDBFDEBF09942A883988AC
S113576048885F846E847D848C849B84AA84B984F5
S1135770C884DF80EE80FD800C811B81AA81B98101
S1135780CE0FD11DCDBFDEBFED010895AA1BBB1BFB
S113579051E107C0AA1FBB1FA617B70710F0A61B2D
S11357A0B70B881F991F5A95A9F780959095BC014E
S11357B0CD010895A1E21A2EAA1BBB1BFD010DC049
S11357C0AA1FBB1FEE1FFF1FA217B307E407F507AD
S11357D020F0A21BB30BE40BF50B661F771F881F89
S11357E0991F1A9469F760957095809590959B011F
S11357F0AC01BD01CF010895A29FB001B39FC001C8
S1135800A39F700D811D1124911DB29F700D811DE8
S11358101124911D0895FC0188279927E89421916A
S11358202032E9F3293010F02E30C8F32B3241F046
S11358302D3239F4689404C00E94652D820F911DA5
S1135840219120532A30C0F31EF4909581959F4FE7
S113585008951F93FC0199278827BC01E8941191AE
S11358601032E9F3193010F01E30C8F31B3251F036
S11358701D3249F4689406C00E94502D610F711DB9
S1135880811D911D119110531A30B0F33EF490957F
S11358908095709561957F4F8F4F9F4F1F9108950D
S11358A0283008F027E03327DA01990F311D87FDEE
S11358B0916000966105710539F432602E5F3D9365
S11358C030E32A95E1F708959F3F30F08038710561
S11358D0610509F03C5F3C5F3D93913008F08068BE
S11358E0911DDF93CF931F930F93FF92EF92192F84
S11358F0987F9695E92F96959695E90FFF27EA5399
S1135900FE4F99273327EE24FF24A701E7010590D2
S11359100894079428F4360FE71EF81E491F511DFA
S1135920660F771F881F991F0694A1F705900794A7
S113593028F4E70EF81E491F561FC11D770F881F54
S1135940991F661F0694A1F70590079428F4F80E92
S1135950491F561FC71FD11D880F991F661F771F28
S11359600694A1F70590079420F4490F561FC71F0A
S1135970D81F990F661F771F881F0694A9F7849173
S11359801095177041F0D695C79557954795F7949C
S1135990E7941A95C1F7ECE6F1E068941590159137
S11359A035916591959105907FE27395E118F10A1F
S11359B0430B560BC90BD009C0F7E10CF11E431F72
S11359C0561FC91FD01D7EF4703311F48A95E6CF9B
S11359D0E894015030F0080F0AF40027021708F485
S11359E0202F2395022F7A3328F079E37D932A958B
S11359F0E9F710C07D932A9589F6069497956795E3
S1135A00379517951794E118F10A430B560BC90BF8
S1135A10D00998F023957E9173957A3308F070E35A
S1135A207C932013B8F77E9170617D9330F0839559
S1135A3071E37D9370E32A95E1F71124EF90FF90D1
S1135A400F911F91CF91DF91992787FD909508952C
S1135A50FC010590615070400110D8F78095909535
S1135A608E0F9F1F0895FB01DC010D900020E9F7C4
S1135A70119701900D920020E1F70895FB01DC01DC
S1135A8001900D920020E1F70895FC0161507040EF
S1135A9001900110D8F7809590958E0F9F1F08955F
S1135AA0592F482F372F262F660F771F881F991FCE
S1135AB0660F771F881F991F620F731F841F951F1E
S1135AC0660F771F881F991F08957AE0979F902D7E
S1135AD0879F802D910D112408950F931F93CF93C9
S1135AE0DF93FB01238121FD03C08FEF9FEF2CC0C7
S1135AF022FF16C0468157812481358142175307FE
S1135B0044F4A081B1819D012F5F3F4F20833183F5
S1135B108C93268137812F5F3F4F2683378314C0B0
S1135B208B01EC01FB010084F185E02D0995892BA3
S1135B30E1F6D80116968D919C91179701961696C9
S1135B408D939C931797CE01DF91CF911F910F9165
S1135B500895AEE0B0E0EFEAFDE20C94A32B0D89CA
S1135B601E8986E08C8309831A838FEF9FE78D83D8
S1135B709E83AE01475E5F4F6F89788DCE0101969B
S1135B800E94D427EF81F885E00FF11F10822E9632
S1135B90E4E00C94BC2BFA01AA27283051F12031FF
S1135BA081F1E8946F936E7F6E5F7F4F8F4F9F4FAD
S1135BB0AF4FB1E03ED0B4E03CD0670F781F891FEF
S1135BC09A1FA11D680F791F8A1F911DA11D6A0FBD
S1135BD0711D811D911DA11D20D009F468943F9170
S1135BE02AE0269F11243019305D3193DEF6CF016F
S1135BF00895462F4770405D4193B3E00FD0C9F735
S1135C00F6CF462F4F70405D4A3318F0495D31FDA1
S1135C104052419302D0A9F7EACFB4E0A6959795F4
S1135C20879577956795BA95C9F7009761057105CA
S1135C3008959B01AC010A2E069457954795379514
S1135C402795BA95C9F7620F731F841F951FA01D6E
S1135C50089560507C4E0C94642EDC01A40FB51F93
S1135C604150504048F0CB01840F951F2E910E9463
S1135C703E2E41505040D0F70895262F0E94602EAA
S1135C800080021619F00E94492E01970197089589
S1135C90262FAF93BF93E0E0F0E1328131FDFDCFD9
S1135CA0DC01A050BC4E2C932DE924BF23E02083BB
S1135CB00196BF91AF91089503D0808199270895EB
S1135CC0FC01E050FC4E0895FB01DC0102C0019090
S1115CD00D9241505040D8F70895F894FFCF3C
S1135CDE140018001C0024532564257300434D44FE
