S0100000737065634D6563682E73726563EC
S11300000C94D1000C94EE000C94EE000C94791234
S11300100C94EE000C94EE000C94EE000C94EE00A4
S11300200C94EE000C94EE000C94EE000C94EE0094
S11300300C94EE000C94EE000C94EE000C94EE0084
S11300400C94EE000C9443140C947D140C94EE0068
S11300500C94240D0C94EE000C94EE000C94EE0021
S11300600C94EE000C94EE000C94B4140C94E9146B
S11300700C94EE000C941C070C94EE000C94EE000F
S11300800C94EE000C94EE000C94EE000C94EE0034
S11300900C94EE000C9420150C9455150C94EE0061
S11300A06E616E00696E660000407A10F35A00A01B
S11300B0724E18090010A5D4E80000E8764817002D
S11300C000E40B54020000CA9A3B000000E1F5056D
S11300D0000080969800000040420F000000A086B7
S11300E001000000102700000000E80300000000E9
S11300F06400000000000A0000000000010000008D
S113010000002C76D888DC674F0823DFC1DFAE59A6
S1130110E1B1B796E5E3E453C63AE651997696E839
S1130120E6C28426EB898C9B62ED407C6FFCEFBCBD
S11301309C9F40F2BAA56FA5F490055A2AF75C93E8
S11301406B6CF9676DC11BFCE0E40D47FEF520E61E
S1130150B500D0ED902E0300943577050080841E01
S1130160080000204E0A000000C80C333333330F5C
S1130170986E12831141EF8D2114893BE65516CFF9
S1130180FEE6DB18D1844B381BF77C1D901DA4BB05
S1130190E424203284725E228100C9F124ECA1E5BA
S11301A03D2711241FBECFEFCDBFDFE3DEBF18E232
S11301B0A0E0B8E2E7E0FDE302C005900D92A230B2
S11301C0B107D9F720E3A2E0B8E201C01D92A8323A
S11301D0B207E1F70E949B070C94751D0C94000074
S11301E0CF92DF92EF92FF92CF938130C9F018F053
S11301F0823061F010C00F2EF3E3CF2EDC2CF3EF2E
S1130200EF2EF0E4FF2EF02DC1E00EC0C12CD12C56
S11302107601C0E109C0C12CD12C7601C0E004C034
S1130220C12CD12C7601C4E040E066E087E20E9454
S1130230C8074C2F409560E087E20E94C8074C2F06
S11302406AE087E20E94C80786E18A95F1F7000018
S113025020E840E768E088E40E94460120E030E0BE
S11302604AE754E40E94321723E333E948E853E4AD
S11302700E9497159B01AC01C701B6010E94981515
S1130280CF91FF90EF90DF90CF900895CF92DF92BF
S1130290EF92FF920F931F93CF93DF93D82FF62EF5
S11302A0462BC42FC168122F136060E00E942F13E5
S11302B0082F882369F00E945313602F70E080E0B8
S11302C090E00E947B16562F472F382F292FD0C03D
S11302D081E00E945713082F882369F00E9453136A
S11302E0602F70E080E090E00E947B16562F472F2D
S11302F0382F292FBDC08C2F0E945713C82F882355
S113030069F00E9453136C2F70E080E090E00E942B
S11303107B16562F472F382F292FAAC0812F0E94D2
S11303205713C82F882369F00E9453136C2F70E071
S113033080E090E00E947B16562F472F382F292FFC
S113034097C00E9453138CE18A95F1F7C1E009C06C
S113035061E08D2F0E942F130E94221388230CF436
S1130360C0E0C111F5CF0E94531360E08D2F0E94AD
S11303702F1380E00E94571361E08D2F0E942F13EA
S11303800E941213C82F0E942213D82F0E945313C5
S11303906C2F70E0762F66276D2B84E0F81649F1F8
S11303A08F1530F0FF20D9F182E0F81669F142C0D0
S11303B088E0F81609F442C08AE0F81621F086E0D5
S11303C0F81238C00BC00F2EF4E7CF2EF3E1DF2E66
S11303D0F3E0EF2EF7E3FF2EF02D3AC00F2EF4E7F3
S11303E0CF2EF3E1DF2EF3E0EF2EF8E3FF2EF02D16
S11303F02FC00F2EF2E1CF2EF3E1DF2EF3E8EF2E24
S1130400F8E3FF2EF02D24C00F2EF4E7CF2EF3E1F6
S1130410DF2EF3E0EF2EF9E3FF2EF02D19C00F2E9F
S1130420FEE2CF2EFDE9DF2EF4E4EF2EF9E3FF2EFA
S1130430F02D0EC0C12CD12C76010AC00F2EF1E78D
S1130440CF2EF3E1DF2EF3E8EF2EF7E3FF2EF02DAE
S1130450072E000C880B990B0E947D169B01AC01A2
S1130460C701B6010E943217562F472F382F292F64
S1130470652F742F832F922FDF91CF911F910F91AE
S1130480FF90EF90DF90CF900895E0E2F4E084E0F5
S113049085838183868308950F931F93CF93DF937E
S11304A0CDB7DEB7C451D140CDBFDEBF2BE0EEEEF9
S11304B0FAE7DE01119601900D922A95E1F7209159
S11304C0A80422FF03C022E030E002C021E030E0B3
S11304D09F938F933F932F93CE0101969F938F9376
S11304E08E01045F1F4F1F930F930E94B11CC8011C
S11304F00E946909F80101900020E9F73197AF01E2
S1130500401B510BB80180E00E94BD13F80101901B
S11305100020E9F73197AF01401B510BB80181E08E
S11305200E94BD13CDBFDEBFCC5EDE4FCDBFDEBFAC
S1130530DF91CF911F910F9108959FE9980F9A3100
S113054028F081548A3120F481E0089581E00895EF
S113055080E00895EF92FF921F93CF93DF93EC0115
S1130560E62EF12C84E38E9DF0018F9DF00D112475
S1130570ED5FF74D8FE380838183128213A604C05D
S1130580112309F475C021961881812F0E949D02C0
S11305908823B1F3219684E38E9DF0018F9DF00DA5
S11305A01124ED5FF74D108304C0112309F460C0DA
S11305B021961881812F0E949D028823B1F32196F0
S11305C084E38E9DF0018F9DF00D1124ED5FF74DB6
S11305D0118380E02AC0988191110CC094E39E9D00
S11305E0F0019F9DF00D1124ED5FF74DE80FF11D13
S11305F012823EC09B3361F494E39E9DF0019F9D63
S1130600F00D1124ED5FF74DE80FF11D12820FC0BC
S1130610219624E32E9DF0012F9DF00D1124ED5F12
S1130620F74DE80FF11D92838F5F8932A0F2219676
S113063080E01CC0988191110CC094E39E9DF00150
S11306409F9DF00D1124ED5FF74DE80FF11D13A6EA
S11306500FC0219624E32E9DF0012F9DF00D11244F
S1130660ED5FF74DE80FF11D93A78F5F893010F30D
S1130670DF91CF911F91FF90EF9008950F931F93F7
S1130680CF93DF93CDB7DEB76D97CDBFDEBF2EE33B
S113069030E029833A8321E230E02B833C838130AC
S11306A009F43FC018F08230B9F051C08E010B5FDD
S11306B01F4FBE016F5F7F4FC8010E94631CF8018A
S11306C001900020E9F73197AF01401B510BB801AD
S11306D080E00E94BD1350C08E010B5F1F4FC80104
S11306E00E94B209F80101900020E9F73197AF01A7
S11306F0401B510BB80180E00E94BD13BE016F5F27
S11307007F4FC8010E94631CF80101900020E9F7A3
S11307103197AF01401B510BB80180E00E94BD131B
S11307202BC08E010B5F1F4FBE016D5F7F4FC80151
S11307300E94631CF80101900020E9F73197AF0192
S1130740401B510BB80180E00E94BD1315C08E01FF
S11307500B5F1F4FBE016D5F7F4FC8010E94631C7A
S1130760F80101900020E9F73197AF01401B510BCC
S1130770B80180E00E94BD136D96CDBFDEBFDF914E
S1130780CF911F910F9108950F931F93CF93DF93F0
S1130790CDB7DEB7CF5FD109CDBFDEBF20E01AC031
S11307A004E11CE2F801808190E0FC01EC5EF44D70
S11307B03081E1E0F0E0EC0FFD1FE20FF11D30832A
S11307C001966FEF70E00E941C1BF80180833323B5
S11307D019F02F5F2E3F20F3E1E0F0E0EC0FFD1F56
S11307E0E20FF11D108280910028882329F189816C
S11307F0813299F49A81911110C08FEF91E00E9497
S11308004B1285E090E080930D2A90930E2A80E0AD
S11308100E943E031092002864C0813249F48A8108
S1130820882331F081E00E943E030E94831559C061
S113083081E00E943E0355C0CE0101960E944C0205
S11308408981811103C00E943E034BC0609102283C
S1130850CE0101960E94AA028091022824E3829F7D
S1130860F0011124ED5FF74D908121819F3681F0D5
S113087028F49235D1F0933631F025C0923769F0DF
S1130880933779F020C0822F0E94000C282F1CC0BF
S1130890822F0E94920C282F17C00E948E0D282FA1
S11308A013C00E94BE12282F0FC080E00E943E0396
S11308B08AE694E0E1E081509040E040E1F700C036
S11308C00E9483150EC022E08091022890E00196D8
S11308D06AE070E00E941C1B80930228822F0E9411
S11308E03E03C150DF4FCDBFDEBFDF91CF911F91DB
S11308F00F910895FB01708161815281448135819A
S113090026811F927F931F926F931F925F931F9272
S11309104F931F923F931F922F9329EF3AE73F93F0
S11309202F939F938F930E94B11C8DB79EB74096CF
S11309308DBF9EBF0895DC01FB01818990E0C097C3
S113094082959295907F9827807F982792899053DB
S1130950892B8C93868590E0C09782959295907FA1
S11309609827807F982797859053892B11968C938D
S11309701197838590E0C09782959295907F9827F0
S1130980807F982794859053892B12968C93129785
S113099081E013968C931397808590E0C09782959D
S11309A09295907F9827807F982791859053892BE3
S11309B014968C931497258130E0205331092295A5
S11309C03295307F3227207F322786818053282B2F
S11309D015962C931597228130E0205331092295E6
S11309E03295307F3227207F322783818053282B12
S11309F016962C930895EF92FF920F931F93CF9323
S1130A007B0160E00E942F13C82F882321F00E94ED
S1130A1053138C2F28C080E00E945713C82F8823BB
S1130A2021F00E9453138C2F1EC061E088E60E94BF
S1130A302F13C82F882369F00E9453138C2F13C0DF
S1130A4087010C0F111D0E941213F8018083CF5FE0
S1130A5001C0C0E0C630A0F30E942213F7018683D0
S1130A600E94531380E0CF911F910F91FF90EF905C
S1130A7008950F931F93CF93DF93CDB7DEB72797D6
S1130A80CDBFDEBF8C01BE016F5F7F4F88E60E9441
S1130A90FB04882349F092E1E9E1FBE7D8010190E6
S1130AA00D929A95E1F707C0BE016F5F7F4FC801B1
S1130AB00E947A0480E02796CDBFDEBFDF91CF91FC
S1130AC01F910F910895EF92FF920F931F93CF936D
S1130AD0DF938B0160E00E942F13C82F882321F03D
S1130AE00E9453138C2F22C080E00E945713C82FFA
S1130AF08823B1F00E9453138C2F18C078018FEF14
S1130B00E81AF80AF80180810E945713C82F882335
S1130B1021F00E9453138C2F09C0DF5F870101C0AD
S1130B20D0E0D73058F30E94531380E0DF91CF9187
S1130B301F910F91FF90EF900895CF93DF93CDB75E
S1130B40DEB72797CDBFDEBFBC01CE0101960E9460
S1130B509B04BE016F5F7F4F88E60E946305279662
S1130B60CDBFDEBFDF91CF91089545E150E06BE04A
S1130B7070E00E94311D08954BE050E060E070E0A9
S1130B800E94311D0895CF93DF93CDB7DEB76597EB
S1130B90CDBFDEBFCE0101960E94390545E150E08C
S1130BA06BE070E0CE0101960E94351D6596CDBFC5
S1130BB0DEBFDF91CF910895CF93DF93CDB7DEB73A
S1130BC02B97CDBFDEBF8BE0EBE2FBE7DE01119696
S1130BD001900D928A95E1F74BE050E060E070E0FF
S1130BE0CE0101960E94351D2B96CDBFDEBFDF914D
S1130BF0CF9108950E94C3050E94DC050895EF92E9
S1130C00FF920F931F93CF93DF93C82FE62EF72EF7
S1130C108A01D22F60E00E942F1381112BC08F2DE7
S1130C200E945713811126C08E2D0E9457138111E3
S1130C3021C061E08C2F0E942F1381111BC0C0E0E2
S1130C4008C07801EC0EF11C0E941213F701808396
S1130C50CF5F2C2F30E08D2F90E0019728173907B4
S1130C6084F3EC01C00FD11F0E94221388830E94D9
S1130C70531380E0DF91CF911F910F91FF90EF907C
S1130C800895EF92FF920F931F93CF93DF93F62E65
S1130C90172FEA01022F60E00E942F1381111CC05C
S1130CA0812F0E945713811117C08F2D0E94571353
S1130CB0811112C010E00BC07E018FEFE81AF80A10
S1130CC088810E945713811107C01F5FE701101725
S1130CD098F30E94531380E0DF91CF911F910F91FD
S1130CE0FF90EF9008958F929F92AF92BF92CF9210
S1130CF0DF92EF92FF92813059F018F0823079F050
S1130D0015C080E00E94F7124B015C0140E417C05B
S1130D1081E00E94F7124B015C0140E510C082E0C3
S1130D200E94F7124B015C0140E609C00F2E812C92
S1130D30912CF0EAAF2EF1E4BF2EF02D40E520E82F
S1130D4060E088E40E94460120E030E040EA50E49C
S1130D500E9409162AE037ED43E25EE30E949715EC
S1130D602FE539E24BEC5BE30E9409166B017C0131
S1130D7029EC3EE84DE05BE3C501B4010E94321763
S1130D809B01AC0162E27DEF86E89FE30E94971528
S1130D909B01AC01C701B6010E940916FF90EF90B8
S1130DA0DF90CF90BF90AF909F908F900895CF9396
S1130DB0DF93CDB7DEB72B97CDBFDEBF0E94560DB4
S1130DC08BE08093B6040E948B150E94EF120E9460
S1130DD095070E94450280E290E00E944B120E9417
S1130DE06C130E9407130E9437090E94450B80E090
S1130DF00E94FD0981E00E94FD090E94FA0580EE2F
S1130E0091E080930D2A90930E2ACE0101960E94C0
S1130E10BC0541E066E37BE781E00E94BD0A42E055
S1130E20BE016F5F7F4F81E00E94BD0A2B96CDBF4C
S1130E30DEBFDF91CF9108951F920F920FB60F92EC
S1130E4011242F933F934F935F936F937F938F93CB
S1130E509F93AF93BF93EF93FF938091A90486FF71
S1130E6005C080E48093A9040E948315FF91EF914B
S1130E70BF91AF919F918F917F916F915F914F91AE
S1130E803F912F910F900FBE0F901F901895CF9206
S1130E90DF92EF92FF92813021F0823079F540E3C6
S1130EA001C040E020E862E089E40E9446016B0151
S1130EB07C012DEC3CEC4CEC5EE30E940416882390
S1130EC014F120E030E040E050E4C701B6010E9494
S1130ED02D171816ECF029E739EE42E050E4C7016B
S1130EE0B6010E9432172EE633EA4BED50E40E941D
S1130EF09715562F472F382F292F0EC05AE949EF3F
S1130F0039E724EC09C05AE949EF39E724EC04C075
S1130F105AE949EF39E724EC652F742F832F922F78
S1130F20FF90EF90DF90CF900895E0EAF4E080E244
S1130F308583818308950E94D70678948091172C25
S1130F408823E1F31092172CE0E2F4E084E0858337
S1130F50A2ECB2EA1197F1F700C086830E94C403A1
S1130F60EDCFCF93DF93C82FD62F60E00E942F13CD
S1130F708D2F0E94571361E08C2F0E942F130E9423
S1130F802213C82F0E9453138C2FDF91CF91089501
S1130F901F93CF93DF93D62F142F60E00E942F135B
S1130FA0C82F882321F00E9453138C2F17C08D2F34
S1130FB00E945713C82F882321F00E9453138C2FAB
S1130FC00DC0812F0E945713C82F882321F00E943F
S1130FD053138C2F03C00E94531380E0DF91CF91F1
S1130FE01F910895CF92DF92EF92FF921F93CF93B8
S1130FF0DF9360E088E10E942F1385E00E9457137D
S113100061E088E10E942F130E941213C82F0E94EE
S11310102213D82F0E9453131C2F10716C2F6F7042
S113102070E080E090E00E947B1620E030E040E831
S113103051E40E9432176B017C016D2F70E080E057
S113104090E00E947B1620E030E040E85DE30E94DF
S113105032179B01AC01C701B6010E9498151123F8
S113106041F09B01AC0160E070E080E893E40E94F1
S11310709715DF91CF911F91FF90EF90DF90CF9064
S11310800895EF92FF920F931F93CF93DF93182F3E
S1131090F62EEA01022F60E00E942F1381111EC078
S11310A08F2D0E945713811119C061E0812F0E9476
S11310B02F13811113C011E009C07E018FEFE81ACC
S11310C0F80A0E94121388831F5FE7011017A8F320
S11310D00E94221388830E94531380E0DF91CF91F2
S11310E01F910F91FF90EF900895CF92DF92EF92AE
S11310F0FF920F931F93CF93DF93CDB7DEB726975D
S1131100CDBFDEBF6C017B018A018AE99FE3ACE1BC
S1131110B6ECFA0180839183A283B383FB018083BD
S11311209183A283B383F60180839183A283B383E3
S113113026E0AE014F5F5F4F61E08DE10E94410800
S1131140898190E0982F88272A81822BBC017723FC
S113115014F46D5F7F4F7595679575956795072EA8
S1131160000C880B990B0E947D1626E636E245E7B3
S11311705EE30E943217F601608371838283938356
S11311808B8190E0982F88272C81822BBC017723B8
S113119014F46D5F7F4F7595679575956795072E68
S11311A0000C880B990B0E947D1626E636E245E773
S11311B05EE30E943217F701608371838283938315
S11311C08D8190E0982F88272E81822BBC01772374
S11311D014F46D5F7F4F7595679575956795072E28
S11311E0000C880B990B0E947D1626E636E245E733
S11311F05EE30E943217F8016083718382839383D4
S113120080E02696CDBFDEBFDF91CF911F910F9175
S1131210FF90EF90DF90CF9008951F93CF93DF93CB
S1131220D62F142F60E00E942F13C82F882321F09B
S11312300E9453138C2F17C08D2F0E945713C82F51
S1131240882321F00E9453138C2F0DC0812F0E94FC
S11312505713C82F882321F00E9453138C2F03C0E7
S11312600E94531380E0DF91CF911F910895CF9393
S1131270DF931F92CDB7DEB740E46BE28DE10E94AD
S11312800D0921E0AE014F5F5F4F6BE28DE10E94DB
S1131290410808C021E0AE014F5F5F4F6BE28DE172
S11312A00E944108898186FDF5CF40EC6FE08DE115
S11312B00E940D0942E06BE28DE10E940D094DE3AD
S11312C06AE28DE10E940D0989810F90DF91CF912F
S11312D00895EF92FF920F931F93CF93DF93CDB7AF
S11312E0DEB72E97CDBFDEBF8C0188E0E7E4FBE7D5
S11312F0DE01119601900D928A95E1F7F8010190B3
S11313000020E9F731973E2F301B90E081E006C0C2
S1131310F801E80FF11D208192278F5F8317C0F336
S11313201F929F93CE0101969F938F937E0189E034
S1131330E80EF11CFF92EF920E94B11CB701C801A4
S11313400E94581C0F900F900F900F900F900F90C9
S11313502E96CDBFDEBFDF91CF911F910F91FF90ED
S1131360EF9008950F931F93CF93DF93CDB7DEB71C
S11313702897CDBFDEBF082F192F88E0EFE4FBE7E5
S1131380DE01119601900D928A95E1F78091A804EF
S113139082FF03C082E090E002C081E090E09F936E
S11313A08F93CE0101969F938F931F930F930E9467
S11313B0B11C802F912F0E9469090F900F900F90FC
S11313C00F900F900F902896CDBFDEBFDF91CF9185
S11313D01F910F910895CF93DF93D62FC42F60E010
S11313E00E942F138D2F0E9457138C2F0E94571386
S11313F00E945313DF91CF910895CF93E0E6F4E078
S113140090E496839183A1E4B3E01197F1F700008F
S11314109583811102C0CCE301C0CDE34AE260E0D0
S11314208C2F0E94EB0941E760E08C2F0E94EB09AE
S11314304CE560E48C2F0E94EB0948E260E08C2FBD
S11314400E94EB0948E060E08C2F0E94EB094AE21D
S113145060E08C2F0E94EB0949E760E08C2F0E942A
S1131460EB0945ED60E08C2F0E94EB0940E760E05A
S11314708C2F0E94EB0948E760E08C2F0E94EB0957
S113148048E060E08C2F0E94EB0946E060E08C2F7E
S11314900E94EB0942E760E08C2F0E94EB0940E0D8
S11314A060E48C2F0E94EB094AE260E08C2F0E94DA
S11314B0EB0949E760E08C2F0E94EB094AED60E0FC
S11314C08C2F0E94EB0940E060E08C2F0E94EB0916
S11314D04CED60E08C2F0E94EB0940E060E08C2F23
S11314E00E94EB0941E860E08C2F0E94EB094FE772
S11314F060E08C2F0E94EB0949ED60E08C2F0E9484
S1131500EB0941EF60E08C2F0E94EB094BED60E0AA
S11315108C2F0E94EB0940E460E08C2F0E94EB09C1
S113152048E760E08C2F0E94EB0948E260E08C2FD2
S11315300E94EB0941E060E08C2F0E94EB0940E837
S113154060E08C2F0E94EB094CE060E08C2F0E943D
S1131550EB09BAE624E081E0B15020408040E1F795
S113156000C010920B2A10920C2A85E090E0809320
S11315700D2A90930E2ACF910895EF92FF920F9324
S11315801F93CF93DF93CDB7DEB7E297CDBFDEBF16
S1131590142F91E1E7E5FBE7DE01929601900D92AD
S11315A09A95E1F7811102C00CE301C00DE3CE016D
S11315B001967C010E94631CF70101900020E9F769
S11315C03197EE19FF09719708F0198ABE016E5D13
S11315D07F4FCE0101960E94581C113039F440E827
S11315E060E0802F0E94EB0910E012C040EC60E044
S11315F0802F0E94EB09F8CFE1E0F0E0EC0FFD1F33
S1131600E10FF11D408160E4802F0E94EB091F5F10
S1131610103190F381E090E080930B2A90930C2A90
S1131620E296CDBFDEBFDF91CF911F910F91FF9066
S1131630EF9008951F93CF93DF93CDB7DEB76197F3
S1131640CDBFDEBF182F81E1E7E5FBE7DE01119690
S113165001900D928A95E1F741E0BE016F5F7F4FE3
S1131660812F0E94BD0A42E0BE016F5F7F4F812F30
S11316700E94BD0A10920B2A10920C2A6196CDBFCB
S1131680DEBFDF91CF911F91089540E060E084E2D6
S11316900E94C807811135C040E06AE084E20E94DC
S11316A0C80781112EC04EEF60E081E20E94C80796
S11316B0811127C040E061E081E20E94C8078111E6
S11316C020C04CEF62E081E20E94C807811119C07A
S11316D040E064E081E20E94C807811112C040E248
S11316E065E081E20E94C80781110BC04FE766E004
S11316F081E20E94C807811104C089E080937704C5
S113170080E00895CF92DF92EF92FF920F931F93A0
S1131710CF93DF936C018B017A01E90169E081E2E7
S11317200E94B107982F9295969596959370913053
S113173021F493E6F60190830FC0923021F49FE6E2
S1131740F601908309C0933021F494E7F601908365
S113175003C098E7F6019083982F96959695937019
S1131760913021F493E6F70190830FC0923021F475
S11317709FE6F701908309C0933021F494E7F701C1
S1131780908303C098E7F7019083982F92959F70F8
S11317909370913021F49FE6F80190830FC092304A
S11317A021F493E6F801908309C0933021F494E77F
S11317B0F801908303C098E7F801908381FF03C088
S11317C080E3888302C081E38883DF91CF911F91F6
S11317D00F91FF90EF90DF90CF900895CF93DF9318
S11317E0D82FC62F69E084E20E94B1078D2B482FC1
S11317F04C236AE084E20E94C807DF91CF910895E8
S1131800CF93DF93CDB7DEB76A97CDBFDEBF99E044
S1131810E0E8FBE7DE01119601900D929A95E1F75D
S11318208C3631F118F4823639F075C08237C1F143
S1131830833709F44DC06FC06AEE84E40E94EE0B56
S113184066EE88E80E94EE0B88E69BE79F938F93F1
S1131850CE0101969F938F9309969F938F930E9435
S1131860B11C0F900F900F900F900F900F9047C0E6
S11318706AEE84E40E94EE0B8DE69BE79F938F93C0
S1131880CE0101969F938F9309969F938F930E9405
S1131890B11C0F900F900F900F900F900F902FC0CE
S11318A066EE88E80E94EE0B82E79BE79F938F9396
S11318B0CE0101969F938F9309969F938F930E94D5
S11318C0B11C0F900F900F900F900F900F9017C0B6
S11318D06CEE82E20E94EE0B88E79BE79F938F9366
S11318E0CE0101969F938F9309969F938F930E94A5
S11318F0B11C0F900F900F900F900F900F9081E0FC
S11319000E941A0B41E0BE01665F7F4F81E00E9496
S1131910BD0A80E001C082E06A96CDBFDEBFDF91E0
S1131920CF910895CF93DF93CDB7DEB76997CDBF3D
S1131930DEBF98E0E9E8FBE7DE01119601900D9225
S11319409A95E1F78C3631F118F4823639F075C086
S11319508237C1F1833709F44DC06FC06EEA84E465
S11319600E94EE0B6EE688E80E94EE0B88E69BE789
S11319709F938F93CE0101969F938F9308969F9385
S11319808F930E94B11C0F900F900F900F900F90A7
S11319900F9047C06EEA84E40E94EE0B8DE69BE74D
S11319A09F938F93CE0101969F938F9308969F9355
S11319B08F930E94B11C0F900F900F900F900F9077
S11319C00F902FC06EE688E80E94EE0B82E79BE73B
S11319D09F938F93CE0101969F938F9308969F9325
S11319E08F930E94B11C0F900F900F900F900F9047
S11319F00F9017C06EEC82E20E94EE0B88E79BE723
S1131A009F938F93CE0101969F938F9308969F93F4
S1131A108F930E94B11C0F900F900F900F900F9016
S1131A200F9081E00E941A0B41E0BE01675F7F4F77
S1131A3081E00E94BD0A80E001C082E06996CDBFCA
S1131A40DEBFDF91CF9108951F920F920FB60F92D0
S1131A5011242F933F934F935F936F937F938F93AF
S1131A609F93AF93BF93EF93FF938091690488236F
S1131A7064F480E88093690468E081E20E94B1071D
S1131A8080930F2A84E080932704FF91EF91BF9104
S1131A90AF919F918F917F916F915F914F913F9102
S1131AA02F910F900FBE0F901F901895E0E0F4E077
S1131AB088E0808B818B828B838B848B858B868B58
S1131AC0878BE0E2F4E0808B818B828B838B848B29
S1131AD0858BE0E4F4E0808B818B828B838B848B19
S1131AE0858B868B878BE0E6F4E094E0908B918B7A
S1131AF0928B938B948B958B968B978BE0E8F4E089
S1131B00808B818B828B838BE0EAF4E0808B818BEA
S1131B10828B838B848B858B868B08952F923F9247
S1131B204F925F926F927F928F929F92AF92BF92E9
S1131B30CF92DF92EF92FF920F931F93CF93DF9395
S1131B40CDB7DEB7CD59D240CDBFDEBF92E4E8EDCC
S1131B50FBE7DE01AF5ABE4F01900D929A95E1F773
S1131B6090E2EAE1FCE7DE01AD56BE4F01900D9232
S1131B709A95E1F792E1EAE3FCE7DE01AD54BE4F4A
S1131B8001900D929A95E1F791E3ECE4FCE7DE0114
S1131B90AB53BE4F01900D929A95E1F793E1EDE7B7
S1131BA0FCE7DE01AA50BE4F01900D929A95E1F731
S1131BB093E1E0E9FCE7DE01A75FBD4F01900D92E0
S1131BC09A95E1F79DE1E3EAFCE7DE01A45EBD4FEF
S1131BD001900D929A95E1F799E2E0ECFCE7DE01C1
S1131BE0A75CBD4F01900D929A95E1F79DE0E9EE57
S1131BF0FCE7DE01AE59BD4F01900D929A95E1F7D5
S1131C0091E1E6EFFCE7DE01A159BD4F01900D9291
S1131C109A95E1F7082F10E084E3809FF001819FFB
S1131C20F00D1124ED5FF74D81818F3609F449C120
S1131C3030F4863509F49FC3853659F0EFC38437F1
S1131C4009F4CAC2863709F427C3803709F0E6C30A
S1131C5024C280E00E94F712F62EE72ED82EC92E59
S1131C6080E00E947306B62EA72E982E892E81E05E
S1131C700E94F712C057DD4F6883C059D240CF5637
S1131C80DD4F7883C159D240CE56DD4F8883C25987
S1131C90D240CD56DD4F9883C359D24081E00E9493
S1131CA07306CC56DD4F6883C459D240CB56DD4F02
S1131CB07883C559D240CA56DD4F8883C659D2406D
S1131CC0C956DD4F9883C759D24082E00E94F7126B
S1131CD0C856DD4F6883C859D240C756DD4F788354
S1131CE0C959D240C656DD4F8883CA59D240C55619
S1131CF0DD4F9883CB59D24082E00E947306762E42
S1131D00672E582E492E83E00E94F712C456DD4FE9
S1131D106883CC59D240C356DD4F7883CD59D24025
S1131D20382E292ECE018B5E9E4F0E94390524E366
S1131D30209FC001219F900D1124825D974D209119
S1131D40A80422FF03C022E030E002C021E030E01A
S1131D509F938F932F923F92C356DD4F8881CD5925
S1131D60D2408F93C456DD4F9881CC59D2409F9373
S1131D704F925F926F927F92C556DD4F8881CB5907
S1131D80D2408F93C656DD4F9881CA59D2409F9353
S1131D90C756DD4F8881C959D2408F93C856DD4F4D
S1131DA09881C859D2409F93C956DD4F8881C7593D
S1131DB0D2408F93CA56DD4F9881C659D2409F9323
S1131DC0CB56DD4F8881C559D2408F93CC56DD4F19
S1131DD09881C459D2409F93CD56DD4F8881C35911
S1131DE0D2408F93CE56DD4F9881C259D2409F93F3
S1131DF0CF56DD4F8881C159D2408F93C057DD4FF4
S1131E009881C059D2409F938F929F92AF92BF9274
S1131E10CF92DF92EF92FF92CE018B5E9E4F9F9303
S1131E208F933F932F93CC969F938F938E010F5F45
S1131E301F4F1F930F930E94B11CCDBFDEBFC8017B
S1131E400E946909F80101900020E9F73197AF0178
S1131E50401B510BB80180E00E94BD1341E061E9D1
S1131E607BE781E00E94BD0A26E636E646EE5FE3A4
S1131E706F2D7E2D8D2D9C2D0E9432178F929F9257
S1131E80AF92BF9220E030E040E052E40E94981507
S1131E909F938F937F936F93CF92DF92EF92FF92F2
S1131EA081EA9BE79F938F931F930F930E94B11C2A
S1131EB042E0B80181E00E94BD0ACDBFDEBF80E0F0
S1131EC0AEC2AE0148575D4FBE016C577D4FCE0187
S1131ED080589D4F0E947508CE018B5E9E4F0E94D4
S1131EE0390524E3209FC001219F900D1124825DB8
S1131EF0974DC857DD4F1881C858D240C757DD4F9A
S1131F000881C958D240C657DD4FF880CA58D2401C
S1131F10C557DD4FE880CB58D240CC57DD4FE88120
S1131F20C458D240CB57DD4FF881C558D240CA5768
S1131F30DD4FA881C658D240C957DD4FB881C75874
S1131F40D240C058DD4F4881C058D240CF57DD4FF2
S1131F505881C158D240CE57DD4F6881C258D24013
S1131F60CD57DD4F7881C358D2402091A80422FF79
S1131F7003C022E030E002C021E030E09F938F9361
S1131F80EF92FF920F931F93BF93AF93FF93EF933F
S1131F907F936F935F934F93CE018B5E9E4F9F937E
S1131FA08F933F932F9382589F4F9F938F938E01CC
S1131FB00F5F1F4F1F930F930E94B11CC8010E9413
S1131FC06909F80101900020E9F73197AF01401B3E
S1131FD0510BB80180E00E94BD1341E067EB7BE741
S1131FE081E00E94BD0AC557DD4F8881CB58D2409D
S1131FF08F93C657DD4F8881CA58D2408F93C757F5
S1132000DD4F8881C958D2408F93C857DD4F8881EE
S1132010C858D2408F93C957DD4F8881C758D240E2
S11320208F93CA57DD4F8881C658D2408F93CB57C0
S1132030DD4F8881C558D2408F93CC57DD4F8881BE
S1132040C458D2408F93CD57DD4F8881C358D240B6
S11320508F93CE57DD4F8881C258D2408F93CF578C
S1132060DD4F8881C158D2408F93C058DD4F88819D
S1132070C058D2408F93CE018D549E4F9F938F931F
S11320801F930F930E94B11CCDBFDEBF42E0B80185
S113209081E00E94BD0A80E0C2C1CE018B5E9E4FEA
S11320A00E9439059E0121573D4FAE0142575D4FB5
S11320B0BE0163577D4FCE0184579D4F0E94820B12
S11320C024E3209FC001219F900D1124825D974D30
S11320D0C157DD4F7881CF58D240C257DD4F688158
S11320E0CE58D240C357DD4F5881CD58D240C45743
S11320F0DD4F4881CC58D2402091A80422FF03C070
S113210022E030E002C021E030E09F938F931F92E1
S11321107F931F926F931F925F931F924F93CE01F1
S11321208B5E9E4F9F938F933F932F9380559F4F2A
S11321309F938F938E010F5F1F4F1F930F930E94E6
S1132140B11CC8010E946909F80101900020E9F757
S11321503197AF01401B510BB80180E00E94BD13C1
S1132160C257DD4F8881CE58D2401F928F93C357F8
S1132170DD4F8881CD58D2401F928F93CE018A5073
S11321809E4F9F938F931F930F930E94B11C41E026
S1132190B80181E00E94BD0AC157DD4F8881CF5844
S11321A0D2401F928F93C457DD4F8881CC58D240C0
S11321B01F928F93CE01875F9D4F9F938F931F93A1
S11321C00F930E94B11CCDBFDEBF42E0B80181E095
S11321D00E94BD0A80E023C1CE018B5E9E4F0E9407
S11321E0390524E1AE01475D5E4F60E070E080E5B3
S11321F00E94FF05CE01835C9E4F0E94B50524E337
S1132200209FC001219F900D1124825D974D209144
S1132210A80422FF03C022E030E002C021E030E045
S11322209F938F93CE01835C9E4F9F938F9344978C
S11322309F938F938E010B5E1E4F1F930F933F93BB
S11322402F938D509F4F9F938F938B5192407C017E
S11322509F938F930E94B11CC7010E946909F701E3
S113226001900020E9F73197AF014E195F09B701DA
S113227080E00E94BD1341E063EC7BE781E00E94B3
S1132280BD0AB801655F7F4F42E081E00E94BD0A4C
S1132290CDBFDEBF80E0C3C081E00E944707F62EB9
S11322A0E72ED82EC92E82E00E944707B62EA72E0D
S11322B0982E892ECE018B5E9E4F0E94390524E311
S11322C0209FC001219F900D1124825D974D209184
S11322D0A80422FF03C022E030E002C021E030E085
S11322E09F938F938F929F92AF92BF92CF92DF92E0
S11322F0EF92FF92CE018B5E9E4F9F938F933F93FD
S11323002F938C5D9E4F9F938F938E010F5F1F4F72
S11323101F930F930E94B11CC8010E946909F80120
S113232001900020E9F73197AF01401B510BB80130
S113233080E00E94BD1341E068EC7BE781E00E94ED
S1132340BD0A8F929F92AF92BF92CF92DF92EF928B
S1132350FF92CE018E599D4F9F938F931F930F939E
S11323600E94B11C42E0B80181E00E94BD0ACDBFC9
S1132370DEBF80E054C0CE01865F9E4F0E94BC0544
S1132380CE018B5E9E4F0E94390524E3209FC0013D
S1132390219F900D1124825D974D2091A80422FF66
S11323A003C022E030E002C021E030E09F938F932D
S11323B0CE01865F9E4F9F938F930B969F938F932F
S11323C03F932F93865A9E4F9F938F938E010F5F57
S11323D01F4F1F930F930E94B11CC8010E946909EB
S11323E0F80101900020E9F73197AF01401B510B30
S11323F0B80180E00E94BD1341E066E37BE781E021
S11324000E94BD0AC8010E94BC0542E0B80181E0F7
S11324100E94BD0ACDBFDEBF80E001C082E0C3568A
S1132420DD4FCDBFDEBFDF91CF911F910F91FF90A4
S1132430EF90DF90CF90BF90AF909F908F907F9060
S11324406F905F904F903F902F900895DC0140E093
S113245050E080E090E01BC0FD01E40FF51F2081F7
S113246030E0322F22278227932720E00CC09923C3
S11324703CF4880F991F31E2832730E1932702C08F
S1132480880F991F2F5F283090F34F5F5F4F4617D7
S1132490570710F30895AC01E0E6F0E0948D9E7FB9
S11324A088ED84BF948F01C000009091630096FD75
S11324B0FBCFE0E6F0E0948D9B7F28ED24BF948F62
S11324C0948D916024BF948F01C0000090914101CC
S11324D09111FBCFE0E4F1E04287538782E08783E8
S11324E085818160858381EB8083828181608283A1
S11324F008951F920F920FB60F9211242F933F93BA
S11325004F935F936F937F938F939F93AF93BF93F7
S1132510EF93FF9381E08093430180910B2A909184
S11325200C2A0097B9F020910D2A30910E2A281711
S1132530390758F480E00E941A0B81E00E941A0BBC
S113254010920B2A10920C2A05C0019680930B2A34
S113255090930C2A80E28093A704FF91EF91BF919E
S1132560AF919F918F917F916F915F914F913F9127
S11325702F910F900FBE0F901F901895CF93DF935C
S113258090E024E3289FF001299FF00D1124ED5FD2
S1132590F74D21812437E9F424E3289FE001299FA2
S11325A0D00D1124CB5FD74DFE0101900020E9F737
S11325B03197EC1BFD0B739771F4CE010E949D05BE
S11325C024E1AE0160E070E080E50E94410680E015
S11325D003C082E001C082E0DF91CF910895E0EA78
S11325E0F4E08289877F828B84E08283089583303C
S11325F018F0833021F006C00E94F00008950E9474
S1132600F20708956AE979EF89E794EC0895E0EA1E
S1132610F8E08BE086838381816083838581816098
S11326208583089501C000008091A5088823DCF704
S1132630E0EAF8E084818B7F8483808594819260D2
S11326409483089501C000008091A5088823DCF7D5
S1132650E0EAF8E0848184608483808508956130B1
S113266029F490E0880F991F816001C0880F80933E
S1132670A70801C000008091A508807CD9F380914F
S1132680A50882FD0CC08091A50883FD0AC0909125
S1132690A508892F807194FF05C084E0089581E026
S11326A0089582E0089587E08093A408089501C006
S11326B000009091A50896FFFBCF8093A80801C065
S11326C000008091A50886FFFBCF9091A508892F73
S11326D0807194FD83E00895E0E0F4E081E0858377
S11326E08183E0E0F8E02DE635E0208731879581AD
S11326F0906895839681906496839681906896837A
S11327001092172D1092182D80931B2D1092132CBC
S11327101092142C1092142B1092172CE0E4F4E075
S113272085838183E0E2F8E0208731879681906495
S11327309683968190689683109223301092243069
S11327408093273010920F2B1092102B1092102A86
S11327501092132BE0E2F4E085838183E0E6F8E055
S113276020873187968190649683968190689683BA
S11327708093232F10921F2E08950F931F93CF93AE
S1132780DF93EB01142F813001F1B0F0833009F4B1
S11327906DC074C0E7E1FDE2808190E03881DC0126
S11327A0A85EB34D3C9301966FEF70E00E941C1B32
S11327B080832F5F219601C020E0211758F3E0E0C9
S11327C0F8E085818062858359C0642F70E0CE0172
S11327D00E942612482F092F20E011C0E3E2F0E303
S11327E0808190E03881DC01AC5DB04D3C93019672
S11327F06FEF70E00E941C1B80832F5F21962117CE
S113280068F3E3E2F0E3808190E0DC01AC5DB04D7D
S11328100C9301962FEF30E0B9010E941C1B90E04D
S1132820DC01AC5DB04D4C930196B9010E941C1BB8
S113283080831E5F1093253010922630E0E2F8E08A
S11328408581806285831AC0EFE1FFE2808190E098
S11328503881DC01A05EB14D3C9301966FEF70E0CE
S11328600E941C1B80832F5F219601C020E021174A
S113287058F3E0E6F8E0858180628583DF91CF91AB
S11328801F910F9108951F920F920FB60F9211246A
S11328905F936F937F938F939F93AF93BF93EF93C4
S11328A0FF93809100088D3051F481E08093172CC0
S11328B0E091132CF0E0EC5EF44D108206C0E09140
S11328C0132CF0E0EC5EF44D8083E3E1FCE28081C4
S11328D090E001966FEF70E00E941C1B8083FF91D3
S11328E0EF91BF91AF919F918F917F916F915F9184
S11328F00F900FBE0F901F9018951F920F920FB656
S11329000F9211248F939F93EF93FF93E0E0F8E0ED
S113291085818F7D85838091172DE091182D8E17E9
S1132920B9F091E09E0F9093182DF0E0E85EF34D1E
S113293080818093020881E09F3F08F480E0890F42
S11329408093182DE0E0F8E085818062858303C0E0
S113295081E080931B2DFF91EF919F918F910F90B8
S11329600FBE0F901F9018951F920F920FB60F92E3
S113297011248F939F93AF93BF93EF93FF93809111
S113298020088D3021F0E091122BEE3F78F081E0A9
S11329908093132BA2E1BBE28C91E82FF0E0E05F7F
S11329A0F54D10828093112B1C9208C091E09E0F6C
S11329B09093122BF0E0E05FF54D8083FF91EF914F
S11329C0BF91AF919F918F910F900FBE0F901F9069
S11329D018951F920F920FB60F9211248F939F9305
S11329E0EF93FF93E0E2F8E085818F7D858380910A
S11329F02330E09124308E17B9F091E09E0F90932C
S1132A002430F0E0EC5DF04D80818093220881E079
S1132A109F3F08F480E0890F80932430E0E2F8E0DF
S1132A2085818062858303C081E080932730FF9194
S1132A30EF919F918F910F900FBE0F901F9018955B
S1132A401F920F920FB60F9211248F939F93AF93FF
S1132A50BF93EF93FF93809160088D3021F0E09154
S1132A601E2EEE3F78F081E080931F2EAEE1BEE291
S1132A708C91E82FF0E0E45EF24D108280931D2EDD
S1132A801C9208C091E09E0F90931E2EF0E0E45E2D
S1132A90F24D8083FF91EF91BF91AF919F918F9100
S1132AA00F900FBE0F901F9018951F920F920FB6A4
S1132AB00F9211248F939F93AF93BF93EF93FF9340
S1132AC0A2E2BFE2EC9181E08E0F8C93F0E0E05E35
S1132AD0F14D9081909362089091212F891740F0D5
S1132AE0E0E6F8E085818F7D858381E08093232F64
S1132AF0FF91EF91BF91AF919F918F910F900FBE76
S1132B000F901F9018950E948B1588ED84BF81E06B
S1132B10809300010895E0E4F4E088E086838183F3
S1132B20ADE8B0E21197F1F700008583089550589D
S1132B30BB27AA270E94AF150C94F3160E94E51632
S1132B4038F00E94EC1620F039F49F3F19F426F473
S1132B500C94E2160EF4E095E7FB0C94DC16E92FD6
S1132B600E94041758F3BA1762077307840795077E
S1132B7020F079F4A6F50C9426170EF4E0950B2EAC
S1132B80BA2FA02D0B01B90190010C01CA01A001BB
S1132B901124FF27591B99F0593F50F4503E68F116
S1132BA01A16F040A22F232F342F4427585FF3CF57
S1132BB0469537952795A795F0405395C9F77EF428
S1132BC01F16BA0B620B730B840BBAF09150A1F071
S1132BD0FF0FBB1F661F771F881FC2F70EC0BA0FF7
S1132BE0621F731F841F48F4879577956795B7957F
S1132BF0F7959E3F08F0B0CF9395880F08F099277A
S1132C00EE0F9795879508950E94B81608F481E011
S1132C1008950E941D160C94F3160E94EC1658F0A9
S1132C200E94E51640F029F45F3F29F00C94DC166D
S1132C3051110C9427170C94E2160E94041768F3A0
S1132C409923B1F3552391F3951B550BBB27AA2761
S1132C5062177307840738F09F5F5F4F220F331F9B
S1132C60441FAA1FA9F335D00E2E3AF0E0E832D063
S1132C7091505040E695001CCAF72BD0FE2F29D066
S1132C80660F771F881FBB1F261737074807AB0738
S1132C90B0E809F0BB0B802DBF01FF2793585F4FAD
S1132CA03AF09E3F510578F00C94DC160C942717EB
S1132CB05F3FE4F3983ED4F3869577956795B7958F
S1132CC0F7959F5FC9F7880F911D9695879597F99A
S1132CD00895E1E0660F771F881FBB1F6217730713
S1132CE08407BA0720F0621B730B840BBA0BEE1F28
S1132CF088F7E0950895E89409C097FB3EF4909511
S1132D008095709561957F4F8F4F9F4F9923A9F0C0
S1132D10F92F96E9BB279395F6958795779567954F
S1132D20B795F111F8CFFAF4BB0F11F460FF1BC093
S1132D306F5F7F4F8F4F9F4F16C0882311F096E926
S1132D4011C0772321F09EE8872F762F05C06623D4
S1132D5071F096E8862F70E060E02AF09A95660F8D
S1132D60771F881FDAF7880F9695879597F9089546
S1132D70990F0008550FAA0BE0E8FEEF1616170688
S1132D80E807F907C0F012161306E407F50798F0F0
S1132D90621B730B840B950B39F40A2661F0232B09
S1132DA0242B252B21F408950A2609F4A140A69585
S1132DB08FEF811D811D089597F99F6780E870E06A
S1132DC060E008959FEF80EC089500240A9416169D
S1132DD0170618060906089500240A941216130605
S1132DE0140605060895092E0394000C11F4882393
S1132DF052F0BB0F40F4BF2B11F460FF04C06F5FAF
S1132E007F4F8F4F9F4F089557FD9058440F551F84
S1132E1059F05F3F71F04795880F97FB991F61F058
S1132E209F3F79F087950895121613061406551FCF
S1132E30F2CF4695F1DF08C0161617061806991F3B
S1132E40F1CF86957105610508940895E894BB2730
S1132E5066277727CB0197F908950E94B81608F4DE
S1132E608FEF08950E9445170C94F3160E94E516FF
S1132E7038F00E94EC1620F0952311F00C94DC1627
S1132E800C94E21611240C9427170E94041770F373
S1132E90959FC1F3950F50E0551F629FF001729FFB
S1132EA0BB27F00DB11D639FAA27F00DB11DAA1F0A
S1132EB0649F6627B00DA11D661F829F2227B00D57
S1132EC0A11D621F739FB00DA11D621F839FA00DE2
S1132ED0611D221F749F3327A00D611D231F849F32
S1132EE0600D211D822F762F6A2F11249F57504089
S1132EF09AF0F1F088234AF0EE0FFF1FBB1F661F04
S1132F00771F881F91505040A9F79E3F510580F0CC
S1132F100C94DC160C9427175F3FE4F3983ED4F32B
S1132F20869577956795B795F795E7959F5FC1F770
S1132F30FE2B880F911D9695879597F90895A0E12A
S1132F40B0E0E5EAF7E10C94301B7C011B016A0157
S1132F50FC0116821782838181FF44C39E012F5F87
S1132F603F4F3901F7019381F10193FD859193FF5F
S1132F7081911F01882309F431C3853239F493FD0B
S1132F80859193FF81911F01853239F4B70190E057
S1132F900E94751C56016501E5CF10E0512C912C5F
S1132FA0FFE1F915D8F08B3279F038F4803279F0FA
S1132FB08332A1F4F92DF0612EC08D3261F080339B
S1132FC069F4292D21602DC0392D3260932E892D6D
S1132FD08460982E2AC0E92DE86015C097FC2DC0A6
S1132FE020ED280F2A3088F496FE06C03AE0139F9D
S1132FF0200D1124122F19C08AE0589E200D11248F
S1133000522EE92DE0629E2E10C08E3231F496FCD1
S1133010E5C2F92DF0649F2E08C08C3621F4292DC9
S11330202068922E02C0883641F4F10193FD859107
S113303093FF81911F018111B3CF9BEB980F9330C4
S113304020F4992D9061805E07C09BE9980F93301E
S113305008F066C1992D9F7E96FF16E09F73992E06
S1133060853619F49064992E08C0863621F4392FD8
S11330703068932E02C01111115097FE07C01C3303
S113308050F444244394410E27E00BC0183038F028
S113309027E017E005C027E09CE3492E02C0212F5A
S11330A0412C560184E0A80EB11CF60160817181A7
S11330B082819381042DA3010E94751B6C01F98107
S11330C0FC87F0FF02C0F3FF06C091FC06C092FE2D
S11330D006C000E205C00DE203C00BE201C000E03F
S11330E08C858C7019F001115AC29BC297FE10C0D6
S11330F04C0CFC85F4FF04C08A81813309F44A94A2
S1133100141474F528E0241578F588E0482E2CC0B2
S113311096FC2AC0812F90E08C159D059CF03CEF15
S1133120C3163FEFD30674F0892D8068982E0AC029
S1133130E2E0F0E0EC0FFD1FE10FF11D8081803330
S113314019F411501111F4CF97FE0EC04424439486
S1133150410E812F90E0C816D9062CF41C1904C026
S11331604424439401C010E097FE06C01C141D04BF
S113317034F4C601019605C085E090E002C081E008
S113318090E001110196112331F0212F30E02F5FDF
S11331903F4F820F931F252D30E08217930714F4BD
S11331A0581A01C0512C892D897049F4552039F0E1
S11331B0B70180E290E00E94751C5A94F7CF002377
S11331C029F0B701802F90E00E94751C93FC09C080
S11331D0552039F0B70180E390E00E94751C5A94A1
S11331E0F7CF97FE4CC04601D7FE02C0812C912C2C
S11331F0C60188199909F301E80FF91FED87FE87C5
S11332009601241931092F87388B012F10E011956D
S1133210019511093FEF8316930629F4B7018EE255
S113322090E00E94751CC814D9044CF08F859889CD
S11332308815990524F4ED85FE85818101C080E31C
S1133240F1E08F1A91082D853E852F5F3F4F2D8722
S11332503E87801691062CF0B70190E00E94751C01
S1133260D9CFC814D90441F49A81963320F4953304
S113327019F43C8534FF81E3B70190E04EC08A81A4
S1133280813319F09C859F7E9C87B70190E00E9452
S1133290751C111105C094FC18C085E690E017C098
S11332A0B7018EE290E00E94751C1E5F82E001E08F
S11332B0080FF301E80FF11D8081B70190E00E942F
S11332C0751C802F0113F3CFE6CF85E490E0B7019E
S11332D00E94751CD7FC06C0C114D10441F4EC85CE
S11332E0E4FF05C0D194C194D1088DE201C08BE202
S11332F0B70190E00E94751C80E32AE0C216D10455
S11333002CF08F5FFAE0CF1AD108F7CFB70190E025
S11333100E94751CB701C601C0960E94751C54C159
S1133320833631F0833779F0833509F056C020C0F5
S1133330560132E0A30EB11CF6018081898301E0BD
S113334010E0630112C05601F2E0AF0EB11CF601A9
S1133350C080D18096FE03C0612F70E002C06FEF81
S11333607FEFC6010E946A1C8C01F92DFF7714C0FF
S1133370560122E0A20EB11CF601C080D18096FE57
S113338003C0612F70E002C06FEF7FEFC6010E949F
S11333904D1C8C01F92DF0689F2EF3FD1AC0852D6C
S11333A090E008171907A8F4B70180E290E00E94A2
S11333B0751C5A94F4CFF60197FC859197FE819180
S11333C06F01B70190E00E94751C51105A9401508E
S11333D011090115110579F7F7C0843611F0893602
S11333E061F5560197FE09C024E0A20EB11CF60156
S11333F060817181828193810AC0F2E0AF0EB11CB9
S1133400F60160817181072E000C880B990BF92D50
S1133410FF769F2E97FF09C09095809570956195D2
S11334207F4F8F4F9F4FF0689F2E2AE030E0A3011B
S11334300E94D31CC82EC6183FC0092D853721F41D
S11334400F7E2AE030E01DC0097F8F3691F018F41A
S1133450883559F0C3C0803719F0883711F0BEC0E1
S1133460006104FF09C0046007C094FE08C0066040
S113347006C028E030E005C020E130E002C020E1D1
S113348032E0560107FF09C084E0A80EB11CF60122
S1133490608171818281938108C0F2E0AF0EB11C1A
S11334A0F6016081718180E090E0A3010E94D31C49
S11334B0C82EC6180F77902E96FE0BC0092D0E7FCE
S11334C0C11650F494FE0AC092FC08C0092D0E7E69
S11334D005C0DC2C092D03C0DC2C01C0D12E04FF57
S11334E00DC0FE01EC0DF11D8081803311F4097EC5
S11334F009C002FF06C0D394D39404C0802F8678F9
S113350009F0D39403FD11C000FF06C01C2DD5148F
S113351080F4150D1D190DC0D51458F4B70180E2BF
S113352090E00E94751CD394F7CFD51410F45D1865
S113353001C0512C04FF10C0B70180E390E00E9449
S1133540751C02FF17C001FD03C088E790E002C0AC
S113355088E590E0B7010CC0802F867859F001FF10
S113356002C08BE201C080E207FD8DE2B70190E06A
S11335700E94751CC11638F4B70180E390E00E94E4
S1133580751C1150F7CFCA94F301EC0DF11D808125
S1133590B70190E00E94751CC110F5CF15C0F4E08E
S11335A0F51560F584E0581A93FE1FC0011127C079
S11335B02C8523FF2AC000EA10E0392D3071932EA8
S11335C0F8018491811124C0552009F4E4CCB70199
S11335D080E290E00E94751C5A94F6CFF701868130
S11335E0978126C08FEF9FEF23C0B70180E290E060
S11335F00E94751C5A945110F8CFD8CF512CB701A2
S1133600802F90E00E94751CD3CF04EA10E0D5CF40
S113361091108052B70190E00E94751C0F5F1F4FFC
S1133620CFCF23E0251510F483E0BDCF512CC0CFBC
S11336306096E2E10C94491B97FB072E16F4009464
S113364007D077FD09D00E94611B07FC05D03EF42A
S1133650909581959F4F0895709561957F4F08953A
S11336602F923F924F925F926F927F928F929F928E
S1133670AF92BF92CF92DF92EF92FF920F931F937C
S1133680CF93DF93CDB7DEB7CA1BDB0BCDBFDEBF55
S113369009942A88398848885F846E847D848C8460
S11336A09B84AA84B984C884DF80EE80FD800C8169
S11336B01B81AA81B981CE0FD11DCDBFDEBFED0123
S11336C00895AA1BBB1B51E107C0AA1FBB1FA61765
S11336D0B70710F0A61BB70B881F991F5A95A9F7B7
S11336E080959095BC01CD010895283008F027E01D
S11336F03327DA01990F311D87FD9160009661052A
S1133700710539F432602E5F3D9330E32A95E1F779
S113371008959F3F30F080387105610509F03C5FE2
S11337203C5F3D93913008F08068911DDF93CF9307
S11337301F930F93FF92EF92192F987F9695E92F7D
S113374096959695E90FFF27EE5FFE4F992733274D
S1133750EE24FF24A701E70105900894079428F4B8
S1133760360FE71EF81E491F511D660F771F881F6D
S1133770991F0694A1F70590079428F4E70EF81E04
S1133780491F561FC11D770F881F991F661F069476
S1133790A1F70590079428F4F80E491F561FC71F78
S11337A0D11D880F991F661F771F0694A1F70590F6
S11337B0079420F4490F561FC71FD81F990F661F7F
S11337C0771F881F0694A9F784911095177041F00C
S11337D0D695C79557954795F794E7941A95C1F7E9
S11337E0E8EAF0E06894159015913591659195910A
S11337F005907FE27395E118F10A430B560BC90B50
S1133800D009C0F7E10CF11E431F561FC91FD01D7C
S11338107EF4703311F48A95E6CFE894015030F0C9
S1133820080F0AF40027021708F4202F2395022F0B
S11338307A3328F079E37D932A95E9F710C07D93D4
S11338402A9589F606949795679537951795179451
S1133850E118F10A430B560BC90BD00998F02395D4
S11338607E9173957A3308F070E37C932013B8F754
S11338707E9170617D9330F0839571E37D9370E365
S11338802A95E1F71124EF90FF900F911F91CF91AA
S1133890DF91992787FD90950895FC01059061506B
S11338A070400110D8F7809590958E0F9F1F089552
S11338B0FB01DC010D900020E9F7119701900D92B6
S11338C00020E1F70895FB01DC0101900D92002036
S11338D0E1F70895FC016150704001900110D8F7A0
S11338E0809590958E0F9F1F08950F931F93CF93EC
S11338F0DF93FB01238121FD03C08FEF9FEF2CC0D9
S113390022FF16C04681578124813581421753070F
S113391044F4A081B1819D012F5F3F4F2083318307
S11339208C93268137812F5F3F4F2683378314C0C2
S11339308B01EC01FB010084F185E02D0995892BB5
S1133940E1F6D80116968D919C91179701961696DB
S11339508D939C931797CE01DF91CF911F910F9177
S11339600895AEE0B0E0E7EBFCE10C943E1B0D895A
S11339701E8986E08C8309831A838FEF9FE78D83EA
S11339809E83AE01475E5F4F6F89788DCE010196AD
S11339900E949F17EF81F885E00FF11F10822E9689
S11339A0E4E00C94571BFA01AA27283051F1203186
S11339B081F1E8946F936E7F6E5F7F4F8F4F9F4FBF
S11339C0AF4FB1E03ED0B4E03CD0670F781F891F01
S11339D09A1FA11D680F791F8A1F911DA11D6A0FCF
S11339E0711D811D911DA11D20D009F468943F9182
S11339F02AE0269F11243019305D3193DEF6CF0181
S1133A000895462F4770405D4193B3E00FD0C9F746
S1133A10F6CF462F4F70405D4A3318F0495D31FDB3
S1133A204052419302D0A9F7EACFB4E0A695979506
S1133A30879577956795BA95C9F7009761057105DC
S1133A4008959B01AC010A2E069457954795379526
S1133A502795BA95C9F7620F731F841F951FA01D80
S1133A60089560507C4E0C946C1DDC01A40FB51FAE
S1133A704150504048F0CB01840F951F2E910E9475
S1133A80461D41505040D0F70895262F0E94681DCE
S1133A900080021619F00E94511D019701970895A4
S1133AA0262FAF93BF93E0E0F0E1328131FDFDCFEB
S1133AB0DC01A050BC4E2C932DE924BF23E02083CD
S1133AC00196BF91AF91089503D0808199270895FD
S1133AD0FC01E050FC4E0895FB01DC0102C00190A2
S1113AE00D9241505040D8F70895F894FFCF4E
S1133AEE24532564434D442C257300323025303243
S1133AFE782D253032782D25303278542530327891
S1133B0E3A253032783A2530327800445333323302
S1133B1E312072656164206572726F7200323032C8
S1133B2E312D30322D323400737065634D65636808
S1133B3E2056657273696F6E002A253032580D0A4D
S1133B4E002453256445525200202020202020209A
S1133B5E20202020202020202000626F7468006C1A
S1133B6E6566740072696768740073687574746549
S1133B7E7200436C6F7365202573004F70656E2061
S1133B8E25730054656D7020262048756D6964692F
S1133B9E74790025312E3166432025312E30664648
S1133BAE2025312E30662525004F7269656E7461AD
S1133BBE74696F6E0054696D650052656456616375
S1133BCE2020426C75655661630024532564454E6E
S1133BDE562C25732C25332E3166432C25312E304D
S1133BEE6625252C25332E3166432C25312E306641
S1133BFE25252C25332E3166432C25312E30662572
S1133C0E252C25332E3166432C257300245325642D
S1133C1E4F52492C25732C25332E31662C25332EE9
S1133C2E31662C25332E31662C25730025322E3029
S1133C3E662025322E30662025322E30660024531F
S1133C4E2564504E552C25732C25632C736875747E
S1133C5E7465722C25632C6C6566742C25632C722A
S1133C6E696768742C25632C6169722C2573006C4A
S1133C7E6566743A256320202072696768743A2554
S1133C8E6300736875747465723A256320206169E4
S1133C9E723A2563002453256454494D2C25732C04
S1133CAE25732C7365742C25732C626F6F742C25FD
S1133CBE7300245325645641432C25732C25352E2D
S1133CCE32662C7265647661632C25352E32662C31
S1133CDE626C75657661632C25730025322E32660F
S1133CEE202025322E326600245325645645522C4C
S10C3CFE25732C25732C25730099
S1053D070100B5
S9030000FC
