S0100000737065634D6563682E73726563EC
S11300000C9429010C9446010C9446010C94271578
S11300100C9446010C9446010C9446010C94460140
S11300200C9446010C9446010C9446010C94460130
S11300300C940E160C9446010C9446010C94460143
S11300400C9446010C946D170C94B0170C94460153
S11300500C945C0D0C9446010C9446010C944601DE
S11300600C9446010C9446010C94E7170C94121856
S11300700C9446010C944E070C9446010C944601D2
S11300800C9446010C9446010C9446010C944601D0
S11300900C9446010C9449180C947E180C94460157
S11300A08704950495049504950495049504950492
S11300B09504950495049504950495049504950474
S11300C095046D049504950495049504950495048C
S11300D09504950495047704950472049504950495
S11300E07B047F048304F312F312630E630E630E26
S11300F0630E630E630E630E630E630E630E630E74
S1130100630E630E630E630E630E630E630EA01222
S1130110630E630E630E630E630E630E630E630E53
S1130120630E630E650E650E650E630E030F630E9C
S1130130630E630E630E630E630E630E630E630E33
S11301403C102B11630E630E630ECA11630E2A1248
S11301506E616E00696E660000407A10F35A00A06A
S1130160724E18090010A5D4E80000E8764817007C
S113017000E40B54020000CA9A3B000000E1F505BC
S1130180000080969800000040420F000000A08606
S113019001000000102700000000E8030000000038
S11301A06400000000000A000000000001000000DC
S11301B000002C76D888DC674F0823DFC1DFAE59F6
S11301C0E1B1B796E5E3E453C63AE651997696E889
S11301D0E6C28426EB898C9B62ED407C6FFCEFBC0D
S11301E09C9F40F2BAA56FA5F490055A2AF75C9338
S11301F06B6CF9676DC11BFCE0E40D47FEF520E66E
S1130200B500D0ED902E0300943577050080841E50
S1130210080000204E0A000000C80C333333330FAB
S1130220986E12831141EF8D2114893BE65516CF48
S1130230FEE6DB18D1844B381BF77C1D901DA4BB54
S1130240E424203284725E228100C9F124ECA1E509
S11302503D2711241FBECFEFCDBFDFE3DEBF18E281
S1130260A0E0B8E2EFEDF4E402C005900D92A230F4
S1130270B107D9F720E3A2E0B8E201C01D92A83A81
S1130280B207E1F70E94CD070C943D210C940000C5
S1130290CF92DF92EF92FF92CF938130C9F018F0A2
S11302A0823061F010C00F2EF3E3CF2EDC2CF3EF7D
S11302B0EF2EF0E4FF2EF02DC1E00EC0C12CD12CA6
S11302C07601C0E109C0C12CD12C7601C0E004C084
S11302D0C12CD12C7601C4E040E066E087E20E94A4
S11302E0F0074C2F409560E087E20E94F0074C2F06
S11302F06AE087E20E94F00786E18A95F1F7000040
S113030020E840E768E088E40E949E0120E030E0B5
S11303104AE754E40E945D1A23E333E948E853E4CE
S11303200E94C2189B01AC01C701B6010E94C31808
S1130330CF91FF90EF90DF90CF900895CF92DF920E
S1130340EF92FF920F931F93CF93DF93D82FF62E44
S1130350462BC42FC168122F136060E00E94501610
S1130360082F882369F00E947616602F70E080E0E1
S113037090E00E94A619562F472F382F292FD0C05E
S113038081E00E947A16082F882369F00E9476166D
S1130390602F70E080E090E00E94A619562F472F4E
S11303A0382F292FBDC08C2F0E947A16C82F88237E
S11303B069F00E9476166C2F70E080E090E00E9455
S11303C0A619562F472F382F292FAAC0812F0E94F4
S11303D07A16C82F882369F00E9476166C2F70E075
S11303E080E090E00E94A619562F472F382F292F1E
S11303F097C00E9476168CE18A95F1F7C1E009C096
S113040061E08D2F0E9450160E94431688230CF43D
S1130410C0E0C111F5CF0E94761660E08D2F0E94D6
S1130420501680E00E947A1661E08D2F0E945016CB
S11304300E943316C82F0E944316D82F0E947616A6
S11304406C2F70E0762F66276D2B84E0F81649F147
S11304508F1530F0FF20D9F182E0F81669F142C01F
S113046088E0F81609F442C08AE0F81621F086E024
S1130470F81238C00BC00F2EF4E7CF2EF3E1DF2EB5
S1130480F3E0EF2EF7E3FF2EF02D3AC00F2EF4E742
S1130490CF2EF3E1DF2EF3E0EF2EF8E3FF2EF02D65
S11304A02FC00F2EF2E1CF2EF3E1DF2EF3E8EF2E73
S11304B0F8E3FF2EF02D24C00F2EF4E7CF2EF3E146
S11304C0DF2EF3E0EF2EF9E3FF2EF02D19C00F2EEF
S11304D0FEE2CF2EFDE9DF2EF4E4EF2EF9E3FF2E4A
S11304E0F02D0EC0C12CD12C76010AC00F2EF1E7DD
S11304F0CF2EF3E1DF2EF3E8EF2EF7E3FF2EF02DFE
S1130500072E000C880B990B0E94A8199B01AC01C3
S1130510C701B6010E945D1A562F472F382F292F85
S1130520652F742F832F922FDF91CF911F910F91FD
S1130530FF90EF90DF90CF900895E0E2F4E084E044
S113054085838183868308950F931F93CF93DF93CD
S1130550CDB7DEB7C451D140CDBFDEBF2BE0EEE74F
S1130560F2E8DE01119601900D922A95E1F72091AF
S1130570A80422FF03C022E030E002C021E030E002
S11305809F938F933F932F93CE0101969F938F93C5
S11305908E01045F1F4F1F930F930E947920C8019F
S11305A00E949109F80101900020E9F73197AF0109
S11305B0401B510BB80180E00E94E716CDBFDEBF9F
S11305C0CC5EDE4FCDBFDEBFDF91CF911F910F9187
S11305D008959FE9980F9A3128F081548A3120F4C4
S11305E081E0089581E0089580E00895EF92FF92FC
S11305F01F93CF93DF93EC01E62EF12C84E38E9DC1
S1130600F0018F9DF00D1124E358F74D8FE38083A3
S11306108183128213A604C0112309F475C02196A4
S11306201881812F0E94E9028823B1F3219684E383
S11306308E9DF0018F9DF00D1124E358F74D10832A
S113064004C0112309F460C021961881812F0E94EF
S1130650E9028823B1F3219684E38E9DF0018F9DF6
S1130660F00D1124E358F74D118380E02AC09881DE
S113067091110CC094E39E9DF0019F9DF00D1124F7
S1130680E358F74DE80FF11D12823EC09B3361F42D
S113069094E39E9DF0019F9DF00D1124E358F74DC6
S11306A0E80FF11D12820FC0219624E32E9DF00164
S11306B02F9DF00D1124E358F74DE80FF11D92839F
S11306C08F5F8932A0F2219680E01CC0988191113D
S11306D00CC094E39E9DF0019F9DF00D1124E358FE
S11306E0F74DE80FF11D13A60FC0219624E32E9DAC
S11306F0F0012F9DF00D1124E358F74DE80FF11D83
S113070093A78F5F893010F3DF91CF911F91FF90F2
S1130710EF9008950F931F93CF93DF93CDB7DEB778
S11307206D97CDBFDEBF2EE330E029833A8321E20B
S113073030E02B833C83882319F08130B9F02CC03E
S11307408E010B5F1F4FBE016F5F7F4FC8010E9478
S11307501620F80101900020E9F73197AF01401B02
S1130760510BB80180E00E94E7162BC08E010B5F8D
S11307701F4FBE016D5F7F4FC8010E941620F80114
S113078001900020E9F73197AF01401B510BB801EC
S113079080E00E94E71615C08E010B5F1F4FBE015B
S11307A06D5F7F4FC8010E941620F8010190002060
S11307B0E9F73197AF01401B510BB80180E00E946B
S11307C0E7166D96CDBFDEBFDF91CF911F910F91DC
S11307D008950F931F93CF93DF93CDB7DEB7CF5F09
S11307E0D109CDBFDEBF30E01DC00FE81CE2F80127
S11307F0808190E0FC01E157F44D4081E1E0F0E0BC
S1130800EC0FFD1FE30FF11D408321502093912C29
S113081001966FEF70E00E94471EF8018083442325
S113082029F03F5F2091912C2111DFCFE1E0F0E02E
S1130830EC0FFD1FE30FF11D108280910028882327
S113084029F18981813299F49A81911110C08FEF35
S113085091E00E94F91485E090E08093872A9093B8
S1130860882A80E00E948A03109200286CC081329A
S113087049F48A81882331F081E00E948A030E942E
S1130880AC1861C081E00E948A035DC0CE0101966C
S11308900E94A4028981811103C00E948A0353C06B
S11308A060910228CE0101960E94F60280910228EE
S11308B0F4E38F9FD0011124A358B74DEC91119606
S11308C09C914E2F50E0FA01E255F109E332F10513
S11308D060F5E05BFF4F0C947A1E892F0E94380C60
S11308E0282F24C0892F0E94CA0C282F1FC00E94C1
S11308F01B14282F1BC00E94C60D282F17C00E944E
S11309006C15282F13C00E94B51520E00FC080E09D
S11309100E948A032AE684E091E0215080409040BE
S1130920E1F700C00E94AC180EC022E080910228BA
S113093090E001966AE070E00E94471E80930228CE
S1130940822F0E948A03C150DF4FCDBFDEBFDF91EB
S1130950CF911F910F910895FB01708161815281A4
S11309604481358126811F927F931F926F931F923A
S11309705F931F924F931F923F931F922F9329E8E7
S113098032E83F932F939F938F930E9479208DB7E2
S11309909EB740968DBF9EBF0895DC01FB018189FF
S11309A090E0C09782959295907F9827807F9827B2
S11309B092899053892B8C93868590E0C097829579
S11309C09295907F9827807F982797859053892BBD
S11309D011968C931197838590E0C0978295929598
S11309E0907F9827807F982794859053892B12961F
S11309F08C93129781E013968C931397808590E0E3
S1130A00C09782959295907F9827807F98279185AB
S1130A109053892B14968C931497258130E020539E
S1130A20310922953295307F3227207F3227868103
S1130A308053282B15962C931597228130E0205350
S1130A40310922953295307F3227207F32278381E6
S1130A508053282B16962C930895EF92FF920F93B0
S1130A601F93CF937B0160E00E945016C82F882308
S1130A7021F00E9476168C2F28C080E00E947A16FE
S1130A80C82F882321F00E9476168C2F1EC061E0A7
S1130A9088E60E945016C82F882369F00E947616B3
S1130AA08C2F13C087010C0F111D0E943316F801FF
S1130AB08083CF5F01C0C0E0C630A0F30E9443161C
S1130AC0F70186830E94761680E0CF911F910F91E3
S1130AD0FF90EF9008950F931F93CF93DF93CDB7BB
S1130AE0DEB72797CDBFDEBF8C01BE016F5F7F4F9E
S1130AF088E60E942D05882349F09DE0E9EAF2E8A2
S1130B00D80101900D929A95E1F707C0BE016F5F7D
S1130B107F4FC8010E94AC0480E02796CDBFDEBFA2
S1130B20DF91CF911F910F910895EF92FF920F9350
S1130B301F93CF93DF938B0160E00E945016C82F60
S1130B40882321F00E9476168C2F22C080E00E9418
S1130B507A16C82F8823B1F00E9476168C2F18C0FD
S1130B6078018FEFE81AF80AF80180810E947A165A
S1130B70C82F882321F00E9476168C2F09C0DF5FCE
S1130B80870101C0D0E0D73058F30E94761680E088
S1130B90DF91CF911F910F91FF90EF900895CF9324
S1130BA0DF93CDB7DEB72797CDBFDEBFBC01CE0143
S1130BB001960E94CD04BE016F5F7F4F88E60E94BC
S1130BC095052796CDBFDEBFDF91CF91089545E10E
S1130BD050E06BE070E00E94F92008954BE050E093
S1130BE060E070E00E94F9200895CF93DF93CDB7C1
S1130BF0DEB76597CDBFDEBFCE0101960E946B05BF
S1130C0045E150E06BE070E0CE0101960E94FD20CA
S1130C106596CDBFDEBFDF91CF910895CF93DF936B
S1130C20CDB7DEB72B97CDBFDEBF8BE0E6EBF2E8A6
S1130C30DE01119601900D928A95E1F74BE050E0A8
S1130C4060E070E0CE0101960E94FD202B96CDBF9E
S1130C50DEBFDF91CF9108950E94F5050E940E0634
S1130C600895EF92FF920F931F93CF93DF93C82FB2
S1130C70E62EF72E8A01D22F60E00E9450168111D1
S1130C802BC08F2D0E947A16811126C08E2D0E94B2
S1130C907A16811121C061E08C2F0E9450168111B7
S1130CA01BC0C0E008C07801EC0EF11C0E94331692
S1130CB0F7018083CF5F2C2F30E08D2F90E00197D8
S1130CC02817390784F3EC01C00FD11F0E94431683
S1130CD088830E94761680E0DF91CF911F910F9157
S1130CE0FF90EF900895EF92FF920F931F93CF938D
S1130CF0DF93F62E172FEA01022F60E00E945016B0
S1130D0081111CC0812F0E947A16811117C08F2D6A
S1130D100E947A16811112C010E00BC07E018FEF81
S1130D20E81AF80A88810E947A16811107C01F5FA9
S1130D30E701101798F30E94761680E0DF91CF91B7
S1130D401F910F91FF90EF9008958F929F92AF9211
S1130D50BF92CF92DF92EF92FF92813059F018F058
S1130D60823079F015C080E00E94A5154B015C012A
S1130D7040E417C081E00E94A5154B015C0140E5E9
S1130D8010C082E00E94A5154B015C0140E609C039
S1130D900F2E812C912CF0EAAF2EF1E4BF2EF02D12
S1130DA040E520E860E088E40E949E0120E030E015
S1130DB040EA50E40E9434192AE037ED43E25EE34E
S1130DC00E94C2182FE539E24BEC5BE30E94341910
S1130DD06B017C0129EC3EE84DE05BE3C501B40105
S1130DE00E945D1A9B01AC0162E27DEF86E89FE3FD
S1130DF00E94C2189B01AC01C701B6010E943419BC
S1130E00FF90EF90DF90CF90BF90AF909F908F9026
S1130E100895CF93DF93CDB7DEB72B97CDBFDEBF59
S1130E200E948E0D8BE08093B6040E94B6180E9437
S1130E309D150E94C7070E949D0280E290E00E94D7
S1130E40F9140E948F160E9428160E945F090E94BE
S1130E507D0B80E00E94350A81E00E94350A0E94E1
S1130E602C0680EE91E08093872A9093882ACE0105
S1130E7001960E94EE0541E061EC72E881E00E9477
S1130E80F50A42E0BE016F5F7F4F81E00E94F50AE0
S1130E902B96CDBFDEBFDF91CF9108951F920F92A5
S1130EA00FB60F9211242F933F934F935F936F9339
S1130EB07F938F939F93AF93BF93EF93FF9380910F
S1130EC0A90486FF05C080E48093A9040E94AC189D
S1130ED0FF91EF91BF91AF919F918F917F916F910E
S1130EE05F914F913F912F910F900FBE0F901F90E4
S1130EF01895CF92DF92EF92FF92813021F08230E9
S1130F0079F540E301C040E020E862E089E40E9412
S1130F109E016B017C012DEC3CEC4CEC5EE30E94E9
S1130F202F19882314F120E030E040E050E4C70199
S1130F30B6010E94581A1816ECF029E739EE42E07F
S1130F4050E4C701B6010E945D1A2EE633EA4BED68
S1130F5050E40E94C218562F472F382F292F0EC055
S1130F6050E040E836E224EC09C050E040E836E2C4
S1130F7024EC04C050E040E836E224EC652F742FE2
S1130F80832F922FFF90EF90DF90CF900895E0EAA7
S1130F90F4E080E28583818308950E9409077894B0
S1130FA08091932C8823E1F31092932C0E94E903FF
S1130FB0F7CFCF93DF93C82FD62F60E00E9450164F
S1130FC08D2F0E947A1661E08C2F0E9450160E9489
S1130FD04316C82F0E9476168C2FDF91CF91089567
S1130FE01F93CF93DF93D62F142F60E00E945016E7
S1130FF0C82F882321F00E9476168C2F17C08D2FBE
S11310000E947A16C82F882321F00E9476168C2F0E
S11310100DC0812F0E947A16C82F882321F00E94C8
S113102076168C2F03C00E94761680E0DF91CF9154
S11310301F910895CF92DF92EF92FF921F93CF9367
S1131040DF9360E088E10E94501685E00E947A16E2
S113105061E088E10E9450160E943316C82F0E9456
S11310604316D82F0E9476161C2F10716C2F6F70A8
S113107070E080E090E00E94A61920E030E040E8B3
S113108051E40E945D1A6B017C016D2F70E080E0D9
S113109090E00E94A61920E030E040E85DE30E9461
S11310A05D1A9B01AC01C701B6010E94C31811234C
S11310B041F09B01AC0160E070E080E893E40E94A1
S11310C0C218DF91CF911F91FF90EF90DF90CF90E6
S11310D00895EF92FF920F931F93CF93DF93182FEE
S11310E0F62EEA01022F60E00E94501681111EC004
S11310F08F2D0E947A16811119C061E0812F0E9400
S11311005016811113C011E009C07E018FEFE81A57
S1131110F80A0E94331688831F5FE7011017A8F3AB
S11311200E94431688830E94761680E0DF91CF9157
S11311301F910F91FF90EF900895CF92DF92EF925D
S1131140FF920F931F93CF93DF93CDB7DEB726970C
S1131150CDBFDEBF6C017B018A018AE99FE3ACE16C
S1131160B6ECFA0180839183A283B383FB0180836D
S11311709183A283B383F60180839183A283B38393
S113118026E0AE014F5F5F4F61E08DE10E94690888
S1131190898190E0982F88272A81822BBC017723AC
S11311A014F46D5F7F4F7595679575956795072E58
S11311B0000C880B990B0E94A81926E636E245E735
S11311C05EE30E945D1AF6016083718382839383D8
S11311D08B8190E0982F88272C81822BBC01772368
S11311E014F46D5F7F4F7595679575956795072E18
S11311F0000C880B990B0E94A81926E636E245E7F5
S11312005EE30E945D1AF701608371838283938396
S11312108D8190E0982F88272E81822BBC01772323
S113122014F46D5F7F4F7595679575956795072ED7
S1131230000C880B990B0E94A81926E636E245E7B4
S11312405EE30E945D1AF801608371838283938355
S113125080E02696CDBFDEBFDF91CF911F910F9125
S1131260FF90EF90DF90CF9008951F93CF93DF937B
S1131270D62F142F60E00E945016C82F882321F027
S11312800E9476168C2F17C08D2F0E947A16C82FB5
S1131290882321F00E9476168C2F0DC0812F0E9486
S11312A07A16C82F882321F00E9476168C2F03C04B
S11312B00E94761680E0DF91CF911F910895CF931D
S11312C0DF931F92CDB7DEB740E46BE28DE10E945D
S11312D0350921E0AE014F5F5F4F6BE28DE10E9463
S11312E0690808C021E0AE014F5F5F4F6BE28DE1FA
S11312F00E946908898186FDF5CF40EC6FE08DE19D
S11313000E94350942E06BE28DE10E9435094DE30C
S11313106AE28DE10E94350989810F90DF91CF91B6
S11313200895EF92FF920F931F93CF93DF93CDB75E
S1131330DEB72E97CDBFDEBF8C0188E0E2EDF2E888
S1131340DE01119601900D928A95E1F7F801019062
S11313500020E9F731973E2F301B90E081E006C072
S1131360F801E80FF11D208192278F5F8317C0F3E6
S11313701F929F93CE0101969F938F937E0189E0E4
S1131380E80EF11CFF92EF920E947920B701C80188
S11313900E940B200F900F900F900F900F900F90C2
S11313A02E96CDBFDEBFDF91CF911F910F91FF909D
S11313B0EF9008950F931F93CF93DF93CDB7DEB7CC
S11313C0CF55D109CDBFDEBF9EE0EAEDF2E8DE01E4
S11313D0AE5ABF4F01900D929A95E1F79091A804EF
S11313E092FF03C092E020E002C091E020E07F93EE
S11313F06F931F928F932F939F93CE018E5A9F4F7B
S11314009F938F938E010F5F1F4F1F930F930E9423
S11314107920C8010E949109F80101900020E9F7A0
S11314203197AF01401B510BB80180E00E94E716D1
S1131430CDBFDEBFC15ADF4FCDBFDEBFDF91CF913D
S11314401F910F910895CF93DF93D62FC42F60E09F
S11314500E9450168D2F0E947A168C2F0E947A16A5
S11314600E947616DF91CF910895CF93E0E6F4E0E1
S113147090E496839183A1E4B3E01197F1F700001F
S11314809583811102C0CCE301C0CDE34AE260E060
S11314908C2F0E94230A41E760E08C2F0E94230ACC
S11314A04CE560E48C2F0E94230A48E260E08C2F14
S11314B00E94230A48E060E08C2F0E94230A4AE23B
S11314C060E08C2F0E94230A49E760E08C2F0E9481
S11314D0230A45ED60E08C2F0E94230A40E760E078
S11314E08C2F0E94230A48E760E08C2F0E94230A75
S11314F048E060E08C2F0E94230A46E060E08C2FD5
S11315000E94230A42E760E08C2F0E94230A40E0F5
S113151060E48C2F0E94230A4AE260E08C2F0E9430
S1131520230A49E760E08C2F0E94230A4AED60E019
S11315308C2F0E94230A40E060E08C2F0E94230A33
S11315404CED60E08C2F0E94230A40E060E08C2F79
S11315500E94230A41E860E08C2F0E94230A4FE78F
S113156060E08C2F0E94230A49ED60E08C2F0E94DA
S1131570230A41EF60E08C2F0E94230A4BED60E0C8
S11315808C2F0E94230A40E460E08C2F0E94230ADF
S113159048E760E08C2F0E94230A48E260E08C2F29
S11315A00E94230A41E060E08C2F0E94230A40E855
S11315B060E08C2F0E94230A4CE060E08C2F0E9494
S11315C0230ABAE624E081E0B15020408040E1F7EC
S11315D000C01092852A1092862A85E090E08093BC
S11315E0872A9093882ACF910895EF92FF920F93C0
S11315F01F93CF93DF93CDB7DEB7E297CDBFDEBFA6
S1131600142F91E1E8EEF2E8DE01929601900D923A
S11316109A95E1F7811102C00CE301C00DE3CE01FC
S113162001967C010E941620F70101900020E9F741
S11316303197EE19FF09719708F0198ABE016E5DA2
S11316407F4FCE0101960E940B20113039F440E8FF
S113165060E0802F0E94230A10E012C040EC60E09A
S1131660802F0E94230AF8CFE1E0F0E0EC0FFD1F89
S1131670E10FF11D408160E4802F0E94230A1F5F67
S1131680103190F381E090E08093852A9093862A2C
S1131690E296CDBFDEBFDF91CF911F910F91FF90F6
S11316A0EF9008951F93CF93DF93CDB7DEB7619783
S11316B0CDBFDEBF182F81E1E8EEF2E8DE0111961E
S11316C001900D928A95E1F741E0BE016F5F7F4F73
S11316D0812F0E94F50A42E0BE016F5F7F4F812F88
S11316E00E94F50A1092852A1092862A6196CDBF2F
S11316F0DEBFDF91CF911F91089540E060E084E266
S11317000E94F007811135C040E06AE084E20E9443
S1131710F00781112EC04EEF60E081E20E94F007D5
S1131720811127C040E061E081E20E94F00781114D
S113173020C04CEF62E081E20E94F007811119C0E1
S113174040E064E081E20E94F007811112C040E2AF
S113175065E081E20E94F00781110BC04FE766E06B
S113176081E20E94F007811104C089E0809377042C
S113177080E00895CF92DF92EF92FF920F931F9330
S1131780CF93DF936C018B017A01E90169E081E277
S11317900E94D907982F92959695969593709130BB
S11317A021F493E6F60190830FC0923021F49FE672
S11317B0F601908309C0933021F494E7F6019083F5
S11317C003C098E7F6019083982F969596959370A9
S11317D0913021F493E6F70190830FC0923021F405
S11317E09FE6F701908309C0933021F494E7F70151
S11317F0908303C098E7F7019083982F92959F7088
S11318009370913021F49FE6F80190830FC09230D9
S113181021F493E6F801908309C0933021F494E70E
S1131820F801908303C098E7F801908381FF03C017
S113183080E3888302C081E38883DF91CF911F9185
S11318400F91FF90EF90DF90CF900895CF93DF93A7
S1131850D82FC62F69E084E20E94D9078D2B482F28
S11318604C236AE084E20E94F007DF91CF9108954F
S1131870CF93DF93CDB7DEB76A97CDBFDEBF99E0D4
S1131880E1E1F3E8DE01119601900D929A95E1F7FA
S11318908C3631F118F4823639F075C08237C1F1D3
S11318A0833709F44DC06FC06AEE84E40E94260CAD
S11318B066EE88E80E94260C89EF92E89F938F9346
S11318C0CE0101969F938F9309969F938F930E94C5
S11318D079200F900F900F900F900F900F9047C0AA
S11318E06AEE84E40E94260C8EEF92E89F938F9315
S11318F0CE0101969F938F9309969F938F930E9495
S113190079200F900F900F900F900F900F902FC091
S113191066EE88E80E94260C83E093E89F938F93F9
S1131920CE0101969F938F9309969F938F930E9464
S113193079200F900F900F900F900F900F9017C079
S11319406CEE82E20E94260C89E093E89F938F93C9
S1131950CE0101969F938F9309969F938F930E9434
S113196079200F900F900F900F900F900F9081E0BF
S11319700E94520B41E0BE01665F7F4F81E00E94EE
S1131980F50A80E001C082E06A96CDBFDEBFDF9138
S1131990CF910895CF93DF93CDB7DEB76997CDBFCD
S11319A0DEBF98E0EAE1F3E8DE01119601900D92C2
S11319B09A95E1F78C3631F118F4823639F075C016
S11319C08237C1F1833709F44DC06FC06EEA84E4F5
S11319D00E94260C6EE688E80E94260C89EF92E8A5
S11319E09F938F93CE0101969F938F9308969F9315
S11319F08F930E9479200F900F900F900F900F906B
S1131A000F9047C06EEA84E40E94260C8EEF92E8A1
S1131A109F938F93CE0101969F938F9308969F93E4
S1131A208F930E9479200F900F900F900F900F903A
S1131A300F902FC06EE688E80E94260C83E093E89E
S1131A409F938F93CE0101969F938F9308969F93B4
S1131A508F930E9479200F900F900F900F900F900A
S1131A600F9017C06EEC82E20E94260C89E093E886
S1131A709F938F93CE0101969F938F9308969F9384
S1131A808F930E9479200F900F900F900F900F90DA
S1131A900F9081E00E94520B41E0BE01675F7F4FCF
S1131AA081E00E94F50A80E001C082E06996CDBF22
S1131AB0DEBFDF91CF9108951F920F920FB60F9260
S1131AC011242F933F934F935F936F937F938F933F
S1131AD09F93AF93BF93EF93FF93809169048823FF
S1131AE064F480E88093690468E081E20E94D90785
S1131AF08093892A84E080932704FF91EF91BF911A
S1131B00AF919F918F917F916F915F914F913F9191
S1131B102F910F900FBE0F901F901895E0E0F4E006
S1131B2088E0808B818B828B838B848B858B868BE7
S1131B30878BE0E2F4E0808B818B828B838B848BB8
S1131B40858BE0E4F4E0808B818B828B838B848BA8
S1131B50858B868B878BE0E6F4E094E0908B918B09
S1131B60928B938B948B958B968B978BE0E8F4E018
S1131B70808B818B828B838BE0EAF4E0808B818B7A
S1131B80828B838B848B858B868B08952F923F92D7
S1131B904F925F926F927F928F929F92AF92BF9279
S1131BA0CF92DF92EF92FF920F931F93CF93DF9325
S1131BB0CDB7DEB7C85DD240CDBFDEBF92E4E0E76B
S1131BC0F3E8DE01AB5ABE4F01900D929A95E1F70E
S1131BD093E3E2EBF3E8DE01A956BE4F01900D92C8
S1131BE09A95E1F790E2E5EEF3E8DE01A653BE4FE5
S1131BF001900D929A95E1F792E1E5E0F4E8DE01B7
S1131C00A651BE4F01900D929A95E1F791E3E7E159
S1131C10F4E8DE01A450BE4F01900D929A95E1F7CD
S1131C2093E1E8E4F4E8DE01A35DBD4F01900D9279
S1131C309A95E1F793E1EBE5F4E8DE01A05CBD4F92
S1131C4001900D929A95E1F79DE1EEE6F4E8DE014C
S1131C50AD5ABD4F01900D929A95E1F799E2EBE8E8
S1131C60F4E8DE01A059BD4F01900D929A95E1F779
S1131C709DE0E4EBF4E8DE01A756BD4F01900D9220
S1131C809A95E1F791E1E1ECF4E8DE01AA55BD4F44
S1131C9001900D929A95E1F7082F10E084E3809F5C
S1131CA0F001819FF00D1124E358F74DE1818E2F4F
S1131CB090E0FC01E254F109E533F10520F4ED581C
S1131CC0FF4F0C947A1E82E08FC4CE018B5E9E4F30
S1131CD00E946B0584E3809F7001819FF00C1124A6
S1131CE087010358174DF80181810F2EFFE15F2E04
S1131CF0F02D580EAE0149545D4F60E1852D0E94D0
S1131D008213C954DD4F688179818A819B81C75BC5
S1131D10D2400F2EFCE06F2E77247394812C912CEB
S1131D20F02DA40193010E945B1ED22EC32EB42E6B
S1131D30A52EAE0145545D4F62E1852D0E948213AC
S1131D40C554DD4F688179818A819B81CB5BD24008
S1131D50A40193010E945B1E922E832E742E652E85
S1131D6061E3852D0E948514AA27BB279C01220FBD
S1131D70331FBC01660F771F660F771F660F771F2F
S1131D80620F731FC7018855974DF8012181309167
S1131D90A80432FF03C032E040E002C031E040E07A
S1131DA09F938F937F936F936F927F928F929F9263
S1131DB0AF92BF92CF92DF921F922F93CE018B5E90
S1131DC09E4F9F938F934F933F938E579F4F9F9315
S1131DD08F938E010F5F1F4F1F930F930E947920E3
S1131DE0C8010E949109F80101900020E9F7319798
S1131DF0AF01401B510BB80180E00E94E716CDBF34
S1131E00DEBF80E0F1C380E00E94A515F62EE72E28
S1131E10D82EC92E80E00E94A506B62EA72E982E95
S1131E20892E81E00E94A515C553DD4F6883CB5CE4
S1131E30D240C453DD4F7883CC5CD240C353DD4FD2
S1131E408883CD5CD240C253DD4F9883CE5CD240B0
S1131E5081E00E94A506C153DD4F6883CF5CD24068
S1131E60C053DD4F7883C05DD240CF52DD4F8883AD
S1131E70C15DD240CE52DD4F9883C25DD24082E034
S1131E800E94A515CD52DD4F6883C35DD240CC526C
S1131E90DD4F7883C45DD240CB52DD4F8883C55D6E
S1131EA0D240CA52DD4F9883C65DD24082E00E9480
S1131EB0A506762E672E582E492E83E00E94A5157E
S1131EC0C952DD4F6883C75DD240C852DD4F788365
S1131ED0C85DD240382E292ECE018B5E9E4F0E94C3
S1131EE06B0524E3209FC001219F900D1124885588
S1131EF0974D2091A80422FF03C022E030E002C0E5
S1131F0021E030E09F938F932F923F92C852DD4F90
S1131F109881C85DD2409F93C952DD4FE881C75D67
S1131F20D240EF934F925F926F927F92CA52DD4FED
S1131F30F881C65DD240FF93CB52DD4F8881C55DE9
S1131F40D2408F93CC52DD4F9881C45DD2409F9391
S1131F50CD52DD4FE881C35DD240EF93CE52DD4FC9
S1131F60F881C25DD240FF93CF52DD4F8881C15DBD
S1131F70D2408F93C053DD4F9881C05DD2409F9370
S1131F80C153DD4FE881CF5CD240EF93C253DD4FA4
S1131F90F881CE5CD240FF93C353DD4F8881CD5C82
S1131FA0D2408F93C453DD4F9881CC5CD2409F9331
S1131FB0C553DD4FE881CB5CD240EF938F929F9263
S1131FC0AF92BF92CF92DF92EF92FF92CE018B5EDF
S1131FD09E4F9F938F933F932F93805C9F4F9F932C
S1131FE08F938E010F5F1F4F1F930F930E947920D1
S1131FF0CDBFDEBFC8010E949109F8010190002005
S1132000E9F73197AF01401B510BB80180E00E9402
S1132010E71641E062E273E881E00E94F50A26E6F1
S113202036E646EE5FE36F2D7E2D8D2D9C2D0E94AE
S11320305D1A8F929F92AF92BF9220E030E040E011
S113204052E40E94C3189F938F937F936F93CF9210
S1132050DF92EF92FF9282E393E89F938F931F9313
S11320600F930E94792042E0B80181E00E94F50AB2
S1132070CDBFDEBF80E0B8C2AE0149535D4FBE01A3
S11320806D537D4FCE0181549D4F0E949D08CE011A
S11320908B5E9E4F0E946B0524E3209FC001219F0D
S11320A0900D11248855974DC953DD4FA881C75C05
S11320B0D240C853DD4FB881C85CD240C753DD4F0E
S11320C01881C95CD240C653DD4F0881CA5CD24036
S11320D0CD53DD4F6881C35CD240CC53DD4F788152
S11320E0C45CD240CB53DD4FE881C55CD240CA53B7
S11320F0DD4FF881C65CD240C154DD4F2881CF5BEF
S1132100D240C054DD4F3881C05CD240CF53DD4F44
S11321104881C15CD240CE53DD4F5881C25CD2406D
S1132120F090A804F2FE05C06894FF24F1F8E12CB5
S113213003C0FF24F394E12C9F938F930F931F9379
S1132140BF93AF93FF93EF937F936F935F934F93FB
S11321503F932F93CE018B5E9E4F9F938F93EF926D
S1132160FF928B549F4F9F938F938E010F5F1F4F4E
S11321701F930F930E947920C8010E949109F801CE
S113218001900020E9F73197AF01401B510BB801D2
S113219080E00E94E71641E068E473E881E00E9471
S11321A0F50AC653DD4F8881CA5CD2408F93C7536A
S11321B0DD4F8881C95CD2408F93C853DD4F88813D
S11321C0C85CD2408F93C953DD4F8881C75CD2402D
S11321D08F93CA53DD4F8881C65CD2408F93CB5313
S11321E0DD4F8881C55CD2408F93CC53DD4F88810D
S11321F0C45CD2408F93CD53DD4F8881C35CD24001
S11322008F93CE53DD4F8881C25CD2408F93CF53DE
S1132210DD4F8881C15CD2408F93C054DD4F8881EB
S1132220C05CD2408F93C154DD4F8881CF5BD240D4
S11322308F93CE0186519E4F9F938F931F930F933D
S11322400E947920CDBFDEBF42E0B80181E00E9448
S1132250F50A80E0C9C1CE018B5E9E4F0E946B05DA
S11322609E012C5A3E4FAE014D5A5E4FBE016E5A2E
S11322707E4FCE018F5A9E4F0E94BA0B24E3209FBB
S1132280C001219F900D11248855974DCC5ADE4FE3
S11322905881C455D140CD5ADE4F4881C355D140F1
S11322A0CE5ADE4F3881C255D140CF5ADE4F2881F5
S11322B0C155D1406091A80462FF03C062E070E0A0
S11322C002C061E070E09F938F931F925F931F920F
S11322D04F931F923F931F922F93CE018B5E9E4F7D
S11322E09F938F937F936F9389519F4F9F938F9366
S11322F08E010F5F1F4F1F930F930E947920C80117
S11323000E949109F80101900020E9F73197AF018B
S1132310401B510BB80180E00E94E716CD5ADE4FF6
S11323208881C355D1401F928F93CE5ADE4F888146
S1132330C255D1401F928F93CE01835D9D4F9F93D1
S11323408F931F930F930E94792041E0B80181E09D
S11323500E94F50ACC5ADE4F8881C455D1401F92A1
S11323608F93CF5ADE4F8881C155D1401F928F93EE
S1132370CE01805C9D4F9F938F931F930F930E9478
S11323807920CDBFDEBF42E0B80181E00E94F50AAA
S113239080E02AC1CE018B5E9E4F0E946B0524E132
S11323A0AE01475D5E4F60E070E080E50E9431065B
S11323B0CE01835C9E4F0E94E70524E3209FC00169
S11323C0219F900D11248855974D2091A80422FF38
S11323D003C022E030E002C021E030E09F938F93FD
S11323E0CE01835C9E4F9F938F9344979F938F93CB
S11323F08E010B5E1E4F1F930F933F932F93865DA9
S11324009E4F9F938F93825592407C019F938F930D
S11324100E947920C7010E949109F70101900020D0
S1132420E9F73197AF014E195F09B70180E00E94C7
S1132430E71641E064E573E881E00E94F50AB8011B
S1132440655F7F4F42E081E00E94F50ACDBFDEBFA9
S113245080E0CAC081E00E947907F62EE72ED82ECC
S1132460C92E82E00E947907B62EA72E982E892EB7
S1132470CE018B5E9E4F0E946B05882329F069E58F
S113248073E885E60E94DA0924E3209FC001219FB6
S1132490900D11248855974D2091A80422FF03C064
S11324A022E030E002C021E030E09F938F938F92CE
S11324B09F92AF92BF92CF92DF92EF92FF92CE01A2
S11324C08B5E9E4F9F938F933F932F93855A9E4F7E
S11324D09F938F938E010F5F1F4F1F930F930E9443
S11324E07920C8010E949109F80101900020E9F7C0
S11324F03197AF01401B510BB80180E00E94E716F1
S113250041E060E673E881E00E94F50A8F929F92B1
S1132510AF92BF92CF92DF92EF92FF92CE01875695
S11325209D4F9F938F931F930F930E94792042E0B6
S1132530B80181E00E94F50ACDBFDEBF80E054C03F
S1132540CE01865F9E4F0E94EE05CE018B5E9E4FAC
S11325500E946B0524E3209FC001219F900D11244C
S11325608855974D2091A80422FF03C022E030E053
S113257002C021E030E09F938F93CE01865F9E4F8F
S11325809F938F930B969F938F933F932F938F5685
S11325909E4F9F938F938E010F5F1F4F1F930F9337
S11325A00E947920C8010E949109F801019000203D
S11325B0E9F73197AF01401B510BB80180E00E944D
S11325C0E71641E061EC72E881E00E94F50AC80177
S11325D00E94EE0542E0B80181E00E94F50ACDBFF9
S11325E0DEBF80E001C080E0C852DD4FCDBFDEBF5A
S11325F0DF91CF911F910F91FF90EF90DF90CF90DB
S1132600BF90AF909F908F907F906F905F904F900E
S11326103F902F900895DC0140E050E080E090E08E
S11326201BC0FD01E40FF51F208130E0322F22276B
S11326308227932720E00CC099233CF4880F991F2C
S113264031E2832730E1932702C0880F991F2F5F5F
S1132650283090F34F5F5F4F4617570710F30895E4
S1132660CF93DF93CDB7DEB76597CDBFDEBF898348
S113267081E48A831B821C8280E18D831E821F82F7
S1132680188690E299871A861B861C868D871E867B
S11326907F87688B598B4A8B1B8A63E170E0CE017C
S11326A001960E940B139C8B8D8B45E1BE016F5FDD
S11326B07F4F81E00E94E71610928A2A81E080937E
S11326C08B2B10928D2B10928E2B0E940B1681E077
S11326D090E00E94F51580917B2890917C28C39707
S11326E020F480918E2B8130B1F780918A2A8F3F1C
S11326F011F082E001C080E06596CDBFDEBFDF91BE
S1132700CF910895CF92DF92EF92FF920F931F9390
S1132710CF93DF93CDB7DEB72797CDBFDEBF8A0156
S113272097E090938B2B10928D2B10928E2B898394
S11327306A8342E0BE016F5F7F4F81E00E94E7162B
S113274001C0000080918E2B8823D9F3EAE8FAE2D5
S1132750E580F12CFE2CEE248681E82A22E00EC0CE
S1132760822F90E0FC01E857F54D3081E1E0F0E084
S1132770EC0FFD1FE80FF91F30832F5F273080F324
S113278067E070E0CE0101960E940B13E816F9068B
S113279041F0D8011D921D921D921C92139780EF57
S11327A03EC0EAE8FAE2808190E0A0E0B0E0782F51
S11327B0662755274427D8014D935D936D937C93E9
S11327C013979181892F90E0A0E0B0E0DC01992774
S11327D088276C017D01C42AD52AE62AF72AD80164
S11327E0CD92DD92ED92FC921397428150E060E02D
S11327F070E0762F652F542F44274C295D296E29CC
S11328007F294D935D936D937C9313972381422B82
S11328104D935D936D937C93139784818770279672
S1132820CDBFDEBFDF91CF911F910F91FF90EF904D
S1132830DF90CF900895FF920F931F93CF93DF9370
S113284000D000D0CDB7DEB7082F10E084E3809F1E
S1132850F001819FF00D1124E358F74D81818134FB
S113286008F449C0843428F09FE9980F9330C8F0E5
S113287042C00F2EFFE3FF2EF02DF80E24E3209F1D
S1132880C001219F900D11248158974D0E94011F72
S11328909B01AC01ACE0B1E00E94801EAB01BC0125
S11328A026C00F2EFFE1FF2EF02DF80EAE014F5F74
S11328B05F4F60E18F2D0E94821324E3209FC001AB
S11328C0219F900D11248158974D0E94011F9B0157
S11328D0AC01ACE0B1E00E94801E09811A812B8119
S11328E03C81AB01BC01400F511F621F731F8F2D30
S11328F00E94301301C082E02496CDBFDEBFDF9179
S1132900CF911F910F91FF9008950F931F93CF9331
S1132910DF93CDB7DEB72697CDBFDEBF96E09093A9
S11329208B2B10928D2B10928E2B89836A8342E01D
S1132930BE016F5F7F4F81E00E94E71601C0000077
S113294080918E2B8823D9F3EAE8FAE2048110E01F
S1132950102F00278581082B22E00EC0822F90E0E3
S1132960FC01E857F54D3081E1E0F0E0EC0FFD1F8C
S1132970E80FF91F30832F5F263080F366E070E0A4
S1132980CE0101960E940B130817190731F5EAE8E6
S1132990FAE2408150E060E070E0742F662755272A
S11329A04427818190E0A0E0B0E0DC0199278827EA
S11329B0482B592B6A2B7B2B828190E0A0E0B0E05E
S11329C0BA2FA92F982F8827842B952BA62BB72BAA
S11329D02381BC01CD01622B04C060EF70E080E074
S11329E090E02696CDBFDEBFDF91CF911F910F916E
S11329F00895AC01E0E6F0E0948D9E7F88ED84BFFD
S1132A00948F01C000009091630096FDFBCFE0E637
S1132A10F0E0948D9B7F28ED24BF948F948D91607A
S1132A2024BF948F01C00000909141019111FBCF0C
S1132A30E0E4F1E04287538782E087838581816007
S1132A40858381EB808382818160828308951F92D4
S1132A500F920FB60F9211242F933F934F935F93CE
S1132A606F937F938F939F93AF93BF93EF93FF9352
S1132A7081E0809343018091852A9091862A009772
S1132A80B9F02091872A3091882A2817390758F4F9
S1132A9080E00E94520B81E00E94520B1092852A22
S1132AA01092862A05C001968093852A9093862ADF
S1132AB080E28093A704FF91EF91BF91AF919F9122
S1132AC08F917F916F915F914F913F912F910F90D3
S1132AD00FBE0F901F901895CF93DF9390E024E3DF
S1132AE0289FF001299FF00D1124E358F74D21810F
S1132AF02437E9F424E3289FE001299FD00D112411
S1132B00C158D74DFE0101900020E9F73197EC1B25
S1132B10FD0B739771F4CE010E94CF0524E1AE0141
S1132B2060E070E080E50E94730680E003C082E00C
S1132B3001C082E0DF91CF910895E0EAF4E0828958
S1132B40877F828B84E082830895833018F08330FA
S1132B5021F006C00E94480108950E941A080895B1
S1132B606AE979EF89E794EC08950F931F93CF9363
S1132B70DF93CDB7DEB7E297CDBFDEBF81E090E053
S1132B800E94F5152AE684E091E0215080409040AF
S1132B90E1F700C080917B2890917C289F938F93CC
S1132BA082ED94E89F938F938E010F5F1F4F1F93C5
S1132BB00F930E947920F80101900020E9F73197E2
S1132BC0AF01401B510BB80180E00E94E7160F9043
S1132BD00F900F900F900F900F90E296CDBFDEBF35
S1132BE0DF91CF911F910F91089510927B2810923D
S1132BF07C2825E03DE0AC01429FC001439F900D3D
S1132C00529F900D1124E0E8FAE08487958781E0D3
S1132C108583808308951092800A08951F920F92ED
S1132C200FB60F9211248F939F9381E08093860AAD
S1132C3080917B2890917C28019680937B289093A7
S1132C407C289F918F910F900FBE0F901F90189525
S1132C50E0EAF8E08BE08683838181608383858169
S1132C6081608583089501C000008091A5088823B0
S1132C70DCF7E0EAF8E084818B7F848380859481AB
S1132C8092609483089501C000008091A508882370
S1132C90DCF7E0EAF8E08481846084838085089529
S1132CA0613039F490E0880F991F81608093A70800
S1132CB005C0880F8093A70801C000008091A50873
S1132CC0807CD9F38091A50882FD0CC08091A50871
S1132CD083FD0AC09091A508892F807194FF05C0D7
S1132CE084E0089582E0089583E0089587E0809366
S1132CF0A408089501C000009091A50896FFFBCF99
S1132D008093A80801C000008091A50886FFFBCF2E
S1132D109091A508892F807194FD84E00895E0E0E6
S1132D20F4E081E085838183E0E0F8E02DE635E09E
S1132D3020873187958190689583968190649683E6
S1132D409681906896831092932D1092942D80937F
S1132D50982D10928E2C10928F2C10928F2B1092F3
S1132D60912C1092932CE0E4F4E085838183E0E2DB
S1132D70F8E04BE551E04087518795819068958351
S1132D809681906496839681906896831092A2307F
S1132D901092A3308093A7301092892B10928A2B23
S1132DA010928A2A10928E2BE0E2F4E085838183CC
S1132DB0E0E6F8E0208731879681906496839681D7
S1132DC0906896838093A22F10929D2E08950F935E
S1132DD01F93CF93DF93EB01142F813001F1B0F0F7
S1132DE0833009F46DC074C0E3E9FDE2808190E0B2
S1132DF03881DC01AC56B34D3C9301966FEF70E023
S1132E000E94471E80832F5F219601C020E0211776
S1132E1058F3E0E0F8E085818062858359C0642F2F
S1132E2070E0CE010E940B13482F092F20E011C03F
S1132E30E2EAF0E3808190E03881DC01AD55B04DE9
S1132E403C9301966FEF70E00E94471E80832F5FD2
S1132E502196211768F3E2EAF0E3808190E0DC0137
S1132E60AD55B04D0C9301962FEF30E0B9010E949F
S1132E70471E90E0DC01AD55B04D4C930196B9016D
S1132E800E94471E80831E5F1093A4301092A630C8
S1132E90E0E2F8E08581806285831AC0EDE9FFE213
S1132EA0808190E03881DC01A256B14D3C930196BB
S1132EB06FEF70E00E94471E80832F5F219601C050
S1132EC020E0211758F3E0E6F8E0858180628583ED
S1132ED0DF91CF911F910F9108951F920F920FB61A
S1132EE00F9211245F936F937F938F939F93AF936C
S1132EF0BF93EF93FF938091912C8F3F19F18091B1
S1132F0000088D3051F481E08093932CE0918E2C55
S1132F10F0E0E157F44D108206C0E0918E2CF0E011
S1132F20E157F44D8083E1E9FCE280818F5F808387
S1132F30EEE8FCE2808190E001966FEF70E00E9481
S1132F40471E8083FF91EF91BF91AF919F918F9125
S1132F507F916F915F910F900FBE0F901F90189506
S1132F601F920F920FB60F9211248F939F93EF939A
S1132F70FF93E0E0F8E085818F7D85838091932D38
S1132F80E091942D8E17B9F091E09E0F9093942DBB
S1132F90F0E0EC56F34D80818093020881E09F3F7E
S1132FA008F480E0890F8093942DE0E0F8E08581B7
S1132FB08062858303C081E08093982DFF91EF9117
S1132FC09F918F910F900FBE0F901F9018951F9295
S1132FD00F920FB60F9211242F938F939F93EF9319
S1132FE0FF9390912008E0918D2B80918B2BE81713
S1132FF040F421E02E0F20938D2BF0E0E657F54DA1
S1133000908390918D2B981718F081E080938E2BEC
S1133010FF91EF919F918F912F910F900FBE0F9081
S11330201F9018951F920F920FB60F9211248F9331
S11330309F93EF93FF93E0E2F8E085818F7D858392
S11330408091A230E091A3308E17B9F091E09E0FE9
S11330509093A330F0E0ED55F04D808180932208E9
S113306081E09F3F08F480E0890F8093A330E0E281
S1133070F8E085818062858303C081E08093A73076
S1133080FF91EF919F918F910F900FBE0F901F9022
S113309018951F920F920FB60F9211248F939F933E
S11330A0AF93BF93EF93FF93809160088D3021F02D
S11330B0E0919C2EEE3F78F081E080939D2EACE968
S11330C0BEE28C91E82FF0E0E756F24D1082809337
S11330D09A2E1C9208C091E09E0F90939C2EF0E0D3
S11330E0E756F24D8083FF91EF91BF91AF919F918D
S11330F08F910F900FBE0F901F9018951F920F92F3
S11331000FB60F9211248F939F93AF93BF93EF93B6
S1133110FF93A1EABFE2EC9181E08E0F8C93F0E083
S1133120E256F14D90819093620890919F2F8917F8
S113313040F0E0E6F8E085818F7D858381E080932F
S1133140A22FFF91EF91BF91AF919F918F910F901B
S11331500FBE0F901F9018950E948F160E94B618EC
S113316088ED84BF81E0809300010895E0E4F4E0F9
S113317088E086838183ADE8B0E21197F1F700001F
S1133180858308955058BB27AA270E94DA180C9407
S11331901E1A0E94101A38F00E94171A20F039F4EF
S11331A09F3F19F426F40C940D1A0EF4E095E7FBF6
S11331B00C94071AE92F0E942F1A58F3BA176207C2
S11331C073078407950720F079F4A6F50C94511A37
S11331D00EF4E0950B2EBA2FA02D0B01B90190012E
S11331E00C01CA01A0011124FF27591B99F0593F72
S11331F050F4503E68F11A16F040A22F232F342FBA
S11332004427585FF3CF469537952795A795F04007
S11332105395C9F77EF41F16BA0B620B730B840B1C
S1133220BAF09150A1F0FF0FBB1F661F771F881FD4
S1133230C2F70EC0BA0F621F731F841F48F487952C
S113324077956795B795F7959E3F08F0B0CF93951E
S1133250880F08F09927EE0F9795879508950E9497
S1133260E31908F481E008950E9448190C941E1A89
S11332700E94171A58F00E94101A40F029F45F3F78
S113328029F00C94071A51110C94521A0C940D1A2B
S11332900E942F1A68F39923B1F3552391F3951BD8
S11332A0550BBB27AA2762177307840738F09F5F63
S11332B05F4F220F331F441FAA1FA9F335D00E2ED0
S11332C03AF0E0E832D091505040E695001CCAF73D
S11332D02BD0FE2F29D0660F771F881FBB1F261700
S11332E037074807AB07B0E809F0BB0B802DBF01D7
S11332F0FF2793585F4F3AF09E3F510578F00C94A6
S1133300071A0C94521A5F3FE4F3983ED4F386955F
S113331077956795B795F7959F5FC9F7880F911DC6
S11333209695879597F90895E1E0660F771F881FB2
S1133330BB1F621773078407BA0720F0621B730B65
S1133340840BBA0BEE1F88F7E0950895E89409C042
S113335097FB3EF490958095709561957F4F8F4FC4
S11333609F4F9923A9F0F92F96E9BB279395F695DA
S1133370879577956795B795F111F8CFFAF4BB0F58
S113338011F460FF1BC06F5F7F4F8F4F9F4F16C0BC
S1133390882311F096E911C0772321F09EE8872F46
S11333A0762F05C0662371F096E8862F70E060E002
S11333B02AF09A95660F771F881FDAF7880F96957B
S11333C0879597F90895990F0008550FAA0BE0E81F
S11333D0FEEF16161706E807F907C0F012161306D3
S11333E0E407F50798F0621B730B840B950B39F413
S11333F00A2661F0232B242B252B21F408950A2679
S113340009F4A140A6958FEF811D811D089597F9B8
S11334109F6780E870E060E008959FEF80EC089576
S113342000240A941616170618060906089500249F
S11334300A9412161306140605060895092E039419
S1133440000C11F4882352F0BB0F40F4BF2B11F48D
S113345060FF04C06F5F7F4F8F4F9F4F089557FDEC
S11334609058440F551F59F05F3F71F04795880FEE
S113347097FB991F61F09F3F79F087950895121685
S113348013061406551FF2CF4695F1DF08C0161631
S113349017061806991FF1CF8695710561050894E2
S11334A00895E894BB2766277727CB0197F90895F9
S11334B00E94E31908F48FEF08950E94701A0C9487
S11334C01E1A0E94101A38F00E94171A20F0952331
S11334D011F00C94071A0C940D1A11240C94521A1E
S11334E00E942F1A70F3959FC1F3950F50E0551F5A
S11334F0629FF001729FBB27F00DB11D639FAA2745
S1133500F00DB11DAA1F649F6627B00DA11D661F93
S1133510829F2227B00DA11D621F739FB00DA11DB4
S1133520621F839FA00D611D221F749F3327A00D6E
S1133530611D231F849F600D211D822F762F6A2F0A
S113354011249F5750409AF0F1F088234AF0EE0F6F
S1133550FF1FBB1F661F771F881F91505040A9F79C
S11335609E3F510580F00C94071A0C94521A5F3F49
S1133570E4F3983ED4F3869577956795B795F795D8
S1133580E7959F5FC1F7FE2B880F911D9695879550
S113359097F90895A0E1B0E0E0EDFAE10C948B1EF8
S11335A07C011B016A01FC0116821782838181FF61
S11335B044C39E012F5F3F4F3901F7019381F1010D
S11335C093FD859193FF81911F01882309F431C3F1
S11335D0853239F493FD859193FF81911F018532E2
S11335E039F4B70190E00E943D2056016501E5CF12
S11335F010E0512C912CFFE1F915D8F08B3279F0C1
S113360038F4803279F08332A1F4F92DF0612EC0C0
S11336108D3261F0803369F4292D21602DC0392D5C
S11336203260932E892D8460982E2AC0E92DE8609B
S113363015C097FC2DC020ED280F2A3088F496FE83
S113364006C03AE0139F200D1124122F19C08AE0FE
S1133650589E200D1124522EE92DE0629E2E10C09A
S11336608E3231F496FCE5C2F92DF0649F2E08C029
S11336708C3621F4292D2068922E02C0883641F41C
S1133680F10193FD859193FF81911F018111B3CFC6
S11336909BEB980F933020F4992D9061805E07C0C6
S11336A09BE9980F933008F066C1992D9F7E96FF91
S11336B016E09F73992E853619F49064992E08C0EC
S11336C0863621F4392F3068932E02C0111111501F
S11336D097FE07C01C3350F444244394410E27E062
S11336E00BC0183038F027E017E005C027E09CE352
S11336F0492E02C0212F412C560184E0A80EB11C92
S1133700F6016081718182819381042DA3010E945D
S1133710281F6C01F981FC87F0FF02C0F3FF06C08B
S113372091FC06C092FE06C000E205C00DE203C093
S11337300BE201C000E08C858C7019F001115AC2B3
S11337409BC297FE10C04C0CFC85F4FF04C08A8118
S1133750813309F44A94141474F528E0241578F597
S113376088E0482E2CC096FC2AC0812F90E08C154E
S11337709D059CF03CEFC3163FEFD30674F0892DF2
S11337808068982E0AC0E2E0F0E0EC0FFD1FE10F24
S1133790F11D8081803319F411501111F4CF97FE7B
S11337A00EC044244394410E812F90E0C816D906DC
S11337B02CF41C1904C04424439401C010E097FE67
S11337C006C01C141D0434F4C601019605C085E02E
S11337D090E002C081E090E001110196112331F0E4
S11337E0212F30E02F5F3F4F820F931F252D30E0B4
S11337F08217930714F4581A01C0512C892D89702B
S113380049F4552039F0B70180E290E00E943D2050
S11338105A94F7CF002329F0B701802F90E00E943B
S11338203D2093FC09C0552039F0B70180E390E0B6
S11338300E943D205A94F7CF97FE4CC04601D7FE14
S113384002C0812C912CC60188199909F301E80F53
S1133850F91FED87FE879601241931092F87388BCC
S1133860012F10E01195019511093FEF831693067E
S113387029F4B7018EE290E00E943D20C814D904D7
S11338804CF08F8598898815990524F4ED85FE857B
S1133890818101C080E3F1E08F1A91082D853E8576
S11338A02F5F3F4F2D873E87801691062CF0B7017E
S11338B090E00E943D20D9CFC814D90441F49A81E4
S11338C0963320F4953319F43C8534FF81E3B70132
S11338D090E04EC08A81813319F09C859F7E9C873D
S11338E0B70190E00E943D20111105C094FC18C05E
S11338F085E690E017C0B7018EE290E00E943D207B
S11339001E5F82E001E0080FF301E80FF11D8081E2
S1133910B70190E00E943D20802F0113F3CFE6CF42
S113392085E490E0B7010E943D20D7FC06C0C11495
S1133930D10441F4EC85E4FF05C0D194C194D108CD
S11339408DE201C08BE2B70190E00E943D2080E34C
S11339502AE0C216D1042CF08F5FFAE0CF1AD10806
S1133960F7CFB70190E00E943D20B701C601C09691
S11339700E943D2054C1833631F0833779F083357A
S113398009F056C020C0560132E0A30EB11CF60166
S11339908081898301E010E0630112C05601F2E0E6
S11339A0AF0EB11CF601C080D18096FE03C0612F1A
S11339B070E002C06FEF7FEFC6010E941D208C01F2
S11339C0F92DFF7714C0560122E0A20EB11CF601B6
S11339D0C080D18096FE03C0612F70E002C06FEFFB
S11339E07FEFC6010E9400208C01F92DF0689F2E04
S11339F0F3FD1AC0852D90E008171907A8F4B70144
S1133A0080E290E00E943D205A94F4CFF60197FCA6
S1133A10859197FE81916F01B70190E00E943D204E
S1133A2051105A94015011090115110579F7F7C085
S1133A30843611F0893661F5560197FE09C024E0F9
S1133A40A20EB11CF60160817181828193810AC04A
S1133A50F2E0AF0EB11CF60160817181072E000CFB
S1133A60880B990BF92DFF769F2E97FF09C090952F
S1133A708095709561957F4F8F4F9F4FF0689F2E73
S1133A802AE030E0A3010E949B20C82EC6183FC044
S1133A90092D853721F40F7E2AE030E01DC0097F0F
S1133AA08F3691F018F4883559F0C3C0803719F077
S1133AB0883711F0BEC0006104FF09C0046007C06C
S1133AC094FE08C0066006C028E030E005C020E18E
S1133AD030E002C020E132E0560107FF09C084E073
S1133AE0A80EB11CF601608171818281938108C0A6
S1133AF0F2E0AF0EB11CF6016081718180E090E0CC
S1133B00A3010E949B20C82EC6180F77902E96FE04
S1133B100BC0092D0E7FC11650F494FE0AC092FC0E
S1133B2008C0092D0E7E05C0DC2C092D03C0DC2C39
S1133B3001C0D12E04FF0DC0FE01EC0DF11D8081EA
S1133B40803311F4097E09C002FF06C0D394D394D4
S1133B5004C0802F867809F0D39403FD11C000FFC0
S1133B6006C01C2DD51480F4150D1D190DC0D514D7
S1133B7058F4B70180E290E00E943D20D394F7CF3F
S1133B80D51410F45D1801C0512C04FF10C0B70106
S1133B9080E390E00E943D2002FF17C001FD03C0B6
S1133BA088E790E002C088E590E0B7010CC0802F60
S1133BB0867859F001FF02C08BE201C080E207FD64
S1133BC08DE2B70190E00E943D20C11638F4B701A0
S1133BD080E390E00E943D201150F7CFCA94F30196
S1133BE0EC0DF11D8081B70190E00E943D20C110D1
S1133BF0F5CF15C0F4E0F51560F584E0581A93FE8E
S1133C001FC0011127C02C8523FF2AC000E511E045
S1133C10392D3071932EF8018491811124C05520DF
S1133C2009F4E4CCB70180E290E00E943D205A946C
S1133C30F6CFF7018681978126C08FEF9FEF23C0CF
S1133C40B70180E290E00E943D205A945110F8CFD1
S1133C50D8CF512CB701802F90E00E943D20D3CFC4
S1133C6004E511E0D5CF91108052B70190E00E9495
S1133C703D200F5F1F4FCFCF23E0251510F483E0C5
S1133C80BDCF512CC0CF6096E2E10C94A41E97FBEB
S1133C90072E16F4009407D077FD09D00E94BC1EAD
S1133CA007FC05D03EF4909581959F4F089570953B
S1133CB061957F4F0895052E97FB1EF400940E9492
S1133CC0721E57FD07D00E94D01E07FC03D04EF48D
S1133CD00C94721E50954095309521953F4F4F4F4F
S1133CE05F4F089590958095709561957F4F8F4FA4
S1133CF09F4F0895EE0FFF1F0590F491E02D099456
S1133D000E94F21EA59F900DB49F900DA49F800D5C
S1133D10911D112408952F923F924F925F926F92BA
S1133D207F928F929F92AF92BF92CF92DF92EF9247
S1133D30FF920F931F93CF93DF93CDB7DEB7CA1BC8
S1133D40DB0BCDBFDEBF09942A88398848885F849D
S1133D506E847D848C849B84AA84B984C884DF8027
S1133D60EE80FD800C811B81AA81B981CE0FD11D0B
S1133D70CDBFDEBFED010895AA1BBB1B51E107C0F7
S1133D80AA1FBB1FA617B70710F0A61BB70B881FE7
S1133D90991F5A95A9F780959095BC01CD01089576
S1133DA0A1E21A2EAA1BBB1BFD010DC0AA1FBB1F3B
S1133DB0EE1FFF1FA217B307E407F50720F0A21BAD
S1133DC0B30BE40BF50B661F771F881F991F1A941A
S1133DD069F760957095809590959B01AC01BD0144
S1133DE0CF010895A29FB001B39FC001A39F700D9E
S1133DF0811D1124911DB29F700D811D1124911DEF
S1133E0008951F93FC0199278827BC01E894119118
S1133E101032E9F3193010F01E30C8F31B3251F0A0
S1133E201D3249F4689406C00E942820610F711D58
S1133E30811D911D119110531A30B0F33EF49095E9
S1133E408095709561957F4F8F4F9F4F1F91089577
S1133E50283008F027E03327DA01990F311D87FD58
S1133E60916000966105710539F432602E5F3D93CF
S1133E7030E32A95E1F708959F3F30F080387105CB
S1133E80610509F03C5F3C5F3D93913008F0806828
S1133E90911DDF93CF931F930F93FF92EF92192FEE
S1133EA0987F9695E92F96959695E90FFF27EE54FE
S1133EB0FE4F99273327EE24FF24A701E70105903D
S1133EC00894079428F4360FE71EF81E491F511D65
S1133ED0660F771F881F991F0694A1F70590079412
S1133EE028F4E70EF81E491F561FC11D770F881FBF
S1133EF0991F661F0694A1F70590079428F4F80EFD
S1133F00491F561FC71FD11D880F991F661F771F92
S1133F100694A1F70590079420F4490F561FC71F74
S1133F20D81F990F661F771F881F0694A9F78491DD
S1133F301095177041F0D695C79557954795F79406
S1133F40E7941A95C1F7E8E5F1E0689415901591A6
S1133F5035916591959105907FE27395E118F10A89
S1133F60430B560BC90BD009C0F7E10CF11E431FDC
S1133F70561FC91FD01D7EF4703311F48A95E6CF05
S1133F80E894015030F0080F0AF40027021708F4EF
S1133F90202F2395022F7A3328F079E37D932A95F5
S1133FA0E9F710C07D932A9589F60694979567954D
S1133FB0379517951794E118F10A430B560BC90B63
S1133FC0D00998F023957E9173957A3308F070E3C5
S1133FD07C932013B8F77E9170617D9330F08395C4
S1133FE071E37D9370E32A95E1F71124EF90FF903C
S1133FF00F911F91CF91DF91992787FD9095089597
S1134000FC010590615070400110D8F7809590959F
S11340108E0F9F1F0895FB01DC010D900020E9F72E
S1134020119701900D920020E1F70895FB01DC0146
S113403001900D920020E1F70895FC016150704059
S113404001900110D8F7809590958E0F9F1F0895C9
S1134050592F482F372F262F660F771F881F991F38
S1134060660F771F881F991F620F731F841F951F88
S1134070660F771F881F991F08950F931F93CF937F
S1134080DF93FB01238121FD03C08FEF9FEF2CC041
S113409022FF16C046815781248135814217530778
S11340A044F4A081B1819D012F5F3F4F2083318370
S11340B08C93268137812F5F3F4F2683378314C02B
S11340C08B01EC01FB010084F185E02D0995892B1E
S11340D0E1F6D80116968D919C9117970196169644
S11340E08D939C931797CE01DF91CF911F910F91E0
S11340F00895AEE0B0E0EFE7F0E20C94991E0D896C
S11341001E8986E08C8309831A838FEF9FE78D8352
S11341109E83AE01475E5F4F6F89788DCE01019615
S11341200E94CA1AEF81F885E00FF11F10822E96C3
S1134130E4E00C94B21EFA01AA27283051F1203190
S113414081F1E8946F936E7F6E5F7F4F8F4F9F4F27
S1134150AF4FB1E03ED0B4E03CD0670F781F891F69
S11341609A1FA11D680F791F8A1F911DA11D6A0F37
S1134170711D811D911DA11D20D009F468943F91EA
S11341802AE0269F11243019305D3193DEF6CF01E9
S11341900895462F4770405D4193B3E00FD0C9F7AF
S11341A0F6CF462F4F70405D4A3318F0495D31FD1C
S11341B04052419302D0A9F7EACFB4E0A69597956F
S11341C0879577956795BA95C9F700976105710545
S11341D008959B01AC010A2E06945795479537958F
S11341E02795BA95C9F7620F731F841F951FA01DE9
S11341F0089560507C4E0C943421DC01A40FB51F4B
S11342004150504048F0CB01840F951F2E910E94DD
S11342100E2141505040D0F70895262F0E9430219E
S11342200080021619F00E94192101970197089540
S1134230262FAF93BF93E0E0F0E1328131FDFDCF53
S1134240DC01A050BC4E2C932DE924BF23E0208335
S11342500196BF91AF91089503D080819927089565
S1134260FC01E050FC4E0895FB01DC0102C001900A
S11142700D9241505040D8F70895F894FFCFB6
S113427E24532564434D442C2573003230253032AB
S113428E782D253032782D253032785425303278F9
S113429E3A253032783A2530327800437572726599
S11342AE6E7454696D653F00323032312D30332DCA
S11342BE303400737065634D6563682056657273A0
S11342CE696F6E002A253032580D0A002453256476
S11342DE4552522C25642C257300202020202020AA
S11342EE2020202020202020202000626F746800CF
S11342FE6C656674007269676874007368757474AB
S113430E657200436C6F7365202573004F70656E84
S113431E2025730054656D7020262048756D6964E0
S113432E6974790025312E3166432025312E30668D
S113433E462025312E30662525004F7269656E7430
S113434E6174696F6E0054696D6500445333323382
S113435E31005265645661632020426C7565566166
S113436E630024532564454E562C25732C25332E79
S113437E3166432C25312E306625252C25332E31DE
S113438E66432C25312E306625252C25332E316699
S113439E432C25312E306625252C25332E316643AC
S11343AE2C257300245325644D54522C25732C252F
S11343BE632C256C642C6D6963726F6E732C256C83
S11343CE642C6D6963726F6E732F7365632C256431
S11343DE2C6D412C257300245325644F52492C25F2
S11343EE732C25332E31662C25332E31662C253332
S11343FE2E31662C25730025322E30662025322E62
S113440E30662025322E30660024532564504E55D6
S113441E2C25732C25632C736875747465722C2586
S113442E632C6C6566742C25632C72696768742C16
S113443E25632C6169722C2573006C6566743A25AC
S113444E6320202072696768743A25630073687567
S113445E747465723A256320206169723A2563008B
S113446E2453256454494D2C25732C25732C7365C4
S113447E742C25732C626F6F742C257300245325B2
S113448E645641432C25732C25352E32662C7265C9
S113449E647661632C25352E32662C626C756576D6
S11344AE61632C25730025322E3266202025322E90
S11344BE326600245325645645522C25732C2573DD
S11344CE2C2573007469636B73203D2025640D0ADB
S10444DE00D9
S10544DF0100D6
S9030000FC
