S0100000737065634D6563682E73726563EC
S11300000C9406010C9423010C9423010C94B61255
S11300100C9423010C9423010C9423010C942301CC
S11300200C9423010C9423010C9423010C942301BC
S11300300C9423010C9423010C9423010C942301AC
S11300400C9423010C945F140C9493140C942301CA
S11300500C94340D0C9423010C9423010C9423016F
S11300600C9423010C9423010C94C3140C94F814E1
S11300700C9423010C9436070C9423010C94230153
S11300800C9423010C9423010C9423010C9423015C
S11300900C9423010C9426150C945B150C942301E9
S11300A03C0E701270127012701270127012701274
S11300B0701270127012701270127012701270122C
S11300C070127012701270121D127012701270126F
S11300D0701270127012701270127012701270120C
S11300E0701270127012870E7012701270127012E9
S11300F070127012701270127012C00FAF10701262
S1130100701270124E117012AE116E616E00696E33
S1130110660000407A10F35A00A0724E18090010CD
S1130120A5D4E80000E87648170000E40B54020068
S113013000CA9A3B000000E1F50500008096980093
S1130140000040420F000000A086010000001027BC
S113015000000000E803000000006400000000004C
S11301600A00000000000100000000002C76D8887E
S1130170DC674F0823DFC1DFAE59E1B1B796E5E391
S1130180E453C63AE651997696E8E6C28426EB89AA
S11301908C9B62ED407C6FFCEFBC9C9F40F2BAA547
S11301A06FA5F490055A2AF75C936B6CF9676DC1DF
S11301B01BFCE0E40D47FEF520E6B500D0ED902EE3
S11301C00300943577050080841E080000204E0A41
S11301D0000000C80C333333330F986E128311417F
S11301E0EF8D2114893BE65516CFFEE6DB18D1844A
S11301F04B381BF77C1D901DA4BBE4242032847271
S11302005E228100C9F124ECA1E53D2711241FBE23
S1130210CFEFCDBFDFE3DEBF18E2A0E0B8E2EBE151
S1130220FDE302C005900D92A230B107D9F72DE28B
S1130230A2E0B8E201C01D92AE32B207E1F70E941B
S1130240B5070C94731D0C940000CF92DF92EF92CB
S1130250FF92CF938130C9F018F0823061F010C062
S11302600F2EF3E3CF2EDC2CF3EFEF2EF0E4FF2E72
S1130270F02DC1E00EC0C12CD12C7601C0E109C023
S1130280C12CD12C7601C0E004C0C12CD12C760144
S1130290C4E040E066E087E20E94D8074C2F409516
S11302A060E087E20E94D8074C2F6AE087E20E9450
S11302B0D80786E18A95F1F7000020E840E768E076
S11302C088E40E947B0120E030E04AE754E40E9485
S11302D02A1723E333E948E853E40E948F159B016E
S11302E0AC01C701B6010E949015CF91FF90EF9029
S11302F0DF90CF900895CF92DF92EF92FF920F9309
S11303001F93CF93DF93D82FF62E462BC42FC168AB
S1130310122F136060E00E946C13082F882369F089
S11303200E949013602F70E080E090E00E947316AA
S1130330562F472F382F292FD0C081E00E949413C5
S1130340082F882369F00E949013602F70E080E0EA
S113035090E00E947316562F472F382F292FBDC0C7
S11303608C2F0E949413C82F882369F00E94901345
S11303706C2F70E080E090E00E947316562F472F98
S1130380382F292FAAC0812F0E949413C82F8823A5
S113039069F00E9490136C2F70E080E090E00E945E
S11303A07316562F472F382F292F97C00E9490136A
S11303B08CE18A95F1F7C1E009C061E08D2F0E94BC
S11303C06C130E945F1388230CF4C0E0C111F5CFB5
S11303D00E94901360E08D2F0E946C1380E00E94B5
S11303E0941361E08D2F0E946C130E944F13C82F49
S11303F00E945F13D82F0E9490136C2F70E0762F09
S113040066276D2B84E0F81649F18F1530F0FF2034
S1130410D9F182E0F81669F142C088E0F81609F4CF
S113042042C08AE0F81621F086E0F81238C00BC00A
S11304300F2EF4E7CF2EF3E1DF2EF3E0EF2EF7E3F8
S1130440FF2EF02D3AC00F2EF4E7CF2EF3E1DF2E6E
S1130450F3E0EF2EF8E3FF2EF02D2FC00F2EF2E184
S1130460CF2EF3E1DF2EF3E8EF2EF8E3FF2EF02D8D
S113047024C00F2EF4E7CF2EF3E1DF2EF3E0EF2EAE
S1130480F9E3FF2EF02D19C00F2EFEE2CF2EFDE969
S1130490DF2EF4E4EF2EF9E3FF2EF02D0EC0C12C75
S11304A0D12C76010AC00F2EF1E7CF2EF3E1DF2E17
S11304B0F3E8EF2EF7E3FF2EF02D072E000C880B48
S11304C0990B0E9475169B01AC01C701B6010E94ED
S11304D02A17562F472F382F292F652F742F832F34
S11304E0922FDF91CF911F910F91FF90EF90DF90AA
S11304F0CF900895E0E2F4E084E0858381838683ED
S113050008950F931F93CF93DF93CDB7DEB7C559EB
S1130510D109CDBFDEBF2BE0EAEEFAE7DE0111968A
S113052001900D922A95E1F72091A80422FF03C0BF
S113053022E030E002C021E030E09F938F933F93AC
S11305402F93CE0101969F938F938E01045F1F4FCB
S11305501F930F930E94AF1CC8010E947909F801F0
S113056001900020E9F73197AF01401B510BB8010E
S113057080E00E94F013CDBFDEBFCB56DF4FCDBF6E
S1130580DEBFDF91CF911F910F9108959FE9980FDE
S11305909A3128F081548A3120F481E0089581E071
S11305A0089580E00895EF92FF921F93CF93DF9315
S11305B0EC01E62EF12C84E38E9DF0018F9DF00D6D
S11305C01124ED5FF74D8FE380838183128213A69C
S11305D004C0112309F475C021961881812F0E944B
S11305E0C6028823B1F3219684E38E9DF0018F9D8A
S11305F0F00D1124ED5FF74D108304C0112309F4AD
S113060060C021961881812F0E94C6028823B1F30D
S1130610219684E38E9DF0018F9DF00D1124ED5FF2
S1130620F74D118380E02AC0988191110CC094E3A6
S11306309E9DF0019F9DF00D1124ED5FF74DE80F95
S1130640F11D12823EC09B3361F494E39E9DF00140
S11306509F9DF00D1124ED5FF74DE80FF11D1282FF
S11306600FC0219624E32E9DF0012F9DF00D11243F
S1130670ED5FF74DE80FF11D92838F5F8932A0F291
S1130680219680E01CC0988191110CC094E39E9D3A
S1130690F0019F9DF00D1124ED5FF74DE80FF11D62
S11306A013A60FC0219624E32E9DF0012F9DF00D7B
S11306B01124ED5FF74DE80FF11D93A78F5F89308B
S11306C010F3DF91CF911F91FF90EF9008950F9356
S11306D01F93CF93DF93CDB7DEB76D97CDBFDEBF4A
S11306E02EE330E029833A8321E230E02B833C83FC
S11306F0813009F43FC018F08230B9F051C08E0146
S11307000B5F1F4FBE016F5F7F4FC8010E94611CCA
S1130710F80101900020E9F73197AF01401B510B1C
S1130720B80180E00E94F01350C08E010B5F1F4F90
S1130730C8010E94C209F80101900020E9F731972D
S1130740AF01401B510BB80180E00E94F013BE01C1
S11307506F5F7F4FC8010E94611CF8010190002067
S1130760E9F73197AF01401B510BB80180E00E94BB
S1130770F0132BC08E010B5F1F4FBE016D5F7F4FC7
S1130780C8010E94611CF80101900020E9F731972B
S1130790AF01401B510BB80180E00E94F01315C05B
S11307A08E010B5F1F4FBE016D5F7F4FC8010E941A
S11307B0611CF80101900020E9F73197AF01401B5B
S11307C0510BB80180E00E94F0136D96CDBFDEBFDF
S11307D0DF91CF911F910F910895CF93DF93CDB700
S11307E0DEB7C058D109CDBFDEBFE0E2F4E084E05B
S11307F08583A2ECB2EA1197F1F700C0868320E06A
S11308001CC08091162B90E0FC01EB56F54D308115
S1130810E1E0F0E0EC0FFD1FE20FF11D30830196E3
S11308208F779078992324F4019780689F6F0196BD
S11308308093162B332319F02F5F222314F7809112
S113084000288823B9F08981813221F081E00E9457
S1130850670365C08FEF91E00E94881285E090E005
S113086080930D2A90930E2A80E00E9467031092D1
S1130870002855C0CE0101960E9481028981811110
S113088003C00E9467034BC060910228CE01019609
S11308900E94D30280910228B4E38B9FF0011124BB
S11308A0ED5FF74D908121819F3681F028F49235D8
S11308B0D1F0933631F025C0923769F0933779F04F
S11308C020C0822F0E94100C282F1CC0822F0E944F
S11308D0A20C282F17C00E949E0D282F13C00E941F
S11308E0FB12282F0FC080E00E9467032AE684E0F1
S11308F091E0215080409040E1F700C00E948915AA
S11309000EC022E08091022890E001966AE070E037
S11309100E94141B80930228822F0E946703C058F0
S1130920DF4FCDBFDEBFDF91CF910895FB01708112
S1130930618152814481358126811F927F931F9268
S11309406F931F925F931F924F931F923F931F9237
S11309502F9325EF3AE73F932F939F938F930E9412
S1130960AF1C8DB79EB740968DBF9EBF0895DC0126
S1130970FB01818990E0C09782959295907F98279A
S1130980807F982792899053892B8C93868590E059
S1130990C09782959295907F9827807F9827978516
S11309A09053892B11968C931197838590E0C0976F
S11309B082959295907F9827807F9827948590536D
S11309C0892B12968C93129781E013968C9313972C
S11309D0808590E0C09782959295907F9827807F3C
S11309E0982791859053892B14968C93149725817D
S11309F030E02053310922953295307F3227207F11
S1130A00322786818053282B15962C9315972281A3
S1130A1030E02053310922953295307F3227207FF0
S1130A20322783818053282B16962C930895EF92B6
S1130A30FF920F931F93CF937B0160E00E946C138E
S1130A40C82F882321F00E9490138C2F28C080E0A7
S1130A500E949413C82F882321F00E9490138C2F96
S1130A601EC061E088E60E946C13C82F882369F0D9
S1130A700E9490138C2F13C087010C0F111D0E942C
S1130A804F13F8018083CF5F01C0C0E0C630A0F3EC
S1130A900E945F13F70186830E94901380E0CF9138
S1130AA01F910F91FF90EF9008950F931F93CF9391
S1130AB0DF93CDB7DEB72797CDBFDEBF8C01BE0174
S1130AC06F5F7F4F88E60E941705882349F092E103
S1130AD0E5E1FBE7D80101900D929A95E1F707C093
S1130AE0BE016F5F7F4FC8010E94960480E0279685
S1130AF0CDBFDEBFDF91CF911F910F910895EF928B
S1130B00FF920F931F93CF93DF938B0160E00E94BA
S1130B106C13C82F882321F00E9490138C2F22C0BD
S1130B2080E00E949413C82F8823B1F00E94901390
S1130B308C2F18C078018FEFE81AF80AF801808129
S1130B400E949413C82F882321F00E9490138C2FA5
S1130B5009C0DF5F870101C0D0E0D73058F30E949D
S1130B60901380E0DF91CF911F910F91FF90EF9050
S1130B700895CF93DF93CDB7DEB72797CDBFDEBF00
S1130B80BC01CE0101960E94B704BE016F5F7F4F86
S1130B9088E60E947F052796CDBFDEBFDF91CF9107
S1130BA0089545E150E06BE070E00E942F1D089528
S1130BB04BE050E060E070E00E942F1D0895CF9359
S1130BC0DF93CDB7DEB76597CDBFDEBFCE0101960B
S1130BD00E94550545E150E06BE070E0CE010196BE
S1130BE00E94331D6596CDBFDEBFDF91CF9108957E
S1130BF0CF93DF93CDB7DEB72B97CDBFDEBF8BE0AE
S1130C00E7E2FBE7DE01119601900D928A95E1F788
S1130C104BE050E060E070E0CE0101960E94331D8D
S1130C202B96CDBFDEBFDF91CF9108950E94DF05E3
S1130C300E94F8050895EF92FF920F931F93CF93AC
S1130C40DF93C82FE62EF72E8A01D22F60E00E9490
S1130C506C1381112BC08F2D0E949413811126C017
S1130C608E2D0E949413811121C061E08C2F0E946B
S1130C706C1381111BC0C0E008C07801EC0EF11C9C
S1130C800E944F13F7018083CF5F2C2F30E08D2F0C
S1130C9090E001972817390784F3EC01C00FD11FA6
S1130CA00E945F1388830E94901380E0DF91CF91AC
S1130CB01F910F91FF90EF900895EF92FF920F9381
S1130CC01F93CF93DF93F62E172FEA01022F60E0D4
S1130CD00E946C1381111CC0812F0E9494138111F6
S1130CE017C08F2D0E949413811112C010E00BC005
S1130CF07E018FEFE81AF80A88810E94941381110B
S1130D0007C01F5FE701101798F30E94901380E05B
S1130D10DF91CF911F910F91FF90EF9008958F92E3
S1130D209F92AF92BF92CF92DF92EF92FF92813067
S1130D3059F018F0823079F015C080E00E94341325
S1130D404B015C0140E417C081E00E9434134B0165
S1130D505C0140E510C082E00E9434134B015C0149
S1130D6040E609C00F2E812C912CF0EAAF2EF1E45D
S1130D70BF2EF02D40E520E860E088E40E947B016E
S1130D8020E030E040EA50E40E9401162AE037ED0A
S1130D9043E25EE30E948F152FE539E24BEC5BE3FF
S1130DA00E9401166B017C0129EC3EE84DE05BE3F7
S1130DB0C501B4010E942A179B01AC0162E27DEFD8
S1130DC086E89FE30E948F159B01AC01C701B60121
S1130DD00E940116FF90EF90DF90CF90BF90AF90EC
S1130DE09F908F900895CF93DF93CDB7DEB72B9765
S1130DF0CDBFDEBF0E94660D8BE08093B6040E94D7
S1130E002C130E94AF070E947A0280E290E00E94B5
S1130E1088120E94A9130E9444130E9447090E9449
S1130E20550B80E00E940D0A81E00E940D0A0E9489
S1130E30160680EE91E080930D2A90930E2ACE013F
S1130E4001960E94D80541E062E37BE781E00E94BD
S1130E50CD0A42E0BE016F5F7F4F81E00E94CD0A60
S1130E602B96CDBFDEBFDF91CF9108951F920F92D5
S1130E700FB60F9211242F933F934F935F936F9369
S1130E807F938F939F93AF93BF93EF93FF9380913F
S1130E90A90486FF05C080E48093A9040E948915F3
S1130EA0FF91EF91BF91AF919F918F917F916F913E
S1130EB05F914F913F912F910F900FBE0F901F9014
S1130EC01895CF92DF92EF92FF92813021F0823019
S1130ED079F540E301C040E020E862E089E40E9443
S1130EE07B016B017C012DEC3CEC4CEC5EE30E943D
S1130EF0FC15882314F120E030E040E050E4C70101
S1130F00B6010E9425171816ECF029E739EE42E0E5
S1130F1050E4C701B6010E942A172EE633EA4BEDCE
S1130F2050E40E948F15562F472F382F292F0EC0BB
S1130F305AE949EF39E724EC09C05AE949EF39E79E
S1130F4024EC04C05AE949EF39E724EC652F742FE7
S1130F50832F922FFF90EF90DF90CF900895E0EAD7
S1130F60F4E080E28583818308950E94F3067894F7
S1130F708091192B8823E1F31092192B0E94ED0321
S1130F80F7CFCF93DF93C82FD62F60E00E946C1366
S1130F908D2F0E94941361E08C2F0E946C130E9489
S1130FA05F13C82F0E9490138C2FDF91CF91089567
S1130FB01F93CF93DF93D62F142F60E00E946C13FE
S1130FC0C82F882321F00E9490138C2F17C08D2FD7
S1130FD00E949413C82F882321F00E9490138C2F11
S1130FE00DC0812F0E949413C82F882321F00E94E2
S1130FF090138C2F03C00E94901380E0DF91CF9157
S11310001F910895CF92DF92EF92FF921F93CF9397
S1131010DF9360E088E10E946C1385E00E949413E2
S113102061E088E10E946C130E944F13C82F0E9454
S11310305F13D82F0E9490131C2F10716C2F6F70A8
S113104070E080E090E00E94731620E030E040E819
S113105051E40E942A176B017C016D2F70E080E03F
S113106090E00E94731620E030E040E85DE30E94C7
S11310702A179B01AC01C701B6010E9490151123E8
S113108041F09B01AC0160E070E080E893E40E94D1
S11310908F15DF91CF911F91FF90EF90DF90CF904C
S11310A00895EF92FF920F931F93CF93DF93182F1E
S11310B0F62EEA01022F60E00E946C1381111EC01B
S11310C08F2D0E949413811119C061E0812F0E9419
S11310D06C13811113C011E009C07E018FEFE81A6F
S11310E0F80A0E944F1388831F5FE7011017A8F3C3
S11310F00E945F1388830E94901380E0DF91CF9158
S11311001F910F91FF90EF900895CF92DF92EF928D
S1131110FF920F931F93CF93DF93CDB7DEB726973C
S1131120CDBFDEBF6C017B018A018AE99FE3ACE19C
S1131130B6ECFA0180839183A283B383FB0180839D
S11311409183A283B383F60180839183A283B383C3
S113115026E0AE014F5F5F4F61E08DE10E945108D0
S1131160898190E0982F88272A81822BBC017723DC
S113117014F46D5F7F4F7595679575956795072E88
S1131180000C880B990B0E94751626E636E245E79B
S11311905EE30E942A17F60160837183828393833E
S11311A08B8190E0982F88272C81822BBC01772398
S11311B014F46D5F7F4F7595679575956795072E48
S11311C0000C880B990B0E94751626E636E245E75B
S11311D05EE30E942A17F7016083718382839383FD
S11311E08D8190E0982F88272E81822BBC01772354
S11311F014F46D5F7F4F7595679575956795072E08
S1131200000C880B990B0E94751626E636E245E71A
S11312105EE30E942A17F8016083718382839383BB
S113122080E02696CDBFDEBFDF91CF911F910F9155
S1131230FF90EF90DF90CF9008951F93CF93DF93AB
S1131240D62F142F60E00E946C13C82F882321F03E
S11312500E9490138C2F17C08D2F0E949413C82FB7
S1131260882321F00E9490138C2F0DC0812F0E949F
S11312709413C82F882321F00E9490138C2F03C04D
S11312800E94901380E0DF91CF911F910895CF9336
S1131290DF931F92CDB7DEB740E46BE28DE10E948D
S11312A01D0921E0AE014F5F5F4F6BE28DE10E94AB
S11312B0510808C021E0AE014F5F5F4F6BE28DE142
S11312C00E945108898186FDF5CF40EC6FE08DE1E5
S11312D00E941D0942E06BE28DE10E941D094DE36D
S11312E06AE28DE10E941D0989810F90DF91CF91FF
S11312F00895EF92FF920F931F93CF93DF93CDB78F
S1131300DEB72E97CDBFDEBF8C0188E0E3E4FBE7B8
S1131310DE01119601900D928A95E1F7F801019092
S11313200020E9F731973E2F301B90E081E006C0A2
S1131330F801E80FF11D208192278F5F8317C0F316
S11313401F929F93CE0101969F938F937E0189E014
S1131350E80EF11CFF92EF920E94AF1CB701C80186
S11313600E94561C0F900F900F900F900F900F90AB
S11313702E96CDBFDEBFDF91CF911F910F91FF90CD
S1131380EF9008950F931F93CF93DF93CDB7DEB7FC
S11313902897CDBFDEBF082F192F88E0EBE4FBE7C9
S11313A0DE01119601900D928A95E1F78091A804CF
S11313B082FF03C082E090E002C081E090E09F934E
S11313C08F93CE0101969F938F931F930F930E9447
S11313D0AF1C802F912F0E9479090F900F900F90CE
S11313E00F900F900F902896CDBFDEBFDF91CF9165
S11313F01F910F910895CF93DF93D62FC42F60E0F0
S11314000E946C138D2F0E9494138C2F0E949413AE
S11314100E949013DF91CF910895CF93E0E6F4E01A
S113142090E496839183A1E4B3E01197F1F700006F
S11314309583811102C0CCE301C0CDE34AE260E0B0
S11314408C2F0E94FB0941E760E08C2F0E94FB096E
S11314504CE560E48C2F0E94FB0948E260E08C2F8D
S11314600E94FB0948E060E08C2F0E94FB094AE2DD
S113147060E08C2F0E94FB0949E760E08C2F0E94FA
S1131480FB0945ED60E08C2F0E94FB0940E760E01A
S11314908C2F0E94FB0948E760E08C2F0E94FB0917
S11314A048E060E08C2F0E94FB0946E060E08C2F4E
S11314B00E94FB0942E760E08C2F0E94FB0940E098
S11314C060E48C2F0E94FB094AE260E08C2F0E94AA
S11314D0FB0949E760E08C2F0E94FB094AED60E0BC
S11314E08C2F0E94FB0940E060E08C2F0E94FB09D6
S11314F04CED60E08C2F0E94FB0940E060E08C2FF3
S11315000E94FB0941E860E08C2F0E94FB094FE731
S113151060E08C2F0E94FB0949ED60E08C2F0E9453
S1131520FB0941EF60E08C2F0E94FB094BED60E06A
S11315308C2F0E94FB0940E460E08C2F0E94FB0981
S113154048E760E08C2F0E94FB0948E260E08C2FA2
S11315500E94FB0941E060E08C2F0E94FB0940E8F7
S113156060E08C2F0E94FB094CE060E08C2F0E940D
S1131570FB09BAE624E081E0B15020408040E1F765
S113158000C010920B2A10920C2A85E090E0809300
S11315900D2A90930E2ACF910895EF92FF920F9304
S11315A01F93CF93DF93CDB7DEB7E297CDBFDEBFF6
S11315B0142F91E1E3E5FBE7DE01929601900D9291
S11315C09A95E1F7811102C00CE301C00DE3CE014D
S11315D001967C010E94611CF70101900020E9F74B
S11315E03197EE19FF09719708F0198ABE016E5DF3
S11315F07F4FCE0101960E94561C113039F440E809
S113160060E0802F0E94FB0910E012C040EC60E013
S1131610802F0E94FB09F8CFE1E0F0E0EC0FFD1F02
S1131620E10FF11D408160E4802F0E94FB091F5FE0
S1131630103190F381E090E080930B2A90930C2A70
S1131640E296CDBFDEBFDF91CF911F910F91FF9046
S1131650EF9008951F93CF93DF93CDB7DEB76197D3
S1131660CDBFDEBF182F81E1E3E5FBE7DE01119674
S113167001900D928A95E1F741E0BE016F5F7F4FC3
S1131680812F0E94CD0A42E0BE016F5F7F4F812F00
S11316900E94CD0A10920B2A10920C2A6196CDBF9B
S11316A0DEBFDF91CF911F91089540E060E084E2B6
S11316B00E94D807811135C040E06AE084E20E94AC
S11316C0D80781112EC04EEF60E081E20E94D80756
S11316D0811127C040E061E081E20E94D8078111B6
S11316E020C04CEF62E081E20E94D807811119C04A
S11316F040E064E081E20E94D807811112C040E218
S113170065E081E20E94D80781110BC04FE766E0D3
S113171081E20E94D807811104C089E08093770494
S113172080E00895CF92DF92EF92FF920F931F9380
S1131730CF93DF936C018B017A01E90169E081E2C7
S11317400E94C107982F9295969596959370913023
S113175021F493E6F60190830FC0923021F49FE6C2
S1131760F601908309C0933021F494E7F601908345
S113177003C098E7F6019083982F969596959370F9
S1131780913021F493E6F70190830FC0923021F455
S11317909FE6F701908309C0933021F494E7F701A1
S11317A0908303C098E7F7019083982F92959F70D8
S11317B09370913021F49FE6F80190830FC092302A
S11317C021F493E6F801908309C0933021F494E75F
S11317D0F801908303C098E7F801908381FF03C068
S11317E080E3888302C081E38883DF91CF911F91D6
S11317F00F91FF90EF90DF90CF900895CF93DF93F8
S1131800D82FC62F69E084E20E94C1078D2B482F90
S11318104C236AE084E20E94D807DF91CF910895B7
S1131820CF93DF93CDB7DEB76A97CDBFDEBF99E024
S1131830ECE7FBE7DE01119601900D929A95E1F732
S11318408C3631F118F4823639F075C08237C1F123
S1131850833709F44DC06FC06AEE84E40E94FE0B26
S113186066EE88E80E94FE0B84E69BE79F938F93C5
S1131870CE0101969F938F9309969F938F930E9415
S1131880AF1C0F900F900F900F900F900F9047C0C8
S11318906AEE84E40E94FE0B89E69BE79F938F9394
S11318A0CE0101969F938F9309969F938F930E94E5
S11318B0AF1C0F900F900F900F900F900F902FC0B0
S11318C066EE88E80E94FE0B8EE69BE79F938F935B
S11318D0CE0101969F938F9309969F938F930E94B5
S11318E0AF1C0F900F900F900F900F900F9017C098
S11318F06CEE82E20E94FE0B84E79BE79F938F933A
S1131900CE0101969F938F9309969F938F930E9484
S1131910AF1C0F900F900F900F900F900F9081E0DD
S11319200E942A0B41E0BE01665F7F4F81E00E9466
S1131930CD0A80E001C082E06A96CDBFDEBFDF91B0
S1131940CF910895CF93DF93CDB7DEB76997CDBF1D
S1131950DEBF98E0E5E8FBE7DE01119601900D9209
S11319609A95E1F78C3631F118F4823639F075C066
S11319708237C1F1833709F44DC06FC06EEA84E445
S11319800E94FE0B6EE688E80E94FE0B84E69BE74D
S11319909F938F93CE0101969F938F9308969F9365
S11319A08F930E94AF1C0F900F900F900F900F9089
S11319B00F9047C06EEA84E40E94FE0B89E69BE721
S11319C09F938F93CE0101969F938F9308969F9335
S11319D08F930E94AF1C0F900F900F900F900F9059
S11319E00F902FC06EE688E80E94FE0B8EE69BE700
S11319F09F938F93CE0101969F938F9308969F9305
S1131A008F930E94AF1C0F900F900F900F900F9028
S1131A100F9017C06EEC82E20E94FE0B84E79BE7F6
S1131A209F938F93CE0101969F938F9308969F93D4
S1131A308F930E94AF1C0F900F900F900F900F90F8
S1131A400F9081E00E942A0B41E0BE01675F7F4F47
S1131A5081E00E94CD0A80E001C082E06996CDBF9A
S1131A60DEBFDF91CF9108951F920F920FB60F92B0
S1131A7011242F933F934F935F936F937F938F938F
S1131A809F93AF93BF93EF93FF938091690488234F
S1131A9064F480E88093690468E081E20E94C107ED
S1131AA080930F2A84E080932704FF91EF91BF91E4
S1131AB0AF919F918F917F916F915F914F913F91E2
S1131AC02F910F900FBE0F901F901895E0E0F4E057
S1131AD088E0808B818B828B838B848B858B868B38
S1131AE0878BE0E2F4E0808B818B828B838B848B09
S1131AF0858BE0E4F4E0808B818B828B838B848BF9
S1131B00858B868B878BE0E6F4E094E0908B918B59
S1131B10928B938B948B958B968B978BE0E8F4E068
S1131B20808B818B828B838BE0EAF4E0808B818BCA
S1131B30828B838B848B858B868B08952F923F9227
S1131B404F925F926F927F928F929F92AF92BF92C9
S1131B50CF92DF92EF92FF920F931F93CF93DF9375
S1131B60CDB7DEB7CC52D240CDBFDEBF9EE0EEEDA6
S1131B70FBE7DE01AE52BF4F01900D929A95E1F75B
S1131B8092E4ECEEFBE7DE01A052BF4F01900D9210
S1131B909A95E1F790E2EEE2FCE7DE01AE5DBE4F1E
S1131BA001900D929A95E1F792E1EEE4FCE7DE01F3
S1131BB0AE5BBE4F01900D929A95E1F791E3E0E69A
S1131BC0FCE7DE01AC5ABE4F01900D929A95E1F705
S1131BD093E1E1E9FCE7DE01AB57BE4F01900D92C2
S1131BE09A95E1F793E1E4EAFCE7DE01A856BE4FDB
S1131BF001900D929A95E1F79DE1E7EBFCE7DE0198
S1131C00A555BE4F01900D929A95E1F799E2E4ED46
S1131C10FCE7DE01A853BE4F01900D929A95E1F7BF
S1131C209DE0EDEFFCE7DE01AF50BE4F01900D9259
S1131C309A95E1F791E1EAE0FDE7DE01A250BE4F9B
S1131C4001900D929A95E1F7082F10E084E3809FAC
S1131C50F001819FF00D1124ED5FF74DE1818E2F8E
S1131C6090E0FC01E254F109E533F10508F038C4D1
S1131C70E05BFF4F0C94281BCE0182549F4F0E94BF
S1131C80D10524E3209FC001219F900D1124825D82
S1131C90974D2091A80422FF03C022E030E002C047
S1131CA021E030E09F938F938E0102541F4F1F93C6
S1131CB00F933F932F93CE018E529F4F9F938F93F9
S1131CC0815D91097C019F938F930E94AF1CC70192
S1131CD00E947909F70101900020E9F73197AF01DB
S1131CE04E195F09B70180E00E94F01341E06DE8EE
S1131CF07BE781E00E94CD0AB8016B5F7F4F42E031
S1131D0081E00E94CD0ACDBFDEBF80E0EAC380E05F
S1131D100E943413F62EE72ED82EC92E80E00E949E
S1131D208F06B62EA72E982E892E81E00E9434139A
S1131D30C15EDD4F6883CF51D240C05EDD4F7883F2
S1131D40C052D240CF5DDD4F8883C152D240CE5DB8
S1131D50DD4F9883C252D24081E00E948F06CD5D50
S1131D60DD4F6883C352D240CC5DDD4F7883C452CB
S1131D70D240CB5DDD4F8883C552D240CA5DDD4F72
S1131D809883C652D24082E00E943413C95DDD4F6D
S1131D906883C752D240C85DDD4F7883C852D240B1
S1131DA0C75DDD4F8883C952D240C65DDD4F98833D
S1131DB0CA52D24082E00E948F06762E672E582E99
S1131DC0492E83E00E943413C55DDD4F6883CB52F6
S1131DD0D240C45DDD4F7883CC52D240382E292EB8
S1131DE0CE018A569F4F0E94550524E3209FC001CF
S1131DF0219F900D1124825D974D2091A80422FF0C
S1131E0003C022E030E002C021E030E09F938F93D2
S1131E102F923F92C45DDD4F9881CC52D2409F9364
S1131E20C55DDD4F8881CB52D2408F934F925F9234
S1131E306F927F92C65DDD4F9881CA52D2409F93C4
S1131E40C75DDD4F8881C952D2408F93C85DDD4F95
S1131E509881C852D2409F93C95DDD4F8881C75293
S1131E60D2408F93CA5DDD4F9881C652D2409F9372
S1131E70CB5DDD4F8881C552D2408F93CC5DDD4F61
S1131E809881C452D2409F93CD5DDD4F8881C35267
S1131E90D2408F93CE5DDD4F9881C252D2409F9342
S1131EA0CF5DDD4F8881C152D2408F93C05EDD4F3C
S1131EB09881C052D2409F93C15EDD4F8881CF513B
S1131EC0D2408F938F929F92AF92BF92CF92DF9224
S1131ED0EF92FF92CE018A569F4F9F938F933F9329
S1131EE02F93865B9F4F9F938F938E010F5F1F4F9E
S1131EF01F930F930E94AF1CCDBFDEBFC8010E9489
S1131F007909F80101900020E9F73197AF01401BEE
S1131F10510BB80180E00E94F01341E067E97BE7D0
S1131F2081E00E94CD0A26E636E646EE5FE36F2D99
S1131F307E2D8D2D9C2D0E942A178F929F92AF92F9
S1131F40BF9220E030E040E052E40E9490159F935D
S1131F508F937F936F93CF92DF92EF92FF9287EAF2
S1131F609BE79F938F931F930F930E94AF1C42E0B4
S1131F70B80181E00E94CD0ACDBFDEBF80E0B1C2CE
S1131F80AE01495E5D4FBE016D5E7D4FCE01815F46
S1131F909D4F0E948508CE018A569F4F0E94550589
S1131FA024E3209FC001219F900D1124825D974D51
S1131FB0C95EDD4FA881C751D240C85EDD4FB881EC
S1131FC0C851D240C75EDD4F1881C951D240C65EA8
S1131FD0DD4F0881CA51D240CD5EDD4F6881C351C7
S1131FE0D240CC5EDD4F7881C451D240CB5EDD4F10
S1131FF0E881C551D240CA5EDD4FF881C651D24056
S1132000C15FDD4F2881CF50D240C05FDD4F3881A2
S1132010C051D240CF5EDD4F4881C151D240CE5E27
S1132020DD4F5881C251D240F090A804F2FE05C0A1
S11320306894FF24F1F8E12C03C0FF24F394E12C0D
S11320409F938F930F931F93BF93AF93FF93EF933C
S11320507F936F935F934F933F932F93CE018A5651
S11320609F4F9F938F93EF92FF9284579F4F9F931D
S11320708F938E010F5F1F4F1F930F930E94AF1C0E
S1132080C8010E947909F80101900020E9F731970D
S1132090AF01401B510BB80180E00E94F01341E0F6
S11320A06DEB7BE781E00E94CD0AC65EDD4F88813F
S11320B0CA51D2408F93C75EDD4F8881C951D24047
S11320C08F93C85EDD4F8881C851D2408F93C95E1B
S11320D0DD4F8881C751D2408F93CA5EDD4F88811E
S11320E0C651D2408F93CB5EDD4F8881C551D2401B
S11320F08F93CC5EDD4F8881C451D2408F93CD5EE7
S1132100DD4F8881C351D2408F93CE5EDD4F8881ED
S1132110C251D2408F93CF5EDD4F8881C151D240EE
S11321208F93C05FDD4F8881C051D2408F93C15FD0
S1132130DD4F8881CF50D2408F93CE018E5B9E4F6E
S11321409F938F931F930F930E94AF1CCDBFDEBF4D
S113215042E0B80181E00E94CD0A80E0C2C1CE0114
S11321608A569F4F0E9455059E01225E3D4FAE0147
S1132170435E5D4FBE01645E7D4FCE01855E9D4F23
S11321800E94920B24E3209FC001219F900D1124F3
S1132190825D974DC25EDD4F5881CE51D240C35E01
S11321A0DD4F4881CD51D240C45EDD4F3881CC51E2
S11321B0D240C55EDD4F2881CB51D2406091A80446
S11321C062FF03C062E070E002C061E070E09F93D0
S11321D08F931F925F931F924F931F923F931F926F
S11321E02F93CE018A569F4F9F938F937F936F9324
S11321F082549F4F9F938F938E010F5F1F4F1F93A6
S11322000F930E94AF1CC8010E947909F801019044
S11322100020E9F73197AF01401B510BB80180E072
S11322200E94F013C35EDD4F8881CD51D2401F92CE
S11322308F93C45EDD4F8881CC51D2401F928F931F
S1132240CE018B579E4F9F938F931F930F930E94A2
S1132250AF1C41E0B80181E00E94CD0AC25EDD4FAF
S11322608881CE51D2401F928F93C55EDD4F888105
S1132270CB51D2401F928F93CE0188569E4F9F938D
S11322808F931F930F930E94AF1CCDBFDEBF42E01C
S1132290B80181E00E94CD0A80E023C1CE018A56B4
S11322A09F4F0E94550524E1AE0146555F4F60E003
S11322B070E080E50E941B06CE0182549F4F0E946D
S11322C0D10524E3209FC001219F900D1124825D3C
S11322D0974D2091A80422FF03C022E030E002C001
S11322E021E030E09F938F93CE0182549F4F9F93C0
S11322F08F9344979F938F938E010A561F4F1F937A
S11323000F933F932F938F5F9E4F9F938F938A5A80
S113231091407C019F938F930E94AF1CC7010E9440
S11323207909F70101900020E9F73197AF014E19BF
S11323305F09B70180E00E94F01341E069EC7BE79C
S113234081E00E94CD0AB801655F7F4F42E081E0E1
S11323500E94CD0ACDBFDEBF80E0C3C081E00E94F1
S11323606107F62EE72ED82EC92E82E00E9461075F
S1132370B62EA72E982E892ECE018A569F4F0E94E4
S1132380550524E3209FC001219F900D1124825DF7
S1132390974D2091A80422FF03C022E030E002C040
S11323A021E030E09F938F938F929F92AF92BF92E0
S11323B0CF92DF92EF92FF92CE018A569F4F9F9366
S11323C08F933F932F938E5C9E4F9F938F938E0199
S11323D00F5F1F4F1F930F930E94AF1CC8010E94F1
S11323E07909F80101900020E9F73197AF01401B0A
S11323F0510BB80180E00E94F01341E06EEC7BE7E2
S113240081E00E94CD0A8F929F92AF92BF92CF92A9
S1132410DF92EF92FF92CE018F509E4F9F938F9346
S11324201F930F930E94AF1C42E0B80181E00E9409
S1132430CD0ACDBFDEBF80E054C0CE0185579F4F8B
S11324400E94D805CE018A569F4F0E94550524E369
S1132450209FC001219F900D1124825D974D2091F2
S1132460A80422FF03C022E030E002C021E030E0F3
S11324709F938F93CE0185579F4F9F938F930B9676
S11324809F938F933F932F9388599E4F9F938F933E
S11324908E010F5F1F4F1F930F930E94AF1CC80143
S11324A00E947909F80101900020E9F73197AF0102
S11324B0401B510BB80180E00E94F01341E062E33D
S11324C07BE781E00E94CD0AC8010E94D80542E062
S11324D0B80181E00E94CD0ACDBFDEBF80E001C01B
S11324E082E0C45DDD4FCDBFDEBFDF91CF911F9190
S11324F00F91FF90EF90DF90CF90BF90AF909F909F
S11325008F907F906F905F904F903F902F900895A1
S1132510AC01E0E6F0E0948D9E7F88ED84BF948F5B
S113252001C000009091630096FDFBCFE0E6F0E06F
S1132530948D9B7F28ED24BF948F948D916024BF4C
S1132540948F01C00000909141019111FBCFE0E410
S1132550F1E04287538782E08783858181608583A8
S113256081EB808382818160828308951F920F9220
S11325700FB60F9211242F933F934F935F936F9352
S11325807F938F939F93AF93BF93EF93FF9381E0D8
S11325908093430180910B2A90910C2A0097B9F003
S11325A020910D2A30910E2A2817390758F480E01B
S11325B00E942A0B81E00E942A0B10920B2A10928F
S11325C00C2A05C0019680930B2A90930C2A80E272
S11325D08093A704FF91EF91BF91AF919F918F9149
S11325E07F916F915F914F913F912F910F900FBE0B
S11325F00F901F901895CF93DF9390E024E3289FCA
S1132600F001299FF00D1124ED5FF74D218124374E
S1132610E9F424E3289FE001299FD00D1124CB5F26
S1132620D74DFE0101900020E9F73197EC1BFD0B1B
S1132630739771F4CE010E94B90524E1AE0160E004
S113264070E080E50E945D0680E003C082E001C086
S113265082E0DF91CF910895E0EAF4E08289877FF8
S1132660828B84E082830895833018F0833021F0D4
S113267006C00E94250108950E94020808956AE98F
S113268079EF89E794EC0895E0EAF8E08BE086833B
S1132690838181608383858181608583089501C0FE
S11326A000008091A5088823DCF7E0EAF8E0848143
S11326B08B7F84838085948192609483089501C084
S11326C000008091A5088823DCF7E0EAF8E0848123
S11326D08460848380850895613029F490E0880FB4
S11326E0991F816001C0880F8093A70801C0000072
S11326F08091A508807CD9F38091A50882FD0CC047
S11327008091A50883FD0AC09091A508892F807146
S113271094FF05C084E0089581E0089582E008955F
S113272087E08093A408089501C000009091A50853
S113273096FFFBCF8093A80801C000008091A508F4
S113274086FFFBCF9091A508892F807194FD83E0CB
S11327500895E0E0F4E081E085838183E0E0F8E03F
S11327602DE635E0208731879581906895839681A1
S11327709064968396819068968310929A2B109217
S11327809B2B80939E2B1092152B1092162B10923C
S1132790952A1092192BE0E4F4E085838183E0E22A
S11327A0F8E02087318796819064968396819068BB
S11327B0968380932D2D1092942AE0E2F4E0858391
S11327C08183E0E6F8E020873187968190649683E0
S11327D09681906896838093A82C1092232C089558
S11327E0FB01813009F440C0E8F0833009F45EC095
S11327F0089580919A2B90E0BF016F5F7F4F3081E5
S1132800FC01E65EF44D308301968F77907899232E
S113281024F4019780689F6F019680939A2B2F5F11
S1132820FB0101C020E0241720F3E0E0F8E08581FB
S11328308062858308958091292D90E0BF016F5FA8
S11328407F4F3081FC01E755F34D308301968F773C
S11328509078992324F4019780689F6F0196809360
S1132860292D2F5FFB0101C020E0241720F3E0E2B3
S1132870F8E085818062858308958091A42C90E09E
S1132880BF016F5F7F4F3081FC01EC5DF34D3083FE
S113289001968F779078992324F4019780689F6F2D
S11328A001968093A42C2F5FFB0101C020E0241724
S11328B020F3E0E6F8E085818062858308951F9225
S11328C00F920FB60F9211248F939F93EF93FF9360
S11328D0809100088D3051F481E08093192BE091B0
S11328E0152BF0E0EB56F54D108206C0E091152B48
S11328F0F0E0EB56F54D80838091152B90E0019626
S11329008F779078992324F4019780689F6F0196BC
S11329108093152BFF91EF919F918F910F900FBE94
S11329200F901F9018951F920F920FB60F921124BB
S11329308F939F93EF93FF93E0E0F8E085818F7D81
S1132940858380919A2BE0919B2B8E1781F081E0F7
S11329508E0FF0E0E65EF44D9081E0E0F8E09283C3
S11329608F7780939B2B85818062858303C081E070
S113297080939E2BFF91EF919F918F910F900FBEAB
S11329800F901F9018951F920F920FB60F9211245B
S11329908F939F93AF93BF93EF93FF9380912008FE
S11329A08D3021F0E091932AEF3778F081E0809325
S11329B0942AA3E9BAE28C91E82FF0E0E05FF54DA8
S11329C010828093922A1C9208C091E09E0F9093EB
S11329D0932AF0E0E05FF54D8083FF91EF91BF9182
S11329E0AF919F918F910F900FBE0F901F901895EC
S11329F01F920F920FB60F9211248F939F93AF9350
S1132A00BF93EF93FF93ACE2BDE2EC9181E08E0FB4
S1132A108C93F0E0E755F34D9081909322089091C8
S1132A202B2D891740F0E0E2F8E085818F7D8583C6
S1132A3081E080932D2DFF91EF91BF91AF919F91F4
S1132A408F910F900FBE0F901F9018951F920F92A9
S1132A500FB60F9211248F939F93AF93BF93EF936D
S1132A60FF93809160088D3021F0E091222CEF37A4
S1132A7078F081E08093232CA2E2BCE28C91E82FD1
S1132A80F0E0E156F44D10828093212C1C9208C092
S1132A9091E09E0F9093222CF0E0E156F44D808358
S1132AA0FF91EF91BF91AF919F918F910F900FBEC6
S1132AB00F901F9018951F920F920FB60F9211242A
S1132AC08F939F93AF93BF93EF93FF93A7EABCE2D7
S1132AD0EC9181E08E0F8C93F0E0EC5DF34D9081EE
S1132AE0909362089091A62C891740F0E0E6F8E0F4
S1132AF085818F7D858381E08093A82CFF91EF9160
S1132B00BF91AF919F918F910F900FBE0F901F9027
S1132B10189588ED84BF81E0809300010895505892
S1132B20BB27AA270E94A7150C94EB160E94DD165A
S1132B3038F00E94E41620F039F49F3F19F426F48B
S1132B400C94DA160EF4E095E7FB0C94D416E92FF6
S1132B500E94FC1658F3BA17620773078407950797
S1132B6020F079F4A6F50C941E170EF4E0950B2EC4
S1132B70BA2FA02D0B01B90190010C01CA01A001CB
S1132B801124FF27591B99F0593F50F4503E68F126
S1132B901A16F040A22F232F342F4427585FF3CF67
S1132BA0469537952795A795F0405395C9F77EF438
S1132BB01F16BA0B620B730B840BBAF09150A1F081
S1132BC0FF0FBB1F661F771F881FC2F70EC0BA0F07
S1132BD0621F731F841F48F4879577956795B7958F
S1132BE0F7959E3F08F0B0CF9395880F08F099278A
S1132BF0EE0F9795879508950E94B01608F481E02A
S1132C0008950E9415160C94EB160E94E41658F0D1
S1132C100E94DD1640F029F45F3F29F00C94D4168D
S1132C2051110C941F170C94DA160E94FC1668F3C9
S1132C309923B1F3552391F3951B550BBB27AA2771
S1132C4062177307840738F09F5F5F4F220F331FAB
S1132C50441FAA1FA9F335D00E2E3AF0E0E832D073
S1132C6091505040E695001CCAF72BD0FE2F29D076
S1132C70660F771F881FBB1F261737074807AB0748
S1132C80B0E809F0BB0B802DBF01FF2793585F4FBD
S1132C903AF09E3F510578F00C94D4160C941F170B
S1132CA05F3FE4F3983ED4F3869577956795B7959F
S1132CB0F7959F5FC9F7880F911D9695879597F9AA
S1132CC00895E1E0660F771F881FBB1F6217730723
S1132CD08407BA0720F0621B730B840BBA0BEE1F38
S1132CE088F7E0950895E89409C097FB3EF4909521
S1132CF08095709561957F4F8F4F9F4F9923A9F0D1
S1132D00F92F96E9BB279395F6958795779567955F
S1132D10B795F111F8CFFAF4BB0F11F460FF1BC0A3
S1132D206F5F7F4F8F4F9F4F16C0882311F096E936
S1132D3011C0772321F09EE8872F762F05C06623E4
S1132D4071F096E8862F70E060E02AF09A95660F9D
S1132D50771F881FDAF7880F9695879597F9089556
S1132D60990F0008550FAA0BE0E8FEEF1616170698
S1132D70E807F907C0F012161306E407F50798F000
S1132D80621B730B840B950B39F40A2661F0232B19
S1132D90242B252B21F408950A2609F4A140A69595
S1132DA08FEF811D811D089597F99F6780E870E07A
S1132DB060E008959FEF80EC089500240A941616AD
S1132DC0170618060906089500240A941216130615
S1132DD0140605060895092E0394000C11F48823A3
S1132DE052F0BB0F40F4BF2B11F460FF04C06F5FBF
S1132DF07F4F8F4F9F4F089557FD9058440F551F95
S1132E0059F05F3F71F04795880F97FB991F61F068
S1132E109F3F79F087950895121613061406551FDF
S1132E20F2CF4695F1DF08C0161617061806991F4B
S1132E30F1CF86957105610508940895E894BB2740
S1132E4066277727CB0197F908950E94B01608F4F6
S1132E508FEF08950E943D170C94EB160E94DD1627
S1132E6038F00E94E41620F0952311F00C94D41647
S1132E700C94DA1611240C941F170E94FC1670F39C
S1132E80959FC1F3950F50E0551F629FF001729F0B
S1132E90BB27F00DB11D639FAA27F00DB11DAA1F1A
S1132EA0649F6627B00DA11D661F829F2227B00D67
S1132EB0A11D621F739FB00DA11D621F839FA00DF2
S1132EC0611D221F749F3327A00D611D231F849F42
S1132ED0600D211D822F762F6A2F11249F57504099
S1132EE09AF0F1F088234AF0EE0FFF1FBB1F661F14
S1132EF0771F881F91505040A9F79E3F510580F0DD
S1132F000C94D4160C941F175F3FE4F3983ED4F34B
S1132F10869577956795B795F795E7959F5FC1F780
S1132F20FE2B880F911D9695879597F90895A0E13A
S1132F30B0E0EDE9F7E10C942E1B7C011B016A0162
S1132F40FC0116821782838181FF44C39E012F5F97
S1132F503F4F3901F7019381F10193FD859193FF6F
S1132F6081911F01882309F431C3853239F493FD1B
S1132F70859193FF81911F01853239F4B70190E067
S1132F800E94731C56016501E5CF10E0512C912C71
S1132F90FFE1F915D8F08B3279F038F4803279F00A
S1132FA08332A1F4F92DF0612EC08D3261F08033AB
S1132FB069F4292D21602DC0392D3260932E892D7D
S1132FC08460982E2AC0E92DE86015C097FC2DC0B6
S1132FD020ED280F2A3088F496FE06C03AE0139FAD
S1132FE0200D1124122F19C08AE0589E200D11249F
S1132FF0522EE92DE0629E2E10C08E3231F496FCE2
S1133000E5C2F92DF0649F2E08C08C3621F4292DD9
S11330102068922E02C0883641F4F10193FD859117
S113302093FF81911F018111B3CF9BEB980F9330D4
S113303020F4992D9061805E07C09BE9980F93302E
S113304008F066C1992D9F7E96FF16E09F73992E16
S1133050853619F49064992E08C0863621F4392FE8
S11330603068932E02C01111115097FE07C01C3313
S113307050F444244394410E27E00BC0183038F038
S113308027E017E005C027E09CE3492E02C0212F6A
S1133090412C560184E0A80EB11CF60160817181B7
S11330A082819381042DA3010E94731B6C01F98119
S11330B0FC87F0FF02C0F3FF06C091FC06C092FE3D
S11330C006C000E205C00DE203C00BE201C000E04F
S11330D08C858C7019F001115AC29BC297FE10C0E6
S11330E04C0CFC85F4FF04C08A81813309F44A94B2
S11330F0141474F528E0241578F588E0482E2CC0C3
S113310096FC2AC0812F90E08C159D059CF03CEF25
S1133110C3163FEFD30674F0892D8068982E0AC039
S1133120E2E0F0E0EC0FFD1FE10FF11D8081803340
S113313019F411501111F4CF97FE0EC04424439496
S1133140410E812F90E0C816D9062CF41C1904C036
S11331504424439401C010E097FE06C01C141D04CF
S113316034F4C601019605C085E090E002C081E018
S113317090E001110196112331F0212F30E02F5FEF
S11331803F4F820F931F252D30E08217930714F4CD
S1133190581A01C0512C892D897049F4552039F0F1
S11331A0B70180E290E00E94731C5A94F7CF002389
S11331B029F0B701802F90E00E94731C93FC09C092
S11331C0552039F0B70180E390E00E94731C5A94B3
S11331D0F7CF97FE4CC04601D7FE02C0812C912C3C
S11331E0C60188199909F301E80FF91FED87FE87D5
S11331F09601241931092F87388B012F10E011957E
S1133200019511093FEF8316930629F4B7018EE265
S113321090E00E94731CC814D9044CF08F859889DF
S11332208815990524F4ED85FE85818101C080E32C
S1133230F1E08F1A91082D853E852F5F3F4F2D8732
S11332403E87801691062CF0B70190E00E94731C13
S1133250D9CFC814D90441F49A81963320F4953314
S113326019F43C8534FF81E3B70190E04EC08A81B4
S1133270813319F09C859F7E9C87B70190E00E9462
S1133280731C111105C094FC18C085E690E017C0AA
S1133290B7018EE290E00E94731C1E5F82E001E0A1
S11332A0080FF301E80FF11D8081B70190E00E943F
S11332B0731C802F0113F3CFE6CF85E490E0B701B0
S11332C00E94731CD7FC06C0C114D10441F4EC85E0
S11332D0E4FF05C0D194C194D1088DE201C08BE212
S11332E0B70190E00E94731C80E32AE0C216D10467
S11332F02CF08F5FFAE0CF1AD108F7CFB70190E036
S11333000E94731CB701C601C0960E94731C54C16D
S1133310833631F0833779F0833509F056C020C005
S1133320560132E0A30EB11CF6018081898301E0CD
S113333010E0630112C05601F2E0AF0EB11CF601B9
S1133340C080D18096FE03C0612F70E002C06FEF91
S11333507FEFC6010E94681C8C01F92DFF7714C011
S1133360560122E0A20EB11CF601C080D18096FE67
S113337003C0612F70E002C06FEF7FEFC6010E94AF
S11333804B1C8C01F92DF0689F2EF3FD1AC0852D7E
S113339090E008171907A8F4B70180E290E00E94B2
S11333A0731C5A94F4CFF60197FC859197FE819192
S11333B06F01B70190E00E94731C51105A940150A0
S11333C011090115110579F7F7C0843611F0893612
S11333D061F5560197FE09C024E0A20EB11CF60166
S11333E060817181828193810AC0F2E0AF0EB11CC9
S11333F0F60160817181072E000C880B990BF92D61
S1133400FF769F2E97FF09C09095809570956195E2
S11334107F4F8F4F9F4FF0689F2E2AE030E0A3012B
S11334200E94D11CC82EC6183FC0092D853721F42F
S11334300F7E2AE030E01DC0097F8F3691F018F42A
S1133440883559F0C3C0803719F0883711F0BEC0F1
S1133450006104FF09C0046007C094FE08C0066050
S113346006C028E030E005C020E130E002C020E1E1
S113347032E0560107FF09C084E0A80EB11CF60132
S1133480608171818281938108C0F2E0AF0EB11C2A
S1133490F6016081718180E090E0A3010E94D11C5B
S11334A0C82EC6180F77902E96FE0BC0092D0E7FDE
S11334B0C11650F494FE0AC092FC08C0092D0E7E79
S11334C005C0DC2C092D03C0DC2C01C0D12E04FF67
S11334D00DC0FE01EC0DF11D8081803311F4097ED5
S11334E009C002FF06C0D394D39404C0802F867809
S11334F009F0D39403FD11C000FF06C01C2DD514A0
S113350080F4150D1D190DC0D51458F4B70180E2CF
S113351090E00E94731CD394F7CFD51410F45D1877
S113352001C0512C04FF10C0B70180E390E00E9459
S1133530731C02FF17C001FD03C088E790E002C0BE
S113354088E590E0B7010CC0802F867859F001FF20
S113355002C08BE201C080E207FD8DE2B70190E07A
S11335600E94731CC11638F4B70180E390E00E94F6
S1133570731C1150F7CFCA94F301EC0DF11D808137
S1133580B70190E00E94731CC110F5CF15C0F4E0A0
S1133590F51560F584E0581A93FE1FC0011127C089
S11335A02C8523FF2AC00AE011E0392D3071932EB7
S11335B0F8018491811124C0552009F4E4CCB701A9
S11335C080E290E00E94731C5A94F6CFF701868142
S11335D0978126C08FEF9FEF23C0B70180E290E070
S11335E00E94731C5A945110F8CFD8CF512CB701B4
S11335F0802F90E00E94731CD3CF0EE011E0D5CF52
S113360091108052B70190E00E94731C0F5F1F4F0E
S1133610CFCF23E0251510F483E0BDCF512CC0CFCC
S11336206096E2E10C94471B97FB072E16F4009476
S113363007D077FD09D00E945F1B07FC05D03EF43C
S1133640909581959F4F0895709561957F4F08954A
S1133650EE0FFF1F0590F491E02D09942F923F92F5
S11336604F925F926F927F928F929F92AF92BF928E
S1133670CF92DF92EF92FF920F931F93CF93DF933A
S1133680CDB7DEB7CA1BDB0BCDBFDEBF09942A88DA
S1133690398848885F846E847D848C849B84AA8462
S11336A0B984C884DF80EE80FD800C811B81AA81EF
S11336B0B981CE0FD11DCDBFDEBFED010895AA1B88
S11336C0BB1B51E107C0AA1FBB1FA617B70710F009
S11336D0A61BB70B881F991F5A95A9F7809590953B
S11336E0BC01CD010895283008F027E03327DA0122
S11336F0990F311D87FD916000966105710539F4BC
S113370032602E5F3D9330E32A95E1F708959F3FA1
S113371030F080387105610509F03C5F3C5F3D93F2
S1133720913008F08068911DDF93CF931F930F931E
S1133730FF92EF92192F987F9695E92F969596957B
S1133740E90FFF27E459FE4F99273327EE24FF247E
S1133750A701E70105900894079428F4360FE71EA3
S1133760F81E491F511D660F771F881F991F069465
S1133770A1F70590079428F4E70EF81E491F561F79
S1133780C11D770F881F991F661F0694A1F7059026
S1133790079428F4F80E491F561FC71FD11D880F20
S11337A0991F661F771F0694A1F70590079420F4CC
S11337B0490F561FC71FD81F990F661F771F881FF1
S11337C00694A9F784911095177041F0D695C79582
S11337D057954795F794E7941A95C1F7E2E1F1E01C
S11337E068941590159135916591959105907FE2B6
S11337F07395E118F10A430B560BC90BD009C0F7B6
S1133800E10CF11E431F561FC91FD01D7EF47033F7
S113381011F48A95E6CFE894015030F0080F0AF4C9
S11338200027021708F4202F2395022F7A3328F05B
S113383079E37D932A95E9F710C07D932A9589F65B
S1133840069497956795379517951794E118F10A9B
S1133850430B560BC90BD00998F023957E917395B1
S11338607A3308F070E37C932013B8F77E9170618B
S11338707D9330F0839571E37D9370E32A95E1F7AE
S11338801124EF90FF900F911F91CF91DF91992711
S113389087FD90950895FC010590615070400110DA
S11338A0D8F7809590958E0F9F1F0895FB01DC013A
S11338B00D900020E9F7119701900D920020E1F797
S11338C00895FB01DC0101900D920020E1F70895B9
S11338D0FC016150704001900110D8F780959095DB
S11338E08E0F9F1F08950F931F93CF93DF93FB01B8
S11338F0238121FD03C08FEF9FEF2CC022FF16C050
S113390046815781248135814217530744F4A081AD
S1133910B1819D012F5F3F4F208331838C9326819A
S113392037812F5F3F4F2683378314C08B01EC010F
S1133930FB010084F185E02D0995892BE1F6D8017E
S113394016968D919C911797019616968D939C933C
S11339501797CE01DF91CF911F910F910895AEE09B
S1133960B0E0E5EBFCE10C943C1B0D891E8986E07C
S11339708C8309831A838FEF9FE78D839E83AE0127
S1133980475E5F4F6F89788DCE0101960E9497172D
S1133990EF81F885E00FF11F10822E96E4E00C947D
S11339A0551BFA01AA27283051F1203181F1E894FE
S11339B06F936E7F6E5F7F4F8F4F9F4FAF4FB1E01E
S11339C03ED0B4E03CD0670F781F891F9A1FA11D19
S11339D0680F791F8A1F911DA11D6A0F711D811D1A
S11339E0911DA11D20D009F468943F912AE0269FDF
S11339F011243019305D3193DEF6CF010895462F3E
S1133A004770405D4193B3E00FD0C9F7F6CF462F1E
S1133A104F70405D4A3318F0495D31FD4052419387
S1133A2002D0A9F7EACFB4E0A69597958795779544
S1133A306795BA95C9F700976105710508959B01CB
S1133A40AC010A2E06945795479537952795BA9554
S1133A50C9F7620F731F841F951FA01D089560503E
S1133A607C4E0C946A1DDC01A40FB51F41505040DC
S1133A7048F0CB01840F951F2E910E94441D4150A4
S1133A805040D0F70895262F0E94661D008002162C
S1133A9019F00E944F1D019701970895262FAF93A7
S1133AA0BF93E0E0F0E1328131FDFDCFDC01A050B5
S1133AB0BC4E2C932DE924BF23E020830196BF91B3
S1133AC0AF91089503D0808199270895FC01E050B7
S1133AD0FC4E0895FB01DC0102C001900D9241509F
S10D3AE05040D8F70895F894FFCF82
S1133AEA24532564434D442C257300323025303247
S1133AFA782D253032782D25303278542530327895
S1133B0A3A253032783A2530327800445333323306
S1133B1A312072656164206572726F7200323032CC
S1133B2A312D30322D313300737065634D6563680E
S1133B3A2056657273696F6E002A253032580D0A51
S1133B4A002453256445525200202020202020209E
S1133B5A20202020202020202000626F7468006C1E
S1133B6A656674007269676874007368757474654D
S1133B7A7200436C6F7365202573004F70656E2065
S1133B8A257300426F6F742074696D650054656D06
S1133B9A7020262048756D69646974790025312E70
S1133BAA3166432025312E3066462025312E306673
S1133BBA2525004F7269656E746174696F6E0054CD
S1133BCA696D65005265645661632020426C7565AF
S1133BDA566163002453256442544D2C25732C25C5
S1133BEA730024532564454E562C25732C25332EF5
S1133BFA3166432C25312E306625252C25332E316A
S1133C0A66432C25312E306625252C25332E316624
S1133C1A432C25312E306625252C25332E31664337
S1133C2A2C257300245325644F52492C25732C25C3
S1133C3A332E31662C25332E31662C25332E3166EC
S1133C4A2C25730025322E30662025322E3066202C
S1133C5A25322E30660024532564504E552C257384
S1133C6A2C25632C736875747465722C25632C6C0B
S1133C7A6566742C25632C72696768742C25632C19
S1133C8A6169722C2573006C6566743A2563202079
S1133C9A2072696768743A25630073687574746579
S1133CAA723A256320206169723A256300245325F8
S1133CBA6454494D2C25732C25732C7365742C2557
S1133CCA732C626F6F742C25730024532564564138
S1133CDA432C25732C25352E32662C726564766145
S1133CEA632C25352E32662C626C75657661632CDD
S1133CFA25730025322E3266202025322E326600A4
S1133D0A245325645645522C25732C25732C25736C
S1043D1A00A4
S1053D1B0100A1
S9030000FC
