:100000000C94F4000C9411010C9411010C94E61260
:100010000C9411010C9411010C9411010C94110118
:100020000C9411010C9411010C9411010C94110108
:100030000C94A7130C9411010C9411010C94110150
:100040000C9411010C9404150C9447150C94110197
:100050000C94280D0C9411010C9411010C941101B5
:100060000C9411010C9411010C947E150C94A9159B
:100070000C9411010C941A070C9411010C941101A9
:100080000C9411010C9411010C9411010C941101A8
:100090000C9411010C94E0150C9415160C9411019C
:1000A0005304610461046104610461046104610436
:1000B0006104610461046104610461046104610418
:1000C0006104380461046104610461046104610431
:1000D000610461046104420461043D04610461043B
:1000E00047044B044F046E616E00696E6600004069
:1000F0007A10F35A00A0724E18090010A5D4E80037
:1001000000E87648170000E40B54020000CA9A3B4E
:10011000000000E1F50500008096980000004042D4
:100120000F000000A0860100000010270000000062
:10013000E803000000006400000000000A00000066
:1001400000000100000000002C76D888DC674F0812
:1001500023DFC1DFAE59E1B1B796E5E3E453C63A18
:10016000E651997696E8E6C28426EB898C9B62ED8F
:10017000407C6FFCEFBC9C9F40F2BAA56FA5F49049
:10018000055A2AF75C936B6CF9676DC11BFCE0E4C0
:100190000D47FEF520E6B500D0ED902E0300943516
:1001A00077050080841E080000204E0A000000C869
:1001B0000C333333330F986E12831141EF8D2114BA
:1001C000893BE65516CFFEE6DB18D1844B381BF78A
:1001D0007C1D901DA4BBE424203284725E22810029
:1001E000C9F124ECA1E53D2711241FBECFEFCDBFFF
:1001F000DFE3DEBF18E2A0E0B8E2E8EBFEE302C016
:1002000005900D92A230B107D9F720E3A2E0B8E241
:1002100001C01D92A033B207E1F70E9499070C9428
:100220003D1E0C940000CF92DF92EF92FF92CF938D
:100230008130C9F018F0823061F010C00F2EF3E366
:10024000CF2EDC2CF3EFEF2EF0E4FF2EF02DC1E0EB
:100250000EC0C12CD12C7601C0E109C0C12CD12C1B
:100260007601C0E004C0C12CD12C7601C4E040E08E
:1002700066E087E20E94BC074C2F409560E087E271
:100280000E94BC074C2F6AE087E20E94BC0786E10F
:100290008A95F1F7000020E840E768E088E40E94D2
:1002A000690120E030E04AE754E40E94F41723E3B8
:1002B00033E948E853E40E9459169B01AC01C70199
:1002C000B6010E945A16CF91FF90EF90DF90CF9029
:1002D0000895CF92DF92EF92FF920F931F93CF93E7
:1002E000DF93D82FF62E462BC42FC168122F136030
:1002F00060E00E94E913082F882369F00E940F1420
:10030000602F70E080E090E00E943D17562F472F4D
:10031000382F292FD0C081E00E941314082F882382
:1003200069F00E940F14602F70E080E090E00E945E
:100330003D17562F472F382F292FBDC08C2F0E94D5
:100340001314C82F882369F00E940F146C2F70E0DB
:1003500080E090E00E943D17562F472F382F292F1D
:10036000AAC0812F0E941314C82F882369F00E940D
:100370000F146C2F70E080E090E00E943D17562F24
:10038000472F382F292F97C00E940F148CE18A9590
:10039000F1F7C1E009C061E08D2F0E94E9130E94CE
:1003A000DC1388230CF4C0E0C111F5CF0E940F14B8
:1003B00060E08D2F0E94E91380E00E94131461E039
:1003C0008D2F0E94E9130E94CC13C82F0E94DC13CA
:1003D000D82F0E940F146C2F70E0762F66276D2B9C
:1003E00084E0F81649F18F1530F0FF20D9F182E052
:1003F000F81669F142C088E0F81609F442C08AE0B4
:10040000F81621F086E0F81238C00BC00F2EF4E782
:10041000CF2EF3E1DF2EF3E0EF2EF7E3FF2EF02DEA
:100420003AC00F2EF4E7CF2EF3E1DF2EF3E0EF2EEC
:10043000F8E3FF2EF02D2FC00F2EF2E1CF2EF3E1C7
:10044000DF2EF3E8EF2EF8E3FF2EF02D24C00F2E61
:10045000F4E7CF2EF3E1DF2EF3E0EF2EF9E3FF2EEA
:10046000F02D19C00F2EFEE2CF2EFDE9DF2EF4E4B1
:10047000EF2EF9E3FF2EF02D0EC0C12CD12C76010A
:100480000AC00F2EF1E7CF2EF3E1DF2EF3E8EF2EB7
:10049000F7E3FF2EF02D072E000C880B990B0E941E
:1004A0003F179B01AC01C701B6010E94F417562FFC
:1004B000472F382F292F652F742F832F922FDF91ED
:1004C000CF911F910F91FF90EF90DF90CF90089503
:1004D000E0E2F4E084E085838183868308950F93CE
:1004E0001F93CF93DF93CDB7DEB7C451D140CDBFBB
:1004F000DEBF2BE0EEE7FCE7DE01119601900D92E6
:100500002A95E1F72091A80422FF03C022E030E001
:1005100002C021E030E09F938F933F932F93CE0151
:1005200001969F938F938E01045F1F4F1F930F932C
:100530000E94791DC8010E945D09F8010190002008
:10054000E9F73197AF01401B510BB80180E00E94E1
:100550007E14CDBFDEBFCC5EDE4FCDBFDEBFDF91F0
:10056000CF911F910F9108959FE9980F9A3128F02C
:1005700081548A3120F481E0089581E0089580E07B
:100580000895EF92FF921F93CF93DF93EC01E62E35
:10059000F12C84E38E9DF0018F9DF00D1124EB5F13
:1005A000F74D8FE380838183128213A604C0112349
:1005B00009F475C021961881812F0E94B402882306
:1005C000B1F3219684E38E9DF0018F9DF00D1124EF
:1005D000EB5FF74D108304C0112309F460C021962E
:1005E0001881812F0E94B4028823B1F3219684E3FD
:1005F0008E9DF0018F9DF00D1124EB5FF74D11835F
:1006000080E02AC0988191110CC094E39E9DF00176
:100610009F9DF00D1124EB5FF74DE80FF11D128245
:100620003EC09B3361F494E39E9DF0019F9DF00DCD
:100630001124EB5FF74DE80FF11D12820FC02196D8
:1006400024E32E9DF0012F9DF00D1124EB5FF74D5B
:10065000E80FF11D92838F5F8932A0F2219680E02E
:100660001CC0988191110CC094E39E9DF0019F9D48
:10067000F00D1124EB5FF74DE80FF11D13A60FC02D
:10068000219624E32E9DF0012F9DF00D1124EB5FA8
:10069000F74DE80FF11D93A78F5F893010F3DF91BD
:1006A000CF911F91FF90EF9008950F931F93CF93D9
:1006B000DF93CDB7DEB76D97CDBFDEBF2EE330E061
:1006C00029833A8321E230E02B833C83882319F08D
:1006D0008130B9F02CC08E010B5F1F4FBE016F5FE0
:1006E0007F4FC8010E942B1DF80101900020E9F7FF
:1006F0003197AF01401B510BB80180E00E947E147E
:100700002BC08E010B5F1F4FBE016D5F7F4FC80175
:100710000E942B1DF80101900020E9F73197AF01ED
:10072000401B510BB80180E00E947E1415C08E0161
:100730000B5F1F4FBE016D5F7F4FC8010E942B1DD5
:10074000F80101900020E9F73197AF01401B510BF0
:10075000B80180E00E947E146D96CDBFDEBFDF91B0
:10076000CF911F910F9108950F931F93CF93DF9314
:10077000CDB7DEB7CF5FD109CDBFDEBF30E01DC042
:1007800007E11CE2F801808190E0FC01E95EF44D94
:100790004081E1E0F0E0EC0FFD1FE30FF11D40832D
:1007A00021502093192C01966FEF70E00E94DE1B00
:1007B000F8018083442329F03F5F2091192C2111F7
:1007C000DFCFE1E0F0E0EC0FFD1FE30FF11D108241
:1007D00080910028882329F18981813299F49A81B6
:1007E000911110C08FEF91E00E94B81285E090E067
:1007F00080930F2A9093102A80E00E945503109254
:1008000000286DC0813249F48A81882331F081E06B
:100810000E9455030E94431662C081E00E94550366
:100820005EC0CE0101960E946F028981811103C0D2
:100830000E94550354C060910228CE0101960E9487
:10084000C10280910228F4E38F9FD0011124AB5F95
:10085000B74DEC9111969C914E2F50E0FA01E25564
:10086000F109E332F10568F5E05BFF4F0C94F21BF0
:10087000892F0E94040C282F25C0892F0E94960CD6
:10088000282F20C080E80E94601220E01BC00E9438
:10089000920D282F17C00E942B13282F13C00E94DF
:1008A000741320E00FC080E00E9455032AE684E024
:1008B00091E0215080409040E1F700C00E94431633
:1008C0000EC022E08091022890E001966AE070E07C
:1008D0000E94DE1B80930228822F0E945503C15084
:1008E000DF4FCDBFDEBFDF91CF911F910F910895F4
:1008F000FB017081618152814481358126811F9283
:100900007F931F926F931F925F931F924F931F923B
:100910003F931F922F9329E83CE73F932F939F9398
:100920008F930E94791D8DB79EB740968DBF9EBF55
:100930000895DC01FB01818990E0C0978295929532
:10094000907F9827807F982792899053892B8C934A
:10095000868590E0C09782959295907F9827807FBA
:10096000982797859053892B11968C93119783859F
:1009700090E0C09782959295907F9827807F9827E6
:1009800094859053892B12968C93129781E013963D
:100990008C931397808590E0C09782959295907F75
:1009A0009827807F982791859053892B14968C9354
:1009B0001497258130E02053310922953295307FFC
:1009C0003227207F322786818053282B15962C933F
:1009D0001597228130E02053310922953295307FDE
:1009E0003227207F322783818053282B16962C9321
:1009F0000895EF92FF920F931F93CF937B0160E0D6
:100A00000E94E913C82F882321F00E940F148C2F15
:100A100028C080E00E941314C82F882321F00E9470
:100A20000F148C2F1EC061E088E60E94E913C82FC6
:100A3000882369F00E940F148C2F13C087010C0FBC
:100A4000111D0E94CC13F8018083CF5F01C0C0E06C
:100A5000C630A0F30E94DC13F70186830E940F14B6
:100A600080E0CF911F910F91FF90EF9008950F9329
:100A70001F93CF93DF93CDB7DEB72797CDBFDEBFF0
:100A80008C01BE016F5F7F4F88E60E94F9048823C6
:100A900049F098E0E9EAFCE7D80101900D929A95B7
:100AA000E1F707C0BE016F5F7F4FC8010E94780465
:100AB00080E02796CDBFDEBFDF91CF911F910F91D0
:100AC0000895EF92FF920F931F93CF93DF938B01C3
:100AD00060E00E94E913C82F882321F00E940F14C0
:100AE0008C2F22C080E00E941314C82F8823B1F0FD
:100AF0000E940F148C2F18C078018FEFE81AF80AA3
:100B0000F80180810E941314C82F882321F00E94CD
:100B10000F148C2F09C0DF5F870101C0D0E0D730F0
:100B200058F30E940F1480E0DF91CF911F910F9135
:100B3000FF90EF900895CF93DF93CDB7DEB727975F
:100B4000CDBFDEBFBC01CE0101960E949904BE015B
:100B50006F5F7F4F88E60E9461052796CDBFDEBF9D
:100B6000DF91CF91089545E150E06BE070E00E9485
:100B7000F91D08954BE050E060E070E00E94F91D1F
:100B80000895CF93DF93CDB7DEB76597CDBFDEBFB6
:100B9000CE0101960E94370545E150E06BE070E020
:100BA000CE0101960E94FD1D6596CDBFDEBFDF918F
:100BB000CF910895CF93DF93CDB7DEB72B97CDBFFD
:100BC000DEBF8BE0E1EBFCE7DE01119601900D92B8
:100BD0008A95E1F74BE050E060E070E0CE010196CD
:100BE0000E94FD1D2B96CDBFDEBFDF91CF910895F2
:100BF0000E94C1050E94DA050895EF92FF920F93BB
:100C00001F93CF93DF93C82FE62EF72E8A01D22FA2
:100C100060E00E94E91381112BC08F2D0E941314F4
:100C2000811126C08E2D0E941314811121C061E014
:100C30008C2F0E94E91381111BC0C0E008C078010D
:100C4000EC0EF11C0E94CC13F7018083CF5F2C2F98
:100C500030E08D2F90E001972817390784F3EC01DD
:100C6000C00FD11F0E94DC1388830E940F1480E004
:100C7000DF91CF911F910F91FF90EF900895EF9228
:100C8000FF920F931F93CF93DF93F62E172FEA0156
:100C9000022F60E00E94E91381111CC0812F0E9485
:100CA0001314811117C08F2D0E941314811112C0CB
:100CB00010E00BC07E018FEFE81AF80A88810E94CD
:100CC0001314811107C01F5FE701101798F30E94EA
:100CD0000F1480E0DF91CF911F910F91FF90EF9063
:100CE00008958F929F92AF92BF92CF92DF92EF9230
:100CF000FF92813059F018F0823079F015C080E011
:100D00000E9464134B015C0140E417C081E00E9423
:100D100064134B015C0140E510C082E00E94641343
:100D20004B015C0140E609C00F2E812C912CF0EAAA
:100D3000AF2EF1E4BF2EF02D40E520E860E088E41E
:100D40000E94690120E030E040EA50E40E94CB16A6
:100D50002AE037ED43E25EE30E9459162FE539E2BF
:100D60004BEC5BE30E94CB166B017C0129EC3EE867
:100D70004DE05BE3C501B4010E94F4179B01AC0197
:100D800062E27DEF86E89FE30E9459169B01AC0169
:100D9000C701B6010E94CB16FF90EF90DF90CF9075
:100DA000BF90AF909F908F900895CF93DF93CDB772
:100DB000DEB72B97CDBFDEBF0E945A0D8BE080932C
:100DC000B6040E944D160E945C130E9493070E9475
:100DD000680280E290E00E94B8120E9428140E94EB
:100DE000C1130E942B090E94490B80E00E94010A56
:100DF00081E00E94010A0E94F80580EE91E0809354
:100E00000F2A9093102ACE0101960E94BA0541E064
:100E10006CEB7CE781E00E94C10A42E0BE016F5F9B
:100E20007F4F81E00E94C10A2B96CDBFDEBFDF91CC
:100E3000CF9108951F920F920FB60F9211242F9306
:100E40003F934F935F936F937F938F939F93AF9352
:100E5000BF93EF93FF938091A90486FF05C080E4C0
:100E60008093A9040E944316FF91EF91BF91AF9127
:100E70009F918F917F916F915F914F913F912F91B2
:100E80000F900FBE0F901F901895CF92DF92EF92A8
:100E9000FF92813021F0823079F540E301C040E0DB
:100EA00020E862E089E40E9469016B017C012DEC7D
:100EB0003CEC4CEC5EE30E94C616882314F120E063
:100EC00030E040E050E4C701B6010E94EF17181669
:100ED000ECF029E739EE42E050E4C701B6010E9488
:100EE000F4172EE633EA4BED50E40E945916562FC4
:100EF000472F382F292F0EC05AE949EF39E724EC44
:100F000009C05AE949EF39E724EC04C05AE949EF2E
:100F100039E724EC652F742F832F922FFF90EF90E9
:100F2000DF90CF900895E0EAF4E080E2858381834A
:100F300008950E94D506789480911B2C8823E1F3B4
:100F400010921B2C0E94B403F7CFCF93DF93C82FCE
:100F5000D62F60E00E94E9138D2F0E94131461E0E8
:100F60008C2F0E94E9130E94DC13C82F0E940F14DB
:100F70008C2FDF91CF9108951F93CF93DF93D62FBE
:100F8000142F60E00E94E913C82F882321F00E94EB
:100F90000F148C2F17C08D2F0E941314C82F882375
:100FA00021F00E940F148C2F0DC0812F0E9413146A
:100FB000C82F882321F00E940F148C2F03C00E9499
:100FC0000F1480E0DF91CF911F910895CF92DF92AF
:100FD000EF92FF921F93CF93DF9360E088E10E942E
:100FE000E91385E00E94131461E088E10E94E9138F
:100FF0000E94CC13C82F0E94DC13D82F0E940F141C
:101000001C2F10716C2F6F7070E080E090E00E94D8
:101010003D1720E030E040E851E40E94F4176B01F6
:101020007C016D2F70E080E090E00E943D1720E091
:1010300030E040E85DE30E94F4179B01AC01C7017A
:10104000B6010E945A16112341F09B01AC0160E0E9
:1010500070E080E893E40E945916DF91CF911F91D0
:10106000FF90EF90DF90CF900895EF92FF920F9353
:101070001F93CF93DF93182FF62EEA01022F60E023
:101080000E94E91381111EC08F2D0E94131481113B
:1010900019C061E0812F0E94E913811113C011E092
:1010A00009C07E018FEFE81AF80A0E94CC138883EA
:1010B0001F5FE7011017A8F30E94DC1388830E94CA
:1010C0000F1480E0DF91CF911F910F91FF90EF906F
:1010D0000895CF92DF92EF92FF920F931F93CF93D9
:1010E000DF93CDB7DEB72697CDBFDEBF6C017B01A6
:1010F0008A018AE99FE3ACE1B6ECFA01808391832F
:10110000A283B383FB0180839183A283B383F6011F
:1011100080839183A283B38326E0AE014F5F5F4F4C
:1011200061E08DE10E943508898190E0982F882741
:101130002A81822BBC01772314F46D5F7F4F759554
:10114000679575956795072E000C880B990B0E9483
:101150003F1726E636E245E75EE30E94F417F60104
:1011600060837183828393838B8190E0982F88279B
:101170002C81822BBC01772314F46D5F7F4F759512
:10118000679575956795072E000C880B990B0E9443
:101190003F1726E636E245E75EE30E94F417F701C3
:1011A00060837183828393838D8190E0982F882759
:1011B0002E81822BBC01772314F46D5F7F4F7595D0
:1011C000679575956795072E000C880B990B0E9403
:1011D0003F1726E636E245E75EE30E94F417F80182
:1011E000608371838283938380E02696CDBFDEBFC8
:1011F000DF91CF911F910F91FF90EF90DF90CF90F3
:1012000008951F93CF93DF93D62F142F60E00E9491
:10121000E913C82F882321F00E940F148C2F17C0C8
:101220008D2F0E941314C82F882321F00E940F14C1
:101230008C2F0DC0812F0E941314C82F882321F0FA
:101240000E940F148C2F03C00E940F1480E0DF91C6
:10125000CF911F910895CF93DF931F92CDB7DEB743
:1012600040E46BE28DE10E94010921E0AE014F5F95
:101270005F4F6BE28DE10E94350808C021E0AE01AE
:101280004F5F5F4F6BE28DE10E943508898186FDDB
:10129000F5CF40EC6FE08DE10E94010942E06BE286
:1012A0008DE10E9401094DE36AE28DE10E9401098E
:1012B00089810F90DF91CF910895EF92FF920F9364
:1012C0001F93CF93DF93CDB7DEB72E97CDBFDEBF91
:1012D0008C0188E0EDECFCE7DE01119601900D92A7
:1012E0008A95E1F7F80101900020E9F731973E2F48
:1012F000301B90E081E006C0F801E80FF11D20816D
:1013000092278F5F8317C0F31F929F93CE010196A0
:101310009F938F937E0189E0E80EF11CFF92EF927C
:101320000E94791DB701C8010E94201D0F900F90E7
:101330000F900F900F900F902E96CDBFDEBFDF91D4
:10134000CF911F910F91FF90EF9008950F931F93EE
:10135000CF93DF93CDB7DEB7CF55D109CDBFDEBF79
:101360009EE0E5EDFCE7DE01AE5ABF4F01900D9225
:101370009A95E1F79091A80492FF03C092E020E0D3
:1013800002C091E020E07F936F931F928F932F9381
:101390009F93CE018E5A9F4F9F938F938E010F5F25
:1013A0001F4F1F930F930E94791DC8010E945D0972
:1013B000F80101900020E9F73197AF01401B510B74
:1013C000B80180E00E947E14CDBFDEBFC15ADF4F5E
:1013D000CDBFDEBFDF91CF911F910F910895CF93C5
:1013E000DF93D62FC42F60E00E94E9138D2F0E9457
:1013F00013148C2F0E9413140E940F14DF91CF91AD
:101400000895CF93E0E6F4E090E496839183A1E41D
:10141000B3E01197F1F700009583811102C0CCE38E
:1014200001C0CDE34AE260E08C2F0E94EF0941E762
:1014300060E08C2F0E94EF094CE560E48C2F0E9445
:10144000EF0948E260E08C2F0E94EF0948E060E07D
:101450008C2F0E94EF094AE260E08C2F0E94EF0976
:1014600049E760E08C2F0E94EF0945ED60E08C2F8A
:101470000E94EF0940E760E08C2F0E94EF0948E7E7
:1014800060E08C2F0E94EF0948E060E08C2F0E9402
:10149000EF0946E060E08C2F0E94EF0942E760E030
:1014A0008C2F0E94EF0940E060E48C2F0E94EF092E
:1014B0004AE260E08C2F0E94EF0949E760E08C2F40
:1014C0000E94EF094AED60E08C2F0E94EF0940E096
:1014D00060E08C2F0E94EF094CED60E08C2F0E94A1
:1014E000EF0940E060E08C2F0E94EF0941E860E0E6
:1014F0008C2F0E94EF094FE760E08C2F0E94EF09CC
:1015000049ED60E08C2F0E94EF0941EF60E08C2FE5
:101510000E94EF094BED60E08C2F0E94EF0940E440
:1015200060E08C2F0E94EF0948E760E08C2F0E945A
:10153000EF0948E260E08C2F0E94EF0941E060E093
:101540008C2F0E94EF0940E860E08C2F0E94EF0989
:101550004CE060E08C2F0E94EF09BAE624E081E0C5
:10156000B15020408040E1F700C010920D2A109247
:101570000E2A85E090E080930F2A9093102ACF9155
:101580000895EF92FF920F931F93CF93DF93CDB700
:10159000DEB7E297CDBFDEBF142F91E1E3EEFCE7AB
:1015A000DE01929601900D929A95E1F7811102C0A9
:1015B0000CE301C00DE3CE0101967C010E942B1DBE
:1015C000F70101900020E9F73197EE19FF097197B3
:1015D00008F0198ABE016E5D7F4FCE0101960E9410
:1015E000201D113039F440E860E0802F0E94EF099F
:1015F00010E012C040EC60E0802F0E94EF09F8CFAD
:10160000E1E0F0E0EC0FFD1FE10FF11D408160E42F
:10161000802F0E94EF091F5F103190F381E090E06E
:1016200080930D2A90930E2AE296CDBFDEBFDF9104
:10163000CF911F910F91FF90EF9008951F93CF933B
:10164000DF93CDB7DEB76197CDBFDEBF182F81E145
:10165000E3EEFCE7DE01119601900D928A95E1F729
:1016600041E0BE016F5F7F4F812F0E94C10A42E0BF
:10167000BE016F5F7F4F812F0E94C10A10920D2A19
:1016800010920E2A6196CDBFDEBFDF91CF911F91E0
:10169000089540E060E084E20E94BC07811135C0FB
:1016A00040E06AE084E20E94BC0781112EC04EEF48
:1016B00060E081E20E94BC07811127C040E061E048
:1016C00081E20E94BC07811120C04CEF62E081E200
:1016D0000E94BC07811119C040E064E081E20E94D1
:1016E000BC07811112C040E265E081E20E94BC07A4
:1016F00081110BC04FE766E081E20E94BC078111B7
:1017000004C089E08093770480E00895CF92DF924F
:10171000EF92FF920F931F93CF93DF936C018B0196
:101720007A01E90169E081E20E94A507982F92956C
:10173000969596959370913021F493E6F6019083F7
:101740000FC0923021F49FE6F601908309C09330D8
:1017500021F494E7F601908303C098E7F6019083A3
:10176000982F969596959370913021F493E6F70112
:1017700090830FC0923021F49FE6F701908309C057
:10178000933021F494E7F701908303C098E7F701C1
:101790009083982F92959F709370913021F49FE6DB
:1017A000F80190830FC0923021F493E6F801908302
:1017B00009C0933021F494E7F801908303C098E7BF
:1017C000F801908381FF03C080E3888302C081E336
:1017D0008883DF91CF911F910F91FF90EF90DF9061
:1017E000CF900895CF93DF93D82FC62F69E084E27E
:1017F0000E94A5078D2B482F4C236AE084E20E94AB
:10180000BC07DF91CF910895CF93DF93CDB7DEB7BB
:101810006A97CDBFDEBF99E0ECE0FDE7DE011196EF
:1018200001900D929A95E1F78C3631F118F48236D9
:1018300039F075C08237C1F1833709F44DC06FC0EC
:101840006AEE84E40E94F20B66EE88E80E94F20BD6
:1018500084EF9CE79F938F93CE0101969F938F9384
:1018600009969F938F930E94791D0F900F900F9070
:101870000F900F900F9047C06AEE84E40E94F20B25
:1018800089EF9CE79F938F93CE0101969F938F934F
:1018900009969F938F930E94791D0F900F900F9040
:1018A0000F900F900F902FC066EE88E80E94F20B09
:1018B0008EEF9CE79F938F93CE0101969F938F931A
:1018C00009969F938F930E94791D0F900F900F9010
:1018D0000F900F900F9017C06CEE82E20E94F20BF7
:1018E00084E09DE79F938F93CE0101969F938F9302
:1018F00009969F938F930E94791D0F900F900F90E0
:101900000F900F900F9081E00E941E0B41E0BE01EE
:10191000665F7F4F81E00E94C10A80E001C082E0E3
:101920006A96CDBFDEBFDF91CF910895CF93DF934D
:10193000CDB7DEB76997CDBFDEBF98E0E5E1FDE743
:10194000DE01119601900D929A95E1F78C3631F1F6
:1019500018F4823639F075C08237C1F1833709F443
:101960004DC06FC06EEA84E40E94F20B6EE688E818
:101970000E94F20B84EF9CE79F938F93CE01019618
:101980009F938F9308969F938F930E94791D0F903A
:101990000F900F900F900F900F9047C06EEA84E465
:1019A0000E94F20B89EF9CE79F938F93CE010196E3
:1019B0009F938F9308969F938F930E94791D0F900A
:1019C0000F900F900F900F900F902FC06EE688E849
:1019D0000E94F20B8EEF9CE79F938F93CE010196AE
:1019E0009F938F9308969F938F930E94791D0F90DA
:1019F0000F900F900F900F900F9017C06EEC82E237
:101A00000E94F20B84E09DE79F938F93CE01019695
:101A10009F938F9308969F938F930E94791D0F90A9
:101A20000F900F900F900F900F9081E00E941E0B6F
:101A300041E0BE01675F7F4F81E00E94C10A80E004
:101A400001C082E06996CDBFDEBFDF91CF910895DE
:101A50001F920F920FB60F9211242F933F934F9323
:101A60005F936F937F938F939F93AF93BF93EF9306
:101A7000FF9380916904882364F480E8809369046B
:101A800068E081E20E94A5078093112A84E0809398
:101A90002704FF91EF91BF91AF919F918F917F911B
:101AA0006F915F914F913F912F910F900FBE0F90CB
:101AB0001F901895E0E0F4E088E0808B818B828BAA
:101AC000838B848B858B868B878BE0E2F4E0808B25
:101AD000818B828B838B848B858BE0E4F4E0808B1D
:101AE000818B828B838B848B858B868B878BE0E6C7
:101AF000F4E094E0908B918B928B938B948B958BED
:101B0000968B978BE0E8F4E0808B818B828B838BC4
:101B1000E0EAF4E0808B818B828B838B848B858BD6
:101B2000868B08952F923F924F925F926F927F9291
:101B30008F929F92AF92BF92CF92DF92EF92FF92DD
:101B40000F931F93CF93DF93CDB7DEB7CD59D2401C
:101B5000CDBFDEBF92E4EBE7FDE7DE01AF5ABE4F3B
:101B600001900D929A95E1F790E2EDEBFDE7DE0131
:101B7000AD56BE4F01900D929A95E1F792E1EDEDD1
:101B8000FDE7DE01AD54BE4F01900D929A95E1F74D
:101B900091E3EFEEFDE7DE01AB53BE4F01900D92F6
:101BA0009A95E1F793E1E0E2FEE7DE01AA50BE4F2D
:101BB00001900D929A95E1F793E1E3E3FEE7DE01F0
:101BC000A75FBD4F01900D929A95E1F79DE1E6E484
:101BD000FEE7DE01A45EBD4F01900D929A95E1F7FC
:101BE00099E2E3E6FEE7DE01A75CBD4F01900D92AE
:101BF0009A95E1F79DE0ECE8FEE7DE01AE59BD4FB6
:101C000001900D929A95E1F791E1E9E9FEE7DE0195
:101C1000A159BD4F01900D929A95E1F7082F10E060
:101C200084E3809FF001819FF00D1124EB5FF74D5D
:101C300081818F3609F449C130F4863509F4B0C387
:101C4000853659F000C4843709F4CAC2863709F4CE
:101C500027C3803709F0F7C324C280E00E946413D1
:101C6000F62EE72ED82EC92E80E00E947106B62EE1
:101C7000A72E982E892E81E00E946413C057DD4F55
:101C80006883C059D240CF56DD4F7883C159D240C6
:101C9000CE56DD4F8883C259D240CD56DD4F988352
:101CA000C359D24081E00E947106CC56DD4F688353
:101CB000C459D240CB56DD4F7883C559D240CA565D
:101CC000DD4F8883C659D240C956DD4F9883C75926
:101CD000D24082E00E946413C856DD4F6883C85921
:101CE000D240C756DD4F7883C959D240C656DD4F22
:101CF0008883CA59D240C556DD4F9883CB59D2400C
:101D000082E00E947106762E672E582E492E83E0BF
:101D10000E946413C456DD4F6883CC59D240C35629
:101D2000DD4F7883CD59D240382E292ECE018B5EDF
:101D30009E4F0E94370524E3209FC001219F900DF4
:101D40001124805D974D2091A80422FF03C022E05A
:101D500030E002C021E030E09F938F932F923F92BA
:101D6000C356DD4F8881CD59D2408F93C456DD4F85
:101D70009881CC59D2409F934F925F926F927F92FD
:101D8000C556DD4F8881CB59D2408F93C656DD4F63
:101D90009881CA59D2409F93C756DD4F8881C9594F
:101DA000D2408F93C856DD4F9881C859D2409F9337
:101DB000C956DD4F8881C759D2408F93CA56DD4F2F
:101DC0009881C659D2409F93CB56DD4F8881C55923
:101DD000D2408F93CC56DD4F9881C459D2409F9307
:101DE000CD56DD4F8881C359D2408F93CE56DD4FFB
:101DF0009881C259D2409F93CF56DD4F8881C159F7
:101E0000D2408F93C057DD4F9881C059D2409F93E5
:101E10008F929F92AF92BF92CF92DF92EF92FF92FA
:101E2000CE018B5E9E4F9F938F933F932F93CC96C3
:101E30009F938F938E010F5F1F4F1F930F930E94ED
:101E4000791DCDBFDEBFC8010E945D09F801019078
:101E50000020E9F73197AF01401B510BB80180E03A
:101E60000E947E1441E06DE17DE781E00E94C10A9D
:101E700026E636E646EE5FE36F2D7E2D8D2D9C2DFA
:101E80000E94F4178F929F92AF92BF9220E030E0B1
:101E900040E052E40E945A169F938F937F936F9372
:101EA000CF92DF92EF92FF928DE29DE79F938F9307
:101EB0001F930F930E94791D42E0B80181E00E94B8
:101EC000C10ACDBFDEBF80E0BFC2AE0148575D4F43
:101ED000BE016C577D4FCE0180589D4F0E9469080E
:101EE000CE018B5E9E4F0E94370524E3209FC001E8
:101EF000219F900D1124805D974DC857DD4F1881AB
:101F0000C858D240C757DD4F0881C958D240C6577C
:101F1000DD4FF880CA58D240C557DD4FE880CB5816
:101F2000D240CC57DD4FE881C458D240CB57DD4F6B
:101F3000F881C558D240CA57DD4FA881C658D24053
:101F4000C957DD4FB881C758D240C058DD4F4881CE
:101F5000C058D240CF57DD4F5881C158D240CE57DC
:101F6000DD4F6881C258D240CD57DD4F7881C358CC
:101F7000D2402091A80422FF03C022E030E002C03A
:101F800021E030E09F938F93EF92FF920F931F9386
:101F9000BF93AF93FF93EF937F936F935F934F93B1
:101FA000CE018B5E9E4F9F938F933F932F938258CA
:101FB0009F4F9F938F938E010F5F1F4F1F930F9320
:101FC0000E94791DC8010E945D09F801019000205E
:101FD000E9F73197AF01401B510BB80180E00E9437
:101FE0007E1441E063E47DE781E00E94C10AC557A9
:101FF000DD4F8881CB58D2408F93C657DD4F888103
:10200000CA58D2408F93C757DD4F8881C958D240F4
:102010008F93C857DD4F8881C858D2408F93C957D6
:10202000DD4F8881C758D2408F93CA57DD4F8881D2
:10203000C658D2408F93CB57DD4F8881C558D240C8
:102040008F93CC57DD4F8881C458D2408F93CD57A2
:10205000DD4F8881C358D2408F93CE57DD4F8881A2
:10206000C258D2408F93CF57DD4F8881C158D2409C
:102070008F93C058DD4F8881C058D2408F93CE01D6
:102080008D549E4F9F938F931F930F930E94791DA2
:10209000CDBFDEBF42E0B80181E00E94C10A80E00E
:1020A000D3C1CE018B5E9E4F0E9437059E01215702
:1020B0003D4FAE0142575D4FBE0163577D4FCE018C
:1020C00084579D4F0E94860B24E3209FC001219FCF
:1020D000900D1124805D974DC157DD4F7881CF5809
:1020E000D240C257DD4F6881CE58D240C357DD4F32
:1020F0005881CD58D240C457DD4F4881CC58D2408A
:102100002091A80422FF03C022E030E002C021E0B9
:1021100030E09F938F931F927F931F926F931F9234
:102120005F931F924F93CE018B5E9E4F9F938F9331
:102130003F932F9380559F4F9F938F938E010F5FF7
:102140001F4F1F930F930E94791DC8010E945D09C4
:10215000F80101900020E9F73197AF01401B510BC6
:10216000B80180E00E947E14C257DD4F8881CE58AE
:10217000D2401F928F93C357DD4F8881CD58D240F4
:102180001F928F93CE018A509E4F9F938F931F93E0
:102190000F930E94791D41E0B80181E00E94C10ABD
:1021A000C157DD4F8881CF58D2401F928F93C457BB
:1021B000DD4F8881CC58D2401F928F93CE01875F2C
:1021C0009D4F9F938F931F930F930E94791DCDBFB7
:1021D000DEBF42E0B80181E00E94C10A80E034C164
:1021E000CE018B5E9E4F0E94370524E1AE01475D14
:1021F0005E4F60E070E080E50E94FD05CE01835CEB
:102200009E4F0E94B30524E3209FC001219F900DA3
:102210001124805D974D2091A80422FF03C022E085
:1022200030E002C021E030E09F938F93CE01835CC9
:102230009E4F9F938F9344979F938F938E010B5E36
:102240001E4F1F930F933F932F938D509F4F9F933C
:102250008F938B5192407C019F938F930E94791DA5
:10226000C7010E945D09F70101900020E9F731974D
:10227000AF014E195F09B70180E00E947E1441E072
:102280006FE47DE781E00E94C10AB801655F7F4F7E
:1022900042E081E00E94C10ACDBFDEBF80E0D4C031
:1022A00081E00E944507F62EE72ED82EC92E82E047
:1022B0000E944507B62EA72E982E892ECE018B5E42
:1022C0009E4F0E943705882379F064E57DE785E617
:1022D0000E94A60985E0EFE4FDE7DE01AB5EBE4F9C
:1022E00001900D928A95E1F724E3209FC001219F80
:1022F000900D1124805D974D2091A80422FF03C00A
:1023000022E030E002C021E030E09F938F938F9273
:102310009F92AF92BF92CF92DF92EF92FF92CE0147
:102320008B5E9E4F9F938F933F932F938C5D9E4F19
:102330009F938F938E010F5F1F4F1F930F930E94E8
:10234000791DC8010E945D09F80101900020E9F79C
:102350003197AF01401B510BB80180E00E947E1401
:1023600041E06BE67DE781E00E94C10A8F929F9277
:10237000AF92BF92CF92DF92EF92FF92CE018E5931
:102380009D4F9F938F931F930F930E94791D42E05F
:10239000B80181E00E94C10ACDBFDEBF80E054C019
:1023A000CE01865F9E4F0E94BA05CE018B5E9E4F86
:1023B0000E94370524E3209FC001219F900D112426
:1023C000805D974D2091A80422FF03C022E030E0F9
:1023D00002C021E030E09F938F93CE01865F9E4F35
:1023E0009F938F930B969F938F933F932F93865A30
:1023F0009E4F9F938F938E010F5F1F4F1F930F93DD
:102400000E94791DC8010E945D09F8010190002019
:10241000E9F73197AF01401B510BB80180E00E94F2
:102420007E1441E06CEB7CE781E00E94C10AC801A8
:102430000E94BA0542E0B80181E00E94C10ACDBF06
:10244000DEBF80E001C082E0C356DD4FCDBFDEBFFE
:10245000DF91CF911F910F91FF90EF90DF90CF9080
:10246000BF90AF909F908F907F906F905F904F90B4
:102470003F902F900895DC0140E050E080E090E034
:102480001BC0FD01E40FF51F208130E0322F222711
:102490008227932720E00CC099233CF4880F991FD2
:1024A00031E2832730E1932702C0880F991F2F5F05
:1024B000283090F34F5F5F4F4617570710F308958A
:1024C000DF92EF92FF920F931F93CF93DF9300D091
:1024D00000D0CDB7DEB7D82E84E08093132B1092B6
:1024E000152B1092162BD98288E18A8342E0BE0117
:1024F0006F5F7F4F81E00E947E148091162B8130A8
:10250000E1F7E2E1FAE29081E92EF12CFE2CEE24D3
:102510008181E82A028110E0102F00272381022BFD
:1025200092838383D08288E1818364E070E0CF016D
:102530000E943B120817190761F4B70180E090E090
:102540000E943D1720E030E040E251E40E94CB16AB
:1025500004C060E070E886E294EC2496CDBFDEBF54
:10256000DF91CF911F910F91FF90EF90DF90089531
:10257000AC01E0E6F0E0948D9E7F88ED84BF948FFF
:1025800001C000009091630096FDFBCFE0E6F0E013
:10259000948D9B7F28ED24BF948F948D916024BFF0
:1025A000948F01C00000909141019111FBCFE0E4B4
:1025B000F1E04287538782E087838581816085834C
:1025C00081EB808382818160828308951F920F92C4
:1025D0000FB60F9211242F933F934F935F936F93F6
:1025E0007F938F939F93AF93BF93EF93FF9381E07C
:1025F0008093430180910D2A90910E2A0097B9F0A3
:1026000020910F2A3091102A2817390758F480E0BA
:102610000E941E0B81E00E941E0B10920D2A109248
:102620000E2A05C0019680930D2A90930E2A80E20F
:102630008093A704FF91EF91BF91AF919F918F91EC
:102640007F916F915F914F913F912F910F900FBEAE
:102650000F901F901895CF93DF9390E024E3289F6D
:10266000F001299FF00D1124EB5FF74D21812437F4
:10267000E9F424E3289FE001299FD00D1124C95FCC
:10268000D74DFE0101900020E9F73197EC1BFD0BBF
:10269000739771F4CE010E949B0524E1AE0160E0C6
:1026A00070E080E50E943F0680E003C082E001C048
:1026B00082E0DF91CF910895E0EAF4E08289877F9C
:1026C000828B84E082830895833018F0833021F078
:1026D00006C00E94130108950E94E60708956AE962
:1026E00079EF89E794EC08950F931F93CF93DF93CD
:1026F000CDB7DEB7C055D109CDBFDEBF80E80E949F
:1027000060129F938F937F936F938AEA9EE79F93C4
:102710008F938E010F5F1F4F1F930F930E94791DA0
:10272000F80101900020E9F73197AF01401B510BF0
:10273000B80180E00E947E14CDBFDEBFC05BDF4FDA
:10274000CDBFDEBFDF91CF911F910F9108951F92F2
:102750000F920FB60F9211248F939F9381E0809375
:10276000860A80910328909104280196809303287B
:10277000909304289F918F910F900FBE0F901F9000
:102780001895E0EAF8E08BE086838381816083839B
:10279000858181608583089501C000008091A5082E
:1027A0008823DCF7E0EAF8E084818B7F84838085EE
:1027B000948192609483089501C000008091A508DF
:1027C0008823DCF7E0EAF8E08481846084838085F4
:1027D0000895613039F490E0880F991F81608093EB
:1027E000A70805C0880F8093A70801C0000080914A
:1027F000A508807CD9F38091A50882FD0CC080914A
:10280000A50883FD0AC09091A508892F807194FFC7
:1028100005C084E0089582E0089583E0089587E08C
:102820008093A408089501C000009091A50896FF28
:10283000FBCF8093A80801C000008091A50886FF07
:10284000FBCF9091A508892F807194FD84E00895B5
:10285000E0E0F4E081E085838183E0E0F8E02DE6CC
:1028600035E02087318795819068958396819064C3
:10287000968396819068968310921B2D10921C2D42
:102880008093202D1092162C1092172C1092172B3B
:102890001092192C10921B2CE0E4F4E085838183C4
:1028A000E0E2F8E0208731879581906895839681F2
:1028B0009064968396819068968310922A30109245
:1028C0002B3080932F301092112B1092122B1092DC
:1028D000122A1092162BE0E2F4E085838183E0E671
:1028E000F8E020873187968190649683968190687E
:1028F000968380932A2F1092252E08950F931F936D
:10290000CF93DF93EB01142F813001F1B0F08330CE
:1029100009F46DC074C0EBE1FDE2808190E0388184
:10292000DC01A45EB34D3C9301966FEF70E00E9412
:10293000DE1B80832F5F219601C020E0211758F312
:10294000E0E0F8E085818062858359C0642F70E003
:10295000CE010E943B12482F092F20E011C0EAE26D
:10296000F0E3808190E03881DC01A55DB04D3C93BF
:1029700001966FEF70E00E94DE1B80832F5F21962F
:10298000211768F3EAE2F0E3808190E0DC01A55DC5
:10299000B04D0C9301962FEF30E0B9010E94DE1B81
:1029A00090E0DC01A55DB04D4C930196B9010E9409
:1029B000DE1B80831E5F10932C3010922E30E0E2DD
:1029C000F8E08581806285831AC0E5E2FFE28081BC
:1029D00090E03881DC01AA5DB14D3C9301966FEF28
:1029E00070E00E94DE1B80832F5F219601C020E0F3
:1029F000211758F3E0E6F8E0858180628583DF9156
:102A0000CF911F910F9108951F920F920FB60F92C1
:102A100011245F936F937F938F939F93AF93BF9393
:102A2000EF93FF938091192C8F3F19F1809100084B
:102A30008D3051F481E080931B2CE091162CF0E056
:102A4000E95EF44D108206C0E091162CF0E0E95EDC
:102A5000F44D8083E9E1FCE280818F5F8083E6E1D1
:102A6000FCE2808190E001966FEF70E00E94DE1B37
:102A70008083FF91EF91BF91AF919F918F917F9153
:102A80006F915F910F900FBE0F901F9018951F923E
:102A90000F920FB60F9211248F939F93EF93FF9392
:102AA000E0E0F8E085818F7D858380911B2DE091AA
:102AB0001C2D8E17B9F091E09E0F90931C2DF0E025
:102AC000E45EF34D80818093020881E09F3F08F42B
:102AD00080E0890F80931C2DE0E0F8E08581806222
:102AE000858303C081E08093202DFF91EF919F911A
:102AF0008F910F900FBE0F901F9018951F920F92FD
:102B00000FB60F9211242F938F939F93EF93FF9300
:102B100090912008E091152B8091132BE81740F439
:102B200021E02E0F2093152BF0E0EE5EF54D908303
:102B30009091152B981718F081E08093162BFF9138
:102B4000EF919F918F912F910F900FBE0F901F903B
:102B500018951F920F920FB60F9211248F939F9387
:102B6000EF93FF93E0E2F8E085818F7D858380918C
:102B70002A30E0912B308E17B9F091E09E0F9093A0
:102B80002B30F0E0E55DF04D80818093220881E0FC
:102B90009F3F08F480E0890F80932B30E0E2F8E05B
:102BA00085818062858303C081E080932F30FF910F
:102BB000EF919F918F910F900FBE0F901F901895DE
:102BC0001F920F920FB60F9211248F939F93AF9382
:102BD000BF93EF93FF93809160088D3021F0E091D7
:102BE000242EEE3F78F081E08093252EA4E2BEE211
:102BF0008C91E82FF0E0EF5DF24D10828093222E51
:102C00001C9208C091E09E0F9093242EF0E0EF5D9F
:102C1000F24D8083FF91EF91BF91AF919F918F9182
:102C20000F900FBE0F901F9018951F920F920FB626
:102C30000F9211248F939F93AF93BF93EF93FF93C2
:102C4000A9E2BFE2EC9181E08E0F8C93F0E0EA5DA7
:102C5000F14D9081909362089091272F891740F051
:102C6000E0E6F8E085818F7D858381E080932A2FDF
:102C7000FF91EF91BF91AF919F918F910F900FBEF8
:102C80000F901F9018950E9428140E944D1688EDF1
:102C900084BF81E0809300010895E0E4F4E088E0DF
:102CA00086838183ADE8B0E21197F1F70000858358
:102CB00008955058BB27AA270E9471160C94B51787
:102CC0000E94A71738F00E94AE1720F039F49F3FFA
:102CD00019F426F40C94A4170EF4E095E7FB0C9479
:102CE0009E17E92F0E94C61758F3BA176207730799
:102CF0008407950720F079F4A6F50C94E8170EF4F4
:102D0000E0950B2EBA2FA02D0B01B90190010C01FB
:102D1000CA01A0011124FF27591B99F0593F50F413
:102D2000503E68F11A16F040A22F232F342F44276B
:102D3000585FF3CF469537952795A795F040539563
:102D4000C9F77EF41F16BA0B620B730B840BBAF033
:102D50009150A1F0FF0FBB1F661F771F881FC2F79E
:102D60000EC0BA0F621F731F841F48F487957795B2
:102D70006795B795F7959E3F08F0B0CF9395880F6C
:102D800008F09927EE0F9795879508950E947A1776
:102D900008F481E008950E94DF160C94B5170E9494
:102DA000AE1758F00E94A71740F029F45F3F29F0B2
:102DB0000C949E1751110C94E9170C94A4170E94BF
:102DC000C61768F39923B1F3552391F3951B550B5F
:102DD000BB27AA2762177307840738F09F5F5F4FEE
:102DE000220F331F441FAA1FA9F335D00E2E3AF02D
:102DF000E0E832D091505040E695001CCAF72BD045
:102E0000FE2F29D0660F771F881FBB1F2617370795
:102E10004807AB07B0E809F0BB0B802DBF01FF27C7
:102E200093585F4F3AF09E3F510578F00C949E17EF
:102E30000C94E9175F3FE4F3983ED4F386957795B9
:102E40006795B795F7959F5FC9F7880F911D969580
:102E5000879597F90895E1E0660F771F881FBB1FDC
:102E6000621773078407BA0720F0621B730B840B89
:102E7000BA0BEE1F88F7E0950895E89409C097FB18
:102E80003EF490958095709561957F4F8F4F9F4F41
:102E90009923A9F0F92F96E9BB279395F695879585
:102EA00077956795B795F111F8CFFAF4BB0F11F448
:102EB00060FF1BC06F5F7F4F8F4F9F4F16C08823EF
:102EC00011F096E911C0772321F09EE8872F762F25
:102ED00005C0662371F096E8862F70E060E02AF066
:102EE0009A95660F771F881FDAF7880F9695879552
:102EF00097F90895990F0008550FAA0BE0E8FEEF27
:102F000016161706E807F907C0F012161306E407AD
:102F1000F50798F0621B730B840B950B39F40A26A6
:102F200061F0232B242B252B21F408950A2609F484
:102F3000A140A6958FEF811D811D089597F99F6788
:102F400080E870E060E008959FEF80EC0895002431
:102F50000A941616170618060906089500240A94FE
:102F600012161306140605060895092E0394000C84
:102F700011F4882352F0BB0F40F4BF2B11F460FF13
:102F800004C06F5F7F4F8F4F9F4F089557FD90583C
:102F9000440F551F59F05F3F71F04795880F97FB1D
:102FA000991F61F09F3F79F08795089512161306D7
:102FB0001406551FF2CF4695F1DF08C01616170606
:102FC0001806991FF1CF869571056105089408953B
:102FD000E894BB2766277727CB0197F908950E94CD
:102FE0007A1708F48FEF08950E9407180C94B5170C
:102FF0000E94A71738F00E94AE1720F0952311F019
:103000000C949E170C94A41711240C94E9170E9499
:10301000C61770F3959FC1F3950F50E0551F629F3F
:10302000F001729FBB27F00DB11D639FAA27F00D21
:10303000B11DAA1F649F6627B00DA11D661F829F48
:103040002227B00DA11D621F739FB00DA11D621F2D
:10305000839FA00D611D221F749F3327A00D611D4A
:10306000231F849F600D211D822F762F6A2F11242C
:103070009F5750409AF0F1F088234AF0EE0FFF1F5F
:10308000BB1F661F771F881F91505040A9F79E3FB6
:10309000510580F00C949E170C94E9175F3FE4F300
:1030A000983ED4F3869577956795B795F795E7950C
:1030B0009F5FC1F7FE2B880F911D9695879597F915
:1030C0000895A0E1B0E0E7E6F8E10C94F81B7C017C
:1030D0001B016A01FC0116821782838181FF44C3B0
:1030E0009E012F5F3F4F3901F7019381F10193FD5D
:1030F000859193FF81911F01882309F431C38532A3
:1031000039F493FD859193FF81911F01853239F444
:10311000B70190E00E943D1D56016501E5CF10E02A
:10312000512C912CFFE1F915D8F08B3279F038F45D
:10313000803279F08332A1F4F92DF0612EC08D3206
:1031400061F0803369F4292D21602DC0392D326062
:10315000932E892D8460982E2AC0E92DE86015C031
:1031600097FC2DC020ED280F2A3088F496FE06C06B
:103170003AE0139F200D1124122F19C08AE0589EA7
:10318000200D1124522EE92DE0629E2E10C08E32A9
:1031900031F496FCE5C2F92DF0649F2E08C08C3600
:1031A00021F4292D2068922E02C0883641F4F101C5
:1031B00093FD859193FF81911F018111B3CF9BEB0B
:1031C000980F933020F4992D9061805E07C09BE9A1
:1031D000980F933008F066C1992D9F7E96FF16E0F8
:1031E0009F73992E853619F49064992E08C08636FF
:1031F00021F4392F3068932E02C01111115097FE1F
:1032000007C01C3350F444244394410E27E00BC004
:10321000183038F027E017E005C027E09CE3492E7E
:1032200002C0212F412C560184E0A80EB11CF601EA
:103230006081718182819381042DA3010E943D1CD4
:103240006C01F981FC87F0FF02C0F3FF06C091FC1E
:1032500006C092FE06C000E205C00DE203C00BE20C
:1032600001C000E08C858C7019F001115AC29BC21C
:1032700097FE10C04C0CFC85F4FF04C08A8181339A
:1032800009F44A94141474F528E0241578F588E0BC
:10329000482E2CC096FC2AC0812F90E08C159D05ED
:1032A0009CF03CEFC3163FEFD30674F0892D806885
:1032B000982E0AC0E2E0F0E0EC0FFD1FE10FF11DD7
:1032C0008081803319F411501111F4CF97FE0EC094
:1032D00044244394410E812F90E0C816D9062CF463
:1032E0001C1904C04424439401C010E097FE06C09A
:1032F0001C141D0434F4C601019605C085E090E05D
:1033000002C081E090E001110196112331F0212FDC
:1033100030E02F5F3F4F820F931F252D30E0821743
:10332000930714F4581A01C0512C892D897049F45F
:10333000552039F0B70180E290E00E943D1D5A947B
:10334000F7CF002329F0B701802F90E00E943D1DA8
:1033500093FC09C0552039F0B70180E390E00E944A
:103360003D1D5A94F7CF97FE4CC04601D7FE02C0D0
:10337000812C912CC60188199909F301E80FF91FD6
:10338000ED87FE879601241931092F87388B012F8D
:1033900010E01195019511093FEF8316930629F46A
:1033A000B7018EE290E00E943D1DC814D9044CF094
:1033B0008F8598898815990524F4ED85FE8581818E
:1033C00001C080E3F1E08F1A91082D853E852F5FC3
:1033D0003F4F2D873E87801691062CF0B70190E075
:1033E0000E943D1DD9CFC814D90441F49A81963367
:1033F00020F4953319F43C8534FF81E3B70190E064
:103400004EC08A81813319F09C859F7E9C87B701CD
:1034100090E00E943D1D111105C094FC18C085E686
:1034200090E017C0B7018EE290E00E943D1D1E5F44
:1034300082E001E0080FF301E80FF11D8081B70180
:1034400090E00E943D1D802F0113F3CFE6CF85E46D
:1034500090E0B7010E943D1DD7FC06C0C114D10405
:1034600041F4EC85E4FF05C0D194C194D1088DE20C
:1034700001C08BE2B70190E00E943D1D80E32AE08D
:10348000C216D1042CF08F5FFAE0CF1AD108F7CF23
:10349000B70190E00E943D1DB701C601C0960E9491
:1034A0003D1D54C1833631F0833779F0833509F0FF
:1034B00056C020C0560132E0A30EB11CF601808137
:1034C000898301E010E0630112C05601F2E0AF0E03
:1034D000B11CF601C080D18096FE03C0612F70E060
:1034E00002C06FEF7FEFC6010E94321D8C01F92DE3
:1034F000FF7714C0560122E0A20EB11CF601C08075
:10350000D18096FE03C0612F70E002C06FEF7FEFA5
:10351000C6010E94151D8C01F92DF0689F2EF3FD48
:103520001AC0852D90E008171907A8F4B70180E2AA
:1035300090E00E943D1D5A94F4CFF60197FC8591CE
:1035400097FE81916F01B70190E00E943D1D5110DF
:103550005A94015011090115110579F7F7C0843605
:1035600011F0893661F5560197FE09C024E0A20EDC
:10357000B11CF60160817181828193810AC0F2E001
:10358000AF0EB11CF60160817181072E000C880B13
:10359000990BF92DFF769F2E97FF09C09095809586
:1035A000709561957F4F8F4F9F4FF0689F2E2AE057
:1035B00030E0A3010E949B1DC82EC6183FC0092DF4
:1035C000853721F40F7E2AE030E01DC0097F8F3659
:1035D00091F018F4883559F0C3C0803719F0883756
:1035E00011F0BEC0006104FF09C0046007C094FE72
:1035F00008C0066006C028E030E005C020E130E0E9
:1036000002C020E132E0560107FF09C084E0A80EA5
:10361000B11CF601608171818281938108C0F2E062
:10362000AF0EB11CF6016081718180E090E0A301D2
:103630000E949B1DC82EC6180F77902E96FE0BC0B9
:10364000092D0E7FC11650F494FE0AC092FC08C0EA
:10365000092D0E7E05C0DC2C092D03C0DC2C01C019
:10366000D12E04FF0DC0FE01EC0DF11D80818033D1
:1036700011F4097E09C002FF06C0D394D39404C09C
:10368000802F867809F0D39403FD11C000FF06C097
:103690001C2DD51480F4150D1D190DC0D51458F42A
:1036A000B70180E290E00E943D1DD394F7CFD5147E
:1036B00010F45D1801C0512C04FF10C0B70180E365
:1036C00090E00E943D1D02FF17C001FD03C088E786
:1036D00090E002C088E590E0B7010CC0802F8678AA
:1036E00059F001FF02C08BE201C080E207FD8DE2CC
:1036F000B70190E00E943D1DC11638F4B70180E388
:1037000090E00E943D1D1150F7CFCA94F301EC0DDB
:10371000F11D8081B70190E00E943D1DC110F5CFE1
:1037200015C0F4E0F51560F584E0581A93FE1FC04B
:10373000011127C02C8523FF2AC006EE10E0392D89
:103740003071932EF8018491811124C0552009F421
:10375000E4CCB70180E290E00E943D1D5A94F6CF80
:10376000F7018681978126C08FEF9FEF23C0B701B5
:1037700080E290E00E943D1D5A945110F8CFD8CFBE
:10378000512CB701802F90E00E943D1DD3CF0AEE4F
:1037900010E0D5CF91108052B70190E00E943D1DFE
:1037A0000F5F1F4FCFCF23E0251510F483E0BDCF6F
:1037B000512CC0CF6096E2E10C94111C97FB072EB0
:1037C00016F4009407D077FD09D00E94291C07FC4D
:1037D00005D03EF4909581959F4F08957095619521
:1037E0007F4F0895EE0FFF1F0590F491E02D09948F
:1037F0002F923F924F925F926F927F928F929F9201
:10380000AF92BF92CF92DF92EF92FF920F931F93EE
:10381000CF93DF93CDB7DEB7CA1BDB0BCDBFDEBFC7
:1038200009942A88398848885F846E847D848C84D2
:103830009B84AA84B984C884DF80EE80FD800C81DB
:103840001B81AA81B981CE0FD11DCDBFDEBFED0195
:103850000895AA1BBB1B51E107C0AA1FBB1FA617D7
:10386000B70710F0A61BB70B881F991F5A95A9F729
:1038700080959095BC01CD010895283008F027E08F
:103880003327DA01990F311D87FD9160009661059C
:10389000710539F432602E5F3D9330E32A95E1F7EC
:1038A00008959F3F30F080387105610509F03C5F55
:1038B0003C5F3D93913008F08068911DDF93CF937A
:1038C0001F930F93FF92EF92192F987F9695E92FF0
:1038D00096959695E90FFF27E85BFE4F99273327CA
:1038E000EE24FF24A701E70105900894079428F42B
:1038F000360FE71EF81E491F511D660F771F881FE0
:10390000991F0694A1F70590079428F4E70EF81E76
:10391000491F561FC11D770F881F991F661F0694E8
:10392000A1F70590079428F4F80E491F561FC71FEA
:10393000D11D880F991F661F771F0694A1F7059068
:10394000079420F4490F561FC71FD81F990F661FF1
:10395000771F881F0694A9F784911095177041F07E
:10396000D695C79557954795F794E7941A95C1F75B
:10397000EEEEF0E068941590159135916591959172
:1039800005907FE27395E118F10A430B560BC90BC2
:10399000D009C0F7E10CF11E431F561FC91FD01DEF
:1039A0007EF4703311F48A95E6CFE894015030F03C
:1039B000080F0AF40027021708F4202F2395022F7E
:1039C0007A3328F079E37D932A95E9F710C07D9347
:1039D0002A9589F6069497956795379517951794C4
:1039E000E118F10A430B560BC90BD00998F0239547
:1039F0007E9173957A3308F070E37C932013B8F7C7
:103A00007E9170617D9330F0839571E37D9370E3D7
:103A10002A95E1F71124EF90FF900F911F91CF911C
:103A2000DF91992787FD90950895FC0105906150DD
:103A300070400110D8F7809590958E0F9F1F0895C4
:103A4000FB01DC010D900020E9F7119701900D9228
:103A50000020E1F70895FB01DC0101900D920020A8
:103A6000E1F70895FC016150704001900110D8F712
:103A7000809590958E0F9F1F08950F931F93CF935E
:103A8000DF93FB01238121FD03C08FEF9FEF2CC04B
:103A900022FF16C046815781248135814217530782
:103AA00044F4A081B1819D012F5F3F4F208331837A
:103AB0008C93268137812F5F3F4F2683378314C035
:103AC0008B01EC01FB010084F185E02D0995892B28
:103AD000E1F6D80116968D919C911797019616964E
:103AE0008D939C931797CE01DF91CF911F910F91EA
:103AF0000895AEE0B0E0EFE7FDE10C94061C0D89FF
:103B00001E8986E08C8309831A838FEF9FE78D835C
:103B10009E83AE01475E5F4F6F89788DCE0101961F
:103B20000E946118EF81F885E00FF11F10822E9638
:103B3000E4E00C941F1CFA01AA27283051F120312F
:103B400081F1E8946F936E7F6E5F7F4F8F4F9F4F31
:103B5000AF4FB1E03ED0B4E03CD0670F781F891F73
:103B60009A1FA11D680F791F8A1F911DA11D6A0F41
:103B7000711D811D911DA11D20D009F468943F91F4
:103B80002AE0269F11243019305D3193DEF6CF01F3
:103B90000895462F4770405D4193B3E00FD0C9F7B9
:103BA000F6CF462F4F70405D4A3318F0495D31FD26
:103BB0004052419302D0A9F7EACFB4E0A695979579
:103BC000879577956795BA95C9F70097610571054F
:103BD00008959B01AC010A2E069457954795379599
:103BE0002795BA95C9F7620F731F841F951FA01DF3
:103BF000089560507C4E0C94341EDC01A40FB51F58
:103C00004150504048F0CB01840F951F2E910E94E7
:103C10000E1E41505040D0F70895262F0E94301EAE
:103C20000080021619F00E94191E0197019708954D
:103C3000262FAF93BF93E0E0F0E1328131FDFDCF5D
:103C4000DC01A050BC4E2C932DE924BF23E020833F
:103C50000196BF91AF91089503D08081992708956F
:103C6000FC01E050FC4E0895FB01DC0102C0019014
:0E3C70000D9241505040D8F70895F894FFCFC0
:103C7E0024532564434D442C2573003230253032B5
:103C8E00782D253032782D25303278542530327803
:103C9E003A253032783A25303278003F4453333269
:103CAE00333100323032312D30322D3234007370D8
:103CBE0065634D6563682056657273696F6E002A81
:103CCE00253032580D0A00245325644552522C25B6
:103CDE00642C25730020202020202020202020204E
:103CEE00202020202000626F7468006C65667400CE
:103CFE007269676874007368757474657200436CDA
:103D0E006F7365202573004F70656E202573005408
:103D1E00656D7020262048756D696469747900257B
:103D2E00312E3166432025312E3066462025312E28
:103D3E0030662525004F7269656E746174696F6E09
:103D4E000054696D650043616E27742067657420A9
:103D5E0063757272656E742074696D650052656468
:103D6E005661632020426C756556616300245325AD
:103D7E0064454E562C25732C25332E3166432C2547
:103D8E00312E306625252C25332E3166432C2531D8
:103D9E002E306625252C25332E3166432C25312ECB
:103DAE00306625252C25332E3166432C25730024B1
:103DBE005325644F52492C25732C25332E31662CF6
:103DCE0025332E31662C25332E31662C2573002596
:103DDE00322E30662025322E30662025322E306669
:103DEE000024532564504E552C25732C25632C73BB
:103DFE006875747465722C25632C6C6566742C253D
:103E0E00632C72696768742C25632C6169722C258A
:103E1E0073006C6566743A256320202072696768AA
:103E2E00743A256300736875747465723A2563205D
:103E3E00206169723A2563002453256454494D2C40
:103E4E0025732C25732C7365742C25732C626F6F60
:103E5E00742C257300245325645641432C25732C52
:103E6E0025352E32662C7265647661632C25352ECF
:103E7E0032662C626C75657661632C257300253273
:103E8E002E3266202025322E3266002453256456AB
:103E9E0045522C25732C25732C25730025342E3179
:0A3EAE006620766F6C74730D0A0035
:023EB800010007
:00000001FF
