:100000000C946B010C947D010C947D010C94912651
:100010000C94B3260C947D010C947D010C947D010D
:100020000C947D010C947D010C947D010C947D0158
:100030000C94F1260C947D010C947D010C947D01AF
:100040000C947D010C942E290C947C290C947D0138
:100050000C9482100C947D010C947D010C947D0114
:100060000C947D010C947D010C94D6280C94F628F8
:100070000C947D010C94212A0C947D010C947D013B
:100080000C947D010C947D010C947D010C947D01F8
:100090000C947D010C94B8290C94ED290C947D01ED
:1000A000E5040F050F050F050F050F050F050F05DB
:1000B0000F05E8040F050F050F050F050F050F05C8
:1000C0000F050C050F050F050F050F050F050F0593
:1000D0000F050F05D3040F050F050F050F050F05BD
:1000E0000F050F050F050F05D9040F05D6040F05E1
:1000F0000F05DC04DF04E2049E119E119E11BE1761
:10010000BE17BE17BE17BE17BE17BE17BE17BE1747
:10011000BE17BE17BE17BE17BE17BE17BE17BE1737
:10012000BE178017BE17BE17BE17BE17BE17BE1765
:10013000BE17BE17BE17BE17951395139513BE179E
:100140004314BE17BE17BE17BE17BE17BE17BE1785
:10015000BE17BE1780155616BE17BE17BE17DF1680
:10016000BE1727171D231D231D232923B223B223C6
:10017000B223B223B223B223B223B223B223B223D7
:10018000B223B223B223B223B223B223B223B223C7
:10019000B223B223B223B223B223B223B223B223B7
:1001A000B223B2236123612361238623B223B223C6
:1001B000B223B223B223B223B223B223B223B22397
:1001C000B223B223B223B223B223B223B223B22387
:1001D000B22319236E616E00696E660000407A10CA
:1001E000F35A00A0724E18090010A5D4E80000E8E8
:1001F0007648170000E40B54020000CA9A3B000046
:1002000000E1F505000080969800000040420F00D4
:100210000000A08601000000102700000000E80395
:10022000000000006400000000000A000000000060
:100230000100000000002C76D888DC674F0823DF1F
:10024000C1DFAE59E1B1B796E5E3E453C63AE651F2
:10025000997696E8E6C28426EB898C9B62ED407C19
:100260006FFCEFBC9C9F40F2BAA56FA5F490055AB5
:100270002AF75C936B6CF9676DC11BFCE0E40D47DA
:10028000FEF520E6B500D0ED902E030094357705FD
:100290000080841E080000204E0A000000C80C33B5
:1002A0003333330F986E12831141EF8D2114893B44
:1002B000E65516CFFEE6DB18D1844B381BF77C1DC4
:1002C000901DA4BBE424203284725E228100C9F117
:1002D00024ECA1E53D2711241FBECFEFCDBFDFE306
:1002E000DEBF22E3A0E0B8E201C01D92A535B2074F
:1002F000E1F70E94930A0C94ED320C9400008F9267
:100300009F92AF92BF92EF92FF920F931F93CF9362
:10031000DF9300D000D0CDB7DEB77B018130C9F0CC
:1003200018F0823061F010C00F2EF3E38F2E982C5E
:10033000F3EFAF2EF0E4BF2EF02D11E00EC0812CB4
:10034000912C540110E109C0812C912C540110E032
:1003500004C0812C912C540114E040E066E087E257
:100360000E940F0B412F409560E087E20E940F0B27
:10037000412F6AE087E20E940F0B86E18A95F1F730
:1003800000008E010F5F1F4F20E840E768E088E41F
:100390000E940002833651F440E050E866E274ECBB
:1003A000F70140835183628373831CC020E030E0F7
:1003B0004AE754E469817A818B819C810E94E72B12
:1003C00023E333E948E853E40E944C2A9B01AC0143
:1003D000C501B4010E944D2AF701608371838283B5
:1003E000938380E02496CDBFDEBFDF91CF911F9134
:1003F0000F91FF90EF90BF90AF909F908F900895D6
:100400008F929F92AF92BF92CF92DF92EF92FF9224
:100410000F931F93CF93DF93F82EE62E6801462BA0
:10042000C42FC168D22FD36080E090E8A6E2B4EC7C
:10043000F80180839183A283B38360E08F2D0E94B3
:100440004C27082F882321F00E94962713E6B4C07A
:1004500081E00E949A27182F833619F40E9496276C
:10046000ABC08C2F0E949A27182F833619F40E9454
:100470009627A2C08D2F0E949A27182F833619F431
:100480000E94962799C00E949627FCE1FA95F1F701
:10049000C1E009C061E08F2D0E944C270E942D27EA
:1004A00088230CF4C0E0C111F5CF0E94962760E0CC
:1004B0008F2D0E944C2780E00E949A2761E08F2DAB
:1004C0000E944C270E940B27C82F0E942D27D82F4F
:1004D0000E9496276C2F70E0762F66276D2B84E0A4
:1004E000E81649F18E1530F0EE20D9F1E2E0EE1673
:1004F00069F142C0F8E0EF1609F442C08AE0E8165C
:1005000021F0E6E0EE1238C00BC00F2EF4E78F2E7C
:10051000F3E19F2EF3E0AF2EF7E3BF2EF02D3AC0AC
:100520000F2EF4E78F2EF3E19F2EF3E0AF2EF8E3CA
:10053000BF2EF02D2FC00F2EF2E18F2EF3E19F2E54
:10054000F3E8AF2EF8E3BF2EF02D24C00F2EF4E712
:100550008F2EF3E19F2EF3E0AF2EF9E3BF2EF02DA7
:1005600019C00F2EFEE28F2EFDE99F2EF4E4AF2E70
:10057000F9E3BF2EF02D0EC0812C912C54010AC03E
:100580000F2EF1E78F2EF3E19F2EF3E8AF2EF7E366
:10059000BF2EF02D072E000C880B990B0E94322BDA
:1005A0009B01AC01C501B4010E94E72BF6016083F9
:1005B000718382839383102F812FDF91CF911F91BD
:1005C0000F91FF90EF90DF90CF90BF90AF909F90F2
:1005D0008F900895CF93DF939C0140E01CC0C0E44E
:1005E000DEE2E881F0E0EF5BF24D8081F901E40F9B
:1005F000F11D8083A2E4BEE28C9181508C938881AE
:1006000090E001966EEF70E00E94D12F8883808188
:10061000882329F04F5F8091422E8111E0CFF901AC
:10062000E40FF11D1082DF91CF9108959FE9980F9B
:100630009A3128F081548A3120F483E6089583E6C4
:10064000089580E00895EF92FF921F93CF93DF9378
:10065000EC01E62EF12C84E38E9DF0018F9DF00DD0
:100660001124E15FF74D8FE380838183128213A60B
:1006700004C0112309F475C021961881812F0E94AE
:1006800016038823B1F3219684E38E9DF0018F9D9C
:10069000F00D1124E15FF74D108304C0112309F41C
:1006A00060C021961881812F0E9416038823B1F320
:1006B000219684E38E9DF0018F9DF00D1124E15F62
:1006C000F74D118380E02AC0988191110CC094E30A
:1006D0009E9DF0019F9DF00D1124E15FF74DE80F05
:1006E000F11D12823EC09B3361F494E39E9DF001A4
:1006F0009F9DF00D1124E15FF74DE80FF11D12826F
:100700000FC0219624E32E9DF0012F9DF00D1124A2
:10071000E15FF74DE80FF11D92838F5F8932A0F200
:10072000219680E01CC0988191110CC094E39E9D9D
:10073000F0019F9DF00D1124E15FF74DE80FF11DD1
:1007400013A60FC0219624E32E9DF0012F9DF00DDE
:100750001124E15FF74DE80FF11D93A78F5F8930FA
:1007600010F3DF91CF911F91FF90EF9008950F93B9
:100770001F93CF93DF93CDB7DEB7C550D140CDBF28
:10078000DEBF27E0E4EEF5EADE01A150BF4F0190A5
:100790000D922A95E1F72091172A21112AC0209164
:1007A000A80422FF03C022E030E002C021E030E0D4
:1007B0009F938F933F932F93CE0181509F4F9F9391
:1007C0008F938E010F5F1F4F1F930F930E9429324B
:1007D000C8010E94DC0CF80101900020E9F7319774
:1007E000AF01401B510BB80180E00E942528CDBF0E
:1007F000DEBFCB5FDE4FCDBFDEBFDF91CF911F915C
:100800000F910895CF92DF92EF92FF920F931F9373
:10081000CF93DF93CDB7DEB7CC51D140CDBFDEBF94
:10082000D82EC92E8AE0EBEEF5EA9E012F5F3F4FEE
:100830007901D90101900D928A95E1F78E01055F4A
:100840001F4FC8010E947A07CF92DF921F930F9328
:10085000FF92EF920C5E1F4F1F930F930E9429325D
:10086000C8010E94B703CDBFDEBFC45EDE4FCDBF5F
:10087000DEBFDF91CF911F910F91FF90EF90DF903E
:10088000CF900895CF93DF9300D0CDB7DEB781E24C
:1008900090E089839A8341E0BE016F5F7F4F80E0E3
:1008A0000E9425280F900F90DF91CF910895CF934C
:1008B000C0910E28C11121C0FC018081813291F4C8
:1008C000918191110FC08FEF91E00E945F2685E02A
:1008D00090E08093092890930A2881E080930E2865
:1008E000C1E00CC0813231F48181882319F00E946B
:1008F0001B2A04C00E94420401C0C1E08C2FCF918A
:100900000895CF93DF9300D0CDB7DEB78EE390E0AC
:1009100089839A8341E0BE016F5F7F4F80E00E9430
:1009200025280F900F90DF91CF910895CF93DF93FB
:10093000CDB7DEB7CF5FD109CDBFDEBFCE01019607
:100940000E94EA02CE0101960E945704882309F40E
:1009500078C08981882311F0813229F41092172AF6
:100960000E9481046EC0CE0101960E940204609133
:100970000028CE0101960E9423038091002824E3E1
:10098000829FF0011124E15FF74DE0814E2F50E08E
:10099000FA01E954F109EC32F10508F040C0E05BDE
:1009A000FF4F0C9404300E942E0F3FC00E94D80FBE
:1009B0003CC00E94BF2239C00E94D81036C00E949D
:1009C000832433C00E941F2630C00E9437222DC0CE
:1009D0000E942D1F882339F065EF75EA86E391E0C8
:1009E0000E94670822C00E948E1F833631F46AE19C
:1009F00076EA83E991E00E94670810923C2A0E94FF
:100A000081048AE694E021E0815090402040E1F7A3
:100A100000C00E941B2A15C00E94142406C06CE36B
:100A200076EA89EC90E00E9467088091002890E0C7
:100A300001966AE070E00E94D12F809300280E9406
:100A40008104C150DF4FCDBFDEBFDF91CF9108954C
:100A50000F931F93CF93DF93CDB7DEB7C05FD1095C
:100A6000CDBFDEBF8C0188E1EAE4F6EADE01A55ADB
:100A7000BF4F01900D928A95E1F789E1E2E6F6EA2F
:100A8000DE01AD58BF4F01900D928A95E1F787E1E5
:100A9000EBE7F6EADE01A457BF4F01900D928A956D
:100AA000E1F788E1E2E9F6EADE01AD55BF4F0190DA
:100AB0000D928A95E1F78BE1EAEAF6EADE01A554A8
:100AC000BF4F01900D928A95E1F78BE1E5ECF6EAD4
:100AD000DE01AA52BF4F01900D928A95E1F720E006
:100AE0000EC0822F90E0F801E80FF91F3081E1E09D
:100AF000F0E0EC0FFD1FE80FF91F30832F5F24306B
:100B000080F31D82CE0101960E948B30855E974056
:100B10000A9740F1CE01855A9F4F9F938F938E0184
:100B2000055F1F4F1F930F930E942932B8018BE579
:100B300092E00E9467080F900F900F900F9083E64D
:100B4000FDC0282F30E0F9013597D801A20FB31F5F
:100B50009C9121E030E02C0F3D1FE20FF31F9083AA
:100B60008F5F01C085E0873060F31B82CE01019664
:100B70000E948B3001970C9740F1CE018D589F4F0A
:100B80009F938F938E01055F1F4F1F930F930E94BA
:100B90002932B8018BE592E00E9467080F900F9010
:100BA0000F900F9083E6CAC0282F30E0F9013897E4
:100BB000D801A20FB31F9C9121E030E02C0F3D1F04
:100BC000E20FF31F90838F5F01C088E08A3060F3EB
:100BD0001B82CE0101960E948B3001974F9740F106
:100BE000CE0184579F4F9F938F938E01055F1F4FB8
:100BF0001F930F930E942932B8018BE592E00E9467
:100C000067080F900F900F900F9083E697C0282FE2
:100C100030E0F9013B97D801A20FB31F9C9121E06E
:100C200030E02C0F3D1FE20FF31F90838F5F01C058
:100C30008BE08D3060F31B82CE0101960E948B30D9
:100C4000489740F1CE018D559F4F9F938F938E0112
:100C5000055F1F4F1F930F930E942932B8018BE548
:100C600092E00E9467080F900F900F900F9083E61C
:100C700065C0282F30E0F9013E97D801A20FB31FBD
:100C80009C9121E030E02C0F3D1FE20FF31F908379
:100C90008F5F01C08EE0803160F31B82CE01019630
:100CA0000E948B30CC9740F1CE0185549F4F9F938B
:100CB0008F938E01055F1F4F1F930F930E94293260
:100CC000B8018BE592E00E9467080F900F900F909B
:100CD0000F9083E633C0282F30E0F9017197D801D7
:100CE000A20FB31F9C9121E030E02C0F3D1FE20FBB
:100CF000F31F90838F5F01C081E1833160F31B821A
:100D0000CE0101960E948B30CC97B8F0CE018A526A
:100D10009F4F9F938F938E01055F1F4F1F930F93DC
:100D20000E942932B8018BE592E00E9467080F907B
:100D30000F900F900F9083E601C080E0C051DF4F0D
:100D4000CDBFDEBFDF91CF911F910F9108950F931B
:100D50001F93CF93DF93CDB7DEB7A097CDBFDEBF94
:100D600040E2E0EEF6EA9E012F5F3F4FD90101908D
:100D70000D924A95E1F7FB01B081A18112810481B6
:100D8000558146811F92BF931F92AF931F921F936D
:100D90001F920F931F925F931F924F933F932F9336
:100DA0009F938F930E942932CDBFDEBFA096CDBF07
:100DB000DEBFDF91CF911F910F910895DC01FB0100
:100DC000818990E0C09782959295907F9827807F47
:100DD000982792899053892B8C93868590E0C097B1
:100DE00082959295907F9827807F9827978590533A
:100DF000892B11968C931197838590E0C0978295EB
:100E00009295907F9827807F982794859053892B7F
:100E100012968C93129781E013968C93139780858A
:100E200090E0C09782959295907F9827807F982731
:100E300091859053892B14968C931497258130E0DB
:100E40002053310922953295307F3227207F322777
:100E500086818053282B15962C931597228130E09C
:100E60002053310922953295307F3227207F322757
:100E700083818053282B16962C930895EF92FF922E
:100E80000F931F93CF937B0160E00E944C27C82FE4
:100E9000833619F40E94962726C080E00E949A2784
:100EA000C82F833619F40E9496271DC061E088E69A
:100EB0000E944C27C82F833661F40E94962713C0E6
:100EC00087010C0F111D0E940B27F8018083CF5F53
:100ED00001C0C0E0C630A0F30E942D27F701868331
:100EE0000E949627C0E08C2FCF911F910F91FF9009
:100EF000EF900895EF92FF921F93CF93DF93CDB7BA
:100F0000DEB72797CDBFDEBF7C01BE016F5F7F4F8D
:100F100088E60E943E07182F833679F460E077EA6E
:100F200085E690E00E9467088AE0E0E1F7EAD701F1
:100F300001900D928A95E1F707C0BE016F5F7F4F68
:100F4000C7010E94A70610E0812F2796CDBFDEBF04
:100F5000DF91CF911F91FF90EF900895EF92FF9254
:100F60000F931F93CF93DF938B0160E00E944C2778
:100F7000C82F833619F40E94962720C080E00E9473
:100F80009A27C82F8336A1F40E94962717C07801AC
:100F90008FEFE81AF80AF80180810E949A27C82F7B
:100FA000833619F40E94962709C0DF5F870101C0CC
:100FB000D0E0D73060F30E949627C0E08C2FDF91FD
:100FC000CF911F910F91FF90EF900895EF92FF92B4
:100FD0001F93CF93DF93CDB7DEB72797CDBFDEBF8B
:100FE0007C010E942805182F833639F46AE177EADC
:100FF0008BE592E00E94670816C0B701CE0101960A
:101000000E94DE06BE016F5F7F4F88E60E94AE073A
:10101000182F833639F468E377EA86E690E00E9479
:10102000670801C010E0812F2796CDBFDEBFDF919A
:10103000CF911F91FF90EF90089545E150E06BE054
:1010400070E00E94A93208954BE050E060E070E04B
:101050000E94A9320895CF93DF93CDB7DEB765978D
:10106000CDBFDEBFCE0101960E947A0745E150E078
:101070006BE070E0CE0101960E94AD326596CDBF67
:10108000DEBFDF91CF910895CF93DF93CDB7DEB769
:101090002B97CDBFDEBF8BE0E5E5F7EADE011196C9
:1010A00001900D928A95E1F74BE050E060E070E02E
:1010B000CE0101960E94AD322B96CDBFDEBFDF91EF
:1010C000CF9108950E942B080E94440808950F9321
:1010D0001F93CF93DF93CDB7DEB7C850D140CDBFBC
:1010E000DEBF2AE0E0E6F7EADE01A150BF4F019043
:1010F0000D922A95E1F720910D28211115C07F93BB
:101100006F939F938F93CE0181509F4F9F938F93A7
:101110008E010F5F1F4F1F930F930E942932C8014A
:101120000E94B703CDBFDEBFC85FDE4FCDBFDEBFBD
:10113000DF91CF911F910F910895CF92DF92EF929F
:10114000FF920F931F93CF93DF93D82FD62E072FA5
:101150007A01122F60E00E944C27C82F833619F4C1
:101160000E9496272EC0802F0E949A27C82F833670
:1011700041F18D2D0E949A27C82F833611F161E02D
:101180008D2F0E944C27C82F8336D9F0C0E008C0AD
:101190006701CC0ED11C0E940B27F6018083CF5F24
:1011A0002C2F30E0812F90E001972817390784F326
:1011B000EC01CE0DDF1D0E942D2788830E9496270B
:1011C000C0E08C2FDF91CF911F910F91FF90EF9096
:1011D000DF90CF900895EF92FF921F93CF93DF930C
:1011E000CDB7DEB72A97CDBFDEBF7C018AE0EAE645
:1011F000F7EADE01119601900D928A95E1F724E15C
:10120000A70160E070E080E50E949D08182F8336FA
:1012100039F4BE016F5F7F4FC7010E94BE3101C02C
:1012200010E0812F2A96CDBFDEBFDF91CF911F91B5
:10123000FF90EF900895EF92FF920F931F93CF933B
:10124000DF93F62E172FEA01022F60E00E944C2751
:101250008336E1F0812F0E949A278336B9F08F2DD3
:101260000E949A27833691F010E00BC07E018FEF29
:10127000E81AF80A88810E949A27833639F01F5F9E
:10128000E701101798F30E94962780E0DF91CF9135
:101290001F910F91FF90EF9008958F929F92AF92C0
:1012A000BF92CF92DF92EF92FF920F931F93CF9353
:1012B000DF9300D000D0CDB7DEB7813059F018F001
:1012C000823079F015C080E00E94E3256B017C013B
:1012D00040E417C081E00E94E3256B017C0140E5FA
:1012E00010C082E00E94E3256B017C0140E609C04A
:1012F0000F2EC12CD12CF0EAEF2EF1E4FF2EF02DB1
:1013000040E58E010F5F1F4F20E860E088E40E94F7
:101310000002833689F120E030E040EA50E4698140
:101320007A818B819C810E94BE2A2AE037ED43E2BC
:101330005EE30E944C2A2FE539E24BEC5BE30E940E
:10134000BE2A4B015C0129EC3EE84DE05BE3C7019E
:10135000B6010E94E72B9B01AC0162E27DEF86E8BB
:101360009FE30E944C2A9B01AC01C501B4010E947D
:10137000BE2A6B017C0109C00F2EC12CF0E8DF2EC4
:10138000F6E2EF2EF4ECFF2EF02D20E030E0A90184
:10139000C701B6010E94B92A88234CF40F2EC12C34
:1013A000F0E8DF2EF6E2EF2EF4ECFF2EF02DC70171
:1013B000B6012496CDBFDEBFDF91CF911F910F9173
:1013C000FF90EF90DF90CF90BF90AF909F908F9065
:1013D0000895CF93DF93CDB7DEB72B97CDBFDEBF98
:1013E00010920E281092182A1092192A80EE91E07D
:1013F0008093092890930A280E94B1100E94002728
:101400000E94730E80E290E00E945F260E94AA0C68
:101410000E94E90D0E9462080E94DB2778940E94D6
:101420003722CE0101960E94240841E064E777EA62
:1014300080E00E94FA0D42E0BE016F5F7F4F80E0C6
:101440000E94FA0D2B96CDBFDEBFDF91CF9108959C
:10145000CF92DF92EF92FF920F931F93CF93DF9380
:1014600000D000D0CDB7DEB7813021F08230C1F599
:1014700040E301C040E08E010F5F1F4F20E862E0B3
:1014800089E40E940002833681F1C980DA80EB8012
:10149000FC802DEC3CEC4CEC5EE3C701B6010E94F5
:1014A000B92A88233CF120E030E040E050E4C70155
:1014B000B6010E94E22B181614F129E739EE42E03A
:1014C00050E4C701B6010E94E72B2EE633EA4BED4C
:1014D00050E40E944C2A562F472F382F292F13C033
:1014E00050E040E836E224EC0EC050E040E836E23E
:1014F00024EC09C050E040E836E224EC04C050E09F
:1015000040E836E224EC652F742F832F922F249627
:10151000CDBFDEBFDF91CF911F910F91FF90EF9074
:10152000DF90CF90089581E08093172A80930D2853
:101530000E94E90910920D288091442E882321F001
:101540001092442E0E94960480910B2890910C28B2
:10155000813D974038F010920B2810920C2880E2C1
:10156000809327042091182A3091192A8091092804
:1015700090910A288217930778F481E080930D28D0
:1015800080E00E94550E81E00E94550E1092182AAC
:101590001092192A10920D2890913C2A80913B2A92
:1015A000891750F680910E28882331F281E08093CC
:1015B0000D280E948E1F10923C2A10920D28BCCF3D
:1015C000CF93DF93C82FD62F60E00E944C2783363D
:1015D00051F465E877EA82E991E00E9467080E9489
:1015E00096278FEF19C08D2F0E949A2761E08C2FCC
:1015F0000E944C27833651F465E877EA82E991E04E
:101600000E9467080E9496278FEF06C00E942D2730
:10161000C82F0E9496278C2FDF91CF9108951F939A
:10162000CF93DF93D62F142F60E00E944C27C82F52
:10163000833649F469E977EA82E991E00E94670814
:101640000E94962715C08D2F0E949A27882321F08B
:101650000E949627C3E60CC0812F0E949A278823F8
:1016600021F00E949627C3E603C00E949627C0E09F
:101670008C2FDF91CF911F9108958F929F92AF92FF
:10168000BF92FF920F931F93CF93DF938C0160E083
:1016900088E10E944C27833651F440E050E866E22E
:1016A00074ECF801408351836283738343C085E007
:1016B0000E949A2761E088E10E944C270E940B2734
:1016C000C82F0E942D27D82F0E949627FC2FF0713B
:1016D000FF2E6C2F6F7070E080E090E00E94302B46
:1016E00020E030E040E851E40E94E72B4B015C0130
:1016F0006D2F70E080E090E00E94302B20E030E021
:1017000040E85DE30E94E72B9B01AC01C501B401F9
:101710000E944D2AFF2041F09B01AC0160E070E087
:1017200080E893E40E944C2AF801608371838283ED
:10173000938380E0DF91CF911F910F91FF90BF9035
:10174000AF909F908F900895EF92FF920F931F9309
:10175000CF93DF93F82EE62EEA01022F60E00E947D
:101760004C27182F833619F40E94962723C08E2DFC
:101770000E949A27182F8336E9F061E08F2D0E948E
:101780004C27182F833669F40E94962713C07E01D8
:101790008FEFE81AF80A0E940B2788831F5FE70182
:1017A00001C011E0101798F30E942D2788830E9432
:1017B000962710E0812FDF91CF911F910F91FF901D
:1017C000EF900895CF92DF92EF92FF920F931F93C5
:1017D000CF93DF93CDB7DEB72697CDBFDEBF6C01C9
:1017E0007B018A0180E090E8A6E2B4ECFA018083F4
:1017F0009183A283B383FB0180839183A283B3830C
:10180000F60180839183A283B38326E0AE014F5F0C
:101810005F4F61E08DE10E94A40B833609F464C040
:10182000698170E0762F66278A81682B75956795A8
:1018300075956795072E000C880B990B0E94322B2B
:1018400020E030E040E859E30E94E72B26E636E24C
:1018500045E754E40E94E72BF6016083718382839D
:1018600093836B8170E0762F66278C81682B75954A
:10187000679575956795072E000C880B990B0E944C
:10188000322B20E030E040E859E30E94E72B26E6C7
:1018900036E245E754E40E94E72BF7016083718349
:1018A000828393836D8170E0762F66278E81682B0B
:1018B0007595679575956795072E000C880B990BA4
:1018C0000E94322B20E030E040E859E30E94E72BF1
:1018D00026E636E245E754E40E94E72BF8016083F0
:1018E00071838283938380E02696CDBFDEBFDF9134
:1018F000CF911F910F91FF90EF90DF90CF900895BF
:101900001F93CF93DF93D62F142F60E00E944C27B4
:10191000C82F882321F00E9496278C2F17C08D2F67
:101920000E949A27C82F882321F00E9496278C2F87
:101930000DC0812F0E949A27C82F882321F00E9472
:1019400096278C2F03C00E94962780E0DF91CF91CD
:101950001F910895CF93DF931F92CDB7DEB740E478
:101960006BE28DE10E94800C21E0AE014F5F5F4F82
:101970006BE28DE10E94A40B08C021E0AE014F5F35
:101980005F4F6BE28DE10E94A40B898186FDF5CF4C
:1019900040EC6FE08DE10E94800C42E06BE28DE153
:1019A0000E94800C4DE36AE28DE10E94800C8981E7
:1019B0000F90DF91CF910895EF92FF920F931F93B5
:1019C000CF93DF93CDB7DEB72E97CDBFDEBF8C01AF
:1019D00088E0EEEAF7EADE01119601900D928A9511
:1019E000E1F7F80101900020E9F731973E2F301B15
:1019F00090E081E006C0F801E80FF11D20819227F8
:101A00008F5F8317C0F31F929F93CE0101969F9320
:101A10008F937E0189E0E80EF11CFF92EF920E9405
:101A20002932B701C8010E94B3310F900F900F9077
:101A30000F900F900F902E96CDBFDEBFDF91CF910C
:101A40001F910F91FF90EF900895E0E6F4E080E49D
:101A500086838183A1E4B3E01197F1F700008583C9
:101A60000895CF93DF93D62FC42F60E00E944C27B8
:101A70008D2F0E949A278C2F0E949A270E949627CA
:101A8000DF91CF910895CF93882329F0813009F019
:101A90009EC0CDE301C0CCE34AE260E08C2F0E94FF
:101AA000310D41E760E08C2F0E94310D4CE560E480
:101AB0008C2F0E94310D48E260E08C2F0E94310D86
:101AC00048E060E08C2F0E94310D4AE260E08C2FEC
:101AD0000E94310D49E760E08C2F0E94310D45EDE9
:101AE00060E08C2F0E94310D40E760E08C2F0E9457
:101AF000310D48E760E08C2F0E94310D48E060E036
:101B00008C2F0E94310D46E060E08C2F0E94310D39
:101B100042E760E08C2F0E94310D40E060E48C2FA2
:101B20000E94310D4AE260E08C2F0E94310D49E79E
:101B300060E08C2F0E94310D4AED60E08C2F0E94F6
:101B4000310D40E060E08C2F0E94310D4CED60E0E3
:101B50008C2F0E94310D40E060E08C2F0E94310DEF
:101B600041E860E08C2F0E94310D4FE760E08C2F40
:101B70000E94310D49ED60E08C2F0E94310D41EF44
:101B800060E08C2F0E94310D4BED60E08C2F0E94A5
:101B9000310D40E460E08C2F0E94310D48E760E099
:101BA0008C2F0E94310D48E260E08C2F0E94310D95
:101BB00041E060E08C2F0E94310D40E860E08C2F06
:101BC0000E94310D4CE060E08C2F0E94310DCF91CE
:101BD00008950E94250D80E00E94430D81E00E943F
:101BE000430D2AE684E091E0215080409040E1F7E7
:101BF00000C00895EF92FF920F931F93CF93DF934E
:101C0000CDB7DEB7E297CDBFDEBF142F91E1E6EB93
:101C1000F7EADE01929601900D929A95E1F7811113
:101C200002C00CE301C00DE3CE0101967C010E94CD
:101C3000BE31F70101900020E9F73197EE19FF0955
:101C4000719708F0198ABE016E5D7F4FCE01019633
:101C50000E94B331113039F440E860E0802F0E94D7
:101C6000310D10E012C040EC60E0802F0E94310D79
:101C7000F8CFE1E0F0E0EC0FFD1FE10FF11D408136
:101C800060E4802F0E94310D1F5F103190F310929D
:101C9000182A1092192AE296CDBFDEBFDF91CF91AC
:101CA0001F910F91FF90EF9008951F93CF93DF93B3
:101CB0001F92CDB7DEB7182F198241E0BE016F5FCA
:101CC0007F4F0E94FA0D42E0BE016F5F7F4F812F70
:101CD0000E94FA0D1092182A1092192A0F90DF9183
:101CE000CF911F91089540E060E084E20E940F0BC5
:101CF0008336A9F140E06AE084E20E940F0B83364C
:101D000071F14EEF60E081E20E940F0B833639F1F2
:101D100040E061E081E20E940F0B833601F14CEF5D
:101D200062E081E20E940F0B8336C9F040E064E07C
:101D300081E20E940F0B833691F040E265E081E280
:101D40000E940F0B833659F04FE766E081E20E9454
:101D50000F0B833621F089E08093770480E00895AB
:101D6000CF92DF92EF92FF920F931F93CF93DF9367
:101D70006C018B017A01E90169E081E20E94E00ACD
:101D8000982F9295969596959370913021F493E6BD
:101D9000F60190830FC0923021F49FE6F601908304
:101DA00009C0933021F494E7F601908303C098E7CB
:101DB000F6019083982F969596959370913021F423
:101DC00093E6F70190830FC0923021F49FE6F7016C
:101DD000908309C0933021F494E7F701908303C006
:101DE00098E7F7019083982F92959F7093709130A8
:101DF00021F49FE6F80190830FC0923021F493E61E
:101E0000F801908309C0933021F494E7F80190839E
:101E100003C098E7F801908381FF03C080E38883C3
:101E200002C081E38883DF91CF911F910F91FF90D2
:101E3000EF90DF90CF900895CF93DF93D82FC62FE8
:101E400069E084E20E94E00A8D2B482F4C236AE06F
:101E500084E20E940F0BDF91CF910895CF93DF931F
:101E6000CDB7DEB76A97CDBFDEBF99E0E1E0F8EA13
:101E7000DE01119601900D929A95E1F724E3829F7D
:101E8000C0011124FC01E15FF74D81818C3631F1F5
:101E900018F4823639F06AC08237C1F1833709F409
:101EA0004DC064C06AEE84E40E941C0F66EE88E8B0
:101EB0000E941C0F87EC97EA9F938F93CE010196A7
:101EC0009F938F9309969F938F930E9429320F902F
:101ED0000F900F900F900F900F9059C06AEE84E40E
:101EE0000E941C0F8CEC97EA9F938F93CE01019672
:101EF0009F938F9309969F938F930E9429320F90FF
:101F00000F900F900F900F900F9041C066EE88E8F1
:101F10000E941C0F81ED97EA9F938F93CE0101964B
:101F20009F938F9309969F938F930E9429320F90CE
:101F30000F900F900F900F900F9029C06CEE82E2DF
:101F40000E941C0F87ED97EA9F938F93CE01019615
:101F50009F938F9309969F938F930E9429320F909E
:101F60000F900F900F900F900F9011C06FED77EAC8
:101F700085EF91E00E9467088CE0E5EFF7EADE016B
:101F80001A9601900D928A95E1F783E60BC081E0E5
:101F90000E94550E41E0BE01665F7F4F81E00E94C6
:101FA000FA0D80E06A96CDBFDEBFDF91CF91089534
:101FB000CF93DF93CDB7DEB76997CDBFDEBF98E093
:101FC000EAE2F8EADE01119601900D929A95E1F7A6
:101FD00024E3829FC0011124FC01E15FF74D818160
:101FE0008C3631F118F4823639F06AC08237C1F18B
:101FF000833709F44DC064C06EEA84E40E941C0F6C
:102000006EE688E80E941C0F87EC97EA9F938F93F7
:10201000CE0101969F938F9308969F938F930E9472
:1020200029320F900F900F900F900F900F9059C082
:102030006EEA84E40E941C0F8CEC97EA9F938F93C6
:10204000CE0101969F938F9308969F938F930E9442
:1020500029320F900F900F900F900F900F9041C06A
:102060006EE688E80E941C0F81ED97EA9F938F939C
:10207000CE0101969F938F9308969F938F930E9412
:1020800029320F900F900F900F900F900F9029C052
:102090006EEC82E20E941C0F87ED97EA9F938F936C
:1020A000CE0101969F938F9308969F938F930E94E2
:1020B00029320F900F900F900F900F900F9011C03A
:1020C0006AE078EA85EF91E00E9467088BE0EFE133
:1020D000F8EADE01199601900D928A95E1F783E600
:1020E0000BC081E00E94550E41E0BE01675F7F4F4B
:1020F00081E00E94FA0D80E06996CDBFDEBFDF91DE
:10210000CF9108951F920F920FB60F9211242F9323
:102110003F934F935F936F937F938F939F93AF936F
:10212000BF93EF93FF938091690488234CF480E878
:102130008093690468E081E20E94E00A80931A2A91
:10214000FF91EF91BF91AF919F918F917F916F918F
:102150005F914F913F912F910F900FBE0F901F9065
:102160001895CF93DF93E0E2F4E084E08183A0EA66
:10217000B4E012968C93129780E211968C9311978B
:102180009BE056969C93A0E4B4E098E016969C934E
:10219000169711969C931197CDE8D0E22197F1F70D
:1021A000000015969C9381838683DF91CF910895DB
:1021B0002F923F924F925F926F927F928F929F9257
:1021C000AF92BF92CF92DF92EF92FF920F931F9345
:1021D000CF93DF93CDB7DEB7C15AD340CDBFDEBFBB
:1021E00095E4EEE9F9EADE01A25ABE4F01900D92A4
:1021F0009A95E1F793E2E3EEF9EADE01AD55BE4FC1
:1022000001900D929A95E1F79FE2E6E0FAEADE018D
:10221000AA53BE4F01900D929A95E1F790E3E5E342
:10222000FAEADE01AB50BE4F01900D929A95E1F7AC
:1022300094E3E5E6FAEADE01AB5DBD4F01900D9255
:102240009A95E1F791E2E9E9FAEADE01A75ABD4F72
:1022500001900D929A95E1F79CE1EAEBFAEADE0132
:10226000A658BD4F01900D929A95E1F792E1E6EDE7
:10227000FAEADE01AA56BD4F01900D929A95E1F758
:102280009DE2E8EEFAEADE01A855BD4F01900D92FD
:102290009A95E1F793E1E5E1FBEADE01AB52BD4F30
:1022A00001900D929A95E1F793E1E8E2FBEADE01F5
:1022B000A851BD4F01900D929A95E1F799E1EBE39A
:1022C000FBEADE01A550BD4F01900D929A95E1F712
:1022D00095E2E4E5FBEADE01AC5EBC4F01900D92B5
:1022E0009A95E1F79DE0E9E7FBEADE01A75CBC4FC8
:1022F00001900D929A95E1F79DE0E6E8FBEADE0198
:10230000AA5BBC4F01900D929A95E1F7082F10E05F
:1023100084E3809FF001819FF00D1124E15FF74D70
:10232000E1818E2F90E0FC01E154F109E633F105E3
:1023300008F024C6E458FF4F0C940430CE01865FA9
:102340009E4F0E947A0784E3809FF001819FF00DE9
:102350001124E15FF74DD1800F2EFFE3EF2EF02D1A
:10236000ED0CAE014C595C4F68E18E2D0E94A81A0D
:10237000F82E83E6F81207C062E378EA86E391E07C
:102380000E94670805C6CE018A5B9E4F0E94051811
:10239000F82E93E6891311C082E2E6E5F8EADE0141
:1023A000119601900D928A95E1F7BE016F5F7F4F04
:1023B00086E391E00E946708EBC5AE01405A5C4F8E
:1023C00062E58E2D0E94A81AF82E83E6F81207C047
:1023D00068E778EA86E391E00E946708D9C5BE0104
:1023E000645A7C4F8E2D0E941C1BF82E93E6891395
:1023F00007C062EA78EA86E391E00E946708C8C5F0
:10240000BE016D5A7C4F8E2D0E94DE1DF82E83E694
:10241000F81207C065EC78EA86E391E00E9467084D
:10242000B7C5BE016A587C4F8E2D0E94AF1BF82E97
:1024300093E6891307C064EE78EA86E391E00E9490
:102440006708A6C524E3209FC001219F900D112499
:102450008C01065C174D1F930F93CE018A5B9E4F34
:102460009F938F93CD59DC4F8881C356D3408F9370
:10247000CE59DC4F8881C256D3408F93CF59DC4F61
:102480008881C156D3408F93C05ADC4F8881C05693
:10249000D3408F93C959DC4F8881C756D3408F935F
:1024A000CA59DC4F8881C656D3408F93CB59DC4F35
:1024B0008881C556D3408F93CC59DC4F8881C45650
:1024C000D3408F931F92DF925E0186EFA81A8EEFA2
:1024D000B80ABF92AF92CE018A539E4F9F938F93BB
:1024E000855C91407C019F938F930E942932C701A4
:1024F0000E94B7031F930F93CD5ADC4F8881C355B9
:10250000D3401F928F93C15ADC4F8881CF55D3405F
:102510008F93C25ADC4F8881CE55D3408F93C35AD4
:10252000DC4F8881CD55D3408F93C45ADC4F8881CE
:10253000CC55D3408F931F92DF92BF92AF92CE01C2
:10254000875A9D4F9F938F93FF92EF920E9429325B
:10255000CDBFDEBFC7010E94B703C258DC4FE88180
:10256000CE57D340C158DC4FF881CF57D340C05825
:10257000DC4FA881C058D340CF57DC4FB881C15839
:10258000D340C658DC4F4881CA57D340C558DC4FAA
:102590005881CB57D340C458DC4F6881CC57D340C7
:1025A000C358DC4F7881CD57D340CA58DC4F88815F
:1025B000C657D340C958DC4F9881C757D340C85835
:1025C000DC4F2881C857D340C758DC4F3881C957E2
:1025D000D3401F930F93CB57DC4FC880C558D340CF
:1025E000CF92CC57DC4FC880C458D340CF92CD5740
:1025F000DC4FC880C358D340CF92CE57DC4FC88041
:10260000C258D340CF92BF93AF93FF93EF937F9382
:102610006F935F934F933F932F939F938F931F924B
:10262000DF92BF92AF92CE018B509E4F9F938F93BC
:10263000FF92EF920E942932C7010E94B7031F93B5
:102640000F93CB56DC4F8881C559D3408F93CC561E
:10265000DC4F8881C459D3408F93CD56DC4F88819D
:10266000C359D3408F93CE56DC4F8881C259D34093
:102670008F93CF56DC4F8881C159D3408F93C05779
:10268000DC4F8881C059D3408F93C157DC4F88817C
:10269000CF58D3408F93C257DC4F8881CE58D34058
:1026A0008F93C357DC4F8881CD58D3408F93C45745
:1026B000DC4F8881CC58D3408F93C557DC4F88813D
:1026C000CB58D3408F93C657DC4F8881CA58D3402C
:1026D0008F93C757DC4F8881C958D3408F93C85711
:1026E000DC4F8881C858D3408F93C957DC4F88810D
:1026F000C758D3408F93CA57DC4F8881C658D34000
:102700008F931F92DF92BF92AF92CE018B5D9D4F50
:102710009F938F93FF92EF920E942932CDBFDEBF2D
:10272000C7010E94B703F12C33C4CE01865F9E4FD0
:102730000E947A0784E3809FF001819FF00D1124AD
:10274000E15FF74D81810F2EFFE1EF2EF02DE80EB6
:10275000BE016C5A7C4F8E2D0E942C1AF82E93E6E7
:10276000891307C060E079EA86E391E00E94670878
:102770000FC4CC5ADC4F688179818A819B81C45512
:10278000D3402BE131E040E050E00E94E52FF22EF3
:10279000D32EC42EB52EBE01685A7C4F8E2D0E94BA
:1027A000341E833661F48FEF9FEFAFEFBFE7C85A57
:1027B000DC4F88839983AA83BB83C855D340C85A0A
:1027C000DC4F688179818A819B81C855D3402BE198
:1027D00031E040E050E00E94E52FA22E932E842E9F
:1027E000752EBE0168597C4F8E2D0E94BF1983360D
:1027F00071F460E279EA86E391E00E9467088FEF66
:102800009FEFC859DC4F88839983C856D34024E38F
:10281000209FC001219F900D11249C01265C374D03
:10282000FC01E15FF74D81813F932F93C759DC4F46
:102830009881C956D3409F93C859DC4F9881C85698
:10284000D3409F937F928F929F92AF92BF92CF92ED
:10285000DF92FF921F928F93CE01865F9E4F9F93D0
:102860008F9387569F4F9F938F938E010F5F1F4FBC
:102870001F930F930E942932C8010E94B703CDBF56
:10288000DEBFF12C85C380E00E94E325C05ADC4FF7
:10289000688379838A839B83C056D34080E00E94FB
:1028A0004D09D62EC72EB82EA92E81E00E94E32511
:1028B000CA56DC4F6883C659D340C956DC4F78836B
:1028C000C759D340C856DC4F8883C859D340C75630
:1028D000DC4F9883C959D34081E00E944D09C65608
:1028E000DC4F6883CA59D340C556DC4F7883CB5937
:1028F000D340C456DC4F8883CC59D340C356DC4FF9
:102900009883CD59D34082E00E94E325C256DC4F24
:102910006883CE59D340C156DC4F7883CF59D3401A
:10292000982E892E82E00E944D09762E672E582E11
:10293000492E83E00E94E325C056DC4F6883C05ACD
:10294000D340CF55DC4F7883C15AD340382E292E3F
:102950007E0196EFE91A9EEFF90AC7010E947A07F5
:1029600024E3209FC001219F900D1124865C974D88
:102970009F938F932F923F92CF55DC4F8881C15AFE
:10298000D3408F93C056DC4F9881C05AD3409F9359
:102990004F925F926F927F928F929F92C156DC4FBF
:1029A0008881CF59D3408F93C256DC4F9881CE593E
:1029B000D3409F93C356DC4F8881CD59D3408F932A
:1029C000C456DC4F9881CC59D3409F93C556DC4FF9
:1029D0008881CB59D3408F93C656DC4F9881CA5912
:1029E000D3409F93C756DC4F8881C959D3408F93FA
:1029F000C856DC4F9881C859D3409F93C956DC4FC5
:102A00008881C759D3408F93CA56DC4F9881C659E5
:102A1000D3409F93AF92BF92CF92DF92CD59DC4FBC
:102A20008881C356D3408F93CE59DC4F8881C256DC
:102A3000D3408F93CF59DC4F8881C156D3408F93B9
:102A4000C05ADC4F8881C056D3408F93FF92EF92DB
:102A5000CE01825A9E4F9F938F938E010F5F1F4F1F
:102A60001F930F930E942932CDBFDEBFC8010E9481
:102A7000B70341E060E479EA81E00E94FA0DC05AB0
:102A8000DC4FF880C056D340CF59DC4FE880C156A8
:102A9000D340CE59DC4F9880C256D340CD59DC4F3D
:102AA0008880C356D34026E636E646EE5FE36F2DB8
:102AB0007E2D892D982D0E94E72BAF92BF92CF9249
:102AC000DF9220E030E040E052E40E944D2A9F93E4
:102AD0008F937F936F938F929F92EF92FF9280E5F7
:102AE00099EA9F938F931F930F930E94293242E09C
:102AF000B80181E00E94FA0DCDBFDEBFF12C48C2C3
:102B0000AE014E585C4FBE0162597C4FCE018659D2
:102B10009C4F0E94E20B7E0196EFE91A9EEFF90AA4
:102B2000C7010E947A0724E3209FC001219F900DD6
:102B30001124865C974D9F938F93CB58DC4F8881EF
:102B4000C557D3408F93CC58DC4F8881C457D340AE
:102B50008F93CD58DC4F8881C357D3408F93CE5885
:102B6000DC4F8881C257D3408F93CF58DC4F888188
:102B7000C157D3408F93C059DC4F8881C057D34091
:102B80008F93C159DC4F8881CF56D3408F93C25960
:102B9000DC4F8881CE56D3408F93C359DC4F888158
:102BA000CD56D3408F93C459DC4F8881CC56D34047
:102BB0008F93C559DC4F8881CB56D3408F93C6592C
:102BC000DC4F8881CA56D3408F93FF92EF92CE019B
:102BD00086589D4F9F938F938E010F5F1F4F1F93BA
:102BE0000F930E942932C8010E94B70341E066E6B4
:102BF00079EA81E00E94FA0DCB58DC4F8881C557F5
:102C0000D3408F93CC58DC4F8881C457D3408F93E7
:102C1000CD58DC4F8881C357D3408F93CE58DC4FBB
:102C20008881C257D3408F93CF58DC4F8881C157DA
:102C3000D3408F93C059DC4F8881C057D3408F93C6
:102C4000C159DC4F8881CF56D3408F93C259DC4F96
:102C50008881CE56D3408F93C359DC4F8881CD569F
:102C6000D3408F93C459DC4F8881CC56D3408F9387
:102C7000C559DC4F8881CB56D3408F93C659DC4F62
:102C80008881CA56D3408F93CE018A569D4F9F9319
:102C90008F931F930F930E942932CDBFDEBF42E076
:102CA000B80181E00E94FA0DF12C72C17E0196EF0D
:102CB000E91A9EEFF90AC7010E947A079E01235A7A
:102CC0003E4FAE01445A5E4FBE01655A7E4FCE0163
:102CD000865A9E4F0E94B00E24E3209FC001219F80
:102CE000900D1124865C974D9F938F93C35ADE4FAE
:102CF0008881CD55D1401F928F93C45ADE4F888171
:102D0000CC55D1401F928F93C55ADE4F8881CB5549
:102D1000D1401F928F93C65ADE4F8881CA55D14049
:102D20001F928F93FF92EF92CE0188559D4F9F93F4
:102D30008F938E010F5F1F4F1F930F930E942932B5
:102D4000C8010E94B703C45ADE4F8881CC55D140D8
:102D50001F928F93C55ADE4F8881CB55D1401F9269
:102D60008F93CE018B529D4F9F938F931F930F9301
:102D70000E94293241E0B80181E00E94FA0DC35A55
:102D8000DE4F8881CD55D1401F928F93C65ADE4FBA
:102D90008881CA55D1401F928F93CE0188519D4F93
:102DA0009F938F931F930F930E942932CDBFDEBF55
:102DB00042E0B80181E00E94FA0DF12CE9C07E01E9
:102DC00096EFE91A9EEFF90AC7010E947A076E0191
:102DD00082EEC81A8EEFD80AC6010E94EB085E0187
:102DE0009EECA91A9EEFB90AC5010E941D0824E3B2
:102DF000209FC001219F900D1124865C974D9F93C9
:102E00008F93BF92AF92DF92CF92FF92EF92CE015B
:102E100085509D4F9F938F938E010F5F1F4F1F9380
:102E20000F930E942932C8010E94B70341E062E774
:102E300079EA81E00E94FA0DB701655F7F4F42E0B9
:102E400081E00E94FA0DCDBFDEBFF12CA1C081E070
:102E50000E94280AD62EC72EB82EA92E82E00E94E4
:102E6000280A962E872E782E692E7E0196EFE91A73
:102E70009EEFF90AC7010E947A0724E3209FC00150
:102E8000219F900D1124865C974D9F938F936F9295
:102E90007F928F929F92AF92BF92CF92DF92FF92DA
:102EA000EF92CE018C5E9C4F9F938F938E010F5FAC
:102EB0001F4F1F930F930E942932C8010E94B7032E
:102EC00041E067E779EA81E00E94FA0D6F927F9214
:102ED0008F929F92AF92BF92CF92DF92CE01875C8A
:102EE0009C4F9F938F931F930F930E94293242E030
:102EF000B80181E00E94FA0DCDBFDEBFF12C48C0C1
:102F00006E019FEFC90ED11CC6010E9424087E01EC
:102F100086EFE81A8EEFF80AC7010E947A0724E3C9
:102F2000209FC001219F900D1124865C974D9F9397
:102F30008F93DF92CF92FF92EF92CE018A5B9C4FEC
:102F40009F938F938E010F5F1F4F1F930F930E94CC
:102F50002932C8010E94B70341E064E777EA81E0C3
:102F60000E94FA0DC8010E94240842E0B80181E0E5
:102F70000E94FA0DCDBFDEBFF12C0AC067E879EAE6
:102F80008AEC90E00E9467080F2EF3E6FF2EF02DEA
:102F90008F2DCF55DC4FCDBFDEBFDF91CF911F917D
:102FA0000F91FF90EF90DF90CF90BF90AF909F90E8
:102FB0008F907F906F905F904F903F902F900895EB
:102FC000DC0140E050E080E090E01BC0FD01E40F38
:102FD000F51F208130E0322F22278227932720E01F
:102FE0000CC099233CF4880F991F31E2832730E10C
:102FF000932702C0880F991F2F5F283090F34F5FEF
:103000005F4F4617570710F30895EF92FF921F93F3
:10301000CF93DF93CDB7DEB7C657D109CDBFDEBFA3
:103020007C0186E2E3E9FBEADE01AF5ABF4F019083
:103030000D928A95E1F724E1A70160E270E080E556
:103040000E949D08182F8336B1F4CE018F5A9F4FEE
:103050009F938F93805591097C019F938F930E943A
:103060002932B70186E391E00E9467080F900F9024
:103070000F900F9003C0F701138A10E0812FCA58F8
:10308000DF4FCDBFDEBFDF91CF911F91FF90EF905B
:103090000895CF92DF92EF92FF920F931F93CF93F9
:1030A000DF93CDB7DEB7C358D109CDBFDEBF8B01EB
:1030B0009FE2E9EBFBEADE01AB5ABF4F01900D92B4
:1030C0009A95E1F7813859F0823831F0803809F06B
:1030D00069C064E170E005C06CE170E002C068E1C5
:1030E00070E0F82E24E0AE014F5A5F4F80E50E9459
:1030F0009D08E82E83E6E81224C081EC8F0D1F9214
:103100008F93CE018B5A9F4F9F938F93FE013196E1
:103110006F01FF93EF930E942932B60183E991E09A
:103120000E9467088FEF9FEFDC01F8018083918395
:10313000A283B3830F900F900F900F900F900F907A
:1031400035C062968FAD629790E0A0E0B0E0782F36
:1031500066275527442763969FAD6397892F90E094
:10316000A0E0B0E0DC0199278827842B952BA62BC3
:10317000B72B64964FAD649750E060E070E0762F17
:10318000652F542F4427842B952BA62BB72B6596A0
:103190002FAD6597822BF80180839183A283B3833F
:1031A000E12C04C00F2EF3E6EF2EF02D8E2DCD571F
:1031B000DF4FCDBFDEBFDF91CF911F910F91FF9009
:1031C000EF90DF90CF900895BF92CF92DF92EF9271
:1031D000FF920F931F93CF93DF93CDB7DEB7C25902
:1031E000D109CDBFDEBFE82E8A01F22E80E2E8EEE3
:1031F000FBEADE01AB5ABF4F01900D928A95E1F7D1
:103200008EE1E8E0FCEADE01AB58BF4F01900D9281
:103210008A95E1F76894BB24B1F8B20E10923C2B6A
:10322000B0923B2B6296EFAE629763966FAF639757
:1032300062E070E0CE018F5A9F4F0E94E0176496C3
:103240009FAF649765968FAF659762E0CE018F5A06
:103250009F4F0E94BF28109207281092082824C070
:10326000809107289091082885369105E8F081EC37
:103270008E0D1F928F93CE018B5A9F4F9F938F93EA
:103280008E010F5F1F4F1F930F930E942932B801C9
:1032900080E391E00E9467080F900F900F900F90CD
:1032A0000F900F9083E65DC090913C2B80913B2B5B
:1032B0009817B0F28F2D90E0FC01E35CF54DC080D3
:1032C000D12CDC2CCC24FC01E25CF54D8081C82A99
:1032D00082E00EC0282F30E0F901E55CF54D9081C9
:1032E000E1E5F0E0EC0FFD1FE20FF31F90838F5F2D
:1032F0008B1580F36B2D70E0CE018F5A9F4F0E948B
:10330000E017C816D90649F181EC8E0D1F928F93F4
:10331000CE018B589F4F9F938F938E010F5F1F4F4E
:103320001F930F930E942932B80181E391E00E941C
:1033300067080F900F900F900F900F900F9083E6FB
:1033400010C0822F90E0F801E80FF91FDC01A35CA8
:10335000B54D8C9180832F5F01C020E02F1588F33D
:1033600080E0CE56DF4FCDBFDEBFDF91CF911F9102
:103370000F91FF90EF90DF90CF90BF900895CF9284
:10338000DF92EF92FF920F931F93CF93DF93CDB70E
:10339000DEB7CD57D109CDBFDEBFE82E8B0189E264
:1033A000E6E2FCEADE01119601900D928A95E1F7C2
:1033B00024E0AE0146585F4F61E38E2D0E94E41871
:1033C000F82E83E6F81221C081EC8E0D1F928F93A8
:1033D000CE0101969F938F936E01EAE2CE0ED11C2F
:1033E000DF92CF920E942932B60186E391E00E94DB
:1033F00067088FEF9FEFF801808391830F900F9004
:103400000F900F900F900F9019C0EB968FADEB9728
:1034100090E0982F8827EC962FADEC97822B9C019B
:10342000220F331F880F991F880F991F880F991F2C
:10343000820F931FF80180839183F12C8F2DC35845
:10344000DF4FCDBFDEBFDF91CF911F910F91FF9076
:10345000EF90DF90CF900895EF92FF920F931F931C
:10346000CF93DF93CDB7DEB7CE57D109CDBFDEBF47
:10347000E82E8B0189E2EFE4FCEADE01AA5ABF4F95
:1034800001900D928A95E1F725E0AE014F5A5F4F0A
:1034900060E18E2D0E94E418F82E83E6F8121CC01D
:1034A00081EC8E0D1F928F93CE018A5A9F4F9F936E
:1034B0008F938E010F5F1F4F1F930F930E9429322E
:1034C000B80186E391E00E9467080F900F900F907B
:1034D0000F900F900F9030C062968FAD629790E082
:1034E000A0E0B0E0782F66275527442763969FAD6C
:1034F0006397892F90E0A0E0B0E0DC01992788274E
:10350000842B952BA62BB72B64964FAD649750E078
:1035100060E070E0762F652F542F4427842B952B85
:10352000A62BB72B65962FAD6597822BF80180836C
:103530009183A283B383F12C8F2DC258DF4FCDBF6F
:10354000DEBFDF91CF911F910F91FF90EF90089513
:10355000CF92DF92EF92FF920F931F93CF93DF935F
:10356000CDB7DEB7C957D109CDBFDEBFE82E8A017E
:1035700087E2E8E7FCEADE01AD5ABF4F01900D9209
:103580008A95E1F722E0AE014F5A5F4F8E2D0E94DF
:10359000E418F82E83E6F81225C081EC8E0D1F92F8
:1035A0008F93CE018D5A9F4F9F938F93FE0131963B
:1035B0006F01FF93EF930E942932B60186E391E0F9
:1035C0000E94670880E090E8A6E2B4ECF8018083EE
:1035D0009183A283B3830F900F900F900F900F9061
:1035E0000F901CC062966FAD629770E0762F6627D1
:1035F00063968FAD6397682B072E000C880B990B91
:103600000E94322B20E030E040E251E40E94BE2ACA
:10361000F8016083718382839383F12C8F2DC758C7
:10362000DF4FCDBFDEBFDF91CF911F910F91FF9094
:10363000EF90DF90CF900895CF92DF92EF92FF92BC
:103640000F931F93CF93DF93CDB7DEB7C458D10943
:10365000CDBFDEBFE82E8B018CE2EFE9FCEADE0194
:10366000119601900D928A95E1F728E0AE0143583A
:103670005F4F67E88E2D0E94E418F82E83E6F8125B
:103680001BC081EC8E0D1F928F93CE0101969F93EC
:103690008F938E01035D1F4F1F930F930E9429325A
:1036A000B80186E391E00E9467080F900F900F9099
:1036B0000F900F900F9045C0EE968FADEE9790E073
:1036C000A0E0B0E0F82EEE24DD24CC24EF964FAD40
:1036D000EF9750E060E070E0DA01992788278C29A5
:1036E0009D29AE29BF29C158DF4F4881CF57D0400F
:1036F00050E060E070E0762F652F542F4427842B34
:10370000952BA62BB72BC058DF4F2881C058D0402F
:10371000822B880F991FAA1FBB1FAC01BD01440F4C
:10372000551F661F771F440F551F661F771F840F95
:10373000951FA61FB71FF80180839183A283B383CF
:10374000F12C8F2DCC57DF4FCDBFDEBFDF91CF9156
:103750001F910F91FF90EF90DF90CF900895EF921F
:10376000FF920F931F93CF93DF93CDB7DEB7C1596D
:10377000D109CDBFDEBFF82E8B0185E2EBECFCEA70
:10378000DE01119601900D928A95E1F72CE1AE01D0
:103790004A585F4F6FE38F2D0E94E418E82E83E6AE
:1037A000E8121BC081EC8F0D1F928F93CE01019602
:1037B0009F938F938E010A5D1F4F1F930F930E945B
:1037C0002932B80186E391E00E9467080F900F90BC
:1037D0000F900F900F900F90E5C1E7964FADE797D0
:1037E00050E060E070E0742F662755274427E89684
:1037F0008FADE89790E0A0E0B0E0DC019927882742
:10380000482B592B6A2B7B2BE9968FADE99790E0DB
:10381000A0E0B0E0BA2FA92F982F8827842B952BF2
:10382000A62BB72BEA962FADEA97BC01CD01622BF0
:103830000E94322B20E030E040E85AE30E94E72B60
:10384000F8016083718382839383EB964FADEB978E
:1038500050E060E070E0742F662755274427EC960F
:103860008FADEC9790E0A0E0B0E0DC0199278827CD
:10387000482B592B6A2B7B2BED968FADED9790E063
:10388000A0E0B0E0BA2FA92F982F8827842B952B82
:10389000A62BB72BEE962FADEE97BC01CD01622B78
:1038A0000E94322B20E030E040E85AE30E94E72BF0
:1038B000F8016483758386839783EF964FADEF9706
:1038C00050E060E070E0742F662755274427C15808
:1038D000DF4F8881CF57D04090E0A0E0B0E0DC011E
:1038E00099278827482B592B6A2B7B2BC058DF4FF1
:1038F0008881C058D04090E0A0E0B0E0BA2FA92F56
:10390000982F8827842B952BA62BB72BCF57DF4FCB
:103910002881C158D040BC01CD01622B0E94322BBE
:1039200020E030E040E85AE30E94E72BF80160878E
:10393000718782879387CE57DF4F8881C258D040E6
:1039400090E0A0E0B0E0782F662755274427CD57B8
:10395000DF4F9881C358D040892F90E0A0E0B0E0BD
:10396000DC0199278827842B952BA62BB72BCC57C6
:10397000DF4F4881C458D04050E060E070E0762FBF
:10398000652F542F4427842B952BA62BB72BCB5771
:10399000DF4F2881C558D040822B84879587A68722
:1039A000B787CA57DF4F8881C658D04090E0A0E063
:1039B000B0E0782F662755274427C957DF4F9881F5
:1039C000C758D040892F90E0A0E0B0E0DC019927F3
:1039D0008827842B952BA62BB72BC857DF4F488100
:1039E000C858D04050E060E070E0762F652F542F2B
:1039F0004427842B952BA62BB72BC757DF4F288145
:103A0000C958D040822B808B918BA28BB38BC65729
:103A1000DF4F8881CA58D04090E0A0E0B0E0782F16
:103A2000662755274427C557DF4F9881CB58D0408C
:103A3000892F90E0A0E0B0E0DC0199278827842B53
:103A4000952BA62BB72BC457DF4F4881CC58D040BD
:103A500050E060E070E0762F652F542F4427842BD0
:103A6000952BA62BB72BC357DF4F2881CD58D040BD
:103A7000822B848B958BA68BB78BC257DF4F8881A7
:103A8000CE58D04090E0A0E0B0E0782F66275527D0
:103A90004427C157DF4F9881CF58D040892F90E0FD
:103AA000A0E0B0E0DC0199278827842B952BA62B7A
:103AB000B72BC057DF4F4881C059D04050E060E07D
:103AC00070E0762F652F542F4427842B952BA62B3F
:103AD000B72BCF56DF4F2881C159D040822B808F22
:103AE000918FA28FB38F20E1AE014A585F4F67E3F9
:103AF0008F2D0E94E418E82EF3E68F131BC081EC93
:103B00008F0D1F928F93CE0101969F938F938E01FD
:103B10000A5D1F4F1F930F930E942932B80186E35D
:103B200091E00E9467080F900F900F900F900F90F8
:103B30000F9038C0CE57DF4F8881C258D04090E0F8
:103B4000A0E0B0E0782F662755274427CD57DF4FF8
:103B50009881C358D040892F90E0A0E0B0E0DC010C
:103B600099278827842B952BA62BB72BCC57DF4F73
:103B70004881C458D04050E060E070E0762F652F57
:103B8000542F4427842B952BA62BB72BCB57DF4FD5
:103B90002881C558D040822BF801848F958FA68F3D
:103BA000B78FE12C8E2DCF56DF4FCDBFDEBFDF911B
:103BB000CF911F910F91FF90EF900895CF92DF92D8
:103BC000EF92FF920F931F93CF93DF93CDB7DEB7A2
:103BD000C757D109CDBFDEBF082F7B0184E2E0EFDC
:103BE000FCEADE01119601900D928A95E1F723E03F
:103BF000AE014B585F4F6BE4802F0E94E418182FE2
:103C00008336F1F40F531F920F93CE0101969F93C9
:103C10008F936E0185E2C80ED11CDF92CF920E9475
:103C20002932B60186E391E00E9467088FEFF70121
:103C300080830F900F900F900F900F900F9006C001
:103C4000E7968FADE797F701808310E0812FC95881
:103C5000DF4FCDBFDEBFDF91CF911F910F91FF905E
:103C6000EF90DF90CF900895EF92FF920F931F9304
:103C7000CF93DF93CDB7DEB7C158D109CDBFDEBF3B
:103C8000E82E8B018CE2E4E1FDEADE01AA5ABF4F87
:103C900001900D928A95E1F725E0AE014F5A5F4FF2
:103CA00062E18E2D0E94E418F82E83E6F8121CC003
:103CB00081EC8E0D1F928F93CE018A5A9F4F9F9356
:103CC0008F938E010F5F1F4F1F930F930E94293216
:103CD000B80186E391E00E9467080F900F900F9063
:103CE0000F900F900F9030C062968FAD629790E06A
:103CF000A0E0B0E0782F66275527442763969FAD54
:103D00006397892F90E0A0E0B0E0DC019927882735
:103D1000842B952BA62BB72B64964FAD649750E060
:103D200060E070E0762F652F542F4427842B952B6D
:103D3000A62BB72B65962FAD6597822BF801808354
:103D40009183A283B383F12C8F2DCF57DF4FCDBF4B
:103D5000DEBFDF91CF911F910F91FF90EF900895FB
:103D6000EF92FF920F931F93CF93DF93CDB7DEB700
:103D7000C957D109CDBFDEBFE82E8B0185E2E0E453
:103D8000FDEADE01AF5ABF4F01900D928A95E1F72F
:103D900024E0AE014A585F4F6AE58E2D0E94E41878
:103DA000F82E83E6F8121DC08E2D90E0CF979F93DA
:103DB0008F93CE018F5A9F4F9F938F938E010F5FEA
:103DC0001F4F1F930F930E942932B80186E391E0A1
:103DD0000E9467080F900F900F900F900F900F9018
:103DE00030C0E7968FADE79790E0A0E0B0E0782F85
:103DF000662755274427E8969FADE897892F90E0DE
:103E0000A0E0B0E0DC0199278827842B952BA62B16
:103E1000B72BE9964FADE99750E060E070E0762F60
:103E2000652F542F4427842B952BA62BB72BEA966E
:103E30002FADEA97822BF80180839183A283B3830D
:103E4000F12C8F2DC758DF4FCDBFDEBFDF91CF9153
:103E50001F910F91FF90EF900895EF92FF920F93B3
:103E60001F93CF93DF93CDB7DEB7CE57D109CDBF28
:103E7000DEBF8AE2ECEBFDEADE01119601900D92C5
:103E80008A95E1F7EF961CAE1DAE1EAE1FAEEF9702
:103E900000E010E031C0BE0165587F4F80E8810F1F
:103EA0000E94341E8336E1F41F9281E4810F8F93C8
:103EB000CE0101969F938F937E018BE2E80EF11C59
:103EC000FF92EF920E942932B70186E391E00E94AF
:103ED00067080F900F900F900F900F900F900BC0EE
:103EE000EF968CAD9DADAEADBFADEF97892B8A2B14
:103EF0008B2B09F00F5F1F5F133068F2002311F066
:103F000081E001C080E0C258DF4FCDBFDEBFDF914E
:103F1000CF911F910F91FF90EF9008951F93CF9332
:103F2000DF93CDB7DEB7A297CDBFDEBF86E0EEED63
:103F3000F5EADE01599601900D928A95E1F710E0BD
:103F400027C0BE01615E7F4F80E8810F0E942C1A5E
:103F5000833671F18F8D98A129A13AA13D8B2E8BCB
:103F60009F8B888FE12FF0E0EE0FFF1F81E090E044
:103F70008C0F9D1FE80FF91F608D718D24E0AE013D
:103F80004B5E5F4F80E50E941B09833689F01F5FFF
:103F90001330B8F2CE0101960E947A0724E1AE01F7
:103FA0004F5F5F4F60E270E080E50E941B0980E098
:103FB000A296CDBFDEBFDF91CF911F9108958F9262
:103FC0009F92AF92BF92CF92DF92EF92FF920F93A8
:103FD0001F93CF93DF93CDB7DEB7C559D109CDBFBE
:103FE000DEBFA82EB22ECDB6DEB680E2E6EEFDEA4A
:103FF000DE01119601900D928A95E1F785E2E6E0E7
:10400000FEEADE01919601900D928A95E1F7822EEB
:10401000912CC4010496740123E0E20EF11CADB7AB
:10402000BEB7A81BB90BADBFBEBF0DB71EB70F5FA4
:104030001F4FF80110923C2B81E080933B2B11968F
:10404000AC92618360E00EC0862F90E09C012E5FF1
:104050003F4FDA01A80FB91F8C91DF01A20FB31FE8
:104060008C936F5F6B1580F3B2E08B0E911CB401E3
:10407000C8010E94E017D801A80DB91D9C93F80152
:10408000EE0DFF1D808364E06B0DC8010E94BF2808
:10409000109207281092082824C080910728909138
:1040A000082885369105E0F081EC8A0D1F928F93E8
:1040B000CE0101969F938F938E010A5B1F4F1F9332
:1040C0000F930E942932B80186E391E00E946708AD
:1040D0000F900F900F900F900F900F9083E62AC0D3
:1040E000000090913C2B80913B2B9817B0F290915F
:1040F0003D2A9F3FF1F081EC8A0D1F929F931F9202
:104100008F93CE0181969F938F938E010A5B1F4FF1
:104110001F930F930E942932B80186E391E00E9419
:1041200067082DB73EB7285F3F4F2DBF3EBF83E6E0
:1041300001C080E0CDBEDEBECB56DF4FCDBFDEBFBF
:10414000DF91CF911F910F91FF90EF90DF90CF9073
:10415000BF90AF909F908F900895EF92FF920F9332
:104160001F93CF93DF93CDB7DEB7C358D109CDBF2F
:10417000DEBF082F82E2EBE2FEEADE01119601903B
:104180000D928A95E1F7E4961FAEE497E5961FAE8F
:10419000E5979BE1E6969FAFE69785EAE7968FAFB6
:1041A000E797E8961FAEE897E9961FAEE997EA967B
:1041B0009FAFEA97EB968FAFEB97EC961FAEEC971D
:1041C000ED961FAEED978DE0EE968FAFEE9782EDF8
:1041D000EF968FAFEF97C158DF4F7883CF57D0401E
:1041E000C058DF4F6883C058D040CF57DF4F588347
:1041F000C158D040CE57DF4F4883C258D040CD572A
:10420000DF4F1882C358D04021E1AE014D585F4FB7
:1042100061E4802F0E94DF1F182F8336D9F40F53DB
:104220001F920F93CE0101969F938F937E0183E29D
:10423000E80EF11CFF92EF920E942932B70186E34B
:1042400091E00E9467080F900F900F900F900F90D1
:104250000F9001C010E0812FCD57DF4FCDBFDEBFE3
:10426000DF91CF911F910F91FF90EF9008958F9262
:104270009F92AF92BF92DF92EF92FF920F931F93A4
:10428000CF93DF93CDB7DEB7C95BD109CDBFDEBF1A
:104290004B015C0182E3E2EEFEEADE01A35ABF4F6E
:1042A00001900D928A95E1F78BE2E4E1FFEADE01ED
:1042B000A157BF4F01900D928A95E1F7F12C6CC088
:1042C0006894DD24D7F8DF0C0F2D10E0B801660FDD
:1042D000771F660F771F81E590E08C0F9D1F680F99
:1042E000791F8D2D0E942C1AE82E93E689131DC08C
:1042F0008D2D90E0CF979F938F93CE01835A9F4F40
:104300009F938F938E010F5F1F4F1F930F930E94F8
:104310002932B80186E391E00E9467080F900F9060
:104320000F900F900F900F903CC0000F111F000FC7
:10433000111FE1E5F0E0EC0FFD1FE00FF11F4081E0
:10434000518162817381480D591D6A1D7B1D8D2D20
:104350000E94AD20E82E83E6E8121DC08D2D90E06E
:10436000CF979F938F93CE0181579F4F9F938F93AA
:104370008E010F5F1F4F1F930F930E942932B801C8
:1043800086E391E00E9467080F900F900F900F90C6
:104390000F900F9006C0F39492E09F1508F090CF15
:1043A000E12C8E2DC754DF4FCDBFDEBFDF91CF9103
:1043B0001F910F91FF90EF90DF90BF90AF909F9073
:1043C0008F900895EF92FF920F931F93CF93DF93F7
:1043D000CDB7DEB7CD57D109CDBFDEBF082F89E2FB
:1043E000EFE3FFEADE01119601900D928A95E1F765
:1043F000EB967FAFEB97EC966FAFEC97ED965FAFD8
:10440000ED97EE964FAFEE9724E0AE0146585F4F22
:1044100066E1802F0E94DF1F182F8336D9F40F53D7
:104420001F920F93CE0101969F938F937E018AE294
:10443000E80EF11CFF92EF920E942932B70186E349
:1044400091E00E9467080F900F900F900F900F90CF
:104450000F9001C010E0812FC358DF4FCDBFDEBFEA
:10446000DF91CF911F910F91FF90EF9008950F93DF
:104470001F93CF93DF9300D000D0CDB7DEB72AE6ED
:1044800084E091E0215080409040E1F700C010921C
:104490003C2A8BE080933B2A10E010C000E8010F1B
:1044A000BE016F5F7F4F802F0E94491849815A815A
:1044B0006B817C81802F0E94E2211F5F133070F39B
:1044C00080E02496CDBFDEBFDF91CF911F910F9189
:1044D0000895EF92FF920F931F93CF93DF93CDB781
:1044E000DEB7C457D109CDBFDEBF83E2E8E6FFEAFD
:1044F000DE01AE5ABF4F01900D928A95E1F76296A8
:104500001FAE629700E010E028C021E0AE014F5AD4
:104510005F4F60E080E8810F0E94DF1F8336E1F487
:104520001F9281E4810F8F93CE018E5A9F4F9F93EC
:104530008F93815591097C019F938F930E9429321B
:10454000B70186E391E00E9467080F5F0F900F901C
:104550000F900F900F900F901F5F1330B0F2002359
:1045600011F083E601C080E0CC58DF4FCDBFDEBF45
:10457000DF91CF911F910F91FF90EF900895CF920F
:10458000DF92EF92FF920F931F93CF93DF93CDB7FC
:10459000DEB7C45ED109CDBFDEBF98E2EBE8FFEA2B
:1045A000DE01AB5ABF4F01900D929A95E1F79EE163
:1045B000E3EBFFEADE01A358BF4F01900D929A95FD
:1045C000E1F791E2E1EDFFEADE01A556BF4F019070
:1045D0000D929A95E1F799E2E2EFFFEADE01A45429
:1045E000BF4F01900D929A95E1F7082F10E084E3F8
:1045F000809FF001819FF00D1124E15FF74D8281D2
:10460000882309F4FEC084E3809FF001819FF00DB0
:104610001124E15FF74D8181482F50E0FA01E15408
:10462000F109E833F10508F09DC0EE54FF4F0C94FA
:1046300004300E94692210E0E9C00F2EFFE3FF2E34
:10464000F02DF80E65961CAE1DAE1EAE1FAE659722
:10465000A0C024E3209FC001219F900D11248F5EF4
:10466000974D0E94A9309B01AC01ABE1B1E00E94E3
:104670000A306B017C0100E020C0B701A60180E890
:10468000800F0E94AD20182F8336B1F4CE018556DD
:104690009F4F9F938F938A5991097C019F938F938A
:1046A0000E942932B70186E391E00E9467080F90CB
:1046B0000F900F900F90AAC00F5F0330F0F210E040
:1046C000A5C00F2EFFE1FF2EF02DF80EBE016F5A90
:1046D0007F4F8F2D0E942C1A833609F05AC0CE01CD
:1046E0008B5A9F4F9F938F938E010F5F1F4F1F9386
:1046F0000F930E942932B80185E391E00E94670878
:104700000F900F900F900F9013E680C024E3209F2E
:10471000C001219F900D11248F5E974D0E94A930FA
:104720009B01AC01ABE1B1E00E940A300E9437214D
:10473000182F833609F067C0CE0184549F4F9F9392
:104740008F938B5B91097C019F938F930E942932F9
:10475000B70186E391E00E9467080F900F900F90D9
:104760000F9054C0CE0183589F4F9F938F938E011B
:104770000F5F1F4F1F930F930E942932B80186E3EA
:1047800091E00E9467080F900F900F900F9013E632
:104790003DC024E3209FC001219F900D11248F5E16
:1047A000974D0E94A9309B01AC01ABE1B1E00E94A2
:1047B0000A3065960CAD1DAD2EAD3FAD6597AB01D2
:1047C000BC01400F511F621F731F8F2D0E94AD202F
:1047D000182F8336D1F4CE0185569F4F9F938F9328
:1047E0008A5991097C019F938F930E942932B701C6
:1047F00086E391E00E9467080F900F900F900F9052
:1048000005C010E003C010E001C010E0812FCC51C2
:10481000DF4FCDBFDEBFDF91CF911F910F91FF9092
:10482000EF90DF90CF9008950F931F93CF93DF9376
:10483000CDB7DEB7C55AD109CDBFDEBF9FE2EBE1F0
:10484000F0EBDE01AF5ABF4F01900D929A95E1F760
:1048500096E2EAE4F0EBDE01A058BF4F01900D9222
:104860009A95E1F724E3829FC0011124FC01E15FE6
:10487000F74D11818FE9810F833018F540E050E04A
:10488000BA018FE1810F0E94E221833699F51F92D0
:104890001F93CE018F5A9F4F9F938F938E010F5F6F
:1048A0001F4F1F930F930E942932B80187E391E0B5
:1048B0000E9467080F900F900F900F900F900F902D
:1048C00019C01F921F93CE0180589F4F9F938F93C3
:1048D0008E010F5F1F4F1F930F930E942932B80163
:1048E00087E391E00E9467080F900F900F900F9060
:1048F0000F900F90CB55DF4FCDBFDEBFDF91CF9133
:104900001F910F910895CF92DF92EF92FF920F9334
:104910001F93CF93DF93CDB7DEB7C15ED109CDBF73
:10492000DEBF93E2E0E7F0EBDE01AF5ABF4F01904C
:104930000D929A95E1F795E1E3E9F0EBDE01AC58D1
:10494000BF4F01900D929A95E1F794E1E8EAF0EB00
:10495000DE01A757BF4F01900D929A95E1F796E1BE
:10496000ECEBF0EBDE01A356BF4F01900D929A9550
:10497000E1F79BE0E2EDF0EBDE01AD54BF4F0190BB
:104980000D929A95E1F794E2EDEDF0EBDE01A25481
:10499000BF4F01900D929A95E1F7282F30E084E304
:1049A000829FF001839FF00D1124E15FF74D01819B
:1049B000013608F4DEC0043620F0043709F472C072
:1049C000D8C084E3829FF001839FF00D1124E15F42
:1049D000F74D8281882309F4E3C044E3429FC0017C
:1049E000439F900D11248F5E974D0E94A9309B012B
:1049F000AC01ABE1B1E00E940A306B017C0120E523
:104A0000C20E28EFD21E2CE0E21EF11C31EAC316C2
:104A100030EFD30639E1E306F104F8F02BE131E0A1
:104A200040E050E00E94E52F5F934F933F932F9318
:104A3000CE0182549F4F9F938F938E010F5F1F4F24
:104A40001F930F930E942932B80186E391E00E94E0
:104A50006708CDBFDEBF13E6A8C0AB01BC018FE184
:104A6000800F0E94E221182F833609F09BC01F920D
:104A70000F93CE018F5A9F4F9F938F939E012F5F6D
:104A80003F4F79013F932F930E942932B70186E36C
:104A900091E00E9467080F900F900F900F900F9079
:104AA0000F9083C044E3429FC001439F900D1124A7
:104AB0009C012F5E374D7901F90101900020E9F743
:104AC0003197E21BF30B7397B9F0CE018C589F4FCF
:104AD0009F938F938E010F5F1F4F1F930F930E9421
:104AE0002932B8018AE592E00E9467080F900F9082
:104AF0000F900F9013E659C0C9010E94E607182FC6
:104B00008336B1F4CE0187579F4F9F938F93885878
:104B100091097C019F938F930E942932B7018BE505
:104B200092E00E9467080F900F900F900F903DC089
:104B300024E1A70160E070E080E50E941B09182FC6
:104B4000833691F5CE0183569F4F9F938F939E019D
:104B50002F5F3F4F79013F932F930E942932B70176
:104B60008BE592E00E9467080F900F900F900F90D6
:104B70001CC0CE018D549F4F9F938F938E010F5F6A
:104B80001F4F1F930F930E942932B80189E592E0CD
:104B90000E9467080F900F900F900F9013E605C0CA
:104BA00010E003C010E001C010E0812FCF51DF4FB3
:104BB000CDBFDEBFDF91CF911F910F91FF90EF909E
:104BC000DF90CF900895CF93DF9300D000D0CDB782
:104BD000DEB7833018F0833039F00BC0BE016F5F51
:104BE0007F4F0E947F010DC0CE0101960E943D0BB8
:104BF00008C080E090E8A6E2B4EC89839A83AB8396
:104C0000BC8369817A818B819C8120E030E048E41B
:104C100052EC0E94B92A882344F480E090E8A6E28E
:104C2000B4EC89839A83AB83BC8369817A818B815D
:104C30009C812496CDBFDEBFDF91CF9108950F9365
:104C40001F93CF93DF93CDB7DEB7C455D109CDBF46
:104C5000DEBFBE016F5A7F4F82E80E94B01E8111F5
:104C600021C065968FAD65978F9364968FAD6497DD
:104C70008F9363968FAD63978F9362968FAD629794
:104C80008F9381E091EB9F938F938E010F5F1F4F66
:104C90001F930F930E942932C8010E94B703CDBF12
:104CA000DEBF04C08FE497EA0E94B703CC5ADF4FFF
:104CB000CDBFDEBFDF91CF911F910F910895AC0161
:104CC000E0E6F0E0948D9E7F88ED84BF948F01C074
:104CD00000009091630096FDFBCFE0E6F0E0948D3C
:104CE0009B7F28ED24BF948F948D916024BF948F77
:104CF00001C00000909141019111FBCFE0E4F1E08F
:104D00004287538782E0878385818160858381EB39
:104D1000808382818160828381E2808B81E0828BCB
:104D200008951F920F920FB60F9211248F939F93A5
:104D300081E0809343018091182A9091192A01966D
:104D40008093182A9093192A80E28093A704809177
:104D50003C2A8F5F80933C2A9F918F910F900FBECA
:104D60000F901F9018951F920F920FB60F9211245B
:104D70008F939F9381E08093530180910B289091B2
:104D80000C28019680930B2890930C28809103287F
:104D90009091042801968093032890930428809191
:104DA0000728909108280196809307289093082857
:104DB0008091012890910228019680930128909378
:104DC0000228809105289091062801968093052855
:104DD000909306289F918F910F900FBE0F901F9078
:104DE00018951F920F920FB60F9211248F9381E0A6
:104DF0008093860A8F910F900FBE0F901F90189589
:104E0000E0EAF8E08BE0868383818160838385819B
:104E100081608583089510920528109206280FC09E
:104E200000008091052890910628C39740F060E12A
:104E300071EB81E991E00E9467088FEF08958091FE
:104E4000A50888236CF7E0EAF8E084818B7F8483EF
:104E50008085948192609483089510920528109221
:104E600006280FC000008091052890910628C3975E
:104E700040F061E271EB81E991E00E9467088FEFF9
:104E800008958091A50888236CF7E0EAF8E0848112
:104E90008460848380850895613039F490E0880FC0
:104EA000991F81608093A70803C0880F8093A7088B
:104EB00010920528109206280FC000008091052846
:104EC00090910628C39740F062E371EB81E991E08D
:104ED0000E94670883E608958091A508807C69F3A5
:104EE0008091A50882FF08C064E471EB81E991E03C
:104EF0000E94670883E608958091A50883FF08C093
:104F00006CE471EB81E991E00E94670883E6089503
:104F10009091A508892F807194FF07C06CE571EB13
:104F200081E991E00E94670883E6089587E0809315
:104F3000A4080895109205281092062810C00000B9
:104F400020910528309106282333310540F064E78D
:104F500071EB81E991E00E94670883E608959091E2
:104F6000A50896FFECCF8093A80810920528109210
:104F700006280FC000008091052890910628C3974D
:104F800040F065E871EB81E991E00E94670883E6F3
:104F900008958091A50886FFEDCF9091A508892FEF
:104FA000807194FF07C066E971EB81E991E00E948E
:104FB000670883E60895E0E0F4E081E0858381837B
:104FC000E0E0F8E024E730E02087318795819068C1
:104FD00095839681906496839681906896831092CB
:104FE000432F1092442F8093482F10923F2E1092FF
:104FF000402E1092412D1092422E1092442EE0E449
:10500000F4E085838183E0E2F8E02DE635E0208757
:105010003187958190689583968190649683968177
:1050200090689683E0E2F4E085838183E0E6F8E02F
:1050300020873187968190649683968190689683C5
:105040008093503110924C3008950F931F93CF935B
:10505000DF93EB01142F8130B1F120F0833009F49C
:1050600081C088C01092482F20E011C0E3E4FFE225
:10507000808190E03881DC01AB5BB14D3C930196BF
:105080006EEF70E00E94D12F80832F5F2196211751
:1050900068F3E0E0F8E08581806285831092032860
:1050A000109204280BC08091032890910428853623
:1050B000910520F081E08093482F5CC08091482FBB
:1050C000882389F357C0642F70E0CE010E94E01757
:1050D000482F092F20E011C0EFE4F2E3808190E037
:1050E0003881DC01AF5ABE4C3C9301966EEF70E004
:1050F0000E94D12F80832F5F2196211768F3EFE460
:10510000F2E3808190E0DC01AF5ABE4C0C93019633
:105110002EEF30E0B9010E94D12F90E0DC01AF5AB0
:10512000BE4C4C930196B9010E94D12F80831E5F23
:1051300010935132E0E2F8E08581806285831AC0E5
:10514000EBE4F1E3808190E03881DC01A35BBF4CAC
:105150003C9301966EEF70E00E94D12F80832F5F09
:10516000219601C020E0211758F3E0E6F8E08581A0
:1051700080628583DF91CF911F910F910895DC01AB
:1051800010923C2C60933B2C90E008C0E92FF0E09B
:105190008C91E35CF44D80839F5F11969617B0F37A
:1051A000E0E2F8E085818062858308951F920F9286
:1051B0000FB60F9211248F93AF93BF93EF93FF938A
:1051C000ACE3BBE2EC9181E08E0F8C93F0E0809138
:1051D0002008E35CF54D8083FF91EF91BF91AF9183
:1051E0008F910F900FBE0F901F9018951F920F92E6
:1051F0000FB60F9211248F939F93AF93BF93CF93CA
:10520000DF93EF93FF93A0E2B8E015968C9115978A
:105210008F7D15968C931597CCE3DCE2E88181E0D5
:105220008E0F8883F0E0E35CF44D908112969C939E
:1052300090913B2C891728F4E0E2F8E085818062A8
:105240008583FF91EF91DF91CF91BF91AF919F91B6
:105250008F910F900FBE0F901F9018951F920F9275
:105260000FB60F9211245F936F937F938F939F9349
:10527000AF93BF93EF93FF93909100088091422EDC
:105280008D3F10F59D3051F481E08093442EE091E4
:105290003F2EF0E0EF5BF24D108206C0E0913F2E12
:1052A000F0E0EF5BF24D9083E2E4FEE280818F5FFD
:1052B0008083EFE3FEE2808190E001966EEF70E084
:1052C0000E94D12F80830AC010923F2E1092402E50
:1052D0001092412D1092422E1092442EFF91EF9188
:1052E000BF91AF919F918F917F916F915F910F903F
:1052F0000FBE0F901F9018951F920F920FB60F922E
:1053000011242F938F939F93EF93FF93E0E0F8E0A6
:1053100085818F7D85838091432FE091442F8E1767
:10532000D1F081E08E0F8093442FF0E0EB5BF14DE4
:1053300090819093020891E08E3F08F490E091955F
:10534000292F220F821B8093442FE0E0F8E0858113
:105350008062858303C081E08093482FFF91EF91A5
:105360009F918F912F910F900FBE0F901F901895C6
:105370001F920F920FB60F9211248F939F93AF93AA
:10538000BF93EF93FF93809160088D3021F0E091FF
:105390004B30ED3F78F081E080934C30ABE4B0E3EC
:1053A0008C91E82FF0E0E75BF04D1082809349305C
:1053B0001C9208C091E09E0F90934B30F0E0E75BA9
:1053C000F04D8083FF91EF91BF91AF919F918F91AD
:1053D0000F900FBE0F901F9018951F920F920FB64F
:1053E0000F9211248F939F93AF93BF93EF93FF93EB
:1053F000AFE4B1E3EC9181E08E0F8C93F0E0E35BDE
:10540000FF4C90819093620890914D31891740F044
:10541000E0E6F8E085818F7D858381E080935031DF
:10542000FF91EF91BF91AF919F918F910F900FBE20
:105430000F901F90189588ED84BF81E08093000144
:1054400008951F920F920FB60F9211242F933F933E
:105450004F935F936F937F938F939F93AF93BF937C
:10546000EF93FF938091A90486FF05C080E48093A9
:10547000A9040E941B2AFF91EF91BF91AF919F91C8
:105480008F917F916F915F914F913F912F910F90ED
:105490000FBE0F901F9018955058BB27AA270E9447
:1054A000642A0C94A82B0E949A2B38F00E94A12BFE
:1054B00020F039F49F3F19F426F40C94972B0EF446
:1054C000E095E7FB0C94912BE92F0E94B92B58F340
:1054D000BA17620773078407950720F079F4A6F5D9
:1054E0000C94DB2B0EF4E0950B2EBA2FA02D0B01A4
:1054F000B90190010C01CA01A0011124FF27591B19
:1055000099F0593F50F4503E68F11A16F040A22F1E
:10551000232F342F4427585FF3CF4695379527958F
:10552000A795F0405395C9F77EF41F16BA0B620B8E
:10553000730B840BBAF09150A1F0FF0FBB1F661FD5
:10554000771F881FC2F70EC0BA0F621F731F841F18
:1055500048F4879577956795B795F7959E3F08F03E
:10556000B0CF9395880F08F09927EE0F9795879500
:1055700008950E946D2B08F481E008950E94D22ABC
:105580000C94A82B0E94A12B58F00E949A2B40F05B
:1055900029F45F3F29F00C94912B51110C94DC2BD2
:1055A0000C94972B0E94B92B68F39923B1F35523E0
:1055B00091F3951B550BBB27AA2762177307840726
:1055C00038F09F5F5F4F220F331F441FAA1FA9F3BC
:1055D00035D00E2E3AF0E0E832D091505040E695AA
:1055E000001CCAF72BD0FE2F29D0660F771F881F0B
:1055F000BB1F261737074807AB07B0E809F0BB0BFE
:10560000802DBF01FF2793585F4F3AF09E3F510511
:1056100078F00C94912B0C94DC2B5F3FE4F3983ED4
:10562000D4F3869577956795B795F7959F5FC9F7FA
:10563000880F911D9695879597F90895E1E0660F7B
:10564000771F881FBB1F621773078407BA0720F0F4
:10565000621B730B840BBA0BEE1F88F7E09508955D
:10566000E89409C097FB3EF49095809570956195FC
:105670007F4F8F4F9F4F9923A9F0F92F96E9BB27B2
:105680009395F695879577956795B795F111F8CF2E
:10569000FAF4BB0F11F460FF1BC06F5F7F4F8F4F99
:1056A0009F4F16C0882311F096E911C0772321F08F
:1056B0009EE8872F762F05C0662371F096E8862F27
:1056C00070E060E02AF09A95660F771F881FDAF77E
:1056D000880F9695879597F90895990F0008550FAB
:1056E000AA0BE0E8FEEF16161706E807F907C0F068
:1056F00012161306E407F50798F0621B730B840B70
:10570000950B39F40A2661F0232B242B252B21F449
:1057100008950A2609F4A140A6958FEF811D811DE9
:10572000089597F99F6780E870E060E008959FEF23
:1057300080EC089500240A94161617061806090628
:10574000089500240A9412161306140605060895F7
:10575000092E0394000C11F4882352F0BB0F40F47F
:10576000BF2B11F460FF04C06F5F7F4F8F4F9F4FBF
:10577000089557FD9058440F551F59F05F3F71F041
:105780004795880F97FB991F61F09F3F79F08795A8
:105790000895121613061406551FF2CF4695F1DF31
:1057A00008C0161617061806991FF1CF86957105C1
:1057B000610508940895E894BB2766277727CB01F5
:1057C00097F908950E946D2B08F48FEF08950E94B9
:1057D000FA2B0C94A82B0E949A2B38F00E94A12B34
:1057E00020F0952311F00C94912B0C94972B1124FD
:1057F0000C94DC2B0E94B92B70F3959FC1F3950F8D
:1058000050E0551F629FF001729FBB27F00DB11D44
:10581000639FAA27F00DB11DAA1F649F6627B00DD4
:10582000A11D661F829F2227B00DA11D621F739FBD
:10583000B00DA11D621F839FA00D611D221F749FCB
:105840003327A00D611D231F849F600D211D822F12
:10585000762F6A2F11249F5750409AF0F1F0882339
:105860004AF0EE0FFF1FBB1F661F771F881F915066
:105870005040A9F79E3F510580F00C94912B0C9459
:10588000DC2B5F3FE4F3983ED4F3869577956795DC
:10589000B795F795E7959F5FC1F7FE2B880F911D90
:1058A0009695879597F90895A0E1B0E0EAE5FCE2C6
:1058B0000C9415307C011B016A01FC0116821782D1
:1058C000838181FF44C39E012F5F3F4F3901F70160
:1058D0009381F10193FD859193FF81911F018823AD
:1058E00009F431C3853239F493FD859193FF819199
:1058F0001F01853239F4B70190E00E94ED31560165
:105900006501E5CF10E0512C912CFFE1F915D8F09D
:105910008B3279F038F4803279F08332A1F4F92DAA
:10592000F0612EC08D3261F0803369F4292D216041
:105930002DC0392D3260932E892D8460982E2AC077
:10594000E92DE86015C097FC2DC020ED280F2A3006
:1059500088F496FE06C03AE0139F200D1124122F02
:1059600019C08AE0589E200D1124522EE92DE062C4
:105970009E2E10C08E3231F496FCE5C2F92DF064F3
:105980009F2E08C08C3621F4292D2068922E02C04B
:10599000883641F4F10193FD859193FF81911F01B8
:1059A0008111B3CF9BEB980F933020F4992D906128
:1059B000805E07C09BE9980F933008F066C1992D6F
:1059C0009F7E96FF16E09F73992E853619F490649A
:1059D000992E08C0863621F4392F3068932E02C0E4
:1059E0001111115097FE07C01C3350F44424439406
:1059F000410E27E00BC0183038F027E017E005C053
:105A000027E09CE3492E02C0212F412C560184E05F
:105A1000A80EB11CF6016081718182819381042DF1
:105A2000A3010E94D0306C01F981FC87F0FF02C015
:105A3000F3FF06C091FC06C092FE06C000E205C05E
:105A40000DE203C00BE201C000E08C858C7019F000
:105A500001115AC29BC297FE10C04C0CFC85F4FF8A
:105A600004C08A81813309F44A94141474F528E03F
:105A7000241578F588E0482E2CC096FC2AC0812F8A
:105A800090E08C159D059CF03CEFC3163FEFD306CC
:105A900074F0892D8068982E0AC0E2E0F0E0EC0FE7
:105AA000FD1FE10FF11D8081803319F41150111198
:105AB000F4CF97FE0EC044244394410E812F90E012
:105AC000C816D9062CF41C1904C04424439401C000
:105AD00010E097FE06C01C141D0434F4C6010196A4
