:100000000C9406010C9423010C9423010C942F10E2
:100010000C9423010C9423010C9423010C942301D0
:100020000C9423010C9423010C9423010C942301C0
:100030000C9423010C9423010C9423010C942301B0
:100040000C9423010C94D5110C9409120C942301E7
:100050000C9423010C9423010C9423010C94230190
:100060000C9423010C9423010C9439120C946E12FD
:100070000C9423010C9414070C9423010C94230179
:100080000C9423010C9423010C9423010C94230160
:100090000C9423010C949C120C94D1120C94230107
:1000A000E10CE90FE90FE90FE90FE90FE90FE90F9B
:1000B000E90FE90FE90FE90FE90FE90FE90FE90F80
:1000C000E90FE90FE90FE90FA40FE90FE90FE90FB5
:1000D000E90FE90FE90FE90FE90FE90FE90FE90F60
:1000E000E90FE90FE90F1D0DE90FE90FE90FE90F1E
:1000F000E90FE90FE90FE90FE90F250E990EE90F56
:10010000E90FE90F000FE90F510F6E616E00696E84
:10011000660000407A10F35A00A0724E18090010D1
:10012000A5D4E80000E87648170000E40B5402006C
:1001300000CA9A3B000000E1F50500008096980097
:10014000000040420F000000A086010000001027C0
:1001500000000000E8030000000064000000000050
:100160000A00000000000100000000002C76D88882
:10017000DC674F0823DFC1DFAE59E1B1B796E5E395
:10018000E453C63AE651997696E8E6C28426EB89AE
:100190008C9B62ED407C6FFCEFBC9C9F40F2BAA54B
:1001A0006FA5F490055A2AF75C936B6CF9676DC1E3
:1001B0001BFCE0E40D47FEF520E6B500D0ED902EE7
:1001C0000300943577050080841E080000204E0A45
:1001D000000000C80C333333330F986E1283114183
:1001E000EF8D2114893BE65516CFFEE6DB18D1844E
:1001F0004B381BF77C1D901DA4BBE4242032847275
:100200005E228100C9F124ECA1E53D2711241FBE27
:10021000CFEFCDBFDFE3DEBF18E2A0E0B8E2EBE452
:10022000F7E302C005900D92A230B107D9F72DE295
:10023000A2E0B8E201C01D92AD32B207E1F70E9420
:1002400093070C94E91A0C940000CF92DF92EF927E
:10025000FF92CF938130C9F018F0823061F010C066
:100260000F2EF3E3CF2EDC2CF3EFEF2EF0E4FF2E76
:10027000F02DC1E00EC0C12CD12C7601C0E109C027
:10028000C12CD12C7601C0E004C0C12CD12C760148
:10029000C4E040E066E08EE40E94CE074C2F40951B
:1002A00060E08EE40E94CE074C2F6AE08EE40E944C
:1002B000CE0786E18A95F1F7000020E840E768E084
:1002C00080E90E947B0120E030E04AE754E40E948C
:1002D000A01423E333E948E853E40E9405139B018B
:1002E000AC01C701B6010E940613CF91FF90EF90B9
:1002F000DF90CF900895CF92DF92EF92FF920F930D
:100300001F93CF93DF93D82FF62E462BC42FC168AF
:10031000122F136060E00E94E510082F882369F017
:100320000E940611602F70E080E090E00E94E913C7
:10033000562F472F382F292FD0C081E00E940A1155
:10034000082F882369F00E940611602F70E080E07A
:1003500090E00E94E913562F472F382F292FBDC058
:100360008C2F0E940A11C82F882369F00E94061161
:100370006C2F70E080E090E00E94E913562F472F29
:10038000382F292FAAC0812F0E940A11C82F882335
:1003900069F00E9406116C2F70E080E090E00E94EE
:1003A000E913562F472F382F292F97C00E94061187
:1003B0008CE18A95F1F7C1E009C061E08D2F0E94C0
:1003C000E5100E94D81088230CF4C0E0C111F5CFCD
:1003D0000E94061160E08D2F0E94E51080E00E94CF
:1003E0000A1161E08D2F0E94E5100E94C810C82FED
:1003F0000E94D810D82F0E9406116C2F70E0762F23
:1004000066276D2B84E0F81649F18F1530F0FF2038
:10041000D9F182E0F81669F142C088E0F81609F4D3
:1004200042C08AE0F81621F086E0F81238C00BC00E
:100430000F2EF4E7CF2EF3E1DF2EF3E0EF2EF7E3FC
:10044000FF2EF02D3AC00F2EF4E7CF2EF3E1DF2E72
:10045000F3E0EF2EF8E3FF2EF02D2FC00F2EF2E188
:10046000CF2EF3E1DF2EF3E8EF2EF8E3FF2EF02D91
:1004700024C00F2EF4E7CF2EF3E1DF2EF3E0EF2EB2
:10048000F9E3FF2EF02D19C00F2EFEE2CF2EFDE96D
:10049000DF2EF4E4EF2EF9E3FF2EF02D0EC0C12C79
:1004A000D12C76010AC00F2EF1E7CF2EF3E1DF2E1B
:1004B000F3E8EF2EF7E3FF2EF02D072E000C880B4C
:1004C000990B0E94EB139B01AC01C701B6010E947E
:1004D000A014562F472F382F292F652F742F832FC5
:1004E000922FDF91CF911F910F91FF90EF90DF90AE
:1004F000CF900895E0E2F4E084E0858381838683F1
:1005000008950F931F93CF93DF93CDB7DEB7C559EF
:10051000D109CDBFDEBF2BE0E6EDF5E7DE01119698
:1005200001900D922A95E1F72091A80422FF03C0C3
:1005300022E030E002C021E030E09F938F933F93B0
:100540002F93CE0101969F938F938E01045F1F4FCF
:100550001F930F930E94251AC8010E946E09F8018B
:1005600001900020E9F73197AF01401B510BB80112
:1005700080E00E946611CDBFDEBFCB56DF4FCDBFFE
:10058000DEBFDF91CF911F910F9108959FE9980FE2
:100590009A3128F081548A3120F481E0089581E075
:1005A000089580E00895EF92FF921F93CF93DF9319
:1005B000EC01E62EF12C84E38E9DF0018F9DF00D71
:1005C0001124ED5FF74D8FE380838183128213A6A0
:1005D00004C0112309F475C021961881812F0E944F
:1005E000C6028823B1F3219684E38E9DF0018F9D8E
:1005F000F00D1124ED5FF74D108304C0112309F4B1
:1006000060C021961881812F0E94C6028823B1F311
:10061000219684E38E9DF0018F9DF00D1124ED5FF6
:10062000F74D118380E02AC0988191110CC094E3AA
:100630009E9DF0019F9DF00D1124ED5FF74DE80F99
:10064000F11D12823EC09B3361F494E39E9DF00144
:100650009F9DF00D1124ED5FF74DE80FF11D128203
:100660000FC0219624E32E9DF0012F9DF00D112443
:10067000ED5FF74DE80FF11D92838F5F8932A0F295
:10068000219680E01CC0988191110CC094E39E9D3E
:10069000F0019F9DF00D1124ED5FF74DE80FF11D66
:1006A00013A60FC0219624E32E9DF0012F9DF00D7F
:1006B0001124ED5FF74DE80FF11D93A78F5F89308F
:1006C00010F3DF91CF911F91FF90EF9008950F935A
:1006D0001F93CF93DF93CDB7DEB76D97CDBFDEBF4E
:1006E0002EE330E029833A8321E230E02B833C8300
:1006F000813009F43FC018F08230B9F051C08E014A
:100700000B5F1F4FBE016F5F7F4FC8010E94D7195B
:10071000F80101900020E9F73197AF01401B510B20
:10072000B80180E00E94661150C08E010B5F1F4F20
:10073000C8010E94B709F80101900020E9F731973C
:10074000AF01401B510BB80180E00E946611BE0151
:100750006F5F7F4FC8010E94D719F80101900020F8
:10076000E9F73197AF01401B510BB80180E00E94BF
:1007700066112BC08E010B5F1F4FBE016D5F7F4F57
:10078000C8010E94D719F80101900020E9F73197BC
:10079000AF01401B510BB80180E00E94661115C0EB
:1007A0008E010B5F1F4FBE016D5F7F4FC8010E941E
:1007B000D719F80101900020E9F73197AF01401BEC
:1007C000510BB80180E00E9466116D96CDBFDEBF6F
:1007D000DF91CF911F910F910895CF93DF93CDB704
:1007E000DEB7C058D109CDBFDEBFE0E2F4E084E05F
:1007F0008583A2ECB2EA1197F1F700C0868320E06E
:100800001CC08091152B90E0FC01EC56F54D308119
:10081000E1E0F0E0EC0FFD1FE20FF11D30830196E7
:100820008F779078992324F4019780689F6F0196C1
:100830008093152B332319F02F5F222314F7809117
:100840000028882389F08981813221F081E00E948B
:10085000670366C08FEF91E00E94011080E00E9464
:100860006703109200285CC0CE0101960E948102AD
:1008700041E0BE016F5F7F4F81E00E94C20A898123
:10088000811103C00E9467034BC060910228CE0112
:1008900001960E94D30280910228B4E38B9FF0015D
:1008A0001124ED5FF74D908121819F3681F028F46E
:1008B0009235D1F0933631F025C0923769F09337F5
:1008C00079F020C0822F0E94E10B282F1CC0822FBC
:1008D0000E940A0C282F17C00E946B0C282F13C0EF
:1008E0000E947410282F0FC080E00E9467032AE640
:1008F00084E091E0215080409040E1F700C00E94E8
:10090000FF120EC022E08091022890E001966AE07A
:1009100070E00E948A1880930228822F0E94670349
:10092000C058DF4FCDBFDEBFDF91CF910895FB01EF
:100930007081618152814481358126811F927F932C
:100940001F926F931F925F931F924F931F923F933B
:100950001F922F9321EE35E73F932F939F938F9311
:100960000E94251A8DB79EB740968DBF9EBF0895F1
:10097000DC01FB01818990E0C09782959295907F80
:100980009827807F982792899053892B8C9386850E
:1009900090E0C09782959295907F9827807F9827C6
:1009A00097859053892B11968C931197838590E0AE
:1009B000C09782959295907F9827807F98279485FD
:1009C0009053892B12968C93129781E013968C93F7
:1009D0001397808590E0C09782959295907F982795
:1009E000807F982791859053892B14968C93149728
:1009F000258130E02053310922953295307F32270E
:100A0000207F322786818053282B15962C931597AB
:100A1000228130E02053310922953295307F3227F0
:100A2000207F322783818053282B16962C9308959C
:100A3000EF92FF920F931F93CF937B0160E00E9490
:100A4000E510C82F882321F00E9406118C2F28C0A2
:100A500080E00E940A11C82F882321F00E9406110D
:100A60008C2F1EC061E080ED0E94E510C82F882306
:100A700069F00E9406118C2F13C087010C0F111D05
:100A80000E94C810F8018083CF5F01C0C0E0C6306B
:100A9000A0F30E94D810F70186830E94061180E01F
:100AA000CF911F910F91FF90EF9008950F931F9397
:100AB000CF93DF93CDB7DEB72797CDBFDEBF8C01D5
:100AC000BE016F5F7F4F80ED0E941805882349F0BB
:100AD00092E1E1E0F6E7D80101900D929A95E1F7F5
:100AE00007C0BE016F5F7F4FC8010E94970480E07E
:100AF0002796CDBFDEBFDF91CF911F910F91089553
:100B0000EF92FF920F931F93CF93DF938B0160E0DF
:100B10000E94E510C82F882321F00E9406118C2F17
:100B200022C080E00E940A11C82F8823B1F00E94E1
:100B300006118C2F18C078018FEFE81AF80AF80117
:100B400080810E940A11C82F882321F00E9406117B
:100B50008C2F09C0DF5F870101C0D0E0D73058F388
:100B60000E94061180E0DF91CF911F910F91FF90BD
:100B7000EF900895CF93DF93CDB7DEB72797CDBF22
:100B8000DEBFBC01CE0101960E94B804BE016F5FBA
:100B90007F4F80ED0E9480052796CDBFDEBFDF919D
:100BA000CF91089545E150E06BE070E00E94A51AF6
:100BB00008954BE050E060E070E00E94A51A0895AF
:100BC000CF93DF93CDB7DEB76597CDBFDEBFCE0144
:100BD00001960E94560545E150E06BE070E0CE01C1
:100BE00001960E94A91A6596CDBFDEBFDF91CF9115
:100BF0000895CF93DF93CDB7DEB72B97CDBFDEBF80
:100C00008BE0E3E1F6E7DE01119601900D928A9503
:100C1000E1F74BE050E060E070E0CE0101960E9409
:100C2000A91A2B96CDBFDEBFDF91CF9108950E9408
:100C3000E0050E94F9050895EF92FF920F931F932C
:100C4000CF93DF93C82FE62EF72E8A01D22F60E0D4
:100C50000E94E51081112BC08F2D0E940A11811175
:100C600026C08E2D0E940A11811121C061E08C2FB7
:100C70000E94E51081111BC0C0E008C07801EC0E95
:100C8000F11C0E94C810F7018083CF5F2C2F30E049
:100C90008D2F90E001972817390784F3EC01C00FDE
:100CA000D11F0E94D81088830E94061180E0DF9136
:100CB000CF911F910F91FF90EF900895EF92FF92C7
:100CC0000F931F93CF93DF93F62E172FEA01022F76
:100CD00060E00E94E51081111CC0812F0E940A1162
:100CE000811117C08F2D0E940A11811112C010E0CE
:100CF0000BC07E018FEFE81AF80A88810E940A1162
:100D0000811107C01F5FE701101798F30E940611B9
:100D100080E0DF91CF911F910F91FF90EF900895A8
:100D20008F929F92AF92BF92CF92DF92EF92FF92FB
:100D3000813059F018F0823079F015C080E00E94BF
:100D4000AD104B015C0140E417C081E00E94AD1082
:100D50004B015C0140E510C082E00E94AD104B01E8
:100D60005C0140E609C00F2E812C912CF0EAAF2ED9
:100D7000F1E4BF2EF02D40E520E860E080E90E941C
:100D80007B0120E030E040EA50E40E9477132AE043
:100D900037ED43E25EE30E9405132FE539E24BECA9
:100DA0005BE30E9477136B017C0129EC3EE84DE088
:100DB0005BE3C501B4010E94A0149B01AC0162E297
:100DC0007DEF86E89FE30E9405139B01AC01C701FC
:100DD000B6010E947713FF90EF90DF90CF90BF9005
:100DE000AF909F908F9008950E94330C8BE080937A
:100DF000B6040E94A5100E948D070E947A0280E42A
:100E000090E00E9401100E941F110E94BD100E94DC
:100E10003C090E943B0B80E00E94020A81E00E9494
:100E2000020A0E94170608951F920F920FB60F92A2
:100E300011242F933F934F935F936F937F938F93DF
:100E40009F93AF93BF93EF93FF938091A90486FF85
:100E500005C080E48093A9040E94FF12FF91EF91E6
:100E6000BF91AF919F918F917F916F915F914F91C2
:100E70003F912F910F900FBE0F901F901895CF921A
:100E8000DF92EF92FF92813021F0823079F540E3DA
:100E900001C040E020E862E082E90E947B016B0132
:100EA0007C0120E030E040E05FE30E947213882381
:100EB00014F120E030E040E050E4C701B6010E94A8
:100EC0009B141816ECF026ED36E540E050E4C7011F
:100ED000B6010E94A0142EE633EA4BED50E40E94C6
:100EE0000513562F472F382F292F0EC05AE949EFE7
:100EF00039E724EC09C05AE949EF39E724EC04C08A
:100F00005AE949EF39E724EC652F742F832F922F8C
:100F1000FF90EF90DF90CF900895E0EAF4E080E258
:100F20008583818308950E94F406789441E06EE100
:100F300076E781E00E94C20A41E068E276E780E05D
:100F40000E94C20A8091182B8823E1F31092182B7B
:100F50000E94ED03F7CF0F931F93CF93DF93C82F1A
:100F6000D62F8A0160E00E94E510811112C08D2FFA
:100F70000E940A1181110DC061E08C2F0E94E510C2
:100F8000811107C00E94D810F80180830E940611C9
:100F900080E0DF91CF911F910F9108951F93CF9320
:100FA000DF93D62F142F60E00E94E510C82F88230E
:100FB00021F00E9406118C2F17C08D2F0E940A115C
:100FC000C82F882321F00E9406118C2F0DC0812F7D
:100FD0000E940A11C82F882321F00E9406118C2F2D
:100FE00003C00E94061180E0DF91CF911F91089508
:100FF000CF92DF92EF92FF921F93CF93DF9360E047
:1010000080E30E94E51085E00E940A1161E080E320
:101010000E94E5100E94C810C82F0E94D810D82F37
:101020000E9406111C2F10716C2F6F7070E080E011
:1010300090E00E94E91320E030E040E851E40E9493
:10104000A0146B017C016D2F70E080E090E00E94A5
:10105000E91320E030E040E85DE30E94A0149B012A
:10106000AC01C701B6010E940613112341F09B0198
:10107000AC0160E070E080E893E40E940513DF912A
:10108000CF911F91FF90EF90DF90CF900895EF9256
:10109000FF920F931F93CF93DF93182FF62EEA0141
:1010A000022F60E00E94E51081111EC08F2D0E946A
:1010B0000A11811119C061E0812F0E94E510811190
:1010C00013C011E009C07E018FEFE81AF80A0E94F0
:1010D000C81088831F5FE7011017A8F30E94D8107B
:1010E00088830E94061180E0DF91CF911F910F91BC
:1010F000FF90EF900895CF92DF92EF92FF920F93BF
:101100001F93CF93DF93CDB7DEB72697CDBFDEBF5A
:101110006B017A0189014AE95FE36CE176ECF90140
:101120004083518362837383F701408351836283D9
:101130007383F601408351836283738326E0AE019B
:101140004F5F5F4F61E00E944708898190E0982FD0
:1011500088272A81822BBC01772314F46D5F7F4F8F
:101160007595679575956795072E000C880B990BFB
:101170000E94EB1326E636E245E75EE30E94A014E8
:10118000F60160837183828393838B8190E0982F33
:1011900088272C81822BBC01772314F46D5F7F4F4D
:1011A0007595679575956795072E000C880B990BBB
:1011B0000E94EB1326E636E245E75EE30E94A014A8
:1011C000F70160837183828393838D8190E0982FF0
:1011D00088272E81822BBC01772314F46D5F7F4F0B
:1011E0007595679575956795072E000C880B990B7B
:1011F0000E94EB1326E636E245E75EE30E94A01468
:10120000F801608371838283938380E02696CDBF4B
:10121000DEBFDF91CF911F910F91FF90EF90DF9094
:10122000CF9008951F93CF93DF93D62F142F60E0B4
:101230000E94E510C82F882321F00E9406118C2FF0
:1012400017C08D2F0E940A11C82F882321F00E94F9
:1012500006118C2F0DC0812F0E940A11C82F8823E0
:1012600021F00E9406118C2F03C00E94061180E01D
:10127000DF91CF911F910895CF93DF931F92CDB748
:10128000DEB740E46BE28AE30E94120921E0AE017E
:101290004F5F5F4F6BE28AE30E94470808C021E07E
:1012A000AE014F5F5F4F6BE28AE30E94470889817E
:1012B00086FDF5CF40EC6FE08AE30E94120942E020
:1012C0006BE28AE30E9412094DE36AE28AE30E941C
:1012D000120989810F90DF91CF910895EF92FF92CB
:1012E0000F931F93CF93DF93CDB7DEB72E97CDBF6C
:1012F000DEBF8C0188E0E2E3F6E7DE0111960190A3
:101300000D928A95E1F7F80101900020E9F73197F5
:101310003E2F301B90E081E006C0F801E80FF11D80
:10132000208192278F5F8317C0F31F929F93CE0176
:1013300001969F938F937E0189E0E80EF11CFF9246
:10134000EF920E94251AB701C8010E94CC190F9094
:101350000F900F900F900F900F902E96CDBFDEBF85
:10136000DF91CF911F910F91FF90EF9008950F9310
:101370001F93CF93DF93CDB7DEB72897CDBFDEBFE6
:10138000082F192F88E0EAE3F6E7DE0111960190B5
:101390000D928A95E1F78091A80482FF03C082E054
:1013A00090E002C081E090E09F938F93CE01019680
:1013B0009F938F931F930F930E94251A802F912F35
:1013C0000E946E090F900F900F900F900F900F904A
:1013D0002896CDBFDEBFDF91CF911F910F91089569
:1013E000CF93DF93D62FC42F60E00E94E5108D2F9E
:1013F0000E940A118C2F0E940A110E940611DF918F
:10140000CF910895CF93E0E6F4E090E49683918342
:10141000A1E4B3E01197F1F700009583811102C0B8
:10142000C8E701C0CAE74AE260E08C2F0E94F009D9
:1014300041E760E08C2F0E94F0094CE560E48C2FBE
:101440000E94F00948E260E08C2F0E94F00948E019
:1014500060E08C2F0E94F0094AE260E08C2F0E942D
:10146000F00949E760E08C2F0E94F00945ED60E04B
:101470008C2F0E94F00940E760E08C2F0E94F00959
:1014800048E760E08C2F0E94F00948E060E08C2F74
:101490000E94F00946E060E08C2F0E94F00942E7CC
:1014A00060E08C2F0E94F00940E060E48C2F0E94E5
:1014B000F0094AE260E08C2F0E94F00949E760E001
:1014C0008C2F0E94F0094AED60E08C2F0E94F009F9
:1014D00040E060E08C2F0E94F0094CED60E08C2F22
:1014E0000E94F00940E060E08C2F0E94F00941E882
:1014F00060E08C2F0E94F0094FE760E08C2F0E9483
:10150000F00949ED60E08C2F0E94F00941EF60E0A6
:101510008C2F0E94F0094BED60E08C2F0E94F009A7
:1015200040E460E08C2F0E94F00948E760E08C2FD7
:101530000E94F00948E260E08C2F0E94F00941E02F
:1015400060E08C2F0E94F00940E860E08C2F0E9440
:10155000F0094CE060E08C2F0E94F009BAE624E02C
:1015600081E0B15020408040E1F700C010920B2A8A
:1015700010920C2A85E090E080930D2A90930E2A19
:10158000CF9108950F931F93CF93DF93CDB7DEB71D
:10159000E297CDBFDEBF142F91E1E2E4F6E7DE0172
:1015A000929601900D929A95E1F7811102C008E799
:1015B00001C00AE7CE0101960E94D719BE016E5DF7
:1015C0007F4FCE0101960E94CC19113039F440E8CA
:1015D00060E0802F0E94F00910E012C040EC60E053
:1015E000802F0E94F009F8CFE1E0F0E0EC0FFD1F42
:1015F000E10FF11D408160E4802F0E94F0091F5F20
:10160000103190F381E090E080930B2A90930C2AA4
:10161000E296CDBFDEBFDF91CF911F910F9108956C
:101620001F93CF93DF93CDB7DEB76197CDBFDEBFFA
:10163000182F81E1E2E4F6E7DE01119601900D92A8
:101640008A95E1F741E0BE016F5F7F4F812F0E94D5
:10165000C20A42E0BE016F5F7F4F812F0E94C20A23
:1016600010920B2A10920C2A6196CDBFDEBFDF913B
:10167000CF911F91089540E060E088E40E94CE077A
:10168000811105C040E06AE088E40E94CE07089519
:10169000AF92BF92CF92DF92EF92FF920F931F9380
:1016A000CF93DF931F92CDB7DEB75C017B016A0158
:1016B0008901AE014F5F5F4F69E082E40E94AB0792
:1016C00089818295869586958370813021F483E6A1
:1016D000F50180830FC0823021F48FE6F50180830D
:1016E00009C0833021F484E7F501808303C088E7D3
:1016F000F50180838981869586958370813021F4F8
:1017000083E6F60180830FC0823021F48FE6F60174
:10171000808309C0833021F484E7F601808303C00D
:1017200088E7F6018083898182958F70837081308C
:1017300021F48FE6F70180830FC0823021F483E625
:10174000F701808309C0833021F484E7F7018083A7
:1017500003C088E7F7018083898181FF04C080E3AB
:10176000F801808303C081E3F80180830F90DF914B
:10177000CF911F910F91FF90EF90DF90CF90BF908E
:10178000AF9008950F931F93CF93DF931F92CDB720
:10179000DEB7082F162FAE014F5F5F4F69E088E478
:1017A0000E94AB07811107C04981402B41236AE0A9
:1017B00088E40E94CE070F90DF91CF911F910F9187
:1017C00008958C3699F018F4823631F021C08237B2
:1017D00099F08337B9F01CC06AEE84E40E94C20B12
:1017E00066EE88E80E94C20B80E008956AEE84E409
:1017F0000E94C20B80E0089566EE88E80E94C20B4A
:1018000080E008956CEE82E20E94C20B80E00895B1
:1018100082E008958C3699F018F4823631F021C0B8
:10182000823799F08337B9F01CC06EEA84E40E94D5
:10183000C20B6EE688E80E94C20B80E008956EEA53
:1018400084E40E94C20B80E008956EE688E80E945E
:10185000C20B80E008956EEC82E20E94C20B80E031
:10186000089582E00895E0E0F4E088E0808B818BC9
:10187000828B838B848B858B868B878BE0E2F4E075
:10188000808B818B828B838B848B858BE0E4F4E06F
:10189000808B818B828B838B848B858B868B878BD4
:1018A000E0E6F4E094E0908B918B928B938B948B99
:1018B000958B968B978BE0E8F4E0808B818B828B05
:1018C000838BE0EAF4E0808B818B828B838B848B2B
:1018D000858B868B08952F923F924F925F926F92E5
:1018E0007F928F929F92AF92BF92CF92DF92EF92B0
:1018F000FF920F931F93CF93DF93CDB7DEB7C75EF1
:10190000D140CDBFDEBF9EE0E3E5F6E7DE01AE529B
:10191000BF4F01900D929A95E1F792E4E1E6F6E768
:10192000DE01A052BF4F01900D929A95E1F790E22F
:10193000E3EAF6E7DE01AE5DBE4F01900D929A95A7
:10194000E1F791E3E3ECF6E7DE01AE5BBE4F019019
:101950000D929A95E1F79DE1E4EFF6E7DE01AD58CF
:10196000BE4F01900D929A95E1F799E2E1E1F7E718
:10197000DE01A057BE4F01900D929A95E1F791E1DB
:10198000EAE3F7E7DE01A754BE4F01900D929A9566
:10199000E1F7082F10E084E3809FF001819FF00DB4
:1019A0001124ED5FF74DE1818E2F90E0FC01E254B0
:1019B000F109E533F10508F00CC3E05BFF4F0C942F
:1019C0009E18CE0182549F4F0E94D20524E3209F8F
:1019D000C001219F900D1124825D974D2091A80494
:1019E00022FF03C022E030E002C021E030E09F93FC
:1019F0008F93CE0182549F4F9F938F933F932F934A
:101A000044969F938F938E010F5F1F4F1F930F93E9
:101A10000E94251AC8010E946E09F8010190002059
:101A2000E9F73197AF01401B510BB80180E00E94EC
:101A30006611CDBFDEBF80E0CDC280E00E94AD1058
:101A4000C652DE4F6883CA5DD140C552DE4F7883EF
:101A5000CB5DD140C452DE4F8883CC5DD140C352B0
:101A6000DE4F9883CD5DD14080E00E949006C25247
:101A7000DE4F6883CE5DD140C152DE4F7883CF5DAB
:101A8000D140C052DE4F8883C05ED140CF51DE4F7F
:101A90009883C15ED14081E00E94AD10CE51DE4FEF
:101AA0006883C25ED140CD51DE4F7883C35ED140A2
:101AB000CC51DE4F8883C45ED140CB51DE4F98833A
:101AC000C55ED14081E00E949006F62EE72ED82E0A
:101AD000C92E82E00E94AD10B62EA72E982E892E18
:101AE00082E00E949006762E672E582E492E83E0C3
:101AF0000E94AD10CA51DE4F6883C65ED140C95105
:101B0000DE4F7883C75ED140382E292ECE018A560B
:101B10009F4F0E94560524E3209FC001219F900DF6
:101B20001124825D974D2091A80422FF03C022E07A
:101B300030E002C021E030E09F938F932F923F92DC
:101B4000C951DE4F9881C75ED1409F93CA51DE4F85
:101B50008881C65ED1408F934F925F926F927F9241
:101B60008F929F92AF92BF92CF92DF92EF92FF92AD
:101B7000CB51DE4F9881C55ED1409F93CC51DE4F53
:101B80008881C45ED1408F93CD51DE4F9881C35E72
:101B9000D1409F93CE51DE4F8881C25ED1408F935A
:101BA000CF51DE4F9881C15ED1409F93C052DE4F2E
:101BB0008881C05ED1408F93C152DE4F9881CF5D46
:101BC000D1409F93C252DE4F8881CE5DD1408F932A
:101BD000C352DE4F9881CD5DD1409F93C452DE4FFA
:101BE0008881CC5DD1408F93C552DE4F9881CB5D0B
:101BF000D1409F93C652DE4F8881CA5DD1408F93FA
:101C0000CE018A569F4F9F938F933F932F93865B6E
:101C10009F4F9F938F938E010F5F1F4F1F930F93C3
:101C20000E94251ACDBFDEBFC8010E946E09F801CF
:101C300001900020E9F73197AF01401B510BB8012B
:101C400080E00E94661180E0C5C19E012E523E4F89
:101C5000AE0142535E4FBE0166537E4F8AE30E943F
:101C60007B08CE018A569F4F0E94560583E393E37B
:101C7000ABEBB1E4CE52DE4F88839983AA83BB835A
:101C8000C25DD140C253DE4F88839983AA83BB8350
:101C9000CE5CD140C653DE4F88839983AA83BB8331
:101CA000CA5CD14024E3209FC001219F900D1124E4
:101CB000825D974D2091A80422FF03C032E040E0EE
:101CC00002C031E040E09F938F9321E42F939BEB80
:101CD0009F9383E38F938F932F939F938F938F93F0
:101CE0002F939F938F938F93CE018A569F4F9F93ED
:101CF0008F934F933F9384579F4F9F938F938E0162
:101D00000F5F1F4F1F930F930E94251AC8010E9457
:101D10006E09F80101900020E9F73197AF01401BEF
:101D2000510BB80180E00E946611CDBFDEBF80E09C
:101D300051C1CE018A569F4F0E9456059E012752DF
:101D40003E4FAE0148525E4FBE0169527E4FCE01FA
:101D50008A529E4F0E94480B24E3209FC001219F7E
:101D6000900D1124825D974DC752DE4F5881C95D99
:101D7000D140C852DE4F4881C85DD140C952DE4FC4
:101D80003881C75DD140CA52DE4F2881C65DD1403F
:101D90006091A80462FF03C062E070E002C061E0ED
:101DA00070E09F938F931F925F931F924F931F92A8
:101DB0003F931F922F93CE018A569F4F9F938F93ED
:101DC0007F936F9384559F4F9F938F938E010F5FE7
:101DD0001F4F1F930F930E94251AC8010E946E097E
:101DE000F80101900020E9F73197AF01401B510B3A
:101DF000B80180E00E946611CDBFDEBF80E0EAC07E
:101E0000CE018A569F4F0E94560524E1AE014655E9
:101E10005F4F60E070E080EA0E941C06CE018254B1
:101E20009F4F0E94D20524E3209FC001219F900D67
:101E30001124825D974D2091A80422FF03C022E067
:101E400030E002C021E030E09F938F93CE018254B6
:101E50009F4F9F938F9344979F938F9344979F9304
:101E60008F933F932F9383529F4F9F938F938E0116
:101E70000F5F1F4F1F930F930E94251AC8010E94E6
:101E80006E09F80101900020E9F73197AF01401B7E
:101E9000510BB80180E00E946611CDBFDEBF80E02B
:101EA00099C081E00E943F07F62EE72ED82EC92E5A
:101EB00082E00E943F07B62EA72E982E892ECE01D3
:101EC0008A569F4F0E94560524E3209FC001219F00
:101ED000900D1124825D974D2091A80422FF03C02C
:101EE00022E030E002C021E030E09F938F938F9298
:101EF0009F92AF92BF92CF92DF92EF92FF92CE016C
:101F00008A569F4F9F938F933F932F9386509F4F57
:101F10009F938F938E010F5F1F4F1F930F930E940C
:101F2000251AC8010E946E09F80101900020E9F706
:101F30003197AF01401B510BB80180E00E94661140
:101F4000CDBFDEBF80E046C0CE0185579F4F0E94C7
:101F5000D905CE018A569F4F0E94560524E3209F43
:101F6000C001219F900D1124825D974D2091A804FE
:101F700022FF03C022E030E002C021E030E09F9366
:101F80008F93CE0185579F4F9F938F930B969F936F
:101F90008F933F932F938D5D9E4F9F938F938E01D1
:101FA0000F5F1F4F1F930F930E94251AC8010E94B5
:101FB0006E09F80101900020E9F73197AF01401B4D
:101FC000510BB80180E00E946611CDBFDEBF80E0FA
:101FD00001C082E0C951DE4FCDBFDEBFDF91CF919E
:101FE0001F910F91FF90EF90DF90CF90BF90AF9037
:101FF0009F908F907F906F905F904F903F902F9029
:102000000895AC01E0E6F0E0948D9E7F88ED84BFFA
:10201000948F01C000009091630096FDFBCFE0E635
:10202000F0E0948D9B7F28ED24BF948F948D916078
:1020300024BF948F01C00000909141019111FBCF0A
:10204000E0E4F1E04287538782E087838581816005
:10205000858381EB808382818160828308951F92D2
:102060000F920FB60F9211242F933F934F935F93CC
:102070006F937F938F939F93AF93BF93EF93FF9350
:1020800081E08093430180910B2A90910C2A009764
:10209000B9F020910D2A30910E2A2817390758F4EB
:1020A00080E00E94100B81E00E94100B10920B2A1E
:1020B00010920C2A05C0019680930B2A90930C2A4B
:1020C00080E28093A704FF91EF91BF91AF919F9120
:1020D0008F917F916F915F914F913F912F910F90D1
:1020E0000FBE0F901F901895CF93DF9390E024E3DD
:1020F000289FF001299FF00D1124ED5FF74D2181FC
:102100002437E9F424E3289FE001299FD00D11240E
:10211000CB5FD74DFE0101900020E9F73197EC1B12
:10212000FD0B739771F4CE010E94BA0524E1AE0154
:1021300060E070E080EA0E945E0680E003C082E01A
:1021400001C082E0DF91CF910895E0EAF4E0828956
:10215000877F828B84E082830895833018F08330F8
:1021600021F006C00E94250108950E94F8070895F5
:102170006AE979EF89E794EC0895E0EAF8E08BE00A
:1021800086838381816083838581816085830895CF
:1021900001C000008091A5088823DCF7E0EAF8E0A0
:1021A00084818B7F84838085948192609483089559
:1021B00001C000008091A5088823DCF7E0EAF8E080
:1021C00084818460848380850895613011F4816006
:1021D00001C08E7F8093A70801C000008091A508F0
:1021E000807CD9F38091A50882FD0CC08091A50860
:1021F00083FD0AC09091A508892F807194FF05C0C6
:1022000084E0089581E0089582E0089587E0809356
:10221000A408089501C000009091A50896FFFBCF87
:102220008093A80801C000008091A50886FFFBCF1D
:102230009091A508892F807194FD83E00895E0E0D6
:10224000F4E081E085838183E0E0F8E02DE635E08D
:1022500020873187958190689583968190649683D5
:102260009681906896831092992B10929A2B809366
:102270009D2B1092142B1092152B1092942A1092D1
:10228000182BE0E4F4E085838183E0E2F8E0208726
:102290003187968190649683968190689683809327
:1022A0002C2D1092932AE0E2F4E085838183E0E60E
:1022B000F8E02087318796819064968396819068B4
:1022C00096838093A72C1092222C0895FB018130D5
:1022D00009F440C0E8F0833009F45EC008958091AD
:1022E000992B90E0BF016F5F7F4F3081FC01E75E6B
:1022F000F44D308301968F779078992324F40197D9
:1023000080689F6F01968093992B2F5FFB0101C01E
:1023100020E0241720F3E0E0F8E0858180628583E7
:1023200008958091282D90E0BF016F5F7F4F30812D
:10233000FC01E855F34D308301968F77907899230F
:1023400024F4019780689F6F01968093282D2F5F5A
:10235000FB0101C020E0241720F3E0E2F8E08581D2
:102360008062858308958091A32C90E0BF016F5F08
:102370007F4F3081FC01ED5DF34D308301968F7707
:102380009078992324F4019780689F6F0196809339
:10239000A32C2F5FFB0101C020E0241720F3E0E60F
:1023A000F8E085818062858308951F920F920FB6B1
:1023B0000F9211248F939F93EF93FF9380910008C6
:1023C0008D3051F481E08093182BE091142BF0E0D4
:1023D000EC56F54D108206C0E091142BF0E0EC565F
:1023E000F54D80838091142B90E001968F77907843
:1023F000992324F4019780689F6F01968093142B92
:10240000FF91EF919F918F910F900FBE0F901F90B2
:1024100018951F920F920FB60F9211248F939F93CE
:10242000EF93FF93E0E0F8E085818F7D85838091D5
:10243000992BE0919A2B8E1781F081E08E0FF0E0BE
:10244000E75EF44D9081E0E0F8E092838F7780932F
:102450009A2B85818062858303C081E080939D2BC8
:10246000FF91EF919F918F910F900FBE0F901F9052
:1024700018951F920F920FB60F9211248F939F936E
:10248000AF93BF93EF93FF93809120088D3021F09D
:10249000E091922AEF3778F081E08093932AA2E9C5
:1024A000BAE28C91E82FF0E0E15FF54D1082809365
:1024B000912A1C9208C091E09E0F9093922AF0E01E
:1024C000E15FF54D8083FF91EF91BF91AF919F91B7
:1024D0008F910F900FBE0F901F9018951F920F9223
:1024E0000FB60F9211248F939F93AF93BF93EF93E7
:1024F000FF93ABE2BDE2EC9181E08E0F8C93F0E0B4
:10250000E855F34D90819093220890912A2D8917D8
:1025100040F0E0E2F8E085818F7D858381E0809363
:102520002C2DFF91EF91BF91AF919F918F910F90C3
:102530000FBE0F901F9018951F920F920FB60F921B
:1025400011248F939F93AF93BF93EF93FF93809149
:1025500060088D3021F0E091212CEF3778F081E098
:102560008093222CA1E2BCE28C91E82FF0E0E256AD
:10257000F44D10828093202C1C9208C091E09E0F95
:102580009093212CF0E0E256F44D8083FF91EF917F
:10259000BF91AF919F918F910F900FBE0F901F90A1
:1025A00018951F920F920FB60F9211248F939F933D
:1025B000AF93BF93EF93FF93A6EABCE2EC9181E067
:1025C0008E0F8C93F0E0ED5DF34D90819093620857
:1025D0009091A52C891740F0E0E6F8E085818F7D89
:1025E000858381E08093A72CFF91EF91BF91AF91FC
:1025F0009F918F910F900FBE0F901F90189588EDAF
:1026000084BF81E08093000108955058BB27AA271A
:102610000E941D130C9461140E94531438F00E9400
:102620005A1420F039F49F3F19F426F40C945014F6
:102630000EF4E095E7FB0C944A14E92F0E94721403
:1026400058F3BA17620773078407950720F079F4E7
:10265000A6F50C9494140EF4E0950B2EBA2FA02D31
:102660000B01B90190010C01CA01A0011124FF273F
:10267000591B99F0593F50F4503E68F11A16F0403A
:10268000A22F232F342F4427585FF3CF4695379539
:102690002795A795F0405395C9F77EF41F16BA0BFE
:1026A000620B730B840BBAF09150A1F0FF0FBB1FAC
:1026B000661F771F881FC2F70EC0BA0F621F731FF5
:1026C000841F48F4879577956795B795F7959E3F52
:1026D00008F0B0CF9395880F08F09927EE0F9795E3
:1026E000879508950E94261408F481E008950E94B9
:1026F0008B130C9461140E945A1458F00E945314C6
:1027000040F029F45F3F29F00C944A1451110C94C5
:1027100095140C9450140E94721468F39923B1F329
:10272000552391F3951B550BBB27AA2762177307F7
:10273000840738F09F5F5F4F220F331F441FAA1F8B
:10274000A9F335D00E2E3AF0E0E832D09150504047
:10275000E695001CCAF72BD0FE2F29D0660F771FF5
:10276000881FBB1F261737074807AB07B0E809F0DB
:10277000BB0B802DBF01FF2793585F4F3AF09E3F60
:10278000510578F00C944A140C9495145F3FE4F3CF
:10279000983ED4F3869577956795B795F7959F5FA3
:1027A000C9F7880F911D9695879597F90895E1E0EF
:1027B000660F771F881FBB1F621773078407BA074E
:1027C00020F0621B730B840BBA0BEE1F88F7E095A9
:1027D0000895E89409C097FB3EF490958095709514
:1027E00061957F4F8F4F9F4F9923A9F0F92F96E95D
:1027F000BB279395F695879577956795B795F111D2
:10280000F8CFFAF4BB0F11F460FF1BC06F5F7F4F6E
:102810008F4F9F4F16C0882311F096E911C0772380
:1028200021F09EE8872F762F05C0662371F096E889
:10283000862F70E060E02AF09A95660F771F881F58
:10284000DAF7880F9695879597F90895990F0008FC
:10285000550FAA0BE0E8FEEF16161706E807F90772
:10286000C0F012161306E407F50798F0621B730B0D
:10287000840B950B39F40A2661F0232B242B252B8E
:1028800021F408950A2609F4A140A6958FEF811D31
:10289000811D089597F99F6780E870E060E00895D2
:1028A0009FEF80EC089500240A9416161706180668
:1028B0000906089500240A94121613061406050644
:1028C0000895092E0394000C11F4882352F0BB0FD5
:1028D00040F4BF2B11F460FF04C06F5F7F4F8F4F38
:1028E0009F4F089557FD9058440F551F59F05F3F73
:1028F00071F04795880F97FB991F61F09F3F79F022
:1029000087950895121613061406551FF2CF4695A3
:10291000F1DF08C0161617061806991FF1CF869525
:102920007105610508940895E894BB276627772709
:10293000CB0197F908950E94261408F48FEF0895AB
:102940000E94B3140C9461140E94531438F00E9436
:102950005A1420F0952311F00C944A140C9450143E
:1029600011240C9495140E94721470F3959FC1F376
:10297000950F50E0551F629FF001729FBB27F00D2D
:10298000B11D639FAA27F00DB11DAA1F649F662782
:10299000B00DA11D661F829F2227B00DA11D621FD1
:1029A000739FB00DA11D621F839FA00D611D221F8B
:1029B000749F3327A00D611D231F849F600D211D6F
:1029C000822F762F6A2F11249F5750409AF0F1F0F2
:1029D00088234AF0EE0FFF1FBB1F661F771F881F5B
:1029E00091505040A9F79E3F510580F00C944A1435
:1029F0000C9495145F3FE4F3983ED4F38695779555
:102A00006795B795F795E7959F5FC1F7FE2B880F00
:102A1000911D9695879597F90895A0E1B0E0E3E1BF
:102A2000F5E10C94A4187C011B016A01FC011682DB
:102A30001782838181FF44C39E012F5F3F4F39017D
:102A4000F7019381F10193FD859193FF81911F011E
:102A5000882309F431C3853239F493FD859193FFBE
:102A600081911F01853239F4B70190E00E94E91984
:102A700056016501E5CF10E0512C912CFFE1F915CD
:102A8000D8F08B3279F038F4803279F08332A1F4C7
:102A9000F92DF0612EC08D3261F0803369F4292D5B
:102AA00021602DC0392D3260932E892D8460982E9F
:102AB0002AC0E92DE86015C097FC2DC020ED280F35
:102AC0002A3088F496FE06C03AE0139F200D1124A8
:102AD000122F19C08AE0589E200D1124522EE92D84
:102AE000E0629E2E10C08E3231F496FCE5C2F92DC4
:102AF000F0649F2E08C08C3621F4292D2068922E78
:102B000002C0883641F4F10193FD859193FF8191D4
:102B10001F018111B3CF9BEB980F933020F4992DB7
:102B20009061805E07C09BE9980F933008F066C102
:102B3000992D9F7E96FF16E09F73992E853619F486
:102B40009064992E08C0863621F4392F3068932E70
:102B500002C01111115097FE07C01C3350F44424D9
:102B60004394410E27E00BC0183038F027E017E0FF
:102B700005C027E09CE3492E02C0212F412C5601BD
:102B800084E0A80EB11CF60160817181828193817D
:102B9000042DA3010E94E9186C01F981FC87F0FF64
:102BA00002C0F3FF06C091FC06C092FE06C000E220
:102BB00005C00DE203C00BE201C000E08C858C7003
:102BC00019F001115AC29BC297FE10C04C0CFC8533
:102BD000F4FF04C08A81813309F44A94141474F513
:102BE00028E0241578F588E0482E2CC096FC2AC0F1
:102BF000812F90E08C159D059CF03CEFC3163FEFB4
:102C0000D30674F0892D8068982E0AC0E2E0F0E0C7
:102C1000EC0FFD1FE10FF11D8081803319F411507D
:102C20001111F4CF97FE0EC044244394410E812F1E
:102C300090E0C816D9062CF41C1904C0442443940F
:102C400001C010E097FE06C01C141D0434F4C60138
:102C5000019605C085E090E002C081E090E001119E
:102C60000196112331F0212F30E02F5F3F4F820F6B
:102C7000931F252D30E08217930714F4581A01C0D2
:102C8000512C892D897049F4552039F0B70180E223
:102C900090E00E94E9195A94F7CF002329F0B70178
:102CA000802F90E00E94E91993FC09C0552039F06B
:102CB000B70180E390E00E94E9195A94F7CF97FE9C
:102CC0004CC04601D7FE02C0812C912CC601881948
:102CD0009909F301E80FF91FED87FE879601241982
:102CE00031092F87388B012F10E0119501951109BB
:102CF0003FEF8316930629F4B7018EE290E00E941D
:102D0000E919C814D9044CF08F859889881599055C
:102D100024F4ED85FE85818101C080E3F1E08F1A06
:102D200091082D853E852F5F3F4F2D873E8780166A
:102D300091062CF0B70190E00E94E919D9CFC81490
:102D4000D90441F49A81963320F4953319F43C85E3
:102D500034FF81E3B70190E04EC08A81813319F0DE
:102D60009C859F7E9C87B70190E00E94E919111114
:102D700005C094FC18C085E690E017C0B7018EE24C
:102D800090E00E94E9191E5F82E001E0080FF30164
:102D9000E80FF11D8081B70190E00E94E919802FB2
:102DA0000113F3CFE6CF85E490E0B7010E94E91963
:102DB000D7FC06C0C114D10441F4EC85E4FF05C082
:102DC000D194C194D1088DE201C08BE2B70190E0AB
:102DD0000E94E91980E32AE0C216D1042CF08F5F2B
:102DE000FAE0CF1AD108F7CFB70190E00E94E919B5
:102DF000B701C601C0960E94E91954C1833631F06B
:102E0000833779F0833509F056C020C0560132E08F
:102E1000A30EB11CF6018081898301E010E06301FB
:102E200012C05601F2E0AF0EB11CF601C080D18095
:102E300096FE03C0612F70E002C06FEF7FEFC60106
:102E40000E94DE198C01F92DFF7714C0560122E093
:102E5000A20EB11CF601C080D18096FE03C0612F86
:102E600070E002C06FEF7FEFC6010E94C1198C01B4
:102E7000F92DF0689F2EF3FD1AC0852D90E00817FC
:102E80001907A8F4B70180E290E00E94E9195A946A
:102E9000F4CFF60197FC859197FE81916F01B70100
:102EA00090E00E94E91951105A940150110901153E
:102EB000110579F7F7C0843611F0893661F55601AE
:102EC00097FE09C024E0A20EB11CF6016081718159
:102ED000828193810AC0F2E0AF0EB11CF6016081DD
:102EE0007181072E000C880B990BF92DFF769F2E10
:102EF00097FF09C090958095709561957F4F8F4F92
:102F00009F4FF0689F2E2AE030E0A3010E94471AED
:102F1000C82EC6183FC0092D853721F40F7E2AE040
:102F200030E01DC0097F8F3691F018F4883559F0D4
:102F3000C3C0803719F0883711F0BEC0006104FFAC
:102F400009C0046007C094FE08C0066006C028E0FF
:102F500030E005C020E130E002C020E132E056015F
:102F600007FF09C084E0A80EB11CF60160817181E1
:102F70008281938108C0F2E0AF0EB11CF60160813E
:102F8000718180E090E0A3010E94471AC82EC61804
:102F90000F77902E96FE0BC0092D0E7FC11650F4B0
:102FA00094FE0AC092FC08C0092D0E7E05C0DC2CE0
:102FB000092D03C0DC2C01C0D12E04FF0DC0FE0181
:102FC000EC0DF11D8081803311F4097E09C002FFF0
:102FD00006C0D394D39404C0802F867809F0D3948C
:102FE00003FD11C000FF06C01C2DD51480F4150D83
:102FF0001D190DC0D51458F4B70180E290E00E946D
:10300000E919D394F7CFD51410F45D1801C0512CF1
:1030100004FF10C0B70180E390E00E94E91902FFAD
:1030200017C001FD03C088E790E002C088E590E08A
:10303000B7010CC0802F867859F001FF02C08BE2E7
:1030400001C080E207FD8DE2B70190E00E94E9191E
:10305000C11638F4B70180E390E00E94E9191150DD
:10306000F7CFCA94F301EC0DF11D8081B70190E018
:103070000E94E919C110F5CF15C0F4E0F51560F50F
:1030800084E0581A93FE1FC0011127C02C8523FF2E
:103090002AC00AE011E0392D3071932EF801849195
:1030A000811124C0552009F4E4CCB70180E290E0FE
:1030B0000E94E9195A94F6CFF7018681978126C0BC
:1030C0008FEF9FEF23C0B70180E290E00E94E919E3
:1030D0005A945110F8CFD8CF512CB701802F90E0DF
:1030E0000E94E919D3CF0EE011E0D5CF91108052A4
:1030F000B70190E00E94E9190F5F1F4FCFCF23E087
:10310000251510F483E0BDCF512CC0CF6096E2E1CD
:103110000C94BD1897FB072E16F4009407D077FD8A
:1031200009D00E94D51807FC05D03EF490958195F2
:103130009F4F0895709561957F4F0895EE0FFF1F83
:103140000590F491E02D09942F923F924F925F9257
:103150006F927F928F929F92AF92BF92CF92DF92A7
:10316000EF92FF920F931F93CF93DF93CDB7DEB70C
:10317000CA1BDB0BCDBFDEBF09942A88398848887B
:103180005F846E847D848C849B84AA84B984C88483
:10319000DF80EE80FD800C811B81AA81B981CE0F7A
:1031A000D11DCDBFDEBFED010895AA1BBB1B51E1B0
:1031B00007C0AA1FBB1FA617B70710F0A61BB70BA7
:1031C000881F991F5A95A9F780959095BC01CD014C
:1031D0000895283008F027E03327DA01990F311DD0
:1031E00087FD916000966105710539F432602E5FAC
:1031F0003D9330E32A95E1F708959F3F30F0803802
:103200007105610509F03C5F3C5F3D93913008F02A
:103210008068911DDF93CF931F930F93FF92EF92DE
:10322000192F987F9695E92F96959695E90FFF2788
:10323000E459FE4F99273327EE24FF24A701E70125
:1032400005900894079428F4360FE71EF81E491FCE
:10325000511D660F771F881F991F0694A1F70590CF
:10326000079428F4E70EF81E491F561FC11D770F5B
:10327000881F991F661F0694A1F70590079428F4EC
:10328000F80E491F561FC71FD11D880F991F661FB3
:10329000771F0694A1F70590079420F4490F561F55
:1032A000C71FD81F990F661F771F881F0694A9F79D
:1032B00084911095177041F0D695C795579547950D
:1032C000F794E7941A95C1F7E2E1F1E0689415905C
:1032D000159135916591959105907FE27395E1186F
:1032E000F10A430B560BC90BD009C0F7E10CF11ED4
:1032F000431F561FC91FD01D7EF4703311F48A95E9
:10330000E6CFE894015030F0080F0AF400270217C6
:1033100008F4202F2395022F7A3328F079E37D9348
:103320002A95E9F710C07D932A9589F6069497951A
:103330006795379517951794E118F10A430B560BCB
:10334000C90BD00998F023957E9173957A3308F0D4
:1033500070E37C932013B8F77E9170617D9330F019
:10336000839571E37D9370E32A95E1F71124EF9043
:10337000FF900F911F91CF91DF91992787FD909535
:103380000895FC010590615070400110D8F78095B8
:1033900090958E0F9F1F0895FB01DC010D9000207A
:1033A000E9F7119701900D920020E1F70895FB01D4
:1033B000DC0101900D920020E1F70895FC016150BD
:1033C000704001900110D8F7809590958E0F9F1F47
:1033D00008950F931F93CF93DF93FB01238121FD6A
:1033E00003C08FEF9FEF2CC022FF16C0468157818C
:1033F000248135814217530744F4A081B1819D0196
:103400002F5F3F4F208331838C93268137812F5F3D
:103410003F4F2683378314C08B01EC01FB010084EE
:10342000F185E02D0995892BE1F6D80116968D914D
:103430009C911797019616968D939C931797CE01A2
:10344000DF91CF911F910F910895AEE0B0E0EBE2D4
:10345000FAE10C94B2180D891E8986E08C830983E9
:103460001A838FEF9FE78D839E83AE01475E5F4F88
:103470006F89788DCE0101960E940D15EF81F88538
:10348000E00FF11F10822E96E4E00C94CB18FA01A5
:10349000AA27283051F1203181F1E8946F936E7F93
:1034A0006E5F7F4F8F4F9F4FAF4FB1E03ED0B4E084
:1034B0003CD0670F781F891F9A1FA11D680F791FC5
:1034C0008A1F911DA11D6A0F711D811D911DA11DD6
:1034D00020D009F468943F912AE0269F11243019E6
:1034E000305D3193DEF6CF010895462F4770405D81
:1034F0004193B3E00FD0C9F7F6CF462F4F70405D30
:103500004A3318F0495D31FD4052419302D0A9F78A
:10351000EACFB4E0A6959795879577956795BA9584
:10352000C9F700976105710508959B01AC010A2E4A
:1035300006945795479537952795BA95C9F7620F21
:10354000731F841F951FA01D089560507C4E0C941E
:10355000E01ADC01A40FB51F4150504048F0CB01E8
:10356000840F951F2E910E94BA1A41505040D0F7F7
:103570000895262F0E94DC1A0080021619F00E947E
:10358000C51A019701970895262FAF93BF93E0E0E6
:10359000F0E1328131FDFDCFDC01A050BC4E2C9317
:1035A0002DE924BF23E020830196BF91AF910895B8
:1035B00003D0808199270895FC01E050FC4E0895C6
:1035C000FB01DC0102C001900D9241505040D8F740
:0635D0000895F894FFCFFE
:1035D60024532564434D442C257300323025303264
:1035E600782D253032782D253032785425303278B2
:1035F6003A253032783A2530327800445333323324
:10360600312072656164206572726F7200323032E9
:10361600312D30322D30370068693120746865727B
:103626006500686930207468657265002A25303245
:10363600580D0A00245325644552520020202020AC
:103646002020202020202020202020200024532558
:103656006442544D2C25732C257300245325644550
:103666004E562C25732C25332E3166432C25312EB0
:10367600306625252C25332E3166432C25312E30F8
:103686006625252C25332E3166432C25312E3066B2
:1036960025252C25332E3166432C257300245325EE
:1036A600644F52492C25732C25332E31662C253335
:1036B6002E31662C25332E31662C25730024532596
:1036C60064504E552C25732C25632C7368757474C1
:1036D60065722C25632C6C6566742C25632C7269C7
:1036E6006768742C25632C6169722C25730024533A
:1036F600256454494D2C25732C25732C7365742C25
:1037060025732C626F6F742C257300245325645621
:1037160041432C25732C25352E32662C7265647632
:1037260061632C25352E32662C626C756576616375
:103736002C257300245325645645522C25732C25BD
:05374600732C25730047
:02374B0001007B
:00000001FF
