:100000000C94D1000C94EE000C94EE000C94EE00D5
:100010000C94EE000C94EE000C94EE000C94EE00A8
:100020000C94EE000C94EE000C94EE000C94EE0098
:100030000C94EE000C94EE000C94EE000C94EE0088
:100040000C94EE000C9486050C94BA050C94EE000A
:100050000C94EE000C94EE000C94EE000C94EE0068
:100060000C94EE000C94EE000C94EA050C941F0620
:100070000C94EE000C94EE000C94EE000C94EE0048
:100080000C94EE000C94EE000C94EE000C94EE0038
:100090000C94EE000C944D060C9482060C94EE0029
:1000A0006E616E00696E660000407A10F35A00A01F
:1000B000724E18090010A5D4E80000E87648170031
:1000C00000E40B54020000CA9A3B000000E1F50571
:1000D000000080969800000040420F000000A086BB
:1000E00001000000102700000000E80300000000ED
:1000F0006400000000000A00000000000100000091
:1001000000002C76D888DC674F0823DFC1DFAE59AA
:10011000E1B1B796E5E3E453C63AE651997696E83D
:10012000E6C28426EB898C9B62ED407C6FFCEFBCC1
:100130009C9F40F2BAA56FA5F490055A2AF75C93EC
:100140006B6CF9676DC11BFCE0E40D47FEF520E622
:10015000B500D0ED902E0300943577050080841E05
:10016000080000204E0A000000C80C333333330F60
:10017000986E12831141EF8D2114893BE65516CFFD
:10018000FEE6DB18D1844B381BF77C1D901DA4BB09
:10019000E424203284725E228100C9F124ECA1E5BE
:1001A0003D2711241FBECFEFCDBFDFE3DEBF18E236
:1001B000A0E0B8E2E8EEFEE202C005900D92A230A7
:1001C000B107D9F72DE2A2E0B8E201C01D92A93231
:1001D000B207E1F70E94F10E0C94EA160C940000AD
:1001E000E0E0F4E088E0808B818B828B838B848BD2
:1001F000858B868B878BE0E2F4E0808B818B828B12
:10020000838B848B858BE0E4F4E0808B818B828B05
:10021000838B848B858B868B878BE0E6F4E094E080
:10022000908B918B928B938B948B958B968B978BDA
:10023000E0E8F4E0808B818B828B838BE0EAF4E052
:10024000808B818B828B838B848B858B868B0895AF
:10025000E0EAF4E080E2858381830895E0EAF4E057
:100260008289877F828B84E0828308958091A804AD
:1002700082FF02C082E001C080E09091A80492FF5A
:1002800081E00895E0EAF8E08BE086838381816075
:10029000838385818160858308958091A508882363
:1002A00034F0E0EAF8E0000085818823E4F7E0EA32
:1002B000F8E084818B7F848380859481926094832D
:1002C00008958091A508882334F0E0EAF8E0000062
:1002D00085818823E4F7E0EAF8E084818460848300
:1002E00080850895613011F4816001C08E7FE0EA5D
:1002F000F8E087838581807C21F400008581807C03
:10030000E1F38091A50882FD0BC08091A50883FDD3
:1003100009C09091A508892F807194FD05C00895AA
:1003200081E0089582E0089584E008959091A50801
:1003300096FD06C0E0EAF8E00000958196FFFCCF4C
:10034000E0EAF8E08087858186FD04C000008581B1
:1003500086FFFCCF9091A508892F807194FD83E0E2
:1003600008950F931F93CF93DF93C82FD62F8A0141
:1003700060E00E947201811115C08D2F0E949601CC
:10038000811110C061E08C2F0E947201C82F811171
:1003900009C00E946101F801808387E08093A4086E
:1003A0008C2F00C0DF91CF911F910F910895CF93B3
:1003B000DF93C62FD42F60E00E947201882321F0C2
:1003C00097E09093A40816C08C2F0E949601882372
:1003D00021F097E09093A4080DC08D2F0E94960104
:1003E000882321F097E09093A40804C087E08093CD
:1003F000A40880E0DF91CF91089540E060E088E4B8
:100400000E94D701811105C040E06AE088E40E94A3
:10041000D70108950F931F93CF93DF931F92CDB70A
:10042000DEB7082F162FAE014F5F5F4F69E088E4FB
:100430000E94B101811107C04981402B41236AE02C
:1004400088E40E94D7010F90DF91CF911F910F9107
:1004500008958C3699F018F4823631F021C0823735
:1004600099F08337B9F01CC06AEE84E40E940A0256
:1004700066EE88E80E940A0280E008956AEE84E44D
:100480000E940A0280E0089566EE88E80E940A024F
:1004900080E008956CEE82E20E940A0280E00895F6
:1004A00082E008958C3699F018F4823631F021C03C
:1004B000823799F08337B9F01CC06EEA84E40E9459
:1004C0000A026EE688E80E940A0280E008956EEA59
:1004D00084E40E940A0280E008956EE688E80E94A3
:1004E0000A0280E008956EEC82E20E940A0280E037
:1004F000089582E00895CF92DF92EF92FF920F93DA
:100500001F93CF93DF93C82F162FD42F022F60E0B5
:100510000E947201882371F097E09093A408682FDD
:1005200070E080E090E00E94F00F562F472F382FA8
:10053000292FCBC081E00E949601882371F097E0BB
:100540009093A408682F70E080E090E00E94F00F84
:10055000562F472F382F292FB8C08D2F8168812B18
:100560000E949601882371F097E09093A408682F69
:1005700070E080E090E00E94F00F562F472F382F58
:10058000292FA3C0802F0E949601882371F097E045
:100590009093A408682F70E080E090E00E94F00F34
:1005A000562F472F382F292F90C087E08093A4081B
:1005B0008CE18A95F1F761E08C2F0E9472010E9414
:1005C00061018823C4F70F2EF0EAEF2EF8E0FF2E2A
:1005D000F02DD7E0F701D48360E08C2F0E947201E8
:1005E00080E00E94960161E08C2F0E9472010E94BF
:1005F0004D01C82F0E946101F701D4836C2F70E078
:10060000762F6627682B143019F128F41123B1F1E5
:10061000123049F13EC0183029F01A30F1F116308D
:10062000C1F50BC00F2EF1E7CF2EF3E1DF2EF3E87B
:10063000EF2EF7E3FF2EF02D3AC00F2EF4E7CF2E6A
:10064000F3E1DF2EF3E0EF2EF8E3FF2EF02D2FC0C5
:100650000F2EF2E1CF2EF3E1DF2EF3E8EF2EF8E3D9
:10066000FF2EF02D24C00F2EF4E7CF2EF3E1DF2E66
:10067000F3E0EF2EF9E3FF2EF02D19C00F2EFEE26E
:10068000CF2EFDE9DF2EF4E4EF2EF9E3FF2EF02D5F
:100690000EC0C12CD12C76010AC00F2EF4E7CF2E4C
:1006A000F3E1DF2EF3E0EF2EF7E3FF2EF02D072E20
:1006B000000C880B990B0E94F20FA70196010E9473
:1006C000A710562F472F382F292F652F742F832FD0
:1006D000922FDF91CF911F910F91FF90EF90DF90BC
:1006E000CF900895CF92DF92EF92FF92CF93813017
:1006F00021F090F0823031F00AC0C12CD12C76016B
:10070000C4E014C0C12CD12C7601C0E10FC0C12CB3
:10071000D12C7601C0E00AC00F2EF3E3CF2EDC2CE3
:10072000F3EFEF2EF0E4FF2EF02DC1E040E066E0A5
:100730008EE40E94D7014C2F409560E08EE40E9429
:10074000D7014C2F6AE08EE40E94D70186E18A959A
:10075000F1F7000020E840E768E080E90E947B02B2
:1007600020E030E04AE754E40E94A71023E333E995
:1007700048E853E40E940C0FA70196010E940D0F58
:10078000CF91FF90EF90DF90CF900895CF92DF92BE
:10079000EF92FF92CF93DF9360E080E30E947201BB
:1007A00085E00E94960161E080E30E9472010E9450
:1007B0004D01D82F0E946101C82F87E08093A408C3
:1007C0006D2F6F7070E080E090E00E94F00F20E0ED
:1007D00030E040E851E40E94A7106B017C016C2FCF
:1007E00070E080E090E00E94F00F20E030E040E810
:1007F0005DE30E94A7109B01AC01C701B6010E94F6
:100800000D0FD4FF08C09B01AC0160E070E080E8F0
:1008100093E40E940C0FDF91CF91FF90EF90DF9057
:10082000CF9008958F929F92AF92BF92CF92DF9216
:10083000EF92FF92813059F018F0823079F015C0B4
:1008400080E00E9472034B015C0140E417C081E02C
:100850000E9472034B015C0140E510C082E00E94DF
:1008600072034B015C0140E609C00F2E812C912CD4
:10087000F0EAAF2EF1E4BF2EF02D40E520E860E075
:1008800080E90E947B0220E030E040EA50E40E94D0
:100890007E0F2AE037ED43E25EE30E940C0F2FE566
:1008A00039E24BEC5BE30E947E0F6B017C0129EC8B
:1008B0003EE84DE05BE3C501B4010E94A7109B0137
:1008C000AC0162E27DEF86E89FE30E940C0F9B0182
:1008D000AC01C701B6010E947E0FFF90EF90DF9040
:1008E000CF90BF90AF909F908F900895CF92DF925E
:1008F000EF92FF92813021F0823079F540E301C020
:1009000040E020E862E082E90E947B026B017C010A
:1009100020E030E040E05FE30E94790F882314F18B
:1009200020E030E040E050E4C701B6010E94A21090
:100930001816ECF026ED36E540E050E4C701B601AC
:100940000E94A7102EE633EA4BED50E40E940C0FF4
:10095000562F472F382F292F0EC05AE949EF39E774
:1009600024EC09C05AE949EF39E724EC04C05AE9FC
:1009700049EF39E724EC652F742F832F922FFF90D6
:10098000EF90DF90CF900895E0E0F4E081E0858380
:100990008183E0E0F8E02DE635E02087318795811E
:1009A00090689583968190649683968190689683EB
:1009B0001092952B1092962B8093992B1092102BBE
:1009C0001092112B1092902A1092142BE0E4F4E074
:1009D00085838183E0E2F8E0208731879681906407
:1009E00096839681906896838093282D10928F2A03
:1009F000E0E2F4E085838183E0E6F8E02087318758
:100A00009681906496839681906896838093A32CB8
:100A100010921E2C0895CF93DF93813039F048F067
:100A2000833009F070C041114CC068C0411126C02C
:100A300042C04423E9F0FB01415050E04F5F5F4F5B
:100A4000640F751FA5E9BBE28C9190E02191EC0148
:100A5000CB5ED44D288301968F779078992324F428
:100A6000019780689F6F01968C936E177F0761F7DF
:100A7000E0E0F8E085818062858345C0FB0141505C
:100A800050E04F5F5F4F640F751FA4E2BDE28C9191
:100A900090E02191EC01CC55D34D288301968F77BE
:100AA0009078992324F4019780689F6F01968C9326
:100AB0006E177F0761F7E0E2F8E085818062858349
:100AC00022C0FB01415050E04F5F5F4F640F751F24
:100AD000AFE9BCE28C9190E02191EC01C15ED34D75
:100AE000288301968F779078992324F40197806862
:100AF0009F6F01968C936E177F0761F7E0E6F8E031
:100B0000858180628583DF91CF9108951F920F9236
:100B10000FB60F9211248F939F93EF93FF938091C1
:100B200000088D3051F481E08093142BE091102B5C
:100B3000F0E0E057F54D108206C0E091102BF0E098
:100B4000E057F54D8083E0E1FBE2808190E0019683
:100B50008F779078992324F4019780689F6F01968E
:100B60008083FF91EF919F918F910F900FBE0F9017
:100B70001F9018951F920F920FB60F9211248F930A
:100B80009F93EF93FF93E0E0F8E085818F7D85836D
:100B9000E091962B8091952B8E1781F081E08E0F3E
:100BA000F0E0EB5EF44D9081E0E0F8E092838F7727
:100BB0008093962B85818062858303C081E080933A
:100BC000992BFF91EF919F918F910F900FBE0F90F6
:100BD0001F9018951F920F920FB60F9211248F93AA
:100BE0009F93AF93BF93EF93FF93809120088D3035
:100BF00021F0E0918E2AEF3778F081E080938F2A00
:100C0000AEE8BAE28C91E82FF0E0E55FF54D108296
:100C100080938D2A1C9208C091E09E0F90938E2A9B
:100C2000F0E0E55FF54D8083FF91EF91BF91AF91CB
:100C30009F918F910F900FBE0F901F9018951F924C
:100C40000F920FB60F9211248F939F93AF93BF9380
:100C5000EF93FF93A7E2BDE2EC9181E08E0F8C93BE
:100C6000F0E0EC55F34D9081909322089091262D61
:100C7000891740F0E0E2F8E085818F7D858381E08F
:100C80008093282DFF91EF91BF91AF919F918F910C
:100C90000F900FBE0F901F9018951F920F920FB6D6
:100CA0000F9211248F939F93AF93BF93EF93FF9372
:100CB000809160088D3021F0E0911D2CEF3778F0A5
:100CC00081E080931E2CADE1BCE28C91E82FF0E036
:100CD000E656F44D108280931C2C1C9208C091E0C3
:100CE0009E0F90931D2CF0E0E656F44D8083FF910B
:100CF000EF91BF91AF919F918F910F900FBE0F9089
:100D00001F9018951F920F920FB60F9211248F9378
:100D10009F93AF93BF93EF93FF93A2EABCE2EC9152
:100D200081E08E0F8C93F0E0E15EF34D9081909323
:100D300062089091A12C891740F0E0E6F8E08581E7
:100D40008F7D858381E08093A32CFF91EF91BF91EC
:100D5000AF919F918F910F900FBE0F901F9018959C
:100D6000AF92BF92CF92DF92EF92FF920F931F93B9
:100D7000CF93DF93C82FE62ED72F8A01F22E60E0A3
:100D80000E947201811133C08D2F0E949601811142
:100D90002EC08E2D0E949601811129C061E08C2FFA
:100DA0000E947201811123C0AF2CB12C81E0A81ADE
:100DB000B1081A141B0474F4C0E06801CC0ED11CF5
:100DC0000E944D01F6018083CF5F8C2F90E08A1541
:100DD0009B059CF38F2D90E00197E801C80FD91F68
:100DE0000E946101888387E08093A40880E0DF91FE
:100DF000CF911F910F91FF90EF90DF90CF90BF9018
:100E0000AF900895EF92FF920F931F93CF93DF93CC
:100E1000D62FC72F7A01022F60E00E947201811144
:100E20001FC08C2F0E94960181111AC08D2F0E9425
:100E30009601811115C0002379F0E701015010E0FF
:100E40000F5F1F4F0E0D1F1D89910E94960181118A
:100E500007C0C017D107C1F787E08093A40880E0DE
:100E6000DF91CF911F910F91FF90EF900895FB01BB
:100E700020811F922F9321811F922F9322811F92F5
:100E80002F9324811F922F9325811F922F932681C8
:100E90001F922F9328ED3DE63F932F939F938F93BF
:100EA0000E9426168DB79EB740968DBF9EBF0895AF
:100EB000DC01FB018189982F9295907F8289805374
:100EC000892B8C938685982F9295907F8785805368
:100ED000892B11968C9311978385982F9295907FEB
:100EE00084858053892B12968C93129781E01396F8
:100EF0008C9313978085982F9295907F818580534E
:100F0000892B14968C9314978581982F9295907FB6
:100F100086818053892B15968C9315978281982F03
:100F20009295907F83818053892B16968C93089598
:100F3000EF92FF920F931F93CF93DF937B0160E0BB
:100F40000E947201882321F097E09093A40825C0A5
:100F500080E00E949601882321F097E09093A408F6
:100F60001CC061E080ED0E947201882321F097E0AF
:100F70009093A40812C0E70187010A5F1F4F0E94E7
:100F80004D018993C017D107D1F70E946101F70184
:100F9000868387E08093A40880E0DF91CF911F9142
:100FA0000F91FF90EF9008950F931F93CF93DF93CE
:100FB000CDB7DEB72797CDBFDEBF8C01BE016F5F17
:100FC0007F4F80ED0E949807882349F092E1E8EF77
:100FD000FDE6D80101900D929A95E1F707C0BE0198
:100FE0006F5F7F4FC8010E94370780E02796CDBF13
:100FF000DEBFDF91CF911F910F9108950F931F9343
:10100000CF93DF938B0160E00E947201882321F06F
:1010100097E09093A4081CC080E00E94960188236A
:1010200021F097E09093A40813C0E801095F1F4FD7
:1010300089910E949601882321F097E09093A4085B
:1010400007C00C171D07A1F787E08093A40880E074
:10105000DF91CF911F910F910895CF93DF93CDB77B
:10106000DEB72797CDBFDEBFBC01CE0101960E943F
:101070005807BE016F5F7F4F80ED0E94FE072796E5
:10108000CDBFDEBFDF91CF910895EF92FF920F9316
:101090001F93CF93DF93CDB7DEB72E97CDBFDEBFC3
:1010A0008C0188E0EAE0FEE6DE01119601900D92E7
:1010B0008A95E1F7F80101900020E9F731973E2F7A
:1010C000301B323050F0F801319690E081E02191F0
:1010D00092278F5F3813FBCF01C090E01F929F9340
:1010E000CE0101969F938F937E0189E0E80EF11C5B
:1010F000FF92EF920E942616B701C8010E94CD15FB
:101100000F900F900F900F900F900F902E96CDBFD5
:10111000DEBFDF91CF911F910F91FF90EF90089567
:10112000EF92FF920F931F93CF93DF93CDB7DEB76C
:101130002897CDBFDEBF082F192F88E0E2E1FEE639
:101140009E012F5F3F4F7901D90101900D928A9541
:10115000E1F70E9436011F928F93FF92EF921F9347
:101160000F930E942616802F912F0E9445080F9002
:101170000F900F900F900F900F902896CDBFDEBF6D
:10118000DF91CF911F910F91FF90EF900895CF9332
:10119000DF93D62FC42F60E00E9472018D2F0E9432
:1011A00096018C2F0E94960187E08093A408DF911E
:1011B000CF910895CF9381110DC0E0E8F4E081E074
:1011C00086838183A1E4B3E01197F1F70000858362
:1011D000C8E70CC0E0E8F4E082E086838183A1E404
:1011E000B3E01197F1F700008583CAE74AE260E0B7
:1011F0008C2F0E94C70841E760E08C2F0E94C7082F
:101200004CE560E48C2F0E94C70848E260E08C2F18
:101210000E94C70848E060E08C2F0E94C7084AE29D
:1012200060E08C2F0E94C70849E760E08C2F0E9485
:10123000C70845ED60E08C2F0E94C70840E760E0DA
:101240008C2F0E94C70848E760E08C2F0E94C708D7
:1012500048E060E08C2F0E94C70846E060E08C2FD9
:101260000E94C70842E760E08C2F0E94C70840E058
:1012700060E48C2F0E94C7084AE260E08C2F0E9435
:10128000C70849E760E08C2F0E94C7084AED60E07C
:101290008C2F0E94C70840E060E08C2F0E94C70896
:1012A0004CED60E08C2F0E94C70840E060E08C2F7E
:1012B0000E94C70841E860E08C2F0E94C7084FE7F2
:1012C00060E08C2F0E94C70849ED60E08C2F0E94DF
:1012D000C70841EF60E08C2F0E94C7084BED60E02B
:1012E0008C2F0E94C70840E460E08C2F0E94C70842
:1012F00048E760E08C2F0E94C70848E260E08C2F2E
:101300000E94C70841E060E08C2F0E94C70840E8B7
:1013100060E08C2F0E94C7084CE060E08C2F0E9498
:10132000C708BAE624E081E0B15020408040E1F7F0
:1013300000C0CF91089545E150E06BE070E00E945D
:10134000A61608954BE050E060E070E00E94A616FB
:101350000895CF93DF93CDB7DEB76597CDBFDEBFDE
:10136000CE0101960E94D40745E150E06BE070E0A9
:10137000CE0101960E94AA166596CDBFDEBFDF9111
:10138000CF910895CF93DF93CDB7DEB72B97CDBF25
:10139000DEBF8BE0EBE2FEE6DE01119601900D92DE
:1013A0008A95E1F74BE050E060E070E0CE010196F5
:1013B0000E94AA162B96CDBFDEBFDF91CF91089574
:1013C0000E94A9090E94C209089588ED84BF81E0A6
:1013D000809300010895EF92FF920F931F93CF9394
:1013E000DF93CDB7DEB7C559D109CDBFDEBFF82E2B
:1013F000E92E8BE0E6E3FEE68E010F5F1F4FD8017A
:1014000001900D928A95E1F70E943601EF92FF92CA
:101410001F928F931F930F93055F1F4F1F930F937F
:101420000E942616C8010E944508F801019000207C
:10143000E9F73197AF01401B510BB80180E00E94E2
:101440000B05CDBFDEBFCB56DF4FCDBFDEBFDF917B
:10145000CF911F910F91FF90EF9008958F7D9FEB9B
:10146000980F81E09A3108F080E00895CF92DF92E2
:10147000EF92FF920F931F93CF93DF93062FC62E09
:10148000D12C24E3629FF0011124ED5FF74D2FE38F
:1014900020832183128213A6EC0103C0112309F4D7
:1014A00094C07E011991812F0E942E0A8823B1F3E6
:1014B00084E38C9DF0018D9DF00D1124ED5FF74DBF
:1014C0001083E701219603C0112309F47EC07E0139
:1014D0001991812F0E942E0A8823B1F384E38C9DF9
:1014E000F0018D9DF00D1124ED5FF74D1183F70193
:1014F0008181882359F08B3309F055C0DE0190E0DB
:1015000014C0DF01819181110EC001C090E084E31D
:101510008C9DF0018D9DF00D1124ED5FF74DE90FCD
:10152000F11D128252C08B3361F484E38C9DF00173
:101530008D9DF00D1124ED5FF74DE90FF11D128225
:1015400005C0DF0189939F5F9932D9F611968C917E
:101550001197811117C004C09D9191110EC001C057
:1015600080E094E39C9DF0019D9DF00D1124ED5FC2
:10157000F74DE80FF11D13A628C091938F5F8930B6
:1015800059F723C0E4E3EC9DE001ED9DD00D11245B
:10159000CD5FD74D8BA71296E09FF0011124E15D3E
:1015A000F74D81E0D9CFC4E3CC9DF001CD9DF00D86
:1015B0001124ED5FF74D8283F7013296C09FE00161
:1015C0001124CA5FD74D91E09CCFDF91CF911F913D
:1015D0000F91FF90EF90DF90CF9008952F923F9260
:1015E0004F925F926F927F928F929F92AF92BF9233
:1015F000CF92DF92EF92FF920F931F93CF93DF93DF
:10160000CDB7DEB7C858D140CDBFDEBF9EE0E1E424
:10161000FEE6DE01AE52BF4F01900D929A95E1F7C2
:1016200092E4EFE4FEE6DE01A052BF4F01900D927E
:101630009A95E1F79DE1E1E9FEE6DE01AE5DBE4F80
:1016400001900D929A95E1F799E2EEEAFEE6DE014D
:10165000A15CBE4F01900D929A95E1F791E1E7ED03
:10166000FEE6DE01A859BE4F01900D929A95E1F772
:10167000082F10E094E3899FF0011124ED5FF74DEE
:101680008181853609F444C030F4823459F08635BE
:1016900009F4E8C126C2843709F44CC1863709F43D
:1016A00095C11FC27E018EEBE80EF11CC7010E949E
:1016B0009B090E94360194E3909F9001919F300D09
:1016C0001124225D374D3F932F93FF92EF921F928B
:1016D0008F93CE018E529F4F9F938F938E010F5FFA
:1016E0001F4F1F930F930E942616C8010E944508A2
:1016F000F80101900020E9F73197AF01401B510B31
:10170000B80180E00E940B05CDBFDEBF80E0EAC1DA
:1017100080E00E947203C358DE4F6883CD57D140EA
:10172000C258DE4F7883CE57D140C158DE4F8883F0
:10173000CF57D140C058DE4F9883C058D14080E089
:101740000E941204C758DE4F6883C957D140C6585B
:10175000DE4F7883CA57D140C558DE4F8883CB57B8
:10176000D140C458DE4F9883CC57D14081E00E94CD
:101770007203CD57DE4F6883C358D140CC57DE4F3C
:101780007883C458D140CB57DE4F8883C558D140A9
:10179000CA57DE4F9883C658D14081E00E94120498
:1017A000CF57DE4F6883C158D140CE57DE4F788384
:1017B000C258D140D82EC92E82E00E947203B62EA4
:1017C000A72E982E892E82E00E941204762E672E74
:1017D000582E492E0E94C603C957DE4F6883C7584A
:1017E000D140C857DE4F7883C858D140382E292EB3
:1017F0007E0196E9E90EF11CC7010E94D4070E9400
:10180000360194E3909F9001919F300D1124225D49
:10181000374D3F932F932F923F92C857DE4F9881B9
:10182000C858D1409F93C957DE4F9881C758D140BF
:101830009F934F925F926F927F928F929F92AF92FF
:10184000BF92CF92DF92CE57DE4F9881C258D140DF
:101850009F93CF57DE4F9881C158D1409F93CA576D
:10186000DE4F9881C658D1409F93CB57DE4F988169
:10187000C558D1409F93CC57DE4F9881C458D14072
:101880009F93CD57DE4F9881C358D1409F93C45842
:10189000DE4F9881CC57D1409F93C558DE4F988139
:1018A000CB57D1409F93C658DE4F9881CA57D1403D
:1018B0009F93C758DE4F9881C957D1409F93C05816
:1018C000DE4F9881C058D1409F93C158DE4F988118
:1018D000CF57D1409F93C258DE4F9881CE57D14009
:1018E0009F93C358DE4F9881CD57D1409F93FF926D
:1018F000EF921F928F93CE0180529F4F9F938F93B1
:101900008E010F5F1F4F1F930F930E942616CDBFAE
:10191000DEBFC8010E944508F80101900020E9F7E8
:101920003197AF01401B510BB80180E00E940B05BD
:1019300080E0D8C07E0196E9E90EF11CC7010E9443
:10194000D4076E018AEAC80ED11C24E1A60160E02A
:1019500070E080EA0E94B0065E019EEBA90EB11C09
:10196000C5010E949B090E94360194E3909F90015B
:10197000919F300D1124225D374D3F932F93BF92DD
:10198000AF92DF92CF92FF92EF921F928F93CE0190
:101990008E5D9E4F9F938F938E010F5F1F4F1F93FE
:1019A0000F930E942616C8010E944508F801019075
:1019B0000020E9F73197AF01401B510BB80180E0DF
:1019C0000E940B05CDBFDEBF80E08CC081E00E948D
:1019D0007604D62EC72EB82EA92E82E00E94760459
:1019E000962E872E782E692E7E0196E9E90EF11C3F
:1019F000C7010E94D4070E94360194E3909F900192
:101A0000919F300D1124225D374D3F932F936F929C
:101A10007F928F929F92AF92BF92CF92DF92FF926E
:101A2000EF921F928F93CE01815C9E4F9F938F9375
:101A30008E010F5F1F4F1F930F930E942616C80140
:101A40000E944508F80101900020E9F73197AF01A5
:101A5000401B510BB80180E00E940B05CDBFDEBFDB
:101A600080E040C06E019BE8C90ED11CC6010E94F7
:101A7000A2097E0186E9E80EF11CC7010E94D40785
:101A80000E94360194E3909F9001919F300D1124A4
:101A9000225D374D3F932F93DF92CF92FF92EF92CB
:101AA0001F928F93CE0188599E4F9F938F938E01E3
:101AB0000F5F1F4F1F930F930E942616C8010E94AD
:101AC0004508F80101900020E9F73197AF01401B6C
:101AD000510BB80180E00E940B05CDBFDEBF80E056
:101AE00001C082E0C857DE4FCDBFDEBFDF91CF918E
:101AF0001F910F91FF90EF90DF90CF90BF90AF902C
:101B00009F908F907F906F905F904F903F902F901D
:101B100008950F931F93CF93DF93CDB7DEB76D97E3
:101B2000CDBFDEBF2EE330E029833A8321E230E0EF
:101B30002B833C83813009F43FC018F08230B9F028
:101B400051C08E010B5F1F4FBE016F5F7F4FC801F9
:101B50000E94D815F80101900020E9F73197AF01F4
:101B6000401B510BB80180E00E940B0550C08E0154
:101B70000B5F1F4FC8010E949008F80101900020E0
:101B8000E9F73197AF01401B510BB80180E00E948B
:101B90000B05BE016F5F7F4FC8010E94D815F80189
:101BA00001900020E9F73197AF01401B510BB801BC
:101BB00080E00E940B052BC08E010B5F1F4FBE0102
:101BC0006D5F7F4FC8010E94D815F8010190002079
:101BD000E9F73197AF01401B510BB80180E00E943B
:101BE0000B0515C08E010B5F1F4FBE016D5F7F4F50
:101BF000C8010E94D815F80101900020E9F731973B
:101C0000AF01401B510BB80180E00E940B056D969F
:101C1000CDBFDEBFDF91CF911F910F910895CF937C
:101C2000DF93282F30E094E3899FF0011124ED5FCA
:101C3000F74D81818437E9F484E3829FE001839F3B
:101C4000D00D1124CB5FD74DFE0101900020E9F7A4
:101C5000CF0144978C179D0771F4CE010E942D0887
:101C600024E1AE0160E070E080EA0E94020780E0BB
:101C700003C082E001C082E0DF91CF9108951F93FD
:101C8000CF93DF93CDB7DEB7C058D109CDBFDEBF4C
:101C90002091112B30E0F901E057F54D90819983A7
:101CA0002F5F3F4F2F773078332334F421503109A1
:101CB00020683F6F2F5F3F4F822F2093112B992376
:101CC00009F482C021E090E0FC01E057F54D30813D
:101CD000E1E0F0E0EC0FFD1FE20FF11D3083019613
:101CE0008F779078992324F4019780689F6F0196ED
:101CF000311103C08093112B04C02F5F22F7809312
:101D0000112B80910028882369F08981813221F08C
:101D100081E00E94890D5DC080E00E94890D1092D3
:101D2000002857C0CE0101960E94EB0989818111DC
:101D300003C00E94890D4DC010910228612FCE0171
:101D400001960E94360A24E3129FF0011124ED5FF0
:101D5000F74D818190819F3679F028F49235D1F04A
:101D6000933631F022C0923759F0933771F01DC08D
:101D70000E942902282F1AC00E945202282F16C042
:101D8000812F0E94EE0A282F11C0812F0E940F0E72
:101D9000282F0CC08AE694E021E08150904020403A
:101DA000E1F700C00E94E50914C022E080910228FA
:101DB00090E001966AE070E00E94911480930228FE
:101DC000822F0E94890D05C0809100288111A0CF2B
:101DD000A9CFC058DF4FCDBFDEBFDF91CF911F919C
:101DE00008950E94F0000E9428010E942E010E9486
:101DF00042010E94FD010E94C40480E00E94DA08B2
:101E00000E94E0097894C4E1DBE288818823E9F349
:101E100018820E943F0EF9CF5058BB27AA270E9474
:101E2000240F0C9468100E945A1038F00E94611020
:101E300020F039F49F3F19F426F40C9457100EF457
:101E4000E095E7FB0C945110E92F0E94791058F3AC
:101E5000BA17620773078407950720F079F4A6F58F
:101E60000C949B100EF4E0950B2EBA2FA02D0B01B5
:101E7000B90190010C01CA01A0011124FF27591BCF
:101E800099F0593F50F4503E68F11A16F040A22FD5
:101E9000232F342F4427585FF3CF46953795279546
:101EA000A795F0405395C9F77EF41F16BA0B620B45
:101EB000730B840BBAF09150A1F0FF0FBB1F661F8C
:101EC000771F881FC2F70EC0BA0F621F731F841FCF
:101ED00048F4879577956795B795F7959E3F08F0F5
:101EE000B0CF9395880F08F09927EE0F97958795B7
:101EF00008950E942D1008F481E008950E94920F29
:101F00000C9468100E94611058F00E945A1040F022
:101F100029F45F3F29F00C94511051110C949C103E
:101F20000C9457100E94791068F39923B1F355234C
:101F300091F3951B550BBB27AA27621773078407DC
:101F400038F09F5F5F4F220F331F441FAA1FA9F372
:101F500035D00E2E3AF0E0E832D091505040E69560
:101F6000001CCAF72BD0FE2F29D0660F771F881FC1
:101F7000BB1F261737074807AB07B0E809F0BB0BB4
:101F8000802DBF01FF2793585F4F3AF09E3F5105C8
:101F900078F00C9451100C949C105F3FE4F3983E41
:101FA000D4F3869577956795B795F7959F5FC9F7B1
:101FB000880F911D9695879597F90895E1E0660F32
:101FC000771F881FBB1F621773078407BA0720F0AB
:101FD000621B730B840BBA0BEE1F88F7E095089514
:101FE000E89409C097FB3EF49095809570956195B3
:101FF0007F4F8F4F9F4F9923A9F0F92F96E9BB2769
:102000009395F695879577956795B795F111F8CFE4
:10201000FAF4BB0F11F460FF1BC06F5F7F4F8F4F4F
:102020009F4F16C0882311F096E911C0772321F045
:102030009EE8872F762F05C0662371F096E8862FDD
:1020400070E060E02AF09A95660F771F881FDAF734
:10205000880F9695879597F90895990F0008550F61
:10206000AA0BE0E8FEEF16161706E807F907C0F01E
:1020700012161306E407F50798F0621B730B840B26
:10208000950B39F40A2661F0232B242B252B21F400
:1020900008950A2609F4A140A6958FEF811D811DA0
:1020A000089597F99F6780E870E060E008959FEFDA
:1020B00080EC089500240A941616170618060906DF
:1020C000089500240A9412161306140605060895AE
:1020D000092E0394000C11F4882352F0BB0F40F436
:1020E000BF2B11F460FF04C06F5F7F4F8F4F9F4F76
:1020F000089557FD9058440F551F59F05F3F71F0F8
:102100004795880F97FB991F61F09F3F79F087955E
:102110000895121613061406551FF2CF4695F1DFE7
:1021200008C0161617061806991FF1CF8695710577
:10213000610508940895E894BB2766277727CB01AB
:1021400097F908950E942D1008F48FEF08950E94CA
:10215000BA100C9468100E945A1038F00E94611056
:1021600020F0952311F00C9451100C945710112469
:102170000C949C100E94791070F3959FC1F3950FF9
:1021800050E0551F629FF001729FBB27F00DB11DFB
:10219000639FAA27F00DB11DAA1F649F6627B00D8B
:1021A000A11D661F829F2227B00DA11D621F739F74
:1021B000B00DA11D621F839FA00D611D221F749F82
:1021C0003327A00D611D231F849F600D211D822FC9
:1021D000762F6A2F11249F5750409AF0F1F08823F0
:1021E0004AF0EE0FFF1FBB1F661F771F881F91501D
:1021F0005040A9F79E3F510580F00C9451100C946B
:102200009C105F3FE4F3983ED4F3869577956795ED
:10221000B795F795E7959F5FC1F7FE2B880F911D46
:102220009695879597F90895A0E1B0E0EAE1F1E18C
:102230000C94A5147C011B016A01FC011682178213
:10224000838181FF44C39E012F5F3F4F3901F70116
:102250009381F10193FD859193FF81911F01882363
:1022600009F431C3853239F493FD859193FF81914F
:102270001F01853239F4B70190E00E94EA1556013A
:102280006501E5CF10E0512C912CFFE1F915D8F054
:102290008B3279F038F4803279F08332A1F4F92D61
:1022A000F0612EC08D3261F0803369F4292D2160F8
:1022B0002DC0392D3260932E892D8460982E2AC02E
:1022C000E92DE86015C097FC2DC020ED280F2A30BD
:1022D00088F496FE06C03AE0139F200D1124122FB9
:1022E00019C08AE0589E200D1124522EE92DE0627B
:1022F0009E2E10C08E3231F496FCE5C2F92DF064AA
:102300009F2E08C08C3621F4292D2068922E02C001
:10231000883641F4F10193FD859193FF81911F016E
:102320008111B3CF9BEB980F933020F4992D9061DE
:10233000805E07C09BE9980F933008F066C1992D25
:102340009F7E96FF16E09F73992E853619F4906450
:10235000992E08C0863621F4392F3068932E02C09A
:102360001111115097FE07C01C3350F444244394BC
:10237000410E27E00BC0183038F027E017E005C009
:1023800027E09CE3492E02C0212F412C560184E016
:10239000A80EB11CF6016081718182819381042DA8
:1023A000A3010E94EA146C01F981FC87F0FF02C0CE
:1023B000F3FF06C091FC06C092FE06C000E205C015
:1023C0000DE203C00BE201C000E08C858C7019F0B7
:1023D00001115AC29BC297FE10C04C0CFC85F4FF41
:1023E00004C08A81813309F44A94141474F528E0F6
:1023F000241578F588E0482E2CC096FC2AC0812F41
:1024000090E08C159D059CF03CEFC3163FEFD30682
:1024100074F0892D8068982E0AC0E2E0F0E0EC0F9D
:10242000FD1FE10FF11D8081803319F4115011114E
:10243000F4CF97FE0EC044244394410E812F90E0C8
:10244000C816D9062CF41C1904C04424439401C0B6
:1024500010E097FE06C01C141D0434F4C60101965A
:1024600005C085E090E002C081E090E00111019696
:10247000112331F0212F30E02F5F3F4F820F931F48
:10248000252D30E08217930714F4581A01C0512CFF
:10249000892D897049F4552039F0B70180E290E028
:1024A0000E94EA155A94F7CF002329F0B701802F34
:1024B00090E00E94EA1593FC09C0552039F0B7015D
:1024C00080E390E00E94EA155A94F7CF97FE4CC043
:1024D0004601D7FE02C0812C912CC60188199909AA
:1024E000F301E80FF91FED87FE87960124193109E2
:1024F0002F87388B012F10E01195019511093FEFBF
:102500008316930629F4B7018EE290E00E94EA1543
:10251000C814D9044CF08F8598898815990524F43E
:10252000ED85FE85818101C080E3F1E08F1A91087D
:102530002D853E852F5F3F4F2D873E878016910664
:102540002CF0B70190E00E94EA15D9CFC814D90445
:1025500041F49A81963320F4953319F43C8534FF85
:1025600081E3B70190E04EC08A81813319F09C85E8
:102570009F7E9C87B70190E00E94EA15111105C06B
:1025800094FC18C085E690E017C0B7018EE290E099
:102590000E94EA151E5F82E001E0080FF301E80FD8
:1025A000F11D8081B70190E00E94EA15802F011390
:1025B000F3CFE6CF85E490E0B7010E94EA15D7FC9F
:1025C00006C0C114D10441F4EC85E4FF05C0D194E8
:1025D000C194D1088DE201C08BE2B70190E00E9466
:1025E000EA1580E32AE0C216D1042CF08F5FFAE0EE
:1025F000CF1AD108F7CFB70190E00E94EA15B701D2
:10260000C601C0960E94EA1554C1833631F0833763
:1026100079F0833509F056C020C0560132E0A30E90
:10262000B11CF6018081898301E010E0630112C0D2
:102630005601F2E0AF0EB11CF601C080D18096FECB
:1026400003C0612F70E002C06FEF7FEFC6010E94F0
:10265000DF158C01F92DFF7714C0560122E0A20E80
:10266000B11CF601C080D18096FE03C0612F70E0DE
:1026700002C06FEF7FEFC6010E94C2158C01F92DD9
:10268000F0689F2EF3FD1AC0852D90E008171907FA
:10269000A8F4B70180E290E00E94EA155A94F4CFC2
:1026A000F60197FC859197FE81916F01B70190E04B
:1026B0000E94EA1551105A94015011090115110593
:1026C00079F7F7C0843611F0893661F5560197FE27
:1026D00009C024E0A20EB11CF601608171818281E3
:1026E00093810AC0F2E0AF0EB11CF60160817181E6
:1026F000072E000C880B990BF92DFF769F2E97FF64
:1027000009C090958095709561957F4F8F4F9F4F31
:10271000F0689F2E2AE030E0A3010E944816C82EE0
:10272000C6183FC0092D853721F40F7E2AE030E01E
:102730001DC0097F8F3691F018F4883559F0C3C059
:10274000803719F0883711F0BEC0006104FF09C05E
:10275000046007C094FE08C0066006C028E030E0B0
:1027600005C020E130E002C020E132E0560107FF61
:1027700009C084E0A80EB11CF601608171818281DC
:10278000938108C0F2E0AF0EB11CF6016081718147
:1027900080E090E0A3010E944816C82EC6180F776B
:1027A000902E96FE0BC0092D0E7FC11650F494FE9C
:1027B0000AC092FC08C0092D0E7E05C0DC2C092D34
:1027C00003C0DC2C01C0D12E04FF0DC0FE01EC0DB6
:1027D000F11D8081803311F4097E09C002FF06C01B
:1027E000D394D39404C0802F867809F0D39403FD4A
:1027F00011C000FF06C01C2DD51480F4150D1D1945
:102800000DC0D51458F4B70180E290E00E94EA159B
:10281000D394F7CFD51410F45D1801C0512C04FFE8
:1028200010C0B70180E390E00E94EA1502FF17C0D4
:1028300001FD03C088E790E002C088E590E0B701A1
:102840000CC0802F867859F001FF02C08BE201C0D6
:1028500080E207FD8DE2B70190E00E94EA15C11603
:1028600038F4B70180E390E00E94EA151150F7CFE9
:10287000CA94F301EC0DF11D8081B70190E00E9434
:10288000EA15C110F5CF15C0F4E0F51560F584E048
:10289000581A93FE1FC0011127C02C8523FF2AC0A0
:1028A00000EA10E0392D3071932EF80184918111E6
:1028B00024C0552009F4E4CCB70180E290E00E94E6
:1028C000EA155A94F6CFF7018681978126C08FEFDB
:1028D0009FEF23C0B70180E290E00E94EA155A946E
:1028E0005110F8CFD8CF512CB701802F90E00E9423
:1028F000EA15D3CF04EA10E0D5CF91108052B7018A
:1029000090E00E94EA150F5F1F4FCFCF23E02515FF
:1029100010F483E0BDCF512CC0CF6096E2E10C945F
:10292000BE1497FB072E16F4009407D077FD09D04C
:102930000E94D61407FC05D03EF4909581959F4FD8
:102940000895709561957F4F08952F923F924F9211
:102950005F926F927F928F929F92AF92BF92CF922F
:10296000DF92EF92FF920F931F93CF93DF93CDB738
:10297000DEB7CA1BDB0BCDBFDEBF09942A883988BE
:1029800048885F846E847D848C849B84AA84B98407
:10299000C884DF80EE80FD800C811B81AA81B98113
:1029A000CE0FD11DCDBFDEBFED010895AA1BBB1B0D
:1029B00051E107C0AA1FBB1FA617B70710F0A61B3F
:1029C000B70B881F991F5A95A9F780959095BC0160
:1029D000CD010895283008F027E03327DA01990F58
:1029E000311D87FD916000966105710539F43260F3
:1029F0002E5F3D9330E32A95E1F708959F3F30F035
:102A000080387105610509F03C5F3C5F3D93913072
:102A100008F08068911DDF93CF931F930F93FF926F
:102A2000EF92192F987F9695E92F96959695E90F35
:102A3000FF27EE5FFE4F99273327EE24FF24A701DF
:102A4000E70105900894079428F4360FE71EF81E56
:102A5000491F511D660F771F881F991F0694A1F704
:102A60000590079428F4E70EF81E491F561FC11D54
:102A7000770F881F991F661F0694A1F7059007948A
:102A800028F4F80E491F561FC71FD11D880F991F24
:102A9000661F771F0694A1F70590079420F4490F4D
:102AA000561FC71FD81F990F661F771F881F0694D0
:102AB000A9F784911095177041F0D695C795579551
:102AC0004795F794E7941A95C1F7E8EAF0E068941F
:102AD0001590159135916591959105907FE27395CB
:102AE000E118F10A430B560BC90BD009C0F7E10CF2
:102AF000F11E431F561FC91FD01D7EF4703311F401
:102B00008A95E6CFE894015030F0080F0AF40027C8
:102B1000021708F4202F2395022F7A3328F079E347
:102B20007D932A95E9F710C07D932A9589F606943E
:102B300097956795379517951794E118F10A430B08
:102B4000560BC90BD00998F023957E9173957A3373
:102B500008F070E37C932013B8F77E9170617D9349
:102B600030F0839571E37D9370E32A95E1F71124AA
:102B7000EF90FF900F911F91CF91DF91992787FDE3
:102B800090950895FC010590615070400110D8F7B0
:102B9000809590958E0F9F1F0895FB01DC010D908D
:102BA0000020E9F7119701900D920020E1F70895B8
:102BB000FB01DC0101900D920020E1F70895FC017A
:102BC0006150704001900110D8F7809590958E0F5C
:102BD0009F1F08950F931F93CF93DF93FB012381D2
:102BE00021FD03C08FEF9FEF2CC022FF16C046814E
:102BF0005781248135814217530744F4A081B18164
:102C00009D012F5F3F4F208331838C932681378135
:102C10002F5F3F4F2683378314C08B01EC01FB01EC
:102C20000084F185E02D0995892BE1F6D8011696EF
:102C30008D919C911797019616968D939C9317975B
:102C4000CE01DF91CF911F910F910895AEE0B0E0DA
:102C5000ECE2F6E10C94B3140D891E8986E08C83B6
:102C600009831A838FEF9FE78D839E83AE01475EB2
:102C70005F4F6F89788DCE0101960E941411EF810C
:102C8000F885E00FF11F10822E96E4E00C94CC142E
:102C9000FA01AA27283051F1203181F1E8946F938D
:102CA0006E7F6E5F7F4F8F4F9F4FAF4FB1E03ED033
:102CB000B4E03CD0670F781F891F9A1FA11D680FD1
:102CC000791F8A1F911DA11D6A0F711D811D911D04
:102CD000A11D20D009F468943F912AE0269F112479
:102CE0003019305D3193DEF6CF010895462F4770DD
:102CF000405D4193B3E00FD0C9F7F6CF462F4F7038
:102D0000405D4A3318F0495D31FD4052419302D095
:102D1000A9F7EACFB4E0A69597958795779567953B
:102D2000BA95C9F700976105710508959B01AC013B
:102D30000A2E06945795479537952795BA95C9F762
:102D4000620F731F841F951FA01D089560507C4E55
:102D50000C94E116DC01A40FB51F4150504048F01F
:102D6000CB01840F951F2E910E94BB1641505040FD
:102D7000D0F70895262F0E94DD160080021619F064
:102D80000E94C616019701970895262FAF93BF930F
:102D9000E0E0F0E1328131FDFDCFDC01A050BC4E1E
:102DA0002C932DE924BF23E020830196BF91AF919E
:102DB000089503D0808199270895FC01E050FC4ECE
:102DC0000895FB01DC0102C001900D92415050407A
:082DD000D8F70895F894FFCF35
:102DD8003230253032782D253032782D2530327832
:102DE80054253032783A253032783A253032780016
:102DF8004453333233312072656164206572726FD7
:102E080072002A253032580D0A0024532564455291
:102E18005200202020202020202020202020202098
:102E2800202000323032312D30312D3234002453FD
:102E38002564434D442C2573002453256442544D86
:102E48002C25732C25730024532564454E562C25B8
:102E5800732C25332E3166432C25312E30662525DB
:102E68002C25332E3166432C25312E306625252C12
:102E780025332E3166432C25312E306625252C2509
:102E8800332E3166432C2573002453256454494D51
:102E98002C25732C25732C7365742C25732C626F69
:102EA8006F742C257300245325645641432C2573D5
:102EB8002C25352E32662C7265647661632C253597
:102EC8002E32662C626C75657661632C257300243E
:102ED8005325645645522C25732C25732C257300D5
:022EE8000100E7
:00000001FF
