:100000000C9433010C9445010C9445010C946E251D
:100010000C9445010C9445010C9445010C94450148
:100020000C9445010C9445010C9445010C94450138
:100030000C94A2250C9445010C9445010C944501A7
:100040000C9445010C94D5270C9423280C9445015D
:100050000C94620F0C9445010C9445010C944501DD
:100060000C9445010C9445010C945F280C947F2856
:100070000C9445010C9422290C9445010C944501E3
:100080000C9445010C9445010C9445010C944501D8
:100090000C9445010C94B9280C94EE280C9445015D
:1000A000AC04D304D304D304D304D304D304D304BF
:1000B000D304AF04D304D304D304D304D304D304AC
:1000C000D304D304D304D304D304D304D304D30478
:1000D000D304D3049A04D304D304D304D304D304A1
:1000E000D304D304D304D304A004D3049D04D304C1
:1000F000D304A304A604A904631063106310571665
:100100005716571657165716571657165716571687
:100110005716571657165716571657165716571677
:1001200057161916571657165716571657165716A5
:1001300057165716571657162E122E122E125716DE
:10014000DC125716571657165716571657165716C6
:10015000571657161914EF145716571657167815C1
:100160005716C0156E616E00696E660000407A1009
:10017000F35A00A0724E18090010A5D4E80000E858
:100180007648170000E40B54020000CA9A3B0000B6
:1001900000E1F505000080969800000040420F0045
:1001A0000000A08601000000102700000000E80306
:1001B000000000006400000000000A0000000000D1
:1001C0000100000000002C76D888DC674F0823DF90
:1001D000C1DFAE59E1B1B796E5E3E453C63AE65163
:1001E000997696E8E6C28426EB898C9B62ED407C8A
:1001F0006FFCEFBC9C9F40F2BAA56FA5F490055A26
:100200002AF75C936B6CF9676DC11BFCE0E40D474A
:10021000FEF520E6B500D0ED902E0300943577056D
:100220000080841E080000204E0A000000C80C3325
:100230003333330F986E12831141EF8D2114893BB4
:10024000E65516CFFEE6DB18D1844B381BF77C1D34
:10025000901DA4BBE424203284725E228100C9F187
:1002600024ECA1E53D2711241FBECFEFCDBFDFE376
:10027000DEBF22E3A0E0B8E201C01D92A335B207C1
:10028000E1F70E94C3090C9424320C9400008F9271
:100290009F92AF92BF92EF92FF920F931F93CF93D3
:1002A000DF9300D000D0CDB7DEB77B018130C9F03D
:1002B00018F0823061F010C00F2EF3E38F2E982CCF
:1002C000F3EFAF2EF0E4BF2EF02D11E00EC0812C25
:1002D000912C540110E109C0812C912C540110E0A3
:1002E00004C0812C912C540114E040E066E087E2C8
:1002F0000E942A0A412F409560E087E20E942A0A64
:10030000412F6AE087E20E942A0A86E18A95F1F786
:1003100000008E010F5F1F4F20E840E768E088E48F
:100320000E94C801833651F440E050E866E274EC64
:10033000F70140835183628373831CC020E030E067
:100340004AE754E469817A818B819C810E941E2B4B
:1003500023E333E948E853E40E944D299B01AC01B3
:10036000C501B4010E944E29F70160837183828325
:10037000938380E02496CDBFDEBFDF91CF911F91A4
:100380000F91FF90EF90BF90AF909F908F90089546
:100390008F929F92AF92BF92CF92DF92EF92FF9295
:1003A0000F931F93CF93DF93F82EE62E6801462B11
:1003B000C42FC168D22FD36080E090E8A6E2B4ECED
:1003C000F80180839183A283B38360E08F2D0E9424
:1003D0002326082F882321F00E946D2613E6B4C03F
:1003E00081E00E947126182F833619F40E946D2631
:1003F000ABC08C2F0E947126182F833619F40E94EF
:100400006D26A2C08D2F0E947126182F833619F4F5
:100410000E946D2699C00E946D26FCE1FA95F1F7C5
:10042000C1E009C061E08F2D0E9423260E940426AE
:1004300088230CF4C0E0C111F5CF0E946D2660E066
:100440008F2D0E94232680E00E94712661E08F2D6F
:100450000E9423260E94E225C82F0E940426D82F3E
:100460000E946D266C2F70E0762F66276D2B84E03E
:10047000E81649F18E1530F0EE20D9F1E2E0EE16E3
:1004800069F142C0F8E0EF1609F442C08AE0E816CC
:1004900021F0E6E0EE1238C00BC00F2EF4E78F2EED
:1004A000F3E19F2EF3E0AF2EF7E3BF2EF02D3AC01D
:1004B0000F2EF4E78F2EF3E19F2EF3E0AF2EF8E33B
:1004C000BF2EF02D2FC00F2EF2E18F2EF3E19F2EC5
:1004D000F3E8AF2EF8E3BF2EF02D24C00F2EF4E783
:1004E0008F2EF3E19F2EF3E0AF2EF9E3BF2EF02D18
:1004F00019C00F2EFEE28F2EFDE99F2EF4E4AF2EE1
:10050000F9E3BF2EF02D0EC0812C912C54010AC0AE
:100510000F2EF1E78F2EF3E19F2EF3E8AF2EF7E3D6
:10052000BF2EF02D072E000C880B990B0E94692A14
:100530009B01AC01C501B4010E941E2BF601608332
:10054000718382839383102F812FDF91CF911F912D
:100550000F91FF90EF90DF90CF90BF90AF909F9062
:100560008F900895CF93DF939C0140E01CC0CEE3B1
:10057000DEE2E881F0E0E15CF24D8081F901E40F18
:10058000F11D8083A0E4BEE28C9181508C93888120
:1005900090E001966EEF70E00E94082F88838081C2
:1005A000882329F04F5F8091402E8111E0CFF9011F
:1005B000E40FF11D1082DF91CF9108959FE9980F0C
:1005C0009A3128F081548A3120F483E6089583E635
:1005D000089580E00895EF92FF921F93CF93DF93E9
:1005E000EC01E62EF12C84E38E9DF0018F9DF00D41
:1005F0001124E35FF74D8FE380838183128213A67A
:1006000004C0112309F475C021961881812F0E941E
:10061000DE028823B1F3219684E38E9DF0018F9D45
:10062000F00D1124E35FF74D108304C0112309F48A
:1006300060C021961881812F0E94DE028823B1F3C9
:10064000219684E38E9DF0018F9DF00D1124E35FD0
:10065000F74D118380E02AC0988191110CC094E37A
:100660009E9DF0019F9DF00D1124E35FF74DE80F73
:10067000F11D12823EC09B3361F494E39E9DF00114
:100680009F9DF00D1124E35FF74DE80FF11D1282DD
:100690000FC0219624E32E9DF0012F9DF00D112413
:1006A000E35FF74DE80FF11D92838F5F8932A0F26F
:1006B000219680E01CC0988191110CC094E39E9D0E
:1006C000F0019F9DF00D1124E35FF74DE80FF11D40
:1006D00013A60FC0219624E32E9DF0012F9DF00D4F
:1006E0001124E35FF74DE80FF11D93A78F5F893069
:1006F00010F3DF91CF911F91FF90EF9008950F932A
:100700001F93CF93DF93CDB7DEB7C550D140CDBF98
:10071000DEBF27E0E2E5F4EADE01A150BF4F019021
:100720000D922A95E1F72091152A21112AC02091D6
:10073000A80422FF03C022E030E002C021E030E044
:100740009F938F933F932F93CE0181509F4F9F9301
:100750008F938E010F5F1F4F1F930F930E94603185
:10076000C8010E94F70BF80101900020E9F73197CA
:10077000AF01401B510BB80180E00E940E27CDBF96
:10078000DEBFCB5FDE4FCDBFDEBFDF91CF911F91CC
:100790000F910895CF92DF92EF92FF920F931F93E4
:1007A000CF93DF93CDB7DEB7CC51D140CDBFDEBF05
:1007B000D82EC92E8AE0E9E5F4EA9E012F5F3F4F6B
:1007C0007901D90101900D928A95E1F78E01055FBB
:1007D0001F4FC8010E94A606CF92DF921F930F936E
:1007E000FF92EF920C5E1F4F1F930F930E94603198
:1007F000C8010E947F03CDBFDEBFC45EDE4FCDBF08
:10080000DEBFDF91CF911F910F91FF90EF90DF90AE
:10081000CF900895CF93DF9300D0CDB7DEB781E2BC
:1008200090E089839A8341E0BE016F5F7F4F80E053
:100830000E940E270F900F90DF91CF910895CF93D4
:10084000C0910C28C11121C0FC018081813291F43A
:10085000918191110FC08FEF91E00E94402585E0BA
:1008600090E08093092890930A2881E080930C28D7
:10087000C1E00CC0813231F48181882319F00E94DB
:100880001C2904C00E940A0401C0C1E08C2FCF9132
:100890000895CF93DF9300D0CDB7DEB78EE390E01D
:1008A00089839A8341E0BE016F5F7F4F80E00E94A1
:1008B0000E270F900F90DF91CF910895CF93DF9384
:1008C000CDB7DEB7CF5FD109CDBFDEBFCE01019678
:1008D0000E94B202CE0101960E941F04882309F4EF
:1008E00074C08981882311F0813229F41092152A6D
:1008F0000E9449046AC0CE0101960E94CA03609119
:100900000028CE0101960E94EB028091002824E38A
:10091000829FF0011124E35FF74DE0814E2F50E0FC
:10092000FA01E954F109EC32F105E8F5E05BFF4F1B
:100930000C943B2F0E940E0E3CC00E94B80E39C092
:100940000E942B2436C00E94A70F33C00E94B624F9
:1009500030C00E943C252DC00E9451232AC00E9415
:100960005D1D882339F063E674EA86E391E00E9416
:1009700093071FC00E94B91D833631F468E874EAFA
:1009800083E991E00E94930710923A2A0E94490459
:100990008AE694E021E0815090402040E1F700C0D9
:1009A0000E941C2912C06AEA74EA89EC90E00E9455
:1009B00093078091002890E001966AE070E00E9421
:1009C000082F809300280E944904C150DF4FCDBFFB
:1009D000DEBFDF91CF9108950F931F93CF93DF93E5
:1009E000CDB7DEB72A97CDBFDEBF8C0120E00EC0A9
:1009F000822F90E0F801E80FF91F3081E1E0F0E08C
:100A0000EC0FFD1FE80FF91F30832F5F243080F3B8
:100A10001D82CE0101960E94C22F855E97400A97E3
:100A2000C8F068EB74EA8BE592E00E94930783E6D6
:100A3000B2C0282F30E0F9013597D801A20FB31FBB
:100A40009C9121E030E02C0F3D1FE20FF31F9083BB
:100A50008F5F01C085E0873060F31B82CE01019675
:100A60000E94C22F01970C97C8F065EE74EA8BE5DF
:100A700092E00E94930783E68EC0282F30E0F901B0
:100A80003897D801A20FB31F9C9121E030E02C0FC2
:100A90003D1FE20FF31F90838F5F01C088E08A3013
:100AA00060F31B82CE0101960E94C22F01974F97DF
:100AB000C8F06DE075EA8BE592E00E94930783E64B
:100AC0006AC0282F30E0F9013B97D801A20FB31F6D
:100AD0009C9121E030E02C0F3D1FE20FF31F90832B
:100AE0008F5F01C08BE08D3060F31B82CE010196D9
:100AF0000E94C22F4897C8F063E375EA8BE592E045
:100B00000E94930783E647C0282F30E0F9013E9703
:100B1000D801A20FB31F9C9121E030E02C0F3D1FA4
:100B2000E20FF31F90838F5F01C08EE0803160F38E
:100B30001B82CE0101960E94C22FCC97C8F06FE4B1
:100B400075EA8BE592E00E94930783E624C0282F84
:100B500030E0F9017197D801A20FB31F9C9121E0F9
:100B600030E02C0F3D1FE20FF31F90838F5F01C019
:100B700081E1833160F31B82CE0101960E94C22F76
:100B8000CC9740F06EE675EA8BE592E00E94930701
:100B900083E601C080E02A96CDBFDEBFDF91CF9112
:100BA0001F910F9108950F931F93CF93DF93CDB7AC
:100BB000DEB7A097CDBFDEBF40E2EDE8F5EA9E01CB
:100BC0002F5F3F4FD90101900D924A95E1F7FB014C
:100BD000B081A18112810481558146811F92BF930A
:100BE0001F92AF931F921F931F920F931F925F93B9
:100BF0001F924F933F932F939F938F930E94603147
:100C0000CDBFDEBFA096CDBFDEBFDF91CF911F91DC
:100C10000F910895DC01FB01818990E0C0978295D6
:100C20009295907F9827807F982792899053892B5F
:100C30008C93868590E0C09782959295907F9827B7
:100C4000807F982797859053892B11968C931197C5
:100C5000838590E0C09782959295907F9827807FBA
:100C6000982794859053892B12968C93129781E044
:100C700013968C931397808590E0C09782959295F8
:100C8000907F9827807F982791859053892B149681
:100C90008C931497258130E02053310922953295A9
:100CA000307F3227207F322786818053282B15966C
:100CB0002C931597228130E02053310922953295EB
:100CC000307F3227207F322783818053282B16964E
:100CD0002C930895EF92FF920F931F93CF937B0174
:100CE00060E00E942326C82F833619F40E946D26E7
:100CF00026C080E00E947126C82F833619F40E9416
:100D00006D261DC061E088E60E942326C82F833629
:100D100061F40E946D2613C087010C0F111D0E9403
:100D2000E225F8018083CF5F01C0C0E0C630A0F3A8
:100D30000E940426F70186830E946D26C0E08C2F56
:100D4000CF911F910F91FF90EF900895EF92FF9236
:100D50001F93CF93DF93CDB7DEB72797CDBFDEBF0D
:100D60007C01BE016F5F7F4F88E60E946A06182FE4
:100D7000833679F46DEA75EA85E690E00E94930780
:100D80008AE0EDEBF5EAD70101900D928A95E1F743
:100D900007C0BE016F5F7F4FC7010E94D30510E0FF
:100DA000812F2796CDBFDEBFDF91CF911F91FF909E
:100DB000EF900895EF92FF920F931F93CF93DF93DD
:100DC0008B0160E00E942326C82F833619F40E940D
:100DD0006D2620C080E00E947126C82F8336A1F4C2
:100DE0000E946D2617C078018FEFE81AF80AF80103
:100DF00080810E947126C82F833619F40E946D26C7
:100E000009C0DF5F870101C0D0E0D73060F30E94E6
:100E10006D26C0E08C2FDF91CF911F910F91FF9035
:100E2000EF900895EF92FF921F93CF93DF93CDB78A
:100E3000DEB72797CDBFDEBF7C010E94EC04182FE0
:100E4000833639F467EC75EA8BE592E00E949307EC
:100E500016C0B701CE0101960E940A06BE016F5F5F
:100E60007F4F88E60E94DA06182F833639F465EE44
:100E700075EA86E690E00E94930701C010E0812F9A
:100E80002796CDBFDEBFDF91CF911F91FF90EF90EE
:100E9000089545E150E06BE070E00E94E031089574
:100EA0004BE050E060E070E00E94E0310895CF93A5
:100EB000DF93CDB7DEB76597CDBFDEBFCE0101961C
:100EC0000E94A60645E150E06BE070E0CE0101967D
:100ED0000E94E4316596CDBFDEBFDF91CF910895CA
:100EE000CF93DF93CDB7DEB72B97CDBFDEBF8BE0BF
:100EF000E2E0F6EADE01119601900D928A95E1F7A3
:100F00004BE050E060E070E0CE0101960E94E431D9
:100F10002B96CDBFDEBFDF91CF9108950E9457077A
:100F20000E94700708950F931F93CF93DF93CDB75F
:100F3000DEB7C850D140CDBFDEBF2AE0EDE0F6EA13
:100F4000DE01A150BF4F01900D922A95E1F710925A
:100F50000B2820910B28211115C07F936F939F932D
:100F60008F93CE0181509F4F9F938F938E010F5F80
:100F70001F4F1F930F930E946031C8010E947F038F
:100F8000CDBFDEBFC85FDE4FCDBFDEBFDF91CF91EB
:100F90001F910F910895CF92DF92EF92FF920F93DE
:100FA0001F93CF93DF93D82FD62E072F7A01122FBE
:100FB00060E00E942326C82F833619F40E946D2614
:100FC0002EC0802F0E947126C82F833641F18D2DAF
:100FD0000E947126C82F833611F161E08D2F0E9487
:100FE0002326C82F8336D9F0C0E008C06701CC0E95
:100FF000D11C0E94E225F6018083CF5F2C2F30E0C8
:10100000812F90E001972817390784F3EC01CE0D6A
:10101000DF1D0E94042688830E946D26C0E08C2F6D
:10102000DF91CF911F910F91FF90EF90DF90CF90C4
:101030000895EF92FF921F93CF93DF93CDB7DEB762
:101040002A97CDBFDEBF7C018AE0E7E1F6EADE0148
:10105000119601900D928A95E1F724E1A70160E0D5
:1010600070E080E50E94CB07182F833639F4BE016B
:101070006F5F7F4FC7010E94F53001C010E0812FE4
:101080002A96CDBFDEBFDF91CF911F91FF90EF90E9
:101090000895EF92FF920F931F93CF93DF93F62E55
:1010A000172FEA01022F60E00E9423268336E1F029
:1010B000812F0E9471268336B9F08F2D0E947126F0
:1010C000833691F010E00BC07E018FEFE81AF80A2A
:1010D00088810E947126833639F01F5FE70110175F
:1010E00098F30E946D2680E0DF91CF911F910F91C0
:1010F000FF90EF9008958F929F92AF92BF92CF9200
:10110000DF92EF92FF920F931F93CF93DF9300D064
:1011100000D0CDB7DEB7813059F018F0823079F0C9
:1011200015C080E00E9400256B017C0140E417C0DF
:1011300081E00E9400256B017C0140E510C082E047
:101140000E9400256B017C0140E609C00F2EC12CD6
:10115000D12CF0EAEF2EF1E4FF2EF02D40E58E01C8
:101160000F5F1F4F20E860E088E40E94C8018336CB
:1011700089F120E030E040EA50E469817A818B8196
:101180009C810E94BF292AE037ED43E25EE30E9482
:101190004D292FE539E24BEC5BE30E94BF294B015F
:1011A0005C0129EC3EE84DE05BE3C701B6010E941B
:1011B0001E2B9B01AC0162E27DEF86E89FE30E945B
:1011C0004D299B01AC01C501B4010E94BF296B01EF
:1011D0007C0109C00F2EC12CF0E8DF2EF6E2EF2EC5
:1011E000F4ECFF2EF02D20E030E0A901C701B6019C
:1011F0000E94BA2988234CF40F2EC12CF0E8DF2E70
:10120000F6E2EF2EF4ECFF2EF02DC701B601249686
:10121000CDBFDEBFDF91CF911F910F91FF90EF9077
:10122000DF90CF90BF90AF909F908F900895CF9315
:10123000DF93CDB7DEB72B97CDBFDEBF10920C2862
:101240001092162A1092172A80EE91E080930928B6
:1012500090930A280E94910F0E94D72580E290E087
:101260000E9440250E94C50B0E94040D0E948E071B
:101270000E94B22681E090E00E94902578940E941E
:101280005123CE0101960E94500741E061E276EAC7
:1012900080E00E94150D42E0BE016F5F7F4F80E04D
:1012A0000E94150D2B96CDBFDEBFDF91CF91089523
:1012B000CF92DF92EF92FF920F931F93CF93DF9322
:1012C00000D000D0CDB7DEB7813021F08230C1F53B
:1012D00040E301C040E08E010F5F1F4F20E862E055
:1012E00089E40E94C801833681F1C980DA80EB80ED
:1012F000FC802DEC3CEC4CEC5EE3C701B6010E9497
:10130000BA2988233CF120E030E040E050E4C701F6
:10131000B6010E94192B181614F129E739EE42E0A4
:1013200050E4C701B6010E941E2B2EE633EA4BEDB6
:1013300050E40E944D29562F472F382F292F13C0D4
:1013400050E040E836E224EC0EC050E040E836E2DF
:1013500024EC09C050E040E836E224EC04C050E040
:1013600040E836E224EC652F742F832F922F2496C9
:10137000CDBFDEBFDF91CF911F910F91FF90EF9016
:10138000DF90CF90089581E08093152A0E9417097D
:1013900010920B288091422E882321F01092422E29
:1013A0000E945E042091162A3091172A8091092804
:1013B00090910A288217930778F481E080930B2894
:1013C00080E00E94720D81E00E94720D1092162A38
:1013D0001092172A10920B2890913A2A8091392A5C
:1013E0008917C0F680910C288823A1F210923A2A1E
:1013F00010920B28CFCFCF93DF93C82FD62F60E06A
:101400000E942326833651F462E376EA82E991E072
:101410000E9493070E946D268FEF19C08D2F0E94A6
:10142000712661E08C2F0E942326833651F462E3FB
:1014300076EA82E991E00E9493070E946D268FEF81
:1014400006C00E940426C82F0E946D268C2FDF91B3
:10145000CF9108951F93CF93DF93D62F142F60E081
:101460000E942326C82F833649F466E476EA82E98F
:1014700091E00E9493070E946D2615C08D2F0E9457
:101480007126882321F00E946D26C3E60CC0812FAF
:101490000E947126882321F00E946D26C3E603C0B6
:1014A0000E946D26C0E08C2FDF91CF911F9108958F
:1014B0008F929F92AF92BF92FF920F931F93CF9301
:1014C000DF938C0160E088E10E942326833651F48B
:1014D00040E050E866E274ECF80140835183628397
:1014E000738343C085E00E94712661E088E10E9419
:1014F00023260E94E225C82F0E940426D82F0E948E
:101500006D26FC2FF071FF2E6C2F6F7070E080E065
:1015100090E00E94672A20E030E040E851E40E9419
:101520001E2B4B015C016D2F70E080E090E00E946B
:10153000672A20E030E040E85DE30E941E2B9B011B
:10154000AC01C501B4010E944E29FF2041F09B016E
:10155000AC0160E070E080E893E40E944D29F8015E
:10156000608371838283938380E0DF91CF911F91A9
:101570000F91FF90BF90AF909F908F900895EF9242
:10158000FF920F931F93CF93DF93F82EE62EEA017D
:10159000022F60E00E942326182F833619F40E9440
:1015A0006D2623C08E2D0E947126182F8336E9F0F8
:1015B00061E08F2D0E942326182F833669F40E9444
:1015C0006D2613C07E018FEFE81AF80A0E94E2250B
:1015D00088831F5FE70101C011E0101798F30E9494
:1015E000042688830E946D2610E0812FDF91CF9121
:1015F0001F910F91FF90EF900895CF92DF92EF929D
:10160000FF920F931F93CF93DF93CDB7DEB726974B
:10161000CDBFDEBF6C017B018A0180E090E8A6E2CD
:10162000B4ECFA0180839183A283B383FB018083AE
:101630009183A283B383F60180839183A283B383D2
:1016400026E0AE014F5F5F4F61E08DE10E94BF0A6F
:10165000833609F464C0698170E0762F66278A8139
:10166000682B7595679575956795072E000C880B07
:10167000990B0E94692A20E030E040E859E30E947B
:101680001E2B26E636E245E754E40E941E2BF601A7
:1016900060837183828393836B8170E0762F6627EA
:1016A0008C81682B7595679575956795072E000C4D
:1016B000880B990B0E94692A20E030E040E859E34A
:1016C0000E941E2B26E636E245E754E40E941E2BBC
:1016D000F70160837183828393836D8170E0762F3D
:1016E00066278E81682B7595679575956795072E8A
:1016F000000C880B990B0E94692A20E030E040E83A
:1017000059E30E941E2B26E636E245E754E40E9488
:101710001E2BF801608371838283938380E0269679
:10172000CDBFDEBFDF91CF911F910F91FF90EF9062
:10173000DF90CF9008951F93CF93DF93D62F142F70
:1017400060E00E942326C82F882321F00E946D2686
:101750008C2F17C08D2F0E947126C82F882321F04F
:101760000E946D268C2F0DC0812F0E947126C82FDC
:10177000882321F00E946D268C2F03C00E946D26C5
:1017800080E0DF91CF911F910895CF93DF931F9257
:10179000CDB7DEB740E46BE28DE10E949B0B21E008
:1017A000AE014F5F5F4F6BE28DE10E94BF0A08C040
:1017B00021E0AE014F5F5F4F6BE28DE10E94BF0AF7
:1017C000898186FDF5CF40EC6FE08DE10E949B0B97
:1017D00042E06BE28DE10E949B0B4DE36AE28DE1FA
:1017E0000E949B0B89810F90DF91CF910895EF921A
:1017F000FF920F931F93CF93DF93CDB7DEB72E9752
:10180000CDBFDEBF8C0188E0EBE5F6EADE01119684
:1018100001900D928A95E1F7F80101900020E9F717
:1018200031973E2F301B90E081E006C0F801E80FB1
:10183000F11D208192278F5F8317C0F31F929F9322
:10184000CE0101969F938F937E0189E0E80EF11CF3
:10185000FF92EF920E946031B701C8010E94EA3006
:101860000F900F900F900F900F900F902E96CDBF6E
:10187000DEBFDF91CF911F910F91FF90EF90089500
:10188000E0E6F4E080E486838183A1E4B3E011978D
:10189000F1F7000085830895CF93DF93D62FC42FEF
:1018A00060E00E9423268D2F0E9471268C2F0E94BB
:1018B00071260E946D26DF91CF910895CF938823E2
:1018C00029F0813009F09EC0CDE301C0CCE34AE2AB
:1018D00060E08C2F0E944C0C41E760E08C2F0E944E
:1018E0004C0C4CE560E48C2F0E944C0C48E260E00C
:1018F0008C2F0E944C0C48E060E08C2F0E944C0C16
:101900004AE260E08C2F0E944C0C49E760E08C2F8B
:101910000E944C0C45ED60E08C2F0E944C0C40E77F
:1019200060E08C2F0E944C0C48E760E08C2F0E94F6
:101930004C0C48E060E08C2F0E944C0C46E060E0CC
:101940008C2F0E944C0C42E760E08C2F0E944C0CC4
:1019500040E060E48C2F0E944C0C4AE260E08C2F47
:101960000E944C0C49E760E08C2F0E944C0C4AED21
:1019700060E08C2F0E944C0C40E060E08C2F0E94B5
:101980004C0C4CED60E08C2F0E944C0C40E060E071
:101990008C2F0E944C0C41E860E08C2F0E944C0C74
:1019A0004FE760E08C2F0E944C0C49ED60E08C2FDB
:1019B0000E944C0C41EF60E08C2F0E944C0C4BEDD0
:1019C00060E08C2F0E944C0C40E460E08C2F0E9461
:1019D0004C0C48E760E08C2F0E944C0C48E260E021
:1019E0008C2F0E944C0C41E060E08C2F0E944C0C2C
:1019F00040E860E08C2F0E944C0C4CE060E08C2FA3
:101A00000E944C0CCF9108950E94400C80E00E94EF
:101A10005E0C81E00E945E0C2AE684E091E0215099
:101A200080409040E1F700C00895EF92FF920F933D
:101A30001F93CF93DF93CDB7DEB7E297CDBFDEBF65
:101A4000142F91E1E3E6F6EADE01929601900D9201
:101A50009A95E1F7811102C00CE301C00DE3CE01BC
:101A600001967C010E94F530F70101900020E9F712
:101A70003197EE19FF09719708F0198ABE016E5D62
:101A80007F4FCE0101960E94EA30113039F440E8D0
:101A900060E0802F0E944C0C10E012C040EC60E02F
:101AA000802F0E944C0CF8CFE1E0F0E0EC0FFD1F1E
:101AB000E10FF11D408160E4802F0E944C0C1F5FFC
:101AC000103190F381E090E08093162A9093172ACA
:101AD000E296CDBFDEBFDF91CF911F910F91FF90B6
:101AE000EF9008951F93CF93DF931F92CDB7DEB78A
:101AF000182F198241E0BE016F5F7F4F0E94150DC4
:101B000042E0BE016F5F7F4F812F0E94150D109242
:101B1000162A1092172A0F90DF91CF911F910895E6
:101B2000CF92DF92EF92FF920F931F93CF93DF93A9
:101B30006C018B017A01E90169E081E20E94FB09F5
:101B4000982F9295969596959370913021F493E6FF
:101B5000F60190830FC0923021F49FE6F601908346
:101B600009C0933021F494E7F601908303C098E70D
:101B7000F6019083982F969596959370913021F465
:101B800093E6F70190830FC0923021F49FE6F701AE
:101B9000908309C0933021F494E7F701908303C048
:101BA00098E7F7019083982F92959F7093709130EA
:101BB00021F49FE6F80190830FC0923021F493E660
:101BC000F801908309C0933021F494E7F8019083E1
:101BD00003C098E7F801908381FF03C080E3888306
:101BE00002C081E38883DF91CF911F910F91FF9015
:101BF000EF90DF90CF900895CF93DF93D82FC62F2B
:101C000069E084E20E94FB098D2B482F4C236AE097
:101C100084E20E942A0ADF91CF910895CF93DF9347
:101C2000CDB7DEB76A97CDBFDEBF99E0EEEAF6EA40
:101C3000DE01119601900D929A95E1F724E3829FBF
:101C4000C0011124FC01E35FF74D81818C3631F135
:101C500018F4823639F06AC08237C1F1833709F44B
:101C60004DC064C06AEE84E40E94FC0D66EE88E814
:101C70000E94FC0D84E796EA9F938F93CE01019614
:101C80009F938F9309969F938F930E9460310F903B
:101C90000F900F900F900F900F9059C06AEE84E450
:101CA0000E94FC0D89E796EA9F938F93CE010196DF
:101CB0009F938F9309969F938F930E9460310F900B
:101CC0000F900F900F900F900F9041C066EE88E834
:101CD0000E94FC0D8EE796EA9F938F93CE010196AA
:101CE0009F938F9309969F938F930E9460310F90DB
:101CF0000F900F900F900F900F9029C06CEE82E222
:101D00000E94FC0D84E896EA9F938F93CE01019682
:101D10009F938F9309969F938F930E9460310F90AA
:101D20000F900F900F900F900F9011C06CE876EA13
:101D300085EF91E00E9493078CE0E2EAF6EADE018B
:101D40001A9601900D928A95E1F783E60BC081E027
:101D50000E94720D41E0BE01665F7F4F81E00E94EC
:101D6000150D80E06A96CDBFDEBFDF91CF9108955B
:101D7000CF93DF93CDB7DEB76997CDBFDEBF98E0D5
:101D8000E7EDF6EADE01119601900D929A95E1F7E2
:101D900024E3829FC0011124FC01E35FF74D8181A0
:101DA0008C3631F118F4823639F06AC08237C1F1CD
:101DB000833709F44DC064C06EEA84E40E94FC0DD0
:101DC0006EE688E80E94FC0D84E796EA9F938F9365
:101DD000CE0101969F938F9308969F938F930E94B5
:101DE00060310F900F900F900F900F900F9059C08F
:101DF0006EEA84E40E94FC0D89E796EA9F938F9334
:101E0000CE0101969F938F9308969F938F930E9484
:101E100060310F900F900F900F900F900F9041C076
:101E20006EE688E80E94FC0D8EE796EA9F938F93FA
:101E3000CE0101969F938F9308969F938F930E9454
:101E400060310F900F900F900F900F900F9029C05E
:101E50006EEC82E20E94FC0D84E896EA9F938F93D9
:101E6000CE0101969F938F9308969F938F930E9424
:101E700060310F900F900F900F900F900F9011C046
:101E800067EB76EA85EF91E00E9493078BE0ECEC3C
:101E9000F6EADE01199601900D928A95E1F783E644
:101EA0000BC081E00E94720D41E0BE01675F7F4F71
:101EB00081E00E94150D80E06996CDBFDEBFDF9105
:101EC000CF9108951F920F920FB60F9211242F9366
:101ED0003F934F935F936F937F938F939F93AF93B2
:101EE000BF93EF93FF938091690488234CF480E8BB
:101EF0008093690468E081E20E94FB098093182ABC
:101F0000FF91EF91BF91AF919F918F917F916F91D1
:101F10005F914F913F912F910F900FBE0F901F90A7
:101F2000189584E080932104E0EAF4E0828380E263
:101F300081838BE0868BE0E4F4E088E08683818314
:101F4000ADE8B0E21197F1F70000858308952F9274
:101F50003F924F925F926F927F928F929F92AF9239
:101F6000BF92CF92DF92EF92FF920F931F93CF9386
:101F7000DF93CDB7DEB7C157D340CDBFDEBF95E409
:101F8000E9E2F8EADE01A65BBE4F01900D929A9558
:101F9000E1F793E2EEE6F8EADE01A157BE4F0190C9
:101FA0000D929A95E1F792E3E1E9F8EADE01AE5489
:101FB000BE4F01900D929A95E1F791E3E3ECF8EAB8
:101FC000DE01AC51BE4F01900D929A95E1F795E379
:101FD000E4EFF8EADE01AB5EBD4F01900D929A95F9
:101FE000E1F79CE1E9E2F9EADE01A65BBD4F019071
:101FF0000D929A95E1F792E1E5E4F9EADE01AA593A
:10200000BD4F01900D929A95E1F79DE2E7E5F9EA5F
:10201000DE01A858BD4F01900D929A95E1F793E12A
:10202000E4E8F9EADE01AB55BD4F01900D929A95B7
:10203000E1F793E1E7E9F9EADE01A854BD4F019029
:102040000D929A95E1F799E1EAEAF9EADE01A553E2
:10205000BD4F01900D929A95E1F795E2E3ECF9EA14
:10206000DE01AC51BD4F01900D929A95E1F79DE0D4
:10207000E8EEF9EADE01A75FBC4F01900D929A9558
:10208000E1F79DE0E5EFF9EADE01AA5EBC4F0190C1
:102090000D929A95E1F7082F10E084E3809FF001FC
:1020A000819FF00D1124E35FF74DE1818E2F90E0C9
:1020B000FC01E154F109E633F10508F0F8C5E458F4
:1020C000FF4F0C943B2FCE01865F9E4F0E94A606C9
:1020D00084E3809FF001819FF00D1124E35FF74DB1
:1020E000D1800F2EFFE3EF2EF02DED0CAE014C5CF6
:1020F0005C4F68E18E2D0E945419F82E83E6F81289
:1021000007C06FED76EA86E391E00E949307D9C598
:10211000AE01405D5C4F62E58E2D0E945419F82E91
:1021200093E6891307C063E077EA86E391E00E94B3
:102130009307C7C5BE01645D7C4F8E2D0E94C719F1
:10214000F82E83E6F81207C06DE277EA86E391E0A5
:102150000E949307B6C5BE016D5D7C4F8E2D0E9417
:10216000891CF82E93E6891307C060E577EA86E3B9
:1021700091E00E949307A5C524E3209FC001219F01
:10218000900D11248C01085C174D1F930F93CD5DAA
:10219000DC4F8881C352D3401F928F93C15DDC4FC7
:1021A0008881CF52D3408F93C25DDC4F8881CE525D
:1021B000D3408F93C35DDC4F8881CD52D3408F9342
:1021C000C45DDC4F8881CC52D3408F93CD5CDC4F13
:1021D0008881C353D3408F93CE5CDC4F8881C25338
:1021E000D3408F93CF5CDC4F8881C153D3408F9312
:1021F000C05DDC4F8881C053D3408F93C95CDC4FF6
:102200008881C753D3408F93CA5CDC4F8881C65303
:10221000D3408F93CB5CDC4F8881C553D3408F93E1
:10222000CC5CDC4F8881C453D3408F931F92DF92E4
:10223000CE01865F9E4F9F938F9388559F4F9F93AC
:102240008F93815B91405C019F938F930E946031DB
:10225000C5010E947F03BE016A5B7C4F8E2D0E94E8
:102260005A1AF82ECDBFDEBF93E6F91207C06FE60B
:1022700077EA86E391E00E94930723C5C25BDC4FB7
:10228000E881CE54D340C15BDC4FF881CF54D340BA
:10229000C05BDC4FA881C055D340CF5ADC4FB8811A
:1022A000C155D340C65BDC4F4881CA54D340C55B9F
:1022B000DC4F5881CB54D340C45BDC4F6881CC5495
:1022C000D340C35BDC4F7881CD54D340CA5BDC4F35
:1022D0008881C654D340C95BDC4F9881C754D34032
:1022E000C85BDC4F2881C854D340C75BDC4F3881C2
:1022F000C954D3401F930F93CB5ADC4FF880C55578
:10230000D340FF92CC5ADC4FF880C455D340FF92A3
:10231000CD5ADC4FF880C355D340FF92CE5ADC4FE4
:10232000F880C255D340FF92BF93AF93FF93EF93D2
:102330007F936F935F934F933F932F939F938F93CD
:102340001F92DF925E0186EFA81A8EEFB80ABF9245
:10235000AF92CE018C519E4F9F938F93835E91409D
:102360007C019F938F930E946031C7010E947F037D
:102370001F930F93CB59DC4F8881C556D3408F9361
:10238000CC59DC4F8881C456D3408F93CD59DC4F54
:102390008881C356D3408F93CE59DC4F8881C25673
:1023A000D3408F93CF59DC4F8881C156D3408F9350
:1023B000C05ADC4F8881C056D3408F93C15ADC4F3E
:1023C0008881CF55D3408F93C25ADC4F8881CE5538
:1023D000D3408F93C35ADC4F8881CD55D3408F9320
:1023E000C45ADC4F8881CC55D3408F93C55ADC4FFB
:1023F0008881CB55D3408F93C65ADC4F8881CA550C
:10240000D3408F93C75ADC4F8881C955D3408F93EF
:10241000C85ADC4F8881C855D3408F93C95ADC4FC6
:102420008881C755D3408F93CA5ADC4F8881C655DF
:10243000D3408F931F92DF92BF92AF92CE018B5EFB
:102440009D4F9F938F93FF92EF920E946031CDBF7B
:10245000DEBFC7010E947F03F12C33C4CE01865F2B
:102460009E4F0E94A60684E3809FF001819FF00D9D
:102470001124E35FF74D81810F2EFFE1EF2EF02D48
:10248000E80EBE016C5D7C4F8E2D0E94C618F82EA2
:1024900093E6891307C06BE877EA86E391E00E9430
:1024A00093070FC4CC5DDC4F688179818A819B8161
:1024B000C452D3402BE131E040E050E00E941C2F99
:1024C000F22ED32EC42EB52EBE01685D7C4F8E2D0C
:1024D0000E94DF1C833661F48FEF9FEFAFEFBFE701
:1024E000C85DDC4F88839983AA83BB83C852D340DD
:1024F000C85DDC4F688179818A819B81C852D34055
:102500002BE131E040E050E00E941C2FA22E932EE0
:10251000842E752EBE01685C7C4F8E2D0E9459184A
:10252000833671F46BEA77EA86E391E00E949307C1
:102530008FEF9FEFC85CDC4F88839983C853D340EB
:1025400024E3209FC001219F900D11249C01285C51
:10255000374DFC01E35FF74D81813F932F93C75CBB
:10256000DC4F9881C953D3409F93C85CDC4F98815E
:10257000C853D3409F937F928F929F92AF92BF9206
:10258000CF92DF92FF921F928F93CE01865F9E4F74
:102590009F938F938B579F4F9F938F938E010F5FC6
:1025A0001F4F1F930F930E946031C8010E947F0349
:1025B000CDBFDEBFF12C85C380E00E940025C05D49
:1025C000DC4F688379838A839B83C053D34080E048
:1025D0000E947B08D62EC72EB82EA92E81E00E941D
:1025E0000025CA59DC4F6883C656D340C959DC4F11
:1025F0007883C756D340C859DC4F8883C856D34028
:10260000C759DC4F9883C956D34081E00E947B08AC
:10261000C659DC4F6883CA56D340C559DC4F78830E
:10262000CB56D340C459DC4F8883CC56D340C359D2
:10263000DC4F9883CD56D34082E00E940025C259DA
:10264000DC4F6883CE56D340C159DC4F7883CF56D8
:10265000D340982E892E82E00E947B08762E672E2A
:10266000582E492E83E00E940025C059DC4F688314
:10267000C057D340CF58DC4F7883C157D340382E52
:10268000292E7E0196EFE91A9EEFF90AC7010E94F2
:10269000A60624E3209FC001219F900D1124885C91
:1026A000974D9F938F932F923F92CF58DC4F888105
:1026B000C157D3408F93C059DC4F9881C057D34046
:1026C0009F934F925F926F927F928F929F92C15988
:1026D000DC4F8881CF56D3408F93C259DC4F98810D
:1026E000CE56D3409F93C359DC4F8881CD56D340FB
:1026F0008F93C459DC4F9881CC56D3409F93C559D2
:10270000DC4F8881CB56D3408F93C659DC4F9881DC
:10271000CA56D3409F93C759DC4F8881C956D340CE
:102720008F93C859DC4F9881C856D3409F93C9599D
:10273000DC4F8881C756D3408F93CA59DC4F9881AC
:10274000C656D3409F93AF92BF92CF92DF92CD5C9B
:10275000DC4F8881C353D3408F93CE5CDC4F88819C
:10276000C253D3408F93CF5CDC4F8881C153D34099
:102770008F93C05DDC4F8881C053D3408F93FF920D
:10278000EF92CE01865B9E4F9F938F938E010F5FDA
:102790001F4F1F930F930E946031CDBFDEBFC80152
:1027A0000E947F0341E06BEC77EA81E00E94150D07
:1027B000C05DDC4FF880C053D340CF5CDC4FE88075
:1027C000C153D340CE5CDC4F9880C253D340CD5C24
:1027D000DC4F8880C353D34026E636E646EE5FE3FF
:1027E0006F2D7E2D892D982D0E941E2BAF92BF92AA
:1027F000CF92DF9220E030E040E052E40E944E2988
:102800009F938F937F936F938F929F92EF92FF92FC
:102810008BED97EA9F938F931F930F930E946031E4
:1028200042E0B80181E00E94150DCDBFDEBFF12C62
:1028300048C2AE014E5B5C4FBE01625C7C4FCE0174
:10284000865C9C4F0E94FD0A7E0196EFE91A9EEF7E
:10285000F90AC7010E94A60624E3209FC001219F18
:10286000900D1124885C974D9F938F93CB5BDC4F29
:102870008881C554D3408F93CC5BDC4F8881C4548E
:10288000D3408F93CD5BDC4F8881C354D3408F936B
:10289000CE5BDC4F8881C254D3408F93CF5BDC4F3B
:1028A0008881C154D3408F93C05CDC4F8881C05471
:1028B000D3408F93C15CDC4F8881CF53D3408F933B
:1028C000C25CDC4F8881CE53D3408F93C35CDC4F16
:1028D0008881CD53D3408F93C45CDC4F8881CC5327
:1028E000D3408F93C55CDC4F8881CB53D3408F930B
:1028F000C65CDC4F8881CA53D3408F93FF92EF921E
:10290000CE01865B9D4F9F938F938E010F5F1F4F6C
:102910001F930F930E946031C8010E947F0341E022
:1029200061EF77EA81E00E94150DCB5BDC4F888177
:10293000C554D3408F93CC5BDC4F8881C454D340C3
:102940008F93CD5BDC4F8881C354D3408F93CE5B94
:10295000DC4F8881C254D3408F93CF5BDC4F88819A
:10296000C154D3408F93C05CDC4F8881C054D340A6
:102970008F93C15CDC4F8881CF53D3408F93C25C6F
:10298000DC4F8881CE53D3408F93C35CDC4F88816A
:10299000CD53D3408F93C45CDC4F8881CC53D3405C
:1029A0008F93C55CDC4F8881CB53D3408F93C65C3B
:1029B000DC4F8881CA53D3408F93CE018A599D4FF3
:1029C0009F938F931F930F930E946031CDBFDEBF03
:1029D00042E0B80181E00E94150DF12C72C17E0128
:1029E00096EFE91A9EEFF90AC7010E94A6069E011A
:1029F000275B3E4FAE01485B5E4FBE01695B7E4F79
:102A0000CE018A5B9E4F0E94900D24E3209FC0015F
:102A1000219F900D1124885C974D9F938F93C75BE6
:102A2000DE4F8881C954D1401F928F93C85BDE4F1F
:102A30008881C854D1401F928F93C95BDE4F888133
:102A4000C754D1401F928F93CA5BDE4F8881C65412
:102A5000D1401F928F93FF92EF92CE0188589D4FE5
:102A60009F938F938E010F5F1F4F1F930F930E94B1
:102A70006031C8010E947F03C85BDE4F8881C85463
:102A8000D1401F928F93C95BDE4F8881C754D140DC
:102A90001F928F93CE018B559D4F9F938F931F93C2
:102AA0000F930E94603141E0B80181E00E94150D52
:102AB000C75BDE4F8881C954D1401F928F93CA5B98
:102AC000DE4F8881C654D1401F928F93CE01885427
:102AD0009D4F9F938F931F930F930E946031CDBFA3
:102AE000DEBF42E0B80181E00E94150DF12CE9C083
:102AF0007E0196EFE91A9EEFF90AC7010E94A60629
:102B00006E0182EEC81A8EEFD80AC6010E9419081B
:102B10005E019EECA91A9EEFB90AC5010E94490701
:102B200024E3209FC001219F900D1124885C974DC4
:102B30009F938F93BF92AF92DF92CF92FF92EF92CB
:102B4000CE0185539D4F9F938F938E010F5F1F4F33
:102B50001F930F930E946031C8010E947F0341E0E0
:102B60006DEF77EA81E00E94150DB701655F7F4F39
:102B700042E081E00E94150DCDBFDEBFF12CA1C067
:102B800081E00E945809D62EC72EB82EA92E82E0C9
:102B90000E945809962E872E782E692E7E0196EF78
:102BA000E91A9EEFF90AC7010E94A60624E3209FB6
:102BB000C001219F900D1124885C974D9F938F93A6
:102BC0006F927F928F929F92AF92BF92CF92DF923D
:102BD000FF92EF92CE018C519D4F9F938F938E0168
:102BE0000F5F1F4F1F930F930E946031C8010E9417
:102BF0007F0341E062E078EA81E00E94150D6F9268
:102C00007F928F929F92AF92BF92CF92DF92CE012E
:102C1000875F9C4F9F938F931F930F930E94603108
:102C200042E0B80181E00E94150DCDBFDEBFF12C5E
:102C300048C06E019FEFC90ED11CC6010E9450070B
:102C40007E0186EFE81A8EEFF80AC7010E94A606F9
:102C500024E3209FC001219F900D1124885C974D93
:102C60009F938F93DF92CF92FF92EF92CE018A5E75
:102C70009C4F9F938F938E010F5F1F4F1F930F9356
:102C80000E946031C8010E947F0341E061E276EA60
:102C900081E00E94150DC8010E94500742E0B80172
:102CA00081E00E94150DCDBFDEBFF12C0AC062E1AC
:102CB00078EA8AEC90E00E9493070F2EF3E6FF2E4D
:102CC000F02D8F2DCF58DC4FCDBFDEBFDF91CF91E0
:102CD0001F910F91FF90EF90DF90CF90BF90AF903A
:102CE0009F908F907F906F905F904F903F902F902C
:102CF0000895DC0140E050E080E090E01BC0FD0161
:102D0000E40FF51F208130E0322F222782279327FE
:102D100020E00CC099233CF4880F991F31E28327EF
:102D200030E1932702C0880F991F2F5F283090F35E
:102D30004F5F5F4F4617570710F30895CF92DF920A
:102D4000EF92FF920F931F93CF93DF93CDB7DEB730
:102D5000C358D109CDBFDEBF8B019FE2E2E0FAEAA2
:102D6000DE01119601900D929A95E1F7813859F0A4
:102D7000823831F0803809F071C064E170E005C03C
:102D80006CE170E002C068E170E0F82E24E0AE0172
:102D900040585F4F80E50E94CB07E82E83E6E8129B
:102DA00024C081EC8F0D1F928F93CE0101969F93CB
:102DB0008F936E01E0E3CE0ED11CDF92CF920E9482
:102DC0006031B60183E991E00E9493078FEF9FEF96
:102DD000DC01F80180839183A283B3830F900F906D
:102DE0000F900F900F900F903DC0C058DF4F88811B
:102DF000C058D04090E0A0E0B0E0782F662755277B
:102E00004427CF57DF4F9881C158D040892F90E099
:102E1000A0E0B0E0DC0199278827842B952BA62B16
:102E2000B72BCE57DF4F4881C258D04050E060E00A
:102E300070E0762F652F542F4427842B952BA62BDB
:102E4000B72BCD57DF4F2881C358D040822BF801D4
:102E500080839183A283B383E12C04C00F2EF3E619
:102E6000EF2EF02D8E2DCD57DF4FCDBFDEBFDF9182
:102E7000CF911F910F91FF90EF90DF90CF90089529
:102E80002F923F924F925F926F927F928F929F927A
:102E9000AF92BF92CF92DF92EF92FF920F931F9368
:102EA000CF93DF93CDB7DEB7CF58D109CDBFDEBF0B
:102EB000C157DF4F8883CF58D0407A01422E6DB67C
:102EC0007EB6C22ED12CC601029616012FEF221A11
:102ED000320AEDB7FEB7E81BF90BEDBFFEBF2DB709
:102EE0003EB72F5F3F4F5901890180E2ECE4FAEAD7
:102EF000DE01AF5ABF4F01900D928A95E1F78EE146
:102F0000ECE6FAEADE01AF58BF4F01900D928A95C8
:102F1000E1F76894552451F8540C10923A2B5092D2
:102F2000392BC157DF4F2881CF58D040EDB7FEB7BE
:102F30002183F501618362E0C5010E94A8271092F8
:102F400007281092082827C0809107289091082808
:102F5000C39708F1C157DF4F8881CF58D0408F53B6
:102F60001F928F93CE018F5A9F4F9F938F938E0105
:102F70000F5F1F4F1F930F930E946031B80180E3D2
:102F800091E00E9493070F900F900F900F900F9079
:102F90000F9083E675C090913A2B8091392B98174A
:102FA00098F280910728909108289F938F9381E34E
:102FB0009AEA9F938F939E012F5F3F4F49013F9362
:102FC0002F930E946031C4010E947F03F601E55CEB
:102FD000F54DC080D12CDC2CCC24F101E55CF54D05
:102FE0008081C82A0F900F900F900F900F900F9034
:102FF00022E00BC0822F90E0FC01E75CF54D3081B0
:10300000F801E80FF91F30832F5F251598F3652D20
:1030100070E0C5010E947916C816D90669F1C1573A
:10302000DF4F8881CF58D0408F531F928F93CE01AE
:103030008F589F4F9F938F938E010F5F1F4F1F934A
:103040000F930E946031B80181E391E00E949307E1
:103050000F900F900F900F900F900F9083E610C07D
:10306000822F90E0F701E80FF91FDC01A55CB54D58
:103070008C9180832F5F01C020E0241588F380E0CD
:103080006DBE7EBEC157DF4FCDBFDEBFDF91CF919A
:103090001F910F91FF90EF90DF90CF90BF90AF9076
:1030A0009F908F907F906F905F904F903F902F9068
:1030B0000895CF92DF92EF92FF920F931F93CF93D9
:1030C000DF93CDB7DEB7CD57D109CDBFDEBFE82E38
:1030D0008B0189E2EAE8FAEADE01119601900D928D
:1030E0008A95E1F724E0AE0146585F4F61E38E2DEB
:1030F0000E944017F82E83E6F81221C081EC8E0D55
:103100001F928F93CE0101969F938F936E01EAE2F7
:10311000CE0ED11CDF92CF920E946031B60186E3C1
:1031200091E00E9493078FEF9FEFF80180839183D6
:103130000F900F900F900F900F900F9019C0EB967B
:103140008FADEB9790E0982F8827EC962FADEC97FA
:10315000822B9C01220F331F880F991F880F991F04
:10316000880F991F820F931FF80180839183F12CA0
:103170008F2DC358DF4FCDBFDEBFDF91CF911F91A1
:103180000F91FF90EF90DF90CF900895EF92FF9214
:103190000F931F93CF93DF93CDB7DEB7CE57D109EF
:1031A000CDBFDEBFE82E8B0189E2EFEBFAEADE014C
:1031B000119601900D928A95E1F725E0AE014658EF
:1031C0005F4F60E18E2D0E944017F82E83E6F812C3
:1031D0001BC081EC8E0D1F928F93CE0101969F93A1
:1031E0008F938E01065D1F4F1F930F930E946031D6
:1031F000B80186E391E00E9493070F900F900F9023
:103200000F900F900F9044C0EB968FADEB9790E02E
:10321000A0E0B0E0782F662755274427EC969FADB5
:10322000EC97892F90E0A0E0B0E0DC019927882797
:10323000842B952BA62BB72BED964FADED9750E039
:1032400060E070E0762F652F542F4427842B952B58
:10325000A62BB72BEE962FADEE97822BF80180832D
:103260009183A283B383BF93AF939F938F9383EB99
:103270009AEA9F938F938E01065D1F4F1F930F93C2
:103280000E946031C8010E947F03CDBFDEBFF12CD8
:103290008F2DC258DF4FCDBFDEBFDF91CF911F9181
:1032A0000F91FF90EF900895CF92DF92EF92FF92EF
:1032B0000F931F93CF93DF93CDB7DEB7C957D109D3
:1032C000CDBFDEBFE82E8A0187E2E8EEFAEADE0132
:1032D000119601900D928A95E1F722E0AE014858CF
:1032E0005F4F8E2D0E944017F82E83E6F81225C0FE
:1032F00081EC8E0D1F928F93CE0101969F938F9339
:103300006E01E8E2CE0ED11CDF92CF920E946031B6
:10331000B60186E391E00E94930780E090E8A6E280
:10332000B4ECF80180839183A283B3830F900F9054
:103330000F900F900F900F901CC0E9966FADE9971A
:1033400070E0762F6627EA968FADEA97682B072EF6
:10335000000C880B990B0E94692A20E030E040E2C3
:1033600051E40E94BF29F8016083718382839383B3
:10337000F12C8F2DC758DF4FCDBFDEBFDF91CF912E
:103380001F910F91FF90EF90DF90CF900895CF9213
:10339000DF92EF92FF920F931F93CF93DF93CDB7FE
:1033A000DEB7C458D109CDBFDEBFE82E8B018CE259
:1033B000EFE0FBEADE01119601900D928A95E1F7AC
:1033C00028E0AE0143585F4F67E88E2D0E944017FA
:1033D000F82E83E6F8121BC081EC8E0D1F928F939E
:1033E000CE0101969F938F938E01035D1F4F1F9314
:1033F0000F930E946031B80186E391E00E94930729
:103400000F900F900F900F900F900F9045C0EE9679
:103410008FADEE9790E0A0E0B0E0F82EEE24DD2432
:10342000CC24EF964FADEF9750E060E070E0DA010A
:10343000992788278C299D29AE29BF29C158DF4F9C
:103440004881CF57D04050E060E070E0762F652F84
:10345000542F4427842B952BA62BB72BC058DF4F16
:103460002881C058D040822B880F991FAA1FBB1FEC
:10347000AC01BD01440F551F661F771F440F551F38
:10348000661F771F840F951FA61FB71FF801808343
:103490009183A283B383F12C8F2DCC57DF4FCDBF07
:1034A000DEBFDF91CF911F910F91FF90EF90DF90E2
:1034B000CF900895EF92FF920F931F93CF93DF93D6
:1034C000CDB7DEB7C159D109CDBFDEBFF82E8B0114
:1034D00085E2EBE3FBEADE01119601900D928A95FD
:1034E000E1F72CE1AE014A585F4F6FE38F2D0E9448
:1034F0004017E82E83E6E8121BC081EC8F0D1F9267
:103500008F93CE0101969F938F938E010A5D1F4F7B
:103510001F930F930E946031B80186E391E00E94EF
:1035200093070F900F900F900F900F900F90E5C1A1
:10353000E7964FADE79750E060E070E0742F6627A4
:1035400055274427E8968FADE89790E0A0E0B0E0DB
:10355000DC0199278827482B592B6A2B7B2BE9966E
:103560008FADE99790E0A0E0B0E0BA2FA92F982F97
:103570008827842B952BA62BB72BEA962FADEA979D
:10358000BC01CD01622B0E94692A20E030E040E8B6
:103590005AE30E941E2BF801608371838283938318
:1035A000EB964FADEB9750E060E070E0742F66272C
:1035B00055274427EC968FADEC9790E0A0E0B0E063
:1035C000DC0199278827482B592B6A2B7B2BED96FA
:1035D0008FADED9790E0A0E0B0E0BA2FA92F982F23
:1035E0008827842B952BA62BB72BEE962FADEE9725
:1035F000BC01CD01622B0E94692A20E030E040E846
:103600005AE30E941E2BF801648375838683978397
:10361000EF964FADEF9750E060E070E0742F6627B3
:1036200055274427C158DF4F8881CF57D04090E0BD
:10363000A0E0B0E0DC0199278827482B592B6A2BA2
:103640007B2BC058DF4F8881C058D04090E0A0E06D
:10365000B0E0BA2FA92F982F8827842B952BA62B63
:10366000B72BCF57DF4F2881C158D040BC01CD01C7
:10367000622B0E94692A20E030E040E85AE30E9471
:103680001E2BF8016087718782879387CE57DF4FA3
:103690008881C258D04090E0A0E0B0E0782F662743
:1036A00055274427CD57DF4F9881C358D040892FE5
:1036B00090E0A0E0B0E0DC0199278827842B952BCF
:1036C000A62BB72BCC57DF4F4881C458D04050E0D1
:1036D00060E070E0762F652F542F4427842B952BC4
:1036E000A62BB72BCB57DF4F2881C558D040822B54
:1036F00084879587A687B787CA57DF4F8881C658C2
:10370000D04090E0A0E0B0E0782F6627552744270E
:10371000C957DF4F9881C758D040892F90E0A0E06B
:10372000B0E0DC0199278827842B952BA62BB72B9B
:10373000C857DF4F4881C858D04050E060E070E083
:10374000762F652F542F4427842B952BA62BB72B30
:10375000C757DF4F2881C958D040822B808B918B6F
:10376000A28BB38BC657DF4F8881CA58D04090E0F8
:10377000A0E0B0E0782F662755274427C557DF4FD4
:103780009881CB58D040892F90E0A0E0B0E0DC01D8
:1037900099278827842B952BA62BB72BC457DF4F4F
:1037A0004881CC58D04050E060E070E0762F652F23
:1037B000542F4427842B952BA62BB72BC357DF4FB1
:1037C0002881CD58D040822B848B958BA68BB78BCC
:1037D000C257DF4F8881CE58D04090E0A0E0B0E0E3
:1037E000782F662755274427C157DF4F9881CF5838
:1037F000D040892F90E0A0E0B0E0DC019927882735
:10380000842B952BA62BB72BC057DF4F4881C0596F
:10381000D04050E060E070E0762F652F542F4427B1
:10382000842B952BA62BB72BCF56DF4F2881C15960
:10383000D040822B808F918FA28FB38F20E1AE0179
:103840004A585F4F67E38F2D0E944017E82EF3E63A
:103850008F131BC081EC8F0D1F928F93CE010196A9
:103860009F938F938E010A5D1F4F1F930F930E94AA
:103870006031B80186E391E00E9493070F900F90AA
:103880000F900F900F900F9038C0CE57DF4F888168
:10389000C258D04090E0A0E0B0E0782F66275527CE
:1038A0004427CD57DF4F9881C358D040892F90E0EF
:1038B000A0E0B0E0DC0199278827842B952BA62B6C
:1038C000B72BCC57DF4F4881C458D04050E060E060
:1038D00070E0762F652F542F4427842B952BA62B31
:1038E000B72BCB57DF4F2881C558D040822BF8012A
:1038F000848F958FA68FB78FE12C8E2DCF56DF4FFB
:10390000CDBFDEBFDF91CF911F910F91FF90EF9060
:103910000895CF92DF92EF92FF920F931F93CF9370
:10392000DF93CDB7DEB7C757D109CDBFDEBF082FB4
:103930007B0184E2E0E6FBEADE01119601900D9244
:103940008A95E1F723E0AE014B585F4F6BE4802F7F
:103950000E944017182F8336F1F40F531F920F93D4
:10396000CE0101969F938F936E0185E2C80ED11C04
:10397000DF92CF920E946031B60186E391E00E940F
:1039800093078FEFF70180830F900F900F900F90A8
:103990000F900F9006C0E7968FADE797F7018083F1
:1039A00010E0812FC958DF4FCDBFDEBFDF91CF912F
:1039B0001F910F91FF90EF90DF90CF900895EF92BD
:1039C000FF920F931F93CF93DF93CDB7DEB7C1580C
:1039D000D109CDBFDEBFE82E8B018CE2E4E8FBEA23
:1039E000DE01119601900D928A95E1F725E0AE0176
:1039F00043585F4F62E18E2D0E944017F82E83E6F8
:103A0000F8121BC081EC8E0D1F928F93CE01019690
:103A10009F938F938E01035D1F4F1F930F930E94FF
:103A20006031B80186E391E00E9493070F900F90F8
:103A30000F900F900F900F9034C0EE968FADEE97D1
:103A400090E0A0E0B0E0782F662755274427EF9656
:103A50009FADEF97892F90E0A0E0B0E0DC019927BF
:103A60008827842B952BA62BB72BC158DF4F488175
:103A7000CF57D04050E060E070E0762F652F542F94
:103A80004427842B952BA62BB72BC058DF4F2881BA
:103A9000C058D040822BF80180839183A283B383E6
:103AA000F12C8F2DCF57DF4FCDBFDEBFDF91CF91F0
:103AB0001F910F91FF90EF900895EF92FF920F9357
:103AC0001F93CF93DF93CDB7DEB7CE57D109CDBFCC
:103AD000DEBF8AE2E0EBFBEADE01119601900D9277
:103AE0008A95E1F7EF961CAE1DAE1EAE1FAEEF97A6
:103AF00000E010E830C0BE0165587F4F812F0E9462
:103B0000DF1C8336E1F41F9281EC810F8F93CE018D
:103B100001969F938F937E018BE2E80EF11CFF923A
:103B2000EF920E946031B70186E391E00E94930713
:103B30000F900F900F900F900F900F900BC0EF967B
:103B40008CAD9DADAEADBFADEF97892B8A2B8B2B86
:103B500009F00F5F1F5F113870F2802FC258DF4FDE
:103B6000CDBFDEBFDF91CF911F910F91FF90EF90FE
:103B70000895DF92EF92FF920F931F93CF93DF93FD
:103B8000CDB7DEB7C75FD109CDBFDEBF81E3EAEDB8
:103B9000FBEADE01119601900D928A95E1F78BE226
:103BA000EBE0FCEADE01D29601900D928A95E1F7F6
:103BB0008AE3E6E3FCEADE01A35ABF4F01900D92CF
:103BC0008A95E1F780E8C551DF4F8883CB5ED0400E
:103BD00081E8C451DF4F8883CC5ED04082E8C35176
:103BE000DF4F8883CD5ED04086E0ECE4F4EADE016E
:103BF000A251BF4F01900D928A95E1F7E12CA6C02A
:103C00000E2D10E0EBEEF0E0EC0FFD1FE00FF11FCA
:103C1000D080BE016C507F4F8D2D0E94C618F82EAB
:103C200023E682131BC081EC8D0D1F928F93CE0172
:103C300001969F938F938E0109561F4F1F930F93E9
:103C40000E946031B80186E391E00E9493070F90D3
:103C50000F900F900F900F900F907CC0CC50DF4FC3
:103C600088819981AA81BB81C45FD040AC01BD012C
:103C7000485F534B6E4F7F4F493554446E4071053A
:103C800000F181EC8D0D1F928F93CE01835A9F4FCF
:103C90009F938F938E0109561F4F1F930F930E947E
:103CA0006031B80186E391E00E9493070F900F9076
:103CB0000F900F900F900F900F2EF3E6FF2EF02D28
:103CC00049C0C951DF4FB883C75ED040C851DF4FEC
:103CD000A883C85ED040C751DF4F9883C95ED040EB
:103CE000C651DF4F8883CA5ED040000F111FEEEE31
:103CF000F0E0EC0FFD1FE00FF11F1081718124E057
:103D0000AE0149515F4F612F80E50E944908F82EAE
:103D100083E6F8121AC01F531F921F93CE01C2965A
:103D20009F938F938E0109561F4F1F930F930E94ED
:103D30006031B80183E991E00E9493070F900F90E2
:103D40000F900F900F900F9005C0E394EE2009F4B0
:103D500057CFF12C8F2DC950DF4FCDBFDEBFDF9184
:103D6000CF911F910F91FF90EF90DF9008958F9268
:103D70009F92AF92BF92CF92DF92EF92FF920F93FA
:103D80001F93CF93DF93CDB7DEB7C559D109CDBF10
:103D9000DEBFA82EB22ECDB6DEB680E2EBE8FCEA9E
:103DA000DE01119601900D928A95E1F785E2EBEA2A
:103DB000FCEADE01919601900D928A95E1F7822E40
:103DC000912CC4010496740123E0E20EF11CADB7FE
:103DD000BEB7A81BB90BADBFBEBF0DB71EB70F5FF7
:103DE0001F4FF80110923A2B81E08093392B1196E6
:103DF000AC92618360E00EC0862F90E09C012E5F44
:103E00003F4FDA01A80FB91F8C91DF01A20FB31F3A
:103E10008C936F5F6B1580F3B2E08B0E911CB40135
:103E2000C8010E947916D801A80DB91D9C93F8010C
:103E3000EE0DFF1D808364E06B0DC8010E94A82772
:103E4000109207281092082823C08091072890918B
:103E50000828C397E0F081EC8A0D1F928F93CE0162
:103E600001969F938F938E010A5B1F4F1F930F93B1
:103E70000E946031B80186E391E00E9493070F90A1
:103E80000F900F900F900F900F9083E641C00000AD
:103E900090913A2B8091392B9817B8F2809107288E
:103EA000909108289F938F9380E79CEA9F938F932C
:103EB0008E010A5B1F4F1F930F930E946031C80150
:103EC0000E947F0390913B2A0F900F900F900F90CC
:103ED0000F900F909F3FD9F081EC8A0D1F929F9316
:103EE0001F928F93CE0181969F938F931F930F9371
:103EF0000E946031B80186E391E00E9493072DB7DC
:103F00003EB7285F3F4F2DBF3EBF83E601C080E034
:103F1000CDBEDEBECB56DF4FCDBFDEBFDF91CF9132
:103F20001F910F91FF90EF90DF90CF90BF90AF90D7
:103F30009F908F900895EF92FF920F931F93CF93CE
:103F4000DF93CDB7DEB7C358D109CDBFDEBFF82EA2
:103F500082E2EBEDFCEADE01119601900D928A956A
:103F6000E1F7E4961FAEE497E5961FAEE5979BE177
:103F7000E6969FAFE69785EAE7968FAFE797E896D4
:103F80001FAEE897E9961FAEE997EA969FAFEA97CA
:103F9000EB968FAFEB97EC961FAEEC97ED961FAEBE
:103FA000ED978DE0EE968FAFEE9782EDEF968FAFA7
:103FB000EF97C158DF4F7883CF57D040C058DF4FBD
:103FC0006883C058D040CF57DF4F5883C158D04086
:103FD000CE57DF4F4883C258D040CD57DF4F1882AD
:103FE000C358D0407F936F935F934F9380ED9CEACB
:103FF0009F938F938E010D5D1F4F1F930F930E9410
:104000006031C8010E947F0321E1AE014D585F4F2E
:1040100061E48F2D0E94B71E182FCDBFDEBF13366F
:10402000E1F481EC8F0D1F928F93CE0101969F9347
:104030008F937E0193E2E90EF11CFF92EF920E94B2
:104040006031B70186E391E00E9493070F900F90D3
:104050000F900F900F900F9001C010E0812FCD575F
:10406000DF4FCDBFDEBFDF91CF911F910F91FF904A
:10407000EF900895EF92FF920F931F93CF93DF93EA
:10408000CDB7DEB7CD57D109CDBFDEBF082F89E24E
:10409000EDE7FDEADE01119601900D928A95E1F7B8
:1040A000EB967FAFEB97EC966FAFEC97ED965FAF2B
:1040B000ED97EE964FAFEE9724E0AE0146585F4F76
:1040C00066E1802F0E94B71E182F8336D9F40F5354
:1040D0001F920F93CE0101969F938F937E018AE2E8
:1040E000E80EF11CFF92EF920E946031B70186E367
:1040F00091E00E9493070F900F900F900F900F90F8
:104100000F9001C010E0812FC358DF4FCDBFDEBF3D
:10411000DF91CF911F910F91FF90EF900895EF9253
:10412000FF920F931F93CF93DF93CDB7DEB7C458A1
:10413000D109CDBFDEBF082F8CE2E6EAFDEADE0141
:10414000119601900D928A95E1F7CB01BA012AE010
:1041500030E040E050E00E941C2FEE965FAFEE97FB
:10416000EF964FAFEF97C158DF4F3883CF57D0400E
:10417000C058DF4F2883C058D040CC57DF4F18823B
:10418000C458D040CD57DF4F1882C358D040CE57C7
:10419000DF4F1882C258D040CF57DF4F1882C15826
:1041A000D04028E0AE0143585F4F65E8802F0E9461
:1041B000B71E182F8336D9F40F531F920F93CE01D9
:1041C00001969F938F937E018DE2E80EF11CFF9282
:1041D000EF920E946031B70186E391E00E9493075D
:1041E0000F900F900F900F900F900F9001C010E064
:1041F000812FCC57DF4FCDBFDEBFDF91CF911F9115
:104200000F91FF90EF9008959F92AF92BF92CF923F
:10421000DF92EF92FF920F931F93CF93DF93CDB76F
:10422000DEB7CF5BD109CDBFDEBF082F89E2E2ED5B
:10423000FDEADE01119601900D928A95E1F78AE27E
:10424000EBEFFDEADE019A9601900D928A95E1F777
:10425000C353DF4F688179818A819B81CD5CD040D7
:1042600020E030E040E854E40E941E2B0E94312AF6
:10427000C62EB72EA82E992ECF52DF4F6881798196
:104280008A819B81C15DD04020E030E040E854E469
:104290000E941E2B0E94312A162FF72EE82ED92EAF
:1042A000CB52DF4F688179818A819B81C55DD04087
:1042B00020E030E040E854E40E941E2B0E94312AA6
:1042C000CC55DF4F9883C45AD040CB55DF4F8883FD
:1042D000C55AD040CA55DF4F7883C65AD040C95519
:1042E000DF4F6883C75AD040C855DF4F9882C85AFD
:1042F000D040C755DF4FA882C95AD040C655DF4FBE
:10430000B882CA5AD040C555DF4FC882CB5AD04078
:10431000C455DF4FD882CC5AD040C355DF4FE88216
:10432000CD5AD040C255DF4FF882CE5AD040C15549
:10433000DF4F1883CF5AD040C752DF4F8881C95D05
:10434000D040C652DF4F9881CA5DD040C552DF4F82
:104350002881CB5DD040C452DF4F3881CC5DD04046
:10436000C055DF4F3883C05BD040CF54DF4F288328
:10437000C15BD040CE54DF4F9883C25BD040CD5458
:10438000DF4F8883C35BD040C352DF4F8881CD5D50
:10439000D040C252DF4F9881CE5DD040C152DF4F36
:1043A0002881CF5DD040C052DF4F3881C05ED04001
:1043B000CC54DF4F3883C45BD040CB54DF4F2883CD
:1043C000C55BD040CA54DF4F9883C65BD040C95408
:1043D000DF4F8883C75BD040CF51DF4F8881C15EFC
:1043E000D040CE51DF4F9881C25ED040CD51DF4FDB
:1043F0002881C35ED040CC51DF4F3881C45ED040AD
:10440000C854DF4F3883C85BD040C754DF4F288380
:10441000C95BD040C654DF4F9883CA5BD040C554B7
:10442000DF4F8883CB5BD040CB51DF4F8881C55EA7
:10443000D040CA51DF4F9881C65ED040C951DF4F8E
:104440002881C75ED040C851DF4F3881C85ED04058
:10445000C454DF4F3883CC5BD040C354DF4F288334
:10446000CD5BD040C254DF4F9883CE5BD040C15467
:10447000DF4F8883CF5BD0402CE1AE014C555F4FBE
:104480006DE3802F0E94B71E182F8336D9F40F5387
:104490001F920F93CE0101969F938F937E0184E527
:1044A000E80EF11CFF92EF920E946031B70186E3A3
:1044B00091E00E9493070F900F900F900F900F9034
:1044C0000F908BC0C955DF4F1882C75AD040CA55CC
:1044D000DF4F1882C65AD040CB55DF4F1882C55ADD
:1044E000D040CC55DF4F1882C45AD040C555DF4F5D
:1044F0001882CB5AD040C655DF4F1882CA5AD040D6
:10450000C755DF4F1882C95AD040C855DF4F1882AF
:10451000C85AD040C155DF4F1882CF5AD040C2553B
:10452000DF4F1882CE5AD040C355DF4F1882CD5A84
:10453000D040C455DF4F1882CC5AD040C751DF4F0E
:104540008881C95ED040C651DF4F9881CA5ED04095
:10455000C551DF4F2881CB5ED040C451DF4F388139
:10456000CC5ED040C055DF4F3883C05BD040CF54C5
:10457000DF4F2883C15BD040CE54DF4F9883C25BAE
:10458000D040CD54DF4F8883C35BD04020E1AE01E3
:104590004C555F4F6CE1802F0E94B71E182F833659
:1045A000D9F40F531F920F93CE018A969F938F9346
:1045B0007E0184E5E80EF11CFF92EF920E946031CB
:1045C000B70186E391E00E9493070F900F900F9040
:1045D0000F900F900F9001C010E0812FC154DF4F5A
:1045E000CDBFDEBFDF91CF911F910F91FF90EF9074
:1045F000DF90CF90BF90AF909F900895EF92FF9281
:104600000F931F93CF93DF93CDB7DEB7CB57D1096D
:10461000CDBFDEBF082F88E2E5E2FEEADE0111969B
:1046200001900D928A95E1F7EA961FAEEA9782E72C
:10463000EB968FAFEB97EC961FAEEC9723E0AE01B5
:1046400047585F4F6AE4802F0E94B71E182F8336A9
:10465000D9F40F531F920F93CE0101969F938F931E
:104660007E0189E2E80EF11CFF92EF920E94603118
:10467000B70186E391E00E9493070F900F900F908F
:104680000F900F900F9001C010E0812FC558DF4FA1
:10469000CDBFDEBFDF91CF911F910F91FF90EF90C3
:1046A00008951F93CF93DF93CDB7DEB7A497CDBF07
:1046B000DEBF2AE684E091E0215080409040E1F79F
:1046C00000C080E090E0A0E9B2E48D839E83AF83D8
:1046D000B88780E090E0A0E8BFE389879A87AB873E
:1046E000BC8780E090E0ABE9B3E48D879E87AF871D
:1046F000B88B80E990E0A0E0B0E0898B9A8BAB8B1F
:10470000BC8B86E090E0A0E0B0E08D8B9E8BAF8B01
:10471000B88F88EF93EBAEEFBFEF898F9A8FAB8F97
:10472000BC8F80E598EFACE0B0E08D8F9E8FAF8FAF
:10473000B8A380EB96E3A0E0B0E089A39AA3ABA373
:10474000BCA310923A2A8BE08093392A10E82CC03F
:10475000BE016F5F7F4F812F0E949E1649815A8153
:104760006B817C81812F0E943A2040ED57E060E010
:1047700070E0812F0E948F208DB79EB780978DBFEC
:104780009EBFADB7BEB7119680E2FE01359601908F
:104790000D928A95E1F7812F0E940421CDBFDEBFE3
:1047A000812F0E94FE221F5F133890F280E0A496B2
:1047B000CDBFDEBFDF91CF911F910895EF92FF92A1
:1047C0000F931F93CF93DF93CDB7DEB7C357D109B4
:1047D000CDBFDEBF082F82E2EDE4FEEADE01AE5A75
:1047E000BF4F01900D928A95E1F762961FAE6297D6
:1047F00021E0AE014F5A5F4F60E0802F0E94B71E4C
:10480000182F8336D9F40F531F920F93CE018E5A6F
:104810009F4F9F938F93815591097C019F938F9315
:104820000E946031B70186E391E00E9493070F90E8
:104830000F900F900F900F900F9001C010E0812FFC
:10484000CD58DF4FCDBFDEBFDF91CF911F910F91CC
:10485000FF90EF900895CF92DF92EF92FF921F9317
:10486000CF93DF9300D000D0CDB7DEB7E82EF12C88
:1048700084E38E9DF0018F9DF00D1124E35FF74DD1
:104880008181883561F028F49FEB980F933060F0B8
:1048900024C0813610F1843670F08837F1F480E856
:1048A0000E94DE2310E056C01FE3180F19821A82FF
:1048B0001B821C821AC01FE1180FBE016F5F7F4F61
:1048C000812F0E94C618833681F46FE67EEA85E365
:1048D00091E00E94930713E63DC067E97EEA86E314
:1048E00091E00E94930713E635C084E38E9DF001AA
:1048F0008F9DF00D1124E35FF74D8281882339F1FC
:1049000024E32E9DC0012F9D900D1124815F974DB2
:104910000E94E02F9B01AC01ABE1B1E00E94412F6E
:10492000C980DA80EB80FC80AB01BC014C0D5D1DC1
:104930006E1D7F1D812F0E949B1F182F833649F407
:1049400065EB7EEA86E391E00E94930703C010E0E6
:1049500001C013E6812F2496CDBFDEBFDF91CF913A
:104960001F91FF90EF90DF90CF9008951F93CF930A
:10497000DF9390E024E3289FF001299FF00D11249C
:10498000E35FF74D2181243779F524E3289FE00187
:10499000299FD00D1124C15FD74DFE010190002049
:1049A000E9F73197EC1BFD0B739741F066ED7EEA5A
:1049B0008AE592E00E94930713E61DC0CE010E9493
:1049C0001207182F833639F46BEE7EEA8BE592E0FE
:1049D0000E94930710C024E1AE0160E070E080E522
:1049E0000E94490810E007C064E07FEA89E592E090
:1049F0000E94930713E6812FDF91CF911F910895B5
:104A0000CF93DF9300D000D0CDB7DEB7833018F05E
:104A1000833039F00BC0BE016F5F7F4F0E944701AA
:104A20000DC0CE0101960E94580A08C080E090E8AF
:104A3000A6E2B4EC89839A83AB83BC8369817A81D3
:104A40008B819C8120E030E048E452EC0E94BA293E
:104A5000882344F480E090E8A6E2B4EC89839A834A
:104A6000AB83BC8369817A818B819C812496CDBF85
:104A7000DEBFDF91CF91089580E80E94DE23089584
:104A8000AC01E0E6F0E0948D9E7F88ED84BF948FCA
:104A900001C000009091630096FDFBCFE0E6F0E0DE
:104AA000948D9B7F28ED24BF948F948D916024BFBB
:104AB000948F01C00000909141019111FBCFE0E47F
:104AC000F1E04287538782E0878385818160858317
:104AD00081EB808382818160828308951F920F928F
:104AE0000FB60F9211248F939F9381E0809343011F
:104AF0008091162A9091172A01968093162A9093F6
:104B0000172A80E28093A70480913A2A8F5F8093CE
:104B10003A2A9F918F910F900FBE0F901F9018957A
:104B200025E03DE0AC01429FC001439F900D529FA4
:104B3000900D1124E0E8FAE08487958781E0858371
:104B4000808308951F920F920FB60F9211248F93B6
:104B50009F9381E08093860A809103289091042896
:104B600001968093032890930428809107289091C0
:104B7000082801968093072890930828809101289F
:104B800090910228019680930128909302288091A9
:104B90000528909106280196809305289093062871
:104BA0009F918F910F900FBE0F901F901895E0EA84
:104BB000F8E08BE0868383818160838385818160D7
:104BC0008583089510920528109206280FC00000D2
:104BD0008091052890910628C39740F06EE07FEA07
:104BE00081E991E00E9493078FEF08958091A508D5
:104BF00088236CF7E0EAF8E084818B7F84838085EA
:104C0000948192609483089510920528109206284A
:104C10000FC000008091052890910628C39740F0AE
:104C20006FE17FEA81E991E00E9493078FEF089599
:104C30008091A50888236CF7E0EAF8E0848184601D
:104C4000848380850895613039F490E0880F991F3E
:104C500081608093A70803C0880F8093A7081092F3
:104C60000528109206280FC0000080910528909119
:104C70000628C39740F060E37FEA81E991E00E9453
:104C8000930783E608958091A508807C69F380915D
:104C9000A50882FF08C062E47FEA81E991E00E94F2
:104CA000930783E608958091A50883FF08C06AE40E
:104CB0007FEA81E991E00E94930783E6089590914D
:104CC000A508892F807194FF07C06AE57FEA81E912
:104CD00091E00E94930783E6089587E08093A408FB
:104CE0000895109205281092062810C00000209107
:104CF0000528309106282333310540F062E77FEA2A
:104D000081E991E00E94930783E608959091A508B8
:104D100096FFECCF8093A8081092052810920628E1
:104D20000FC000008091052890910628C39740F09D
:104D300063E87FEA81E991E00E94930783E60895A2
:104D40008091A50886FFEDCF9091A508892F8071ED
:104D500094FF07C064E97FEA81E991E00E9493072C
:104D600083E60895E0E0F4E081E085838183E0E07C
:104D7000F8E024E730E020873187958190689583BB
:104D80009681906496839681906896831092412FC5
:104D90001092422F8093462F10923D2E10923E2E5D
:104DA00010923F2D1092402E1092422EE0E4F4E03B
:104DB00085838183E0E2F8E027EE30E020873187C9
:104DC000958190689583968190649683968190688A
:104DD000968310924D3210924E328093523210923E
:104DE000392D10923A2D10923B2C10923C2D10929E
:104DF0003E2DE0E2F4E085838183E0E6F8E02DE6F5
:104E000035E02087318796819064968396819068FB
:104E1000968380934E3110924A3008950F931F93DA
:104E2000CF93DF93EB01142F8130B1F120F0833069
:104E300009F481C088C01092462F20E011C0E1E43F
:104E4000FFE2808190E03881DC01AD5BB14D3C93A5
:104E500001966EEF70E00E94082F80832F5F2196ED
:104E6000211768F3E0E0F8E0858180628583109285
:104E70000328109204280BC08091032890910428E5
:104E80008536910520F081E08093462F5CC08091AB
:104E9000462F882389F357C0642F70E0CE010E940B
:104EA0007916482F092F20E011C0EDE4F2E380814C
:104EB00090E03881DC01A15BBE4C3C9301966EEF23
:104EC00070E00E94082F80832F5F2196211768F3DE
:104ED000EDE4F2E3808190E0DC01A15BBE4C0C9339
:104EE00001962EEF30E0B9010E94082F90E0DC011E
:104EF000A15BBE4C4C930196B9010E94082F8083A0
:104F00001E5F10934F32E0E2F8E085818062858376
:104F10001AC0E9E4F1E3808190E03881DC01A55B0F
:104F2000BF4C3C9301966EEF70E00E94082F808387
:104F30002F5F219601C020E0211758F3E0E6F8E04A
:104F4000858180628583DF91CF911F910F910895B4
:104F50001F93CF93DF93EC01162F70E00E94791618
:104F600010923A2C22E0210F2093392C20E008C027
:104F7000E22FF0E03881E55CF44D30832F5F21961D
:104F80002117B0F3212F30E0F901E55CF44D908357
:104F9000F901E45CF44D8083E0E2F8E08581806211
:104FA0008583DF91CF911F9108951F920F920FB6C5
:104FB0000F9211245F936F937F938F939F93AF937F
:104FC000BF93EF93FF93909100088091402E8D3F07
:104FD00010F59D3051F481E08093422EE0913D2EFA
:104FE000F0E0E15CF24D108206C0E0913D2EF0E071
:104FF000E15CF24D9083E0E4FEE280818F5F80838C
:10500000EDE3FEE2808190E001966EEF70E00E9499
:10501000082F80830AC010923D2E10923E2E1092CF
:105020003F2D1092402E1092422EFF91EF91BF9192
:10503000AF919F918F917F916F915F910F900FBE74
:105040000F901F9018951F920F920FB60F92112478
:105050002F938F939F93EF93FF93E0E0F8E0858188
:105060008F7D85838091412FE091422F8E17D1F063
:1050700081E08E0F8093422FF0E0ED5BF14D908147
:105080009093020891E08E3F08F490E09195292FCB
:10509000220F821B8093422FE0E0F8E0858180623E
:1050A000858303C081E08093462FFF91EF919F910C
:1050B0008F912F910F900FBE0F901F9018951F92F8
:1050C0000F920FB60F9211248F93AF93BF93EF936C
:1050D000FF93AAE3BBE2EC9181E08E0F8C93F0E0AA
:1050E00080912008E55CF54D8083FF91EF91BF91A1
:1050F000AF918F910F900FBE0F901F9018951F9238
:105100000F920FB60F9211248F939F93AF93BF937B
:10511000CF93DF93EF93FF93A0E2B8E015968C91C5
:1051200015978F7D15968C931597C1E5D2E3E8818D
:1051300081E08E0F8883F0E0E55CF44D808112966B
:105140008C9390913A2C8091392C981728F4E0E2B6
:10515000F8E0858180628583FF91EF91DF91CF91A7
:10516000BF91AF919F918F910F900FBE0F901F90A5
:1051700018951F920F920FB60F9211248F939F9341
:10518000AF93BF93EF93FF93809160088D3021F030
:10519000E0914930ED3F78F081E080934A30A9E416
:1051A000B0E38C91E82FF0E0E95BF04D1082809342
:1051B00047301C9208C091E09E0F90934930F0E078
:1051C000E95BF04D8083FF91EF91BF91AF919F918B
:1051D0008F910F900FBE0F901F9018951F920F92F6
:1051E0000FB60F9211248F939F93AF93BF93EF93BA
:1051F000FF93ADE4B1E3EC9181E08E0F8C93F0E08E
:10520000E55BFF4C90819093620890914B31891738
:1052100040F0E0E6F8E085818F7D858381E0809332
:105220004E31FF91EF91BF91AF919F918F910F9070
:105230000FBE0F901F90189588ED84BF81E080937A
:10524000000108951F920F920FB60F9211242F9311
:105250003F934F935F936F937F938F939F93AF93FE
:10526000BF93EF93FF938091A90486FF05C080E46C
:105270008093A9040E941C29FF91EF91BF91AF91E7
:105280009F918F917F916F915F914F913F912F915E
:105290000F900FBE0F901F9018955058BB27AA274C
:1052A0000E9465290C94DF2A0E94D12A38F00E94BE
:1052B000D82A20F039F49F3F19F426F40C94CE2A12
:1052C0000EF4E095E7FB0C94C82AE92F0E94F02A1F
:1052D00058F3BA17620773078407950720F079F42B
:1052E000A6F50C94122B0EF4E0950B2EBA2FA02DE0
:1052F0000B01B90190010C01CA01A0011124FF2783
:10530000591B99F0593F50F4503E68F11A16F0407D
:10531000A22F232F342F4427585FF3CF469537957C
:105320002795A795F0405395C9F77EF41F16BA0B41
:10533000620B730B840BBAF09150A1F0FF0FBB1FEF
:10534000661F771F881FC2F70EC0BA0F621F731F38
:10535000841F48F4879577956795B795F7959E3F95
:1053600008F0B0CF9395880F08F09927EE0F979526
:10537000879508950E94A42A08F481E008950E9468
:10538000D3290C94DF2A0E94D82A58F00E94D12AEF
:1053900040F029F45F3F29F00C94C82A51110C9475
:1053A000132B0C94CE2A0E94F02A68F39923B1F3B0
:1053B000552391F3951B550BBB27AA27621773073B
:1053C000840738F09F5F5F4F220F331F441FAA1FCF
:1053D000A9F335D00E2E3AF0E0E832D0915050408B
:1053E000E695001CCAF72BD0FE2F29D0660F771F39
:1053F000881FBB1F261737074807AB07B0E809F01F
:10540000BB0B802DBF01FF2793585F4F3AF09E3FA3
:10541000510578F00C94C82A0C94132B5F3FE4F3E9
:10542000983ED4F3869577956795B795F7959F5FE6
:10543000C9F7880F911D9695879597F90895E1E032
:10544000660F771F881FBB1F621773078407BA0791
:1054500020F0621B730B840BBA0BEE1F88F7E095EC
:1054600008950E94382A6894B1110C94132B089562
:105470000E94F82A88F09F5798F0B92F9927B751C2
:10548000B0F0E1F0660F771F881F991F1AF0BA95E8
:10549000C9F714C0B13091F00E94122BB1E0089509
:1054A0000C94122B672F782F8827B85F39F0B93FFB
:1054B000CCF3869577956795B395D9F73EF490959B
:1054C0008095709561957F4F8F4F9F4F0895E89419
:1054D00009C097FB3EF490958095709561957F4F3C
:1054E0008F4F9F4F9923A9F0F92F96E9BB279395EA
:1054F000F695879577956795B795F111F8CFFAF4FA
:10550000BB0F11F460FF1BC06F5F7F4F8F4F9F4F2A
:1055100016C0882311F096E911C0772321F09EE888
:10552000872F762F05C0662371F096E8862F70E0EE
:1055300060E02AF09A95660F771F881FDAF7880FC8
:105540009695879597F90895990F0008550FAA0B1E
:10555000E0E8FEEF16161706E807F907C0F0121686
:105560001306E407F50798F0621B730B840B950B89
:1055700039F40A2661F0232B242B252B21F40895DE
:105580000A2609F4A140A6958FEF811D811D08957B
:1055900097F99F6780E870E060E008959FEF80ECE6
:1055A000089500240A941616170618060906089589
:1055B00000240A9412161306140605060895092EEF
:1055C0000394000C11F4882352F0BB0F40F4BF2B5E
:1055D00011F460FF04C06F5F7F4F8F4F9F4F08959E
:1055E00057FD9058440F551F59F05F3F71F0479594
:1055F000880F97FB991F61F09F3F79F08795089579
:10560000121613061406551FF2CF4695F1DF08C097
:10561000161617061806991FF1CF869571056105B4
:1056200008940895E894BB2766277727CB0197F95C
:1056300008950E94A42A08F48FEF08950E94312B48
:105640000C94DF2A0E94D12A38F00E94D82A20F038
:10565000952311F00C94C82A0C94CE2A11240C9492
:10566000132B0E94F02A70F3959FC1F3950F50E021
:10567000551F629FF001729FBB27F00DB11D639F04
:10568000AA27F00DB11DAA1F649F6627B00DA11DAA
:10569000661F829F2227B00DA11D621F739FB00D50
:1056A000A11D621F839FA00D611D221F749F3327C0
:1056B000A00D611D231F849F600D211D822F762F59
:1056C0006A2F11249F5750409AF0F1F088234AF036
:1056D000EE0FFF1FBB1F661F771F881F91505040A2
:1056E000A9F79E3F510580F00C94C82A0C94132B07
:1056F0005F3FE4F3983ED4F3869577956795B79529
:10570000F795E7959F5FC1F7FE2B880F911D969542
:10571000879597F90895A0E1B0E0E1E9FBE20C94E8
:105720004C2F7C011B016A01FC01168217828381C8
:1057300081FF44C39E012F5F3F4F3901F7019381E1
:10574000F10193FD859193FF81911F01882309F455
:1057500031C3853239F493FD859193FF81911F0107
:10576000853239F4B70190E00E9424315601650179
:10577000E5CF10E0512C912CFFE1F915D8F08B32D8
:1057800079F038F4803279F08332A1F4F92DF061A8
:105790002EC08D3261F0803369F4292D21602DC037
:1057A000392D3260932E892D8460982E2AC0E92DE0
:1057B000E86015C097FC2DC020ED280F2A3088F432
:1057C00096FE06C03AE0139F200D1124122F19C037
:1057D0008AE0589E200D1124522EE92DE0629E2E63
:1057E00010C08E3231F496FCE5C2F92DF0649F2E84
:1057F00008C08C3621F4292D2068922E02C08836EC
:1058000041F4F10193FD859193FF81911F01811175
:10581000B3CF9BEB980F933020F4992D9061805E6D
:1058200007C09BE9980F933008F066C1992D9F7EC1
:1058300096FF16E09F73992E853619F49064992E81
:1058400008C0863621F4392F3068932E02C011111A
:10585000115097FE07C01C3350F444244394410E6A
:1058600027E00BC0183038F027E017E005C027E02C
:105870009CE3492E02C0212F412C560184E0A80E42
:10588000B11CF6016081718182819381042DA30195
:105890000E9407306C01F981FC87F0FF02C0F3FF22
:1058A00006C091FC06C092FE06C000E205C00DE2F3
:1058B00003C00BE201C000E08C858C7019F001116F
:1058C0005AC29BC297FE10C04C0CFC85F4FF04C06A
:1058D0008A81813309F44A94141474F528E024155C
:1058E00078F588E0482E2CC096FC2AC0812F90E0E5
:1058F0008C159D059CF03CEFC3163FEFD30674F06A
:10590000892D8068982E0AC0E2E0F0E0EC0FFD1FC0
:10591000E10FF11D8081803319F411501111F4CF82
:1059200097FE0EC044244394410E812F90E0C81688
:10593000D9062CF41C1904C04424439401C010E07F
:1059400097FE06C01C141D0434F4C601019605C060
:1059500085E090E002C081E090E001110196112302
:1059600031F0212F30E02F5F3F4F820F931F252D05
:1059700030E08217930714F4581A01C0512C892D76
:10598000897049F4552039F0B70180E290E00E9417
:1059900024315A94F7CF002329F0B701802F90E0EB
:1059A0000E94243193FC09C0552039F0B70180E3EF
:1059B00090E00E9424315A94F7CF97FE4CC04601E4
:1059C000D7FE02C0812C912CC60188199909F301D8
:1059D000E80FF91FED87FE879601241931092F87FB
:1059E000388B012F10E01195019511093FEF8316B7
:1059F000930629F4B7018EE290E00E942431C81486
:105A0000D9044CF08F8598898815990524F4ED8583
:105A1000FE85818101C080E3F1E08F1A91082D8518
:105A20003E852F5F3F4F2D873E87801691062CF0D5
:105A3000B70190E00E942431D9CFC814D90441F4B1
:105A40009A81963320F4953319F43C8534FF81E331
:105A5000B70190E04EC08A81813319F09C859F7E0A
:105A60009C87B70190E00E942431111105C094FC7D
:105A700018C085E690E017C0B7018EE290E00E9462
:105A800024311E5F82E001E0080FF301E80FF11DF1
:105A90008081B70190E00E942431802F0113F3CF61
:105AA000E6CF85E490E0B7010E942431D7FC06C020
:105AB000C114D10441F4EC85E4FF05C0D194C19434
:105AC000D1088DE201C08BE2B70190E00E94243141
:105AD00080E32AE0C216D1042CF08F5FFAE0CF1ADF
