S0100000737065634D6563682E73726563EC
S11300000C9450000C946D000C946D000C946D00D5
S11300100C946D000C946D000C946D000C946D00A8
S11300200C946D000C946D000C946D000C946D0098
S11300300C946D000C946D000C946D000C946D0088
S11300400C946D000C9456020C948A020C946D006E
S11300500C946D000C946D000C946D000C946D0068
S11300600C946D000C946D000C94BA020C94EF0285
S11300700C946D000C946D000C946D000C946D0048
S11300800C946D000C946D000C946D000C946D0038
S11300900C946D000C941D030C9452030C946D008D
S11300A011241FBECFEFCDBFDFE3DEBF18E2A0E017
S11300B0B8E2E8E6FAE102C005900D92A230B10779
S11300C0D9F72BE2A2E0B8E201C01D92A032B20738
S11300D0E1F70E9493090C94E60C0C940000E0E014
S11300E0F4E088E0808B818B828B838B848B858B7F
S11300F0868B878BE0E2F4E0808B818B828B838B11
S1130100848B858BE0E4F4E0808B818B828B838B02
S1130110848B858B868B878BE0E6F4E094E0908B70
S1130120918B928B938B948B958B968B978BE0E82A
S1130130F4E0808B818B828B838BE0EAF4E0808B0C
S1130140818B828B838B848B858B868B0895E0EAED
S1130150F4E080E2858381830895E0EAF8E08BE0AF
S1130160868383818160838385818160858308950B
S11301708091A508882334F0E0EAF8E00000858146
S11301808823E4F7E0EAF8E084818B7F8483808528
S113019094819260948308958091A508882334F013
S11301A0E0EAF8E0000085818823E4F7E0EAF8E07B
S11301B084818460848380850895613011F4816032
S11301C001C08E7FE0EAF8E087838581807C21F49A
S11301D000008581807CE1F38091A50882FD0BC03D
S11301E08091A50883FD09C09091A508892F80718D
S11301F094FD05C0089581E0089582E0089584E0A7
S113020008959091A50896FD06C0E0EAF8E0000084
S1130210958196FFFCCFE0EAF8E08087858186FD32
S113022004C00000858186FFFCCF9091A508892F2A
S1130230807194FD83E008950F931F93CF93DF9310
S1130240C82FD62F8A0160E00E94DD00811115C0FD
S11302508D2F0E940101811110C061E08C2F0E943A
S1130260DD00C82F811109C00E94CC00F8018083F1
S113027087E08093A4088C2F00C0DF91CF911F9159
S11302800F910895CF93DF93C62FD42F60E00E947F
S1130290DD00882321F097E09093A40816C08C2FEA
S11302A00E940101882321F097E09093A4080DC0D7
S11302B08D2F0E940101882321F097E09093A408D8
S11302C004C087E08093A40880E0DF91CF91089573
S11302D040E060E080E40E944201811105C040E0FA
S11302E06AE080E40E94420108950F931F93CF9324
S11302F0DF931F92CDB7DEB7082F162FAE014F5FE5
S11303005F4F69E080E40E941C01811107C04981AC
S1130310402B41236AE080E40E9442010F90DF9168
S1130320CF911F910F910895E0E0F4E081E085837F
S11303308183E0E0F8E02DE635E020873187958180
S1130340906895839681906496839681906896834D
S113035010928C2910928D2980939029109207294C
S1130360109208291092872810920B29E0E4F4E0F7
S113037085838183E0E2F8E0208731879681906469
S1130380968396819068968380931F2B109286287B
S1130390E0E2F4E085838183E0E6F8E020873187BA
S11303A096819064968396819068968380939A2A26
S11303B01092152A0895CF93DF93813039F048F0D5
S11303C0833009F070C041114CC068C0411126C08F
S11303D042C04423E9F0FB01415050E04F5F5F4FBE
S11303E0640F751FACE8B9E28C9190E02191EC01A7
S11303F0C45FD64D288301968F779078992324F48F
S1130400019780689F6F01968C936E177F0761F741
S1130410E0E0F8E085818062858345C0FB014150BE
S113042050E04F5F5F4F640F751FABE1BBE28C91EF
S113043090E02191EC01C556D54D288301968F7724
S11304409078992324F4019780689F6F01968C9388
S11304506E177F0761F7E0E2F8E0858180628583AB
S113046022C0FB01415050E04F5F5F4F640F751F86
S1130470A6E9BAE28C9190E02191EC01CA5ED54DD7
S1130480288301968F779078992324F401978068C4
S11304909F6F01968C936E177F0761F7E0E6F8E093
S11304A0858180628583DF91CF9108951F920F9299
S11304B00FB60F9211248F939F93EF93FF93809124
S11304C000088D3051F481E080930B29E0910729D5
S11304D0F0E0E957F74D108206C0E0910729F0E0FB
S11304E0E957F74D8083E7E0F9E2808190E00196D7
S11304F08F779078992324F4019780689F6F0196F1
S11305008083FF91EF919F918F910F900FBE0F9079
S11305101F9018951F920F920FB60F9211248F936C
S11305209F93EF93FF93E0E0F8E085818F7D8583CF
S1130530E0918D2980918C298E1781F081E08E0FB6
S1130540F0E0E45FF64D9081E0E0F8E092838F778D
S113055080938D2985818062858303C081E08093A7
S11305609029FF91EF919F918F910F900FBE0F9063
S11305701F9018951F920F920FB60F9211248F930C
S11305809F93AF93BF93EF93FF93809120088D3097
S113059021F0E0918528EF3778F081E08093862878
S11305A0A5E8B8E28C91E82FF0E0EE5FF74D1082F9
S11305B0809384281C9208C091E09E0F9093852814
S11305C0F0E0EE5FF74D8083FF91EF91BF91AF9123
S11305D09F918F910F900FBE0F901F9018951F92AF
S11305E00F920FB60F9211248F939F93AF93BF93E3
S11305F0EF93FF93AEE1BBE2EC9181E08E0F8C931D
S1130600F0E0E556F54D90819093220890911D2BD2
S1130610891740F0E0E2F8E085818F7D858381E0F1
S113062080931F2BFF91EF91BF91AF919F918F9179
S11306300F900FBE0F901F9018951F920F920FB638
S11306400F9211248F939F93AF93BF93EF93FF93D4
S1130650809160088D3021F0E091142AEF3778F012
S113066081E08093152AA4E1BAE28C91E82FF0E0AE
S1130670EF56F64D10828093132A1C9208C091E025
S11306809E0F9093142AF0E0EF56F64D8083FF916D
S1130690EF91BF91AF919F918F910F900FBE0F90EB
S11306A01F9018951F920F920FB60F9211248F93DB
S11306B09F93AF93BF93EF93FF93A9E9BAE2EC91B1
S11306C081E08E0F8C93F0E0EA5EF54D908190937B
S11306D062089091982A891740F0E0E6F8E0858155
S11306E08F7D858381E080939A2AFF91EF91BF915A
S11306F0AF919F918F910F900FBE0F901F901895FF
S1130700AF92BF92CF92DF92EF92FF920F931F931B
S1130710CF93DF93C82FE62ED72F8A01F22E60E005
S11307200E94DD00811133C08D2F0E9401018111CF
S11307302EC08E2D0E940101811129C061E08C2FF1
S11307400E94DD00811123C0AF2CB12C81E0A81AD6
S1130750B1081A141B0474F4C0E06801CC0ED11C57
S11307600E94B800F6018083CF5F8C2F90E08A1539
S11307709B059CF38F2D90E00197E801C80FD91FCA
S11307800E94CC00888387E08093A40880E0DF91F6
S1130790CF911F910F91FF90EF90DF90CF90BF907A
S11307A0AF900895EF92FF920F931F93CF93DF932F
S11307B0D62FC72F7A01022F60E00E94DD0081113D
S11307C01FC08C2F0E94010181111AC08D2F0E941D
S11307D00101811115C0002379F0E701015010E0F7
S11307E00F5F1F4F0E0D1F1D89910E940101811182
S11307F007C0C017D107C1F787E08093A40880E041
S1130800DF91CF911F910F91FF90EF900895FB011D
S113081020811F922F9321811F922F9322811F9257
S11308202F9324811F922F9325811F922F9326812A
S11308301F922F9320ED39E53F932F939F938F932E
S11308400E94BE098DB79EB740968DBF9EBF089586
S1130850DC01FB018189982F9295907F82898053D6
S1130860892B8C938685982F9295907F87858053CA
S1130870892B11968C9311978385982F9295907F4D
S113088084858053892B12968C93129781E013965A
S11308908C9313978085982F9295907F81858053B0
S11308A0892B14968C9314978581982F9295907F19
S11308B086818053892B15968C9315978281982F66
S11308C09295907F83818053892B16968C930895FB
S11308D0EF92FF920F931F93CF93DF937B0160E01E
S11308E00E94DD00882321F097E09093A40825C09E
S11308F080E00E940101882321F097E09093A408EE
S11309001CC061E080ED0E94DD00882321F097E0A7
S11309109093A40812C0E70187010A5F1F4F0E9449
S1130920B8008993C017D107D1F70E94CC00F70112
S1130930868387E08093A40880E0DF91CF911F91A4
S11309400F91FF90EF9008950F931F93CF93DF9330
S1130950CDB7DEB72797CDBFDEBF8C01BE016F5F79
S11309607F4F80ED0E946804882349F092E1E1EF13
S1130970F9E5D80101900D929A95E1F707C0BE01FF
S11309806F5F7F4FC8010E94070480E02796CDBFA8
S1130990DEBFDF91CF911F910F9108950F931F93A5
S11309A0CF93DF938B0160E00E94DD00882321F068
S11309B097E09093A4081CC080E00E940101882362
S11309C021F097E09093A40813C0E801095F1F4F3A
S11309D089910E940101882321F097E09093A40853
S11309E007C00C171D07A1F787E08093A40880E0D7
S11309F0DF91CF911F910F910895CF93DF93CDB7DE
S1130A00DEB72797CDBFDEBFBC01CE0101960E94A1
S1130A102804BE016F5F7F4F80ED0E94CE042796AD
S1130A20CDBFDEBFDF91CF910895EF92FF920F9378
S1130A301F93CF93DF93CDB7DEB72E97CDBFDEBF25
S1130A408C0188E0E3E0FAE5DE01119601900D9255
S1130A508A95E1F7F80101900020E9F731973E2FDC
S1130A60301B323050F0F801319690E081E0219152
S1130A7092278F5F3813FBCF01C090E01F929F93A2
S1130A80CE0101969F938F937E0189E0E80EF11CBD
S1130A90FF92EF920E94BE09B701C8010E94AC09FF
S1130AA00F900F900F900F900F900F902E96CDBF38
S1130AB0DEBFDF91CF911F910F91FF90EF900895CA
S1130AC0CF93DF93CDB7DEB72C97CDBFDEBF2CE03D
S1130AD0EBE0FAE5DE01119601900D922A95E1F71B
S1130AE0BE016F5F7F4F0E94B7092C96CDBFDEBF5A
S1130AF0DF91CF910895CF93DF93D62FC42F60E079
S1130B000E94DD008D2F0E9401018C2F0E940101A3
S1130B1087E08093A408DF91CF910895CF9381114A
S1130B200DC0E0E8F4E081E086838183A1E4B3E0D2
S1130B301197F1F700008583C8E70CC0E0E8F4E002
S1130B4082E086838183A1E4B3E01197F1F700008A
S1130B508583CAE74AE260E08C2F0E947B0541E767
S1130B6060E08C2F0E947B054CE560E48C2F0E9492
S1130B707B0548E260E08C2F0E947B0548E060E042
S1130B808C2F0E947B054AE260E08C2F0E947B053B
S1130B9049E760E08C2F0E947B0545ED60E08C2FD7
S1130BA00E947B0540E760E08C2F0E947B0548E7AC
S1130BB060E08C2F0E947B0548E060E08C2F0E944F
S1130BC07B0546E060E08C2F0E947B0542E760E0F5
S1130BD08C2F0E947B0540E060E48C2F0E947B05F3
S1130BE04AE260E08C2F0E947B0549E760E08C2F8D
S1130BF00E947B054AED60E08C2F0E947B0540E05B
S1130C0060E08C2F0E947B054CED60E08C2F0E94ED
S1130C107B0540E060E08C2F0E947B0541E860E0AA
S1130C208C2F0E947B054FE760E08C2F0E947B0590
S1130C3049ED60E08C2F0E947B0541EF60E08C2F32
S1130C400E947B054BED60E08C2F0E947B0540E405
S1130C5060E08C2F0E947B0548E760E08C2F0E94A7
S1130C607B0548E260E08C2F0E947B0541E060E058
S1130C708C2F0E947B0540E860E08C2F0E947B054E
S1130C804CE060E08C2F0E947B05BAE624E081E012
S1130C90B15020408040E1F700C0CF910895CF9239
S1130CA0DF92FF920F931F93CF93DF93CDB7DEB7FD
S1130CB0E297CDBFDEBF142F91E1E7E1FAE5DE0153
S1130CC0929601900D929A95E1F7882329F00F2EC0
S1130CD0FAE7FF2EF02D04C00F2EF8E7FF2EF02DBB
S1130CE0CE0101960E94B709BE016E5D7F4FCE0111
S1130CF001960E94AC09113031F440E860E08F2D78
S1130D000E947B0511C040EC60E08F2D0E947B05A2
S1130D100BC0F80141918F0160E48F2D0E947B0587
S1130D200C151D05B1F708C08E010F5F1F4F6E0132
S1130D30F1E1CF0ED11CEDCFE296CDBFDEBFDF9146
S1130D40CF911F910F91FF90DF90CF90089545E1CF
S1130D5050E06BE070E00E94710C08954BE050E0AD
S1130D6060E070E00E94710C0895CF93DF93CDB7DB
S1130D70DEB76597CDBFDEBFCE0101960E94A40405
S1130D8045E150E06BE070E0CE0101960E94750CE5
S1130D906596CDBFDEBFDF91CF910895CF93DF93EA
S1130DA0CDB7DEB72B97CDBFDEBF8BE0E8E2FAE527
S1130DB0DE01119601900D928A95E1F74BE050E027
S1130DC060E070E0CE0101960E94750C2B96CDBFB9
S1130DD0DEBFDF91CF9108950E94B5060E94CE0632
S1130DE0089588ED84BF81E0809300010895FC019B
S1130DF081818C3699F018F4823631F021C0823723
S1130E0099F08337B9F01CC06AEE84E40E9475013E
S1130E1066EE88E80E94750180E008956AEE84E435
S1130E200E94750180E0089566EE88E80E947501CD
S1130E3080E008956CEE82E20E94750180E00895DE
S1130E4081E00895FC0181818C3699F018F4823692
S1130E5031F021C0823799F08337B9F01CC06EEAB3
S1130E6084E40E9475016EE688E80E94750180E0C2
S1130E7008956EEA84E40E94750180E008956EE6A8
S1130E8088E80E94750180E008956EEC82E20E9479
S1130E90750180E0089581E008950F931F93CF9327
S1130EA0DF93CDB7DEB7C259D109CDBFDEBF2BE08A
S1130EB0E3E3FAE5DE01AE58BF4F01900D922A95A7
S1130EC0E1F72BE0EEE3FAE5DE01A358BF4F019012
S1130ED00D922A95E1F72BE0E9E4FAE5DE01A85743
S1130EE0BF4F01900D922A95E1F7FC01818184376F
S1130EF079F1863709F455C0823609F07BC08E013A
S1130F000E5A1F4FC8010E94A7061F930F931F92EA
S1130F1082E08F93CE018E589F4F9F938F930155FC
S1130F2011091F930F930E94BE09C8010E94150561
S1130F30F80101900020E9F73197AF01401B510BF4
S1130F40B80180E00E94DB01CDBFDEBF80E053C06A
S1130F508E010E5A1F4FC8010E94A4041F930F93C1
S1130F601F9282E08F93CE0183589F4F9F938F935C
S1130F70015511091F930F930E94BE09C8010E94D5
S1130F801505F80101900020E9F73197AF01401BE6
S1130F90510BB80180E00E94DB01CDBFDEBF80E0D1
S1130FA02AC08E0109591F4FC8010E94AE061F9323
S1130FB00F931F9282E08F93CE0188579F4F9F9388
S1130FC08F93065611091F930F930E94BE09C801FF
S1130FD00E941505F80101900020E9F73197AF014F
S1130FE0401B510BB80180E00E94DB01CDBFDEBF86
S1130FF080E001C081E0CE56DF4FCDBFDEBFDF9180
S1131000CF911F910F9108950F931F93CF93DF9367
S1131010CDB7DEB76D97CDBFDEBF2EE330E02983B9
S11310203A8321E230E02B833C838130D1F018F005
S11310308230E1F151C08E010B5F1F4FBE016F5F23
S11310407F4FC8010E94B709F80101900020E9F719
S11310503197AF01401B510BB80180E00E94DB01C6
S113106050C08E010B5F1F4FC8010E946005F8013C
S113107001900020E9F73197AF01401B510BB801F3
S113108080E00E94DB01BE016F5F7F4FC8010E94B8
S1131090B709F80101900020E9F73197AF01401B2F
S11310A0510BB80180E00E94DB012BC08E010B5F65
S11310B01F4FBE016D5F7F4FC8010E94B709F80141
S11310C001900020E9F73197AF01401B510BB801A3
S11310D080E00E94DB0115C08E010B5F1F4FBE0133
S11310E06D5F7F4FC8010E94B709F801019000208D
S11310F0E9F73197AF01401B510BB80180E00E9422
S1131100DB016D96CDBFDEBFDF91CF911F910F91B3
S11311100895FC012181243729F402960E94FD04DC
S113112080E0089581E008950F931F93CF93DF9398
S1131130CDB7DEB7CC5BD109CDBFDEBF2091082986
S113114030E0F901E957F74D90819D8B2F5F3F4FB8
S11311502F773078332334F42150310920683F6FDE
S11311602F5F3F4F822F20930829992309F4CCC085
S113117021E090E0FC01E957F74D3081E5E1F0E032
S1131180EC0FFD1FE20FF11D308301968F779078ED
S1131190992324F4019780689F6F0196311103C04D
S11311A08093082904C02F5F22F780930829809137
S11311B00028882369F08D89813231F41092002847
S11311C080E00E940408A6C082E00E940408A2C035
S11311D08D89853611F168F4853441F120F4882332
S11311E009F48EC013C0823509F481C0833681F0BE
S11311F00DC08F3609F471C018F4863601F106C0AB
S1131200823709F46FC0833709F475C081E079C06F
S1131210CE0145960E94F70674C041E0BE016A5EA5
S11312207F4F80E00E944F0680E06BC042E0BE0129
S11312306A5E7F4F80E00E944F0680E062C081E4D6
S1131240898382E48A8388E58B8384E48C8385E4C0
S11312508D8386E48E8387E48F8388E4888789E49A
S113126089871A862AE0AE014F5F5F4F60E070E025
S113127080EA0E94D203FE013B96CE01459611926C
S11312808E179F07E1F78E01055F1F4F29E0A80124
S113129061E070E080EA0E9480031F930F9384E56D
S11312A09AE59F938F9306571F4F1F930F930E94A6
S11312B0BE09F80101900020E9F73197AF01401B06
S11312C0510BB80180E00E94DB010F900F900F904A
S11312D00F900F900F9080E014C0CE0145960E94AD
S11312E022070FC0CE0145960E944D070AC00E94F6
S11312F0F10680E006C0CE0145960E94890801C02F
S113130080E00E94040806C080910028882309F424
S11313105FCF5ACFC454DF4FCDBFDEBFDF91CF9133
S11313201F910F9108950E946F000E94A7000E94D0
S1131330AD000E9468010E94940180E00E948E0525
S11313400E94EC067894CBE0D9E288818823E9F303
S113135018820E949408F9CFFB01DC010D90002053
S1131360E9F7119701900D920020E1F70895FB0130
S1131370DC0101900D920020E1F70895AEE0B0E0A9
S1131380E4ECF9E00C94BA0C0D891E8986E08C8398
S113139009831A838FEF9FE78D839E83AE01475E97
S11313A05F4F6F89788DCE0101960E94E009EF812D
S11313B0F885E00FF11F10822E96E4E00C94D30C14
S11313C0ABE0B0E0E6EEF9E00C94AC0C6C017B0110
S11313D08A01FC0116821782838181FFCCC1CE0170
S11313E001963C01F6019381F70193FD859193FFEA
S11313F081917F01882309F4BAC1853239F493FDC0
S1131400859193FF81917F01853229F4B60190E0A3
S11314100E94D70BE7CF912C212C312CFFE1F3153F
S1131420D8F08B3279F038F4803279F08332A1F439
S1131430232D20611DC08D3261F0803369F4232D8A
S1131440216016C0832D8260382EE32DE4603E2E89
S11314502AC0F32DF8601DC037FC2DC020ED280FE5
S11314602A3040F08E32B9F436FC81C1232D206439
S1131470322E19C036FE06C08AE0989E200D112433
S1131480922E11C0EAE02E9E200D1124222EF32D5F
S1131490F0623F2E08C08C3621F4832D8068382EEC
S11314A002C0883641F4F70193FD859193FF819141
S11314B07F018111B3CF982F9F7D9554933028F4E9
S11314C00C5F1F4F9FE399830DC0833631F0833740
S11314D071F0833509F059C021C0F80180818983F6
S11314E00E5F1F4F88248394912C530113C028014D
S11314F0F2E04F0E511CF801A080B18036FE03C00B
S1131500692D70E002C06FEF7FEFC5010E94CC0B24
S11315104C018201F32DFF773F2E16C0280122E0F3
S1131520420E511CF801A080B18036FE03C0692D23
S113153070E002C06FEF7FEFC5010E94C10B4C0148
S1131540F32DF0683F2E820133FC1BC0822D90E006
S113155088169906B0F4B60180E290E00E94D70B99
S11315602A94F4CFF50137FC859137FE81915F0110
S1131570B60190E00E94D70B21102A9421E0821A30
S113158091088114910471F7E8C0843611F089360A
S113159041F5F80137FE07C0608171818281938132
S11315A00C5F1F4F08C060817181072E000C880BEF
S11315B0990B0E5F1F4FF32DFF763F2E97FF09C047
S11315C090958095709561957F4F8F4F9F4FF068F0
S11315D03F2E2AE030E0A3010E94130C882E8618C7
S11315E045C0853731F4232D2F7EB22E2AE030E01A
S11315F025C0932D997FB92E8F36C1F018F4883504
S113160079F0B5C0803719F0883721F0B0C0E92FE0
S1131610E061BE2EB4FE0DC0FB2DF460BF2E09C0E8
S113162034FE0AC0292F2660B22E06C028E030E01E
S113163005C020E130E002C020E132E0F801B7FE4D
S113164007C060817181828193810C5F1F4F06C046
S11316506081718180E090E00E5F1F4FA3010E94C2
S1131660130C882E8618FB2DFF773F2E36FE0DC0F7
S1131670232D2E7FA22E891458F434FE0BC032FC85
S113168009C0832D8E7EA82E05C0B82CA32C03C0C0
S1131690B82C01C0B92CA4FE0FC0FE01E80DF11D49
S11316A08081803321F49A2D997EA92E09C0A2FE4F
S11316B006C0B394B39404C08A2D867809F0B39419
S11316C0A3FC11C0A0FE06C0B21488F4280C922C0E
S11316D09B180EC0B21460F4B60180E290E00E9440
S11316E0D70BB394F7CFB21418F42B1802C0982C6C
S11316F0212CA4FE10C0B60180E390E00E94D70B19
S1131700A2FE17C0A1FC03C088E790E002C088E5F0
S113171090E0B6010CC08A2D867859F0A1FE02C073
S11317208BE201C080E2A7FC8DE2B60190E00E944A
S1131730D70B891438F4B60180E390E00E94D70BEC
S11317409A94F7CF8A94F301E80DF11D8081B601D4
S113175090E00E94D70B8110F5CF222009F442CEED
S1131760B60180E290E00E94D70B2A94F6CFF601EE
S11317708681978102C08FEF9FEF2B96E2E10C9454
S1131780C50CFC010590615070400110D8F780959C
S113179090958E0F9F1F0895FC0161507040019039
S11317A00110D8F7809590958E0F9F1F08950F9381
S11317B01F93CF93DF93FB01238121FD03C08FEFA0
S11317C09FEF2CC022FF16C04681578124813581AA
S11317D04217530744F4A081B1819D012F5F3F4F0D
S11317E0208331838C93268137812F5F3F4F26835B
S11317F0378314C08B01EC01FB010084F185E02DDB
S11318000995892BE1F6D80116968D919C9117972D
S1131810019616968D939C931797CE01DF91CF91E5
S11318201F910F910895FA01AA27283051F1203110
S113183081F1E8946F936E7F6E5F7F4F8F4F9F4F60
S1131840AF4FB1E03ED0B4E03CD0670F781F891FA2
S11318509A1FA11D680F791F8A1F911DA11D6A0F70
S1131860711D811D911DA11D20D009F468943F9123
S11318702AE0269F11243019305D3193DEF6CF0122
S11318800895462F4770405D4193B3E00FD0C9F7E8
S1131890F6CF462F4F70405D4A3318F0495D31FD55
S11318A04052419302D0A9F7EACFB4E0A6959795A8
S11318B0879577956795BA95C9F70097610571057E
S11318C008959B01AC010A2E0694579547953795C8
S11318D02795BA95C9F7620F731F841F951FA01D22
S11318E0089560507C4E0C94DD0CDC01A40FB51FF0
S11318F04150504048F0CB01840F951F2E910E9417
S1131900860C41505040D0F70895262F0E94A80C11
S11319100080021619F00E94910C01970197089516
S1131920262FAF93BF93E0E0F0E1328131FDFDCF8C
S1131930DC01A050BC4E2C932DE924BF23E020836E
S11319400196BF91AF91089503D08081992708959E
S1131950FC01E050FC4E08952F923F924F925F920B
S11319606F927F928F929F92AF92BF92CF92DF92AB
S1131970EF92FF920F931F93CF93DF93CDB7DEB710
S1131980CA1BDB0BCDBFDEBF09942A88398848887F
S11319905F846E847D848C849B84AA84B984C88487
S11319A0DF80EE80FD800C811B81AA81B981CE0F7E
S11319B0D11DCDBFDEBFED010895FB01DC0102C0E6
S11319C001900D9241505040D8F70895F894FFCFFC
S11319D03230253032782D253032782D253032784A
S11319E054253032783A253032783A253032785AD4
S11319F0004453333233312072656164206572725E
S1131A006F72002A253032580D0A00245332455291
S1131A10522A32340D0A00202020202020202020A9
S1131A202020202020202000323032302D31322D51
S1131A303237002453256442544D2C25730024531B
S1131A40256454494D2C257300245325645645526E
S1131A502C257300257320726561642066726F6D96
S10B1A60206672616D0D0A009D
S1051A68010077
S9030000FC
