S0100000737065634D6563682E73726563EC
S11300000C942A010C9447010C9447010C943F175B
S11300100C9447010C9447010C9447010C9447013C
S11300200C9447010C9447010C9447010C9447012C
S11300300C9425180C9447010C9447010C94470127
S11300400C9447010C9484190C94C7190C9447011F
S11300500C946E0D0C9447010C9447010C944701C9
S11300600C9447010C9447010C94FE190C94291A22
S11300700C9447010C94A7070C9447010C94470176
S11300800C9447010C9447010C9447010C944701CC
S11300900C9447010C94601A0C94951A0C94470123
S11300A09604A404A404A404A404A404A404A4041A
S11300B0A404A404A404A404A404A404A404A404FC
S11300C0A4047C04A404A404A404A404A404A40414
S11300D0A404A404A4048604A4048104A404A4041D
S11300E08A048E0492047D0E7D0E7D0EE213E213CB
S11300F0E213E213E213E213E213E213E213E21354
S1130100E213E213E213E213E213E213E213E21343
S11301109013E213E213E213E213E213E213E21385
S1130120E213E213E213230F230F230FE213F70F5B
S1130130E213E213E213E213E213E213E213E21313
S1130140E21337112512E213E213E213C312E2138E
S113015022136E616E00696E660000407A10F35AD5
S113016000A0724E18090010A5D4E80000E87648F3
S1130170170000E40B54020000CA9A3B000000E19F
S1130180F505000080969800000040420F00000032
S1130190A08601000000102700000000E803000012
S11301A000006400000000000A00000000000100DC
S11301B0000000002C76D888DC674F0823DFC1DFFD
S11301C0AE59E1B1B796E5E3E453C63AE651997600
S11301D096E8E6C28426EB898C9B62ED407C6FFC3A
S11301E0EFBC9C9F40F2BAA56FA5F490055A2AF77C
S11301F05C936B6CF9676DC11BFCE0E40D47FEF585
S113020020E6B500D0ED902E0300943577050080EC
S1130210841E080000204E0A000000C80C3333334B
S1130220330F986E12831141EF8D2114893BE655EB
S113023016CFFEE6DB18D1844B381BF77C1D901DCE
S1130240A4BBE424203284725E228100C9F124EC30
S1130250A1E53D2711241FBECFEFCDBFDFE3DEBFF5
S113026018E2A0E0B8E2E8E1FAE402C005900D92D9
S1130270A230B107D9F720E3A2E0B8E201C01D9291
S1130280A033B207E1F70E9426080C9454230C947F
S11302900000CF92DF92EF92FF92CF938130C9F0AA
S11302A018F0823061F010C00F2EF3E3CF2EDC2C57
S11302B0F3EFEF2EF0E4FF2EF02DC1E00EC0C12CC1
S11302C0D12C7601C0E109C0C12CD12C7601C0E04B
S11302D004C0C12CD12C7601C4E040E066E087E282
S11302E00E944B084C2F409560E087E20E944B0827
S11302F04C2F6AE087E20E944B0886E18A95F1F769
S1130300000020E840E768E088E40E949F0120E0C4
S113031030E04AE754E40E94741C23E333E948E8DC
S113032053E40E94D91A9B01AC01C701B6010E9493
S1130330DA1ACF91FF90EF90DF90CF900895CF928B
S1130340DF92EF92FF920F931F93CF93DF93D82FF7
S1130350F62E462BC42FC168122F136060E00E9452
S11303606718082F882369F00E948D18602F70E0A9
S113037080E090E00E94BD1B562F472F382F292F75
S1130380D0C081E00E949118082F882369F00E9450
S11303908D18602F70E080E090E00E94BD1B562F06
S11303A0472F382F292FBDC08C2F0E949118C82F9A
S11303B0882369F00E948D186C2F70E080E090E033
S11303C00E94BD1B562F472F382F292FAAC0812FDB
S11303D00E949118C82F882369F00E948D186C2FF1
S11303E070E080E090E00E94BD1B562F472F382F0D
S11303F0292F97C00E948D188CE18A95F1F7C1E0EE
S113040009C061E08D2F0E9467180E945A18882342
S11304100CF4C0E0C111F5CF0E948D1860E08D2F5F
S11304200E94671880E00E94911861E08D2F0E945D
S113043067180E944A18C82F0E945A18D82F0E9481
S11304408D186C2F70E0762F66276D2B84E0F816DC
S113045049F18F1530F0FF20D9F182E0F81669F1E7
S113046042C088E0F81609F442C08AE0F81621F088
S113047086E0F81238C00BC00F2EF4E7CF2EF3E15C
S1130480DF2EF3E0EF2EF7E3FF2EF02D3AC00F2E10
S1130490F4E7CF2EF3E1DF2EF3E0EF2EF8E3FF2EA7
S11304A0F02D2FC00F2EF2E1CF2EF3E1DF2EF3E873
S11304B0EF2EF8E3FF2EF02D24C00F2EF4E7CF2EFD
S11304C0F3E1DF2EF3E0EF2EF9E3FF2EF02D19C058
S11304D00F2EFEE2CF2EFDE9DF2EF4E4EF2EF9E33A
S11304E0FF2EF02D0EC0C12CD12C76010AC00F2E88
S11304F0F1E7CF2EF3E1DF2EF3E8EF2EF7E3FF2E43
S1130500F02D072E000C880B990B0E94BF1B9B013A
S1130510AC01C701B6010E94741C562F472F382F17
S1130520292F652F742F832F922FDF91CF911F9145
S11305300F91FF90EF90DF90CF900895E0E2F4E008
S113054084E085838183868308950F931F93CF93DB
S1130550DF93CDB7DEB7C451D140CDBFDEBF2BE0B2
S1130560ECEAF6E8DE01119601900D922A95E1F786
S11305702091A80422FF03C022E030E002C021E061
S113058030E09F938F933F932F93CE0101969F93D7
S11305908F938E01045F1F4F1F930F930E9490222D
S11305A0C8010E94EC09F80101900020E9F7319795
S11305B0AF01401B510BB80180E00E94FE18CDBF73
S11305C0DEBFCC5EDE4FCDBFDEBFDF91CF911F918A
S11305D00F910895CF93DF939C0140E01CC0C7E1C5
S11305E0DCE2E881F0E0E95EF44D8081F901E40F9A
S11305F0F11D8083A9E1BCE28C9181508C938881A8
S113060090E001966FEF70E00E945E208883808105
S1130610882329F04F5F8091192C8111E0CFF901D3
S1130620E40FF11D1082DF91CF9108959FE9980F97
S11306309A3128F081548A3120F481E0089581E0D0
S1130640089580E00895EF92FF921F93CF93DF9374
S1130650EC01E62EF12C84E38E9DF0018F9DF00DCC
S11306601124ED5FF74D8FE380838183128213A6FB
S113067004C0112309F475C021961881812F0E94AA
S113068016038823B1F3219684E38E9DF0018F9D98
S1130690F00D1124ED5FF74D108304C0112309F40C
S11306A060C021961881812F0E9416038823B1F31C
S11306B0219684E38E9DF0018F9DF00D1124ED5F52
S11306C0F74D118380E02AC0988191110CC094E306
S11306D09E9DF0019F9DF00D1124ED5FF74DE80FF5
S11306E0F11D12823EC09B3361F494E39E9DF001A0
S11306F09F9DF00D1124ED5FF74DE80FF11D12825F
S11307000FC0219624E32E9DF0012F9DF00D11249E
S1130710ED5FF74DE80FF11D92838F5F8932A0F2F0
S1130720219680E01CC0988191110CC094E39E9D99
S1130730F0019F9DF00D1124ED5FF74DE80FF11DC1
S113074013A60FC0219624E32E9DF0012F9DF00DDA
S11307501124ED5FF74DE80FF11D93A78F5F8930EA
S113076010F3DF91CF911F91FF90EF9008950F93B5
S11307701F93CF93DF93CDB7DEB76D97CDBFDEBFA9
S11307802EE330E029833A8321E230E02B833C835B
S1130790882319F08130B9F02CC08E010B5F1F4FF4
S11307A0BE016F5F7F4FC8010E942D22F8010190A6
S11307B00020E9F73197AF01401B510BB80180E0ED
S11307C00E94FE182BC08E010B5F1F4FBE016D5F90
S11307D07F4FC8010E942D22F80101900020E9F703
S11307E03197AF01401B510BB80180E00E94FE1805
S11307F015C08E010B5F1F4FBE016D5F7F4FC80197
S11308000E942D22F80101900020E9F73197AF01F1
S1130810401B510BB80180E00E94FE186D96CDBFBD
S1130820DEBFDF91CF911F910F9108952091002891
S1130830222331F1FC0180818132A1F49181911153
S113084011C08FEF91E00E94111785E090E0809332
S11308500D2A90930E2A80E00E94B703109200287C
S113086081E00895813239F48181882321F00E9446
S1130870C31A80E0089581E00E94B70380E00895E0
S113088081E00895CF93DF93CDB7DEB7CF5FD10971
S1130890CDBFDEBFCE0101960E94EA02CE010196D1
S11308A00E941604882309F45DC0CE0101960E94BB
S11308B0A5028981811103C00E94B70353C06091CE
S11308C00228CE0101960E9423038091022824E38A
S11308D0829FD0011124AD5FB74DEC9111969C918C
S11308E04E2F50E0FA01E255F109E332F10560F5CB
S11308F0E05BFF4F0C949120892F0E944A0C282F13
S113090024C0892F0E94DC0C282F1FC00E94901540
S113091020E01BC00E94D50D282F17C00E94841709
S1130920282F13C00E94CD1720E00FC080E00E9442
S1130930B7038AE694E021E0815090402040E1F73B
S113094000C00E94C31A0EC020E08091022890E0EB
S113095001966AE070E00E945E2080930228822F54
S11309600E94B703C150DF4FCDBFDEBFDF91CF91EF
S11309700895FB0170816181528144813581268112
S11309801F927F931F926F931F925F931F924F93B7
S11309901F923F931F922F9327EB36E83F932F9399
S11309A09F938F930E9490228DB79EB740968DBFE0
S11309B09EBF0895DC01FB01818990E0C097829578
S11309C09295907F9827807F982792899053892BBE
S11309D08C93868590E0C09782959295907F982716
S11309E0807F982797859053892B11968C93119724
S11309F0838590E0C09782959295907F9827807F19
S1130A00982794859053892B12968C93129781E0A2
S1130A1013968C931397808590E0C0978295929556
S1130A20907F9827807F982791859053892B1496DF
S1130A308C931497258130E0205331092295329507
S1130A40307F3227207F322786818053282B1596CA
S1130A502C931597228130E0205331092295329549
S1130A60307F3227207F322783818053282B1696AC
S1130A702C930895EF92FF920F931F93CF937B01D2
S1130A8060E00E946718C82F882321F00E948D1807
S1130A908C2F28C080E00E949118C82F882321F051
S1130AA00E948D188C2F1EC061E088E60E94671892
S1130AB0C82F882369F00E948D188C2F13C08701DA
S1130AC00C0F111D0E944A18F8018083CF5F01C0EA
S1130AD0C0E0C630A0F30E945A18F70186830E9432
S1130AE08D1880E0CF911F910F91FF90EF900895A2
S1130AF00F931F93CF93DF93CDB7DEB72797CDBF67
S1130B00DEBF8C01BE016F5F7F4F88E60E943A050D
S1130B10882349F09DE0E7EDF6E8D80101900D92B5
S1130B209A95E1F707C0BE016F5F7F4FC8010E942D
S1130B30B90480E02796CDBFDEBFDF91CF911F912E
S1130B400F910895EF92FF920F931F93CF93DF932A
S1130B508B0160E00E946718C82F882321F00E944F
S1130B608D188C2F22C080E00E949118C82F8823F2
S1130B70B1F00E948D188C2F18C078018FEFE81AFD
S1130B80F80AF80180810E949118C82F882321F067
S1130B900E948D188C2F09C0DF5F870101C0D0E04F
S1130BA0D73058F30E948D1880E0DF91CF911F91C8
S1130BB00F91FF90EF900895CF93DF93CDB7DEB7F9
S1130BC02797CDBFDEBFBC01CE0101960E94DA0497
S1130BD0BE016F5F7F4F88E60E94A2052796CDBFB6
S1130BE0DEBFDF91CF91089545E150E06BE070E006
S1130BF00E94102308954BE050E060E070E00E94F2
S1130C0010230895CF93DF93CDB7DEB76597CDBF9B
S1130C10DEBFCE0101960E94780545E150E06BE00D
S1130C2070E0CE0101960E9414236596CDBFDEBF0D
S1130C30DF91CF910895CF93DF93CDB7DEB72B9794
S1130C40CDBFDEBF8BE0E4EEF6E8DE011196019045
S1130C500D928A95E1F74BE050E060E070E0CE0140
S1130C6001960E9414232B96CDBFDEBFDF91CF9156
S1130C7008950E9402060E941B0608950F931F9375
S1130C80CF93DF93CDB7DEB7CF55D109CDBFDEBF4C
S1130C902EE0EFEEF6E8DE01AE5ABF4F01900D9262
S1130CA02A95E1F72091A80422FF03C022E030E056
S1130CB002C021E030E07F936F939F938F933F9323
S1130CC02F93CE018E5A9F4F9F938F938E010F5F68
S1130CD01F4F1F930F930E949022C8010E94EC099A
S1130CE0F80101900020E9F73197AF01401B510B47
S1130CF0B80180E00E94FE18CDBFDEBFC15ADF4FAD
S1130D00CDBFDEBFDF91CF911F910F910895EF9278
S1130D10FF920F931F93CF93DF93C82FE62EF72EE6
S1130D208A01D22F60E00E94671881112BC08F2D99
S1130D300E949118811126C08E2D0E949118811154
S1130D4021C061E08C2F0E94671881111BC0C0E094
S1130D5008C07801EC0EF11C0E944A18F701808348
S1130D60CF5F2C2F30E08D2F90E0019728173907A3
S1130D7084F3EC01C00FD11F0E945A1888830E948B
S1130D808D1880E0DF91CF911F910F91FF90EF902C
S1130D900895EF92FF920F931F93CF93DF93F62E54
S1130DA0172FEA01022F60E00E94671881111CC00E
S1130DB0812F0E949118811117C08F2D0E949118C4
S1130DC0811112C010E00BC07E018FEFE81AF80AFF
S1130DD088810E949118811107C01F5FE7011017D5
S1130DE098F30E948D1880E0DF91CF911F910F91AD
S1130DF0FF90EF9008958F929F92AF92BF92CF92FF
S1130E00DF92EF92FF92813059F018F0823079F03E
S1130E1015C080E00E94BD174B015C0140E417C07F
S1130E2081E00E94BD174B015C0140E510C082E0E7
S1130E300E94BD174B015C0140E609C00F2E812CB6
S1130E40912CF0EAAF2EF1E4BF2EF02D40E520E81E
S1130E5060E088E40E949F0120E030E040EA50E432
S1130E600E944B1B2AE037ED43E25EE30E94D91A4D
S1130E702FE539E24BEC5BE30E944B1B6B017C01D9
S1130E8029EC3EE84DE05BE3C501B4010E94741C0B
S1130E909B01AC0162E27DEF86E89FE30E94D91AD0
S1130EA09B01AC01C701B6010E944B1BFF90EF9060
S1130EB0DF90CF90BF90AF909F908F9008950E9445
S1130EC09D0D8BE08093B6040E94CD1A0E94B51745
S1130ED00E9420080E949E020E943F1880E290E037
S1130EE00E9411170E94A6180895CF93DF93CDB7DF
S1130EF0DEB72B97CDBFDEBF0E943F140E94BA0914
S1130F000E948F0B80E00E94470A81E00E94470AFA
S1130F100E94390680EE91E080930D2A90930E2A68
S1130F20CE0101960E94FB0541E06DEF76E881E079
S1130F300E94070B42E0BE016F5F7F4F81E00E9479
S1130F40070B2B96CDBFDEBFDF91CF9108951F9283
S1130F500F920FB60F9211242F933F934F935F93E9
S1130F606F937F938F939F93AF93BF93EF93FF936D
S1130F708091A90486FF05C080E48093A9040E949F
S1130F80C31AFF91EF91BF91AF919F918F917F9180
S1130F906F915F914F913F912F910F900FBE0F90E2
S1130FA01F901895CF92DF92EF92FF92813021F03B
S1130FB0823079F540E301C040E020E862E089E452
S1130FC00E949F016B017C012DEC3CEC4CEC5EE338
S1130FD00E94461B882314F120E030E040E050E4F6
S1130FE0C701B6010E946F1C1816ECF029E739EE10
S1130FF042E050E4C701B6010E94741C2EE633EAB5
S11310004BED50E40E94D91A562F472F382F292F21
S11310100EC050E040E836E224EC09C050E040E85D
S113102036E224EC04C050E040E836E224EC652FBC
S1131030742F832F922FFF90EF90DF90CF9008951D
S1131040E0EAF4E080E28583818308950E945F07EB
S113105078940E94750780911B2C8823E1F31092E9
S11310601B2C0E944204F7CFCF93DF93C82FD62FB7
S113107060E00E9467188D2F0E94911861E08C2F08
S11310800E9467180E945A18C82F0E948D188C2F2E
S1131090DF91CF9108951F93CF93DF93D62F142F11
S11310A060E00E946718C82F882321F00E948D18E1
S11310B08C2F17C08D2F0E949118C82F882321F0E0
S11310C00E948D188C2F0DC0812F0E949118C82F5B
S11310D0882321F00E948D188C2F03C00E948D1844
S11310E080E0DF91CF911F910895CF92DF92EF922C
S11310F0FF921F93CF93DF9360E088E10E9467180B
S113110085E00E94911861E088E10E9467180E94BE
S11311104A18C82F0E945A18D82F0E948D181C2FC5
S113112010716C2F6F7070E080E090E00E94BD1B26
S113113020E030E040E851E40E94741C6B017C0123
S11311406D2F70E080E090E00E94BD1B20E030E055
S113115040E85DE30E94741C9B01AC01C701B60129
S11311600E94DA1A112341F09B01AC0160E070E0A7
S113117080E893E40E94D91ADF91CF911F91FF90E8
S1131180EF90DF90CF900895EF92FF920F931F930B
S1131190CF93DF93182FF62EEA01022F60E00E940E
S11311A0671881111EC08F2D0E949118811119C0DA
S11311B061E0812F0E946718811113C011E009C0FA
S11311C07E018FEFE81AF80A0E944A1888831F5F8D
S11311D0E7011017A8F30E945A1888830E948D18FB
S11311E080E0DF91CF911F910F91FF90EF900895D0
S11311F0CF92DF92EF92FF920F931F93CF93DF93DF
S1131200CDB7DEB72697CDBFDEBF6C017B018A0167
S113121080E090E8A6E2B4ECFA0180839183A28393
S1131220B383FB0180839183A283B383F60180831C
S11312309183A283B38326E0AE014F5F5F4F61E0E9
S11312408DE10E94C408898190E0982F88272A8123
S1131250822BBC01772314F46D5F7F4F75956795DE
S113126075956795072E000C880B990B0E94BF1B80
S113127026E636E245E75EE30E94741CF6016083CD
S11312807183828393838B8190E0982F88272C81AC
S1131290822BBC01772314F46D5F7F4F759567959E
S11312A075956795072E000C880B990B0E94BF1B40
S11312B026E636E245E75EE30E94741CF70160838C
S11312C07183828393838D8190E0982F88272E8168
S11312D0822BBC01772314F46D5F7F4F759567955E
S11312E075956795072E000C880B990B0E94BF1B00
S11312F026E636E245E75EE30E94741CF80160834B
S113130071838283938380E02696CDBFDEBFDF9115
S1131310CF911F910F91FF90EF90DF90CF900895A0
S11313201F93CF93DF93D62F142F60E00E9467188A
S1131330C82F882321F00E948D188C2F17C08D2F61
S11313400E949118C82F882321F00E948D188C2F99
S11313500DC0812F0E949118C82F882321F00E946C
S11313608D188C2F03C00E948D1880E0DF91CF91DF
S11313701F910895CF93DF931F92CDB7DEB740E45A
S11313806BE28DE10E94900921E0AE014F5F5F4F57
S11313906BE28DE10E94C40808C021E0AE014F5FFA
S11313A05F4F6BE28DE10E94C408898186FDF5CF11
S11313B040EC6FE08DE10E94900942E06BE28DE128
S11313C00E9490094DE36AE28DE10E9490098981AF
S11313D00F90DF91CF910895EF92FF920F931F9397
S11313E0CF93DF93CDB7DEB72E97CDBFDEBF8C0191
S11313F088E0EEE0F7E8DE01119601900D928A95FF
S1131400E1F7F80101900020E9F731973E2F301BF6
S113141090E081E006C0F801E80FF11D20819227D9
S11314208F5F8317C0F31F929F93CE0101969F9302
S11314308F937E0189E0E80EF11CFF92EF920E94E7
S11314409022B701C8010E9422220F900F900F90A2
S11314500F900F900F902E96CDBFDEBFDF91CF91EE
S11314601F910F91FF90EF900895CF93DF93D62FA4
S1131470C42F60E00E9467188D2F0E9491188C2F52
S11314800E9491180E948D18DF91CF910895CF93F7
S1131490E0E6F4E090E496839183A1E4B3E011974D
S11314A0F1F700009583811102C0CCE301C0CDE3C4
S11314B04AE260E08C2F0E94350A41E760E08C2FFD
S11314C00E94350A4CE560E48C2F0E94350A48E2FC
S11314D060E08C2F0E94350A48E060E08C2F0E9467
S11314E0350A4AE260E08C2F0E94350A49E760E041
S11314F08C2F0E94350A45ED60E08C2F0E94350A3E
S113150040E760E08C2F0E94350A48E760E08C2FAA
S11315100E94350A48E060E08C2F0E94350A46E0BC
S113152060E08C2F0E94350A42E760E08C2F0E9415
S1131530350A40E060E48C2F0E94350A4AE260E0FC
S11315408C2F0E94350A49E760E08C2F0E94350AEF
S11315504AED60E08C2F0E94350A40E060E08C2F59
S11315600E94350A4CED60E08C2F0E94350A40E061
S113157060E08C2F0E94350A41E860E08C2F0E94C5
S1131580350A4FE760E08C2F0E94350A49ED60E090
S11315908C2F0E94350A41EF60E08C2F0E94350A9F
S11315A04BED60E08C2F0E94350A40E460E08C2F04
S11315B00E94350A48E760E08C2F0E94350A48E211
S11315C060E08C2F0E94350A41E060E08C2F0E947D
S11315D0350A40E860E08C2F0E94350A4CE060E058
S11315E08C2F0E94350ABAE624E081E0B1502040F5
S11315F08040E1F700C010920B2A10920C2A85E07B
S113160090E080930D2A90930E2ACF910895EF9243
S1131610FF920F931F93CF93DF93CDB7DEB7E2977B
S1131620CDBFDEBF142F91E1E6E1F7E8DE0192962B
S113163001900D929A95E1F7811102C00CE301C06B
S11316400DE3CE0101967C010E942D22F701019049
S11316500020E9F73197EE19FF09719708F0198A0C
S1131660BE016E5D7F4FCE0101960E942222113091
S113167039F440E860E0802F0E94350A10E012C07F
S113168040EC60E0802F0E94350AF8CFE1E0F0E002
S1131690EC0FFD1FE10FF11D408160E4802F0E94DB
S11316A0350A1F5F103190F381E090E080930B2A9C
S11316B090930C2AE296CDBFDEBFDF91CF911F91AC
S11316C00F91FF90EF9008951F93CF93DF93CDB7C1
S11316D0DEB76197CDBFDEBF182F81E1E6E1F7E801
S11316E0DE01119601900D928A95E1F741E0BE0169
S11316F06F5F7F4F812F0E94070B42E0BE016F5F37
S11317007F4F812F0E94070B10920B2A10920C2AF4
S11317106196CDBFDEBFDF91CF911F91089540E068
S113172060E084E20E944B08811135C040E06AE029
S113173084E20E944B0881112EC04EEF60E081E2EA
S11317400E944B08811127C040E061E081E20E94C1
S11317504B08811120C04CEF62E081E20E944B08EB
S1131760811119C040E064E081E20E944B088111BC
S113177012C040E265E081E20E944B0881110BC077
S11317804FE766E081E20E944B08811104C089E0C2
S11317908093770480E00895CF92DF92EF92FF92D6
S11317A00F931F93CF93DF936C018B017A01E901AF
S11317B069E081E20E943408982F92959695969557
S11317C09370913021F493E6F60190830FC0923028
S11317D021F49FE6F601908309C0933021F494E745
S11317E0F601908303C098E7F6019083982F9695AD
S11317F096959370913021F493E6F70190830FC08E
S1131800923021F49FE6F701908309C0933021F4CC
S113181094E7F701908303C098E7F7019083982F2A
S113182092959F709370913021F49FE6F801908314
S11318300FC0923021F493E6F801908309C09330ED
S113184021F494E7F801908303C098E7F8019083AA
S113185081FF03C080E3888302C081E38883DF9132
S1131860CF911F910F91FF90EF90DF90CF9008954B
S1131870CF93DF93D82FC62F69E084E20E94340807
S11318808D2B482F4C236AE084E20E944B08DF91A1
S1131890CF910895CF93DF93CDB7DEB76A97CDBFCD
S11318A0DEBF99E0EFE3F7E8DE01119601900D92B7
S11318B09A95E1F78C3631F118F4823639F075C017
S11318C08237C1F1833709F44DC06FC06AEE84E4F6
S11318D00E94380C66EE88E80E94380C87E297E88C
S11318E09F938F93CE0101969F938F9309969F9315
S11318F08F930E9490220F900F900F900F900F9053
S11319000F9047C06AEE84E40E94380C8CE297E89A
S11319109F938F93CE0101969F938F9309969F93E4
S11319208F930E9490220F900F900F900F900F9022
S11319300F902FC066EE88E80E94380C81E397E888
S11319409F938F93CE0101969F938F9309969F93B4
S11319508F930E9490220F900F900F900F900F90F2
S11319600F9017C06CEE82E20E94380C87E397E870
S11319709F938F93CE0101969F938F9309969F9384
S11319808F930E9490220F900F900F900F900F90C2
S11319900F9081E00E94640B41E0BE01665F7F4FBF
S11319A081E00E94070B80E001C082E06A96CDBF0F
S11319B0DEBFDF91CF910895CF93DF93CDB7DEB72C
S11319C06997CDBFDEBF98E0E8E4F7E8DE01119641
S11319D001900D929A95E1F78C3631F118F4823624
S11319E039F075C08237C1F1833709F44DC06FC037
S11319F06EEA84E40E94380C6EE688E80E94380C93
S1131A0087E297E89F938F93CE0101969F938F93DC
S1131A1008969F938F930E9490220F900F900F909F
S1131A200F900F900F9047C06EEA84E40E94380C28
S1131A308CE297E89F938F93CE0101969F938F93A7
S1131A4008969F938F930E9490220F900F900F906F
S1131A500F900F900F902FC06EE688E80E94380C0C
S1131A6081E397E89F938F93CE0101969F938F9381
S1131A7008969F938F930E9490220F900F900F903F
S1131A800F900F900F9017C06EEC82E20E94380CFA
S1131A9087E397E89F938F93CE0101969F938F934B
S1131AA008969F938F930E9490220F900F900F900F
S1131AB00F900F900F9081E00E94640B41E0BE01F3
S1131AC0675F7F4F81E00E94070B80E001C082E0E6
S1131AD06996CDBFDEBFDF91CF9108951F920F921B
S1131AE00FB60F9211242F933F934F935F936F93ED
S1131AF07F938F939F93AF93BF93EF93FF938091C3
S1131B00690488234CF480E88093690468E081E2E6
S1131B100E94340880930F2AFF91EF91BF91AF91F7
S1131B209F918F917F916F915F914F913F912F91F1
S1131B300F900FBE0F901F901895E0E0F4E088E03E
S1131B40808B818B828B838B848B858B868B878B1D
S1131B50E0E2F4E0808B818B828B838B848B858B9A
S1131B60E0E4F4E0808B818B828B838B848B858B88
S1131B70868B878BE0E6F4E094E0908B918B928BDC
S1131B80938B948B958B968B978BE0E8F4E0808B0A
S1131B90818B828B838BE0EAF4E0808B818B828B58
S1131BA0838B848B858B868B08952F923F924F92E3
S1131BB05F926F927F928F929F92AF92BF92CF92D9
S1131BC0DF92EF92FF920F931F93CF93DF93CDB7E2
S1131BD0DEB7C150D340CDBFDEBF92E4EEEAF7E8F2
S1131BE0DE01AB5ABE4F01900D929A95E1F793E353
S1131BF0E0EFF7E8DE01A956BE4F01900D929A95E9
S1131C00E1F791E2E3E2F8E8DE01A653BE4F01906A
S1131C100D929A95E1F790E2E4E4F8E8DE01A5512B
S1131C20BE4F01900D929A95E1F792E1E4E6F8E84F
S1131C30DE01A55FBD4F01900D929A95E1F791E306
S1131C40E6E7F8E8DE01A35EBD4F01900D929A9598
S1131C50E1F793E1E7EAF8E8DE01A25BBD4F01900A
S1131C600D929A95E1F793E1EAEBF8E8DE01AF59BA
S1131C70BD4F01900D929A95E1F79DE1EDECF8E8E6
S1131C80DE01AC58BD4F01900D929A95E1F799E2AF
S1131C90EAEEF8E8DE01AF56BD4F01900D929A9539
S1131CA0E1F79DE0E3E1F9E8DE01A654BD4F0190C0
S1131CB00D929A95E1F791E1E0E2F9E8DE01A9538A
S1131CC0BD4F01900D929A95E1F7082F10E084E33F
S1131CD0809FF001819FF00D1124ED5FF74DE181AC
S1131CE08E2F90E0FC01E154F109E633F10508F090
S1131CF069C5ED58FF4F0C949120CE018B5E9E4F29
S1131D000E94780584E3809FF001819FF00D1124E7
S1131D10ED5FF74DE1800F2EFFE3FF2EF02DFE0C5B
S1131D20AE0148515D4F68E18F2D0E94F615833650
S1131D3061F480E090E8A6E2B4ECC851DD4F8883FA
S1131D409983AA83BB83C85ED240AE014C515D4FD8
S1131D5062E58F2D0E94F615833661F480E090E8E9
S1131D60A6E2B4ECCC51DD4F88839983AA83BB836C
S1131D70C45ED24024E3209FC001219F900D112412
S1131D80825D974DCC51DD4F6881C45ED240CB510A
S1131D90DD4F7881C55ED240CA51DD4FE881C65E11
S1131DA0D240C951DD4FF881C75ED240C851DD4FE2
S1131DB02881C85ED240C751DD4F3881C95ED24008
S1131DC0C651DD4F4881CA5ED240C551DD4F5881AE
S1131DD0CB5ED240A091A804A2FF03C0A2E0B0E071
S1131DE002C0A1E0B0E09F938F93FF93EF937F93A2
S1131DF06F935F934F933F932F931F92EF92CE0174
S1131E008B5E9E4F9F938F93BF93AF938B549F4F43
S1131E109F938F938E010F5F1F4F1F930F930E9409
S1131E209022C8010E94EC09F80101900020E9F712
S1131E303197AF01401B510BB80180E00E94FE189E
S1131E40CDBFDEBFC5C4CE018B5E9E4F0E94780518
S1131E5084E3809FF001819FF00D1124ED5FF74D25
S1131E6081810F2EFFE17F2EF02D780EAE014852B6
S1131E705D4F60E1872D0E94E014833661F48FEF9B
S1131E809FEFAFEFBFE7C852DD4F88839983AA83E2
S1131E90BB83C85DD240C852DD4F688179818A8195
S1131EA09B81C85DD2402CE031E040E050E00E94CC
S1131EB07220F22EE32ED42EC52EAE0144525D4F75
S1131EC062E1872D0E94E014833661F48FEF9FEF67
S1131ED0AFEFBFE7C452DD4F88839983AA83BB83E6
S1131EE0CC5DD240C452DD4F688179818A819B8167
S1131EF0CC5DD2402CE031E040E050E00E94722002
S1131F00B22EA32E942E852EAE0140525D4F61E376
S1131F10872D0E947316833661F48FEF9FEFAFEF26
S1131F20BFE7C052DD4F88839983AA83BB83C05E19
S1131F30D240C052DD4F88819981AA81BB81C05EA5
S1131F40D240CD01AA27BB279C01220F331F880F43
S1131F50991F880F991F880F991F820F931F44E3BD
S1131F60409F9001419F300D1124A901425D574DBE
S1131F70F901ED5FF74D21813091A80432FF03C0D0
S1131F8032E060E002C031E060E05F934F939F93E2
S1131F908F938F929F92AF92BF92CF92DF92EF92E4
S1131FA0FF921F922F93CE018B5E9E4F9F938F9330
S1131FB06F933F938E579F4F9F938F938E010F5F25
S1131FC01F4F1F930F930E949022C8010E94EC0997
S1131FD0F80101900020E9F73197AF01401B510B44
S1131FE0B80180E00E94FE18CDBFDEBFF1C380E0DF
S1131FF00E94BD17CC51DD4F688379838A839B830C
S1132000C45ED24080E00E94FB06F62EE72ED82E56
S1132010C92E81E00E94BD17C850DD4F6883C85F98
S1132020D240C750DD4F7883C95FD240C650DD4FE0
S11320308883CA5FD240C550DD4F9883CB5FD240BE
S113204081E00E94FB06C450DD4F6883CC5FD24020
S1132050C350DD4F7883CD5FD240C250DD4F8883BB
S1132060CE5FD240C150DD4F9883CF5FD24082E033
S11320700E94BD17B62EA72E982E892E82E00E94AC
S1132080FB06762E672E582E492E83E00E94BD173C
S1132090C050DD4F6883C050D340CF5FDC4F78839E
S11320A0C150D340382E292ECE018B5E9E4F0E9404
S11320B0780524E3209FC001219F900D1124825DA7
S11320C0974DCC51DD4F2881C45ED240CB51DD4FBA
S11320D03881C55ED240CA51DD4F4881C65ED240C8
S11320E0C951DD4F5881C75ED2406091A80462FF98
S11320F003C062E070E002C061E070E09F938F93E0
S11321002F923F92CF5FDC4F9881C150D3409F9371
S1132110C050DD4F8881C050D3408F934F925F925F
S11321206F927F928F929F92AF92BF92C150DD4F78
S11321309881CF5FD2409F93C250DD4F8881CE5F9C
S1132140D2408F93C350DD4F9881CD5FD2409F938F
S1132150C450DD4F8881CC5FD2408F93C550DD4F92
S11321609881CB5FD2409F93C650DD4F8881CA5F70
S1132170D2408F93C750DD4F9881C95FD2409F935F
S1132180C850DD4F8881C85FD2408F93CF92DF92D1
S1132190EF92FF925F934F933F932F93CE018B5E09
S11321A09E4F9F938F937F936F93805C9F4F9F93DA
S11321B08F938E010F5F1F4F1F930F930E949022E6
S11321C0CDBFDEBFC8010E94EC09F80101900020D8
S11321D0E9F73197AF01401B510BB80180E00E9431
S11321E0FE1841E060E577E881E00E94070BCC51DE
S11321F0DD4FB880C45ED240CB51DD4FA880C55EB0
S1132200D240CA51DD4F9880C65ED240C951DD4FDD
S11322108880C75ED24026E636E646EE5FE36B2D45
S11322207A2D892D982D0E94741CCF92DF92EF9203
S1132230FF9220E030E040E052E40E94DA1A9F93DB
S11322408F937F936F938F929F92AF92BF9280E60A
S113225097E89F938F931F930F930E94902242E0DD
S1132260B80181E00E94070BCDBFDEBFB1C2AE0151
S11322704C505D4FBE0160517D4FCE0184519D4F46
S11322800E94F808CE018B5E9E4F0E94780524E3DD
S1132290209FC001219F900D1124825D974DCC5049
S11322A0DD4FA881C45FD240CB50DD4FB881C55FFC
S11322B0D240CA50DD4F1881C65FD240C950DD4FAD
S11322C00881C75FD240C051DD4F6881C05FD240F2
S11322D0CF50DD4F7881C15FD240CE50DD4FE881D1
S11322E0C25FD240CD50DD4FF881C35FD240C451AC
S11322F0DD4F2881CC5ED240C351DD4F3881CD5EA5
S1132300D240C251DD4F4881CE5ED240C151DD4F33
S11323105881CF5ED240F090A804F2FE05C06894C4
S1132320FF24F1F8E12C03C0FF24F394E12C9F93E4
S11323308F930F931F93BF93AF93FF93EF937F9369
S11323406F935F934F933F932F93CE018B5E9E4F7A
S11323509F938F93EF92FF928A529F4F9F938F93F5
S11323608E010F5F1F4F1F930F930E949022C8018D
S11323700E94EC09F80101900020E9F73197AF01C0
S1132380401B510BB80180E00E94FE1841E066E753
S113239077E881E00E94070BC950DD4F8881C75F51
S11323A0D2408F93CA50DD4F8881C65FD2408F934D
S11323B0CB50DD4F8881C55FD2408F93CC50DD4F29
S11323C08881C45FD2408F93CD50DD4F8881C35F35
S11323D0D2408F93CE50DD4F8881C25FD2408F931D
S11323E0CF50DD4F8881C15FD2408F93C051DD4F04
S11323F08881C05FD2408F93C151DD4F8881CF5E09
S1132400D2408F93C251DD4F8881CE5ED2408F93EC
S1132410C351DD4F8881CD5ED2408F93C451DD4FCF
S11324208881CC5ED2408F93CE01855F9D4F9F9370
S11324308F931F930F930E949022CDBFDEBF42E083
S1132440B80181E00E94070BC3C1CE018B5E9E4F91
S11324500E9478059E012C5A3E4FAE014D5A5E4FA4
S1132460BE016E5A7E4FCE018F5A9E4F0E94CC0BF6
S113247024E3209FC001219F900D1124825D974D7C
S1132480CC5ADE4F5881C455D140CD5ADE4F4881D5
S1132490C355D140CE5ADE4F3881C255D140CF5AB0
S11324A0DE4F2881C155D1406091A80462FF03C06A
S11324B062E070E002C061E070E09F938F931F922E
S11324C05F931F924F931F923F931F922F93CE01BE
S11324D08B5E9E4F9F938F937F936F93885F9E4FE6
S11324E09F938F938E010F5F1F4F1F930F930E9433
S11324F09022C8010E94EC09F80101900020E9F73C
S11325003197AF01401B510BB80180E00E94FE18C7
S1132510CD5ADE4F8881C355D1401F928F93CE5A36
S1132520DE4F8881C255D1401F928F93CE01825BCA
S11325309D4F9F938F931F930F930E94902241E08E
S1132540B80181E00E94070BCC5ADE4F8881C45544
S1132550D1401F928F93CF5ADE4F8881C155D1400D
S11325601F928F93CE018F599D4F9F938F931F93EB
S11325700F930E949022CDBFDEBF42E0B80181E0FC
S11325800E94070B25C1CE018B5E9E4F0E947805E9
S113259024E1AE01475D5E4F60E070E080E50E949B
S11325A08706CE01835C9E4F0E94F40524E3209F9E
S11325B0C001219F900D1124825D974D2091A804A4
S11325C022FF03C022E030E002C021E030E09F930C
S11325D08F93CE01835C9E4F9F938F9344979F93D9
S11325E08F938E010B5E1E4F1F930F933F932F9378
S11325F0855B9E4F9F938F93835792407C019F935B
S11326008F930E949022C7010E94EC09F701019068
S11326100020E9F73197AF014E195F09B70180E057
S11326200E94FE1841E062E877E881E00E94070B0F
S1132630B801655F7F4F42E081E00E94070BCDBF88
S1132640DEBFC6C081E00E94D207F62EE72ED82E48
S1132650C92E82E00E94D207B62EA72E982E892E6C
S1132660CE018B5E9E4F0E94780524E3209FC0011B
S1132670219F900D1124825D974D2091A80422FF83
S113268003C022E030E002C021E030E09F938F934A
S11326908F929F92AF92BF92CF92DF92EF92FF926E
S11326A0CE018B5E9E4F9F938F933F932F938458BD
S11326B09E4F9F938F938E010F5F1F4F1F930F9316
S11326C00E949022C8010E94EC09F80101900020A8
S11326D0E9F73197AF01401B510BB80180E00E942C
S11326E0FE1841E067E877E881E00E94070B8F92CB
S11326F09F92AF92BF92CF92DF92EF92FF92CE0160
S113270086549D4F9F938F931F930F930E94902203
S113271042E0B80181E00E94070BCDBFDEBF58C084
S1132720CE01865F9E4F0E94FB05CE018B5E9E4FBD
S11327300E94780524E3209FC001219F900D11245D
S1132740825D974D2091A80422FF03C022E030E06F
S113275002C021E030E09F938F93CE01865F9E4FAD
S11327609F938F930B969F938F933F932F938E54A6
S11327709E4F9F938F938E010F5F1F4F1F930F9355
S11327800E949022C8010E94EC09F80101900020E7
S1132790E9F73197AF01401B510BB80180E00E946B
S11327A0FE1841E06DEF76E881E00E94070BC80156
S11327B00E94FB0542E0B80181E00E94070BCDBFF7
S11327C0DEBF06C067E977E889EC90E00E943E0628
S11327D080E0CF5FDC4FCDBFDEBFDF91CF911F9193
S11327E00F91FF90EF90DF90CF90BF90AF909F90AC
S11327F08F907F906F905F904F903F902F900895AF
S1132800CF93DF93CDB7DEB72697CDBFDEBF10924F
S1132810122A91E09093132B1092152B1092162BE1
S1132820898386E18A837B836C835D834E8346E060
S1132830BE016F5F7F4F81E00E94FE1881E090E04F
S11328400E940C188091162B813041F40E942218AA
S11328508091122A8F3F61F083E60BC08091102A89
S11328609091112AC39770F30E94221883E601C045
S113287080E02696CDBFDEBFDF91CF910895CF9340
S1132880DF93D0E0C0E80BC048E057E160E070E0BF
S11328908C2F0E940014833609F4DF5FCF5FC338A6
S11328A098F3DD2311F083E601C080E0DF91CF913E
S11328B00895DC0140E050E080E090E01BC0FD01A1
S11328C0E40FF51F208130E0322F2227822793273F
S11328D020E00CC099233CF4880F991F31E2832730
S11328E030E1932702C0880F991F2F5F283090F39F
S11328F04F5F5F4F4617570710F30895CF93DF9349
S1132900CDB7DEB76597CDBFDEBF1092122A91E036
S11329109093132B1092152B1092162B898381E41C
S11329208A831B821C8280E28D831E821F8218860A
S113293090E499871A861B861C868D871E867F875E
S1132940688B598B4A8B1B8A63E170E0CE01019638
S11329500E9459149C8B8D8B45E1BE016F5F7F4FA4
S113296081E00E94FE1881E090E00E940C188091A2
S1132970162B813081F08091102A9091112AC397EF
S1132980B0F30E94221861E379E88FE291E00E949B
S11329903E0683E60FC00E9422188091122A8F3FC0
S11329A041F068E479E88FE291E00E943E0683E614
S11329B001C080E06596CDBFDEBFDF91CF91089561
S11329C0EF92FF920F931F93CF93DF93CDB7DEB7B0
S11329D02797CDBFDEBF8A0197E09093132B109207
S11329E0152B1092162B89836A8342E0BE016F5F18
S11329F07F4F81E00E94FE1881E090E00E940C1855
S1132A0011C000008091102A9091112AC39750F0B0
S1132A100E94221866E679E880E391E00E943E066F
S1132A2083E674C08091162B882359F30E942218E0
S1132A30E2E1FAE2E580F12CFE2CEE248681E82A1C
S1132A4022E00EC0822F90E0FC01E05FF54D308162
S1132A50E1E0F0E0EC0FFD1FE80FF91F30832F5F7A
S1132A60273080F367E070E0CE0101960E9459148C
S1132A70E816F90671F0D8011D921D921D921C9260
S1132A8013976FE779E881E391E00E943E0683E6BD
S1132A903DC022E13AE2F901808190E0A0E0B0E09B
S1132AA0782F662755274427D8014D935D936D935E
S1132AB07C9313979181892F90E0A0E0B0E0DC0132
S1132AC099278827842B952BA62BB72BF801808375
S1132AD09183A283B383F901428150E060E070E006
S1132AE0762F652F542F4427842B952BA62BB72B99
S1132AF0F80180839183A283B383F9012381822B1C
S1132B00F80180839183A283B38380E02796CDBFAD
S1132B10DEBFDF91CF911F910F91FF90EF90089549
S1132B20FF920F931F93CF93DF9300D000D0CDB7C4
S1132B30DEB7082F10E084E3809FF001819FF00D41
S1132B401124ED5FF74D8181813400F1843428F044
S1132B509FE9980F933058F019C00F2EFFE3FF2E12
S1132B60F02DF80E19821A821B821C8217C00F2EB8
S1132B70FFE1FF2EF02DF80EAE014F5F5F4F60E1D5
S1132B808F2D0E94E014833649F426C065E979E864
S1132B908DE291E00E943E0683E61FC024E3209F5D
S1132BA0C001219F900D11248B5F974D0E94182125
S1132BB09B01AC01ACE0B1E00E94972009811A812D
S1132BC02B813C81AB01BC01400F511F621F731F5D
S1132BD08F2D0E947E1401C083E62496CDBFDEBFF4
S1132BE0DF91CF911F910F91FF900895AF92BF9203
S1132BF0CF92DF92EF92FF920F931F93CF93DF93C5
S1132C0000D000D0CDB7DEB7A82EB62E7A0184E06E
S1132C108093132B1092152B1092162BA9826A8382
S1132C2042E0BE016F5F7F4F81E00E94FE1881E0A9
S1132C3090E00E940C188091162B813081F08091D5
S1132C40102A9091112AC397B0F30E94221867EBBF
S1132C5079E880E391E00E943E0683E636C00E9454
S1132C602218E2E1FAE29081C92ED12CDC2CCC248A
S1132C708181C82A028110E0102F00272381022BB2
S1132C8092838383A082B18264E070E0CF010E94CA
S1132C9059140817190741F069EC79E881E391E0C8
S1132CA00E943E0683E611C0B60180E090E00E94D7
S1132CB0BD1B20E030E040E251E40E944B1BF701D1
S1132CC0608371838283938380E02496CDBFDEBFCB
S1132CD0DF91CF911F910F91FF90EF90DF90CF90F4
S1132CE0BF90AF900895EF92FF920F931F93CF93ED
S1132CF0DF93CDB7DEB72697CDBFDEBF8A0196E05E
S1132D009093132B1092152B1092162B89836A83A0
S1132D1042E0BE016F5F7F4F81E00E94FE1881E0B8
S1132D2090E00E940C188091162B813081F08091E4
S1132D30102A9091112AC397B0F30E9422186DEDC6
S1132D4079E88FE291E00E943E0683E660C00E942B
S1132D502218E2E1FAE2E480F12CFE2CEE248581D3
S1132D60E82A22E00EC0822F90E0FC01E05FF54DDE
S1132D703081E1E0F0E0EC0FFD1FE80FF91F308334
S1132D802F5F263080F366E070E0CE0101960E944A
S1132D905914E816F90689F063EF79E881E391E0C4
S1132DA00E943E068FEF9FEFAFEFBFE7F8018083ED
S1132DB09183A283B38383E62AC0E2E1FAE28081AD
S1132DC090E0A0E0B0E0782F662755274427918152
S1132DD0892F90E0A0E0B0E0DC0199278827842BBC
S1132DE0952BA62BB72B428150E060E070E0762F44
S1132DF0652F542F4427842B952BA62BB72B238187
S1132E00822BF80180839183A283B38380E026968A
S1132E10CDBFDEBFDF91CF911F910F91FF90EF9057
S1132E200895AC01E0E6F0E0948D9E7F88ED84BFC8
S1132E30948F01C000009091630096FDFBCFE0E603
S1132E40F0E0948D9B7F28ED24BF948F948D916046
S1132E5024BF948F01C00000909141019111FBCFD8
S1132E60E0E4F1E04287538782E0878385818160D3
S1132E70858381EB808382818160828308951F92A0
S1132E800F920FB60F9211242F933F934F935F939A
S1132E906F937F938F939F93AF93BF93EF93FF931E
S1132EA081E08093430180910B2A90910C2A009732
S1132EB0B9F020910D2A30910E2A2817390758F4B9
S1132EC080E00E94640B81E00E94640B10920B2A44
S1132ED010920C2A05C0019680930B2A90930C2A19
S1132EE080E28093A704FF91EF91BF91AF919F91EE
S1132EF08F917F916F915F914F913F912F910F909F
S1132F000FBE0F901F901895CF93DF9390E024E3AA
S1132F10289FF001299FF00D1124ED5FF74D2181C9
S1132F202437E9F424E3289FE001299FD00D1124DC
S1132F30CB5FD74DFE0101900020E9F73197EC1BE0
S1132F40FD0B739771F4CE010E94DC0524E1AE0100
S1132F5060E070E080E50E94C90680E003C082E082
S1132F6001C082E0DF91CF910895E0EAF4E0828924
S1132F70877F828B84E082830895833018F08330C6
S1132F8021F006C00E94490108950E947508089521
S1132F906AE979EF89E794EC08950F931F93CF932F
S1132FA0DF93CDB7DEB7E297CDBFDEBF81E090E01F
S1132FB00E940C188DE890E20197F1F700000E943E
S1132FC022188091102A9091112A9F938F938BE05D
S1132FD09AE89F938F938E010F5F1F4F1F930F9358
S1132FE00E949022F80101900020E9F73197AF0187
S1132FF0401B510BB80180E00E94FE180F900F9007
S11330000F900F900F900F90E296CDBFDEBFDF912F
S1133010CF911F910F9108951092102A1092112AA6
S113302025E03DE0AC01429FC001439F900D529FBB
S1133030900D1124E0E8FAE08487958781E0858388
S1133040808308951092800A08951F920F920FB6FC
S11330500F9211248F939F9381E08093860A80912D
S1133060102A9091112A01968093102A9093112A84
S11330709F918F910F900FBE0F901F901895E0EACB
S1133080F8E08BE08683838181608383858181601E
S11330908583089501C000008091A5088823DCF78A
S11330A0E0EAF8E084818B7F848380859481926058
S11330B09483089501C000008091A5088823DCF75B
S11330C0E0EAF8E084818460848380850895613037
S11330D039F490E0880F991F81608093A70805C098
S11330E0880F8093A70801C000008091A508807C08
S11330F0D9F38091A50882FD0CC08091A50883FDB9
S11331000AC09091A508892F807194FF05C084E0BE
S1133110089582E0089583E0089587E08093A408E9
S1133120089501C000009091A50896FFFBCF8093FD
S1133130A80801C000008091A50886FFFBCF9091EC
S1133140A508892F807194FD84E00895E0E0F4E0FF
S113315081E085838183E0E0F8E02DE635E0208797
S11331603187958190689583968190649683968142
S11331709068968310921B2D10921C2D8093202D05
S11331801092162C1092172C1092172B1092192CA7
S113319010921B2CE0E4F4E085838183E0E2F8E004
S11331A04BE551E0408751879581906895839681DE
S11331B09064968396819068968310922A30109238
S11331C02B3080932F301092112B1092122B1092CF
S11331D0122A1092162BE0E2F4E085838183E0E664
S11331E0F8E0208731879681906496839681906871
S11331F0968380932A2F1092252E08950F931F9360
S1133200CF93DF93EB01142F813001F1B0F08330C1
S113321009F46DC074C0EBE1FDE2808190E0388177
S1133220DC01A45EB34D3C9301966FEF70E00E9405
S11332305E2080832F5F219601C020E0211758F380
S1133240E0E0F8E085818062858359C0642F70E0F6
S1133250CE010E945914482F092F20E011C0EAE240
S1133260F0E3808190E03881DC01A55DB04D3C93B2
S113327001966FEF70E00E945E2080832F5F21969D
S1133280211768F3EAE2F0E3808190E0DC01A55DB8
S1133290B04D0C9301962FEF30E0B9010E945E20EF
S11332A090E0DC01A55DB04D4C930196B9010E94FC
S11332B05E2080831E5F10932C3010922E30E0E24B
S11332C0F8E08581806285831AC0E5E2FFE28081AF
S11332D090E03881DC01AA5DB14D3C9301966FEF1B
S11332E070E00E945E2080832F5F219601C020E061
S11332F0211758F3E0E6F8E0858180628583DF9149
S1133300CF911F910F9108951F920F920FB60F92B4
S113331011245F936F937F938F939F93AF93BF9386
S1133320EF93FF938091192C8F3F19F1809100083E
S11333308D3051F481E080931B2CE091162CF0E049
S1133340E95EF44D108206C0E091162CF0E0E95ECF
S1133350F44D8083E9E1FCE280818F5F8083E6E1C4
S1133360FCE2808190E001966FEF70E00E945E20A5
S11333708083FF91EF91BF91AF919F918F917F9146
S11333806F915F910F900FBE0F901F9018951F9231
S11333900F920FB60F9211248F939F93EF93FF9385
S11333A0E0E0F8E085818F7D858380911B2DE0919D
S11333B01C2D8E17B9F091E09E0F90931C2DF0E018
S11333C0E45EF34D80818093020881E09F3F08F41E
S11333D080E0890F80931C2DE0E0F8E08581806215
S11333E0858303C081E08093202DFF91EF919F910D
S11333F08F910F900FBE0F901F9018951F920F92F0
S11334000FB60F9211242F938F939F93EF93FF93F3
S113341090912008E091152B8091132BE81740F42C
S113342021E02E0F2093152BF0E0EE5EF54D9083F6
S11334309091152B981718F081E08093162BFF912B
S1133440EF919F918F912F910F900FBE0F901F902E
S113345018951F920F920FB60F9211248F939F937A
S1133460EF93FF93E0E2F8E085818F7D858380917F
S11334702A30E0912B308E17B9F091E09E0F909393
S11334802B30F0E0E55DF04D80818093220881E0EF
S11334909F3F08F480E0890F80932B30E0E2F8E04E
S11334A085818062858303C081E080932F30FF9102
S11334B0EF919F918F910F900FBE0F901F901895D1
S11334C01F920F920FB60F9211248F939F93AF9375
S11334D0BF93EF93FF93809160088D3021F0E091CA
S11334E0242EEE3F78F081E08093252EA4E2BEE204
S11334F08C91E82FF0E0EF5DF24D10828093222E44
S11335001C9208C091E09E0F9093242EF0E0EF5D92
S1133510F24D8083FF91EF91BF91AF919F918F9175
S11335200F900FBE0F901F9018951F920F920FB619
S11335300F9211248F939F93AF93BF93EF93FF93B5
S1133540A9E2BFE2EC9181E08E0F8C93F0E0EA5D9A
S1133550F14D9081909362089091272F891740F044
S1133560E0E6F8E085818F7D858381E080932A2FD2
S1133570FF91EF91BF91AF919F918F910F900FBEEB
S11335800F901F9018950E94A6180E94CD1A88EDDE
S113359084BF81E0809300010895E0E4F4E088E0D2
S11335A086838183ADE8B0E21197F1F7000085834B
S11335B008955058BB27AA270E94F11A0C94351C71
S11335C00E94271C38F00E942E1C20F039F49F3FE3
S11335D019F426F40C94241C0EF4E095E7FB0C94E7
S11335E01E1CE92F0E94461C58F3BA176207730782
S11335F08407950720F079F4A6F50C94681C0EF462
S1133600E0950B2EBA2FA02D0B01B90190010C01EE
S1133610CA01A0011124FF27591B99F0593F50F406
S1133620503E68F11A16F040A22F232F342F44275E
S1133630585FF3CF469537952795A795F040539556
S1133640C9F77EF41F16BA0B620B730B840BBAF026
S11336509150A1F0FF0FBB1F661F771F881FC2F791
S11336600EC0BA0F621F731F841F48F487957795A5
S11336706795B795F7959E3F08F0B0CF9395880F5F
S113368008F09927EE0F9795879508950E94FA1BE5
S113369008F481E008950E945F1B0C94351C0E947D
S11336A02E1C58F00E94271C40F029F45F3F29F09B
S11336B00C941E1C51110C94691C0C94241C0E9423
S11336C0461C68F39923B1F3552391F3951B550BCD
S11336D0BB27AA2762177307840738F09F5F5F4FE1
S11336E0220F331F441FAA1FA9F335D00E2E3AF020
S11336F0E0E832D091505040E695001CCAF72BD038
S1133700FE2F29D0660F771F881FBB1F2617370788
S11337104807AB07B0E809F0BB0B802DBF01FF27BA
S113372093585F4F3AF09E3F510578F00C941E1C5D
S11337300C94691C5F3FE4F3983ED4F38695779527
S11337406795B795F7959F5FC9F7880F911D969573
S1133750879597F90895E1E0660F771F881FBB1FCF
S1133760621773078407BA0720F0621B730B840B7C
S1133770BA0BEE1F88F7E0950895E89409C097FB0B
S11337803EF490958095709561957F4F8F4F9F4F34
S11337909923A9F0F92F96E9BB279395F695879578
S11337A077956795B795F111F8CFFAF4BB0F11F43B
S11337B060FF1BC06F5F7F4F8F4F9F4F16C08823E2
S11337C011F096E911C0772321F09EE8872F762F18
S11337D005C0662371F096E8862F70E060E02AF059
S11337E09A95660F771F881FDAF7880F9695879545
S11337F097F90895990F0008550FAA0BE0E8FEEF1A
S113380016161706E807F907C0F012161306E407A0
S1133810F50798F0621B730B840B950B39F40A2699
S113382061F0232B242B252B21F408950A2609F477
S1133830A140A6958FEF811D811D089597F99F677B
S113384080E870E060E008959FEF80EC0895002424
S11338500A941616170618060906089500240A94F1
S113386012161306140605060895092E0394000C77
S113387011F4882352F0BB0F40F4BF2B11F460FF06
S113388004C06F5F7F4F8F4F9F4F089557FD90582F
S1133890440F551F59F05F3F71F04795880F97FB10
S11338A0991F61F09F3F79F08795089512161306CA
S11338B01406551FF2CF4695F1DF08C016161706F9
S11338C01806991FF1CF869571056105089408952E
S11338D0E894BB2766277727CB0197F908950E94C0
S11338E0FA1B08F48FEF08950E94871C0C94351C72
S11338F00E94271C38F00E942E1C20F0952311F002
S11339000C941E1C0C94241C11240C94691C0E94FD
S1133910461C70F3959FC1F3950F50E0551F629FAD
S1133920F001729FBB27F00DB11D639FAA27F00D14
S1133930B11DAA1F649F6627B00DA11D661F829F3B
S11339402227B00DA11D621F739FB00DA11D621F20
S1133950839FA00D611D221F749F3327A00D611D3D
S1133960231F849F600D211D822F762F6A2F11241F
S11339709F5750409AF0F1F088234AF0EE0FFF1F52
S1133980BB1F661F771F881F91505040A9F79E3FA9
S1133990510580F00C941E1C0C94691C5F3FE4F3E9
S11339A0983ED4F3869577956795B795F795E795FF
S11339B09F5FC1F7FE2B880F911D9695879597F908
S11339C00895A0E1B0E0E7EEFCE10C94A2207C01B4
S11339D01B016A01FC0116821782838181FF44C3A3
S11339E09E012F5F3F4F3901F7019381F10193FD50
S11339F0859193FF81911F01882309F431C3853296
S1133A0039F493FD859193FF81911F01853239F437
S1133A10B70190E00E94542256016501E5CF10E001
S1133A20512C912CFFE1F915D8F08B3279F038F450
S1133A30803279F08332A1F4F92DF0612EC08D32F9
S1133A4061F0803369F4292D21602DC0392D326055
S1133A50932E892D8460982E2AC0E92DE86015C024
S1133A6097FC2DC020ED280F2A3088F496FE06C05E
S1133A703AE0139F200D1124122F19C08AE0589E9A
S1133A80200D1124522EE92DE0629E2E10C08E329C
S1133A9031F496FCE5C2F92DF0649F2E08C08C36F3
S1133AA021F4292D2068922E02C0883641F4F101B8
S1133AB093FD859193FF81911F018111B3CF9BEBFE
S1133AC0980F933020F4992D9061805E07C09BE994
S1133AD0980F933008F066C1992D9F7E96FF16E0EB
S1133AE09F73992E853619F49064992E08C08636F2
S1133AF021F4392F3068932E02C01111115097FE12
S1133B0007C01C3350F444244394410E27E00BC0F7
S1133B10183038F027E017E005C027E09CE3492E71
S1133B2002C0212F412C560184E0A80EB11CF601DD
S1133B306081718182819381042DA3010E943F21C0
S1133B406C01F981FC87F0FF02C0F3FF06C091FC11
S1133B5006C092FE06C000E205C00DE203C00BE2FF
S1133B6001C000E08C858C7019F001115AC29BC20F
S1133B7097FE10C04C0CFC85F4FF04C08A8181338D
S1133B8009F44A94141474F528E0241578F588E0AF
S1133B90482E2CC096FC2AC0812F90E08C159D05E0
S1133BA09CF03CEFC3163FEFD30674F0892D806878
S1133BB0982E0AC0E2E0F0E0EC0FFD1FE10FF11DCA
S1133BC08081803319F411501111F4CF97FE0EC087
S1133BD044244394410E812F90E0C816D9062CF456
S1133BE01C1904C04424439401C010E097FE06C08D
S1133BF01C141D0434F4C601019605C085E090E050
S1133C0002C081E090E001110196112331F0212FCF
S1133C1030E02F5F3F4F820F931F252D30E0821736
S1133C20930714F4581A01C0512C892D897049F452
S1133C30552039F0B70180E290E00E9454225A9452
S1133C40F7CF002329F0B701802F90E00E9454227F
S1133C5093FC09C0552039F0B70180E390E00E943D
S1133C6054225A94F7CF97FE4CC04601D7FE02C0A7
S1133C70812C912CC60188199909F301E80FF91FC9
S1133C80ED87FE879601241931092F87388B012F80
S1133C9010E01195019511093FEF8316930629F45D
S1133CA0B7018EE290E00E945422C814D9044CF06B
S1133CB08F8598898815990524F4ED85FE85818181
S1133CC001C080E3F1E08F1A91082D853E852F5FB6
S1133CD03F4F2D873E87801691062CF0B70190E068
S1133CE00E945422D9CFC814D90441F49A8196333E
S1133CF020F4953319F43C8534FF81E3B70190E057
S1133D004EC08A81813319F09C859F7E9C87B701C0
S1133D1090E00E945422111105C094FC18C085E65D
S1133D2090E017C0B7018EE290E00E9454221E5F1B
S1133D3082E001E0080FF301E80FF11D8081B70173
S1133D4090E00E945422802F0113F3CFE6CF85E444
S1133D5090E0B7010E945422D7FC06C0C114D104DC
S1133D6041F4EC85E4FF05C0D194C194D1088DE2FF
S1133D7001C08BE2B70190E00E94542280E32AE064
S1133D80C216D1042CF08F5FFAE0CF1AD108F7CF16
S1133D90B70190E00E945422B701C601C0960E9468
S1133DA0542254C1833631F0833779F0833509F0D6
S1133DB056C020C0560132E0A30EB11CF60180812A
S1133DC0898301E010E0630112C05601F2E0AF0EF6
S1133DD0B11CF601C080D18096FE03C0612F70E053
S1133DE002C06FEF7FEFC6010E9434228C01F92DCF
S1133DF0FF7714C0560122E0A20EB11CF601C08068
S1133E00D18096FE03C0612F70E002C06FEF7FEF98
S1133E10C6010E9417228C01F92DF0689F2EF3FD34
S1133E201AC0852D90E008171907A8F4B70180E29D
S1133E3090E00E9454225A94F4CFF60197FC8591A5
S1133E4097FE81916F01B70190E00E9454225110B6
S1133E505A94015011090115110579F7F7C08436F8
S1133E6011F0893661F5560197FE09C024E0A20ECF
S1133E70B11CF60160817181828193810AC0F2E0F4
S1133E80AF0EB11CF60160817181072E000C880B06
S1133E90990BF92DFF769F2E97FF09C09095809579
S1133EA0709561957F4F8F4F9F4FF0689F2E2AE04A
S1133EB030E0A3010E94B222C82EC6183FC0092DCB
S1133EC0853721F40F7E2AE030E01DC0097F8F364C
S1133ED091F018F4883559F0C3C0803719F0883749
S1133EE011F0BEC0006104FF09C0046007C094FE65
S1133EF008C0066006C028E030E005C020E130E0DC
S1133F0002C020E132E0560107FF09C084E0A80E98
S1133F10B11CF601608171818281938108C0F2E055
S1133F20AF0EB11CF6016081718180E090E0A301C5
S1133F300E94B222C82EC6180F77902E96FE0BC090
S1133F40092D0E7FC11650F494FE0AC092FC08C0DD
S1133F50092D0E7E05C0DC2C092D03C0DC2C01C00C
S1133F60D12E04FF0DC0FE01EC0DF11D80818033C4
S1133F7011F4097E09C002FF06C0D394D39404C08F
S1133F80802F867809F0D39403FD11C000FF06C08A
S1133F901C2DD51480F4150D1D190DC0D51458F41D
S1133FA0B70180E290E00E945422D394F7CFD51455
S1133FB010F45D1801C0512C04FF10C0B70180E358
S1133FC090E00E94542202FF17C001FD03C088E75D
S1133FD090E002C088E590E0B7010CC0802F86789D
S1133FE059F001FF02C08BE201C080E207FD8DE2BF
S1133FF0B70190E00E945422C11638F4B70180E35F
S113400090E00E9454221150F7CFCA94F301EC0DB2
S1134010F11D8081B70190E00E945422C110F5CFB8
S113402015C0F4E0F51560F584E0581A93FE1FC03E
S1134030011127C02C8523FF2AC002E511E0392D88
S11340403071932EF8018491811124C0552009F414
S1134050E4CCB70180E290E00E9454225A94F6CF57
S1134060F7018681978126C08FEF9FEF23C0B701A8
S113407080E290E00E9454225A945110F8CFD8CF95
S1134080512CB701802F90E00E945422D3CF06E533
S113409011E0D5CF91108052B70190E00E945422D4
S11340A00F5F1F4FCFCF23E0251510F483E0BDCF62
S11340B0512CC0CF6096E2E10C94BB2097FB072EF5
S11340C016F4009407D077FD09D00E94D32007FC92
S11340D005D03EF4909581959F4F08957095619514
S11340E07F4F0895052E97FB1EF400940E948920AB
S11340F057FD07D00E94E72007FC03D04EF40C9430
S1134100892050954095309521953F4F4F4F5F4FF3
S1134110089590958095709561957F4F8F4F9F4F2F
S11341200895EE0FFF1F0590F491E02D09940E946D
S11341300921A59F900DB49F900DA49F800D911D02
S1134140112408952F923F924F925F926F927F9223
S11341508F929F92AF92BF92CF92DF92EF92FF9293
S11341600F931F93CF93DF93CDB7DEB7CA1BDB0B3F
S1134170CDBFDEBF09942A88398848885F846E845D
S11341807D848C849B84AA84B984C884DF80EE8077
S1134190FD800C811B81AA81B981CE0FD11DCDBFB9
S11341A0DEBFED010895AA1BBB1B51E107C0AA1F86
S11341B0BB1FA617B70710F0A61BB70B881F991FC4
S11341C05A95A9F780959095BC01CD010895A1E277
S11341D01A2EAA1BBB1BFD010DC0AA1FBB1FEE1F7D
S11341E0FF1FA217B307E407F50720F0A21BB30BC8
S11341F0E40BF50B661F771F881F991F1A9469F744
S113420060957095809590959B01AC01BD01CF019F
S11342100895A29FB001B39FC001A39F700D811D9B
S11342201124911DB29F700D811D1124911D0895BB
S11342301F93FC0199278827BC01E894119110323F
S1134240E9F3193010F01E30C8F31B3251F01D325F
S113425049F4689406C00E943F22610F711D811DBC
S1134260911D119110531A30B0F33EF4909580953E
S1134270709561957F4F8F4F9F4F1F910895283000
S113428008F027E03327DA01990F311D87FD91608B
S113429000966105710539F432602E5F3D9330E379
S11342A02A95E1F708959F3F30F080387105610544
S11342B009F03C5F3C5F3D93913008F08068911DAC
S11342C0DF93CF931F930F93FF92EF92192F987F51
S11342D09695E92F96959695E90FFF27EC54FE4F96
S11342E099273327EE24FF24A701E70105900894BA
S11342F0079428F4360FE71EF81E491F511D660F58
S1134300771F881F991F0694A1F70590079428F436
S1134310E70EF81E491F561FC11D770F881F991FEE
S1134320661F0694A1F70590079428F4F80E491F18
S1134330561FC71FD11D880F991F661F771F06942C
S1134340A1F70590079420F4490F561FC71FD81FE3
S1134350990F661F771F881F0694A9F784911095FB
S1134360177041F0D695C79557954795F794E794FC
S11343701A95C1F7EAE5F1E0689415901591359125
S11343806591959105907FE27395E118F10A430BCD
S1134390560BC90BD009C0F7E10CF11E431F561F81
S11343A0C91FD01D7EF4703311F48A95E6CFE894CA
S11343B0015030F0080F0AF40027021708F4202FE8
S11343C02395022F7A3328F079E37D932A95E9F730
S11343D010C07D932A9589F606949795679537952D
S11343E017951794E118F10A430B560BC90BD00922
S11343F098F023957E9173957A3308F070E37C935B
S11344002013B8F77E9170617D9330F0839571E34A
S11344107D9370E32A95E1F71124EF90FF900F91BB
S11344201F91CF91DF91992787FD90950895FC0105
S11344300590615070400110D8F7809590958E0FCB
S11344409F1F0895FB01DC010D900020E9F71197EF
S113445001900D920020E1F70895FB01DC01019029
S11344600D920020E1F70895FC0161507040019025
S11344700110D8F7809590958E0F9F1F0895592F9E
S1134480482F372F262F660F771F881F991F660F17
S1134490771F881F991F620F731F841F951F660F54
S11344A0771F881F991F08950F931F93CF93DF934E
S11344B0FB01238121FD03C08FEF9FEF2CC022FF5E
S11344C016C046815781248135814217530744F42D
S11344D0A081B1819D012F5F3F4F208331838C9355
S11344E0268137812F5F3F4F2683378314C08B018A
S11344F0EC01FB010084F185E02D0995892BE1F69F
S1134500D80116968D919C911797019616968D93C6
S11345109C931797CE01DF91CF911F910F9108952E
S1134520AEE0B0E0E6E9F2E20C94B0200D891E8919
S113453086E08C8309831A838FEF9FE78D839E83A4
S1134540AE01475E5F4F6F89788DCE0101960E9460
S1134550E11CEF81F885E00FF11F10822E96E4E054
S11345600C94C920FA01AA27283051F1203181F195
S1134570E8946F936E7F6E5F7F4F8F4F9F4FAF4F67
S1134580B1E03ED0B4E03CD0670F781F891F9A1F7A
S1134590A11D680F791F8A1F911DA11D6A0F711D2E
S11345A0811D911DA11D20D009F468943F912AE03A
S11345B0269F11243019305D3193DEF6CF01089522
S11345C0462F4770405D4193B3E00FD0C9F7F6CF53
S11345D0462F4F70405D4A3318F0495D31FD40521B
S11345E0419302D0A9F7EACFB4E0A69597958795B1
S11345F077956795BA95C9F7009761057105089590
S11346009B01AC010A2E069457954795379527953B
S1134610BA95C9F7620F731F841F951FA01D0895D3
S113462060507C4E0C944B23DC01A40FB51F415009
S1134630504048F0CB01840F951F2E910E942523F2
S113464041505040D0F70895262F0E944723008000
S1134650021619F00E943023019701970895262F1E
S1134660AF93BF93E0E0F0E1328131FDFDCFDC0197
S1134670A050BC4E2C932DE924BF23E02083019647
S1134680BF91AF91089503D0808199270895FC01CB
S1134690E050FC4E0895FB01DC0102C001900D9234
S10F46A041505040D8F70895F894FFCF23
S11346AC24532564434D442C257300323025303279
S11346BC782D253032782D253032785425303278C7
S11346CC3A253032783A2530327800437572726567
S11346DC6E7454696D653F00323032312D30332D98
S11346EC303800245325644552522C25642C2573F0
S11346FC00737065634D6563682056657273696FEA
S113470C6E002A253032580D0A002020202020204B
S113471C2020202020202020202000626F7468009C
S113472C6C65667400726967687400736875747478
S113473C657200436C6F7365202573004F70656E52
S113474C2025730054656D7020262048756D6964AE
S113475C6974790025312E3166432025312E30665B
S113476C462025312E30662525004F7269656E74FE
S113477C6174696F6E0054696D65005265645661AD
S113478C632020426C7565566163007265706F72AC
S113479C743A20696E76616C6964206F626A656331
S11347AC740024532564454E562C25732C25332E26
S11347BC3166432C25312E306625252C25332E319C
S11347CC66432C25312E306625252C25332E316657
S11347DC432C25312E306625252C25332E3166436A
S11347EC2C257300245325644D54522C25732C25ED
S11347FC632C256C642C6D6963726F6E732C256C41
S113480C642C6D6963726F6E732F7365632C2564EE
S113481C2C6D412C257300245325644D54522C25A6
S113482C732C25632C25332E31662C562C25332ED4
S113483C31662C432C257300245325644F52492C88
S113484C25732C25332E31662C25332E31662C25DD
S113485C332E31662C25730025322E3066202532FA
S113486C2E30662025322E30660024532564504E9B
S113487C552C25732C25632C736875747465722CF4
S113488C25632C6C6566742C25632C7269676874BB
S113489C2C25632C6169722C2573006C6566743A43
S11348AC256320202072696768743A256300736855
S11348BC75747465723A256320206169723A2563B4
S11348CC002453256454494D2C25732C25732C73C7
S11348DC65742C25732C626F6F742C257300245310
S11348EC25645641432C25732C25352E32662C72A7
S11348FC65647661632C25352E32662C626C756585
S113490C7661632C25730025322E326620202532E5
S113491C2E326600245325645645522C25732C25BF
S113492C732C25730054696D656F757420524F4256
S113493C4F476F546F207265706C7900426164202C
S113494C7265706C7920286E6F7420307846462915
S113495C20524F424F476F546F00524F424F456E97
S113496C636F64657220726561642074696D656F30
S113497C757400524F424F456E636F6465722043E9
S113498C5243206572726F7200524F424F4D6F76D4
S113499C6520696E76616C6964206D6F746F72202A
S11349AC64657369676E61746F7200524F424F464F
S11349BC6C6F61742074696D656F757400524F422D
S11349CC4F466C6F617420435243206572726F7250
S11349DC006765745F524F424F496E7433322074D2
S11349EC696D656F7574006765745F524F424F490A
S11349FC6E74333220435243206572726F720074AA
S10F4A0C69636B73203D2025640D0A00D3
S1054A18010097
S9030000FC
