:100000000C9433010C9445010C9445010C94871B0E
:100010000C9445010C9445010C9445010C94450148
:100020000C9445010C9445010C9445010C94450138
:100030000C94991C0C9445010C9445010C944501B9
:100040000C9445010C94C01E0C940E1F0C94450199
:100050000C944E0E0C9445010C9445010C944501F2
:100060000C9445010C9445010C944A1F0C94751F87
:100070000C9445010C941A200C9445010C944501F4
:100080000C9445010C9445010C9445010C944501D8
:100090000C9445010C94B11F0C94E61F0C9445017F
:1000A000AC04D004D004D004D004D004D004D004D4
:1000B000D004AF04D004D004D004D004D004D004C1
:1000C000D004D004D004D004D004D004D004D00490
:1000D000D004D0049A04D004D004D004D004D004B6
:1000E000D004D004D004D004A004D0049D04D004D3
:1000F000D004A304A604A9043B0F3B0F3B0F11142B
:1001000011141114111411141114111411141114C7
:1001100011141114111411141114111411141114B7
:100120001114D313111411141114111411141114E6
:100130001114111411141114CB0FCB0FCB0F111478
:100140009610111411141114111411141114111406
:1001500011141114D311A912111411141114321302
:1001600011147A136E616E00696E660000407A1099
:10017000F35A00A0724E18090010A5D4E80000E858
:100180007648170000E40B54020000CA9A3B0000B6
:1001900000E1F505000080969800000040420F0045
:1001A0000000A08601000000102700000000E80306
:1001B000000000006400000000000A0000000000D1
:1001C0000100000000002C76D888DC674F0823DF90
:1001D000C1DFAE59E1B1B796E5E3E453C63AE65163
:1001E000997696E8E6C28426EB898C9B62ED407C8A
:1001F0006FFCEFBC9C9F40F2BAA56FA5F490055A26
:100200002AF75C936B6CF9676DC11BFCE0E40D474A
:10021000FEF520E6B500D0ED902E0300943577056D
:100220000080841E080000204E0A000000C80C3325
:100230003333330F986E12831141EF8D2114893BB4
:10024000E65516CFFEE6DB18D1844B381BF77C1D34
:10025000901DA4BBE424203284725E228100C9F187
:1002600024ECA1E53D2711241FBECFEFCDBFDFE376
:10027000DEBF20E3A0E0B8E201C01D92AD34B207BA
:10028000E1F70E94A7080C94C0280C9400008F92FC
:100290009F92AF92BF92EF92FF920F931F93CF93D3
:1002A000DF9300D000D0CDB7DEB77B018130C9F03D
:1002B00018F0823061F010C00F2EF3E38F2E982CCF
:1002C000F3EFAF2EF0E4BF2EF02D11E00EC0812C25
:1002D000912C540110E109C0812C912C540110E0A3
:1002E00004C0812C912C540114E040E066E087E2C8
:1002F0000E941609412F409560E087E20E9416098E
:10030000412F6AE087E20E94160986E18A95F1F79B
:1003100000008E010F5F1F4F20E840E768E088E48F
:100320000E94C801833651F440E050E866E274EC64
:10033000F70140835183628373831CC020E030E067
:100340004AE754E469817A818B819C810E94E02193
:1003500023E333E948E853E40E9445209B01AC01C4
:10036000C501B4010E944620F70160837183828336
:10037000938380E02496CDBFDEBFDF91CF911F91A4
:100380000F91FF90EF90BF90AF909F908F90089546
:100390008F929F92AF92BF92CF92DF92EF92FF9295
:1003A0000F931F93CF93DF93F82EE62E6801462B11
:1003B000C42FC168D22FD36080E090E8A6E2B4ECED
:1003C000F80180839183A283B38360E08F2D0E9424
:1003D000211D082F882321F00E94731D13E6B4C04D
:1003E00081E00E94771D182F833619F40E94731D37
:1003F000ABC08C2F0E94771D182F833619F40E94F2
:10040000731DA2C08D2F0E94771D182F833619F4FB
:100410000E94731D99C00E94731DFCE1FA95F1F7CB
:10042000C1E009C061E08F2D0E94211D0E94FA1CCD
:1004300088230CF4C0E0C111F5CF0E94731D60E069
:100440008F2D0E94211D80E00E94771D61E08F2D7D
:100450000E94211D0E94D01CC82F0E94FA1CD82F78
:100460000E94731D6C2F70E0762F66276D2B84E041
:10047000E81649F18E1530F0EE20D9F1E2E0EE16E3
:1004800069F142C0F8E0EF1609F442C08AE0E816CC
:1004900021F0E6E0EE1238C00BC00F2EF4E78F2EED
:1004A000F3E19F2EF3E0AF2EF7E3BF2EF02D3AC01D
:1004B0000F2EF4E78F2EF3E19F2EF3E0AF2EF8E33B
:1004C000BF2EF02D2FC00F2EF2E18F2EF3E19F2EC5
:1004D000F3E8AF2EF8E3BF2EF02D24C00F2EF4E783
:1004E0008F2EF3E19F2EF3E0AF2EF9E3BF2EF02D18
:1004F00019C00F2EFEE28F2EFDE99F2EF4E4AF2EE1
:10050000F9E3BF2EF02D0EC0812C912C54010AC0AE
:100510000F2EF1E78F2EF3E19F2EF3E8AF2EF7E3D6
:10052000BF2EF02D072E000C880B990B0E942B215B
:100530009B01AC01C501B4010E94E021F60160837A
:10054000718382839383102F812FDF91CF911F912D
:100550000F91FF90EF90DF90CF90BF90AF909F9062
:100560008F900895CF93DF939C0140E01CC0C8E3B7
:10057000DCE2E881F0E0E75CF44D8081F901E40F12
:10058000F11D8083AAE3BCE28C9181508C93888119
:1005900090E001966EEF70E00E94CA25888380810A
:1005A000882329F04F5F80913A2C8111E0CFF90127
:1005B000E40FF11D1082DF91CF9108959FE9980F0C
:1005C0009A3128F081548A3120F483E6089583E635
:1005D000089580E00895EF92FF921F93CF93DF93E9
:1005E000EC01E62EF12C84E38E9DF0018F9DF00D41
:1005F0001124ED5FF74D8FE380838183128213A670
:1006000004C0112309F475C021961881812F0E941E
:10061000DE028823B1F3219684E38E9DF0018F9D45
:10062000F00D1124ED5FF74D108304C0112309F480
:1006300060C021961881812F0E94DE028823B1F3C9
:10064000219684E38E9DF0018F9DF00D1124ED5FC6
:10065000F74D118380E02AC0988191110CC094E37A
:100660009E9DF0019F9DF00D1124ED5FF74DE80F69
:10067000F11D12823EC09B3361F494E39E9DF00114
:100680009F9DF00D1124ED5FF74DE80FF11D1282D3
:100690000FC0219624E32E9DF0012F9DF00D112413
:1006A000ED5FF74DE80FF11D92838F5F8932A0F265
:1006B000219680E01CC0988191110CC094E39E9D0E
:1006C000F0019F9DF00D1124ED5FF74DE80FF11D36
:1006D00013A60FC0219624E32E9DF0012F9DF00D4F
:1006E0001124ED5FF74DE80FF11D93A78F5F89305F
:1006F00010F3DF91CF911F91FF90EF9008950F932A
:100700001F93CF93DF93CDB7DEB7C550D140CDBF98
:10071000DEBF27E0E4E8F1E9DE01A150BF4F019020
:100720000D922A95E1F720910B2A21112AC02091E0
:10073000A80422FF03C022E030E002C021E030E044
:100740009F938F933F932F93CE0181509F4F9F9301
:100750008F938E010F5F1F4F1F930F930E94FC27F3
:10076000C8010E94E30AF80101900020E9F73197DF
:10077000AF01401B510BB80180E00E94221ECDBF8B
:10078000DEBFCB5FDE4FCDBFDEBFDF91CF911F91CC
:100790000F910895CF92DF92EF92FF920F931F93E4
:1007A000CF93DF93CDB7DEB7CC51D140CDBFDEBF05
:1007B000D82EC92E8AE0EBE8F1E99E012F5F3F4F6A
:1007C0007901D90101900D928A95E1F78E01055FBB
:1007D0001F4FC8010E94BC05CF92DF921F930F9359
:1007E000FF92EF920C5E1F4F1F930F930E94FC2706
:1007F000C8010E947F03CDBFDEBFC45EDE4FCDBF08
:10080000DEBFDF91CF911F910F91FF90EF90DF90AE
:10081000CF900895CF93DF9300D0CDB7DEB781E2BC
:1008200090E089839A8341E0BE016F5F7F4F80E053
:100830000E94221E0F900F90DF91CF910895CF93C9
:10084000C0910228C11121C0FC018081813291F444
:10085000918191110FC08FEF91E00E94591B85E0AB
:1008600090E080930E2A90930F2A81E080930228D3
:10087000C1E00CC0813231F48181882319F00E94DB
:10088000142004C00E940A0401C0C1E08C2FCF9143
:100890000895CF93DF9300D0CDB7DEB78EE390E01D
:1008A00089839A8341E0BE016F5F7F4F80E00E94A1
:1008B000221E0F900F90DF91CF910895CF93DF9379
:1008C000CDB7DEB7CF5FD109CDBFDEBFCE01019678
:1008D0000E94B202CE0101960E941F04882309F4EF
:1008E00071C08981882311F0813229F410920B2A7A
:1008F0000E94490467C0CE0101960E94CA0360911C
:100900000028CE0101960E94EB028091002824E38A
:10091000829FF0011124ED5FF74DE0814E2F50E0F2
:10092000FA01E954F109EC32F105D0F5E05BFF4F33
:100930000C94FD250E94FA0C39C00E94A40D36C00B
:100940000E94E81933C00E94930E30C00E94A91B78
:100950002DC00E940E1C2AC00E942B1B27C081E0C4
:10096000809301280E946118882349F01092012881
:1009700065E971E984E391E00E94980617C00E943E
:10098000C01A1092322A0E9449048AE694E021E0BB
:10099000815090402040E1F700C00E94142012C016
:1009A00060EB71E989EC90E00E9498068091002844
:1009B00090E001966AE070E00E94CA2580930028CA
:1009C0000E944904C150DF4FCDBFDEBFDF91CF9100
:1009D00008950F931F93CF93DF93CDB7DEB7A09702
:1009E000CDBFDEBF40E2EEEBF1E99E012F5F3F4F4E
:1009F000D90101900D924A95E1F7FB01B081A181E7
:100A000012810481558146811F92BF931F92AF933B
:100A10001F921F931F920F931F925F931F924F93EA
:100A20003F932F939F938F930E94FC27CDBFDEBFF0
:100A3000A096CDBFDEBFDF91CF911F910F9108959A
:100A4000DC01FB01818990E0C09782959295907FAF
:100A50009827807F982792899053892B8C9386853D
:100A600090E0C09782959295907F9827807F9827F5
:100A700097859053892B11968C931197838590E0DD
:100A8000C09782959295907F9827807F982794852C
:100A90009053892B12968C93129781E013968C9326
:100AA0001397808590E0C09782959295907F9827C4
:100AB000807F982791859053892B14968C93149757
:100AC000258130E02053310922953295307F32273D
:100AD000207F322786818053282B15962C931597DB
:100AE000228130E02053310922953295307F322720
:100AF000207F322783818053282B16962C930895CC
:100B0000EF92FF920F931F93CF937B0160E00E94BF
:100B1000211DC82F833619F40E94731D26C080E062
:100B20000E94771DC82F833619F40E94731D1DC0C3
:100B300061E088E60E94211DC82F833661F40E947F
:100B4000731D13C087010C0F111D0E94D01CF801EA
:100B50008083CF5F01C0C0E0C630A0F30E94FA1CC2
:100B6000F70186830E94731DC0E08C2FCF911F91E7
:100B70000F91FF90EF900895EF92FF921F93CF9304
:100B8000DF93CDB7DEB72797CDBFDEBF7C01BE01B7
:100B90006F5F7F4F88E60E948005182F833679F4B7
:100BA0006EED71E985E690E00E9498068AE0EEEE2F
:100BB000F1E9D70101900D928A95E1F707C0BE01D6
:100BC0006F5F7F4FC7010E94E90410E0812F2796D5
:100BD000CDBFDEBFDF91CF911F91FF90EF900895C1
:100BE000EF92FF920F931F93CF93DF938B0160E0FF
:100BF0000E94211DC82F833619F40E94731D20C046
:100C000080E00E94771DC82F8336A1F40E94731DD7
:100C100017C078018FEFE81AF80AF80180810E9466
:100C2000771DC82F833619F40E94731D09C0DF5F3A
:100C3000870101C0D0E0D73060F30E94731DC0E08F
:100C40008C2FDF91CF911F910F91FF90EF9008951E
:100C50001F93CF93DF93CDB7DEB72797CDBFDEBF0E
:100C6000BC01CE0101960E942005BE016F5F7F4F3F
:100C700088E60E94F005182F833639F468EF71E991
:100C800086E690E00E94980601C010E0812F27962A
:100C9000CDBFDEBFDF91CF911F91089545E150E0B8
:100CA0006BE070E00E947C2808954BE050E060E02B
:100CB00070E00E947C280895CF93DF93CDB7DEB714
:100CC0006597CDBFDEBFCE0101960E94BC0545E110
:100CD00050E06BE070E0CE0101960E94802865969E
:100CE000CDBFDEBFDF91CF910895CF93DF93CDB716
:100CF000DEB72B97CDBFDEBF8BE0E8E0F2E9DE0187
:100D0000119601900D928A95E1F74BE050E060E07A
:100D100070E0CE0101960E9480282B96CDBFDEBFE9
:100D2000DF91CF9108950E945C060E947506089598
:100D30000F931F93CF93DF93CDB7DEB7C850D14049
:100D4000CDBFDEBF2AE0E3E1F2E9DE01A150BF4FF3
:100D500001900D922A95E1F720910128211115C0EB
:100D60007F936F939F938F93CE0181509F4F9F935B
:100D70008F938E010F5F1F4F1F930F930E94FC27CD
:100D8000C8010E947F03CDBFDEBFC85FDE4FCDBF6D
:100D9000DEBFDF91CF911F910F910895CF92DF9227
:100DA000EF92FF920F931F93CF93DF93D82FD62EFE
:100DB000072F7A01122F60E00E94211DC82F833671
:100DC00019F40E94731D2EC0802F0E94771DC82F1A
:100DD000833641F18D2D0E94771DC82F833611F186
:100DE00061E08D2F0E94211DC82F8336D9F0C0E00D
:100DF00008C06701CC0ED11C0E94D01CF601808374
:100E0000CF5F2C2F30E0812F90E001972817390712
:100E100084F3EC01CE0DDF1D0E94FA1C88830E9432
:100E2000731DC0E08C2FDF91CF911F910F91FF9028
:100E3000EF90DF90CF900895EF92FF921F93CF93A2
:100E4000DF93CDB7DEB72A97CDBFDEBF7C018AE046
:100E5000EDE1F2E9DE01119601900D928A95E1F73C
:100E600024E1A70160E070E080E50E94CE06182F23
:100E7000833639F4BE016F5F7F4FC7010E94992707
:100E800001C010E0812F2A96CDBFDEBFDF91CF9148
:100E90001F91FF90EF900895EF92FF920F931F9391
:100EA000CF93DF93F62E172FEA01022F60E00E9406
:100EB000211D8336E1F0812F0E94771D8336B9F022
:100EC0008F2D0E94771D833691F010E00BC07E01BC
:100ED0008FEFE81AF80A88810E94771D833639F06F
:100EE0001F5FE701101798F30E94731D80E0DF91E8
:100EF000CF911F910F91FF90EF9008958F929F9245
:100F0000AF92BF92CF92DF92EF92FF920F931F9317
:100F1000CF93DF9300D000D0CDB7DEB7813059F04A
:100F200018F0823079F015C080E00E94E61B6B015A
:100F30007C0140E417C081E00E94E61B6B017C014C
:100F400040E510C082E00E94E61B6B017C0140E698
:100F500009C00F2EC12CD12CF0EAEF2EF1E4FF2EA8
:100F6000F02D40E58E010F5F1F4F20E860E088E420
:100F70000E94C801833679F120E030E040EA50E475
:100F800069817A818B819C810E94B7202AE037EDAC
:100F900043E25EE30E9445202FE539E24BEC5BE340
:100FA0000E94B7204B015C0129EC3EE84DE05BE379
:100FB000C701B6010E94E0219B01AC0162E27DEF16
:100FC00086E89FE30E9445209B01AC01C501B40166
:100FD0000E94B72004C060E070E886E294EC24969A
:100FE000CDBFDEBFDF91CF911F910F91FF90EF90AA
:100FF000DF90CF90BF90AF909F908F900895CF9348
:10100000DF93CDB7DEB72B97CDBFDEBF109202289E
:1010100010920C2A10920D2A80EE91E080930E2AF5
:1010200090930F2A0E947D0E0E94C51C80E290E0E2
:101030000E94591B0E94B10A0E94F00B0E94930665
:101040000E94CA1D78940E942B1BCE0101960E941B
:10105000550641E067E272E980E00E94010C42E03F
:10106000BE016F5F7F4F80E00E94010C2B96CDBFC9
:10107000DEBFDF91CF910895CF92DF92EF92FF9282
:101080000F931F93CF93DF9300D000D0CDB7DEB77F
:10109000813021F08230C1F540E301C040E08E0193
:1010A0000F5F1F4F20E862E089E40E94C801833689
:1010B00081F1C980DA80EB80FC802DEC3CEC4CECBB
:1010C0005EE3C701B6010E94B22088233CF120E014
:1010D00030E040E050E4C701B6010E94DB21181661
:1010E00014F129E739EE42E050E4C701B6010E944D
:1010F000E0212EE633EA4BED50E40E944520562FC6
:10110000472F382F292F13C050E040E836E224EC57
:101110000EC050E040E836E224EC09C050E040E860
:1011200036E224EC04C050E040E836E224EC652FBF
:10113000742F832F922F2496CDBFDEBFDF91CF91E6
:101140001F910F91FF90EF90DF90CF90089581E075
:1011500080930B2A809301280E94FF071092012898
:1011600080913C2C882321F010923C2C0E945E043C
:1011700020910C2A30910D2A80910E2A90910F2AED
:101180008217930778F481E08093012880E00E9421
:101190005E0C81E00E945E0C10920C2A10920D2AC7
:1011A000109201289091322A80912D2A8917C0F639
:1011B000809102288823A1F281E08093012880E8B1
:1011C0000E94EC181092322A10920128C9CFCF93B6
:1011D000DF93C82FD62F60E00E94211D833651F483
:1011E00068E372E982E991E00E9498060E94731D0B
:1011F0008FEF19C08D2F0E94771D61E08C2F0E9408
:10120000211D833651F468E372E982E991E00E947E
:1012100098060E94731D8FEF06C00E94FA1CC82F0B
:101220000E94731D8C2FDF91CF9108951F93CF9350
:10123000DF93D62F142F60E00E94211DC82F833624
:1012400049F46CE472E982E991E00E9498060E94F8
:10125000731D15C08D2F0E94771D882321F00E94D9
:10126000731DC3E60CC0812F0E94771D882321F0D7
:101270000E94731DC3E603C00E94731DC0E08C2F43
:10128000DF91CF911F9108958F929F92AF92BF925D
:10129000FF920F931F93CF93DF938C0160E088E15F
:1012A0000E94211D833651F440E050E866E274EC60
:1012B000F801408351836283738343C085E00E94B9
:1012C000771D61E088E10E94211D0E94D01CC82F7B
:1012D0000E94FA1CD82F0E94731DFC2FF071FF2E64
:1012E0006C2F6F7070E080E090E00E94292120E078
:1012F00030E040E851E40E94E0214B015C016D2F99
:1013000070E080E090E00E94292120E030E040E899
:101310005DE30E94E0219B01AC01C501B4010E9484
:101320004620FF2041F09B01AC0160E070E080E8C6
:1013300093E40E944520F801608371838283938344
:1013400080E0DF91CF911F910F91FF90BF90AF9000
:101350009F908F900895EF92FF920F931F93CF93DA
:10136000DF93F82EE62EEA01022F60E00E94211D95
:10137000182F833619F40E94731D23C08E2D0E94EE
:10138000771D182F8336E9F061E08F2D0E94211D13
:10139000182F833669F40E94731D13C07E018FEFEE
:1013A000E81AF80A0E94D01C88831F5FE70101C079
:1013B00011E0101798F30E94FA1C88830E94731D95
:1013C00010E0812FDF91CF911F910F91FF90EF904F
:1013D0000895CF92DF92EF92FF920F931F93CF93D6
:1013E000DF93CDB7DEB72697CDBFDEBF6C017B01A3
:1013F0008A0180E090E8A6E2B4ECFA018083918350
:10140000A283B383FB0180839183A283B383F6011C
:1014100080839183A283B38326E0AE014F5F5F4F49
:1014200061E08DE10E94AB09833609F464C06981F3
:1014300070E0762F66278A81682B7595679575957C
:101440006795072E000C880B990B0E942B2120E03A
:1014500030E040E859E30E94E02126E636E245E725
:1014600054E40E94E021F6016083718382839383B8
:101470006B8170E0762F66278C81682B7595679558
:1014800075956795072E000C880B990B0E942B21F0
:1014900020E030E040E859E30E94E02126E636E211
:1014A00045E754E40E94E021F70160837183828361
:1014B00093836D8170E0762F66278E81682B7595FA
:1014C000679575956795072E000C880B990B0E9400
:1014D0002B2120E030E040E859E30E94E02126E69D
:1014E00036E245E754E40E94E021F801608371830D
:1014F0008283938380E02696CDBFDEBFDF91CF91BC
:101500001F910F91FF90EF90DF90CF9008951F9360
:10151000CF93DF93D62F142F60E00E94211DC82F98
:10152000882321F00E94731D8C2F17C08D2F0E94DD
:10153000771DC82F882321F00E94731D8C2F0DC0AA
:10154000812F0E94771DC82F882321F00E94731DD0
:101550008C2F03C00E94731D80E0DF91CF911F91FB
:101560000895CF93DF931F92CDB7DEB740E46BE2CF
:101570008DE10E94870A21E0AE014F5F5F4F6BE271
:101580008DE10E94AB0908C021E0AE014F5F5F4FC3
:101590006BE28DE10E94AB09898186FDF5CF40ECBD
:1015A0006FE08DE10E94870A42E06BE28DE10E94CC
:1015B000870A4DE36AE28DE10E94870A89810F90D4
:1015C000DF91CF910895EF92FF920F931F93CF93E6
:1015D000DF93CDB7DEB72E97CDBFDEBF8C0188E09D
:1015E000E1E6F2E9DE01119601900D928A95E1F7AC
:1015F000F80101900020E9F731973E2F301B90E071
:1016000081E006C0F801E80FF11D208192278F5F6D
:101610008317C0F31F929F93CE0101969F938F93E0
:101620007E0189E0E80EF11CFF92EF920E94FC27F8
:10163000B701C8010E948E270F900F900F900F9056
:101640000F900F902E96CDBFDEBFDF91CF911F91EF
:101650000F91FF90EF900895E0E6F4E080E4868338
:101660008183A1E4B3E01197F1F700008583089529
:10167000CF93DF93D62FC42F60E00E94211D8D2FC2
:101680000E94771D8C2F0E94771D0E94731DDF9191
:10169000CF910895CF93882329F0813009F09EC01F
:1016A000CDE301C0CCE34AE260E08C2F0E94380B0E
:1016B00041E760E08C2F0E94380B4CE560E48C2FF2
:1016C0000E94380B48E260E08C2F0E94380B48E003
:1016D00060E08C2F0E94380B4AE260E08C2F0E9461
:1016E000380B49E760E08C2F0E94380B45ED60E035
:1016F0008C2F0E94380B40E760E08C2F0E94380B43
:1017000048E760E08C2F0E94380B48E060E08C2FA7
:101710000E94380B46E060E08C2F0E94380B42E7B5
:1017200060E08C2F0E94380B40E060E48C2F0E9418
:10173000380B4AE260E08C2F0E94380B49E760E0EA
:101740008C2F0E94380B4AED60E08C2F0E94380BE2
:1017500040E060E08C2F0E94380B4CED60E08C2F55
:101760000E94380B40E060E08C2F0E94380B41E86B
:1017700060E08C2F0E94380B4FE760E08C2F0E94B6
:10178000380B49ED60E08C2F0E94380B41EF60E090
:101790008C2F0E94380B4BED60E08C2F0E94380B91
:1017A00040E460E08C2F0E94380B48E760E08C2F0B
:1017B0000E94380B48E260E08C2F0E94380B41E019
:1017C00060E08C2F0E94380B40E860E08C2F0E9474
:1017D000380B4CE060E08C2F0E94380BCF910895BD
:1017E0000E942C0B80E00E944A0B81E00E944A0B71
:1017F0002AE684E091E0215080409040E1F700C06B
:101800000895EF92FF920F931F93CF93DF93CDB77D
:10181000DEB7E297CDBFDEBF142F91E1E9E6F2E932
:10182000DE01929601900D929A95E1F7811102C026
:101830000CE301C00DE3CE0101967C010E949927C3
:10184000F70101900020E9F73197EE19FF09719730
:1018500008F0198ABE016E5D7F4FCE0101960E948D
:101860008E27113039F440E860E0802F0E94380B59
:1018700010E012C040EC60E0802F0E94380BF8CFDF
:10188000E1E0F0E0EC0FFD1FE10FF11D408160E4AD
:10189000802F0E94380B1F5F103190F381E090E0A1
:1018A00080930C2A90930D2AE296CDBFDEBFDF9184
:1018B000CF911F910F91FF90EF9008951F93CF93B9
:1018C000DF931F92CDB7DEB7182F198241E0BE011A
:1018D0006F5F7F4F0E94010C42E0BE016F5F7F4F40
:1018E000812F0E94010C10920C2A10920D2A0F9049
:1018F000DF91CF911F910895CF92DF92EF92FF92E7
:101900000F931F93CF93DF936C018B017A01E90151
:1019100069E081E20E94E708982F92959695969546
:101920009370913021F493E6F60190830FC09230CA
:1019300021F49FE6F601908309C0933021F494E7E7
:10194000F601908303C098E7F6019083982F96954F
:1019500096959370913021F493E6F70190830FC030
:10196000923021F49FE6F701908309C0933021F46F
:1019700094E7F701908303C098E7F7019083982FCD
:1019800092959F709370913021F49FE6F8019083B7
:101990000FC0923021F493E6F801908309C0933090
:1019A00021F494E7F801908303C098E7F80190834D
:1019B00081FF03C080E3888302C081E38883DF91D5
:1019C000CF911F910F91FF90EF90DF90CF900895EE
:1019D000CF93DF93D82FC62F69E084E20E94E708F7
:1019E0008D2B482F4C236AE084E20E941609DF9178
:1019F000CF910895CF93DF93CDB7DEB76A97CDBF70
:101A0000DEBF99E0E4EBF2E9DE01119601900D9260
:101A10009A95E1F724E3829FC0011124FC01ED5F58
:101A2000F74D81818C3631F118F4823639F06AC075
:101A30008237C1F1833709F44DC064C06AEE84E493
:101A40000E94E80C66EE88E80E94E80C8AE792E9BA
:101A50009F938F93CE0101969F938F9309969F93A7
:101A60008F930E94FC270F900F900F900F900F9074
:101A70000F9059C06AEE84E40E94E80C8FE792E967
:101A80009F938F93CE0101969F938F9309969F9377
:101A90008F930E94FC270F900F900F900F900F9044
:101AA0000F9041C066EE88E80E94E80C84E892E955
:101AB0009F938F93CE0101969F938F9309969F9347
:101AC0008F930E94FC270F900F900F900F900F9014
:101AD0000F9029C06CEE82E20E94E80C8AE892E93D
:101AE0009F938F93CE0101969F938F9309969F9317
:101AF0008F930E94FC270F900F900F900F900F90E4
:101B00000F9011C062E972E985EF91E00E9498069A
:101B10008CE0E8EAF2E9DE011A9601900D928A95CE
:101B2000E1F783E60BC081E00E945E0C41E0BE015C
:101B3000665F7F4F81E00E94010C80E06A96CDBF16
:101B4000DEBFDF91CF910895CF93DF93CDB7DEB79E
:101B50006997CDBFDEBF98E0EDEDF2E9DE011196A9
:101B600001900D929A95E1F724E3829FC001112420
:101B7000FC01ED5FF74D81818C3631F118F482362E
:101B800039F06AC08237C1F1833709F44DC064C0AF
:101B90006EEA84E40E94E80C6EE688E80E94E80C95
:101BA0008AE792E99F938F93CE0101969F938F933B
:101BB00008969F938F930E94FC270F900F900F9091
:101BC0000F900F900F9059C06EEA84E40E94E80CC9
:101BD0008FE792E99F938F93CE0101969F938F9306
:101BE00008969F938F930E94FC270F900F900F9061
:101BF0000F900F900F9041C06EE688E80E94E80CAD
:101C000084E892E99F938F93CE0101969F938F93DF
:101C100008969F938F930E94FC270F900F900F9030
:101C20000F900F900F9029C06EEC82E20E94E80C9A
:101C30008AE892E99F938F93CE0101969F938F93A9
:101C400008969F938F930E94FC270F900F900F9000
:101C50000F900F900F9011C06DEB72E985EF91E03E
:101C60000E9498068BE0E2EDF2E9DE011996019000
:101C70000D928A95E1F783E60BC081E00E945E0C2D
:101C800041E0BE01675F7F4F81E00E94010C80E070
:101C90006996CDBFDEBFDF91CF9108951F920F925D
:101CA0000FB60F9211242F933F934F935F936F932F
:101CB0007F938F939F93AF93BF93EF93FF93809105
:101CC000690488234CF480E88093690468E081E229
:101CD0000E94E7088093102AFF91EF91BF91AF9186
:101CE0009F918F917F916F915F914F913F912F9134
:101CF0000F900FBE0F901F90189584E080932104E1
:101D0000E0EAF4E0828380E281838BE0868BE0E48A
:101D1000F4E088E086838183ADE8B0E21197F1F7C3
:101D20000000858308952F923F924F925F926F92A9
:101D30007F928F929F92AF92BF92CF92DF92EF925B
:101D4000FF920F931F93CF93DF93CDB7DEB7C05EA3
:101D5000D240CDBFDEBF95E4E3E4F3E9DE01A65B4C
:101D6000BE4F01900D929A95E1F79FE2E8E8F3E902
:101D7000DE01A157BE4F01900D929A95E1F79DE1CA
:101D8000E7EBF3E9DE01A254BE4F01900D929A9564
:101D9000E1F79CE1E4EDF3E9DE01A552BE4F0190CD
:101DA0000D929A95E1F792E1E0EFF3E9DE01A95097
:101DB000BE4F01900D929A95E1F79DE2E2E0F4E9C1
:101DC000DE01A75FBD4F01900D929A95E1F793E177
:101DD000EFE2F4E9DE01AA5CBD4F01900D929A9505
:101DE000E1F793E1E2E4F4E9DE01A75BBD4F019086
:101DF0000D929A95E1F799E1E5E5F4E9DE01A45A3F
:101E0000BD4F01900D929A95E1F795E2EEE6F4E967
:101E1000DE01AB58BD4F01900D929A95E1F79DE020
:101E2000E3E9F4E9DE01A656BD4F01900D929A95C3
:101E3000E1F79DE0E0EAF4E9DE01A955BD4F01902C
:101E40000D929A95E1F7082F10E084E3809FF0014E
:101E5000819FF00D1124ED5FF74DE1818E2F90E011
:101E6000FC01E154F109E633F10508F0DAC4E45865
:101E7000FF4F0C94FD25CE01865F9E4F0E94BC054E
:101E800084E3809FF001819FF00D1124ED5FF74DF9
:101E9000F1800F2EFFE3EF2EF02DEF0CAE014B5330
:101EA0005D4F68E18E2D0E948016833661F480E0DC
:101EB00090E8A6E2B4ECCB53DD4F88839983AA83E4
:101EC000BB83C55CD240AE014F535D4F62E58E2DA2
:101ED0000E948016833661F480E090E8A6E2B4ECBC
:101EE000CF53DD4F88839983AA83BB83C15CD240E3
:101EF00024E3209FC001219F900D1124825D974D06
:101F00009F938F93CC53DD4F8881C45CD2408F93D5
:101F1000CD53DD4F8881C35CD2408F93CE53DD4FCC
:101F20008881C25CD2408F93CF53DD4F8881C15CE2
:101F3000D2408F93C853DD4F8881C85CD2408F93C5
:101F4000C953DD4F8881C75CD2408F93CA53DD4FA0
:101F50008881C65CD2408F93CB53DD4F8881C55CAE
:101F6000D2408F931F92FF92CE01865F9E4F9F9328
:101F70008F938C549F4F9F938F938E010F5F1F4FB2
:101F80001F930F930E94FC27C8010E947F03CDBFBF
:101F9000DEBF80E04DC4CE01865F9E4F0E94BC052F
:101FA00084E3809FF001819FF00D1124ED5FF74DD8
:101FB00081810F2EFFE17F2EF02D780EAE014B5464
:101FC0005D4F60E1872D0E94AA15833661F48FEF83
:101FD0009FEFAFEFBFE7CB54DD4F88839983AA8390
:101FE000BB83C55BD240CB54DD4F688179818A8148
:101FF0009B81C55BD2402CE031E040E050E00E9484
:10200000DE25B22EA32E942E852EAE014C545D4FAC
:10201000BE0167547D4F872D0E94A317833661F45C
:102020008FEF9FEFAFEFBFE7C754DD4F88839983F2
:10203000AA83BB83C95BD240C754DD4F68817981D5
:102040008A819B81C95BD2402CE031E040E050E0C6
:102050000E94DE2569017A01CC54DD4F8881C45B82
:10206000D240882339F0CC24DD247601C21AD30A69
:10207000E40AF50AAE0143545D4F61E3872D0E94E7
:102080000217833659F48FEF9FEFDC01C354DD4F05
:1020900088839983AA83BB83CD5BD240C354DD4F31
:1020A00088819981AA81BB81CD5BD240CD01AA27CD
:1020B000BB279C01220F331F880F991F880F991F80
:1020C000880F991F820F931F44E3409F9001419F07
:1020D000300D1124A901425D574DF901ED5FF74D17
:1020E00021815F934F939F938F93FF92EF92DF92A3
:1020F000CF928F929F92AF92BF921F922F93CE0159
:10210000865F9E4F9F938F938B579F4F9F938F9385
:102110008E010F5F1F4F1F930F930E94FC27C80172
:102120000E947F03CDBFDEBF80E082C380E00E94BB
:10213000E61BCF53DD4F688379838A839B83C15C21
:10214000D24080E00E947E07D62EC72EB82EA92E40
:1021500081E00E94E61BCB52DD4F6883C55DD24013
:10216000CA52DD4F7883C65DD240C952DD4F8883A5
:10217000C75DD240C852DD4F9883C85DD24081E030
:102180000E947E07C752DD4F6883C95DD240C652A8
:10219000DD4F7883CA5DD240C552DD4F8883CB5D69
:1021A000D240C452DD4F9883CC5DD24082E00E9481
:1021B000E61BC352DD4F6883CD5DD240C252DD4F76
:1021C0007883CE5DD240982E892E82E00E947E07D1
:1021D000762E672E582E492E83E00E94E61BC152B0
:1021E000DD4F6883CF5DD240C052DD4F7883C05E43
:1021F000D240382E292E7E0196EFE91A9EEFF90A79
:10220000C7010E94BC0524E3209FC001219F900DBF
:102210001124825D974D9F938F932F923F92C052CE
:10222000DD4F8881C05ED2408F93C152DD4F9881CF
:10223000CF5DD2409F934F925F926F927F928F9229
:102240009F92C252DD4F8881CE5DD2408F93C352A0
:10225000DD4F9881CD5DD2409F93C452DD4F888180
:10226000CC5DD2408F93C552DD4F9881CB5DD2407B
:102270009F93C652DD4F8881CA5DD2408F93C7526B
:10228000DD4F9881C95DD2409F93C852DD4F888150
:10229000C85DD2408F93C952DD4F9881C75DD2404F
:1022A0009F93CA52DD4F8881C65DD2408F93CB5237
:1022B000DD4F9881C55DD2409F93AF92BF92CF9280
:1022C000DF92CC53DD4F8881C45CD2408F93CD53D5
:1022D000DD4F8881C35CD2408F93CE53DD4F888120
:1022E000C25CD2408F93CF53DD4F8881C15CD24016
:1022F0008F93FF92EF92CE01865B9E4F9F938F93B9
:102300008E010F5F1F4F1F930F930E94FC27CDBFBD
:10231000DEBFC8010E947F0341E065EE72E981E003
:102320000E94010CCF53DD4FF880C15CD240CE53E8
:10233000DD4FE880C25CD240CD53DD4F9880C35C56
:10234000D240CC53DD4F8880C45CD24026E636E6CE
:1023500046EE5FE36F2D7E2D892D982D0E94E021A2
:10236000AF92BF92CF92DF9220E030E040E052E4A3
:102370000E9446209F938F937F936F938F929F929B
:10238000EF92FF9285EF92E99F938F931F930F93A4
:102390000E94FC2742E0B80181E00E94010CCDBF01
:1023A000DEBF80E045C2AE014F525D4FBE016353B8
:1023B0007D4FCE0187539D4F0E94E9097E0196EF24
:1023C000E91A9EEFF90AC7010E94BC0524E3209F89
:1023D000C001219F900D1124825D974D9F938F9393
:1023E000CC52DD4F8881C45DD2408F93CD52DD4FFA
:1023F0008881C35DD2408F93CE52DD4F8881C25D0C
:10240000D2408F93CF52DD4F8881C15DD2408F93F0
:10241000C053DD4F8881C05DD2408F93C153DD4FE3
:102420008881CF5CD2408F93C253DD4F8881CE5CD0
:10243000D2408F93C353DD4F8881CD5CD2408F93C0
:10244000C453DD4F8881CC5CD2408F93C553DD4FA0
:102450008881CB5CD2408F93C653DD4F8881CA5CA4
:10246000D2408F93C753DD4F8881C95CD2408F9390
:10247000FF92EF92CE0185529E4F9F938F938E01D4
:102480000F5F1F4F1F930F930E94FC27C8010E94EC
:102490007F0341E06BE073E981E00E94010CCC52C4
:1024A000DD4F8881C45DD2408F93CD52DD4F88814E
:1024B000C35DD2408F93CE52DD4F8881C25DD24042
:1024C0008F93CF52DD4F8881C15DD2408F93C0532F
:1024D000DD4F8881C05DD2408F93C153DD4F88812D
:1024E000CF5CD2408F93C253DD4F8881CE5CD24007
:1024F0008F93C353DD4F8881CD5CD2408F93C453FB
:10250000DD4F8881CC5CD2408F93C553DD4F8881ED
:10251000CB5CD2408F93C653DD4F8881CA5CD240DA
:102520008F93C753DD4F8881C95CD2408F93CE0112
:1025300089509E4F9F938F931F930F930E94FC2768
:10254000CDBFDEBF42E0B80181E00E94010C80E017
:102550006FC17E0196EFE91A9EEFF90AC7010E944A
:10256000BC059E01275B3E4FAE01485B5E4FBE013E
:10257000695B7E4FCE018A5B9E4F0E947C0C24E3F8
:10258000209FC001219F900D1124825D974D9F9344
:102590008F93C75BDE4F8881C954D1401F928F93C0
:1025A000C85BDE4F8881C854D1401F928F93C95BAE
:1025B000DE4F8881C754D1401F928F93CA5BDE4F94
:1025C0008881C654D1401F928F93FF92EF92CE0123
:1025D000875F9D4F9F938F938E010F5F1F4F1F93B8
:1025E0000F930E94FC27C8010E947F03C85BDE4F47
:1025F0008881C854D1401F928F93C95BDE4F888178
:10260000C754D1401F928F93CE018A5C9D4F9F93F8
:102610008F931F930F930E94FC2741E0B80181E044
:102620000E94010CC75BDE4F8881C954D1401F92C4
:102630008F93CA5BDE4F8881C654D1401F928F931F
:10264000CE01875B9D4F9F938F931F930F930E94A3
:10265000FC27CDBFDEBF42E0B80181E00E94010C43
:1026600080E0E6C07E0196EFE91A9EEFF90AC70105
:102670000E94BC056E0182EEC81A8EEFD80AC60110
:102680000E941C075E019EECA91A9EEFB90AC501C3
:102690000E944E0624E3209FC001219F900D11242B
:1026A000825D974D9F938F93BF92AF92DF92CF92AF
:1026B000FF92EF92CE01845A9D4F9F938F938E018C
:1026C0000F5F1F4F1F930F930E94FC27C8010E94AA
:1026D0007F0341E067E173E981E00E94010CB701EB
:1026E000655F7F4F42E081E00E94010CCDBFDEBFFD
:1026F00080E09EC081E00E943C08D62EC72EB82EF6
:10270000A92E82E00E943C08962E872E782E692EF4
:102710007E0196EFE91A9EEFF90AC7010E94BC05F7
:1027200024E3209FC001219F900D1124825D974DCD
:102730009F938F936F927F928F929F92AF92BF924F
:10274000CF92DF92FF92EF92CE018B589D4F9F93D5
:102750008F938E010F5F1F4F1F930F930E94FC27D3
:10276000C8010E947F0341E06CE173E981E00E94AF
:10277000010C6F927F928F929F92AF92BF92CF92F5
:10278000DF92CE0186569D4F9F938F931F930F9399
:102790000E94FC2742E0B80181E00E94010CCDBFFD
:1027A000DEBF80E045C06E019FEFC90ED11CC6019F
:1027B0000E9455067E0186EFE81A8EEFF80AC701DF
:1027C0000E94BC0524E3209FC001219F900D11248D
:1027D000825D974D9F938F93DF92CF92FF92EF92FE
:1027E000CE0189559D4F9F938F938E010F5F1F4F91
:1027F0001F930F930E94FC27C8010E947F0341E0B2
:1028000067E272E981E00E94010CC8010E9455064E
:1028100042E0B80181E00E94010CCDBFDEBF80E044
:1028200007C06CE273E98AEC90E00E94980683E6A8
:10283000C052DD4FCDBFDEBFDF91CF911F910F9111
:10284000FF90EF90DF90CF90BF90AF909F908F90D0
:102850007F906F905F904F903F902F900895DC0194
:1028600040E050E080E090E01BC0FD01E40FF51F68
:10287000208130E0322F22278227932720E00CC0CE
:1028800099233CF4880F991F31E2832730E1932785
:1028900002C0880F991F2F5F283090F34F5F5F4F62
:1028A0004617570710F308950F931F93CF93DF93A5
:1028B00000D000D0CDB7DEB78B01813859F0823817
:1028C00031F0803809F043C064E170E005C06CE18C
:1028D00070E002C068E170E024E0AE014F5F5F4F3E
:1028E00080E50E94CE06833649F44FEF5FEFBA01D0
:1028F000F80140835183628373832AC0898190E009
:10290000A0E0B0E0782F6627552744279A81892FC9
:1029100090E0A0E0B0E0DC0199278827842B952B7C
:10292000A62BB72B4B8150E060E070E0762F652F2F
:10293000542F4427842B952BA62BB72B2C81822B2D
:10294000F80180839183A283B38380E001C083E692
:102950002496CDBFDEBFDF91CF911F910F910895D7
:102960003F924F925F926F927F928F929F92AF921F
:10297000BF92CF92DF92EF92FF920F931F93CF936C
:10298000DF93CDB7DEB78A01322E8DB69EB6A22E6A
:10299000B12C750122E0E20EF11C25013FEF431A34
:1029A000530AEDB7FEB7EE19FF09EDBFFEBF2DB715
:1029B0003EB72F5F3F4F3901690192E0930D90932D
:1029C000352B1092372B1092382B8183F9016183BC
:1029D00042E0B90181E00E94221E1092302A10923A
:1029E000312A81E090E00E94801C10C08091302A42
:1029F0009091312AC39750F00E94961C6DEA74E9B9
:102A000080E391E00E94980683E641C08091382BD4
:102A1000882361F30E94961CF501EB5CF54DA080C4
:102A2000B12CBA2CAA24F201EB5CF54D8081A82AC6
:102A300022E009C0FC01ED5CF54D3081F601E80FA4
:102A4000F91F30832F5F822F90E08E159F0594F33E
:102A5000B701C3010E942F14A816B906A1F067ECB4
:102A600074E981E391E00E94980683E610C0822F0A
:102A700090E0F801E80FF91FDC01AB5CB54D8C91DB
:102A800080832F5F01C020E0231588F380E08DBE96
:102A90009EBEDF91CF911F910F91FF90EF90DF903D
:102AA000CF90BF90AF909F908F907F906F905F90EE
:102AB0004F903F900895FF920F931F93CF93DF9312
:102AC000CDB7DEB72597CDBFDEBF8B0125E0AE01C8
:102AD0004F5F5F4F60E10E94B014F82E83E6F8125A
:102AE00007C06FED74E986E391E00E94980628C064
:102AF000898190E0A0E0B0E0782F66275527442731
:102B00009A81892F90E0A0E0B0E0DC019927882726
:102B1000842B952BA62BB72B4B8150E060E070E007
:102B2000762F652F542F4427842B952BA62BB72B5C
:102B30002C81822BF80180839183A283B383F12CB3
:102B40008F2D2596CDBFDEBFDF91CF911F910F91C5
:102B5000FF900895EF92FF920F931F93CF93DF930F
:102B6000CDB7DEB7C755D109CDBFDEBF8A0197E02B
:102B70009093352B1092372B1092382B89836A83D0
:102B800042E0BE016F5F7F4F81E00E94221E1092E3
:102B9000302A1092312A81E090E00E94801C10C0FF
:102BA0008091302A9091312AC39750F00E94961C50
:102BB0006DEF74E980E391E00E94980683E695C08A
:102BC0008091382B882361F38091302A9091312AAB
:102BD0009F938F9386E195E99F938F937E0188E081
:102BE000E80EF11CFF92EF920E94FC27C7010E94A1
:102BF0007F030E94961C1092302A1092312AE5E33E
:102C0000FAE2E580F12CFE2CEE248681E82A0F9072
:102C10000F900F900F900F900F9022E00EC0822F18
:102C200090E0FC01ED5CF54D3081E1E0F0E0EC0F6F
:102C3000FD1FE80FF91F30832F5F273080F367E017
:102C400070E0CE0101960E942F14E816F90681F07B
:102C50008FEF9FEFDC01F80180839183A283B38320
:102C600067E375E981E391E00E94980683E63DC041
:102C700025E33AE2D9018C9190E0A0E0B0E0782F12
:102C8000662755274427F801408351836283738365
:102C9000D90111969C91892F90E0A0E0B0E0DC0171
:102CA00099278827842B952BA62BB72B808391837C
:102CB000A283B383F901428150E060E070E0762F97
:102CC000652F542F4427842B952BA62BB72BF80167
:102CD00080839183A283B383F9012381822BF8013E
:102CE00080839183A283B38380E0C95ADF4FCDBF35
:102CF000DEBFDF91CF911F910F91FF90EF9008956C
:102D0000AF92BF92CF92DF92EF92FF920F931F93F9
:102D1000CF93DF9300D000D0CDB7DEB7A82EB62E6C
:102D20007A0184E08093352B1092372B1092382B48
:102D3000A9826A8342E0BE016F5F7F4F81E00E94FB
:102D4000221E1092302A1092312A81E090E00E94D7
:102D5000801C8091382B813081F08091302A9091B5
:102D6000312AC397B0F30E94961C6CE475E980E3A6
:102D700091E00E94980683E637C00E94961CE5E326
:102D8000FAE29081C92ED12CDC2CCC248181C82A76
:102D9000028110E0102F00272381022BA982BA8222
:102DA0009B838C8364E070E0CE0101960E942F1417
:102DB0000817190741F063E675E981E391E00E9485
:102DC000980683E611C0B60180E090E00E942921B8
:102DD00020E030E040E251E40E94B720F701608338
:102DE00071838283938380E02496CDBFDEBFDF9121
:102DF000CF911F910F91FF90EF90DF90CF90BF90F8
:102E0000AF900895EF92FF920F931F93CF93DF93AC
:102E1000CDB7DEB72697CDBFDEBF8A0196E090938F
:102E2000352B1092372B1092382B89836A8342E01E
:102E3000BE016F5F7F4F81E00E94221E1092302AF8
:102E40001092312A81E090E00E94801C8091382B02
:102E5000813061F40E94961CE5E3FAE2E480F12CF3
:102E6000FE2CEE248581E82A22E01EC08091302AC3
:102E70009091312AC39750F30E94961C66E775E93A
:102E80008FE291E00E94980683E653C0822F90E083
:102E9000FC01ED5CF54D3081E1E0F0E0EC0FFD1F51
:102EA000E80FF91F30832F5F263080F366E070E073
:102EB000CE0101960E942F14E816F90681F06FE802
:102EC00075E981E391E00E9498068FEF9FEFDC01A6
:102ED000F80180839183A283B38383E62AC0E5E36C
:102EE000FAE2808190E0A0E0B0E0782F66275527D5
:102EF00044279181892F90E0A0E0B0E0DC01992780
:102F00008827842B952BA62BB72B428150E060E0BD
:102F100070E0762F652F542F4427842B952BA62BFA
:102F2000B72B2381822BF80180839183A283B38303
:102F300080E02696CDBFDEBFDF91CF911F910F912C
:102F4000FF90EF900895CF92DF92EF92FF920F9350
:102F50001F93CF93DF93CDB7DEB72797CDBFDEBFEB
:102F60008B017A0197E09093352B1092372B1092BA
:102F7000382B898382E18A8342E0BE016F5F7F4FF5
:102F800081E00E94221E1092302A1092312A81E0A4
:102F900090E00E94801C10C08091302A9091312ACC
:102FA000C39750F00E94961C68ED75E980E391E0AC
:102FB0000E94980683E679C08091382B882361F3BC
:102FC0000E94961CE5E3FAE2C580D12CDC2CCC24CF
:102FD0008681C82A22E00EC0822F90E0FC01ED5CC1
:102FE000F54D3081E1E0F0E0EC0FFD1FE80FF91F37
:102FF00030832F5F273080F367E070E0CE010196C9
:103000000E942F14C816D90681F08FEF9FEFDC01C4
:10301000F80180839183A283B3836FEE75E981E326
:1030200091E00E94980683E640C025E33AE2D90188
:103030008C9190E0A0E0B0E0782F662755274427D8
:10304000F8014083518362837383D90111969C9167
:10305000892F90E0A0E0B0E0DC0199278827842B3D
:10306000952BA62BB72B80839183A283B383F90181
:10307000428150E060E070E0762F652F542F4427A6
:10308000842B952BA62BB72BF80180839183A283E9
:10309000B383F9012381822BF80180839183A2837A
:1030A000B3838D81D7018C9380E02796CDBFDEBF9F
:1030B000DF91CF911F910F91FF90EF90DF90CF9014
:1030C00008951F93CF93DF9300D000D0CDB7DEB724
:1030D00010E810C0AE014F5F5F4F62E1812F0E9488
:1030E000AA1589819A81AB81BC81892B8A2B8B2B74
:1030F00029F41F5F133870F380E001C081E024964B
:10310000CDBFDEBFDF91CF911F910895CF93DF93A5
:10311000CDB7DEB76597CDBFDEBF1092352A91E0FF
:103120009093352B1092372B1092382B898381E4A2
:103130008A831B821C8280E28D831E821F821886F6
:1031400090E499871A861B861C868D871E867F874A
:10315000688B598B4A8B1B8A63E170E0CE01019624
:103160000E942F149C8B8D8B45E1BE016F5F7F4FBA
:1031700081E00E94221E1092302A1092312A81E0B2
:1031800090E00E94801C8091382B813041F40E9495
:10319000961C8091352A8F3F91F480E017C0809172
:1031A000302A9091312AC39770F30E94961C68E0F0
:1031B00076E98FE291E00E94980683E607C063E219
:1031C00076E98FE291E00E94980683E66596CDBF8E
:1031D000DEBFDF91CF9108950F931F93CF93DF93BD
:1031E000CDB7DEB72897CDBFDEBF813851F082382A
:1031F00029F08038F9F404E110E005C00CE110E09A
:1032000002C008E110E0AE014B5F5F4F60E10E9439
:10321000AA158D819E812F81388539832A839B83CE
:103220008C8324E0AE014F5F5F4FB80180E50E94C0
:103230004C0701C083E62896CDBFDEBFDF91CF915A
:103240001F910F9108958F929F92BF92CF92DF921C
:10325000EF92FF920F931F93CF93DF93CDB7DEB71B
:10326000B22ECDB6DEB6822E912C94012C5F3F4F4C
:10327000740193E0E90EF11CEDB7FEB7E21BF30B0E
:10328000EDBFFEBF0DB71EB70F5F1F4F9801109225
:10329000352A91E09093352B1092372B1092382BD2
:1032A0008183F8016183A0E00EC08A2F90E0BC0109
:1032B0006E5F7F4FFA01E80FF91F8081F901E60F79
:1032C000F71F8083AF5FAB1580F3F2E08F0E911C88
:1032D000B401C8010E942F14F801E80DF91D908374
:1032E000F801EE0DFF1D808344E04B0DB80181E035
:1032F0000E94221E1092302A1092312A81E090E022
:103300000E94801C8091382B813041F40E94961CD1
:103310008091352A8F3F91F480E017C08091302A48
:103320009091312AC39770F30E94961C6AE376E964
:1033300086E391E00E94980683E607C064E576E99B
:1033400086E391E00E94980683E6CDBEDEBEDF9163
:10335000CF911F910F91FF90EF90DF90CF90BF9092
:103360009F908F9008951F93CF93DF93CDB7DEB7D3
:103370006197CDBFDEBF19821A8290E29B831C82C7
:103380001D821E8220E42F83188619861A869B8749
:103390001C867D876E875F87488B198A21E1AE0185
:1033A0004F5F5F4F61E40E942319182F833639F471
:1033B00067E676E986E391E00E94980601C010E096
:1033C000812F6196CDBFDEBFDF91CF911F91089510
:1033D000CF92DF92EF92FF921F93CF93DF9300D0B3
:1033E00000D0CDB7DEB7E82EF12C84E38E9DF0013E
:1033F0008F9DF00D1124ED5FF74D8181813400F137
:10340000843428F09FE9980F933040F019C01FE3EF
:10341000180F19821A821B821C821AC01FE1180F12
:10342000BE016F5F7F4F812F0E945B15833681F451
:1034300068E876E985E391E00E94980613E63DC0CE
:1034400060EB76E986E391E00E94980613E635C0CA
:1034500084E38E9DF0018F9DF00D1124ED5FF74DFB
:103460008281882339F124E32E9DC0012F9D900D88
:1034700011248B5F974D0E9484269B01AC01ACE028
:10348000B1E00E940326C980DA80EB80FC80AB01AA
:10349000BC014C0D5D1D6E1D7F1D812F0E94B31957
:1034A000182F833649F46EEC76E986E391E00E94AA
:1034B000980603C010E001C013E6812F2496CDBF0B
:1034C000DEBFDF91CF911F91FF90EF90DF90CF9003
:1034D0000895CF93DF93CDB7DEB72897CDBFDEBF7A
:1034E0001092352A91E09093352B1092372B109241
:1034F000382B898386E18A837B836C835D834E834B
:1035000066E070E0CE0101960E942F149F838887A9
:1035100048E0BE016F5F7F4F81E00E94221E109243
:10352000302A1092312A81E090E00E94801C809124
:10353000382B813041F40E94961C8091352A8F3FB0
:1035400091F480E017C08091302A9091312AC3977E
:1035500070F30E94961C64EF76E986E391E00E9486
:10356000980683E607C066E177E98FE291E00E9462
:10357000980683E62896CDBFDEBFDF91CF910895F0
:10358000CF93DF93D0E0C0E805C08C2F0E94EC18E9
:10359000D80FCF5FC338C8F3DD2311F083E601C035
:1035A00080E0DF91CF910895CF93DF93CDB7DEB761
:1035B0002897CDBFDEBF1092352A91E09093352B2E
:1035C0001092372B1092382B898386E18A837B8374
:1035D0006C835D834E8366E070E0CE0101960E94AD
:1035E0002F149F83888748E0BE016F5F7F4F81E083
:1035F0000E94221E1092302A1092312A81E090E01F
:103600000E94801C8091382B813041F40E94961CCE
:103610008091352A8F3F91F480E017C08091302A45
:103620009091312AC39770F30E94961C6FE277E95C
:103630008FE291E00E94980683E607C068E477E98C
:103640008FE291E00E94980683E62896CDBFDEBF08
:10365000DF91CF9108951F93CF93DF9300D000D0D7
:10366000CDB7DEB72AE684E091E02150804090405B
:10367000E1F700C01092322A8BE080932D2A10E8E7
:103680000EC0BE016F5F7F4F812F0E94541449818D
:103690005A816B817C81812F0E94D41A1F5F13385D
:1036A00080F380E02496CDBFDEBFDF91CF911F91E4
:1036B0000895AC01E0E6F0E0948D9E7F88ED84BF34
:1036C000948F01C000009091630096FDFBCFE0E66F
:1036D000F0E0948D9B7F28ED24BF948F948D9160B2
:1036E00024BF948F01C00000909141019111FBCF44
:1036F000E0E4F1E04287538782E08783858181603F
:10370000858381EB808382818160828308951F920B
:103710000F920FB60F9211248F939F9381E08093A5
:10372000430180910C2A90910D2A019680930C2AD6
:1037300090930D2A80E28093A7048091322A8F5FB4
:103740008093322A9F918F910F900FBE0F901F9000
:103750001895CF93DF9390E024E3289FF001299FF1
:10376000F00D1124ED5FF74D2181243729F524E375
:10377000289FE001299FD00D1124CB5FD74DFE017A
:1037800001900020E9F73197EC1BFD0B739741F096
:103790006DE877E98AE592E00E94980683E613C017
:1037A000CE010E94280624E1AE0160E070E080E5D1
:1037B0000E944C0780E007C062EA77E989E592E061
:1037C0000E94980683E6DF91CF910895CF93DF930F
:1037D00000D000D0CDB7DEB7833018F0833039F099
:1037E0000BC0BE016F5F7F4F0E9447010DC0CE012D
:1037F00001960E94440908C080E090E8A6E2B4EC7B
:1038000089839A83AB83BC8369817A818B819C8114
:103810002496CDBFDEBFDF91CF910895CF92DF9286
:10382000EF92FF920F931F93CF93DF93CDB7DEB745
:10383000C455D109CDBFDEBF40E157E260E070E082
:1038400080E80E94691ABE016F5A7F4F80E80E948B
:103850005B1565968FAD65978F9364968FAD649772
:103860008F9363968FAD63978F9362968FAD6297B8
:103870008F938CEA97E99F938F938E010F5F1F4F71
:103880001F930F930E94FC27C8010E947F03659637
:10389000CCACDDACEEACFFAC659785E6C80ED11CB8
:1038A000E11CF11CFF92EF92DF92CF928DEB97E932
:1038B0009F938F931F930F930E94FC27C8010E9430
:1038C0007F03B701A60180E80E94861885E0EDEC31
:1038D000F7E9D80101900D928A95E1F7C8010E949D
:1038E0007F03CDBFDEBFCC5ADF4FCDBFDEBFDF9140
:1038F000CF911F910F91FF90EF90DF90CF9008959F
:103900001092332A1092342A25E03DE0AC01429F08
:10391000C001439F900D529F900D1124E0E8FAE002
:103920008487958781E08583808308951092800A3B
:1039300008951F920F920FB60F9211248F939F93A9
:1039400081E08093860A8091332A9091342A0196EF
:103950008093332A9093342A80912E2A90912F2A93
:10396000019680932E2A90932F2A8091302A90914D
:10397000312A01968093302A9093312A9F918F911A
:103980000F900FBE0F901F901895E0EAF8E08BE0C3
:1039900086838381816083838581816085830895A7
:1039A00010922E2A10922F2A81E090E00E94801C13
:1039B00011C0000080912E2A90912F2AC39750F0B9
:1039C00062ED77E981E991E00E9498060E94961CD9
:1039D0008FEF08958091A50888235CF70E94961CBC
:1039E000E0EAF8E084818B7F848380859481926013
:1039F0009483089510922E2A10922F2A81E090E04D
:103A00000E94801C11C0000080912E2A90912F2AC4
:103A1000C39750F063EE77E981E991E00E94980640
:103A20000E94961C8FEF08958091A50888235CF76B
:103A30000E94961CE0EAF8E084818460848380859B
:103A40000895613039F490E0880F991F8160809368
:103A5000A70803C0880F8093A70810922E2A1092FF
:103A60002F2A81E090E00E94801C11C0000080910C
:103A70002E2A90912F2AC39750F064EF77E981E9BD
:103A800091E00E9498060E94961C83E6089580911A
:103A9000A508807C59F30E94961C8091A50882FF9E
:103AA00008C066E078E981E991E00E94980683E623
:103AB00008958091A50883FF08C06EE078E981E948
:103AC00091E00E94980683E608959091A508892FB9
:103AD000807194FF07C06EE178E981E991E00E946E
:103AE000980683E6089587E08093A4080895CF930D
:103AF000C82F10922E2A10922F2A81E090E00E9467
:103B0000801C11C0000080912E2A90912F2AC3970B
:103B100050F066E378E981E991E00E9498060E94FE
:103B2000961C83E635C08091A50886FFEBCF0E94E6
:103B3000961CC093A80810922E2A10922F2A81E07A
:103B400090E00E94801C11C0000080912E2A90916C
:103B50002F2AC39750F067E478E981E991E00E9449
:103B600098060E94961C83E613C08091A50886FFE4
:103B7000EBCF0E94961C9091A508892F807194FF2D
:103B800007C068E578E981E991E00E94980683E63C
:103B9000CF910895E0E0F4E081E085838183E0E067
:103BA000F8E024E730E0208731879581906895839D
:103BB00096819064968396819068968310923B2DAF
:103BC00010923C2D8093402D1092372C1092382C5F
:103BD0001092392B10923A2C10923C2CE0E4F4E035
:103BE00085838183E0E2F8E02DE635E020873187A8
:103BF000958190689583968190649683968190686C
:103C00009683109247301092483080934C30109237
:103C1000332B1092342B1092352A1092382BE0E27D
:103C2000F4E085838183E0E6F8E0208731879681A0
:103C3000906496839681906896838093482F109223
:103C4000442E08950F931F93CF93DF93EB01142F0E
:103C50008130D1F120F0833009F485C08CC01092FE
:103C6000402D20E011C0EBE3FDE2808190E038813F
:103C7000DC01A35CB34D3C9301966EEF70E00E94B3
:103C8000CA2580832F5F2196211768F3E0E0F8E0D2
:103C90008581806285838AE090E00E94801C0DC04F
:103CA0008091332A9091342A8536910530F00E9414
:103CB000961C81E08093402D5EC08091402D88232A
:103CC00079F30E94961C57C0642F70E0CE010E94C9
:103CD0002F14482F092F20E011C0E7E4F0E3808182
:103CE00090E03881DC01A75BB04D3C9301966EEF0C
:103CF00070E00E94CA2580832F5F2196211768F308
:103D0000E7E4F0E3808190E0DC01A75BB04D0C9329
:103D100001962EEF30E0B9010E94CA2590E0DC0147
:103D2000A75BB04D4C930196B9010E94CA258083D0
:103D30001E5F10934930E0E2F8E085818062858360
:103D40001AC0E3E4FFE2808190E03881DC01AB5BE4
:103D5000B14D3C9301966EEF70E00E94CA258083BE
:103D60002F5F219601C020E0211758F3E0E6F8E02C
:103D7000858180628583DF91CF911F910F91089596
:103D80001F920F920FB60F9211245F936F937F9340
:103D90008F939F93AF93BF93EF93FF9390910008FE
:103DA00080913A2C8D3F10F59D3051F481E0809345
:103DB0003C2CE091372CF0E0E75CF44D108206C01B
:103DC000E091372CF0E0E75CF44D9083EAE3FCE20D
:103DD00080818F5F8083E7E3FCE2808190E0019641
:103DE0006EEF70E00E94CA2580830AC01092372CC3
:103DF0001092382C1092392B10923A2C10923C2CA5
:103E0000FF91EF91BF91AF919F918F917F916F91B2
:103E10005F910F900FBE0F901F9018951F920F92F9
:103E20000FB60F9211242F938F939F93EF93FF93CD
:103E3000E0E0F8E085818F7D858380913B2DE091E6
:103E40003C2D8E17D1F081E08E0F80933C2DF0E059
:103E5000E35CF34D90819093020891E08E3F08F46B
:103E600090E09195292F220F821B80933C2DE0E05A
:103E7000F8E085818062858303C081E08093402DD6
:103E8000FF91EF919F918F912F910F900FBE0F9007
:103E90001F9018951F920F920FB60F9211242F9317
:103EA0008F939F93EF93FF9390912008E091372B8E
:103EB0008091352BE81740F421E02E0F2093372B0B
:103EC000F0E0EB5CF54D90839091372B981718F04C
:103ED00081E08093382BFF91EF919F918F912F91EB
:103EE0000F900FBE0F901F9018951F920F920FB654
:103EF0000F9211242F938F939F93EF93FF93E0E200
:103F0000F8E085818F7D858380914730E09148304E
:103F10008E17D1F081E08E0F80934830F0E0E75BA0
:103F2000F04D90819093220891E08E3F08F490E04C
:103F30009195292F220F821B80934830E0E2F8E010
:103F400085818062858303C081E080934C30FF913E
:103F5000EF919F918F912F910F900FBE0F901F9017
:103F600018951F920F920FB60F9211248F939F9363
:103F7000AF93BF93EF93FF93809160088D3021F052
:103F8000E091432EED3F78F081E08093442EA3E44E
:103F9000BEE28C91E82FF0E0EF5BF24D108280934F
:103FA000412E1C9208C091E09E0F9093432EF0E0AA
:103FB000EF5BF24D8083FF91EF91BF91AF919F91A5
:103FC0008F910F900FBE0F901F9018951F920F9218
:103FD0000FB60F9211248F939F93AF93BF93EF93DC
:103FE000FF93A7E4BFE2EC9181E08E0F8C93F0E0A9
:103FF000EB5BF14D9081909362089091452F89176A
:1040000040F0E0E6F8E085818F7D858381E0809354
:10401000482FFF91EF91BF91AF919F918F910F909A
:104020000FBE0F901F90189588ED84BF81E080939C
:10403000000108951F920F920FB60F9211242F9333
:104040003F934F935F936F937F938F939F93AF9320
:10405000BF93EF93FF938091A90486FF05C080E48E
:104060008093A9040E941420FF91EF91BF91AF911A
:104070009F918F917F916F915F914F913F912F9180
:104080000F900FBE0F901F9018955058BB27AA276E
:104090000E945D200C94A1210E94932138F00E947F
:1040A0009A2120F039F49F3F19F426F40C949021C2
:1040B0000EF4E095E7FB0C948A21E92F0E94B221CF
:1040C00058F3BA17620773078407950720F079F44D
:1040D000A6F50C94D4210EF4E0950B2EBA2FA02D4A
:1040E0000B01B90190010C01CA01A0011124FF27A5
:1040F000591B99F0593F50F4503E68F11A16F040A0
:10410000A22F232F342F4427585FF3CF469537959E
:104110002795A795F0405395C9F77EF41F16BA0B63
:10412000620B730B840BBAF09150A1F0FF0FBB1F11
:10413000661F771F881FC2F70EC0BA0F621F731F5A
:10414000841F48F4879577956795B795F7959E3FB7
:1041500008F0B0CF9395880F08F09927EE0F979548
:10416000879508950E94662108F481E008950E94D1
:10417000CB200C94A1210E949A2158F00E949321F7
:1041800040F029F45F3F29F00C948A2151110C94DE
:10419000D5210C9490210E94B22168F39923B1F3A8
:1041A000552391F3951B550BBB27AA27621773075D
:1041B000840738F09F5F5F4F220F331F441FAA1FF1
:1041C000A9F335D00E2E3AF0E0E832D091505040AD
:1041D000E695001CCAF72BD0FE2F29D0660F771F5B
:1041E000881FBB1F261737074807AB07B0E809F041
:1041F000BB0B802DBF01FF2793585F4F3AF09E3FC6
:10420000510578F00C948A210C94D5215F3FE4F39A
:10421000983ED4F3869577956795B795F7959F5F08
:10422000C9F7880F911D9695879597F90895E1E054
:10423000660F771F881FBB1F621773078407BA07B3
:1042400020F0621B730B840BBA0BEE1F88F7E0950E
:104250000895E89409C097FB3EF490958095709579
:1042600061957F4F8F4F9F4F9923A9F0F92F96E9C2
:10427000BB279395F695879577956795B795F11137
:10428000F8CFFAF4BB0F11F460FF1BC06F5F7F4FD4
:104290008F4F9F4F16C0882311F096E911C07723E6
:1042A00021F09EE8872F762F05C0662371F096E8EF
:1042B000862F70E060E02AF09A95660F771F881FBE
:1042C000DAF7880F9695879597F90895990F000862
:1042D000550FAA0BE0E8FEEF16161706E807F907D8
:1042E000C0F012161306E407F50798F0621B730B73
:1042F000840B950B39F40A2661F0232B242B252BF4
:1043000021F408950A2609F4A140A6958FEF811D96
:10431000811D089597F99F6780E870E060E0089537
:104320009FEF80EC089500240A94161617061806CD
:104330000906089500240A941216130614060506A9
:104340000895092E0394000C11F4882352F0BB0F3A
:1043500040F4BF2B11F460FF04C06F5F7F4F8F4F9D
:104360009F4F089557FD9058440F551F59F05F3FD8
:1043700071F04795880F97FB991F61F09F3F79F087
:1043800087950895121613061406551FF2CF469509
:10439000F1DF08C0161617061806991FF1CF86958B
:1043A0007105610508940895E894BB27662777276F
:1043B000CB0197F908950E94662108F48FEF0895C4
:1043C0000E94F3210C94A1210E94932138F00E94B5
:1043D0009A2120F0952311F00C948A210C949021BD
:1043E00011240C94D5210E94B22170F3959FC1F342
:1043F000950F50E0551F629FF001729FBB27F00D93
:10440000B11D639FAA27F00DB11DAA1F649F6627E7
:10441000B00DA11D661F829F2227B00DA11D621F36
:10442000739FB00DA11D621F839FA00D611D221FF0
:10443000749F3327A00D611D231F849F600D211DD4
:10444000822F762F6A2F11249F5750409AF0F1F057
:1044500088234AF0EE0FFF1FBB1F661F771F881FC0
:1044600091505040A9F79E3F510580F00C948A214D
:104470000C94D5215F3FE4F3983ED4F3869577956D
:104480006795B795F795E7959F5FC1F7FE2B880F66
:10449000911D9695879597F90895A0E1B0E0E3E521
:1044A000F2E20C940E267C011B016A01FC011682CB
:1044B0001782838181FF44C39E012F5F3F4F3901E3
:1044C000F7019381F10193FD859193FF81911F0184
:1044D000882309F431C3853239F493FD859193FF24
:1044E00081911F01853239F4B70190E00E94C02705
:1044F00056016501E5CF10E0512C912CFFE1F91533
:10450000D8F08B3279F038F4803279F08332A1F42C
:10451000F92DF0612EC08D3261F0803369F4292DC0
:1045200021602DC0392D3260932E892D8460982E04
:104530002AC0E92DE86015C097FC2DC020ED280F9A
:104540002A3088F496FE06C03AE0139F200D11240D
:10455000122F19C08AE0589E200D1124522EE92DE9
:10456000E0629E2E10C08E3231F496FCE5C2F92D29
:10457000F0649F2E08C08C3621F4292D2068922EDD
:1045800002C0883641F4F10193FD859193FF81913A
:104590001F018111B3CF9BEB980F933020F4992D1D
:1045A0009061805E07C09BE9980F933008F066C168
:1045B000992D9F7E96FF16E09F73992E853619F4EC
:1045C0009064992E08C0863621F4392F3068932ED6
:1045D00002C01111115097FE07C01C3350F444243F
:1045E0004394410E27E00BC0183038F027E017E065
:1045F00005C027E09CE3492E02C0212F412C560123
:1046000084E0A80EB11CF6016081718182819381E2
:10461000042DA3010E94AB266C01F981FC87F0FFF9
:1046200002C0F3FF06C091FC06C092FE06C000E285
:1046300005C00DE203C00BE201C000E08C858C7068
:1046400019F001115AC29BC297FE10C04C0CFC8598
:10465000F4FF04C08A81813309F44A94141474F578
:1046600028E0241578F588E0482E2CC096FC2AC056
:10467000812F90E08C159D059CF03CEFC3163FEF19
:10468000D30674F0892D8068982E0AC0E2E0F0E02D
:10469000EC0FFD1FE10FF11D8081803319F41150E3
:1046A0001111F4CF97FE0EC044244394410E812F84
:1046B00090E0C816D9062CF41C1904C04424439475
:1046C00001C010E097FE06C01C141D0434F4C6019E
:1046D000019605C085E090E002C081E090E0011104
:1046E0000196112331F0212F30E02F5F3F4F820FD1
:1046F000931F252D30E08217930714F4581A01C038
:10470000512C892D897049F4552039F0B70180E288
:1047100090E00E94C0275A94F7CF002329F0B701F8
:10472000802F90E00E94C02793FC09C0552039F0EB
:10473000B70180E390E00E94C0275A94F7CF97FE1C
:104740004CC04601D7FE02C0812C912CC6018819AD
:104750009909F301E80FF91FED87FE8796012419E7
:1047600031092F87388B012F10E011950195110920
:104770003FEF8316930629F4B7018EE290E00E9482
:10478000C027C814D9044CF08F85988988159905DD
:1047900024F4ED85FE85818101C080E3F1E08F1A6C
:1047A00091082D853E852F5F3F4F2D873E878016D0
:1047B00091062CF0B70190E00E94C027D9CFC81411
:1047C000D90441F49A81963320F4953319F43C8549
:1047D00034FF81E3B70190E04EC08A81813319F044
:1047E0009C859F7E9C87B70190E00E94C027111195
:1047F00005C094FC18C085E690E017C0B7018EE2B2
:1048000090E00E94C0271E5F82E001E0080FF301E4
:10481000E80FF11D8081B70190E00E94C027802F32
:104820000113F3CFE6CF85E490E0B7010E94C027E3
:10483000D7FC06C0C114D10441F4EC85E4FF05C0E7
:10484000D194C194D1088DE201C08BE2B70190E010
:104850000E94C02780E32AE0C216D1042CF08F5FAB
:10486000FAE0CF1AD108F7CFB70190E00E94C02735
:10487000B701C601C0960E94C02754C1833631F0EB
:10488000833779F0833509F056C020C0560132E0F5
:10489000A30EB11CF6018081898301E010E0630161
:1048A00012C05601F2E0AF0EB11CF601C080D180FB
:1048B00096FE03C0612F70E002C06FEF7FEFC6016C
:1048C0000E94A0278C01F92DFF7714C0560122E029
:1048D000A20EB11CF601C080D18096FE03C0612FEC
:1048E00070E002C06FEF7FEFC6010E9483278C014A
:1048F000F92DF0689F2EF3FD1AC0852D90E0081762
:104900001907A8F4B70180E290E00E94C0275A94EA
:10491000F4CFF60197FC859197FE81916F01B70165
:1049200090E00E94C02751105A94015011090115BE
:10493000110579F7F7C0843611F0893661F5560113
:1049400097FE09C024E0A20EB11CF60160817181BE
:10495000828193810AC0F2E0AF0EB11CF601608142
:104960007181072E000C880B990BF92DFF769F2E75
:1049700097FF09C090958095709561957F4F8F4FF7
:104980009F4FF0689F2E2AE030E0A3010E941E286E
:10499000C82EC6183FC0092D853721F40F7E2AE0A6
:1049A00030E01DC0097F8F3691F018F4883559F03A
:1049B000C3C0803719F0883711F0BEC0006104FF12
:1049C00009C0046007C094FE08C0066006C028E065
:1049D00030E005C020E130E002C020E132E05601C5
:1049E00007FF09C084E0A80EB11CF6016081718147
:1049F0008281938108C0F2E0AF0EB11CF6016081A4
:104A0000718180E090E0A3010E941E28C82EC61884
:104A10000F77902E96FE0BC0092D0E7FC11650F415
:104A200094FE0AC092FC08C0092D0E7E05C0DC2C45
:104A3000092D03C0DC2C01C0D12E04FF0DC0FE01E6
:104A4000EC0DF11D8081803311F4097E09C002FF55
:104A500006C0D394D39404C0802F867809F0D394F1
:104A600003FD11C000FF06C01C2DD51480F4150DE8
:104A70001D190DC0D51458F4B70180E290E00E94D2
:104A8000C027D394F7CFD51410F45D1801C0512C72
:104A900004FF10C0B70180E390E00E94C02702FF2E
:104AA00017C001FD03C088E790E002C088E590E0F0
:104AB000B7010CC0802F867859F001FF02C08BE24D
:104AC00001C080E207FD8DE2B70190E00E94C0279F
:104AD000C11638F4B70180E390E00E94C02711505E
:104AE000F7CFCA94F301EC0DF11D8081B70190E07E
:104AF0000E94C027C110F5CF15C0F4E0F51560F590
:104B000084E0581A93FE1FC0011127C02C8523FF93
:104B10002AC004E611E0392D3071932EF8018491FA
:104B2000811124C0552009F4E4CCB70180E290E063
:104B30000E94C0275A94F6CFF7018681978126C03C
:104B40008FEF9FEF23C0B70180E290E00E94C02763
:104B50005A945110F8CFD8CF512CB701802F90E044
:104B60000E94C027D3CF08E611E0D5CF9110805224
:104B7000B70190E00E94C0270F5F1F4FCFCF23E007
:104B8000251510F483E0BDCF512CC0CF6096E2E133
:104B90000C94272697FB072E16F4009407D077FD78
:104BA00009D00E943F2607FC05D03EF490958195E0
:104BB0009F4F0895709561957F4F0895052E97FB3F
:104BC0001EF400940E94F52557FD07D00E9453263D
:104BD00007FC03D04EF40C94F52550954095309584
:104BE00021953F4F4F4F5F4F089590958095709559
:104BF00061957F4F8F4F9F4F0895EE0FFF1F0590D8
:104C0000F491E02D09940E947526A59F900DB49F04
:104C1000900DA49F800D911D112408952F923F9215
:104C20004F925F926F927F928F929F92AF92BF92BC
:104C3000CF92DF92EF92FF920F931F93CF93DF9368
:104C4000CDB7DEB7CA1BDB0BCDBFDEBF09942A8808
:104C5000398848885F846E847D848C849B84AA8490
:104C6000B984C884DF80EE80FD800C811B81AA811D
:104C7000B981CE0FD11DCDBFDEBFED010895AA1BB6
:104C8000BB1B51E107C0AA1FBB1FA617B70710F037
:104C9000A61BB70B881F991F5A95A9F78095909569
:104CA000BC01CD010895A1E21A2EAA1BBB1BFD0178
:104CB0000DC0AA1FBB1FEE1FFF1FA217B307E407FB
:104CC000F50720F0A21BB30BE40BF50B661F771F53
:104CD000881F991F1A9469F7609570958095909533
:104CE0009B01AC01BD01CF010895A29FB001B39F0C
:104CF000C001A39F700D811D1124911DB29F700DE5
:104D0000811D1124911D08951F93FC019927882767
:104D1000BC01E89411911032E9F3193010F01E3003
:104D2000C8F31B3251F01D3249F4689406C00E944A
:104D3000AB27610F711D811D911D119110531A3008
:104D4000B0F33EF490958095709561957F4F8F4FAD
:104D50009F4F1F910895283008F027E03327DA018C
:104D6000990F311D87FD916000966105710539F439
:104D700032602E5F3D9330E32A95E1F708959F3F1F
:104D800030F080387105610509F03C5F3C5F3D9370
:104D9000913008F08068911DDF93CF931F930F939C
:104DA000FF92EF92192F987F9695E92F96959695F9
:104DB000E90FFF27EA53FE4F99273327EE24FF24FC
:104DC000A701E70105900894079428F4360FE71E21
:104DD000F81E491F511D660F771F881F991F0694E3
:104DE000A1F70590079428F4E70EF81E491F561FF7
:104DF000C11D770F881F991F661F0694A1F70590A4
:104E0000079428F4F80E491F561FC71FD11D880F9D
:104E1000991F661F771F0694A1F70590079420F449
:104E2000490F561FC71FD81F990F661F771F881F6E
:104E30000694A9F784911095177041F0D695C795FF
:104E400057954795F794E7941A95C1F7ECE6F1E08A
:104E500068941590159135916591959105907FE233
:104E60007395E118F10A430B560BC90BD009C0F733
:104E7000E10CF11E431F561FC91FD01D7EF4703375
:104E800011F48A95E6CFE894015030F0080F0AF447
:104E90000027021708F4202F2395022F7A3328F0D9
:104EA00079E37D932A95E9F710C07D932A9589F6D9
:104EB000069497956795379517951794E118F10A19
:104EC000430B560BC90BD00998F023957E9173952F
:104ED0007A3308F070E37C932013B8F77E91706109
:104EE0007D9330F0839571E37D9370E32A95E1F72C
:104EF0001124EF90FF900F911F91CF91DF9199278F
:104F000087FD90950895FC01059061507040011057
:104F1000D8F7809590958E0F9F1F0895FB01DC01B7
:104F20000D900020E9F7119701900D920020E1F714
:104F30000895FB01DC0101900D920020E1F7089536
:104F4000FC016150704001900110D8F78095909558
:104F50008E0F9F1F0895592F482F372F262F660F2A
:104F6000771F881F991F660F771F881F991F620F71
:104F7000731F841F951F660F771F881F991F089541
:104F80000F931F93CF93DF93FB01238121FD03C078
:104F90008FEF9FEF2CC022FF16C0468157812481DE
:104FA00035814217530744F4A081B1819D012F5FE1
:104FB0003F4F208331838C93268137812F5F3F4F72
:104FC0002683378314C08B01EC01FB010084F1853B
:104FD000E02D0995892BE1F6D80116968D919C91CB
:104FE0001797019616968D939C931797CE01DF9194
:104FF000CF911F910F910895AEE0B0E0E2E0F8E2AA
:105000000C941C260D891E8986E08C8309831A83E3
:105010008FEF9FE78D839E83AE01475E5F4F6F8961
:10502000788DCE0101960E944D22EF81F885E00F28
:10503000F11F10822E96E4E00C943526FA01AA277F
:10504000283051F1203181F1E8946F936E7F6E5FCB
:105050007F4F8F4F9F4FAF4FB1E03ED0B4E03CD079
:10506000670F781F891F9A1FA11D680F791F8A1F5C
:10507000911DA11D6A0F711D811D911DA11D20D0C3
:1050800009F468943F912AE0269F11243019305D7D
:105090003193DEF6CF010895462F4770405D41936E
:1050A000B3E00FD0C9F7F6CF462F4F70405D4A33BB
:1050B00018F0495D31FD4052419302D0A9F7EACF83
:1050C000B4E0A6959795879577956795BA95C9F7B2
:1050D00000976105710508959B01AC010A2E0694A5
:1050E0005795479537952795BA95C9F7620F731F5E
:1050F000841F951FA01D089560507C4E0C94B72806
:10510000DC01A40FB51F4150504048F0CB01840F83
:10511000951F2E910E94912841505040D0F708953C
:10512000262F0E94B3280080021619F00E949C28A6
:10513000019701970895262FAF93BF93E0E0F0E128
:10514000328131FDFDCFDC01A050BC4E2C932DE906
:1051500024BF23E020830196BF91AF91089503D02F
:10516000808199270895FC01E050FC4E0895FB01D1
:10517000DC0102C001900D9241505040D8F70895D3
:04518000F894FFCFD1
:1051840024532564257300434D442C25732C257327
:105194000043616E2774207265626F6F742C206DFA
:1051A4006F746F72206D6F76696E67004E6F742036
:1051B4006120636F6D6D616E64003230253032782A
:1051C4002D253032782D2530327854253032783AF6
:1051D400253032783A25303278006765745F746917
:1051E4006D6520445333323331004461746554692E
:1051F4006D653F007075745F74696D652044533349
:1052040032333100323032312D31312D32340045D8
:1052140052522C25642C25730054696D6520536506
:10522400743F00737065634D6563682056657273DF
:10523400696F6E004D4350323330303820726561EF
:1052440064206572726F72004D43503233303038CF
:10525400207772697465206572726F72002A253036
:1052640032580D0A00202020202020202020202039
:10527400202020202000626F7468006C6566740032
:105284007269676874007368757474657200636C1E
:105294006F73655F504E455520626164206F626A8A
:1052A40065637400636C6F736520776861743F0095
:1052B400436C6F7365202573006F70656E5F504E8D
:1052C400455520626164206F626A656374006F7083
:1052D400656E20776861743F004F70656E2025739A
:1052E4000054656D7020262048756D696469747971
:1052F4000025312E3166432025312E306646202587
:10530400312E30662525004F7269656E74617469AB
:105314006F6E0054696D65005265645661632020A8
:10532400426C7565566163007265706F72743A20E1
:10533400756E6B6E6F776E206F626A65637400457D
:105344004E562C25732C25332E31662C432C2531B7
:105354002E30662C25252C25332E31662C432C2506
:10536400312E30662C25252C25332E31662C432CEA
:1053740025312E30662C25252C25332E31662C43E1
:105384002C2573004D54522C25732C25632C256C2D
:10539400642C6D6963726F6E732C256C642C6D695B
:1053A40063726F6E732F7365632C25642C6D412CAF
:1053B4002573004D54562C25732C25632C25332E30
:1053C40031662C562C25332E31662C432C25730044
:1053D4004F52492C25732C25332E31662C25332E20
:1053E40031662C25332E31662C25730025322E3060
:1053F400662025322E30662025322E306600504E2F
:10540400552C25732C25632C736875747465722C64
:1054140025632C6C6566742C25632C72696768742B
:105424002C25632C6169722C2573004C6566743AD3
:10543400256320202052696768743A256300536805
:1054440075747465723A256320204169723A256344
:105454000054494D2C25732C25732C7365742C250D
:10546400732C626F6F742C2573005641432C257383
:105474002C25352E32662C7265647661632C2535B5
:105484002E32662C626C75657661632C257300255B
:10549400322E3266202025322E3266005645522C9A
:1054A40025732C25732C2573006765745F4D4F5449
:1054B4004F523A2073657269616C2074696D656F2F
:1054C4007574006765745F4D4F544F523A204352D0
:1054D40043206D69736D617463680043616C6C652E
:1054E400642066726F6D206765745F4D4F544F5230
:1054F4005F454E434F444552006765745F4D4F54BA
:105504004F52456E636F6465722074696D656F7583
:1055140074006765745F4D4F544F52456E636F64FA
:105524006572207469637320617420393630303DAC
:105534002564006765745F4D4F544F52456E636F29
:1055440064657220435243006765745F4D4F544F46
:1055540052466C6F61742074696D656F7574006771
:1055640065745F4D4F544F52466C6F6174204352C3
:1055740043006765745F4D4F544F524375727265B3
:105584006E742074696D656F7574006765745F4D22
:105594004F544F5243757272656E742043524320C8
:1055A4006572726F72006765745F4D4F544F525F3E
:1055B4005049442074696D656F7574006765745F44
:1055C4004D4F544F525F504944204352432065721B
:1055D400726F72006765745F4D4F544F525370651C
:1055E40065642074696D656F7574006765745F4DDB
:1055F4004F544F5253706565642043524320657283
:10560400726F72006D6F76655F4D4F544F524162F9
:10561400736F6C7574652074696D656F7574006D56
:105624006F76655F4D4F544F524162736F6C757462
:10563400652061636B007075745F4D4F544F523A2F
:105644002073657269616C2074696D656F7574008F
:105654007075745F4D4F544F523A2062616420411B
:10566400434B006D6F76655F4D4F544F523A207037
:1056740075745F4D4F544F522063616C6C2065729A
:10568400726F72006D6F76655F4D4F544F525F437A
:105694004D443A206765745F4D4F544F525F454EF9
:1056A400434F444552206572726F72006D6F766588
:1056B4005F4D4F544F525F434D443A20756E6B6EAD
:1056C4006F776E206D6F746F72006D6F76655F4DCE
:1056D4004F544F525F434D443A206D6F76655F4D92
:1056E4004F544F522063616C6C206572726F72006C
:1056F4007075745F4D4F544F525F454E434F444550
:10570400523A2073657269616C2074696D656F75B6
:1057140074007075745F4D4F544F52456E636F64DF
:105724006572206261642061636B007365745F4D10
:105734004F544F52456E636F6465722074696D6592
:105744006F7574007365745F4D4F544F52456E63AB
:105754006F646572206261642061636B00736574B9
:105764005F4D4F544F525F5049442074696D656FCB
:105774007574007365745F4D4F544F525F504944C4
:10578400206261642061636B007365743A20626116
:10579400642074696D6520666F726D617400736551
:1057A4007420776861743F00656E636F6465725638
:1057B400616C75653D256C75006E6577506F736916
:1057C40074696F6E3D256C7500646F6E650072655B
:1057D40061645F5457492074696D656F7574007214
:1057E4006561646C6173742074696D656F757400B0
:1057F4005457492073746172742074696D656F75B0
:1058040074005457492062757300545749206172DB
:10581400626974726174696F6E00545749206E6FC7
:105824002064657669636520726573706F6E646564
:10583400640077726974655F545749206572726FAA
:1058440072310077726974655F54574920657272CA
:105854006F72320041434B206E6F74207265636532
:05586400697665640097
:00000001FF
