S0100000737065634D6563682E73726563EC
S11300000C942A010C9447010C9447010C94A317F7
S11300100C9447010C9447010C9447010C9447013C
S11300200C9447010C9447010C9447010C9447012C
S11300300C94B2180C9447010C9447010C9447019A
S11300400C9447010C94561A0C94A41A0C9447016E
S11300500C94420E0C9447010C9447010C944701F4
S11300600C9447010C9447010C94E01A0C940B1B5C
S11300700C9447010C94B41B0C9447010C94470155
S11300800C9447010C9447010C9447010C944701CC
S11300900C9447010C94471B0C947C1B0C94470153
S11300A0A004AE04AE04AE04AE04AE04AE04AE04CA
S11300B0AE04AE04AE04AE04AE04AE04AE04AE04AC
S11300C0AE048E04AE04AE04AE04AE04AE04AE04BC
S11300D0AE04AE04AE049404AE049104AE04AE04C3
S11300E097049A049D04510F510F510F1A141A14B6
S11300F01A141A141A141A141A141A141A141A148C
S11301001A141A141A141A141A141A141A141A147B
S1130110DC131A141A141A141A141A141A141A14AA
S11301201A141A141A14E10FE10FE10F1A149F1094
S11301301A141A141A141A141A141A141A141A144B
S11301401A14DC11B2121A141A141A143B131A14C6
S113015083136E616E00696E660000407A10F35A74
S113016000A0724E18090010A5D4E80000E87648F3
S1130170170000E40B54020000CA9A3B000000E19F
S1130180F505000080969800000040420F00000032
S1130190A08601000000102700000000E803000012
S11301A000006400000000000A00000000000100DC
S11301B0000000002C76D888DC674F0823DFC1DFFD
S11301C0AE59E1B1B796E5E3E453C63AE651997600
S11301D096E8E6C28426EB898C9B62ED407C6FFC3A
S11301E0EFBC9C9F40F2BAA56FA5F490055A2AF77C
S11301F05C936B6CF9676DC11BFCE0E40D47FEF585
S113020020E6B500D0ED902E0300943577050080EC
S1130210841E080000204E0A000000C80C3333334B
S1130220330F986E12831141EF8D2114893BE655EB
S113023016CFFEE6DB18D1844B381BF77C1D901DCE
S1130240A4BBE424203284725E228100C9F124EC30
S1130250A1E53D2711241FBECFEFCDBFDFE3DEBFF5
S113026018E2A0E0B8E2EBE2FDE402C005900D92D2
S1130270A430B107D9F720E3A4E0B8E201C01D928D
S1130280AF32B207E1F70E949F080C9466240C94E5
S113029000008F929F92AF92BF92EF92FF920F93C2
S11302A01F93CF93DF9300D000D0CDB7DEB77B018F
S11302B08130C9F018F0823061F010C00F2EF3E3E2
S11302C08F2E982CF3EFAF2EF0E4BF2EF02D11E01B
S11302D00EC0812C912C540110E109C0812C912C69
S11302E0540110E004C0812C912C540114E040E02E
S11302F066E087E20E94D308412F409560E087E2E0
S11303000E94D308412F6AE087E20E94D30886E165
S11303108A95F1F700008E010F5F1F4F20E840E738
S113032068E088E40E94CA01833651F440E050E852
S113033066E274ECF70140835183628373831CC0CB
S113034020E030E04AE754E469817A818B819C8122
S11303500E94861D23E333E948E853E40E94EB1B23
S11303609B01AC01C501B4010E94EC1BF701608341
S113037071838283938380E02496CDBFDEBFDF91B7
S1130380CF911F910F91FF90EF90BF90AF909F90EE
S11303908F9008958F929F92AF92BF92CF92DF92E7
S11303A0EF92FF920F931F93CF93DF93F82EE62ED5
S11303B06801462BC42FC168D22FD36080E090E837
S11303C0A6E2B4ECF80180839183A283B38360E056
S11303D08F2D0E94F418082F882321F00E943519CC
S11303E013E6B4C081E00E943919182F833619F43A
S11303F00E943519ABC08C2F0E943919182F8336EF
S113040019F40E943519A2C08D2F0E943919182F92
S1130410833619F40E94351999C00E943519FCE1FC
S1130420FA95F1F7C1E009C061E08F2D0E94F4183C
S11304300E94E71888230CF4C0E0C111F5CF0E9494
S1130440351960E08F2D0E94F41880E00E9439195C
S113045061E08F2D0E94F4180E94D718C82F0E94C3
S1130460E718D82F0E9435196C2F70E0762F662775
S11304706D2B84E0E81649F18E1530F0EE20D9F1A9
S1130480E2E0EE1669F142C0F8E0EF1609F442C06A
S11304908AE0E81621F0E6E0EE1238C00BC00F2E19
S11304A0F4E78F2EF3E19F2EF3E0AF2EF7E3BF2E98
S11304B0F02D3AC00F2EF4E78F2EF3E19F2EF3E0D8
S11304C0AF2EF8E3BF2EF02D2FC00F2EF2E18F2EAA
S11304D0F3E19F2EF3E8AF2EF8E3BF2EF02D24C0F6
S11304E00F2EF4E78F2EF3E19F2EF3E0AF2EF9E306
S11304F0BF2EF02D19C00F2EFEE28F2EFDE99F2E88
S1130500F4E4AF2EF9E3BF2EF02D0EC0812C912C14
S113051054010AC00F2EF1E78F2EF3E19F2EF3E86A
S1130520AF2EF7E3BF2EF02D072E000C880B990B8E
S11305300E94D11C9B01AC01C501B4010E94861D1F
S1130540F6016083718382839383102F812FDF915F
S1130550CF911F910F91FF90EF90DF90CF90BF90BC
S1130560AF909F908F900895E0E2F4E084E085835B
S1130570818386830895CF93DF939C0140E01CC060
S1130580CAE1DCE2E881F0E0E55EF44D8081F90146
S1130590E40FF11D8083ACE1BCE28C9181508C931B
S11305A0888190E001966EEF70E00E94702188834C
S11305B08081882329F04F5F80911C2C8111E0CF2A
S11305C0F901E40FF11D1082DF91CF9108959FE9A5
S11305D0980F9A3128F081548A3120F483E60895E3
S11305E083E6089580E00895EF92FF921F93CF93DE
S11305F0DF93EC01E62EF12C84E38E9DF0018F9DB8
S1130600F00D1124E95FF74D8FE38083818312821B
S113061013A604C0112309F475C021961881812FF3
S11306200E94E7028823B1F3219684E38E9DF001B2
S11306308F9DF00D1124E95FF74D108304C0112341
S113064009F460C021961881812F0E94E702882353
S1130650B1F3219684E38E9DF0018F9DF00D11245A
S1130660E95FF74D118380E02AC0988191110CC095
S113067094E39E9DF0019F9DF00D1124E95FF74DD9
S1130680E80FF11D12823EC09B3361F494E39E9DFA
S1130690F0019F9DF00D1124E95FF74DE80FF11D66
S11306A012820FC0219624E32E9DF0012F9DF00DA0
S11306B01124E95FF74DE80FF11D92838F5F8932B2
S11306C0A0F2219680E01CC0988191110CC094E3A3
S11306D09E9DF0019F9DF00D1124E95FF74DE80FF9
S11306E0F11D13A60FC0219624E32E9DF0012F9D2A
S11306F0F00D1124E95FF74DE80FF11D93A78F5F0B
S1130700893010F3DF91CF911F91FF90EF900895FE
S11307100F931F93CF93DF93CDB7DEB7C550D1406E
S1130720CDBFDEBF27E0E0EDF8E8DE01A150BF4F0A
S113073001900D922A95E1F72091052821112AC0F4
S11307402091A80422FF03C022E030E002C021E08F
S113075030E09F938F933F932F93CE0181509F4F0F
S11307609F938F938E010F5F1F4F1F930F930E94D0
S1130770A223C8010E949D0AF80101900020E9F714
S11307803197AF01401B510BB80180E00E94B819AA
S1130790CDBFDEBFCB5FDE4FCDBFDEBFDF91CF91DC
S11307A01F910F910895CF92DF92EF92FF920F93D2
S11307B01F93CF93DF93CDB7DEB7CC51D140CDBFDC
S11307C0DEBFD82EC92E8AE0E7EDF8E89E012F5F40
S11307D03F4F7901D90101900D928A95E1F78E017D
S11307E0055F1F4FC8010E949B05CF92DF921F93A4
S11307F00F93FF92EF920C5E1F4F1F930F930E9473
S1130800A223C8010E948803CDBFDEBFC45EDE4FB1
S1130810CDBFDEBFDF91CF911F910F91FF90EF907D
S1130820DF90CF900895CF93DF9300D0CDB7DEB79C
S113083089831A8241E0BE016F5F7F4F80E00E948E
S1130840B8190F900F90DF91CF910895CF93C09175
S11308500628C11122C0FC018081813291F491816A
S113086091110FC08FEF91E00E94751785E090E021
S11308708093112A9093122A81E080930628C1E084
S11308800DC0813231F48181882319F00E94AA1BA2
S113089005C081E20E94130401C0C1E08C2FCF91F6
S11308A00895CF93DF93CDB7DEB7CF5FD109CDBF26
S11308B0DEBFCE0101960E94BB02CE0101960E94CA
S11308C02604882309F45DC08981882311F08132CC
S11308D031F4109205288EE30E94130452C0CE0115
S11308E001960E94D30360910428CE0101960E94D0
S11308F0F4028091042824E3829FF0011124E95F2B
S1130900F74DE0814E2F50E0FA01E255F109E33250
S1130910F10520F5E05BFF4F0C94A3210E94EE0C3F
S113092023C00E94980D20C00E948B161DC00E94F7
S1130930A90E1AC00E94ED1717C00E945A1814C0BD
S11309408EE30E9413048AE694E021E081509040F3
S11309502040E1F700C00E94AA1B13C061EE78E8B2
S113096089EC90E00E9477068091042890E001963B
S11309706AE070E00E947021809304288EE30E9454
S11309801304C150DF4FCDBFDEBFDF91CF91089577
S11309900F931F93CF93DF93CDB7DEB7A097CDBF4F
S11309A0DEBF40E2EFEEF8E89E012F5F3F4FD90132
S11309B001900D924A95E1F7FB01B081A18112816A
S11309C00481558146811F92BF931F92AF931F925A
S11309D01F931F920F931F925F931F924F933F9306
S11309E02F939F938F930E94A223CDBFDEBFA09627
S11309F0CDBFDEBFDF91CF911F910F910895DC0130
S1130A00FB01818990E0C09782959295907F982709
S1130A10807F982792899053892B8C93868590E0C8
S1130A20C09782959295907F9827807F9827978585
S1130A309053892B11968C931197838590E0C097DE
S1130A4082959295907F9827807F982794859053DC
S1130A50892B12968C93129781E013968C9313979B
S1130A60808590E0C09782959295907F9827807FAB
S1130A70982791859053892B14968C9314972581EC
S1130A8030E02053310922953295307F3227207F80
S1130A90322786818053282B15962C931597228113
S1130AA030E02053310922953295307F3227207F60
S1130AB0322783818053282B16962C930895EF9226
S1130AC0FF920F931F93CF937B0160E00E94F41871
S1130AD0C82F833619F40E94351926C080E00E947D
S1130AE03919C82F833619F40E9435191DC061E0E5
S1130AF088E60E94F418C82F833661F40E943519E1
S1130B0013C087010C0F111D0E94D718F8018083B0
S1130B10CF5F01C0C0E0C630A0F30E94E718F70120
S1130B2086830E943519C0E08C2FCF911F910F91BD
S1130B30FF90EF900895EF92FF921F93CF93DF936E
S1130B40CDB7DEB72797CDBFDEBF7C01BE016F5F97
S1130B507F4F88E60E945F05182F833679F46FE093
S1130B6079E885E690E00E9477068AE0EFE1F9E80B
S1130B70D70101900D928A95E1F707C0BE016F5F1E
S1130B807F4FC7010E94C80410E0812F2796CDBF74
S1130B90DEBFDF91CF911F91FF90EF900895EF9208
S1130BA0FF920F931F93CF93DF938B0160E00E941A
S1130BB0F418C82F833619F40E94351920C080E038
S1130BC00E943919C82F8336A1F40E94351917C021
S1130BD078018FEFE81AF80AF80180810E94391928
S1130BE0C82F833619F40E94351909C0DF5F8701C5
S1130BF001C0D0E0D73060F30E943519C0E08C2FDB
S1130C00DF91CF911F910F91FF90EF9008951F9363
S1130C10CF93DF93CDB7DEB72797CDBFDEBFBC013F
S1130C20CE0101960E94FF04BE016F5F7F4F88E6EC
S1130C300E94CF05182F833639F469E279E886E6F5
S1130C4090E00E94770601C010E0812F2796CDBF67
S1130C50DEBFDF91CF911F91089545E150E06BE035
S1130C6070E00E94222408954BE050E060E070E0C0
S1130C700E9422240895CF93DF93CDB7DEB7659702
S1130C80CDBFDEBFCE0101960E949B0545E150E039
S1130C906BE070E0CE0101960E9426246596CDBFDC
S1130CA0DEBFDF91CF910895CF93DF93CDB7DEB749
S1130CB02B97CDBFDEBF8BE0E9E3F9E8DE011196A7
S1130CC001900D928A95E1F74BE050E060E070E00E
S1130CD0CE0101960E9426242B96CDBFDEBFDF9164
S1130CE0CF9108950E943B060E94540608950F93E5
S1130CF01F93CF93DF93CDB7DEB7C850D140CDBF9C
S1130D00DEBF9E0121503F4F4AE0E4E4F9E8D901F7
S1130D1001900D924A95E1F77F936F939F938F9380
S1130D203F932F938E010F5F1F4F1F930F930E94CA
S1130D30A223C8010E948803CDBFDEBFC85FDE4F77
S1130D40CDBFDEBFDF91CF911F910F910895CF9258
S1130D50DF92EF92FF920F931F93CF93DF93D82FDD
S1130D60D62EE72E8A01F22E8BE0EEE4F9E8DA01C2
S1130D7001900D928A95E1F760E08D2F0E94F4189E
S1130D80C82F833619F40E94351931C08E2D0E9464
S1130D903919C82F833659F18D2D0E943919C82F5E
S1130DA0833629F161E08D2F0E94F418C82F833611
S1130DB0F1F0C0E008C06801CC0ED11C0E94D71825
S1130DC0F6018083CF5F2C2F30E08F2D90E00197C8
S1130DD02817390784F38F2D90E00197E801C80F95
S1130DE0D91F0E94E71888830E943519C0E08C2F10
S1130DF0DF91CF911F910F91FF90EF90DF90CF90F3
S1130E000895EF92FF921F93CF93DF93CDB7DEB790
S1130E102A97CDBFDEBF7C018AE0E9E5F9E8DE016F
S1130E20119601900D928A95E1F724E1A70160E003
S1130E3070E080E50E94A706182F833639F4BE01BE
S1130E406F5F7F4FC7010E943F2301C010E0812FD5
S1130E502A96CDBFDEBFDF91CF911F91FF90EF9017
S1130E600895EF92FF920F931F93CF93DF93F62E83
S1130E70172FEA01022F60E00E94F4188336E1F094
S1130E80812F0E9439198336B9F08F2D0E943919A8
S1130E90833691F010E00BC07E018FEFE81AF80A58
S1130EA088810E943919833639F01F5FE7011017D2
S1130EB098F30E94351980E0DF91CF911F910F9133
S1130EC0FF90EF9008958F929F92AF92BF92CF922E
S1130ED0DF92EF92FF920F931F93CF93DF9300D093
S1130EE000D0CDB7DEB7813059F018F0823079F0F8
S1130EF015C080E00E9432186B017C0140E417C0E9
S1130F0081E00E9432186B017C0140E510C082E050
S1130F100E9432186B017C0140E609C00F2EC12CDF
S1130F20D12CF0EAEF2EF1E4FF2EF02D40E58E01F6
S1130F300F5F1F4F20E860E088E40E94CA018336F7
S1130F4079F120E030E040EA50E469817A818B81D4
S1130F509C810E945D1C2AE037ED43E25EE30E941F
S1130F60EB1B2FE539E24BEC5BE30E945D1C4B016C
S1130F705C0129EC3EE84DE05BE3C701B6010E9449
S1130F80861D9B01AC0162E27DEF86E89FE30E942F
S1130F90EB1B9B01AC01C501B4010E945D1C04C0A4
S1130FA060E070E886E294EC2496CDBFDEBFDF916A
S1130FB0CF911F910F91FF90EF90DF90CF90BF9052
S1130FC0AF909F908F9008950E94710E8BE0809354
S1130FD0B6040E94DF1B0E942A180E9499080E94EE
S1130FE0B4020E94CC1880E290E00E9475170E941F
S1130FF05E190895CF93DF93CDB7DEB72B97CDBF9E
S1131000DEBF109206280E9441170E946B0A0E94BC
S1131010330C80E00E94F80A81E00E94F80A0E94E2
S1131020720680EE91E08093112A9093122ACE01E9
S113103001960E94340641E063E679E881E00E946B
S1131040B80B42E0BE016F5F7F4F81E00E94B80B96
S11310502B96CDBFDEBFDF91CF910895CF92DF9263
S1131060EF92FF920F931F93CF93DF9300D000D0A2
S1131070CDB7DEB7813021F08230C1F540E301C045
S113108040E08E010F5F1F4F20E862E089E40E9478
S1131090CA01833681F1C980DA80EB80FC802DECB3
S11310A03CEC4CEC5EE3C701B6010E94581C88235B
S11310B03CF120E030E040E050E4C701B6010E947A
S11310C0811D181614F129E739EE42E050E4C701F6
S11310D0B6010E94861D2EE633EA4BED50E40E94D1
S11310E0EB1B562F472F382F292F13C050E040E811
S11310F036E224EC0EC050E040E836E224EC09C0AD
S113110050E040E836E224EC04C050E040E836E227
S113111024EC652F742F832F922F2496CDBFDEBF2E
S1131120DF91CF911F910F91FF90EF90DF90CF90BF
S11311300895E0EAF4E080E285838183089581E004
S1131140809305280E94E40778940E94FA0780910E
S11311501E2C8823E1F310921E2C0E945104F7CF19
S1131160CF93DF93C82FD62F60E00E94F418833604
S113117051F464E779E882E991E00E9477060E94DD
S113118035198FEF0DC08D2F0E94391961E08C2F16
S11311900E94F4180E94E718C82F0E9435198C2F5A
S11311A0DF91CF9108951F93CF93DF93D62F142F00
S11311B060E00E94F418C82F833649F468E879E89F
S11311C082E991E00E9477060E94351915C08D2F9F
S11311D00E943919882321F00E943519C3E60CC0F6
S11311E0812F0E943919882321F00E943519C3E602
S11311F003C00E943519C0E08C2FDF91CF911F915D
S113120008958F929F92AF92BF92FF920F931F9374
S1131210CF93DF938C0160E088E10E94F418833659
S113122051F440E050E866E274ECF80140835183E5
S11312306283738343C085E00E94391961E088E1C9
S11312400E94F4180E94D718C82F0E94E718D82FBC
S11312500E943519FC2FF071FF2E6C2F6F7070E017
S113126080E090E00E94CF1C20E030E040E851E4B0
S11312700E94861D4B015C016D2F70E080E090E0C0
S11312800E94CF1C20E030E040E85DE30E94861D10
S11312909B01AC01C501B4010E94EC1BFF2041F08D
S11312A09B01AC0160E070E080E893E40E94EB1BDA
S11312B0F801608371838283938380E0DF91CF910F
S11312C01F910F91FF90BF90AF909F908F900895C2
S11312D0EF92FF920F931F93CF93DF93F82EE62E96
S11312E0EA01022F60E00E94F418182F833619F4E3
S11312F00E94351923C08E2D0E943919182F833668
S1131300E9F061E08F2D0E94F418182F833669F4F8
S11313100E94351913C07E018FEFE81AF80A0E9463
S1131320D71888831F5FE70101C011E0101798F3F5
S11313300E94E71888830E94351910E0812FDF91FD
S1131340CF911F910F91FF90EF900895CF92DF926C
S1131350EF92FF920F931F93CF93DF93CDB7DEB736
S11313602697CDBFDEBF6C017B018A0180E090E847
S1131370A6E2B4ECFA0180839183A283B383FB01D8
S113138080839183A283B383F60180839183A283B4
S1131390B38326E0AE014F5F5F4F61E08DE10E94B1
S11313A06809833609F461C0898190E0982F882701
S11313B02A81822BBC01772314F46D5F7F4F7595CE
S11313C0679575956795072E000C880B990B0E94FD
S11313D0D11C26E636E245E75EE30E94861DF6014F
S11313E060837183828393838B8190E0982F882715
S11313F02C81822BBC01772314F46D5F7F4F75958C
S1131400679575956795072E000C880B990B0E94BC
S1131410D11C26E636E245E75EE30E94861DF7010D
S113142060837183828393838D8190E0982F8827D2
S11314302E81822BBC01772314F46D5F7F4F759549
S1131440679575956795072E000C880B990B0E947C
S1131450D11C26E636E245E75EE30E94861DF801CC
S1131460608371838283938380E02696CDBFDEBF41
S1131470DF91CF911F910F91FF90EF90DF90CF906C
S113148008951F93CF93DF93D62F142F60E00E940B
S1131490F418C82F882321F00E9435198C2F17C007
S11314A08D2F0E943919C82F882321F00E943519E5
S11314B08C2F0DC0812F0E943919C82F882321F049
S11314C00E9435198C2F03C00E94351980E0DF91EA
S11314D0CF911F910895CF93DF931F92CDB7DEB7BD
S11314E040E46BE28DE10E94410A21E0AE014F5FCE
S11314F05F4F6BE28DE10E94680908C021E0AE01F4
S11315004F5F5F4F6BE28DE10E946809898186FD20
S1131510F5CF40EC6FE08DE10E94410A42E06BE2BE
S11315208DE10E94410A4DE36AE28DE10E94410A85
S113153089810F90DF91CF910895EF92FF920F93DD
S11315401F93CF93DF93CDB7DEB72E97CDBFDEBF0A
S11315508C0188E0EDE9F9E8DE01119601900D9225
S11315608A95E1F7F80101900020E9F731973E2FC1
S1131570301B90E081E006C0F801E80FF11D2081E6
S113158092278F5F8317C0F31F929F93CE0101961A
S11315909F938F937E0189E0E80EF11CFF92EF92F6
S11315A00E94A223B701C8010E9434230F900F9018
S11315B00F900F900F900F902E96CDBFDEBFDF914E
S11315C0CF911F910F91FF90EF900895CF93DF93E8
S11315D0D62FC42F60E00E94F4188D2F0E94391971
S11315E08C2F0E9439190E943519DF91CF910895EB
S11315F0CF93E0E6F4E090E496839183A1E4B3E032
S11316001197F1F700009583811102C0CCE301C06A
S1131610CDE34AE260E08C2F0E94E60A41E760E0F5
S11316208C2F0E94E60A4CE560E48C2F0E94E60AA7
S113163048E260E08C2F0E94E60A48E060E08C2FCC
S11316400E94E60A4AE260E08C2F0E94E60A49E71B
S113165060E08C2F0E94E60A45ED60E08C2F0E942A
S1131660E60A40E760E08C2F0E94E60A48E760E063
S11316708C2F0E94E60A48E060E08C2F0E94E60A64
S113168046E060E08C2F0E94E60A42E760E08C2F7F
S11316900E94E60A40E060E48C2F0E94E60A4AE2D7
S11316A060E08C2F0E94E60A49E760E08C2F0E94DC
S11316B0E60A4AED60E08C2F0E94E60A40E060E012
S11316C08C2F0E94E60A4CED60E08C2F0E94E60A03
S11316D040E060E08C2F0E94E60A41E860E08C2F35
S11316E00E94E60A4FE760E08C2F0E94E60A49ED6B
S11316F060E08C2F0E94E60A41EF60E08C2F0E948C
S1131700E60A4BED60E08C2F0E94E60A40E460E0BC
S11317108C2F0E94E60A48E760E08C2F0E94E60ABC
S113172048E260E08C2F0E94E60A41E060E08C2FE2
S11317300E94E60A40E860E08C2F0E94E60A4CE032
S113174060E08C2F0E94E60ABAE624E081E0B15002
S113175020408040E1F700C010920F2A1092102A16
S113176085E090E08093112A9093122ACF910895F6
S1131770EF92FF920F931F93CF93DF93CDB7DEB712
S1131780E297CDBFDEBF142F91E1E5EAF9E8DE016F
S1131790929601900D929A95E1F7811102C00CE3A3
S11317A001C00DE3CE0101967C010E943F23F701A5
S11317B001900020E9F73197EE19FF09719708F0BD
S11317C0198ABE016E5D7F4FCE0101960E943423BB
S11317D0113039F440E860E0802F0E94E60A10E0FE
S11317E012C040EC60E0802F0E94E60AF8CFE1E0EE
S11317F0F0E0EC0FFD1FE10FF11D408160E4802F4C
S11318000E94E60A1F5F103190F381E090E080931C
S11318100F2A9093102AE296CDBFDEBFDF91CF91BD
S11318201F910F91FF90EF9008951F93CF93DF9333
S11318301F92CDB7DEB7182F198241E0BE016F5F4A
S11318407F4F0E94B80B42E0BE016F5F7F4F812F34
S11318500E94B80B10920F2A1092102A0F90DF9159
S1131860CF911F91089540E060E084E20E94D30884
S11318708336A9F140E06AE084E20E94D30883360B
S113188071F14EEF60E081E20E94D308833639F1B2
S113189040E061E081E20E94D308833601F14CEF1D
S11318A062E081E20E94D3088336C9F040E064E03C
S11318B081E20E94D308833691F040E265E081E240
S11318C00E94D308833659F04FE766E081E20E9414
S11318D0D308833621F089E08093770480E008956B
S11318E0CF92DF92EF92FF920F931F93CF93DF93E8
S11318F06C018B017A01E90169E081E20E94B00880
S1131900982F9295969596959370913021F493E63D
S1131910F60190830FC0923021F49FE6F601908384
S113192009C0933021F494E7F601908303C098E74B
S1131930F6019083982F969596959370913021F4A3
S113194093E6F70190830FC0923021F49FE6F701EC
S1131950908309C0933021F494E7F701908303C086
S113196098E7F7019083982F92959F709370913028
S113197021F49FE6F80190830FC0923021F493E69E
S1131980F801908309C0933021F494E7F80190831F
S113199003C098E7F801908381FF03C080E3888344
S11319A002C081E38883DF91CF911F910F91FF9053
S11319B0EF90DF90CF900895CF93DF93D82FC62F69
S11319C069E084E20E94B0088D2B482F4C236AE022
S11319D084E20E94D308DF91CF910895CF93DF93DF
S11319E0CDB7DEB76A97CDBFDEBF99E0E0EFF9E887
S11319F0DE01119601900D929A95E1F724E3829FFE
S1131A00C0011124FC01E95FF74D81818C3631F16D
S1131A1018F4823639F06AC08237C1F1833709F489
S1131A204DC064C06AEE84E40E94DC0C66EE88E873
S1131A300E94DC0C86EB99E89F938F93CE0101966C
S1131A409F938F9309969F938F930E94A2230F9045
S1131A500F900F900F900F900F9059C06AEE84E48E
S1131A600E94DC0C8BEB99E89F938F93CE01019637
S1131A709F938F9309969F938F930E94A2230F9015
S1131A800F900F900F900F900F9041C066EE88E872
S1131A900E94DC0C80EC99E89F938F93CE01019611
S1131AA09F938F9309969F938F930E94A2230F90E5
S1131AB00F900F900F900F900F9029C06CEE82E260
S1131AC00E94DC0C86EC99E89F938F93CE010196DB
S1131AD09F938F9309969F938F930E94A2230F90B5
S1131AE00F900F900F900F900F9011C06EEC79E84B
S1131AF085EF91E00E9477068CE0E4EEF9E8DE01E0
S1131B001A9601900D928A95E1F783E60BC081E065
S1131B100E94150C41E0BE01665F7F4F81E00E9488
S1131B20B80B80E06A96CDBFDEBFDF91CF910895F8
S1131B30CF93DF93CDB7DEB76997CDBFDEBF98E013
S1131B40E9E1FAE8DE01119601900D929A95E1F728
S1131B5024E3829FC0011124FC01E95FF74D8181D8
S1131B608C3631F118F4823639F06AC08237C1F10B
S1131B70833709F44DC064C06EEA84E40E94DC0C2F
S1131B806EE688E80E94DC0C86EB99E89F938F93BD
S1131B90CE0101969F938F9308969F938F930E94F3
S1131BA0A2230F900F900F900F900F900F9059C099
S1131BB06EEA84E40E94DC0C8BEB99E89F938F938C
S1131BC0CE0101969F938F9308969F938F930E94C3
S1131BD0A2230F900F900F900F900F900F9041C081
S1131BE06EE688E80E94DC0C80EC99E89F938F9362
S1131BF0CE0101969F938F9308969F938F930E9493
S1131C00A2230F900F900F900F900F900F9029C068
S1131C106EEC82E20E94DC0C86EC99E89F938F9331
S1131C20CE0101969F938F9308969F938F930E9462
S1131C30A2230F900F900F900F900F900F9011C050
S1131C4069EF79E885EF91E00E9477068BE0EEE09A
S1131C50FAE8DE01199601900D928A95E1F783E680
S1131C600BC081E00E94150C41E0BE01675F7F4F0D
S1131C7081E00E94B80B80E06996CDBFDEBFDF91A2
S1131C80CF9108951F920F920FB60F9211242F93A4
S1131C903F934F935F936F937F938F939F93AF93F0
S1131CA0BF93EF93FF938091690488234CF480E8F9
S1131CB08093690468E081E20E94B0088093132A4B
S1131CC0FF91EF91BF91AF919F918F917F916F9110
S1131CD05F914F913F912F910F900FBE0F901F90E6
S1131CE01895E0E0F4E088E0808B818B828B838B15
S1131CF0848B858B868B878BE0E2F4E0808B818BF1
S1131D00828B838B848B858BE0E4F4E0808B818BE6
S1131D10828B838B848B858B868B878BE0E6F4E0C8
S1131D2094E0908B918B928B938B948B958B968B69
S1131D30978BE0E8F4E0808B818B828B838BE0EAE5
S1131D40F4E0808B818B828B838B848B858B868B59
S1131D5008952F923F924F925F926F927F928F924B
S1131D609F92AF92BF92CF92DF92EF92FF920F9326
S1131D701F93CF93DF93CDB7DEB7CF5DD240CDBFF6
S1131D80DEBF95E4EFE7FAE8DE01A65BBE4F019003
S1131D900D929A95E1F79FE2E4ECFAE8DE01A1578F
S1131DA0BE4F01900D929A95E1F79DE1E3EFFAE8B9
S1131DB0DE01A254BE4F01900D929A95E1F79CE189
S1131DC0E0E1FBE8DE01A552BE4F01900D929A9529
S1131DD0E1F792E1ECE2FBE8DE01A950BE4F01908D
S1131DE00D929A95E1F79DE2EEE3FBE8DE01A75F31
S1131DF0BD4F01900D929A95E1F793E1EBE6FBE874
S1131E00DE01AA5CBD4F01900D929A95E1F793E132
S1131E10EEE7FBE8DE01A75BBD4F01900D929A95BA
S1131E20E1F799E1E1E9FBE8DE01A45ABD4F019035
S1131E300D929A95E1F795E2EAEAFBE8DE01AB58E8
S1131E40BD4F01900D929A95E1F79DE0EFECFBE810
S1131E50DE01A656BD4F01900D929A95E1F79DE0E3
S1131E60ECEDFBE8DE01A955BD4F01900D929A956A
S1131E70E1F7082F10E084E3809FF001819FF00DCB
S1131E801124E95FF74DE1818E2F90E0FC01E154CC
S1131E90F109E633F10508F0CDC4ED58FF4F0C9479
S1131EA0A321CE01865F9E4F0E949B0584E3809F01
S1131EB0F001819FF00D1124E95FF74DF1800F2EA1
S1131EC0FFE3EF2EF02DEF0CAE014C535D4F68E1B4
S1131ED08E2D0E940D15833661F480E090E8A6E211
S1131EE0B4ECCC53DD4F88839983AA83BB83C45C51
S1131EF0D240AE0140545D4F62E58E2D0E940D1517
S1131F00833661F480E090E8A6E2B4ECC054DD4F7F
S1131F1088839983AA83BB83C05CD24024E3209F37
S1131F20C001219F900D11248E5C974D9F938F9338
S1131F30CD53DD4F8881C35CD2408F93CE53DD4FA8
S1131F408881C25CD2408F93CF53DD4F8881C15CBE
S1131F50D2408F93C054DD4F8881C05CD2408F93B0
S1131F60C953DD4F8881C75CD2408F93CA53DD4F7C
S1131F708881C65CD2408F93CB53DD4F8881C55C8A
S1131F80D2408F93CC53DD4F8881C45CD2408F9371
S1131F901F92FF92CE01865F9E4F9F938F938C5426
S1131FA09F4F9F938F938E010F5F1F4F1F930F932C
S1131FB00E94A223C8010E948803CDBFDEBF80E037
S1131FC040C4CE01865F9E4F0E949B0584E3809FA0
S1131FD0F001819FF00D1124E95FF74D81810F2EEF
S1131FE0FFE17F2EF02D780EAE014C545D4F60E181
S1131FF0872D0E945D14833661F48FEF9FEFAFEF5E
S1132000BFE7CC54DD4F88839983AA83BB83C45B29
S1132010D240CC54DD4F688179818A819B81C45B35
S1132020D2402CE031E040E050E00E948421F22EC6
S1132030E32ED42EC52EAE0148545D4F62E1872DA8
S11320400E945D14833661F48FEF9FEFAFEFBFE71B
S1132050C854DD4F88839983AA83BB83C85BD2406D
S1132060C854DD4F688179818A819B81C85BD240E5
S11320702CE031E040E050E00E948421B22EA32EF7
S1132080942E852EAE0144545D4F61E3872D0E944A
S11320908B15833661F48FEF9FEFAFEFBFE7C45426
S11320A0DD4F88839983AA83BB83CC5BD240C4541D
S11320B0DD4F88819981AA81BB81CC5BD240CD015F
S11320C0AA27BB279C01220F331F880F991F880F53
S11320D0991F880F991F820F931F44E3409F90011B
S11320E0419F300D1124A9014E5C574DF901E95F60
S11320F0F74D21815F934F939F938F938F929F927C
S1132100AF92BF92CF92DF92EF92FF921F922F93E2
S1132110CE01865F9E4F9F938F938B579F4F9F93C4
S11321208F938E010F5F1F4F1F930F930E94A22363
S1132130C8010E948803CDBFDEBF80E082C380E077
S11321400E943218C054DD4F688379838A839B834D
S1132150C05CD24080E00E946307D62EC72EB82E02
S1132160A92E81E00E943218CC52DD4F6883C45DF1
S1132170D240CB52DD4F7883C55DD240CA52DD4F89
S11321808883C65DD240C952DD4F9883C75DD24073
S113219081E00E946307C852DD4F6883C85DD24066
S11321A0C752DD4F7883C95DD240C652DD4F888364
S11321B0CA5DD240C552DD4F9883CB5DD24082E0E8
S11321C00E943218C452DD4F6883CC5DD240C352A2
S11321D0DD4F7883CD5DD240982E892E82E00E9417
S11321E06307762E672E582E492E83E00E943218FC
S11321F0C252DD4F6883CE5DD240C152DD4F788339
S1132200CF5DD240382E292E7E0196EFE91A9EEF3B
S1132210F90AC7010E949B0524E3209FC001219F66
S1132220900D11248E5C974D9F938F932F923F9224
S1132230C152DD4F8881CF5DD2408F93C252DD4FB2
S11322409881CE5DD2409F934F925F926F927F921E
S11322508F929F92C352DD4F8881CD5DD2408F9380
S1132260C452DD4F9881CC5DD2409F93C552DD4F5F
S11322708881CB5DD2408F93C652DD4F9881CA5D71
S1132280D2409F93C752DD4F8881C95DD2408F935E
S1132290C852DD4F9881C85DD2409F93C952DD4F2B
S11322A08881C75DD2408F93CA52DD4F9881C65D45
S11322B0D2409F93CB52DD4F8881C55DD2408F932E
S11322C0CC52DD4F9881C45DD2409F93AF92BF92B0
S11322D0CF92DF92CD53DD4F8881C35CD2408F9380
S11322E0CE53DD4F8881C25CD2408F93CF53DD4FF4
S11322F08881C15CD2408F93C054DD4F8881C05C1B
S1132300D2408F93FF92EF92CE01865B9E4F9F93B4
S11323108F938E010F5F1F4F1F930F930E94A22371
S1132320CDBFDEBFC8010E94880341E061E27AE8C4
S113233081E00E94B80BC054DD4FF880C05CD240ED
S1132340CF53DD4FE880C15CD240CE53DD4F98803F
S1132350C25CD240CD53DD4F8880C35CD24026E6B8
S113236036E646EE5FE36F2D7E2D892D982D0E9473
S1132370861DAF92BF92CF92DF9220E030E040E022
S113238052E40E94EC1B9F938F937F936F938F92E1
S11323909F92EF92FF9281E39AE89F938F931F930A
S11323A00F930E94A22342E0B80181E00E94B80B7F
S11323B0CDBFDEBF80E045C2AE0140535D4FBE01DC
S11323C064537D4FCE0188539D4F0E94A6097E0120
S11323D096EFE91A9EEFF90AC7010E949B0524E3D0
S11323E0209FC001219F900D11248E5C974D9F93D7
S11323F08F93CD52DD4F8881C35DD2408F93CE52EF
S1132400DD4F8881C25DD2408F93CF52DD4F8881EA
S1132410C15DD2408F93C053DD4F8881C05DD240EF
S11324208F93C153DD4F8881CF5CD2408F93C253C9
S1132430DD4F8881CE5CD2408F93C353DD4F8881BA
S1132440CD5CD2408F93C453DD4F8881CC5CD240A5
S11324508F93C553DD4F8881CB5CD2408F93C65395
S1132460DD4F8881CA5CD2408F93C753DD4F88818A
S1132470C95CD2408F93C853DD4F8881C85CD24079
S11324808F93FF92EF92CE0185529E4F9F938F932D
S11324908E010F5F1F4F1F930F930E94A223C80149
S11324A00E94880341E067E47AE881E00E94B80B67
S11324B0CD52DD4F8881C35DD2408F93CE52DD4F24
S11324C08881C25DD2408F93CF52DD4F8881C15D38
S11324D0D2408F93C053DD4F8881C05DD2408F932B
S11324E0C153DD4F8881CF5CD2408F93C253DD4FFF
S11324F08881CE5CD2408F93C353DD4F8881CD5CFD
S1132500D2408F93C453DD4F8881CC5CD2408F93EB
S1132510C553DD4F8881CB5CD2408F93C653DD4FCA
S11325208881CA5CD2408F93C753DD4F8881C95CD0
S1132530D2408F93C853DD4F8881C85CD2408F93BB
S1132540CE0189509E4F9F938F931F930F930E94A8
S1132550A223CDBFDEBF42E0B80181E00E94B80BE8
S113256080E06FC17E0196EFE91A9EEFF90AC70178
S11325700E949B059E01275B3E4FAE01485B5E4F68
S1132580BE01695B7E4FCE018A5B9E4F0E94700C38
S113259024E3209FC001219F900D11248E5C974D50
S11325A09F938F93C75BDE4F8881C954D1401F929C
S11325B08F93C85BDE4F8881C854D1401F928F939C
S11325C0C95BDE4F8881C754D1401F928F93CA5B89
S11325D0DE4F8881C654D1401F928F93FF92EF92B1
S11325E0CE01875F9D4F9F938F938E010F5F1F4F87
S11325F01F930F930E94A223C8010E948803C85B03
S1132600DE4F8881C854D1401F928F93C95BDE4F3F
S11326108881C754D1401F928F93CE018A5C9D4F0D
S11326209F938F931F930F930E94A22341E0B801BD
S113263081E00E94B80BC75BDE4F8881C954D1404A
S11326401F928F93CA5BDE4F8881C654D1401F927C
S11326508F93CE01875B9D4F9F938F931F930F930F
S11326600E94A223CDBFDEBF42E0B80181E00E94F8
S1132670B80B80E0E6C07E0196EFE91A9EEFF90AF6
S1132680C7010E949B056E0182EEC81A8EEFD80A1C
S1132690C6010E9401075E019EECA91A9EEFB90AC9
S11326A0C5010E942D0624E3209FC001219F900DA7
S11326B011248E5C974D9F938F93BF92AF92DF92BC
S11326C0CF92FF92EF92CE01845A9D4F9F938F93A6
S11326D08E010F5F1F4F1F930F930E94A223C80107
S11326E00E94880341E063E57AE881E00E94B80B28
S11326F0B701655F7F4F42E081E00E94B80BCDBF18
S1132700DEBF80E09EC081E00E942E08D62EC72E38
S1132710B82EA92E82E00E942E08962E872E782E9F
S1132720692E7E0196EFE91A9EEFF90AC7010E940D
S11327309B0524E3209FC001219F900D11248E5CF2
S1132740974D9F938F936F927F928F929F92AF92A8
S1132750BF92CF92DF92FF92EF92CE018B589D4FA2
S11327609F938F938E010F5F1F4F1F930F930E94B0
S1132770A223C8010E94880341E068E57AE881E069
S11327800E94B80B6F927F928F929F92AF92BF92EA
S1132790CF92DF92CE0186569D4F9F938F931F93C6
S11327A00F930E94A22342E0B80181E00E94B80B7B
S11327B0CDBFDEBF80E045C06E019FEFC90ED11CC6
S11327C0C6010E9434067E0186EFE81A8EEFF80AED
S11327D0C7010E949B0524E3209FC001219F900D07
S11327E011248E5C974D9F938F93DF92CF92FF922B
S11327F0EF92CE0189559D4F9F938F938E010F5F6A
S11328001F4F1F930F930E94A223C8010E948803A5
S113281041E063E679E881E00E94B80BC8010E94B8
S1132820340642E0B80181E00E94B80BCDBFDEBFA0
S113283080E007C068E67AE88AEC90E00E947706B8
S113284083E6C152DD4FCDBFDEBFDF91CF911F9133
S11328500F91FF90EF90DF90CF90BF90AF909F903B
S11328608F907F906F905F904F903F902F9008953E
S1132870DC0140E050E080E090E01BC0FD01E40F8B
S1132880F51F208130E0322F22278227932720E072
S11328900CC099233CF4880F991F31E2832730E15F
S11328A0932702C0880F991F2F5F283090F34F5F42
S11328B05F4F4617570710F30895EF92FF920F9357
S11328C01F93CF93DF93CDB7DEB72797CDBFDEBF7E
S11328D08A0197E09093172B1092192B10921A2BC0
S11328E089836A8342E0BE016F5F7F4F81E00E946B
S11328F0B81981E090E00E94991811C000008091FD
S1132900152A9091162AC39750F00E94AF1869EEC9
S11329107BE880E391E00E94770683E674C08091AF
S11329201A2B882359F30E94AF18E7E1FAE2E580F5
S1132930F12CFE2CEE248681E82A22E00EC0822FA0
S113294090E0FC01EB5EF54D3081E1E0F0E0EC0F4E
S1132950FD1FE80FF91F30832F5F273080F367E0F6
S113296070E0CE0101960E943814E816F90671F061
S1132970D8011D921D921D921C92139762E07CE86F
S113298081E391E00E94770683E63DC027E13AE2C5
S1132990F901808190E0A0E0B0E0782F6627552708
S11329A04427D8014D935D936D937C931397918144
S11329B0892F90E0A0E0B0E0DC0199278827842BE0
S11329C0952BA62BB72BF80180839183A283B38325
S11329D0F901428150E060E070E0762F652F542FBA
S11329E04427842B952BA62BB72BF8018083918346
S11329F0A283B383F9012381822BF801808391831D
S1132A00A283B38380E02796CDBFDEBFDF91CF9151
S1132A101F910F91FF90EF900895AF92BF92CF92C4
S1132A20DF92EF92FF920F931F93CF93DF9300D027
S1132A3000D0CDB7DEB7A82EB62E7A0184E08093FD
S1132A40172B1092192B10921A2BA9826A8342E039
S1132A50BE016F5F7F4F81E00E94B81981E090E072
S1132A600E94991880911A2B813081F08091152A47
S1132A709091162AC397B0F30E94AF1867E17CE8DF
S1132A8080E391E00E94770683E637C00E94AF1886
S1132A90E7E1FAE29081C92ED12CDC2CCC2481818F
S1132AA0C82A028110E0102F00272381022BA9825B
S1132AB0BA829B838C8364E070E0CE0101960E940D
S1132AC038140817190741F069E27CE881E391E0C2
S1132AD00E94770683E611C0B60180E090E00E9470
S1132AE0CF1C20E030E040E251E40E945D1CF7017D
S1132AF0608371838283938380E02496CDBFDEBF9D
S1132B00DF91CF911F910F91FF90EF90DF90CF90C5
S1132B10BF90AF900895EF92FF920F931F93CF93BE
S1132B20DF93CDB7DEB72697CDBFDEBF8A0196E02F
S1132B309093172B1092192B10921A2B89836A8366
S1132B4042E0BE016F5F7F4F81E00E94B81981E0CF
S1132B5090E00E94991880911A2B813061F40E94B0
S1132B60AF18E7E1FAE2E480F12CFE2CEE24858133
S1132B70E82A22E01EC08091152A9091162AC39754
S1132B8050F30E94AF186CE37CE88FE291E00E945E
S1132B90770683E654C0822F90E0FC01EB5EF54D8E
S1132BA03081E1E0F0E0EC0FFD1FE80FF91F308306
S1132BB02F5F263080F366E070E0CE0101960E941C
S1132BC03814E816F90689F063E57CE881E391E0BE
S1132BD00E9477068FEF9FEFAFEFBFE7F801808386
S1132BE09183A283B38383E62AC0E7E1FAE280817A
S1132BF090E0A0E0B0E0782F662755274427918124
S1132C00892F90E0A0E0B0E0DC0199278827842B8D
S1132C10952BA62BB72B428150E060E070E0762F15
S1132C20652F542F4427842B952BA62BB72B238158
S1132C30822BF80180839183A283B38380E026965C
S1132C40CDBFDEBFDF91CF911F910F91FF90EF9029
S1132C500895CF93DF93CDB7DEB76597CDBFDEBFC1
S1132C601092172A91E09093172B1092192B10921F
S1132C701A2B898381E48A831B821C8280E28D83E0
S1132C801E821F82188690E499871A861B861C86EA
S1132C908D871E867F87688B598B4A8B1B8A63E1DD
S1132CA070E0CE0101960E9438149C8B8D8B45E117
S1132CB0BE016F5F7F4F81E00E94B81981E090E010
S1132CC00E94991880911A2B813041F40E94AF1808
S1132CD08091172A8F3F91F480E017C08091152AC4
S1132CE09091162AC39770F30E94AF186CE67CE8A3
S1132CF08FE291E00E94770683E607C067E87CE8EC
S1132D008FE291E00E94770683E66596CDBFDEBF31
S1132D10DF91CF910895CF92DF92EF92FF921F93AC
S1132D20CF93DF9300D000D0CDB7DEB7E82EF12CDF
S1132D3084E38E9DF0018F9DF00D1124E95FF74D22
S1132D4081818134D0F0843428F09FE9980F933046
S1132D5040F013C01FE3180F19821A821B821C82D1
S1132D6014C01FE1180FAE014F5F5F4F60E1812F68
S1132D700E945D14833649F439C06EE97CE88DE223
S1132D8091E00E94770683E632C084E38E9DF001D1
S1132D908F9DF00D1124E95FF74D8281811108C0E8
S1132DA067EB7CE883E391E00E94770683E61FC02B
S1132DB024E32E9DC0012F9D900D1124875F974D14
S1132DC00E942A229B01AC01ACE0B1E00E94A9213F
S1132DD0C980DA80EB80FC80AB01BC014C0D5D1D29
S1132DE06E1D7F1D812F0E94291601C083E6249643
S1132DF0CDBFDEBFDF91CF911F91FF90EF90DF90A9
S1132E00CF900895CF93DF93CDB7DEB72697CDBF8C
S1132E10DEBF1092172A91E09093172B1092192B72
S1132E2010921A2B898386E18A837B836C835D836A
S1132E304E8346E0BE016F5F7F4F81E00E94B81968
S1132E4081E090E00E94991880911A2B813041F41E
S1132E500E94AF188091172A8F3F61F083E60BC060
S1132E608091152A9091162AC39770F30E94AF1887
S1132E7083E601C080E02696CDBFDEBFDF91CF910F
S1132E8008950F931F93CF93DF931092142AD0E0E9
S1132E90C0E81FC048E057E160E070E08C2F0E945A
S1132EA002178336A9F40C2F10E000581109F80119
S1132EB0E050F84D808181110AC06BED7CE882E31B
S1132EC091E00E947706F801E050F84D1082DF5F30
S1132ED0CF5FC338F8F2DD2311F083E601C080E050
S1132EE0DF91CF911F910F910895AC01E0E6F0E0DE
S1132EF0948D9E7F88ED84BF948F01C000009091D3
S1132F00630096FDFBCFE0E6F0E0948D9B7F28ED17
S1132F1024BF948F948D916024BF948F01C00000CE
S1132F20909141019111FBCFE0E4F1E04287538796
S1132F3082E0878385818160858381EB80838281C0
S1132F408160828308951F920F920FB60F9211240D
S1132F502F933F934F935F936F937F938F939F939D
S1132F60AF93BF93EF93FF9381E0809343018091EC
S1132F700F2A9091102A0097B9F02091112A3091CC
S1132F80122A2817390758F480E00E94150C81E0B2
S1132F900E94150C10920F2A1092102A05C0019657
S1132FA080930F2A9093102A80E28093A704809143
S1132FB0142A8F5F8093142AFF91EF91BF91AF91F0
S1132FC09F918F917F916F915F914F913F912F913D
S1132FD00F900FBE0F901F901895CF93DF9390E042
S1132FE024E3289FF001299FF00D1124E95FF74D98
S1132FF02181243729F524E3289FE001299FD00D5E
S11330001124C75FD74DFE0101900020E9F73197E5
S1133010EC1BFD0B739741F067EE7CE88AE592E0C8
S11330200E94770683E613C0CE010E94070624E1BE
S1133030AE0160E070E080E50E94310780E007C0E7
S11330406CEF7CE889E592E00E94770683E6DF91E5
S1133050CF910895E0EAF4E08289877F828B84E04F
S113306082830895CF93DF9300D000D0CDB7DEB72D
S1133070833018F0833039F00BC0BE016F5F7F4F8F
S11330800E9449010DC0CE0101960E94010908C0A9
S113309080E090E8A6E2B4EC89839A83AB83BC8396
S11330A069817A818B819C812496CDBFDEBFDF91BB
S11330B0CF9108950F931F93CF93DF93CDB7DEB7CE
S11330C0E297CDBFDEBF81E090E00E9499188DE8C1
S11330D090E20197F1F700000E94AF188091152A41
S11330E09091162A9F938F9386E09DE89F938F93E8
S11330F08E010F5F1F4F1F930F930E94A223F801AD
S113310001900020E9F73197AF01401B510BB80142
S113311080E00E94B8190F900F900F900F900F90BD
S11331200F90E296CDBFDEBFDF91CF911F910F913B
S113313008951092152A1092162A25E03DE0AC015C
S1133140429FC001439F900D529F900D1124E0E8CF
S1133150FAE08487958781E08583808308951092BF
S1133160800A08951F920F920FB60F9211248F9325
S11331709F9381E08093860A8091152A9091162A64
S113318001968093152A9093162A9F918F910F9000
S11331900FBE0F901F901895E0EAF8E08BE086834D
S11331A0838181608383858181608583089501C0E3
S11331B000008091A5088823DCF7E0EAF8E0848128
S11331C08B7F84838085948192609483089501C069
S11331D000008091A5088823DCF7E0EAF8E0848108
S11331E08460848380850895613039F490E0880F89
S11331F0991F81608093A70803C0880F8093A70854
S113320081E090E00E9499180BC08091152A90915A
S1133210162A0B9720F00E94AF1883E60895000049
S11332208091A508807C89F30E94AF188091A5083D
S113323082FF08C063E17DE881E991E00E9477069E
S113324083E608958091A50883FF08C06BE17DE8BB
S113325081E991E00E94770683E608959091A5089C
S1133260892F807194FD83E6089587E08093A408F4
S1133270089501C000009091A50896FFFBCF8093AC
S1133280A80881E090E00E9499180BC0000080918A
S1133290152A9091162AC39720F00E94AF1883E64E
S11332A008958091A50886FFF1CF0E94AF189091F0
S11332B0A508892F807194FD83E60895E0E0F4E089
S11332C081E085838183E0E0F8E024E730E0208733
S11332D031879581906895839681906496839681D1
S11332E09068968310921D2D10921E2D8093222D8E
S11332F01092192C10921A2C10921B2B10921C2C29
S113330010921E2CE0E4F4E085838183E0E2F8E08F
S11333102BE531E0208731879581906895839681EC
S113332090649683968190689683109229301092C7
S11333302A3080932E301092152B1092162B109257
S1133340172A10921A2BE0E2F4E085838183E0E6E9
S1133350F8E02DE635E020873187968190649683E6
S113336096819068968380932A2F1092262E089532
S11333700F931F93CF93DF93EB01142F8130D1F17F
S113338020F0833009F485C08CC01092222D20E0F7
S113339011C0EDE1FDE2808190E03881DC01A15EA5
S11333A0B34D3C9301966EEF70E00E9470218083D0
S11333B02F5F2196211768F3E0E0F8E085818062B1
S11333C085838AE090E00E9499180DC08091152AA7
S11333D09091162A8536910530F00E94AF1881E04D
S11333E08093222D5EC08091222D882379F30E9440
S11333F0AF1857C0642F70E0CE010E943814482FD4
S1133400092F20E011C0E9E2F0E3808190E03881E7
S1133410DC01A55DB04D3C9301966EEF70E00E9417
S1133420702180832F5F2196211768F3E9E2F0E38E
S1133430808190E0DC01A55DB04D0C9301962EEFE8
S113344030E0B9010E94702190E0DC01A55DB04D2F
S11334504C930196B9010E94702180831E5F1093E2
S11334602B30E0E2F8E08581806285831AC0E5E2D2
S1133470FFE2808190E03881DC01A95DB14D3C938D
S113348001966EEF70E00E94702180832F5F219679
S113349001C020E0211758F3E0E6F8E0858180625E
S11334A08583DF91CF911F910F9108951F920F9201
S11334B00FB60F9211245F936F937F938F939F9313
S11334C0AF93BF93EF93FF939091000880911C2CCE
S11334D08E3F10F59D3051F481E080931E2CE091D5
S11334E0192CF0E0E55EF44D108206C0E091192C31
S11334F0F0E0E55EF44D9083ECE1FCE280818F5FC7
S11335008083E9E1FCE2808190E001966EEF70E057
S11335100E94702180830AC01092192C10921A2CD8
S113352010921B2B10921C2C10921E2CFF91EF91C9
S1133530BF91AF919F918F917F916F915F910F9008
S11335400FBE0F901F9018951F920F920FB60F92F7
S113355011242F938F939F93EF93FF93E0E0F8E070
S113356085818F7D858380911D2DE0911E2D8E1781
S1133570D1F081E08E0F80931E2DF0E0E15EF34DDB
S113358090819093020891E08E3F08F490E0919529
S1133590292F220F821B80931E2DE0E0F8E0858105
S11335A08062858303C081E08093222DFF91EF9197
S11335B09F918F912F910F900FBE0F901F90189590
S11335C01F920F920FB60F9211242F938F939F93F4
S11335D0EF93FF9390912008E091192B8091172B82
S11335E0E81740F421E02E0F2093192BF0E0E95E58
S11335F0F54D90839091192B981718F081E08093E2
S11336001A2BFF91EF919F918F912F910F900FBEE5
S11336100F901F9018951F920F920FB60F921124BE
S11336202F938F939F93EF93FF93E0E2F8E08581CC
S11336308F7D858380912930E0912A308E17D1F0D7
S113364081E08E0F80932A30F0E0E55DF04D9081AB
S11336509093220891E08E3F08F490E09195292FF1
S1133660220F821B80932A30E0E2F8E08581806299
S1133670858303C081E080932E30FF91EF919F9169
S11336808F912F910F900FBE0F901F9018951F923E
S11336900F920FB60F9211248F939F93AF93BF9302
S11336A0EF93FF93809160088D3021F0E091252EF7
S11336B0ED3F78F081E08093262EA5E2BEE28C9166
S11336C0E82FF0E0ED5DF24D10828093232E1C92E2
S11336D008C091E09E0F9093252EF0E0ED5DF24D31
S11336E08083FF91EF91BF91AF919F918F910F9044
S11336F00FBE0F901F9018951F920F920FB60F9246
S113370011248F939F93AF93BF93EF93FF93A9E2F9
S1133710BFE2EC9181E08E0F8C93F0E0E95DF14D16
S11337209081909362089091272F891740F0E0E6EA
S1133730F8E085818F7D858381E080932A2FFF9136
S1133740EF91BF91AF919F918F910F900FBE0F900A
S11337501F9018950E945E190E94DF1B88ED84BF9C
S113376081E08093000108951F920F920FB60F928B
S113377011242F933F934F935F936F937F938F9372
S11337809F93AF93BF93EF93FF938091A90486FF18
S113379005C080E48093A9040E94AA1BFF91EF91C5
S11337A0BF91AF919F918F917F916F915F914F9155
S11337B03F912F910F900FBE0F901F901895E0E44A
S11337C0F4E088E086838183ADE8B0E21197F1F7F5
S11337D00000858308955058BB27AA270E94031C24
S11337E00C94471D0E94391D38F00E94401D20F0A2
S11337F039F49F3F19F426F40C94361D0EF4E09529
S1133800E7FB0C94301DE92F0E94581D58F3BA179A
S1133810620773078407950720F079F4A6F50C94E2
S11338207A1D0EF4E0950B2EBA2FA02D0B01B901D1
S113383090010C01CA01A0011124FF27591B99F022
S1133840593F50F4503E68F11A16F040A22F232F2E
S1133850342F4427585FF3CF469537952795A7957E
S1133860F0405395C9F77EF41F16BA0B620B730B25
S1133870840BBAF09150A1F0FF0FBB1F661F771F96
S1133880881FC2F70EC0BA0F621F731F841F48F44B
S1133890879577956795B795F7959E3F08F0B0CFD4
S11338A09395880F08F09927EE0F979587950895BB
S11338B00E940C1D08F481E008950E94711C0C9470
S11338C0471D0E94401D58F00E94391D40F029F404
S11338D05F3F29F00C94301D51110C947B1D0C9406
S11338E0361D0E94581D68F39923B1F3552391F3B3
S11338F0951B550BBB27AA2762177307840738F05B
S11339009F5F5F4F220F331F441FAA1FA9F335D0B7
S11339100E2E3AF0E0E832D091505040E695001C6B
S1133920CAF72BD0FE2F29D0660F771F881FBB1F25
S1133930261737074807AB07B0E809F0BB0B802D03
S1133940BF01FF2793585F4F3AF09E3F510578F02F
S11339500C94301D0C947B1D5F3FE4F3983ED4F32C
S1133960869577956795B795F7959F5FC9F7880F03
S1133970911D9695879597F90895E1E0660F771F55
S1133980881FBB1F621773078407BA0720F0621BE6
S1133990730B840BBA0BEE1F88F7E0950895E89437
S11339A009C097FB3EF490958095709561957F4F83
S11339B08F4F9F4F9923A9F0F92F96E9BB27939531
S11339C0F695879577956795B795F111F8CFFAF441
S11339D0BB0F11F460FF1BC06F5F7F4F8F4F9F4F72
S11339E016C0882311F096E911C0772321F09EE8D0
S11339F0872F762F05C0662371F096E8862F70E036
S1133A0060E02AF09A95660F771F881FDAF7880F0F
S1133A109695879597F90895990F0008550FAA0B65
S1133A20E0E8FEEF16161706E807F907C0F01216CD
S1133A301306E407F50798F0621B730B840B950BD0
S1133A4039F40A2661F0232B242B252B21F4089525
S1133A500A2609F4A140A6958FEF811D811D0895C2
S1133A6097F99F6780E870E060E008959FEF80EC2D
S1133A70089500240A9416161706180609060895D0
S1133A8000240A9412161306140605060895092E36
S1133A900394000C11F4882352F0BB0F40F4BF2BA5
S1133AA011F460FF04C06F5F7F4F8F4F9F4F0895E5
S1133AB057FD9058440F551F59F05F3F71F04795DB
S1133AC0880F97FB991F61F09F3F79F087950895C0
S1133AD0121613061406551FF2CF4695F1DF08C0DF
S1133AE0161617061806991FF1CF869571056105FC
S1133AF008940895E894BB2766277727CB0197F9A4
S1133B0008950E940C1D08F48FEF08950E94991DDA
S1133B100C94471D0E94391D38F00E94401D20F06E
S1133B20952311F00C94301D0C94361D11240C9423
S1133B307B1D0E94581D70F3959FC1F3950F50E0B3
S1133B40551F629FF001729FBB27F00DB11D639F4B
S1133B50AA27F00DB11DAA1F649F6627B00DA11DF1
S1133B60661F829F2227B00DA11D621F739FB00D97
S1133B70A11D621F839FA00D611D221F749F332707
S1133B80A00D611D231F849F600D211D822F762FA0
S1133B906A2F11249F5750409AF0F1F088234AF07D
S1133BA0EE0FFF1FBB1F661F771F881F91505040E9
S1133BB0A9F79E3F510580F00C94301D0C947B1D99
S1133BC05F3FE4F3983ED4F3869577956795B79570
S1133BD0F795E7959F5FC1F7FE2B880F911D96958A
S1133BE0879597F90895A0E1B0E0E9EFFDE10C9421
S1133BF0B4217C011B016A01FC01168217828381B6
S1133C0081FF44C39E012F5F3F4F3901F701938128
S1133C10F10193FD859193FF81911F01882309F49C
S1133C2031C3853239F493FD859193FF81911F014E
S1133C30853239F4B70190E00E946623560165018C
S1133C40E5CF10E0512C912CFFE1F915D8F08B321F
S1133C5079F038F4803279F08332A1F4F92DF061EF
S1133C602EC08D3261F0803369F4292D21602DC07E
S1133C70392D3260932E892D8460982E2AC0E92D27
S1133C80E86015C097FC2DC020ED280F2A3088F479
S1133C9096FE06C03AE0139F200D1124122F19C07E
S1133CA08AE0589E200D1124522EE92DE0629E2EAA
S1133CB010C08E3231F496FCE5C2F92DF0649F2ECB
S1133CC008C08C3621F4292D2068922E02C0883633
S1133CD041F4F10193FD859193FF81911F018111BD
S1133CE0B3CF9BEB980F933020F4992D9061805EB5
S1133CF007C09BE9980F933008F066C1992D9F7E09
S1133D0096FF16E09F73992E853619F49064992EC8
S1133D1008C0863621F4392F3068932E02C0111161
S1133D20115097FE07C01C3350F444244394410EB1
S1133D3027E00BC0183038F027E017E005C027E073
S1133D409CE3492E02C0212F412C560184E0A80E89
S1133D50B11CF6016081718182819381042DA301DC
S1133D600E9451226C01F981FC87F0FF02C0F3FF2D
S1133D7006C091FC06C092FE06C000E205C00DE23A
S1133D8003C00BE201C000E08C858C7019F00111B6
S1133D905AC29BC297FE10C04C0CFC85F4FF04C0B1
S1133DA08A81813309F44A94141474F528E02415A3
S1133DB078F588E0482E2CC096FC2AC0812F90E02C
S1133DC08C159D059CF03CEFC3163FEFD30674F0B1
S1133DD0892D8068982E0AC0E2E0F0E0EC0FFD1F08
S1133DE0E10FF11D8081803319F411501111F4CFCA
S1133DF097FE0EC044244394410E812F90E0C816D0
S1133E00D9062CF41C1904C04424439401C010E0C6
S1133E1097FE06C01C141D0434F4C601019605C0A7
S1133E2085E090E002C081E090E001110196112349
S1133E3031F0212F30E02F5F3F4F820F931F252D4C
S1133E4030E08217930714F4581A01C0512C892DBD
S1133E50897049F4552039F0B70180E290E00E945E
S1133E6066235A94F7CF002329F0B701802F90E0FE
S1133E700E94662393FC09C0552039F0B70180E302
S1133E8090E00E9466235A94F7CF97FE4CC04601F7
S1133E90D7FE02C0812C912CC60188199909F3011F
S1133EA0E80FF91FED87FE879601241931092F8742
S1133EB0388B012F10E01195019511093FEF8316FE
S1133EC0930629F4B7018EE290E00E946623C81499
S1133ED0D9044CF08F8598898815990524F4ED85CB
S1133EE0FE85818101C080E3F1E08F1A91082D8560
S1133EF03E852F5F3F4F2D873E87801691062CF01D
S1133F00B70190E00E946623D9CFC814D90441F4C4
S1133F109A81963320F4953319F43C8534FF81E378
S1133F20B70190E04EC08A81813319F09C859F7E51
S1133F309C87B70190E00E946623111105C094FC90
S1133F4018C085E690E017C0B7018EE290E00E94A9
S1133F5066231E5F82E001E0080FF301E80FF11D04
S1133F608081B70190E00E946623802F0113F3CF74
S1133F70E6CF85E490E0B7010E946623D7FC06C033
S1133F80C114D10441F4EC85E4FF05C0D194C1947B
S1133F90D1088DE201C08BE2B70190E00E94662354
S1133FA080E32AE0C216D1042CF08F5FFAE0CF1A26
S1133FB0D108F7CFB70190E00E946623B701C6018C
S1133FC0C0960E94662354C1833631F0833779F05A
S1133FD0833509F056C020C0560132E0A30EB11C4F
S1133FE0F6018081898301E010E0630112C056016B
S1133FF0F2E0AF0EB11CF601C080D18096FE03C082
S1134000612F70E002C06FEF7FEFC6010E9446236C
S11340108C01F92DFF7714C0560122E0A20EB11CC9
S1134020F601C080D18096FE03C0612F70E002C00B
S11340306FEF7FEFC6010E9429238C01F92DF068F0
S11340409F2EF3FD1AC0852D90E008171907A8F4D8
S1134050B70180E290E00E9466235A94F4CFF601FF
S113406097FC859197FE81916F01B70190E00E94C2
S1134070662351105A94015011090115110579F75D
S1134080F7C0843611F0893661F5560197FE09C0F0
S113409024E0A20EB11CF6016081718182819381BA
S11340A00AC0F2E0AF0EB11CF60160817181072EE7
S11340B0000C880B990BF92DFF769F2E97FF09C0F2
S11340C090958095709561957F4F8F4F9F4FF068C5
S11340D09F2E2AE030E0A3010E94C423C82EC618F4
S11340E03FC0092D853721F40F7E2AE030E01DC042
S11340F0097F8F3691F018F4883559F0C3C08037A2
S113410019F0883711F0BEC0006104FF09C00460D3
S113411007C094FE08C0066006C028E030E005C071
S113412020E130E002C020E132E0560107FF09C07F
S113413084E0A80EB11CF6016081718182819381B3
S113414008C0F2E0AF0EB11CF6016081718180E01D
S113415090E0A3010E94C423C82EC6180F77902EA6
S113416096FE0BC0092D0E7FC11650F494FE0AC0B2
S113417092FC08C0092D0E7E05C0DC2C092D03C05D
S1134180DC2C01C0D12E04FF0DC0FE01EC0DF11D8D
S11341908081803311F4097E09C002FF06C0D394E4
S11341A0D39404C0802F867809F0D39403FD11C002
S11341B000FF06C01C2DD51480F4150D1D190DC06B
S11341C0D51458F4B70180E290E00E946623D3949A
S11341D0F7CFD51410F45D1801C0512C04FF10C0A2
S11341E0B70180E390E00E94662302FF17C001FD3F
S11341F003C088E790E002C088E590E0B7010CC0F6
S1134200802F867859F001FF02C08BE201C080E262
S113421007FD8DE2B70190E00E946623C11638F4D1
S1134220B70180E390E00E9466231150F7CFCA944F
S1134230F301EC0DF11D8081B70190E00E9466232B
S1134240C110F5CF15C0F4E0F51560F584E0581AF7
S113425093FE1FC0011127C02C8523FF2AC002E54D
S113426011E0392D3071932EF8018491811124C00D
S1134270552009F4E4CCB70180E290E00E94662363
S11342805A94F6CFF7018681978126C08FEF9FEF6E
S113429023C0B70180E290E00E9466235A94511033
S11342A0F8CFD8CF512CB701802F90E00E9466231D
S11342B0D3CF06E511E0D5CF91108052B70190E03D
S11342C00E9466230F5F1F4FCFCF23E0251510F404
S11342D083E0BDCF512CC0CF6096E2E10C94CD2198
S11342E097FB072E16F4009407D077FD09D00E949F
S11342F0E52107FC05D03EF4909581959F4F0895E4
S1134300709561957F4F0895052E97FB1EF40094D8
S11343100E949B2157FD07D00E94F92107FC03D07E
S11343204EF40C949B2150954095309521953F4F28
S11343304F4F5F4F089590958095709561957F4F8D
S11343408F4F9F4F0895EE0FFF1F0590F491E02DBE
S113435009940E941B22A59F900DB49F900DA49FC9
S1134360800D911D112408952F923F924F925F92D8
S11343706F927F928F929F92AF92BF92CF92DF9271
S1134380EF92FF920F931F93CF93DF93CDB7DEB7D6
S1134390CA1BDB0BCDBFDEBF09942A883988488845
S11343A05F846E847D848C849B84AA84B984C8844D
S11343B0DF80EE80FD800C811B81AA81B981CE0F44
S11343C0D11DCDBFDEBFED010895AA1BBB1B51E17A
S11343D007C0AA1FBB1FA617B70710F0A61BB70B71
S11343E0881F991F5A95A9F780959095BC01CD0116
S11343F00895A1E21A2EAA1BBB1BFD010DC0AA1F22
S1134400BB1FEE1FFF1FA217B307E407F50720F039
S1134410A21BB30BE40BF50B661F771F881F991FB4
S11344201A9469F760957095809590959B01AC01FD
S1134430BD01CF010895A29FB001B39FC001A39F06
S1134440700D811D1124911DB29F700D811D1124C9
S1134450911D08951F93FC0199278827BC01E894B6
S113446011911032E9F3193010F01E30C8F31B32E9
S113447051F01D3249F4689406C00E945123610F23
S1134480711D811D911D119110531A30B0F33EF42A
S113449090958095709561957F4F8F4F9F4F1F9199
S11344A00895283008F027E03327DA01990F311DE9
S11344B087FD916000966105710539F432602E5FC5
S11344C03D9330E32A95E1F708959F3F30F080381B
S11344D07105610509F03C5F3C5F3D93913008F044
S11344E08068911DDF93CF931F930F93FF92EF92F8
S11344F0192F987F9695E92F96959695E90FFF27A2
S1134500EC54FE4F99273327EE24FF24A701E7013B
S113451005900894079428F4360FE71EF81E491FE7
S1134520511D660F771F881F991F0694A1F70590E8
S1134530079428F4E70EF81E491F561FC11D770F74
S1134540881F991F661F0694A1F70590079428F405
S1134550F80E491F561FC71FD11D880F991F661FCC
S1134560771F0694A1F70590079420F4490F561F6E
S1134570C71FD81F990F661F771F881F0694A9F7B6
S113458084911095177041F0D695C7955795479526
S1134590F794E7941A95C1F7EAE5F1E06894159069
S11345A0159135916591959105907FE27395E11888
S11345B0F10A430B560BC90BD009C0F7E10CF11EED
S11345C0431F561FC91FD01D7EF4703311F48A9502
S11345D0E6CFE894015030F0080F0AF400270217E0
S11345E008F4202F2395022F7A3328F079E37D9362
S11345F02A95E9F710C07D932A9589F60694979534
S11346006795379517951794E118F10A430B560BE4
S1134610C90BD00998F023957E9173957A3308F0ED
S113462070E37C932013B8F77E9170617D9330F032
S1134630839571E37D9370E32A95E1F71124EF905C
S1134640FF900F911F91CF91DF91992787FD90954E
S11346500895FC010590615070400110D8F78095D1
S113466090958E0F9F1F0895FB01DC010D90002093
S1134670E9F7119701900D920020E1F70895FB01ED
S1134680DC0101900D920020E1F70895FC016150D6
S1134690704001900110D8F7809590958E0F9F1F60
S11346A00895592F482F372F262F660F771F881FFD
S11346B0991F660F771F881F991F620F731F841F2E
S11346C0951F660F771F881F991F08950F931F93D7
S11346D0CF93DF93FB01238121FD03C08FEF9FEF75
S11346E02CC022FF16C04681578124813581421790
S11346F0530744F4A081B1819D012F5F3F4F208374
S113470031838C93268137812F5F3F4F26833783F4
S113471014C08B01EC01FB010084F185E02D0995A7
S1134720892BE1F6D80116968D919C9117970196E5
S113473016968D939C931797CE01DF91CF911F917D
S11347400F910895AEE0B0E0E8EAF3E20C94C221E0
S11347500D891E8986E08C8309831A838FEF9FE776
S11347608D839E83AE01475E5F4F6F89788DCE0146
S113477001960E94F31DEF81F885E00FF11F10826E
S11347802E96E4E00C94DB21FA01AA27283051F19B
S1134790203181F1E8946F936E7F6E5F7F4F8F4F6E
S11347A09F4FAF4FB1E03ED0B4E03CD0670F781FCD
S11347B0891F9A1FA11D680F791F8A1F911DA11DB2
S11347C06A0F711D811D911DA11D20D009F46894EB
S11347D03F912AE0269F11243019305D3193DEF693
S11347E0CF010895462F4770405D4193B3E00FD049
S11347F0C9F7F6CF462F4F70405D4A3318F0495D34
S113480031FD4052419302D0A9F7EACFB4E0A69516
S11348109795879577956795BA95C9F70097610538
S1134820710508959B01AC010A2E0694579547958E
S113483037952795BA95C9F7620F731F841F951F83
S1134840A01D089560507C4E0C945D24DC01A40FDF
S1134850B51F4150504048F0CB01840F951F2E9155
S11348600E94372441505040D0F70895262F0E94CB
S113487059240080021619F00E94422401970197DE
S11348800895262FAF93BF93E0E0F0E1328131FD2C
S1134890FDCFDC01A050BC4E2C932DE924BF23E0B6
S11348A020830196BF91AF91089503D08081992709
S11348B00895FC01E050FC4E0895FB01DC0102C0A8
S11348C001900D9241505040D8F70895F894FFCFCD
S11348D024532564257300434D442C25732C2573E0
S11348E0004E6F74206120636F6D6D616E640032E1
S11348F030253032782D253032782D2530327854D9
S1134900253032783A253032783A253032780067CB
S113491065745F74696D65204453333233310044E8
S113492061746554696D653F007075745F74696D79
S1134930652044533332333100323032312D303339
S11349402D3137004552522C25642C2573005361B8
S113495076656454696D653F0054696D65205365DF
S1134960743F00737065634D6563682056657273A8
S1134970696F6E004D4350323330303820726561B8
S113498064206572726F72004D4350323330303898
S1134990207772697465206572726F72002A2530FF
S11349A032580D0A00202020202020202020202002
S11349B0202020202000626F7468006C65667400FB
S11349C07269676874007368757474657200636CE7
S11349D06F73655F504E455520626164206F626A53
S11349E065637400636C6F736520776861743F005E
S11349F0436C6F7365202573006F70656E5F504E56
S1134A00455520626164206F626A656374006F704B
S1134A10656E20776861743F004F70656E20257362
S1134A200054656D7020262048756D696469747939
S1134A300025312E3166432025312E30664620254F
S1134A40312E30662525004F7269656E7461746974
S1134A506F6E0054696D6500526564566163202071
S1134A60426C7565566163007265706F72743A20AA
S1134A70756E6B6E6F776E206F626A656374004546
S1134A804E562C25732C25332E31662C432C253180
S1134A902E30662C25252C25332E31662C432C25CF
S1134AA0312E30662C25252C25332E31662C432CB3
S1134AB025312E30662C25252C25332E31662C43AA
S1134AC02C2573004D54522C25732C25632C256CF6
S1134AD0642C6D6963726F6E732C256C642C6D6924
S1134AE063726F6E732F7365632C25642C6D412C78
S1134AF02573004D54562C25732C25632C25332EF9
S1134B0031662C562C25332E31662C432C2573000C
S1134B104F52492C25732C25332E31662C25332EE8
S1134B2031662C25332E31662C25730025322E3028
S1134B30662025322E30662025322E306600504EF7
S1134B40552C25732C25632C736875747465722C2D
S1134B5025632C6C6566742C25632C7269676874F4
S1134B602C25632C6169722C2573006C6566743A7C
S1134B70256320202072696768743A25630073688E
S1134B8075747465723A256320206169723A2563ED
S1134B900054494D2C25732C25732C7365742C25D6
S1134BA0732C626F6F742C2573005641432C25734C
S1134BB02C25352E32662C7265647661632C25357E
S1134BC02E32662C626C75657661632C2573002524
S1134BD0322E3266202025322E3266005645522C63
S1134BE025732C25732C2573006765745F4D4F5412
S1134BF04F52456E636F6465722074696D656F759D
S1134C0074006765745F4D4F544F52456E636F6413
S1134C1065722043524300524F424F466C6F617499
S1134C202074696D656F7574006765745F4D4F54CA
S1134C304F52466C6F617420435243006765745F42
S1134C404D4F544F52496E7433322074696D656F01
S1134C507574006765745F4D4F544F52496E7433D9
S1134C603220435243206572726F72006D6F766515
S1134C705F4D4F544F524162736F6C75746520746D
S1134C80696D656F7574006D6F76655F4D4F544F38
S1134C90524162736F6C7574652061636B006D6F54
S1134CA076655F4D4F544F5220756E6B6E6F776E05
S1134CB0206D6F746F72006D6F76655F4D4F544F4A
S1134CC052206E6F20706F736974696F6E206F72FB
S1134CD020696E6372656D656E7400696E69745FD8
S1134CE04D4F544F5253007365743A2062616420EF
S1134CF074696D6520666F726D61740073657420EC
S1134D00776861743F007469636B73203D20256488
S1134D100D0A0054574920627573005457492061A5
S10E4D2072626974726174696F6E0046
S1074D2B010101007D
S9030000FC
