:100000000C942A010C9447010C9447010C94F018AD
:100010000C9447010C9447010C9447010C94470140
:100020000C9447010C9447010C9447010C94470130
:100030000C949B190C9447010C9447010C944701B4
:100040000C9447010C943F1B0C948D1B0C9447019E
:100050000C948D0E0C9447010C9447010C944701AD
:100060000C9447010C9447010C94C91B0C94F41B8D
:100070000C9447010C94991C0C9447010C94470173
:100080000C9447010C9447010C9447010C944701D0
:100090000C9447010C94301C0C94651C0C94470183
:1000A000B504D604D604D604D604D604D604D604A1
:1000B000D604D604D604D604D604D604D604D60470
:1000C000D604A304D604D604D604D604D604D60493
:1000D000D604D604D604A904D604A604D604D604AD
:1000E000AC04AF04B204A00FA00FA00F69146914F0
:1000F0006914691469146914691469146914691418
:100100006914691469146914691469146914691407
:100110002B14691469146914691469146914691435
:100120006914691469143010301030106914EE101D
:1001300069146914691469146914691469146914D7
:1001400069142B1201136914691469148A13691450
:10015000D2136E616E00696E660000407A10F35A29
:1001600000A0724E18090010A5D4E80000E87648F7
:10017000170000E40B54020000CA9A3B000000E1A3
:10018000F505000080969800000040420F00000036
:10019000A08601000000102700000000E803000016
:1001A00000006400000000000A00000000000100E0
:1001B000000000002C76D888DC674F0823DFC1DF01
:1001C000AE59E1B1B796E5E3E453C63AE651997604
:1001D00096E8E6C28426EB898C9B62ED407C6FFC3E
:1001E000EFBC9C9F40F2BAA56FA5F490055A2AF780
:1001F0005C936B6CF9676DC11BFCE0E40D47FEF589
:1002000020E6B500D0ED902E0300943577050080F0
:10021000841E080000204E0A000000C80C3333334F
:10022000330F986E12831141EF8D2114893BE655EF
:1002300016CFFEE6DB18D1844B381BF77C1D901DD2
:10024000A4BBE424203284725E228100C9F124EC34
:10025000A1E53D2711241FBECFEFCDBFDFE3DEBFF9
:1002600018E2A0E0B8E2E5E0FFE402C005900D92DC
:10027000A430B107D9F720E3A4E0B8E201C01D9291
:10028000A133B207E1F70E94B9080C944B250C94F6
:1002900000008F929F92AF92BF92EF92FF920F93C6
:1002A0001F93CF93DF9300D000D0CDB7DEB77B0193
:1002B0008130C9F018F0823061F010C00F2EF3E3E6
:1002C0008F2E982CF3EFAF2EF0E4BF2EF02D11E01F
:1002D0000EC0812C912C540110E109C0812C912C6D
:1002E000540110E004C0812C912C540114E040E032
:1002F00066E087E20E941E09412F409560E087E298
:100300000E941E09412F6AE087E20E941E0986E1D1
:100310008A95F1F700008E010F5F1F4F20E840E73C
:1003200068E088E40E94CA01833651F440E050E856
:1003300066E274ECF70140835183628373831CC0CF
:1003400020E030E04AE754E469817A818B819C8126
:100350000E946B1E23E333E948E853E40E94D01C5B
:100360009B01AC01C501B4010E94D11CF70160835F
:1003700071838283938380E02496CDBFDEBFDF91BB
:10038000CF911F910F91FF90EF90BF90AF909F90F2
:100390008F9008958F929F92AF92BF92CF92DF92EB
:1003A000EF92FF920F931F93CF93DF93F82EE62ED9
:1003B0006801462BC42FC168D22FD36080E090E83B
:1003C000A6E2B4ECF80180839183A283B38360E05A
:1003D0008F2D0E94DD19082F882321F00E941E1AFC
:1003E00013E6B4C081E00E94221A182F833619F454
:1003F0000E941E1AABC08C2F0E94221A182F83361F
:1004000019F40E941E1AA2C08D2F0E94221A182FC2
:10041000833619F40E941E1A99C00E941E1AFCE12C
:10042000FA95F1F7C1E009C061E08F2D0E94DD1956
:100430000E94D01988230CF4C0E0C111F5CF0E94AE
:100440001E1A60E08F2D0E94DD1980E00E94221AA2
:1004500061E08F2D0E94DD190E94C019C82F0E94F3
:10046000D019D82F0E941E1A6C2F70E0762F6627A5
:100470006D2B84E0E81649F18E1530F0EE20D9F1AD
:10048000E2E0EE1669F142C0F8E0EF1609F442C06E
:100490008AE0E81621F0E6E0EE1238C00BC00F2E1D
:1004A000F4E78F2EF3E19F2EF3E0AF2EF7E3BF2E9C
:1004B000F02D3AC00F2EF4E78F2EF3E19F2EF3E0DC
:1004C000AF2EF8E3BF2EF02D2FC00F2EF2E18F2EAE
:1004D000F3E19F2EF3E8AF2EF8E3BF2EF02D24C0FA
:1004E0000F2EF4E78F2EF3E19F2EF3E0AF2EF9E30A
:1004F000BF2EF02D19C00F2EFEE28F2EFDE99F2E8C
:10050000F4E4AF2EF9E3BF2EF02D0EC0812C912C18
:1005100054010AC00F2EF1E78F2EF3E19F2EF3E86E
:10052000AF2EF7E3BF2EF02D072E000C880B990B92
:100530000E94B61D9B01AC01C501B4010E946B1E57
:10054000F6016083718382839383102F812FDF9163
:10055000CF911F910F91FF90EF90DF90CF90BF90C0
:10056000AF909F908F900895E0E2F4E084E085835F
:10057000818386830895CF93DF939C0140E01CC064
:10058000CCE1DCE2E881F0E0E35EF44D8081F9014A
:10059000E40FF11D8083AEE1BCE28C9181508C931D
:1005A000888190E001966EEF70E00E94552288836A
:1005B0008081882329F04F5F80911E2C8111E0CF2C
:1005C000F901E40FF11D1082DF91CF9108959FE9A9
:1005D000980F9A3128F081548A3120F483E60895E7
:1005E00083E6089580E00895EF92FF921F93CF93E2
:1005F000DF93EC01E62EF12C84E38E9DF0018F9DBC
:10060000F00D1124E85FF74D8FE380838183128220
:1006100013A604C0112309F475C021961881812FF7
:100620000E94E7028823B1F3219684E38E9DF001B6
:100630008F9DF00D1124E85FF74D108304C0112346
:1006400009F460C021961881812F0E94E702882357
:10065000B1F3219684E38E9DF0018F9DF00D11245E
:10066000E85FF74D118380E02AC0988191110CC09A
:1006700094E39E9DF0019F9DF00D1124E85FF74DDE
:10068000E80FF11D12823EC09B3361F494E39E9DFE
:10069000F0019F9DF00D1124E85FF74DE80FF11D6B
:1006A00012820FC0219624E32E9DF0012F9DF00DA4
:1006B0001124E85FF74DE80FF11D92838F5F8932B7
:1006C000A0F2219680E01CC0988191110CC094E3A7
:1006D0009E9DF0019F9DF00D1124E85FF74DE80FFE
:1006E000F11D13A60FC0219624E32E9DF0012F9D2E
:1006F000F00D1124E85FF74DE80FF11D93A78F5F10
:10070000893010F3DF91CF911F91FF90EF90089502
:100710000F931F93CF93DF93CDB7DEB7C550D14072
:10072000CDBFDEBF27E0EAE9FAE8DE01A150BF4F06
:1007300001900D922A95E1F72091052821112AC0F8
:100740002091A80422FF03C022E030E002C021E093
:1007500030E09F938F933F932F93CE0181509F4F13
:100760009F938F938E010F5F1F4F1F930F930E94D4
:100770008724C8010E94E80AF80101900020E9F7E7
:100780003197AF01401B510BB80180E00E94A11AC4
:10079000CDBFDEBFCB5FDE4FCDBFDEBFDF91CF91E0
:1007A0001F910F910895CF92DF92EF92FF920F93D6
:1007B0001F93CF93DF93CDB7DEB7CC51D140CDBFE0
:1007C000DEBFD82EC92E8AE0E1EAFAE89E012F5F4B
:1007D0003F4F7901D90101900D928A95E1F78E0181
:1007E000055F1F4FC8010E94C205CF92DF921F9381
:1007F0000F93FF92EF920C5E1F4F1F930F930E9477
:100800008724C8010E948803CDBFDEBFC45EDE4FCF
:10081000CDBFDEBFDF91CF911F910F91FF90EF9081
:10082000DF90CF900895CF93DF9300D0CDB7DEB7A0
:1008300081E290E089839A8341E0BE016F5F7F4F40
:1008400080E00E94A11A0F900F90DF91CF91089540
:10085000CF93C0910728C11121C0FC018081813252
:1008600091F4918191110FC08FEF91E00E94C21815
:1008700085E090E08093122A9093132A81E0809380
:100880000728C1E00CC0813231F48181882319F03E
:100890000E94931C04C00E94130401C0C1E08C2F6D
:1008A000CF910895CF93DF9300D0CDB7DEB78EE31D
:1008B00090E089839A8341E0BE016F5F7F4F80E0C3
:1008C0000E94A11A0F900F90DF91CF910895CF93BE
:1008D000DF93CDB7DEB7CF5FD109CDBFDEBFCE018D
:1008E00001960E94BB02CE0101960E942804882333
:1008F00009F46EC08981882311F0813229F41092A5
:1009000005280E94520464C0CE0101960E94D303C0
:1009100060910428CE0101960E94F402809104287F
:1009200024E3829FF0011124E85FF74DE0814E2F10
:1009300050E0FA01E255F109E332F105B8F5E05B68
:10094000FF4F0C9488220E94390D36C00E94E30D9F
:1009500033C00E94511730C00E94F80E2DC00E9473
:1009600012192AC00E947F1927C081E080930628AF
:100970000E94CA16882349F0109206286BEA7AE88A
:1009800084E391E00E949E0617C00E940118109215
:10099000162A0E9452048AE694E021E08150904099
:1009A0002040E1F700C00E94931C12C066EC7AE878
:1009B00089EC90E00E949E068091042890E00196C8
:1009C0006AE070E00E945522809304280E9452043D
:1009D000C150DF4FCDBFDEBFDF91CF9108950F93A0
:1009E0001F93CF93DF93CDB7DEB7A097CDBFDEBF08
:1009F00040E2E4EDFAE89E012F5F3F4FD9010190FC
:100A00000D924A95E1F7FB01B081A1811281048129
:100A1000558146811F92BF931F92AF931F921F93E0
:100A20001F920F931F925F931F924F933F932F93A9
:100A30009F938F930E948724CDBFDEBFA096CDBF2A
:100A4000DEBFDF91CF911F910F910895DC01FB0173
:100A5000818990E0C09782959295907F9827807FBA
:100A6000982792899053892B8C93868590E0C09724
:100A700082959295907F9827807F982797859053AD
:100A8000892B11968C931197838590E0C09782955E
:100A90009295907F9827807F982794859053892BF3
:100AA00012968C93129781E013968C9313978085FE
:100AB00090E0C09782959295907F9827807F9827A5
:100AC00091859053892B14968C931497258130E04F
:100AD0002053310922953295307F3227207F3227EB
:100AE00086818053282B15962C931597228130E010
:100AF0002053310922953295307F3227207F3227CB
:100B000083818053282B16962C930895EF92FF92A1
:100B10000F931F93CF937B0160E00E94DD19C82FD4
:100B2000833619F40E941E1A26C080E00E94221A01
:100B3000C82F833619F40E941E1A1DC061E088E692
:100B40000E94DD19C82F833661F40E941E1A13C05B
:100B500087010C0F111D0E94C019F8018083CF5F1F
:100B600001C0C0E0C630A0F30E94D019F70186830F
:100B70000E941E1AC0E08C2FCF911F910F91FF9001
:100B8000EF900895EF92FF921F93CF93DF93CDB72D
:100B9000DEB72797CDBFDEBF7C01BE016F5F7F4F01
:100BA00088E60E948605182F833679F464EF7AE888
:100BB00085E690E00E949E068AE0E4E0FBE8D7012B
:100BC00001900D928A95E1F707C0BE016F5F7F4FDC
:100BD000C7010E94EF0410E0812F2796CDBFDEBF32
:100BE000DF91CF911F91FF90EF900895EF92FF92C8
:100BF0000F931F93CF93DF938B0160E00E94DD1969
:100C0000C82F833619F40E941E1A20C080E00E946B
:100C1000221AC82F8336A1F40E941E1A17C0780129
:100C20008FEFE81AF80AF80180810E94221AC82F73
:100C3000833619F40E941E1A09C0DF5F870101C0C4
:100C4000D0E0D73060F30E941E1AC0E08C2FDF91F5
:100C5000CF911F910F91FF90EF9008951F93CF9325
:100C6000DF93CDB7DEB72797CDBFDEBFBC01CE0186
:100C700001960E942605BE016F5F7F4F88E60E94A5
:100C8000F605182F833639F46EE07BE886E690E0AF
:100C90000E949E0601C010E0812F2796CDBFDEBFC7
:100CA000DF91CF911F91089545E150E06BE070E036
:100CB0000E94072508954BE050E060E070E00E943C
:100CC00007250895CF93DF93CDB7DEB76597CDBFE6
:100CD000DEBFCE0101960E94C20545E150E06BE007
:100CE00070E0CE0101960E940B256596CDBFDEBF58
:100CF000DF91CF910895CF93DF93CDB7DEB72B97D8
:100D0000CDBFDEBF8BE0EEE1FBE8DE011196019086
:100D10000D928A95E1F74BE050E060E070E0CE0183
:100D200001960E940B252B96CDBFDEBFDF91CF91A0
:100D300008950E9462060E947B0608950F931F93F8
:100D4000CF93DF93CDB7DEB7C850D140CDBFDEBF64
:100D50002AE0E9E2FBE8DE01A150BF4F01900D92CD
:100D60002A95E1F720910628211115C07F936F93F2
:100D70009F938F93CE0181509F4F9F938F938E01AE
:100D80000F5F1F4F1F930F930E948724C8010E947B
:100D90008803CDBFDEBFC85FDE4FCDBFDEBFDF91B2
:100DA000CF911F910F910895CF92DF92EF92FF9212
:100DB0000F931F93CF93DF93D82FD62E072F7A014F
:100DC000122F60E00E94DD19C82F833619F40E94AB
:100DD0001E1A2EC0802F0E94221AC82F833641F17E
:100DE0008D2D0E94221AC82F833611F161E08D2FBC
:100DF0000E94DD19C82F8336D9F0C0E008C0670112
:100E0000CC0ED11C0E94C019F6018083CF5F2C2F1D
:100E100030E0812F90E001972817390784F3EC0127
:100E2000CE0DDF1D0E94D01988830E941E1AC0E0DB
:100E30008C2FDF91CF911F910F91FF90EF90DF905A
:100E4000CF900895EF92FF921F93CF93DF93CDB78A
:100E5000DEB72A97CDBFDEBF7C018AE0E3E3FBE883
:100E6000DE01119601900D928A95E1F724E1A70128
:100E700060E070E080E50E94D406182F833639F4D4
:100E8000BE016F5F7F4FC7010E94242401C010E0A4
:100E9000812F2A96CDBFDEBFDF91CF911F91FF90AA
:100EA000EF900895EF92FF920F931F93CF93DF93EC
:100EB000F62E172FEA01022F60E00E94DD1983361B
:100EC000E1F0812F0E94221A8336B9F08F2D0E9403
:100ED000221A833691F010E00BC07E018FEFE81AE2
:100EE000F80A88810E94221A833639F01F5FE701D1
:100EF000101798F30E941E1A80E0DF91CF911F9186
:100F00000F91FF90EF9008958F929F92AF92BF92B2
:100F1000CF92DF92EF92FF920F931F93CF93DF93C5
:100F200000D000D0CDB7DEB7813059F018F0823054
:100F300079F015C080E00E9457196B017C0140E4F4
:100F400017C081E00E9457196B017C0140E510C079
:100F500082E00E9457196B017C0140E609C00F2E08
:100F6000C12CD12CF0EAEF2EF1E4FF2EF02D40E55C
:100F70008E010F5F1F4F20E860E088E40E94CA01E5
:100F8000833679F120E030E040EA50E469817A81EB
:100F90008B819C810E94421D2AE037ED43E25EE393
:100FA0000E94D01C2FE539E24BEC5BE30E94421D0E
:100FB0004B015C0129EC3EE84DE05BE3C701B60163
:100FC0000E946B1E9B01AC0162E27DEF86E89FE30D
:100FD0000E94D01C9B01AC01C501B4010E94421DBE
:100FE00004C060E070E886E294EC2496CDBFDEBFDA
:100FF000DF91CF911F910F91FF90EF90DF90CF90F5
:10100000BF90AF909F908F9008950E94BC0E0E9459
:10101000F40E0E94B3080E944F190E94B4020E946D
:10102000B51980E290E00E94C2180E94471A089504
:10103000CF93DF93CDB7DEB72B97CDBFDEBF109236
:1010400007280E94B60A0E947E0C0E94990680E042
:101050000E94430B81E00E94430B0E9454180E949F
:10106000C41CCE0101960E945B0641E06DE37BE863
:1010700081E00E94030C42E0BE016F5F7F4F81E080
:101080000E94030C2B96CDBFDEBFDF91CF91089558
:10109000CF92DF92EF92FF920F931F93CF93DF9344
:1010A00000D000D0CDB7DEB7813021F08230C1F55D
:1010B00040E301C040E08E010F5F1F4F20E862E077
:1010C00089E40E94CA01833681F1C980DA80EB800D
:1010D000FC802DEC3CEC4CEC5EE3C701B6010E94B9
:1010E0003D1D88233CF120E030E040E050E4C701A2
:1010F000B6010E94661E181614F129E739EE42E087
:1011000050E4C701B6010E946B1E2EE633EA4BED98
:1011100050E40E94D01C562F472F382F292F13C080
:1011200050E040E836E224EC0EC050E040E836E201
:1011300024EC09C050E040E836E224EC04C050E062
:1011400040E836E224EC652F742F832F922F2496EB
:10115000CDBFDEBFDF91CF911F910F91FF90EF9038
:10116000DF90CF900895E0EAF4E080E28583818308
:10117000089581E080930528809306280E94050841
:1011800078940E941808109206288091202C8823B9
:1011900021F01092202C0E9467042091102A309197
:1011A000112A8091122A9091132A8217930778F4BA
:1011B00081E08093062880E00E94600C81E00E941C
:1011C000600C1092102A1092112A10920628909109
:1011D000162A8091152A8917C0F68091072888233E
:1011E000A1F281E0809306280E9401181092162A2D
:1011F00010920628CACFCF93DF93C82FD62F60E076
:101200000E94DD19833651F46EE47BE882E991E0B7
:101210000E949E060E941E1A8FEF0DC08D2F0E9405
:10122000221A61E08C2F0E94DD190E94D019C82F6C
:101230000E941E1A8C2FDF91CF9108951F93CF9398
:10124000DF93D62F142F60E00E94DD19C82F83365C
:1012500049F462E67BE882E991E00E949E060E94E2
:101260001E1A15C08D2F0E94221A882321F00E9479
:101270001E1AC3E60CC0812F0E94221A882321F077
:101280000E941E1AC3E603C00E941E1AC0E08C2FE3
:10129000DF91CF911F9108958F929F92AF92BF924D
:1012A000FF920F931F93CF93DF938C0160E088E14F
:1012B0000E94DD19833651F440E050E866E274EC98
:1012C000F801408351836283738343C085E00E94A9
:1012D000221A61E088E10E94DD190E94C019C82F1E
:1012E0000E94D019D82F0E941E1AFC2FF071FF2ED9
:1012F0006C2F6F7070E080E090E00E94B41D20E0E1
:1013000030E040E851E40E946B1E4B015C016D2F00
:1013100070E080E090E00E94B41D20E030E040E802
:101320005DE30E946B1E9B01AC01C501B4010E94EC
:10133000D11CFF2041F09B01AC0160E070E080E82F
:1013400093E40E94D01CF8016083718382839383AD
:1013500080E0DF91CF911F910F91FF90BF90AF90F0
:101360009F908F900895EF92FF920F931F93CF93CA
:10137000DF93F82EE62EEA01022F60E00E94DD19CD
:10138000182F833619F40E941E1A23C08E2D0E9436
:10139000221A182F8336E9F061E08F2D0E94DD19A3
:1013A000182F833669F40E941E1A13C07E018FEF36
:1013B000E81AF80A0E94C01988831F5FE70101C07C
:1013C00011E0101798F30E94D01988830E941E1A0A
:1013D00010E0812FDF91CF911F910F91FF90EF903F
:1013E0000895CF92DF92EF92FF920F931F93CF93C6
:1013F000DF93CDB7DEB72697CDBFDEBF6C017B0193
:101400008A0180E090E8A6E2B4ECFA01808391833F
:10141000A283B383FB0180839183A283B383F6010C
:1014200080839183A283B38326E0AE014F5F5F4F39
:1014300061E08DE10E94B309833609F461C08981BE
:1014400090E0982F88272A81822BBC01772314F4FF
:101450006D5F7F4F7595679575956795072E000CA5
:10146000880B990B0E94B61D26E636E245E75EE33F
:101470000E946B1EF60160837183828393838B814C
:1014800090E0982F88272C81822BBC01772314F4BD
:101490006D5F7F4F7595679575956795072E000C65
:1014A000880B990B0E94B61D26E636E245E75EE3FF
:1014B0000E946B1EF70160837183828393838D8109
:1014C00090E0982F88272E81822BBC01772314F47B
:1014D0006D5F7F4F7595679575956795072E000C25
:1014E000880B990B0E94B61D26E636E245E75EE3BF
:1014F0000E946B1EF801608371838283938380E076
:101500002696CDBFDEBFDF91CF911F910F91FF9047
:10151000EF90DF90CF9008951F93CF93DF93D62F56
:10152000142F60E00E94DD19C82F882321F00E944B
:101530001E1A8C2F17C08D2F0E94221AC82F8823A5
:1015400021F00E941E1A8C2F0DC0812F0E94221A9A
:10155000C82F882321F00E941E1A8C2F03C00E94DE
:101560001E1A80E0DF91CF911F910895CF93DF93F2
:101570001F92CDB7DEB740E46BE28DE10E948C0A8A
:1015800021E0AE014F5F5F4F6BE28DE10E94B30936
:1015900008C021E0AE014F5F5F4F6BE28DE10E941A
:1015A000B309898186FDF5CF40EC6FE08DE10E94A3
:1015B0008C0A42E06BE28DE10E948C0A4DE36AE204
:1015C0008DE10E948C0A89810F90DF91CF9108955F
:1015D000EF92FF920F931F93CF93DF93CDB7DEB7B8
:1015E0002E97CDBFDEBF8C0188E0E7E7FBE8DE0188
:1015F000119601900D928A95E1F7F8010190002073
:10160000E9F731973E2F301B90E081E006C0F801EA
:10161000E80FF11D208192278F5F8317C0F31F927F
:101620009F93CE0101969F938F937E0189E0E80EF0
:10163000F11CFF92EF920E948724B701C8010E941B
:1016400019240F900F900F900F900F900F902E96DF
:10165000CDBFDEBFDF91CF911F910F91FF90EF9033
:101660000895CF93DF93D62FC42F60E00E94DD1939
:101670008D2F0E94221A8C2F0E94221A0E941E1A5D
:10168000DF91CF910895CF93E0E6F4E090E4968364
:101690009183A1E4B3E01197F1F7000095838111E4
:1016A00002C0CCE301C0CDE34AE260E08C2F0E948F
:1016B000310B41E760E08C2F0E94310B4CE560E478
:1016C0008C2F0E94310B48E260E08C2F0E94310B7E
:1016D00048E060E08C2F0E94310B4AE260E08C2FE2
:1016E0000E94310B49E760E08C2F0E94310B45EDE1
:1016F00060E08C2F0E94310B40E760E08C2F0E944D
:10170000310B48E760E08C2F0E94310B48E060E02D
:101710008C2F0E94310B46E060E08C2F0E94310B31
:1017200042E760E08C2F0E94310B40E060E48C2F98
:101730000E94310B4AE260E08C2F0E94310B49E796
:1017400060E08C2F0E94310B4AED60E08C2F0E94EC
:10175000310B40E060E08C2F0E94310B4CED60E0DB
:101760008C2F0E94310B40E060E08C2F0E94310BE7
:1017700041E860E08C2F0E94310B4FE760E08C2F36
:101780000E94310B49ED60E08C2F0E94310B41EF3C
:1017900060E08C2F0E94310B4BED60E08C2F0E949B
:1017A000310B40E460E08C2F0E94310B48E760E091
:1017B0008C2F0E94310B48E260E08C2F0E94310B8D
:1017C00041E060E08C2F0E94310B40E860E08C2FFC
:1017D0000E94310B4CE060E08C2F0E94310BBAE686
:1017E00024E081E0B15020408040E1F700C0109239
:1017F000102A1092112A80E590E08093122A90938B
:10180000132ACF910895EF92FF920F931F93CF93D6
:10181000DF93CDB7DEB7E297CDBFDEBF142F91E1E6
:10182000EFE7FBE8DE01929601900D929A95E1F7C1
:10183000811102C00CE301C00DE3CE0101967C01D1
:101840000E942424F70101900020E9F73197EE1956
:10185000FF09719708F0198ABE016E5D7F4FCE01B6
:1018600001960E941924113039F440E860E0802F7D
:101870000E94310B10E012C040EC60E0802F0E940B
:10188000310BF8CFE1E0F0E0EC0FFD1FE10FF11DAF
:10189000408160E4802F0E94310B1F5F103190F374
:1018A00081E090E08093102A9093112AE296CDBFB8
:1018B000DEBFDF91CF911F910F91FF90EF900895C0
:1018C0001F93CF93DF931F92CDB7DEB7182F1982E6
:1018D00041E0BE016F5F7F4F0E94030C42E0BE01FA
:1018E0006F5F7F4F812F0E94030C1092102A10927D
:1018F000112A0F90DF91CF911F91089540E060E091
:1019000084E20E941E098336A9F140E06AE084E285
:101910000E941E09833671F14EEF60E081E20E9461
:101920001E09833639F140E061E081E20E941E0920
:10193000833601F14CEF62E081E20E941E0983369A
:10194000C9F040E064E081E20E941E09833691F014
:1019500040E265E081E20E941E09833659F04FE7BC
:1019600066E081E20E941E09833621F089E08093BF
:10197000770480E00895CF92DF92EF92FF920F9369
:101980001F93CF93DF936C018B017A01E90169E02A
:1019900081E20E94FB08982F9295969596959370F8
:1019A000913021F493E6F60190830FC0923021F438
:1019B0009FE6F601908309C0933021F494E7F60185
:1019C000908303C098E7F6019083982F969596959B
:1019D0009370913021F493E6F70190830FC0923019
:1019E00021F49FE6F701908309C0933021F494E736
:1019F000F701908303C098E7F7019083982F9295A1
:101A00009F709370913021F49FE6F80190830FC08E
:101A1000923021F493E6F801908309C0933021F4C9
:101A200094E7F801908303C098E7F801908381FF61
:101A300003C080E3888302C081E38883DF91CF9174
:101A40001F910F91FF90EF90DF90CF900895CF936B
:101A5000DF93D82FC62F69E084E20E94FB088D2B0C
:101A6000482F4C236AE084E20E941E09DF91CF9147
:101A70000895CF93DF93CDB7DEB76A97CDBFDEBFB2
:101A800099E0EAECFBE8DE01119601900D929A953F
:101A9000E1F724E3829FC0011124FC01E85FF74DC8
:101AA00081818C3631F118F4823639F06AC0823780
:101AB000C1F1833709F44DC064C06AEE84E40E942A
:101AC000270D66EE88E80E94270D80E99BE89F932A
:101AD0008F93CE0101969F938F9309969F938F9337
:101AE0000E9487240F900F900F900F900F900F90EF
:101AF00059C06AEE84E40E94270D85E99BE89F9314
:101B00008F93CE0101969F938F9309969F938F9306
:101B10000E9487240F900F900F900F900F900F90BE
:101B200041C066EE88E80E94270D8AE99BE89F93F2
:101B30008F93CE0101969F938F9309969F938F93D6
:101B40000E9487240F900F900F900F900F900F908E
:101B500029C06CEE82E20E94270D80EA9BE89F93E9
:101B60008F93CE0101969F938F9309969F938F93A6
:101B70000E9487240F900F900F900F900F900F905E
:101B800011C068EA7BE885EF91E00E949E068CE038
:101B9000EEEBFBE8DE011A9601900D928A95E1F7D3
:101BA00083E60BC081E00E94600C41E0BE01665FED
:101BB0007F4F81E00E94030C80E06A96CDBFDEBFBC
:101BC000DF91CF910895CF93DF93CDB7DEB76997BB
:101BD000CDBFDEBF98E0E3EFFBE8DE011196019098
:101BE0000D929A95E1F724E3829FC0011124FC0134
:101BF000E85FF74D81818C3631F118F4823639F087
:101C00006AC08237C1F1833709F44DC064C06EEAFF
:101C100084E40E94270D6EE688E80E94270D80E983
:101C20009BE89F938F93CE0101969F938F93089685
:101C30009F938F930E9487240F900F900F900F9087
:101C40000F900F9059C06EEA84E40E94270D85E939
:101C50009BE89F938F93CE0101969F938F93089655
:101C60009F938F930E9487240F900F900F900F9057
:101C70000F900F9041C06EE688E80E94270D8AE918
:101C80009BE89F938F93CE0101969F938F93089625
:101C90009F938F930E9487240F900F900F900F9027
:101CA0000F900F9029C06EEC82E20E94270D80EA0F
:101CB0009BE89F938F93CE0101969F938F930896F5
:101CC0009F938F930E9487240F900F900F900F90F7
:101CD0000F900F9011C063ED7BE885EF91E00E94BB
:101CE0009E068BE0E8EEFBE8DE01199601900D926E
:101CF0008A95E1F783E60BC081E00E94600C41E029
:101D0000BE01675F7F4F81E00E94030C80E069960F
:101D1000CDBFDEBFDF91CF9108951F920F920FB616
:101D20000F9211242F933F934F935F936F937F9361
:101D30008F939F93AF93BF93EF93FF938091690429
:101D400088234CF480E88093690468E081E20E9473
:101D5000FB088093142AFF91EF91BF91AF919F915F
:101D60008F917F916F915F914F913F912F910F9044
:101D70000FBE0F901F901895E0E0F4E088E0808B94
:101D8000818B828B838B848B858B868B878BE0E228
:101D9000F4E0808B818B828B838B848B858BE0E45A
:101DA000F4E0808B818B828B838B848B858B868BFD
:101DB000878BE0E6F4E094E0908B918B928B938B91
:101DC000948B958B968B978BE0E8F4E0808B818BDE
:101DD000828B838BE0EAF4E0808B818B828B838B18
:101DE000848B858B868B08958BE08093B604089551
:101DF0002F923F924F925F926F927F928F929F921B
:101E0000AF92BF92CF92DF92EF92FF920F931F9308
:101E1000CF93DF93CDB7DEB7CF5DD240CDBFDEBF6E
:101E200095E4E9E5FCE8DE01A65BBE4F01900D926A
:101E30009A95E1F79FE2EEE9FCE8DE01A157BE4F7B
:101E400001900D929A95E1F79DE1EDECFCE8DE0141
:101E5000A254BE4F01900D929A95E1F79CE1EAEEF3
:101E6000FCE8DE01A552BE4F01900D929A95E1F774
:101E700092E1E6E0FDE8DE01A950BE4F01900D922F
:101E80009A95E1F79DE2E8E1FDE8DE01A75FBD4F2D
:101E900001900D929A95E1F793E1E5E4FDE8DE010A
:101EA000AA5CBD4F01900D929A95E1F793E1E8E5A8
:101EB000FDE8DE01A75BBD4F01900D929A95E1F719
:101EC00099E1EBE6FDE8DE01A45ABD4F01900D92C9
:101ED0009A95E1F795E2E4E8FDE8DE01AB58BD4FE5
:101EE00001900D929A95E1F79DE0E9EAFDE8DE01A7
:101EF000A656BD4F01900D929A95E1F79DE0E6EB55
:101F0000FDE8DE01A955BD4F01900D929A95E1F7CC
:101F1000082F10E084E3809FF001819FF00D1124D1
:101F2000E85FF74DE1818E2F90E0FC01E154F1096B
:101F3000E633F10508F0CDC4ED58FF4F0C9488222C
:101F4000CE01865F9E4F0E94C20584E3809FF00110
:101F5000819FF00D1124E85FF74DF1800F2EFFE314
:101F6000EF2EF02DEF0CAE014C535D4F68E18E2D3E
:101F70000E94AE15833661F480E090E8A6E2B4ECEE
:101F8000CC53DD4F88839983AA83BB83C45CD24042
:101F9000AE0140545D4F62E58E2D0E94AE15833632
:101FA00061F480E090E8A6E2B4ECC054DD4F888391
:101FB0009983AA83BB83C05CD24024E3209FC001E5
:101FC000219F900D11248D5C974D9F938F93CD533E
:101FD000DD4F8881C35CD2408F93CE53DD4F888123
:101FE000C25CD2408F93CF53DD4F8881C15CD24019
:101FF0008F93C054DD4F8881C05CD2408F93C9530A
:10200000DD4F8881C75CD2408F93CA53DD4F8881F2
:10201000C65CD2408F93CB53DD4F8881C55CD240E4
:102020008F93CC53DD4F8881C45CD2408F931F9235
:10203000FF92CE01865F9E4F9F938F938C549F4F4C
:102040009F938F938E010F5F1F4F1F930F930E94DB
:102050008724C8010E948803CDBFDEBF80E040C452
:10206000CE01865F9E4F0E94C20584E3809FF001EF
:10207000819FF00D1124E85FF74D81810F2EFFE164
:102080007F2EF02D780EAE014C545D4F60E1872D10
:102090000E94FE14833661F48FEF9FEFAFEFBFE72E
:1020A000CC54DD4F88839983AA83BB83C45BD24021
:1020B000CC54DD4F688179818A819B81C45BD24099
:1020C0002CE031E040E050E00E946922F22EE32E45
:1020D000D42EC52EAE0148545D4F62E1872D0E947B
:1020E000FE14833661F48FEF9FEFAFEFBFE7C85464
:1020F000DD4F88839983AA83BB83C85BD240C854D1
:10210000DD4F688179818A819B81C85BD2402CE058
:1021100031E040E050E00E946922B22EA32E942EBE
:10212000852EAE0144545D4F61E3872D0E942C162D
:10213000833661F48FEF9FEFAFEFBFE7C454DD4FFD
:1021400088839983AA83BB83CC5BD240C454DD4F80
:1021500088819981AA81BB81CC5BD240CD01AA271D
:10216000BB279C01220F331F880F991F880F991FCF
:10217000880F991F820F931F44E3409F9001419F56
:10218000300D1124A9014D5C574DF901E85FF74D61
:1021900021815F934F939F938F938F929F92AF92E2
:1021A000BF92CF92DF92EF92FF921F922F93CE01B8
:1021B000865F9E4F9F938F938B579F4F9F938F93D5
:1021C0008E010F5F1F4F1F930F930E948724C8013A
:1021D0000E948803CDBFDEBF80E082C380E00E9402
:1021E0005719C054DD4F688379838A839B83C05C11
:1021F000D24080E00E948407D62EC72EB82EA92E8A
:1022000081E00E945719CC52DD4F6883C45DD240F3
:10221000CB52DD4F7883C55DD240CA52DD4F8883F3
:10222000C65DD240C952DD4F9883C75DD24081E080
:102230000E948407C852DD4F6883C85DD240C752F0
:10224000DD4F7883C95DD240C652DD4F8883CA5DB9
:10225000D240C552DD4F9883CB5DD24082E00E94D0
:102260005719C452DD4F6883CC5DD240C352DD4F55
:102270007883CD5DD240982E892E82E00E9484071B
:10228000762E672E582E492E83E00E945719C2528F
:10229000DD4F6883CE5DD240C152DD4F7883CF5D84
:1022A000D240382E292E7E0196EFE91A9EEFF90AC8
:1022B000C7010E94C20524E3209FC001219F900D09
:1022C00011248D5C974D9F938F932F923F92C15213
:1022D000DD4F8881CF5DD2408F93C252DD4F988110
:1022E000CE5DD2409F934F925F926F927F928F927A
:1022F0009F92C352DD4F8881CD5DD2408F93C452EF
:10230000DD4F9881CC5DD2409F93C552DD4F8881CF
:10231000CB5DD2408F93C652DD4F9881CA5DD240CB
:102320009F93C752DD4F8881C95DD2408F93C852B9
:10233000DD4F9881C85DD2409F93C952DD4F88819F
:10234000C75DD2408F93CA52DD4F9881C65DD2409F
:102350009F93CB52DD4F8881C55DD2408F93CC5285
:10236000DD4F9881C45DD2409F93AF92BF92CF92D0
:10237000DF92CD53DD4F8881C35CD2408F93CE5323
:10238000DD4F8881C25CD2408F93CF53DD4F88816F
:10239000C15CD2408F93C054DD4F8881C05CD24075
:1023A0008F93FF92EF92CE01865B9E4F9F938F9308
:1023B0008E010F5F1F4F1F930F930E948724CDBF85
:1023C000DEBFC8010E94880341E06BEF7BE881E03B
:1023D0000E94030CC054DD4FF880C05CD240CF5344
:1023E000DD4FE880C15CD240CE53DD4F9880C25CA7
:1023F000D240CD53DD4F8880C35CD24026E636E61E
:1024000046EE5FE36F2D7E2D892D982D0E946B1E69
:10241000AF92BF92CF92DF9220E030E040E052E4F2
:102420000E94D11C9F938F937F936F938F929F9263
:10243000EF92FF928BE09CE89F938F931F930F93F3
:102440000E94872442E0B80181E00E94030CCDBFC6
:10245000DEBF80E045C2AE0140535D4FBE01645314
:102460007D4FCE0188539D4F0E94F1097E0196EF6A
:10247000E91A9EEFF90AC7010E94C20524E3209FD2
:10248000C001219F900D11248D5C974D9F938F93D8
:10249000CD52DD4F8881C35DD2408F93CE52DD4F48
:1024A0008881C25DD2408F93CF52DD4F8881C15D5C
:1024B000D2408F93C053DD4F8881C05DD2408F934F
:1024C000C153DD4F8881CF5CD2408F93C253DD4F23
:1024D0008881CE5CD2408F93C353DD4F8881CD5C21
:1024E000D2408F93C453DD4F8881CC5CD2408F9310
:1024F000C553DD4F8881CB5CD2408F93C653DD4FEF
:102500008881CA5CD2408F93C753DD4F8881C95CF4
:10251000D2408F93C853DD4F8881C85CD2408F93DF
:10252000FF92EF92CE0185529E4F9F938F938E0123
:102530000F5F1F4F1F930F930E948724C8010E94B3
:10254000880341E061E27CE881E00E94030CCD5207
:10255000DD4F8881C35DD2408F93CE52DD4F88819D
:10256000C25DD2408F93CF52DD4F8881C15DD24092
:102570008F93C053DD4F8881C05DD2408F93C1538C
:10258000DD4F8881CF5CD2408F93C253DD4F88816D
:10259000CE5CD2408F93C353DD4F8881CD5CD24057
:1025A0008F93C453DD4F8881CC5CD2408F93C55349
:1025B000DD4F8881CB5CD2408F93C653DD4F88813D
:1025C000CA5CD2408F93C753DD4F8881C95CD2402B
:1025D0008F93C853DD4F8881C85CD2408F93CE0162
:1025E00089509E4F9F938F931F930F930E94872430
:1025F000CDBFDEBF42E0B80181E00E94030C80E065
:102600006FC17E0196EFE91A9EEFF90AC7010E9499
:10261000C2059E01275B3E4FAE01485B5E4FBE0187
:10262000695B7E4FCE018A5B9E4F0E94BB0C24E308
:10263000209FC001219F900D11248D5C974D9F9389
:102640008F93C75BDE4F8881C954D1401F928F930F
:10265000C85BDE4F8881C854D1401F928F93C95BFD
:10266000DE4F8881C754D1401F928F93CA5BDE4FE3
:102670008881C654D1401F928F93FF92EF92CE0172
:10268000875F9D4F9F938F938E010F5F1F4F1F9307
:102690000F930E948724C8010E948803C85BDE4F05
:1026A0008881C854D1401F928F93C95BDE4F8881C7
:1026B000C754D1401F928F93CE018A5C9D4F9F9348
:1026C0008F931F930F930E94872441E0B80181E00C
:1026D0000E94030CC75BDE4F8881C954D1401F9212
:1026E0008F93CA5BDE4F8881C654D1401F928F936F
:1026F000CE01875B9D4F9F938F931F930F930E94F3
:102700008724CDBFDEBF42E0B80181E00E94030C08
:1027100080E0E6C07E0196EFE91A9EEFF90AC70154
:102720000E94C2056E0182EEC81A8EEFD80AC60159
:102730000E9422075E019EECA91A9EEFB90AC5010C
:102740000E94540624E3209FC001219F900D112474
:102750008D5C974D9F938F93BF92AF92DF92CF92F4
:10276000FF92EF92CE01845A9D4F9F938F938E01DB
:102770000F5F1F4F1F930F930E948724C8010E9471
:10278000880341E06DE27CE881E00E94030CB70120
:10279000655F7F4F42E081E00E94030CCDBFDEBF4A
:1027A00080E09EC081E00E944808D62EC72EB82E39
:1027B000A92E82E00E944808962E872E782E692E38
:1027C0007E0196EFE91A9EEFF90AC7010E94C20541
:1027D00024E3209FC001219F900D11248D5C974D13
:1027E0009F938F936F927F928F929F92AF92BF929F
:1027F000CF92DF92FF92EF92CE018B589D4F9F9325
:102800008F938E010F5F1F4F1F930F930E9487249A
:10281000C8010E94880341E062E37CE881E00E94F5
:10282000030C6F927F928F929F92AF92BF92CF9242
:10283000DF92CE0186569D4F9F938F931F930F93E8
:102840000E94872442E0B80181E00E94030CCDBFC2
:10285000DEBF80E045C06E019FEFC90ED11CC601EE
:102860000E945B067E0186EFE81A8EEFF80AC70128
:102870000E94C20524E3209FC001219F900D1124D6
:102880008D5C974D9F938F93DF92CF92FF92EF9243
:10289000CE0189559D4F9F938F938E010F5F1F4FE0
:1028A0001F930F930E948724C8010E94880341E070
:1028B0006DE37BE881E00E94030CC8010E945B0687
:1028C00042E0B80181E00E94030CCDBFDEBF80E092
:1028D00007C062E47CE88AEC90E00E949E0683E6F2
:1028E000C152DD4FCDBFDEBFDF91CF911F910F9160
:1028F000FF90EF90DF90CF90BF90AF909F908F9020
:102900007F906F905F904F903F902F900895DC01E3
:1029100040E050E080E090E01BC0FD01E40FF51FB7
:10292000208130E0322F22278227932720E00CC01D
:1029300099233CF4880F991F31E2832730E19327D4
:1029400002C0880F991F2F5F283090F34F5F5F4FB1
:102950004617570710F308950F931F93CF93DF93F4
:1029600000D000D0CDB7DEB78B01813851F082386E
:1029700029F08038D1F564E170E005C06CE170E0C9
:1029800002C068E170E024E0AE014F5F5F4F80E578
:102990000E94D406833651F1898190E0A0E0B0E036
:1029A000782F6627552744279A81892F90E0A0E049
:1029B000B0E0DC0199278827842B952BA62BB72B19
:1029C0004B8150E060E070E0762F652F542F442754
:1029D000842B952BA62BB72B2C81822BF80180837F
:1029E0009183A283B38380E001C083E62496CDBFA8
:1029F000DEBFDF91CF911F910F910895EF92FF926B
:102A00000F931F93CF93DF93CDB7DEB72797CDBF3B
:102A1000DEBF8A0197E09093192B10921B2B109226
:102A20001C2B89836A8342E0BE016F5F7F4F81E088
:102A30000E94A11A81E090E00E94821911C000005A
:102A40008091172A9091182AC39750F00E949819E4
:102A500063EC7DE880E391E00E949E0683E674C00B
:102A600080911C2B882359F30E949819E9E1FAE21E
:102A7000E580F12CFE2CEE248681E82A22E00EC0AF
:102A8000822F90E0FC01E95EF54D3081E1E0F0E05D
:102A9000EC0FFD1FE80FF91F30832F5F273080F305
:102AA00067E070E0CE0101960E948714E816F906EF
:102AB00071F0D8011D921D921D921C9213976CED1E
:102AC0007DE881E391E00E949E0683E63DC029E116
:102AD0003AE2F901808190E0A0E0B0E0782F66272B
:102AE00055274427D8014D935D936D937C9313979D
:102AF0009181892F90E0A0E0B0E0DC019927882740
:102B0000842B952BA62BB72BF80180839183A2836E
:102B1000B383F901428150E060E070E0762F652FC9
:102B2000542F4427842B952BA62BB72BF801808399
:102B30009183A283B383F9012381822BF8018083DF
:102B40009183A283B38380E02796CDBFDEBFDF9160
:102B5000CF911F910F91FF90EF900895AF92BF9288
:102B6000CF92DF92EF92FF920F931F93CF93DF9359
:102B700000D000D0CDB7DEB7A82EB62E7A0184E003
:102B80008093192B10921B2B10921C2BA9826A8305
:102B900042E0BE016F5F7F4F81E00E94A11A81E099
:102BA00090E00E94821980911C2B813081F08091ED
:102BB000172A9091182AC397B0F30E94981961EFD1
:102BC0007DE880E391E00E949E0683E637C00E9484
:102BD0009819E9E1FAE29081C92ED12CDC2CCC24A1
:102BE0008181C82A028110E0102F00272381022B47
:102BF000A982BA829B838C8364E070E0CE01019647
:102C00000E9487140817190741F063E07EE881E30A
:102C100091E00E949E0683E611C0B60180E090E03C
:102C20000E94B41D20E030E040E251E40E94421DC9
:102C3000F701608371838283938380E02496CDBF04
:102C4000DEBFDF91CF911F910F91FF90EF90DF904A
:102C5000CF90BF90AF900895EF92FF920F931F9384
:102C6000CF93DF93CDB7DEB72697CDBFDEBF8A0106
:102C700096E09093192B10921B2B10921C2B89839A
:102C80006A8342E0BE016F5F7F4F81E00E94A11A1C
:102C900081E090E00E94821980911C2B813061F4C8
:102CA0000E949819E9E1FAE2E480F12CFE2CEE246E
:102CB0008581E82A22E01EC08091172A9091182A67
:102CC000C39750F30E94981966E17EE88FE291E085
:102CD0000E949E0683E654C0822F90E0FC01E95ECC
:102CE000F54D3081E1E0F0E0EC0FFD1FE80FF91F3A
:102CF00030832F5F263080F366E070E0CE010196CE
:102D00000E948714E816F90689F06DE27EE881E3F7
:102D100091E00E949E068FEF9FEFAFEFBFE7F801B3
:102D200080839183A283B38383E62AC0E9E1FAE238
:102D3000808190E0A0E0B0E0782F662755274427F7
:102D40009181892F90E0A0E0B0E0DC0199278827ED
:102D5000842B952BA62BB72B428150E060E070E0CE
:102D6000762F652F542F4427842B952BA62BB72B1A
:102D70002381822BF80180839183A283B38380E037
:102D80002696CDBFDEBFDF91CF911F910F91FF90AF
:102D9000EF9008951F93CF93DF9300D000D0CDB76D
:102DA000DEB710E810C0AE014F5F5F4F62E1812FC8
:102DB0000E94FE1489819A81AB81BC81892B8A2B68
:102DC0008B2B29F41F5F133870F380E001C081E082
:102DD0002496CDBFDEBFDF91CF911F910895CF9391
:102DE000DF93CDB7DEB76597CDBFDEBF1092192A4E
:102DF00091E09093192B10921B2B10921C2B89831E
:102E000081E48A831B821C8280E28D831E821F8262
:102E1000188690E499871A861B861C868D871E86E5
:102E20007F87688B598B4A8B1B8A63E170E0CE01E8
:102E300001960E9487149C8B8D8B45E1BE016F5FCC
:102E40007F4F81E00E94A11A81E090E00E948219E8
:102E500080911C2B813041F40E9498198091192A8D
:102E60008F3F91F480E017C08091172A9091182A23
:102E7000C39770F30E94981966E47EE88FE291E0B0
:102E80000E949E0683E607C061E67EE88FE291E03D
:102E90000E949E0683E66596CDBFDEBFDF91CF918F
:102EA0000895CF92DF92EF92FF921F93CF93DF931B
:102EB00000D000D0CDB7DEB7E82EF12C84E38E9D94
:102EC000F0018F9DF00D1124E85FF74D8181813471
:102ED000D0F0843428F09FE9980F933040F013C06D
:102EE0001FE3180F19821A821B821C8214C01FE173
:102EF000180FAE014F5F5F4F60E1812F0E94FE14FB
:102F0000833649F439C068E77EE88DE291E00E949B
:102F10009E0683E632C084E38E9DF0018F9DF00D06
:102F20001124E85FF74D8281811108C061E97EE8D4
:102F300083E391E00E949E0683E61FC024E32E9D5A
:102F4000C0012F9D900D1124865F974D0E940F2385
:102F50009B01AC01ACE0B1E00E948E22C980DA8016
:102F6000EB80FC80AB01BC014C0D5D1D6E1D7F1D17
:102F7000812F0E94EF1601C083E62496CDBFDEBFED
:102F8000DF91CF911F91FF90EF90DF90CF90089548
:102F90000F931F93CF93DF93CDB7DEB72897CDBFA5
:102FA000DEBF813851F0823829F0803809F504E11C
:102FB00010E005C00CE110E002C008E110E0AE0135
:102FC0004B5F5F4F60E10E94FE14833691F08D816C
:102FD0009E812F81388539832A839B838C8324E0CB
:102FE000AE014F5F5F4FB80180E50E94520701C0FC
:102FF00083E62896CDBFDEBFDF91CF911F910F9161
:103000000895CF93DF93D0E0C0E805C08C2F0E94D5
:10301000C817D80FCF5FC338C8F3DD2311F083E69C
:1030200001C080E0DF91CF910895CF93DF93CDB7BA
:10303000DEB72697CDBFDEBF1092192A91E090939C
:10304000192B10921B2B10921C2B898386E18A83EB
:103050007B836C835D834E8346E0BE016F5F7F4F51
:1030600081E00E94A11A81E090E00E948219809183
:103070001C2B813041F40E9498198091192A8F3FAE
:1030800061F083E60BC08091172A9091182AC397AC
:1030900070F30E94981983E601C080E02696CDBFA8
:1030A000DEBFDF91CF910895EF92FF920F931F93B0
:1030B000CF93DF93CDB7DEB76D97CDBFDEBF109254
:1030C000162A8BE08093152AE12C6894FF24F7F8E8
:1030D00046C0BE016F5F7F4F8F2D0E94AC148C8164
:1030E0008F938B818F938A818F9389818F9385EBC7
:1030F0009EE89F938F938E010B5F1F4F1F930F933B
:103100000E948724F80101900020E9F73197AF0170
:10311000401B510BB80180E00E94A11A49815A81DD
:103120006B817C818F2D0E941518CDBFDEBF833649
:10313000A9F40F2D10E000581109F801E050F84DE6
:10314000808181110AC062EC7EE882E391E00E94F6
:103150009E06F801E050F84D1082E394F39432E8B3
:103160003F1508F0B6CFEE2011F083E601C080E0F5
:103170006D96CDBFDEBFDF91CF911F910F91FF9074
:10318000EF900895AC01E0E6F0E0948D9E7F88ED2D
:1031900084BF948F01C000009091630096FDFBCF27
:1031A000E0E6F0E0948D9B7F28ED24BF948F948D12
:1031B000916024BF948F01C0000090914101911152
:1031C000FBCFE0E4F1E04287538782E0878385818B
:1031D0008160858381EB8083828181608283089511
:1031E0001F920F920FB60F9211248F939F9381E03D
:1031F000809343018091102A9091112A0196809327
:10320000102A9093112A80E28093A7048091162AB5
:103210008F5F8093162A9F918F910F900FBE0F9012
:103220001F901895CF93DF9390E024E3289FF0013F
:10323000299FF00D1124E85FF74D2181243729F5EE
:1032400024E3289FE001299FD00D1124C65FD74DAC
:10325000FE0101900020E9F73197EC1BFD0B7397FD
:1032600041F06EEC7EE88AE592E00E949E0683E6DD
:1032700013C0CE010E942E0624E1AE0160E070E092
:1032800080E50E94520780E007C063EE7EE889E592
:1032900092E00E949E0683E6DF91CF910895E0EAD6
:1032A000F4E08289877F828B84E082830895CF93C4
:1032B000DF9300D000D0CDB7DEB7833018F0833075
:1032C00039F00BC0BE016F5F7F4F0E9449010DC0F6
:1032D000CE0101960E944C0908C080E090E8A6E269
:1032E000B4EC89839A83AB83BC8369817A818B81B7
:1032F0009C812496CDBFDEBFDF91CF9108950E94BF
:10330000541808951092172A1092182A25E03DE0CB
:10331000AC01429FC001439F900D529F900D11241C
:10332000E0E8FAE08487958781E0858380830895CB
:103330001092800A08951F920F920FB60F921124D7
:103340008F939F9381E08093860A8091172A9091B2
:10335000182A01968093172A9093182A9F918F918B
:103360000F900FBE0F901F901895E0EAF8E08BE0E9
:1033700086838381816083838581816085830895CD
:1033800001C000008091A5088823DCF7E0EAF8E09E
:1033900084818B7F84838085948192609483089557
:1033A00001C000008091A5088823DCF7E0EAF8E07E
:1033B00084818460848380850895613039F490E04D
:1033C000880F991F81608093A70803C0880F80939E
:1033D000A70881E090E00E9482190BC08091172A13
:1033E0009091182A0B9720F00E94981983E608956F
:1033F00000008091A508807C89F30E949819809133
:10340000A50882FF08C06DEE7EE881E991E00E9488
:103410009E0683E608958091A50883FF08C065EFA6
:103420007EE881E991E00E949E0683E608959091EE
:10343000A508892F807194FD83E6089587E0809325
:10344000A408089501C000009091A50896FFFBCF45
:103450008093A80881E090E00E9482190BC00000D0
:103460008091172A9091182AC39720F00E949819EA
:1034700083E608958091A50886FFF1CF0E949819F0
:103480009091A508892F807194FD83E60895E0E06E
:10349000F4E081E085838183E0E0F8E024E730E038
:1034A0002087318795819068958396819064968373
:1034B00096819068968310921F2D1092202D8093F4
:1034C000242D10921B2C10921C2C10921D2B10924C
:1034D0001E2C1092202CE0E4F4E085838183E0E24E
:1034E000F8E02BE531E0208731879581906895835E
:1034F00096819064968396819068968310922B3083
:1035000010922C30809330301092172B1092182B81
:103510001092192A10921C2BE0E2F4E0858381833B
:10352000E0E6F8E02DE635E020873187968190646B
:10353000968396819068968380932C2F1092282EE4
:1035400008950F931F93CF93DF93EB01142F8130D6
:10355000D1F120F0833009F485C08CC01092242D65
:1035600020E011C0EFE1FDE2808190E03881DC01D4
:10357000AF5DB34D3C9301966EEF70E00E94552213
:1035800080832F5F2196211768F3E0E0F8E08581C2
:10359000806285838AE090E00E9482190DC080914C
:1035A000172A9091182A8536910530F00E949819B3
:1035B00081E08093242D5EC08091242D882379F3AF
:1035C0000E94981957C0642F70E0CE010E948714A2
:1035D000482F092F20E011C0EBE2F0E3808190E05A
:1035E0003881DC01A35DB04D3C9301966EEF70E035
:1035F0000E94552280832F5F2196211768F3EBE20A
:10360000F0E3808190E0DC01A35DB04D0C93019666
:103610002EEF30E0B9010E94552290E0DC01A35D5D
:10362000B04D4C930196B9010E94552280831E5FD4
:1036300010932D30E0E2F8E08581806285831AC026
:10364000E7E2FFE2808190E03881DC01A75DB14DC7
:103650003C9301966EEF70E00E94552280832F5FAD
:10366000219601C020E0211758F3E0E6F8E08581BB
:1036700080628583DF91CF911F910F9108951F92F2
:103680000F920FB60F9211245F936F937F938F93D6
:103690009F93AF93BF93EF93FF9390910008809116
:1036A0001E2C8D3F10F59D3051F481E08093202C2D
:1036B000E0911B2CF0E0E35EF44D108206C0E09137
:1036C0001B2CF0E0E35EF44D9083EEE1FCE28081A0
:1036D0008F5F8083EBE1FCE2808190E001966EEFEA
:1036E00070E00E94552280830AC010921B2C109219
:1036F0001C2C10921D2B10921E2C1092202CFF912E
:10370000EF91BF91AF919F918F917F916F915F9159
:103710000F900FBE0F901F9018951F920F920FB62B
:103720000F9211242F938F939F93EF93FF93E0E0D9
:10373000F8E085818F7D858380911F2DE091202D7C
:103740008E17D1F081E08E0F8093202DF0E0EF5D99
:10375000F34D90819093020891E08E3F08F490E041
:103760009195292F220F821B8093202DE0E0F8E015
:1037700085818062858303C081E08093242DFF9141
:10378000EF919F918F912F910F900FBE0F901F90EF
:1037900018951F920F920FB60F9211242F938F93AB
:1037A0009F93EF93FF9390912008E0911B2B8091C2
:1037B000192BE81740F421E02E0F20931B2BF0E08B
:1037C000E75EF54D908390911B2B981718F081E0E0
:1037D00080931C2BFF91EF919F918F912F910F90D0
:1037E0000FBE0F901F9018951F920F920FB60F9259
:1037F00011242F938F939F93EF93FF93E0E2F8E0D0
:1038000085818F7D858380912B30E0912C308E17C0
:10381000D1F081E08E0F80932C30F0E0E35DF04D2D
:1038200090819093220891E08E3F08F490E091956A
:10383000292F220F821B80932C30E0E2F8E0858153
:103840008062858303C081E080933030FF91EF91E7
:103850009F918F912F910F900FBE0F901F901895F1
:103860001F920F920FB60F9211248F939F93AF93D5
:10387000BF93EF93FF93809160088D3021F0E0912A
:10388000272EED3F78F081E08093282EA7E2BEE25C
:103890008C91E82FF0E0EB5DF24D10828093252EA5
:1038A0001C9208C091E09E0F9093272EF0E0EB5DF4
:1038B000F24D8083FF91EF91BF91AF919F918F91D6
:1038C0000F900FBE0F901F9018951F920F920FB67A
:1038D0000F9211248F939F93AF93BF93EF93FF9316
:1038E000ABE2BFE2EC9181E08E0F8C93F0E0E75DFC
:1038F000F14D9081909362089091292F891740F0A3
:10390000E0E6F8E085818F7D858381E080932C2F30
:10391000FF91EF91BF91AF919F918F910F900FBE4B
:103920000F901F90189588ED84BF81E0809300016F
:1039300008951F920F920FB60F9211242F933F9369
:103940004F935F936F937F938F939F93AF93BF93A7
:10395000EF93FF938091A90486FF05C080E48093D4
:10396000A9040E94931CFF91EF91BF91AF919F9189
:103970008F917F916F915F914F913F912F910F9018
:103980000FBE0F901F901895E0E4F4E088E0868366
:103990008183ADE8B0E21197F1F7000085830895C7
:1039A0005058BB27AA270E94E81C0C942C1E0E948A
:1039B0001E1E38F00E94251E20F039F49F3F19F496
:1039C00026F40C941B1E0EF4E095E7FB0C94151ED8
:1039D000E92F0E943D1E58F3BA1762077307840748
:1039E000950720F079F4A6F50C945F1E0EF4E0958F
:1039F0000B2EBA2FA02D0B01B90190010C01CA01A9
:103A0000A0011124FF27591B99F0593F50F4503E53
:103A100068F11A16F040A22F232F342F4427585F45
:103A2000F3CF469537952795A795F0405395C9F75D
:103A30007EF41F16BA0B620B730B840BBAF0915015
:103A4000A1F0FF0FBB1F661F771F881FC2F70EC0B4
:103A5000BA0F621F731F841F48F487957795679587
:103A6000B795F7959E3F08F0B0CF9395880F08F073
:103A70009927EE0F9795879508950E94F11D08F4F8
:103A800081E008950E94561D0C942C1E0E94251E54
:103A900058F00E941E1E40F029F45F3F29F00C945C
:103AA000151E51110C94601E0C941B1E0E943D1E8D
:103AB00068F39923B1F3552391F3951B550BBB275D
:103AC000AA2762177307840738F09F5F5F4F220FA2
:103AD000331F441FAA1FA9F335D00E2E3AF0E0E899
:103AE00032D091505040E695001CCAF72BD0FE2FE3
:103AF00029D0660F771F881FBB1F26173707480777
:103B0000AB07B0E809F0BB0B802DBF01FF2793582E
:103B10005F4F3AF09E3F510578F00C94151E0C94BF
:103B2000601E5F3FE4F3983ED4F3869577956795E2
:103B3000B795F7959F5FC9F7880F911D9695879563
:103B400097F90895E1E0660F771F881FBB1F621782
:103B500073078407BA0720F0621B730B840BBA0B40
:103B6000EE1F88F7E0950895E89409C097FB3EF4AE
:103B700090958095709561957F4F8F4F9F4F9923BA
:103B8000A9F0F92F96E9BB279395F6958795779538
:103B90006795B795F111F8CFFAF4BB0F11F460FFF8
:103BA0001BC06F5F7F4F8F4F9F4F16C0882311F050
:103BB00096E911C0772321F09EE8872F762F05C064
:103BC000662371F096E8862F70E060E02AF09A95FF
:103BD000660F771F881FDAF7880F9695879597F9F4
:103BE0000895990F0008550FAA0BE0E8FEEF16168E
:103BF0001706E807F907C0F012161306E407F507E1
:103C000098F0621B730B840B950B39F40A2661F054
:103C1000232B242B252B21F408950A2609F4A140F7
:103C2000A6958FEF811D811D089597F99F6780E804
:103C300070E060E008959FEF80EC089500240A94FE
:103C40001616170618060906089500240A94121677
:103C50001306140605060895092E0394000C11F4AA
:103C6000882352F0BB0F40F4BF2B11F460FF04C057
:103C70006F5F7F4F8F4F9F4F089557FD9058440FB0
:103C8000551F59F05F3F71F04795880F97FB991FBB
:103C900061F09F3F79F08795089512161306140678
:103CA000551FF2CF4695F1DF08C016161706180605
:103CB000991FF1CF86957105610508940895E894E0
:103CC000BB2766277727CB0197F908950E94F11D3E
:103CD00008F48FEF08950E947E1E0C942C1E0E9403
:103CE0001E1E38F00E94251E20F0952311F00C9422
:103CF000151E0C941B1E11240C94601E0E943D1E68
:103D000070F3959FC1F3950F50E0551F629FF0012E
:103D1000729FBB27F00DB11D639FAA27F00DB11D47
:103D2000AA1F649F6627B00DA11D661F829F2227D0
:103D3000B00DA11D621F739FB00DA11D621F839F57
:103D4000A00D611D221F749F3327A00D611D231F2D
:103D5000849F600D211D822F762F6A2F11249F577B
:103D600050409AF0F1F088234AF0EE0FFF1FBB1F7E
:103D7000661F771F881F91505040A9F79E3F51053D
:103D800080F00C94151E0C94601E5F3FE4F3983E87
:103D9000D4F3869577956795B795F795E7959F5FE7
:103DA000C1F7FE2B880F911D9695879597F9089579
:103DB000A0E1B0E0EEEDFEE10C9499227C011B0144
:103DC0006A01FC0116821782838181FF44C39E0130
:103DD0002F5F3F4F3901F7019381F10193FD8591E9
:103DE00093FF81911F01882309F431C3853239F48F
:103DF00093FD859193FF81911F01853239F4B701BD
:103E000090E00E944B2456016501E5CF10E0512C53
:103E1000912CFFE1F915D8F08B3279F038F480322B
:103E200079F08332A1F4F92DF0612EC08D3261F06A
:103E3000803369F4292D21602DC0392D3260932EF5
:103E4000892D8460982E2AC0E92DE86015C097FC62
:103E50002DC020ED280F2A3088F496FE06C03AE0E7
:103E6000139F200D1124122F19C08AE0589E200D97
:103E70001124522EE92DE0629E2E10C08E3231F4B4
:103E800096FCE5C2F92DF0649F2E08C08C3621F413
:103E9000292D2068922E02C0883641F4F10193FD4D
:103EA000859193FF81911F018111B3CF9BEB980FF7
:103EB000933020F4992D9061805E07C09BE9980FA4
:103EC000933008F066C1992D9F7E96FF16E09F7390
:103ED000992E853619F49064992E08C0863621F4FF
:103EE000392F3068932E02C01111115097FE07C070
:103EF0001C3350F444244394410E27E00BC0183087
:103F000038F027E017E005C027E09CE3492E02C007
:103F1000212F412C560184E0A80EB11CF6016081CE
:103F2000718182819381042DA3010E9436236C014B
:103F3000F981FC87F0FF02C0F3FF06C091FC06C0C8
:103F400092FE06C000E205C00DE203C00BE201C014
:103F500000E08C858C7019F001115AC29BC297FE4B
:103F600010C04C0CFC85F4FF04C08A81813309F435
:103F70004A94141474F528E0241578F588E0482E46
:103F80002CC096FC2AC0812F90E08C159D059CF0DA
:103F90003CEFC3163FEFD30674F0892D8068982E4E
:103FA0000AC0E2E0F0E0EC0FFD1FE10FF11D80819F
:103FB000803319F411501111F4CF97FE0EC0442430
:103FC0004394410E812F90E0C816D9062CF41C1999
:103FD00004C04424439401C010E097FE06C01C14A2
:103FE0001D0434F4C601019605C085E090E002C0CE
:103FF00081E090E001110196112331F0212F30E092
:104000002F5F3F4F820F931F252D30E082179307BC
:1040100014F4581A01C0512C892D897049F4552087
:1040200039F0B70180E290E00E944B245A94F7CF18
:10403000002329F0B701802F90E00E944B2493FCCD
:1040400009C0552039F0B70180E390E00E944B246D
:104050005A94F7CF97FE4CC04601D7FE02C0812C80
:10406000912CC60188199909F301E80FF91FED8712
:10407000FE879601241931092F87388B012F10E014
:104080001195019511093FEF8316930629F4B701A5
:104090008EE290E00E944B24C814D9044CF08F8526
:1040A00098898815990524F4ED85FE85818101C0E4
:1040B00080E3F1E08F1A91082D853E852F5F3F4FF9
:1040C0002D873E87801691062CF0B70190E00E9464
:1040D0004B24D9CFC814D90441F49A81963320F4E3
:1040E000953319F43C8534FF81E3B70190E04EC06D
:1040F0008A81813319F09C859F7E9C87B70190E06F
:104100000E944B24111105C094FC18C085E690E074
:1041100017C0B7018EE290E00E944B241E5F82E040
:1041200001E0080FF301E80FF11D8081B70190E075
:104130000E944B24802F0113F3CFE6CF85E490E05B
:10414000B7010E944B24D7FC06C0C114D10441F42E
:10415000EC85E4FF05C0D194C194D1088DE201C083
:104160008BE2B70190E00E944B2480E32AE0C21664
:10417000D1042CF08F5FFAE0CF1AD108F7CFB70146
:1041800090E00E944B24B701C601C0960E944B24C8
:1041900054C1833631F0833779F0833509F056C046
:1041A00020C0560132E0A30EB11CF6018081898344
:1041B00001E010E0630112C05601F2E0AF0EB11C45
:1041C000F601C080D18096FE03C0612F70E002C06E
:1041D0006FEF7FEFC6010E942B248C01F92DFF7732
:1041E00014C0560122E0A20EB11CF601C080D1809D
:1041F00096FE03C0612F70E002C06FEF7FEFC60133
:104200000E940E248C01F92DF0689F2EF3FD1AC038
:10421000852D90E008171907A8F4B70180E290E017
:104220000E944B245A94F4CFF60197FC859197FE97
:1042300081916F01B70190E00E944B2451105A9474
:10424000015011090115110579F7F7C0843611F0F5
:10425000893661F5560197FE09C024E0A20EB11C13
:10426000F60160817181828193810AC0F2E0AF0E14
:10427000B11CF60160817181072E000C880B990B2F
:10428000F92DFF769F2E97FF09C090958095709528
:1042900061957F4F8F4F9F4FF0689F2E2AE030E04F
:1042A000A3010E94A924C82EC6183FC0092D853736
:1042B00021F40F7E2AE030E01DC0097F8F3691F097
:1042C00018F4883559F0C3C0803719F0883711F0D9
:1042D000BEC0006104FF09C0046007C094FE08C0AE
:1042E000066006C028E030E005C020E130E002C0F2
:1042F00020E132E0560107FF09C084E0A80EB11C9E
:10430000F601608171818281938108C0F2E0AF0E75
:10431000B11CF6016081718180E090E0A3010E94F0
:10432000A924C82EC6180F77902E96FE0BC0092D13
:104330000E7FC11650F494FE0AC092FC08C0092DED
:104340000E7E05C0DC2C092D03C0DC2C01C0D12E53
:1043500004FF0DC0FE01EC0DF11D8081803311F4CE
:10436000097E09C002FF06C0D394D39404C0802FF5
:10437000867809F0D39403FD11C000FF06C01C2D00
:10438000D51480F4150D1D190DC0D51458F4B701BE
:1043900080E290E00E944B24D394F7CFD51410F420
:1043A0005D1801C0512C04FF10C0B70180E390E0FC
:1043B0000E944B2402FF17C001FD03C088E790E074
:1043C00002C088E590E0B7010CC0802F867859F0D4
:1043D00001FF02C08BE201C080E207FD8DE2B70160
:1043E00090E00E944B24C11638F4B70180E390E0BE
:1043F0000E944B241150F7CFCA94F301EC0DF11D2C
:104400008081B70190E00E944B24C110F5CF15C008
:10441000F4E0F51560F584E0581A93FE1FC0011111
:1044200027C02C8523FF2AC002E511E0392D307109
:10443000932EF8018491811124C0552009F4E4CC15
:10444000B70180E290E00E944B245A94F6CFF70126
:104450008681978126C08FEF9FEF23C0B70180E24E
:1044600090E00E944B245A945110F8CFD8CF512C91
:10447000B701802F90E00E944B24D3CF06E511E0D6
:10448000D5CF91108052B70190E00E944B240F5F6E
:104490001F4FCFCF23E0251510F483E0BDCF512C63
:1044A000C0CF6096E2E10C94B22297FB072E16F47F
:1044B000009407D077FD09D00E94CA2207FC05D0DE
:1044C0003EF4909581959F4F0895709561957F4F2B
:1044D0000895052E97FB1EF400940E94802257FD3C
:1044E00007D00E94DE2207FC03D04EF40C948022F9
:1044F00050954095309521953F4F4F4F5F4F089510
:1045000090958095709561957F4F8F4F9F4F08953F
:10451000EE0FFF1F0590F491E02D09940E940023F7
:10452000A59F900DB49F900DA49F800D911D112407
:1045300008952F923F924F925F926F927F928F9247
:104540009F92AF92BF92CF92DF92EF92FF920F9322
:104550001F93CF93DF93CDB7DEB7CA1BDB0BCDBF65
:10456000DEBF09942A88398848885F846E847D84F8
:104570008C849B84AA84B984C884DF80EE80FD800B
:104580000C811B81AA81B981CE0FD11DCDBFDEBFA9
:10459000ED010895AA1BBB1B51E107C0AA1FBB1F59
:1045A000A617B70710F0A61BB70B881F991F5A95BF
:1045B000A9F780959095BC01CD010895A1E21A2E2E
:1045C000AA1BBB1BFD010DC0AA1FBB1FEE1FFF1FB7
:1045D000A217B307E407F50720F0A21BB30BE40B07
:1045E000F50B661F771F881F991F1A9469F760954E
:1045F0007095809590959B01AC01BD01CF01089508
:10460000A29FB001B39FC001A39F700D811D112413
:10461000911DB29F700D811D1124911D08951F934E
:10462000FC0199278827BC01E89411911032E9F325
:10463000193010F01E30C8F31B3251F01D3249F40E
:10464000689406C00E943624610F711D811D911D62
:10465000119110531A30B0F33EF4909580957095F7
:1046600061957F4F8F4F9F4F1F910895283008F01D
:1046700027E03327DA01990F311D87FD91600096FD
:104680006105710539F432602E5F3D9330E32A9560
:10469000E1F708959F3F30F080387105610509F01A
:1046A0003C5F3C5F3D93913008F08068911DDF9343
:1046B000CF931F930F93FF92EF92192F987F9695A8
:1046C000E92F96959695E90FFF27EC54FE4F992711
:1046D0003327EE24FF24A701E701059008940794EF
:1046E00028F4360FE71EF81E491F511D660F771F6D
:1046F000881F991F0694A1F70590079428F4E70EE8
:10470000F81E491F561FC11D770F881F991F661F6E
:104710000694A1F70590079428F4F80E491F561F38
:10472000C71FD11D880F991F661F771F0694A1F719
:104730000590079420F4490F561FC71FD81F990FE3
:10474000661F771F881F0694A9F78491109517702C
:1047500041F0D695C79557954795F794E7941A95E4
:10476000C1F7EAE5F1E068941590159135916591EE
:10477000959105907FE27395E118F10A430B560B72
:10478000C90BD009C0F7E10CF11E431F561FC91F0A
:10479000D01D7EF4703311F48A95E6CFE894015071
:1047A00030F0080F0AF40027021708F4202F239591
:1047B000022F7A3328F079E37D932A95E9F710C028
:1047C0007D932A9589F60694979567953795179561
:1047D0001794E118F10A430B560BC90BD00998F056
:1047E00023957E9173957A3308F070E37C932013C0
:1047F000B8F77E9170617D9330F0839571E37D937E
:1048000070E32A95E1F71124EF90FF900F911F912B
:10481000CF91DF91992787FD90950895FC01059030
:10482000615070400110D8F7809590958E0F9F1FB2
:104830000895FB01DC010D900020E9F7119701902C
:104840000D920020E1F70895FB01DC0101900D922B
:104850000020E1F70895FC016150704001900110C3
:10486000D8F7809590958E0F9F1F0895592F482F48
:10487000372F262F660F771F881F991F660F771F08
:10488000881F991F620F731F841F951F660F771F64
:10489000881F991F08950F931F93CF93DF93FB01F8
:1048A000238121FD03C08FEF9FEF2CC022FF16C094
:1048B00046815781248135814217530744F4A081F2
:1048C000B1819D012F5F3F4F208331838C932681DF
:1048D00037812F5F3F4F2683378314C08B01EC0154
:1048E000FB010084F185E02D0995892BE1F6D801C3
:1048F00016968D919C911797019616968D939C9381
:104900001797CE01DF91CF911F910F910895AEE0DF
:10491000B0E0EDE8F4E20C94A7220D891E8986E050
:104920008C8309831A838FEF9FE78D839E83AE016B
:10493000475E5F4F6F89788DCE0101960E94D81E29
:10494000EF81F885E00FF11F10822E96E4E00C94C1
:10495000C022FA01AA27283051F1203181F1E894D0
:104960006F936E7F6E5F7F4F8F4F9F4FAF4FB1E062
:104970003ED0B4E03CD0670F781F891F9A1FA11D5D
:10498000680F791F8A1F911DA11D6A0F711D811D5E
:10499000911DA11D20D009F468943F912AE0269F23
:1049A00011243019305D3193DEF6CF010895462F82
:1049B0004770405D4193B3E00FD0C9F7F6CF462F63
:1049C0004F70405D4A3318F0495D31FD40524193CC
:1049D00002D0A9F7EACFB4E0A69597958795779589
:1049E0006795BA95C9F700976105710508959B0110
:1049F000AC010A2E06945795479537952795BA9599
:104A0000C9F7620F731F841F951FA01D0895605082
:104A10007C4E0C944225DC01A40FB51F4150504040
:104A200048F0CB01840F951F2E910E941C25415008
:104A30005040D0F70895262F0E943E250080021690
:104A400019F00E942725019701970895262FAF930B
:104A5000BF93E0E0F0E1328131FDFDCFDC01A050F9
:104A6000BC4E2C932DE924BF23E020830196BF91F7
:104A7000AF91089503D0808199270895FC01E050FB
:104A8000FC4E0895FB01DC0102C001900D924150E3
:0A4A90005040D8F70895F894FFCFC6
:104A9A0024532564257300434D442C25732C257318
:104AAA000043616E2774207265626F6F742C206DEB
:104ABA006F746F72206D6F76696E67004E6F742027
:104ACA006120636F6D6D616E64003230253032781B
:104ADA002D253032782D2530327854253032783AE7
:104AEA00253032783A25303278006765745F746908
:104AFA006D6520445333323331004461746554691F
:104B0A006D653F007075745F74696D652044533339
:104B1A0032333100323032312D30332D32310045CB
:104B2A0052522C25642C25730054696D65205365F7
:104B3A00743F00737065634D6563682056657273D0
:104B4A00696F6E004D4350323330303820726561E0
:104B5A0064206572726F72004D43503233303038C0
:104B6A00207772697465206572726F72002A253027
:104B7A0032580D0A0020202020202020202020202A
:104B8A00202020202000626F7468006C6566740023
:104B9A007269676874007368757474657200636C0F
:104BAA006F73655F504E455520626164206F626A7B
:104BBA0065637400636C6F736520776861743F0086
:104BCA00436C6F7365202573006F70656E5F504E7E
:104BDA00455520626164206F626A656374006F7074
:104BEA00656E20776861743F004F70656E2025738B
:104BFA000054656D7020262048756D696469747962
:104C0A000025312E3166432025312E306646202577
:104C1A00312E30662525004F7269656E746174699C
:104C2A006F6E0054696D6500526564566163202099
:104C3A00426C7565566163007265706F72743A20D2
:104C4A00756E6B6E6F776E206F626A65637400456E
:104C5A004E562C25732C25332E31662C432C2531A8
:104C6A002E30662C25252C25332E31662C432C25F7
:104C7A00312E30662C25252C25332E31662C432CDB
:104C8A0025312E30662C25252C25332E31662C43D2
:104C9A002C2573004D54522C25732C25632C256C1E
:104CAA00642C6D6963726F6E732C256C642C6D694C
:104CBA0063726F6E732F7365632C25642C6D412CA0
:104CCA002573004D54562C25732C25632C25332E21
:104CDA0031662C562C25332E31662C432C25730035
:104CEA004F52492C25732C25332E31662C25332E11
:104CFA0031662C25332E31662C25730025322E3051
:104D0A00662025322E30662025322E306600504E1F
:104D1A00552C25732C25632C736875747465722C55
:104D2A0025632C6C6566742C25632C72696768741C
:104D3A002C25632C6169722C2573006C6566743AA4
:104D4A00256320202072696768743A2563007368B6
:104D5A0075747465723A256320206169723A256315
:104D6A000054494D2C25732C25732C7365742C25FE
:104D7A00732C626F6F742C2573005641432C257374
:104D8A002C25352E32662C7265647661632C2535A6
:104D9A002E32662C626C75657661632C257300254C
:104DAA00322E3266202025322E3266005645522C8B
:104DBA0025732C25732C2573006765745F4D4F543A
:104DCA004F52456E636F6465722074696D656F75C5
:104DDA0074006765745F4D4F544F52456E636F643C
:104DEA0065722043524300524F424F466C6F6174C2
:104DFA002074696D656F7574006765745F4D4F54F3
:104E0A004F52466C6F617420435243006765745F6A
:104E1A004D4F544F52496E7433322074696D656F29
:104E2A007574006765745F4D4F544F52496E743301
:104E3A003220435243206572726F72006D6F76653D
:104E4A005F4D4F544F524162736F6C757465207495
:104E5A00696D656F7574006D6F76655F4D4F544F60
:104E6A00524162736F6C7574652061636B006D6F7C
:104E7A0076655F4D4F544F5220756E6B6E6F776E2D
:104E8A00206D6F746F72006D6F76655F4D4F544F72
:104E9A0052206E6F20706F736974696F6E206F7223
:104EAA0020696E6372656D656E7400656E63766106
:104EBA006C3D256C640D0A00696E69745F4D4F5430
:104ECA004F5253007365743A206261642074696DAD
:104EDA006520666F726D617400736574207768610E
:104EEA00743F005457492062757300545749206132
:0B4EFA0072626974726174696F6E006F
:044F050001010100A5
:00000001FF
