:100000000C94D1000C94EE000C94EE000C94EE00D5
:100010000C94EE000C94EE000C94EE000C94EE00A8
:100020000C94EE000C94EE000C94EE000C94EE0098
:100030000C94EE000C94EE000C94EE000C94EE0088
:100040000C94EE000C94FC030C9430040C94EE0021
:100050000C94EE000C94EE000C94EE000C94EE0068
:100060000C94EE000C94EE000C9460040C94950437
:100070000C94EE000C94EE000C94EE000C94EE0048
:100080000C94EE000C94EE000C94EE000C94EE0038
:100090000C94EE000C94C3040C94F8040C94EE0041
:1000A0006E616E00696E660000407A10F35A00A01F
:1000B000724E18090010A5D4E80000E87648170031
:1000C00000E40B54020000CA9A3B000000E1F50571
:1000D000000080969800000040420F000000A086BB
:1000E00001000000102700000000E80300000000ED
:1000F0006400000000000A00000000000100000091
:1001000000002C76D888DC674F0823DFC1DFAE59AA
:10011000E1B1B796E5E3E453C63AE651997696E83D
:10012000E6C28426EB898C9B62ED407C6FFCEFBCC1
:100130009C9F40F2BAA56FA5F490055A2AF75C93EC
:100140006B6CF9676DC11BFCE0E40D47FEF520E622
:10015000B500D0ED902E0300943577050080841E05
:10016000080000204E0A000000C80C333333330F60
:10017000986E12831141EF8D2114893BE65516CFFD
:10018000FEE6DB18D1844B381BF77C1D901DA4BB09
:10019000E424203284725E228100C9F124ECA1E5BE
:1001A0003D2711241FBECFEFCDBFDFE3DEBF18E236
:1001B000A0E0B8E2EBECF8E202C005900D92A230AC
:1001C000B107D9F72BE2A2E0B8E201C01D92A0323C
:1001D000B207E1F70E945C0C0C94FD130C94000034
:1001E000E0E0F4E088E0808B818B828B838B848BD2
:1001F000858B868B878BE0E2F4E0808B818B828B12
:10020000838B848B858BE0E4F4E0808B818B828B05
:10021000838B848B858B868B878BE0E6F4E094E080
:10022000908B918B928B938B948B958B968B978BDA
:10023000E0E8F4E0808B818B828B838BE0EAF4E052
:10024000808B818B828B838B848B858B868B0895AF
:10025000E0EAF4E080E2858381830895E0EAF8E053
:100260008BE0868383818160838385818160858340
:1002700008958091A508882334F0E0EAF8E00000B2
:1002800085818823E4F7E0EAF8E084818B7F84832A
:10029000808594819260948308958091A508882335
:1002A00034F0E0EAF8E0000085818823E4F7E0EA32
:1002B000F8E084818460848380850895613011F43E
:1002C000816001C08E7FE0EAF8E087838581807CD1
:1002D00021F400008581807CE1F38091A50882FDF6
:1002E0000BC08091A50883FD09C09091A508892FB6
:1002F000807194FD05C0089581E0089582E008951D
:1003000084E008959091A50896FD06C0E0EAF8E023
:100310000000958196FFFCCFE0EAF8E080878581B8
:1003200086FD04C00000858186FFFCCF9091A50862
:10033000892F807194FD83E008950F931F93CF93CD
:10034000DF93C82FD62F8A0160E00E945E018111E1
:1003500015C08D2F0E948201811110C061E08C2F89
:100360000E945E01C82F811109C00E944D01F80151
:10037000808387E08093A4088C2F00C0DF91CF9109
:100380001F910F910895CF93DF93C62FD42F60E074
:100390000E945E01882321F097E09093A40816C084
:1003A0008C2F0E948201882321F097E09093A4086B
:1003B0000DC08D2F0E948201882321F097E0909339
:1003C000A40804C087E08093A40880E0DF91CF9167
:1003D000089540E060E080E40E94C301811105C0FF
:1003E00040E06AE080E40E94C30108950F931F93E8
:1003F000CF93DF931F92CDB7DEB7082F162FAE0134
:100400004F5F5F4F69E080E40E949D01811107C04A
:100410004981402B41236AE080E40E94C3010F9090
:10042000DF91CF911F910F910895CF92DF92EF92BC
:10043000FF920F931F93CF93DF93C82F162FD42FC4
:10044000022F60E00E945E01882371F097E0909394
:10045000A408682F70E080E090E00E94540D562FB1
:10046000472F382F292FCBC081E00E94820188239B
:1004700071F097E09093A408682F70E080E090E01E
:100480000E94540D562F472F382F292FB8C08D2F7B
:100490008168812B0E948201882371F097E09093FC
:1004A000A408682F70E080E090E00E94540D562F61
:1004B000472F382F292FA3C0802F0E948201882325
:1004C00071F097E09093A408682F70E080E090E0CE
:1004D0000E94540D562F472F382F292F90C087E0A8
:1004E0008093A4088CE18A95F1F761E08C2F0E943B
:1004F0005E010E944D018823C4F70F2EF0EAEF2E13
:10050000F8E0FF2EF02DD7E0F701D48360E08C2FC8
:100510000E945E0180E00E94820161E08C2F0E94B7
:100520005E010E943901C82F0E944D01F701D4835A
:100530006C2F70E0762F6627682B143019F128F4A1
:100540001123B1F1123049F13EC0183029F01A30B0
:10055000F1F11630C1F50BC00F2EF1E7CF2EF3E10C
:10056000DF2EF3E8EF2EF7E3FF2EF02D3AC00F2E2B
:10057000F4E7CF2EF3E1DF2EF3E0EF2EF8E3FF2ECA
:10058000F02D2FC00F2EF2E1CF2EF3E1DF2EF3E896
:10059000EF2EF8E3FF2EF02D24C00F2EF4E7CF2E20
:1005A000F3E1DF2EF3E0EF2EF9E3FF2EF02D19C07B
:1005B0000F2EFEE2CF2EFDE9DF2EF4E4EF2EF9E35D
:1005C000FF2EF02D0EC0C12CD12C76010AC00F2EAB
:1005D000F4E7CF2EF3E1DF2EF3E0EF2EF7E3FF2E6B
:1005E000F02D072E000C880B990B0E94560DA701C9
:1005F00096010E94E20D562F472F382F292F652F85
:10060000742F832F922FDF91CF911F910F91FF9025
:10061000EF90DF90CF900895CF93813031F068F064
:10062000823029F0833029F006C0C0E407C0C0E260
:1006300005C0C0EE03C0C0E001C0C0E840E066E015
:1006400080E40E94C3014C2F409560E080E40E944A
:10065000C3014C2F6AE080E40E94C30186E18A95C1
:10066000F1F7000020E840E668E080E90E9415020A
:10067000CF910895E0E0F4E081E085838183E0E0BC
:10068000F8E02DE635E020873187958190689583E5
:1006900096819064968396819068968310928C29B7
:1006A00010928D2980939029109207291092082981
:1006B0001092872810920B29E0E4F4E0858381836F
:1006C000E0E2F8E0208731879681906496839681F6
:1006D0009068968380931F2B10928628E0E2F4E0C6
:1006E00085838183E0E6F8E02087318796819064F6
:1006F000968396819068968380939A2A1092152A01
:100700000895CF93DF93813039F048F0833009F0BA
:1007100070C041114CC068C0411126C042C0442382
:10072000E9F0FB01415050E04F5F5F4F640F751FD0
:10073000ACE8B9E28C9190E02191EC01C45FD64D18
:10074000288301968F779078992324F40197806805
:100750009F6F01968C936E177F0761F7E0E0F8E0DA
:1007600085818062858345C0FB01415050E04F5F29
:100770005F4F640F751FABE1BBE28C9190E021915C
:10078000EC01C556D54D288301968F779078992333
:1007900024F4019780689F6F01968C936E177F07F2
:1007A00061F7E0E2F8E085818062858322C0FB0189
:1007B000415050E04F5F5F4F640F751FA6E9BAE2EA
:1007C0008C9190E02191EC01CA5ED54D2883019671
:1007D0008F779078992324F4019780689F6F019612
:1007E0008C936E177F0761F7E0E6F8E08581806201
:1007F0008583DF91CF9108951F920F920FB60F92CC
:1008000011248F939F93EF93FF93809100088D3075
:1008100051F481E080930B29E0910729F0E0E9573A
:10082000F74D108206C0E0910729F0E0E957F74D37
:100830008083E7E0F9E2808190E001968F779078FD
:10084000992324F4019780689F6F01968083FF911C
:10085000EF919F918F910F900FBE0F901F90189561
:100860001F920F920FB60F9211248F939F93EF93C5
:10087000FF93E0E0F8E085818F7D8583E0918D290D
:1008800080918C298E1781F081E08E0FF0E0E45F7B
:10089000F64D9081E0E0F8E092838F7780938D2988
:1008A00085818062858303C081E080939029FF91D8
:1008B000EF919F918F910F900FBE0F901F90189501
:1008C0001F920F920FB60F9211248F939F93AF93A5
:1008D000BF93EF93FF93809120088D3021F0E0913A
:1008E0008528EF3778F081E080938628A5E8B8E284
:1008F0008C91E82FF0E0EE5FF74D10828093842812
:100900001C9208C091E09E0F90938528F0E0EE5F66
:10091000F74D8083FF91EF91BF91AF919F918F91A0
:100920000F900FBE0F901F9018951F920F920FB649
:100930000F9211248F939F93AF93BF93EF93FF93E5
:10094000AEE1BBE2EC9181E08E0F8C93F0E0E556D6
:10095000F54D90819093220890911D2B891740F0BE
:10096000E0E2F8E085818F7D858381E080931F2B15
:10097000FF91EF91BF91AF919F918F910F900FBE1B
:100980000F901F9018951F920F920FB60F9211247F
:100990008F939F93AF93BF93EF93FF9380916008E2
:1009A0008D3021F0E091142AEF3778F081E08093C8
:1009B000152AA4E1BAE28C91E82FF0E0EF56F64D4B
:1009C00010828093132A1C9208C091E09E0F90938E
:1009D000142AF0E0EF56F64D8083FF91EF91BF911E
:1009E000AF919F918F910F900FBE0F901F90189510
:1009F0001F920F920FB60F9211248F939F93AF9374
:100A0000BF93EF93FF93A9E9BAE2EC9181E08E0FD7
:100A10008C93F0E0EA5EF54D90819093620890919E
:100A2000982A891740F0E0E6F8E085818F7D85837C
:100A300081E080939A2AFF91EF91BF91AF919F91AE
:100A40008F910F900FBE0F901F901895AF92BF928D
:100A5000CF92DF92EF92FF920F931F93CF93DF938A
:100A6000C82FE62ED72F8A01F22E60E00E945E0189
:100A7000811133C08D2F0E94820181112EC08E2DD5
:100A80000E948201811129C061E08C2F0E945E01C9
:100A9000811123C0AF2CB12C81E0A81AB1081A141F
:100AA0001B0474F4C0E06801CC0ED11C0E94390113
:100AB000F6018083CF5F8C2F90E08A159B059CF315
:100AC0008F2D90E00197E801C80FD91F0E944D01BA
:100AD000888387E08093A40880E0DF91CF911F9105
:100AE0000F91FF90EF90DF90CF90BF90AF9008955F
:100AF000EF92FF920F931F93CF93DF93D62FC72FC1
:100B00007A01022F60E00E945E0181111FC08C2FCC
:100B10000E94820181111AC08D2F0E9482018111D1
:100B200015C0002379F0E701015010E00F5F1F4F5F
:100B30000E0D1F1D89910E948201811107C0C017EF
:100B4000D107C1F787E08093A40880E0DF91CF91BF
:100B50001F910F91FF90EF900895FB0120811F924C
:100B60002F9321811F922F9322811F922F932481F3
:100B70001F922F9325811F922F9326811F922F93CF
:100B80002EEF37E63F932F939F938F930E94391355
:100B90008DB79EB740968DBF9EBF0895DC01FB01C7
:100BA0008189982F9295907F82898053892B8C938D
:100BB0008685982F9295907F87858053892B1196F3
:100BC0008C9311978385982F9295907F848580537D
:100BD000892B12968C93129781E013968C9313971E
:100BE0008085982F9295907F81858053892B1496CC
:100BF0008C9314978581982F9295907F868180534E
:100C0000892B15968C9315978281982F9295907FBA
:100C100083818053892B16968C930895EF92FF92CF
:100C20000F931F93CF93DF937B0160E00E945E01DF
:100C3000882321F097E09093A40825C080E00E94CB
:100C40008201882321F097E09093A4081CC061E002
:100C500080ED0E945E01882321F097E09093A40824
:100C600012C0E70187010A5F1F4F0E943901899373
:100C7000C017D107D1F70E944D01F701868387E0A5
:100C80008093A40880E0DF91CF911F910F91FF9096
:100C9000EF9008950F931F93CF93DF93CDB7DEB7F7
:100CA0002797CDBFDEBF8C01BE016F5F7F4F80ED08
:100CB0000E940E06882349F092E1EFE1F8E6D801A0
:100CC00001900D929A95E1F707C0BE016F5F7F4FCB
:100CD000C8010E94AD0580E02796CDBFDEBFDF9141
:100CE000CF911F910F9108950F931F93CF93DF938F
:100CF0008B0160E00E945E01882321F097E09093D1
:100D0000A4081CC080E00E948201882321F097E0A3
:100D10009093A40813C0E801095F1F4F89910E94B6
:100D20008201882321F097E09093A40807C00C1754
:100D30001D07A1F787E08093A40880E0DF91CF91A1
:100D40001F910F910895CF93DF93CDB7DEB727970B
:100D5000CDBFDEBFBC01CE0101960E94CE05BE0113
:100D60006F5F7F4F80ED0E9474062796CDBFDEBF78
:100D7000DF91CF910895EF92FF920F931F93CF933E
:100D8000DF93CDB7DEB72E97CDBFDEBF8C0188E0F5
:100D9000E1E3F8E6DE01119601900D928A95E1F704
:100DA000F80101900020E9F731973E2F301B3230D7
:100DB00050F0F801319690E081E0219192278F5F09
:100DC0003813FBCF01C090E01F929F93CE01019694
:100DD0009F938F937E0189E0E80EF11CFF92EF92C2
:100DE0000E943913B701C8010E94E0120F900F90C2
:100DF0000F900F900F900F902E96CDBFDEBFDF911A
:100E0000CF911F910F91FF90EF900895CF93DF93B3
:100E1000CDB7DEB72C97CDBFDEBF2CE0E9E3F8E617
:100E2000DE01119601900D922A95E1F7BE016F5FE8
:100E30007F4F0E94EB122C96CDBFDEBFDF91CF918A
:100E40000895CF93DF93D62FC42F60E00E945E01F8
:100E50008D2F0E9482018C2F0E94820187E0809357
:100E6000A408DF91CF910895CF9381110DC0E0E8E0
:100E7000F4E081E086838183A1E4B3E01197F1F788
:100E800000008583C8E70CC0E0E8F4E082E08683D8
:100E90008183A1E4B3E01197F1F700008583CAE7ED
:100EA0004AE260E08C2F0E94210741E760E08C2F2E
:100EB0000E9421074CE560E48C2F0E94210748E244
:100EC00060E08C2F0E94210748E060E08C2F0E9498
:100ED00021074AE260E08C2F0E94210749E760E089
:100EE0008C2F0E94210745ED60E08C2F0E94210786
:100EF00040E760E08C2F0E94210748E760E08C2FDC
:100F00000E94210748E060E08C2F0E94210746E004
:100F100060E08C2F0E94210742E760E08C2F0E9446
:100F2000210740E060E48C2F0E9421074AE260E044
:100F30008C2F0E94210749E760E08C2F0E94210737
:100F40004AED60E08C2F0E94210740E060E08C2F8A
:100F50000E9421074CED60E08C2F0E94210740E0A9
:100F600060E08C2F0E94210741E860E08C2F0E94F6
:100F700021074FE760E08C2F0E94210749ED60E0D8
:100F80008C2F0E94210741EF60E08C2F0E942107E7
:100F90004BED60E08C2F0E94210740E460E08C2F35
:100FA0000E94210748E760E08C2F0E94210748E259
:100FB00060E08C2F0E94210741E060E08C2F0E94AE
:100FC000210740E860E08C2F0E9421074CE060E0A0
:100FD0008C2F0E942107BAE624E081E0B150204026
:100FE0008040E1F700C0CF910895CF92DF92FF9249
:100FF0000F931F93CF93DF93CDB7DEB7E297CDBFAB
:10100000DEBF142F91E1E5E4F8E6DE01929601904F
:101010000D929A95E1F7882329F00F2EFAE7FF2E1B
:10102000F02D04C00F2EF8E7FF2EF02DCE01019613
:101030000E94EB12BE016E5D7F4FCE0101960E94B1
:10104000E012113031F440E860E08F2D0E9421075A
:1010500011C040EC60E08F2D0E9421070BC0F80109
:1010600041918F0160E48F2D0E9421070C151D0511
:10107000B1F708C08E010F5F1F4F6E01F1E1CF0E77
:10108000D11CEDCFE296CDBFDEBFDF91CF911F9196
:101090000F91FF90DF90CF90089545E150E06BE015
:1010A00070E00E94B91308954BE050E060E070E0FA
:1010B0000E94B9130895CF93DF93CDB7DEB765973C
:1010C000CDBFDEBFCE0101960E944A0645E150E049
:1010D0006BE070E0CE0101960E94BD136596CDBF16
:1010E000DEBFDF91CF910895CF93DF93CDB7DEB709
:1010F0002B97CDBFDEBF8BE0E6E5F8E6DE0111966B
:1011000001900D928A95E1F74BE050E060E070E0CD
:10111000CE0101960E94BD132B96CDBFDEBFDF919D
:10112000CF9108950E945B080E947408089588ED8D
:1011300084BF81E08093000108950E940C0320E0A9
:1011400030E04AE754E40E94E20D23E333E948E843
:1011500053E40E94750C08958F929F92AF92BF92B4
:10116000CF92DF92EF92FF92813059F018F08230E7
:1011700079F015C080E00E949D084B015C0140E5BC
:1011800017C081E00E949D084B015C0140E610C041
:1011900082E00E949D084B015C0140E709C00F2ED0
:1011A000812C912CF0EAAF2EF1E4BF2EF02D40E51A
:1011B00020E860E080E90E94150220E030E040EA8B
:1011C00050E40E94E20C2AE037ED43E25EE30E9425
:1011D000750C2FE539E24BEC5BE30E94E20C6B01EE
:1011E0007C0129EC3EE84DE05BE3C501B4010E94BF
:1011F000E20D9B01AC0162E27DEF86E89FE30E9475
:10120000750C9B01AC01C701B6010E94E20CFF9076
:10121000EF90DF90CF90BF90AF909F908F90089508
:10122000FC0181818C3699F018F4823631F021C0AE
:10123000823799F08337B9F01CC06AEE84E40E94CB
:10124000F60166EE88E80E94F60180E008956AEEF5
:1012500084E40E94F60180E0089566EE88E80E942A
:10126000F60180E008956CEE82E20E94F60180E0D3
:10127000089582E00895FC0181818C3699F018F47C
:10128000823631F021C0823799F08337B9F01CC023
:101290006EEA84E40E94F6016EE688E80E94F60198
:1012A00080E008956EEA84E40E94F60180E00895EB
:1012B0006EE688E80E94F60180E008956EEC82E216
:1012C0000E94F60180E0089582E008952F923F92F7
:1012D0004F925F926F927F928F929F92AF92BF9246
:1012E000CF92DF92EF92FF920F931F93CF93DF93F2
:1012F000CDB7DEB7CB5CD109CDBFDEBF2BE0E1E6D9
:10130000F8E6DE01AE58BF4F01900D922A95E1F745
:101310002BE0ECE6F8E6DE01A358BF4F01900D92FA
:101320002A95E1F72BE0E7E7F8E6DE01A857BF4F83
:1013300001900D922A95E1F725E3E2E8F8E6DE0157
:10134000AD56BF4F01900D922A95E1F7FC018181C6
:101350008536A1F118F4823641F006C1843709F4CC
:10136000B1C0863709F4D7C0FFC08E010E5A1F4F97
:10137000C8010E944D081F930F931F9282E08F9324
:10138000CE018E589F4F9F938F93015511091F9344
:101390000F930E943913C8010E94BB06F801019007
:1013A0000020E9F73197AF01401B510BB80180E0F5
:1013B0000E948103CDBFDEBF80E0D7C080E00E94E5
:1013C0009D08C853DF4F6883C85CD040C753DF4FC8
:1013D0007883C95CD040C653DF4F8883CA5CD04055
:1013E000C553DF4F9883CB5CD04080E00E94AC08AF
:1013F000162F072FF82EE92E81E00E949D08D62E89
:10140000C72EB82EA92E81E00E94AC08962E872EFA
:10141000782E692E82E00E949D08562E472E382E87
:10142000292E82E00E94AC089F938F937F936F9345
:101430002F923F924F925F926F927F928F929F92E4
:10144000AF92BF92CF92DF92EF92FF920F931F93D2
:10145000C553DF4F9881CB5CD0409F93C653DF4F7D
:10146000E881CA5CD040EF93C753DF4FF881C95C75
:10147000D040FF93C853DF4F8881C85CD0408F9322
:101480001F9282E08F93CE018D569F4F9F938F9333
:101490008E010F5F1F4F1F930F930E943913C801D6
:1014A0000E94BB06F80101900020E9F73197AF01D7
:1014B000401B510BB80180E00E948103CDBFDEBF0D
:1014C00080E053C08E010E5A1F4FC8010E944A0689
:1014D0001F930F931F9282E08F93CE0183589F4FEB
:1014E0009F938F93015511091F930F930E943913F6
:1014F000C8010E94BB06F80101900020E9F731976E
:10150000AF01401B510BB80180E00E948103CDBFA9
:10151000DEBF80E02AC08E0109591F4FC8010E941A
:1015200054081F930F931F9282E08F93CE01885728
:101530009F4F9F938F93065611091F930F930E94FD
:101540003913C8010E94BB06F80101900020E9F799
:101550003197AF01401B510BB80180E00E9481031D
:10156000CDBFDEBF80E001C082E0C553DF4FCDBFFD
:10157000DEBFDF91CF911F910F91FF90EF90DF9031
:10158000CF90BF90AF909F908F907F906F905F9023
:101590004F903F902F9008950F931F93CF93DF9319
:1015A000CDB7DEB76D97CDBFDEBF2EE330E0298328
:1015B0003A8321E230E02B833C83813009F43FC041
:1015C00018F08230B9F051C08E010B5F1F4FBE0181
:1015D0006F5F7F4FC8010E94EB12F801019000205D
:1015E000E9F73197AF01401B510BB80180E00E9431
:1015F000810350C08E010B5F1F4FC8010E94060778
:10160000F80101900020E9F73197AF01401B510B21
:10161000B80180E00E948103BE016F5F7F4FC80167
:101620000E94EB12F80101900020E9F73197AF0119
:10163000401B510BB80180E00E9481032BC08E013A
:101640000B5F1F4FBE016D5F7F4FC8010E94EB1201
:10165000F80101900020E9F73197AF01401B510BD1
:10166000B80180E00E94810315C08E010B5F1F4FFF
:10167000BE016D5F7F4FC8010E94EB12F80101901F
:101680000020E9F73197AF01401B510BB80180E012
:101690000E9481036D96CDBFDEBFDF91CF911F9178
:1016A0000F910895FC012181243729F402960E94AC
:1016B000A30680E0089582E008950F931F93CF93CF
:1016C000DF93CDB7DEB7CC5BD109CDBFDEBF2091B4
:1016D000082930E0F901E957F74D90819D8B2F5F84
:1016E0003F4F2F773078332334F42150310920686D
:1016F0003F6F2F5F3F4F822F20930829992309F4D2
:10170000CCC021E090E0FC01E957F74D3081E5E1E4
:10171000F0E0EC0FFD1FE20FF11D308301968F7793
:101720009078992324F4019780689F6F0196311176
:1017300003C08093082904C02F5F22F780930829F3
:1017400080910028882369F08D89813231F41092CC
:10175000002880E00E94CC0AA6C081E00E94CC0A4A
:10176000A2C08D89853611F168F4853441F120F4E9
:10177000882309F48EC013C0823509F481C08336F2
:1017800081F00DC08F3609F471C018F4863601F16E
:1017900006C0823709F46FC0833709F475C082E050
:1017A00079C0CE0145960E94100974C041E0BE0187
:1017B0006A5E7F4F80E00E94F50780E06BC042E0E8
:1017C000BE016A5E7F4F80E00E94F50780E062C044
:1017D00081E5898382E48A8388E58B8384E48C8332
:1017E00085E48D8386E48E8387E48F8388E488870D
:1017F00089E489871A862AE0AE014F5F5F4F60E077
:1018000070E080EA0E947805FE013B96CE01459685
:1018100011928E179F07E1F78E01055F1F4F2AE097
:10182000A80160E070E080EA0E9426051F930F93F4
:1018300087EB98E69F938F9306571F4F1F930F9345
:101840000E943913F80101900020E9F73197AF01A8
:10185000401B510BB80180E00E9481030F900F9054
:101860000F900F900F900F9080E014C0CE0145961E
:101870000E943B090FC0CE0145960E9466090AC02E
:101880000E94970880E006C0CE0145960E94520B48
:1018900001C080E00E94CC0A06C080910028882305
:1018A00009F45FCF5ACFC454DF4FCDBFDEBFDF9105
:1018B000CF911F910F9108950E94F0000E9428017E
:1018C0000E942E010E94E9010E943A0380E00E94DA
:1018D00034070E9492087894CBE0D9E2888188236B
:1018E000E9F318820E945D0BF9CF5058BB27AA2755
:1018F0000E948D0C0C94A80D0E949A0D38F00E9445
:10190000A10D20F039F49F3F19F426F40C94970DA3
:101910000EF4E095E7FB0C94910DE92F0E94B90DB0
:1019200058F3BA17620773078407950720F079F414
:10193000A6F50C94DB0D0EF4E0950B2EBA2FA02D1E
:101940000B01B90190010C01CA01A0011124FF276C
:10195000591B99F0593F50F4503E68F11A16F04067
:10196000A22F232F342F4427585FF3CF4695379566
:101970002795A795F0405395C9F77EF41F16BA0B2B
:10198000620B730B840BBAF09150A1F0FF0FBB1FD9
:10199000661F771F881FC2F70EC0BA0F621F731F22
:1019A000841F48F4879577956795B795F7959E3F7F
:1019B00008F0B0CF9395880F08F09927EE0F979510
:1019C000879508950E94F60C0C94A80D0E94A10D15
:1019D00058F00E949A0D40F029F45F3F29F00C94D2
:1019E000910D51110C94DC0D0C94970D0E94B90DC2
:1019F00068F39923B1F3552391F3951B550BBB273E
:101A0000AA2762177307840738F09F5F5F4F220F82
:101A1000331F441FAA1FA9F335D00E2E3AF0E0E879
:101A200032D091505040E695001CCAF72BD0FE2FC3
:101A300029D0660F771F881FBB1F26173707480757
:101A4000AB07B0E809F0BB0B802DBF01FF2793580F
:101A50005F4F3AF09E3F510578F00C94910D0C9435
:101A6000DC0D5F3FE4F3983ED4F386957795679558
:101A7000B795F7959F5FC9F7880F911D9695879544
:101A800097F90895E1E0660F771F881FBB1F621763
:101A900073078407BA0720F0621B730B840BBA0B21
:101AA000EE1F88F7E0950895E89409C097FB3EF48F
:101AB00090958095709561957F4F8F4F9F4F99239B
:101AC000A9F0F92F96E9BB279395F6958795779519
:101AD0006795B795F111F8CFFAF4BB0F11F460FFD9
:101AE0001BC06F5F7F4F8F4F9F4F16C0882311F031
:101AF00096E911C0772321F09EE8872F762F05C045
:101B0000662371F096E8862F70E060E02AF09A95DF
:101B1000660F771F881FDAF7880F9695879597F9D4
:101B2000089597F99F6780E870E060E008959FEF5F
:101B300080EC089500240A94161617061806090664
:101B4000089500240A941216130614060506089533
:101B5000092E0394000C11F4882352F0BB0F40F4BB
:101B6000BF2B11F460FF04C06F5F7F4F8F4F9F4FFB
:101B7000089557FD9058440F551F59F05F3F71F07D
:101B80004795880F97FB991F61F09F3F79F08795E4
:101B90000895121613061406551FF2CF4695F1DF6D
:101BA00008C0161617061806991FF1CF86957105FD
:101BB000610508940895E894BB2766277727CB0131
:101BC00097F908950E94F50D0C94A80D0E949A0DA6
:101BD00038F00E94A10D20F0952311F00C94910D86
:101BE0000C94970D11240C94DC0D0E94B90D70F328
:101BF000959FC1F3950F50E0551F629FF001729FB2
:101C0000BB27F00DB11D639FAA27F00DB11DAA1FC0
:101C1000649F6627B00DA11D661F829F2227B00D0D
:101C2000A11D621F739FB00DA11D621F839FA00D98
:101C3000611D221F749F3327A00D611D231F849FE8
:101C4000600D211D822F762F6A2F11249F5750403F
:101C50009AF0F1F088234AF0EE0FFF1FBB1F661FBA
:101C6000771F881F91505040A9F79E3F510580F083
:101C70000C94910D0C94DC0D5F3FE4F3983ED4F38B
:101C8000869577956795B795F795E7959F5FC1F727
:101C9000FE2B880F911D9695879597F90895A0E1E1
:101CA000B0E0E5E5FEE00C94CC117C011B016A017B
:101CB000FC0116821782838181FF44C39E012F5F3E
:101CC0003F4F3901F7019381F10193FD859193FF16
:101CD00081911F01882309F431C3853239F493FDC2
:101CE000859193FF81911F01853239F4B70190E00E
:101CF0000E94FD1256016501E5CF10E0512C912C98
:101D0000FFE1F915D8F08B3279F038F4803279F0B0
:101D10008332A1F4F92DF0612EC08D3261F0803351
:101D200069F4292D21602DC0392D3260932E892D23
:101D30008460982E2AC0E92DE86015C097FC2DC05C
:101D400020ED280F2A3088F496FE06C03AE0139F53
:101D5000200D1124122F19C08AE0589E200D112445
:101D6000522EE92DE0629E2E10C08E3231F496FC88
:101D7000E5C2F92DF0649F2E08C08C3621F4292D80
:101D80002068922E02C0883641F4F10193FD8591BE
:101D900093FF81911F018111B3CF9BEB980F93307B
:101DA00020F4992D9061805E07C09BE9980F9330D5
:101DB00008F066C1992D9F7E96FF16E09F73992EBD
:101DC000853619F49064992E08C0863621F4392F8F
:101DD0003068932E02C01111115097FE07C01C33BA
:101DE00050F444244394410E27E00BC0183038F0DF
:101DF00027E017E005C027E09CE3492E02C0212F11
:101E0000412C560184E0A80EB11CF601608171815D
:101E100082819381042DA3010E94FD116C01F9813F
:101E2000FC87F0FF02C0F3FF06C091FC06C092FEE3
:101E300006C000E205C00DE203C00BE201C000E0F5
:101E40008C858C7019F001115AC29BC297FE10C08C
:101E50004C0CFC85F4FF04C08A81813309F44A9458
:101E6000141474F528E0241578F588E0482E2CC069
:101E700096FC2AC0812F90E08C159D059CF03CEFCC
:101E8000C3163FEFD30674F0892D8068982E0AC0E0
:101E9000E2E0F0E0EC0FFD1FE10FF11D80818033E7
:101EA00019F411501111F4CF97FE0EC0442443943D
:101EB000410E812F90E0C816D9062CF41C1904C0DD
:101EC0004424439401C010E097FE06C01C141D0476
:101ED00034F4C601019605C085E090E002C081E0BF
:101EE00090E001110196112331F0212F30E02F5F96
:101EF0003F4F820F931F252D30E08217930714F474
:101F0000581A01C0512C892D897049F4552039F097
:101F1000B70180E290E00E94FD125A94F7CF0023AF
:101F200029F0B701802F90E00E94FD1293FC09C0B8
:101F3000552039F0B70180E390E00E94FD125A94D9
:101F4000F7CF97FE4CC04601D7FE02C0812C912CE2
:101F5000C60188199909F301E80FF91FED87FE877B
:101F60009601241931092F87388B012F10E0119524
:101F7000019511093FEF8316930629F4B7018EE20C
:101F800090E00E94FD12C814D9044CF08F85988906
:101F90008815990524F4ED85FE85818101C080E3D3
:101FA000F1E08F1A91082D853E852F5F3F4F2D87D9
:101FB0003E87801691062CF0B70190E00E94FD123A
:101FC000D9CFC814D90441F49A81963320F49533BB
:101FD00019F43C8534FF81E3B70190E04EC08A815B
:101FE000813319F09C859F7E9C87B70190E00E9409
:101FF000FD12111105C094FC18C085E690E017C0D1
:10200000B7018EE290E00E94FD121E5F82E001E0C7
:10201000080FF301E80FF11D8081B70190E00E94E5
:10202000FD12802F0113F3CFE6CF85E490E0B701D6
:102030000E94FD12D7FC06C0C114D10441F4EC8506
:10204000E4FF05C0D194C194D1088DE201C08BE2B8
:10205000B70190E00E94FD1280E32AE0C216D1048D
:102060002CF08F5FFAE0CF1AD108F7CFB70190E0DC
:102070000E94FD12B701C601C0960E94FD1254C114
:10208000833631F0833779F0833509F056C020C0AC
:10209000560132E0A30EB11CF6018081898301E074
:1020A00010E0630112C05601F2E0AF0EB11CF60160
:1020B000C080D18096FE03C0612F70E002C06FEF38
:1020C0007FEFC6010E94F2128C01F92DFF7714C038
:1020D000560122E0A20EB11CF601C080D18096FE0E
:1020E00003C0612F70E002C06FEF7FEFC6010E9456
:1020F000D5128C01F92DF0689F2EF3FD1AC0852DA5
:1021000090E008171907A8F4B70180E290E00E9458
:10211000FD125A94F4CFF60197FC859197FE8191B8
:102120006F01B70190E00E94FD1251105A940150C6
:1021300011090115110579F7F7C0843611F08936B8
:1021400061F5560197FE09C024E0A20EB11CF6010C
:1021500060817181828193810AC0F2E0AF0EB11C6F
:10216000F60160817181072E000C880B990BF92D07
:10217000FF769F2E97FF09C0909580957095619589
:102180007F4F8F4F9F4FF0689F2E2AE030E0A301D2
:102190000E945B13C82EC6183FC0092D853721F455
:1021A0000F7E2AE030E01DC0097F8F3691F018F4D1
:1021B000883559F0C3C0803719F0883711F0BEC098
:1021C000006104FF09C0046007C094FE08C00660F7
:1021D00006C028E030E005C020E130E002C020E188
:1021E00032E0560107FF09C084E0A80EB11CF601D9
:1021F000608171818281938108C0F2E0AF0EB11CD1
:10220000F6016081718180E090E0A3010E945B1380
:10221000C82EC6180F77902E96FE0BC0092D0E7F84
:10222000C11650F494FE0AC092FC08C0092D0E7E1F
:1022300005C0DC2C092D03C0DC2C01C0D12E04FF0D
:102240000DC0FE01EC0DF11D8081803311F4097E7B
:1022500009C002FF06C0D394D39404C0802F8678AF
:1022600009F0D39403FD11C000FF06C01C2DD51446
:1022700080F4150D1D190DC0D51458F4B70180E276
:1022800090E00E94FD12D394F7CFD51410F45D189E
:1022900001C0512C04FF10C0B70180E390E00E9400
:1022A000FD1202FF17C001FD03C088E790E002C0E5
:1022B00088E590E0B7010CC0802F867859F001FFC7
:1022C00002C08BE201C080E207FD8DE2B70190E021
:1022D0000E94FD12C11638F4B70180E390E00E941D
:1022E000FD121150F7CFCA94F301EC0DF11D80815E
:1022F000B70190E00E94FD12C110F5CF15C0F4E0C7
:10230000F51560F584E0581A93FE1FC0011127C02F
:102310002C8523FF2AC000EA10E0392D3071932E5E
:10232000F8018491811124C0552009F4E4CCB7014F
:1023300080E290E00E94FD125A94F6CFF701868168
:10234000978126C08FEF9FEF23C0B70180E290E016
:102350000E94FD125A945110F8CFD8CF512CB701DA
:10236000802F90E00E94FD12D3CF04EA10E0D5CF79
:1023700091108052B70190E00E94FD120F5F1F4F35
:10238000CFCF23E0251510F483E0BDCF512CC0CF73
:102390006096E2E10C94E5112F923F924F925F928A
:1023A0006F927F928F929F92AF92BF92CF92DF9265
:1023B000EF92FF920F931F93CF93DF93CDB7DEB7CA
:1023C000CA1BDB0BCDBFDEBF09942A883988488839
:1023D0005F846E847D848C849B84AA84B984C88441
:1023E000DF80EE80FD800C811B81AA81B981CE0F38
:1023F000D11DCDBFDEBFED010895283008F027E0E4
:102400003327DA01990F311D87FD91600096610530
:10241000710539F432602E5F3D9330E32A95E1F780
:1024200008959F3F30F080387105610509F03C5FE9
:102430003C5F3D93913008F08068911DDF93CF930E
:102440001F930F93FF92EF92192F987F9695E92F84
:1024500096959695E90FFF27EE5FFE4F9927332754
:10246000EE24FF24A701E70105900894079428F4BF
:10247000360FE71EF81E491F511D660F771F881F74
:10248000991F0694A1F70590079428F4E70EF81E0B
:10249000491F561FC11D770F881F991F661F06947D
:1024A000A1F70590079428F4F80E491F561FC71F7F
:1024B000D11D880F991F661F771F0694A1F70590FD
:1024C000079420F4490F561FC71FD81F990F661F86
:1024D000771F881F0694A9F784911095177041F013
:1024E000D695C79557954795F794E7941A95C1F7F0
:1024F000E8EAF0E068941590159135916591959111
:1025000005907FE27395E118F10A430B560BC90B56
:10251000D009C0F7E10CF11E431F561FC91FD01D83
:102520007EF4703311F48A95E6CFE894015030F0D0
:10253000080F0AF40027021708F4202F2395022F12
:102540007A3328F079E37D932A95E9F710C07D93DB
:102550002A9589F606949795679537951795179458
:10256000E118F10A430B560BC90BD00998F02395DB
:102570007E9173957A3308F070E37C932013B8F75B
:102580007E9170617D9330F0839571E37D9370E36C
:102590002A95E1F71124EF90FF900F911F91CF91B1
:1025A000DF91992787FD90950895FC010590615072
:1025B00070400110D8F7809590958E0F9F1F089559
:1025C000FB01DC010D900020E9F7119701900D92BD
:1025D0000020E1F70895FB01DC0101900D9200203D
:1025E000E1F70895FC016150704001900110D8F7A7
:1025F000809590958E0F9F1F08950F931F93CF93F3
:10260000DF93FB01238121FD03C08FEF9FEF2CC0DF
:1026100022FF16C046815781248135814217530716
:1026200044F4A081B1819D012F5F3F4F208331830E
:102630008C93268137812F5F3F4F2683378314C0C9
:102640008B01EC01FB010084F185E02D0995892BBC
:10265000E1F6D80116968D919C91179701961696E2
:102660008D939C931797CE01DF91CF911F910F917E
:102670000895AEE0B0E0EFE3F3E10C94DA110D89D8
:102680001E8986E08C8309831A838FEF9FE78D83F1
:102690009E83AE01475E5F4F6F89788DCE010196B4
:1026A0000E944F0EEF81F885E00FF11F10822E96E9
:1026B000E4E00C94F311FA01AA27283051F12031FB
:1026C00081F1E8946F936E7F6E5F7F4F8F4F9F4FC6
:1026D000AF4FB1E03ED0B4E03CD0670F781F891F08
:1026E0009A1FA11D680F791F8A1F911DA11D6A0FD6
:1026F000711D811D911DA11D20D009F468943F9189
:102700002AE0269F11243019305D3193DEF6CF0187
:102710000895462F4770405D4193B3E00FD0C9F74D
:10272000F6CF462F4F70405D4A3318F0495D31FDBA
:102730004052419302D0A9F7EACFB4E0A69597950D
:10274000879577956795BA95C9F7009761057105E3
:1027500008959B01AC010A2E06945795479537952D
:102760002795BA95C9F7620F731F841F951FA01D87
:10277000089560507C4E0C94F413DC01A40FB51F37
:102780004150504048F0CB01840F951F2E910E947C
:10279000CE1341505040D0F70895262F0E94F013D9
:1027A0000080021619F00E94D9130197019708952D
:1027B000262FAF93BF93E0E0F0E1328131FDFDCFF2
:1027C000DC01A050BC4E2C932DE924BF23E02083D4
:1027D0000196BF91AF91089503D080819927089504
:1027E000FC01E050FC4E0895FB01DC0102C00190A9
:0E27F0000D9241505040D8F70895F894FFCF55
:1027FE003230253032782D253032782D2530327812
:10280E0054253032783A253032783A253032785A9B
:10281E000044533332333120726561642065727225
:10282E006F72002A253032580D0A00245332455259
:10283E00522A32340D0A0020202020202020202071
:10284E002020202020202000323032312D30312D1A
:10285E003032002453256442544D2C2573002453EA
:10286E00256454494D2C2573002453256456455236
:10287E002C25730024532564454E562C25332E31BA
:10288E0066432C25312E306625252C25332E3166B8
:10289E00432C25312E306625252C25332E316643CB
:1028AE002C25312E30662525002573207265616436
:0D28BE002066726F6D206672616D0D0A005C
:0228CB0001000A
:00000001FF
