:100000000C943C000C9446000C9446000C94460062
:100010000C9446000C9446000C9446000C94460048
:100020000C9446000C9446000C9446000C94460038
:100030000C9446000C9446000C9446000C94460028
:100040000C9446000C9446000C9446000C94460018
:100050000C9446000C9446000C9446000C94460008
:100060000C9446000C9446000C9446000C944600F8
:100070000C9446000C94460011241FBECFEFCDBF58
:10008000DFE3DEBF0E9467000C9486000C94000042
:1000900088E080935404E0E2F4E080E88583818383
:1000A000E0E0F4E084E08683818382E086838183DC
:1000B0000895E0E0F4E084E0868382E0858308959B
:1000C000E0E0F4E082E0868384E0858308950E9486
:1000D00048002AE28CE29AE0215080409040E1F70B
:1000E00000000E9459002AE08BE892E021508040F5
:1000F0009040E1F700C00E9460002AE08BE892E0A7
:10010000215080409040E1F700C0EBCFF894FFCF42
:00000001FF
